{
  "contractName": "PredictionMarket",
  "abi": [
    {
      "anonymous": false,
      "inputs": [
        {
          "indexed": false,
          "internalType": "address",
          "name": "_topicAddress",
          "type": "address"
        }
      ],
      "name": "TopicCreated",
      "type": "event"
    },
    {
      "constant": true,
      "inputs": [
        {
          "internalType": "address",
          "name": "",
          "type": "address"
        }
      ],
      "name": "arbitrators",
      "outputs": [
        {
          "internalType": "bytes32",
          "name": "displayName",
          "type": "bytes32"
        },
        {
          "internalType": "uint8",
          "name": "trustworthiness",
          "type": "uint8"
        },
        {
          "internalType": "bool",
          "name": "isValid",
          "type": "bool"
        }
      ],
      "payable": false,
      "stateMutability": "view",
      "type": "function"
    },
    {
      "constant": true,
      "inputs": [
        {
          "internalType": "address",
          "name": "",
          "type": "address"
        }
      ],
      "name": "marketTopics",
      "outputs": [
        {
          "internalType": "contract Topic",
          "name": "",
          "type": "address"
        }
      ],
      "payable": false,
      "stateMutability": "view",
      "type": "function"
    },
    {
      "constant": true,
      "inputs": [
        {
          "internalType": "address",
          "name": "",
          "type": "address"
        }
      ],
      "name": "traders",
      "outputs": [
        {
          "internalType": "uint256",
          "name": "winScore",
          "type": "uint256"
        },
        {
          "internalType": "uint256",
          "name": "loseScore",
          "type": "uint256"
        },
        {
          "internalType": "bool",
          "name": "isValid",
          "type": "bool"
        }
      ],
      "payable": false,
      "stateMutability": "view",
      "type": "function"
    },
    {
      "constant": false,
      "inputs": [],
      "name": "createTrader",
      "outputs": [],
      "payable": false,
      "stateMutability": "nonpayable",
      "type": "function"
    },
    {
      "constant": false,
      "inputs": [
        {
          "internalType": "bytes32",
          "name": "_displayName",
          "type": "bytes32"
        }
      ],
      "name": "createArbitrator",
      "outputs": [],
      "payable": false,
      "stateMutability": "nonpayable",
      "type": "function"
    },
    {
      "constant": true,
      "inputs": [],
      "name": "getAllArbitrators",
      "outputs": [
        {
          "internalType": "address payable[]",
          "name": "",
          "type": "address[]"
        }
      ],
      "payable": false,
      "stateMutability": "view",
      "type": "function"
    },
    {
      "constant": true,
      "inputs": [],
      "name": "getAllArbitratorNames",
      "outputs": [
        {
          "internalType": "bytes32[]",
          "name": "",
          "type": "bytes32[]"
        }
      ],
      "payable": false,
      "stateMutability": "view",
      "type": "function"
    },
    {
      "constant": true,
      "inputs": [
        {
          "internalType": "address",
          "name": "id",
          "type": "address"
        }
      ],
      "name": "getVotersReputation",
      "outputs": [
        {
          "internalType": "uint256[2]",
          "name": "",
          "type": "uint256[2]"
        }
      ],
      "payable": false,
      "stateMutability": "view",
      "type": "function"
    },
    {
      "constant": true,
      "inputs": [],
      "name": "checkIdentity",
      "outputs": [
        {
          "internalType": "bytes32",
          "name": "",
          "type": "bytes32"
        }
      ],
      "payable": false,
      "stateMutability": "view",
      "type": "function"
    },
    {
      "constant": false,
      "inputs": [
        {
          "internalType": "string",
          "name": "name",
          "type": "string"
        },
        {
          "internalType": "string",
          "name": "description",
          "type": "string"
        },
        {
          "internalType": "bytes32[]",
          "name": "options",
          "type": "bytes32[]"
        },
        {
          "internalType": "uint256",
          "name": "expiryDate",
          "type": "uint256"
        },
        {
          "internalType": "address payable[]",
          "name": "selectedArbitrators",
          "type": "address[]"
        }
      ],
      "name": "createTopic",
      "outputs": [],
      "payable": true,
      "stateMutability": "payable",
      "type": "function"
    },
    {
      "constant": true,
      "inputs": [],
      "name": "getAllTopics",
      "outputs": [
        {
          "internalType": "address[]",
          "name": "",
          "type": "address[]"
        }
      ],
      "payable": false,
      "stateMutability": "view",
      "type": "function"
    },
    {
      "constant": true,
      "inputs": [
        {
          "internalType": "address",
          "name": "topicAddress",
          "type": "address"
        }
      ],
      "name": "getCreatorAddress",
      "outputs": [
        {
          "internalType": "address payable",
          "name": "",
          "type": "address"
        }
      ],
      "payable": false,
      "stateMutability": "view",
      "type": "function"
    },
    {
      "constant": true,
      "inputs": [
        {
          "internalType": "address",
          "name": "topicAddress",
          "type": "address"
        }
      ],
      "name": "getName",
      "outputs": [
        {
          "internalType": "string",
          "name": "",
          "type": "string"
        }
      ],
      "payable": false,
      "stateMutability": "view",
      "type": "function"
    },
    {
      "constant": true,
      "inputs": [
        {
          "internalType": "address",
          "name": "topicAddress",
          "type": "address"
        }
      ],
      "name": "getDescription",
      "outputs": [
        {
          "internalType": "string",
          "name": "",
          "type": "string"
        }
      ],
      "payable": false,
      "stateMutability": "view",
      "type": "function"
    },
    {
      "constant": true,
      "inputs": [
        {
          "internalType": "address",
          "name": "topicAddress",
          "type": "address"
        }
      ],
      "name": "getOptions",
      "outputs": [
        {
          "internalType": "bytes32[]",
          "name": "",
          "type": "bytes32[]"
        }
      ],
      "payable": false,
      "stateMutability": "view",
      "type": "function"
    },
    {
      "constant": true,
      "inputs": [
        {
          "internalType": "address",
          "name": "topicAddress",
          "type": "address"
        }
      ],
      "name": "getMarketCap",
      "outputs": [
        {
          "internalType": "uint256",
          "name": "",
          "type": "uint256"
        }
      ],
      "payable": false,
      "stateMutability": "view",
      "type": "function"
    },
    {
      "constant": true,
      "inputs": [
        {
          "internalType": "address",
          "name": "topicAddress",
          "type": "address"
        }
      ],
      "name": "getCreatorBond",
      "outputs": [
        {
          "internalType": "uint256",
          "name": "",
          "type": "uint256"
        }
      ],
      "payable": false,
      "stateMutability": "view",
      "type": "function"
    },
    {
      "constant": true,
      "inputs": [
        {
          "internalType": "address",
          "name": "topicAddress",
          "type": "address"
        }
      ],
      "name": "getExpiryDate",
      "outputs": [
        {
          "internalType": "uint256",
          "name": "",
          "type": "uint256"
        }
      ],
      "payable": false,
      "stateMutability": "view",
      "type": "function"
    },
    {
      "constant": true,
      "inputs": [
        {
          "internalType": "address",
          "name": "topicAddress",
          "type": "address"
        }
      ],
      "name": "getSelectedArbitrators",
      "outputs": [
        {
          "internalType": "address payable[]",
          "name": "",
          "type": "address[]"
        }
      ],
      "payable": false,
      "stateMutability": "view",
      "type": "function"
    },
    {
      "constant": true,
      "inputs": [],
      "name": "getCurrentBalance",
      "outputs": [
        {
          "internalType": "uint256",
          "name": "",
          "type": "uint256"
        }
      ],
      "payable": false,
      "stateMutability": "view",
      "type": "function"
    }
  ],
  "bytecode": "0x608060405234801561001057600080fd5b50614753806100206000396000f3fe6080604052600436106200013a5760003560e01c806386416f1411620000af578063c082c30c116200006d578063c082c30c1462000a44578063c86b21591462000ad9578063c9e519e81462000b42578063d146d31d1462000bb3578063e7c256b61462000c1c576200013a565b806386416f14146200083f57806392a88fa214620008b0578063a5749710146200092b578063b22712681462000959578063b4b1d9c71462000973576200013a565b8063420d3ae811620000fd578063420d3ae8146200060f5780634de1c9e4146200064e57806351d0ea37146200067c5780635fd4b08a14620006fd5780636f762d8a14620007ce576200013a565b806302d54fbf146200013f578063158f3c1e14620001d45780631aa90abc14620004675780633d59f85b14620005135780633fd8667b14620005a6575b600080fd5b3480156200014c57600080fd5b5062000192600480360360208110156200016557600080fd5b81019080803573ffffffffffffffffffffffffffffffffffffffff16906020019092919050505062000cc8565b604051808273ffffffffffffffffffffffffffffffffffffffff1673ffffffffffffffffffffffffffffffffffffffff16815260200191505060405180910390f35b62000465600480360360a0811015620001ec57600080fd5b81019080803590602001906401000000008111156200020a57600080fd5b8201836020820111156200021d57600080fd5b803590602001918460018302840111640100000000831117156200024057600080fd5b91908080601f016020809104026020016040519081016040528093929190818152602001838380828437600081840152601f19601f82011690508083019250505050505050919291929080359060200190640100000000811115620002a457600080fd5b820183602082011115620002b757600080fd5b80359060200191846001830284011164010000000083111715620002da57600080fd5b91908080601f016020809104026020016040519081016040528093929190818152602001838380828437600081840152601f19601f820116905080830192505050505050509192919290803590602001906401000000008111156200033e57600080fd5b8201836020820111156200035157600080fd5b803590602001918460208302840111640100000000831117156200037457600080fd5b919080806020026020016040519081016040528093929190818152602001838360200280828437600081840152601f19601f8201169050808301925050505050505091929192908035906020019092919080359060200190640100000000811115620003df57600080fd5b820183602082011115620003f257600080fd5b803590602001918460208302840111640100000000831117156200041557600080fd5b919080806020026020016040519081016040528093929190818152602001838360200280828437600081840152601f19601f82011690508083019250505050505050919291929050505062000cfb565b005b3480156200047457600080fd5b50620004ba600480360360208110156200048d57600080fd5b81019080803573ffffffffffffffffffffffffffffffffffffffff169060200190929190505050620010fa565b6040518080602001828103825283818151815260200191508051906020019060200280838360005b83811015620004ff578082015181840152602081019050620004e2565b505050509050019250505060405180910390f35b3480156200052057600080fd5b5062000566600480360360208110156200053957600080fd5b81019080803573ffffffffffffffffffffffffffffffffffffffff16906020019092919050505062001285565b6040518082600260200280838360005b838110156200059357808201518184015260208101905062000576565b5050505090500191505060405180910390f35b348015620005b357600080fd5b50620005f960048036036020811015620005cc57600080fd5b81019080803573ffffffffffffffffffffffffffffffffffffffff16906020019092919050505062001370565b6040518082815260200191505060405180910390f35b3480156200061c57600080fd5b506200064c600480360360208110156200063557600080fd5b81019080803590602001909291905050506200145c565b005b3480156200065b57600080fd5b5062000666620015d5565b6040518082815260200191505060405180910390f35b3480156200068957600080fd5b50620006cf60048036036020811015620006a257600080fd5b81019080803573ffffffffffffffffffffffffffffffffffffffff169060200190929190505050620016fb565b604051808481526020018360ff1660ff16815260200182151515158152602001935050505060405180910390f35b3480156200070a57600080fd5b5062000750600480360360208110156200072357600080fd5b81019080803573ffffffffffffffffffffffffffffffffffffffff1690602001909291905050506200173f565b6040518080602001828103825283818151815260200191508051906020019080838360005b838110156200079257808201518184015260208101905062000775565b50505050905090810190601f168015620007c05780820380516001836020036101000a031916815260200191505b509250505060405180910390f35b348015620007db57600080fd5b50620007e6620018ef565b6040518080602001828103825283818151815260200191508051906020019060200280838360005b838110156200082b5780820151818401526020810190506200080e565b505050509050019250505060405180910390f35b3480156200084c57600080fd5b506200085762001a4b565b6040518080602001828103825283818151815260200191508051906020019060200280838360005b838110156200089c5780820151818401526020810190506200087f565b505050509050019250505060405180910390f35b348015620008bd57600080fd5b506200090360048036036020811015620008d657600080fd5b81019080803573ffffffffffffffffffffffffffffffffffffffff16906020019092919050505062001adb565b6040518084815260200183815260200182151515158152602001935050505060405180910390f35b3480156200093857600080fd5b506200094362001b12565b6040518082815260200191505060405180910390f35b3480156200096657600080fd5b506200097162001b1a565b005b3480156200098057600080fd5b50620009c6600480360360208110156200099957600080fd5b81019080803573ffffffffffffffffffffffffffffffffffffffff16906020019092919050505062001c11565b6040518080602001828103825283818151815260200191508051906020019080838360005b8381101562000a08578082015181840152602081019050620009eb565b50505050905090810190601f16801562000a365780820380516001836020036101000a031916815260200191505b509250505060405180910390f35b34801562000a5157600080fd5b5062000a976004803603602081101562000a6a57600080fd5b81019080803573ffffffffffffffffffffffffffffffffffffffff16906020019092919050505062001dc1565b604051808273ffffffffffffffffffffffffffffffffffffffff1673ffffffffffffffffffffffffffffffffffffffff16815260200191505060405180910390f35b34801562000ae657600080fd5b5062000b2c6004803603602081101562000aff57600080fd5b81019080803573ffffffffffffffffffffffffffffffffffffffff16906020019092919050505062001ead565b6040518082815260200191505060405180910390f35b34801562000b4f57600080fd5b5062000b5a62001f99565b6040518080602001828103825283818151815260200191508051906020019060200280838360005b8381101562000b9f57808201518184015260208101905062000b82565b505050509050019250505060405180910390f35b34801562000bc057600080fd5b5062000c066004803603602081101562000bd957600080fd5b81019080803573ffffffffffffffffffffffffffffffffffffffff16906020019092919050505062002029565b6040518082815260200191505060405180910390f35b34801562000c2957600080fd5b5062000c6f6004803603602081101562000c4257600080fd5b81019080803573ffffffffffffffffffffffffffffffffffffffff16906020019092919050505062002115565b6040518080602001828103825283818151815260200191508051906020019060200280838360005b8381101562000cb457808201518184015260208101905062000c97565b505050509050019250505060405180910390f35b60026020528060005260406000206000915054906101000a900473ffffffffffffffffffffffffffffffffffffffff1681565b60003390506000808273ffffffffffffffffffffffffffffffffffffffff1673ffffffffffffffffffffffffffffffffffffffff16815260200190815260200160002060020160009054906101000a900460ff1662000d5957600080fd5b6000341162000d6757600080fd5b62000d738183620022a0565b62000d7d57600080fd5b60003490506000828888888589893060405162000d9a9062002386565b808973ffffffffffffffffffffffffffffffffffffffff1673ffffffffffffffffffffffffffffffffffffffff168152602001806020018060200180602001888152602001878152602001806020018673ffffffffffffffffffffffffffffffffffffffff1673ffffffffffffffffffffffffffffffffffffffff16815260200185810385528c818151815260200191508051906020019080838360005b8381101562000e5557808201518184015260208101905062000e38565b50505050905090810190601f16801562000e835780820380516001836020036101000a031916815260200191505b5085810384528b818151815260200191508051906020019080838360005b8381101562000ebe57808201518184015260208101905062000ea1565b50505050905090810190601f16801562000eec5780820380516001836020036101000a031916815260200191505b5085810383528a818151815260200191508051906020019060200280838360005b8381101562000f2a57808201518184015260208101905062000f0d565b50505050905001858103825287818151815260200191508051906020019060200280838360005b8381101562000f6e57808201518184015260208101905062000f51565b505050509050019c50505050505050505050505050604051809103906000f08015801562000fa0573d6000803e3d6000fd5b509050600081905081600260008373ffffffffffffffffffffffffffffffffffffffff1673ffffffffffffffffffffffffffffffffffffffff16815260200190815260200160002060006101000a81548173ffffffffffffffffffffffffffffffffffffffff021916908373ffffffffffffffffffffffffffffffffffffffff16021790555060038190806001815401808255809150509060018203906000526020600020016000909192909190916101000a81548173ffffffffffffffffffffffffffffffffffffffff021916908373ffffffffffffffffffffffffffffffffffffffff160217905550507f3c1b2955a570d7b24867f47b5827c8c97e344bed881c4519bad1dd91656279da81604051808273ffffffffffffffffffffffffffffffffffffffff1673ffffffffffffffffffffffffffffffffffffffff16815260200191505060405180910390a1505050505050505050565b6060600260008373ffffffffffffffffffffffffffffffffffffffff1673ffffffffffffffffffffffffffffffffffffffff16815260200190815260200160002060009054906101000a900473ffffffffffffffffffffffffffffffffffffffff1673ffffffffffffffffffffffffffffffffffffffff1663894c3b1f6040518163ffffffff1660e01b815260040160006040518083038186803b158015620011a257600080fd5b505afa158015620011b7573d6000803e3d6000fd5b505050506040513d6000823e3d601f19601f820116820180604052506020811015620011e257600080fd5b81019080805160405193929190846401000000008211156200120357600080fd5b838201915060208201858111156200121a57600080fd5b82518660208202830111640100000000821117156200123857600080fd5b8083526020830192505050908051906020019060200280838360005b838110156200127157808201518184015260208101905062001254565b505050509050016040525050509050919050565b6200128f62002394565b60405180604001604052806000808573ffffffffffffffffffffffffffffffffffffffff1673ffffffffffffffffffffffffffffffffffffffff1681526020019081526020016000206000015481526020016000808573ffffffffffffffffffffffffffffffffffffffff1673ffffffffffffffffffffffffffffffffffffffff168152602001908152602001600020600101546000808673ffffffffffffffffffffffffffffffffffffffff1673ffffffffffffffffffffffffffffffffffffffff16815260200190815260200160002060000154018152509050919050565b6000600260008373ffffffffffffffffffffffffffffffffffffffff1673ffffffffffffffffffffffffffffffffffffffff16815260200190815260200160002060009054906101000a900473ffffffffffffffffffffffffffffffffffffffff1673ffffffffffffffffffffffffffffffffffffffff1663459d6e4f6040518163ffffffff1660e01b815260040160206040518083038186803b1580156200141857600080fd5b505afa1580156200142d573d6000803e3d6000fd5b505050506040513d60208110156200144457600080fd5b81019080805190602001909291905050509050919050565b6000339050600160008273ffffffffffffffffffffffffffffffffffffffff1673ffffffffffffffffffffffffffffffffffffffff16815260200190815260200160002060010160019054906101000a900460ff1615620014bc57600080fd5b6040518060600160405280838152602001603260ff16815260200160011515815250600160008373ffffffffffffffffffffffffffffffffffffffff1673ffffffffffffffffffffffffffffffffffffffff1681526020019081526020016000206000820151816000015560208201518160010160006101000a81548160ff021916908360ff16021790555060408201518160010160016101000a81548160ff02191690831515021790555090505060048190806001815401808255809150509060018203906000526020600020016000909192909190916101000a81548173ffffffffffffffffffffffffffffffffffffffff021916908373ffffffffffffffffffffffffffffffffffffffff160217905550505050565b60008060003373ffffffffffffffffffffffffffffffffffffffff1673ffffffffffffffffffffffffffffffffffffffff16815260200190815260200160002060020160009054906101000a900460ff161562001655577f54726164657200000000000000000000000000000000000000000000000000009050620016f8565b600160003373ffffffffffffffffffffffffffffffffffffffff1673ffffffffffffffffffffffffffffffffffffffff16815260200190815260200160002060010160019054906101000a900460ff1615620016d4577f41726269747261746f72000000000000000000000000000000000000000000009050620016f8565b7f496e76616c69640000000000000000000000000000000000000000000000000090505b90565b60016020528060005260406000206000915090508060000154908060010160009054906101000a900460ff16908060010160019054906101000a900460ff16905083565b6060600260008373ffffffffffffffffffffffffffffffffffffffff1673ffffffffffffffffffffffffffffffffffffffff16815260200190815260200160002060009054906101000a900473ffffffffffffffffffffffffffffffffffffffff1673ffffffffffffffffffffffffffffffffffffffff166306fdde036040518163ffffffff1660e01b815260040160006040518083038186803b158015620017e757600080fd5b505afa158015620017fc573d6000803e3d6000fd5b505050506040513d6000823e3d601f19601f8201168201806040525060208110156200182757600080fd5b81019080805160405193929190846401000000008211156200184857600080fd5b838201915060208201858111156200185f57600080fd5b82518660018202830111640100000000821117156200187d57600080fd5b8083526020830192505050908051906020019080838360005b83811015620018b357808201518184015260208101905062001896565b50505050905090810190601f168015620018e15780820380516001836020036101000a031916815260200191505b506040525050509050919050565b6060600060048054905090506060816040519080825280602002602001820160405280156200192d5781602001602082028038833980820191505090505b50905060008090505b8281101562001a42576000600482815481106200194f57fe5b9060005260206000200160009054906101000a900473ffffffffffffffffffffffffffffffffffffffff16905062001986620023b6565b600160008373ffffffffffffffffffffffffffffffffffffffff1673ffffffffffffffffffffffffffffffffffffffff168152602001908152602001600020604051806060016040529081600082015481526020016001820160009054906101000a900460ff1660ff1660ff1681526020016001820160019054906101000a900460ff1615151515815250509050806000015184848151811062001a2657fe5b6020026020010181815250505050808060010191505062001936565b50809250505090565b6060600380548060200260200160405190810160405280929190818152602001828054801562001ad157602002820191906000526020600020905b8160009054906101000a900473ffffffffffffffffffffffffffffffffffffffff1673ffffffffffffffffffffffffffffffffffffffff168152602001906001019080831162001a86575b5050505050905090565b60006020528060005260406000206000915090508060000154908060010154908060020160009054906101000a900460ff16905083565b600047905090565b60003390506000808273ffffffffffffffffffffffffffffffffffffffff1673ffffffffffffffffffffffffffffffffffffffff16815260200190815260200160002060020160009054906101000a900460ff161562001b7957600080fd5b60405180606001604052806064815260200160648152602001600115158152506000808373ffffffffffffffffffffffffffffffffffffffff1673ffffffffffffffffffffffffffffffffffffffff168152602001908152602001600020600082015181600001556020820151816001015560408201518160020160006101000a81548160ff02191690831515021790555090505050565b6060600260008373ffffffffffffffffffffffffffffffffffffffff1673ffffffffffffffffffffffffffffffffffffffff16815260200190815260200160002060009054906101000a900473ffffffffffffffffffffffffffffffffffffffff1673ffffffffffffffffffffffffffffffffffffffff16637284e4166040518163ffffffff1660e01b815260040160006040518083038186803b15801562001cb957600080fd5b505afa15801562001cce573d6000803e3d6000fd5b505050506040513d6000823e3d601f19601f82011682018060405250602081101562001cf957600080fd5b810190808051604051939291908464010000000082111562001d1a57600080fd5b8382019150602082018581111562001d3157600080fd5b825186600182028301116401000000008211171562001d4f57600080fd5b8083526020830192505050908051906020019080838360005b8381101562001d8557808201518184015260208101905062001d68565b50505050905090810190601f16801562001db35780820380516001836020036101000a031916815260200191505b506040525050509050919050565b6000600260008373ffffffffffffffffffffffffffffffffffffffff1673ffffffffffffffffffffffffffffffffffffffff16815260200190815260200160002060009054906101000a900473ffffffffffffffffffffffffffffffffffffffff1673ffffffffffffffffffffffffffffffffffffffff1663fbcc1e716040518163ffffffff1660e01b815260040160206040518083038186803b15801562001e6957600080fd5b505afa15801562001e7e573d6000803e3d6000fd5b505050506040513d602081101562001e9557600080fd5b81019080805190602001909291905050509050919050565b6000600260008373ffffffffffffffffffffffffffffffffffffffff1673ffffffffffffffffffffffffffffffffffffffff16815260200190815260200160002060009054906101000a900473ffffffffffffffffffffffffffffffffffffffff1673ffffffffffffffffffffffffffffffffffffffff1663516dde436040518163ffffffff1660e01b815260040160206040518083038186803b15801562001f5557600080fd5b505afa15801562001f6a573d6000803e3d6000fd5b505050506040513d602081101562001f8157600080fd5b81019080805190602001909291905050509050919050565b606060048054806020026020016040519081016040528092919081815260200182805480156200201f57602002820191906000526020600020905b8160009054906101000a900473ffffffffffffffffffffffffffffffffffffffff1673ffffffffffffffffffffffffffffffffffffffff168152602001906001019080831162001fd4575b5050505050905090565b6000600260008373ffffffffffffffffffffffffffffffffffffffff1673ffffffffffffffffffffffffffffffffffffffff16815260200190815260200160002060009054906101000a900473ffffffffffffffffffffffffffffffffffffffff1673ffffffffffffffffffffffffffffffffffffffff16632c135b936040518163ffffffff1660e01b815260040160206040518083038186803b158015620020d157600080fd5b505afa158015620020e6573d6000803e3d6000fd5b505050506040513d6020811015620020fd57600080fd5b81019080805190602001909291905050509050919050565b6060600260008373ffffffffffffffffffffffffffffffffffffffff1673ffffffffffffffffffffffffffffffffffffffff16815260200190815260200160002060009054906101000a900473ffffffffffffffffffffffffffffffffffffffff1673ffffffffffffffffffffffffffffffffffffffff1663cc2ee1966040518163ffffffff1660e01b815260040160006040518083038186803b158015620021bd57600080fd5b505afa158015620021d2573d6000803e3d6000fd5b505050506040513d6000823e3d601f19601f820116820180604052506020811015620021fd57600080fd5b81019080805160405193929190846401000000008211156200221e57600080fd5b838201915060208201858111156200223557600080fd5b82518660208202830111640100000000821117156200225357600080fd5b8083526020830192505050908051906020019060200280838360005b838110156200228c5780820151818401526020810190506200226f565b505050509050016040525050509050919050565b6000808251905060008090505b8181101562002379576000848281518110620022c557fe5b60200260200101519050600160008273ffffffffffffffffffffffffffffffffffffffff1673ffffffffffffffffffffffffffffffffffffffff16815260200190815260200160002060010160019054906101000a900460ff1615806200235757508073ffffffffffffffffffffffffffffffffffffffff168673ffffffffffffffffffffffffffffffffffffffff16145b156200236a576000935050505062002380565b508080600101915050620022ad565b5060019150505b92915050565b61233f80620023e083390190565b6040518060400160405280600290602082028038833980820191505090505090565b604051806060016040528060008019168152602001600060ff168152602001600015158152509056fe60806040526000602160006101000a81548160ff021916908360038111156200002457fe5b02179055506040516200233f3803806200233f83398181016040526101008110156200004f57600080fd5b8101908080519060200190929190805160405193929190846401000000008211156200007a57600080fd5b838201915060208201858111156200009157600080fd5b8251866001820283011164010000000082111715620000af57600080fd5b8083526020830192505050908051906020019080838360005b83811015620000e5578082015181840152602081019050620000c8565b50505050905090810190601f168015620001135780820380516001836020036101000a031916815260200191505b50604052602001805160405193929190846401000000008211156200013757600080fd5b838201915060208201858111156200014e57600080fd5b82518660018202830111640100000000821117156200016c57600080fd5b8083526020830192505050908051906020019080838360005b83811015620001a257808201518184015260208101905062000185565b50505050905090810190601f168015620001d05780820380516001836020036101000a031916815260200191505b5060405260200180516040519392919084640100000000821115620001f457600080fd5b838201915060208201858111156200020b57600080fd5b82518660208202830111640100000000821117156200022957600080fd5b8083526020830192505050908051906020019060200280838360005b838110156200026257808201518184015260208101905062000245565b50505050905001604052602001805190602001909291908051906020019092919080516040519392919084640100000000821115620002a057600080fd5b83820191506020820185811115620002b757600080fd5b8251866020820283011164010000000082111715620002d557600080fd5b8083526020830192505050908051906020019060200280838360005b838110156200030e578082015181840152602081019050620002f1565b505050509050016040526020018051906020019092919050505080600960006101000a81548173ffffffffffffffffffffffffffffffffffffffff021916908373ffffffffffffffffffffffffffffffffffffffff160217905550876000806101000a81548173ffffffffffffffffffffffffffffffffffffffff021916908373ffffffffffffffffffffffffffffffffffffffff1602179055508660019080519060200190620003c19291906200058c565b508560029080519060200190620003da9291906200058c565b508460039080519060200190620003f392919062000613565b506000600481905550836005819055508260068190555081600790805190602001906200042292919062000665565b506017600960146101000a81548161ffff021916908361ffff16021790555060008090505b8551811015620004f257604051806040016040528060008152602001600073ffffffffffffffffffffffffffffffffffffffff16815250600c82600481106200048c57fe5b600202016000820151816000015560208201518160010160006101000a81548173ffffffffffffffffffffffffffffffffffffffff021916908373ffffffffffffffffffffffffffffffffffffffff160217905550905050808060010191505062000447565b5060008090505b82518110156200057d576001600a60008584815181106200051657fe5b602002602001015173ffffffffffffffffffffffffffffffffffffffff1673ffffffffffffffffffffffffffffffffffffffff16815260200190815260200160002060006101000a81548160ff0219169083151502179055508080600101915050620004f9565b5050505050505050506200078a565b828054600181600116156101000203166002900490600052602060002090601f016020900481019282601f10620005cf57805160ff191683800117855562000600565b8280016001018555821562000600579182015b82811115620005ff578251825591602001919060010190620005e2565b5b5090506200060f9190620006f4565b5090565b82805482825590600052602060002090810192821562000652579160200282015b828111156200065157825182559160200191906001019062000634565b5b5090506200066191906200071c565b5090565b828054828255906000526020600020908101928215620006e1579160200282015b82811115620006e05782518260006101000a81548173ffffffffffffffffffffffffffffffffffffffff021916908373ffffffffffffffffffffffffffffffffffffffff1602179055509160200191906001019062000686565b5b509050620006f0919062000744565b5090565b6200071991905b8082111562000715576000816000905550600101620006fb565b5090565b90565b6200074191905b808211156200073d57600081600090555060010162000723565b5090565b90565b6200078791905b808211156200078357600081816101000a81549073ffffffffffffffffffffffffffffffffffffffff0219169055506001016200074b565b5090565b90565b611ba5806200079a6000396000f3fe60806040526004361061011f5760003560e01c80637284e416116100a057806395e56a841161006457806395e56a841461062a578063a6430cc014610696578063a832317614610711578063cc2ee19614610728578063fbcc1e71146107945761011f565b80637284e41614610430578063729ecb07146104c057806376bb984b1461053b578063857de49314610552578063894c3b1f146105be5761011f565b8063409e2205116100e7578063409e2205146102f4578063459d6e4f14610343578063465be85f1461036e578063516dde43146103da578063722713f7146104055761011f565b806306fdde0314610124578063288fa802146101b45780632c135b93146102205780632cd255351461024b5780632d978163146102bb575b600080fd5b34801561013057600080fd5b506101396107eb565b6040518080602001828103825283818151815260200191508051906020019080838360005b8381101561017957808201518184015260208101905061015e565b50505050905090810190601f1680156101a65780820380516001836020036101000a031916815260200191505b509250505060405180910390f35b3480156101c057600080fd5b506101c9610889565b6040518080602001828103825283818151815260200191508051906020019060200280838360005b8381101561020c5780820151818401526020810190506101f1565b505050509050019250505060405180910390f35b34801561022c57600080fd5b50610235610919565b6040518082815260200191505060405180910390f35b6102a16004803603606081101561026157600080fd5b810190808035906020019092919080359060200190929190803573ffffffffffffffffffffffffffffffffffffffff16906020019092919050505061091f565b604051808215151515815260200191505060405180910390f35b3480156102c757600080fd5b506102d0610ce8565b604051808260038111156102e057fe5b60ff16815260200191505060405180910390f35b34801561030057600080fd5b5061032d6004803603602081101561031757600080fd5b8101908080359060200190929190505050610cfb565b6040518082815260200191505060405180910390f35b34801561034f57600080fd5b50610358610d1c565b6040518082815260200191505060405180910390f35b34801561037a57600080fd5b50610383610d22565b6040518080602001828103825283818151815260200191508051906020019060200280838360005b838110156103c65780820151818401526020810190506103ab565b505050509050019250505060405180910390f35b3480156103e657600080fd5b506103ef610db0565b6040518082815260200191505060405180910390f35b34801561041157600080fd5b5061041a610db6565b6040518082815260200191505060405180910390f35b34801561043c57600080fd5b50610445610dbe565b6040518080602001828103825283818151815260200191508051906020019080838360005b8381101561048557808201518184015260208101905061046a565b50505050905090810190601f1680156104b25780820380516001836020036101000a031916815260200191505b509250505060405180910390f35b3480156104cc57600080fd5b506104f9600480360360208110156104e357600080fd5b8101908080359060200190929190505050610e5c565b604051808273ffffffffffffffffffffffffffffffffffffffff1673ffffffffffffffffffffffffffffffffffffffff16815260200191505060405180910390f35b34801561054757600080fd5b50610550610e98565b005b34801561055e57600080fd5b50610567611442565b6040518080602001828103825283818151815260200191508051906020019060200280838360005b838110156105aa57808201518184015260208101905061058f565b505050509050019250505060405180910390f35b3480156105ca57600080fd5b506105d361151a565b6040518080602001828103825283818151815260200191508051906020019060200280838360005b838110156106165780820151818401526020810190506105fb565b505050509050019250505060405180910390f35b34801561063657600080fd5b5061063f6115a8565b6040518080602001828103825283818151815260200191508051906020019060200280838360005b83811015610682578082015181840152602081019050610667565b505050509050019250505060405180910390f35b3480156106a257600080fd5b506106cf600480360360208110156106b957600080fd5b8101908080359060200190929190505050611632565b604051808273ffffffffffffffffffffffffffffffffffffffff1673ffffffffffffffffffffffffffffffffffffffff16815260200191505060405180910390f35b34801561071d57600080fd5b5061072661166e565b005b34801561073457600080fd5b5061073d61169c565b6040518080602001828103825283818151815260200191508051906020019060200280838360005b83811015610780578082015181840152602081019050610765565b505050509050019250505060405180910390f35b3480156107a057600080fd5b506107a96116f4565b604051808273ffffffffffffffffffffffffffffffffffffffff1673ffffffffffffffffffffffffffffffffffffffff16815260200191505060405180910390f35b60018054600181600116156101000203166002900480601f0160208091040260200160405190810160405280929190818152602001828054600181600116156101000203166002900480156108815780601f1061085657610100808354040283529160200191610881565b820191906000526020600020905b81548152906001019060200180831161086457829003601f168201915b505050505081565b60606000600490506060816040519080825280602002602001820160405280156108c25781602001602082028038833980820191505090505b50905060008090505b8281101561091057600c81600481106108e057fe5b600202016000015460001b8282815181106108f757fe5b60200260200101818152505080806001019150506108cb565b50809250505090565b60045481565b600083600c846004811061092f57fe5b60020201600001541061094157600080fd5b600c836004811061094e57fe5b6002020160010160009054906101000a900473ffffffffffffffffffffffffffffffffffffffff1673ffffffffffffffffffffffffffffffffffffffff166108fc600c856004811061099c57fe5b60020201600001549081150290604051600060405180830381858888f193505050501580156109cf573d6000803e3d6000fd5b506000670de0b6b3a764000090506109e5611912565b60008090505b6004811015610a9a57858114610a8d57600c8160048110610a0857fe5b600202016000015483039250600c8160048110610a2157fe5b6002020160010160009054906101000a900473ffffffffffffffffffffffffffffffffffffffff16828260048110610a5557fe5b602002019073ffffffffffffffffffffffffffffffffffffffff16908173ffffffffffffffffffffffffffffffffffffffff16815250505b80806001019150506109eb565b50858211610c425733818660048110610aaf57fe5b602002019073ffffffffffffffffffffffffffffffffffffffff16908173ffffffffffffffffffffffffffffffffffffffff1681525050610aee611934565b604051806020016040528083815250905060208190806001815401808255809150509060018203906000526020600020906004020160009091929091909150600082015181600001906004610b4492919061194d565b5050505060008090505b6004811015610bac5786811415610b77578360148260048110610b6d57fe5b0181905550610b9f565b600c8160048110610b8457fe5b600202016000015460148260048110610b9957fe5b01819055505b8080600101915050610b4e565b503373ffffffffffffffffffffffffffffffffffffffff166108fc8489039081150290604051600060405180830381858888f19350505050158015610bf5573d6000803e3d6000fd5b50610bff85611719565b60008090505b6004811015610c35576000600c8260048110610c1d57fe5b60020201600001819055508080600101915050610c05565b5060019350505050610ce1565b610c4a6119ca565b60405180604001604052808881526020013373ffffffffffffffffffffffffffffffffffffffff16815250905080600c8760048110610c8557fe5b600202016000820151816000015560208201518160010160006101000a81548173ffffffffffffffffffffffffffffffffffffffff021916908373ffffffffffffffffffffffffffffffffffffffff1602179055509050505050505b9392505050565b602160009054906101000a900460ff1681565b60038181548110610d0857fe5b906000526020600020016000915090505481565b60055481565b60606008805480602002602001604051908101604052809291908181526020018280548015610da657602002820191906000526020600020905b8160009054906101000a900473ffffffffffffffffffffffffffffffffffffffff1673ffffffffffffffffffffffffffffffffffffffff1681526020019060010190808311610d5c575b5050505050905090565b60065481565b600047905090565b60028054600181600116156101000203166002900480601f016020809104026020016040519081016040528092919081815260200182805460018160011615610100020316600290048015610e545780601f10610e2957610100808354040283529160200191610e54565b820191906000526020600020905b815481529060010190602001808311610e3757829003601f168201915b505050505081565b60088181548110610e6957fe5b906000526020600020016000915054906101000a900473ffffffffffffffffffffffffffffffffffffffff1681565b6000600960009054906101000a900473ffffffffffffffffffffffffffffffffffffffff16905060608173ffffffffffffffffffffffffffffffffffffffff1663c9e519e86040518163ffffffff1660e01b815260040160006040518083038186803b158015610f0757600080fd5b505afa158015610f1b573d6000803e3d6000fd5b505050506040513d6000823e3d601f19601f820116820180604052506020811015610f4557600080fd5b8101908080516040519392919084640100000000821115610f6557600080fd5b83820191506020820185811115610f7b57600080fd5b8251866020820283011164010000000082111715610f9857600080fd5b8083526020830192505050908051906020019060200280838360005b83811015610fcf578082015181840152602081019050610fb4565b5050505090500160405250505090506060600a8251026040519080825280602002602001820160405280156110135781602001602082028038833980820191505090505b509050600080905060008090505b835181101561120057600084828151811061103857fe5b60200260200101519050600a60008273ffffffffffffffffffffffffffffffffffffffff1673ffffffffffffffffffffffffffffffffffffffff16815260200190815260200160002060009054906101000a900460ff161561109a57506111f3565b60008673ffffffffffffffffffffffffffffffffffffffff166351d0ea37836040518263ffffffff1660e01b8152600401808273ffffffffffffffffffffffffffffffffffffffff1673ffffffffffffffffffffffffffffffffffffffff16815260200191505060606040518083038186803b15801561111957600080fd5b505afa15801561112d573d6000803e3d6000fd5b505050506040513d606081101561114357600080fd5b81019080805190602001909291908051906020019092919080519060200190929190505050509150506000600a60ff168260ff168161117e57fe5b04905060008090505b8160ff168110156111ee578387878151811061119f57fe5b602002602001019073ffffffffffffffffffffffffffffffffffffffff16908173ffffffffffffffffffffffffffffffffffffffff168152505085806001019650508080600101915050611187565b505050505b8080600101915050611021565b50606060056040519080825280602002602001820160405280156112335781602001602082028038833980820191505090505b50905060008090505b6005811015611423576000834233600960149054906101000a900461ffff16604051602001808481526020018373ffffffffffffffffffffffffffffffffffffffff1673ffffffffffffffffffffffffffffffffffffffff1660601b81526014018261ffff1661ffff1660f01b815260020193505050506040516020818303038152906040528051906020012060001c816112d357fe5b0690506009601481819054906101000a900461ffff168092919060010191906101000a81548161ffff021916908361ffff16021790555050600085828151811061131957fe5b60200260200101519050600b60008273ffffffffffffffffffffffffffffffffffffffff1673ffffffffffffffffffffffffffffffffffffffff16815260200190815260200160002060009054906101000a900460ff1661141c576001600b60008373ffffffffffffffffffffffffffffffffffffffff1673ffffffffffffffffffffffffffffffffffffffff16815260200190815260200160002060006101000a81548160ff021916908315150217905550808484815181106113d957fe5b602002602001019073ffffffffffffffffffffffffffffffffffffffff16908173ffffffffffffffffffffffffffffffffffffffff168152505082806001019350505b505061123c565b81600890805190602001906114399291906119fa565b50505050505050565b606060006004905060606002820260405190808252806020026020018201604052801561147e5781602001602082028038833980820191505090505b50905060008090505b82811015611511576018816004811061149c57fe5b600202016000016000600281106114af57fe5b015460001b8282815181106114c057fe5b602002602001018181525050601881600481106114d957fe5b600202016000016001600281106114ec57fe5b015460001b82600183018151811061150057fe5b602002602001018181525050611487565b50809250505090565b6060600780548060200260200160405190810160405280929190818152602001828054801561159e57602002820191906000526020600020905b8160009054906101000a900473ffffffffffffffffffffffffffffffffffffffff1673ffffffffffffffffffffffffffffffffffffffff1681526020019060010190808311611554575b5050505050905090565b60606000600490506060816040519080825280602002602001820160405280156115e15781602001602082028038833980820191505090505b50905060008090505b8281101561162957601481600481106115ff57fe5b015460001b82828151811061161057fe5b60200260200101818152505080806001019150506115ea565b50809250505090565b6007818154811061163f57fe5b906000526020600020016000915054906101000a900473ffffffffffffffffffffffffffffffffffffffff1681565b6002602160006101000a81548160ff0219169083600381111561168d57fe5b021790555061169a610e98565b565b606060038054806020026020016040519081016040528092919081815260200182805480156116ea57602002820191906000526020600020905b8154815260200190600101908083116116d6575b5050505050905090565b6000809054906101000a900473ffffffffffffffffffffffffffffffffffffffff1681565b600081905060008090505b600481101561190d576000600c826004811061173c57fe5b6002020160010160009054906101000a900473ffffffffffffffffffffffffffffffffffffffff16905061176e611a84565b8373ffffffffffffffffffffffffffffffffffffffff16633d59f85b836040518263ffffffff1660e01b8152600401808273ffffffffffffffffffffffffffffffffffffffff1673ffffffffffffffffffffffffffffffffffffffff168152602001915050604080518083038186803b1580156117ea57600080fd5b505afa1580156117fe573d6000803e3d6000fd5b505050506040513d601f19601f82011682018060405250604081101561182357600080fd5b810190809190505090508060006002811061183a57fe5b60200201516018846004811061184c57fe5b6002020160000160006002811061185f57fe5b0154018160006002811061186f57fe5b6020020181815250508060016002811061188557fe5b60200201516018846004811061189757fe5b600202016000016001600281106118aa57fe5b015401816001600281106118ba57fe5b602002018181525050604051806020016040528082815250601884600481106118df57fe5b600202016000820151816000019060026118fa929190611aa6565b5090505050508080600101915050611724565b505050565b6040518060800160405280600490602082028038833980820191505090505090565b6040518060200160405280611947611ae6565b81525090565b82600481019282156119b9579160200282015b828111156119b85782518260006101000a81548173ffffffffffffffffffffffffffffffffffffffff021916908373ffffffffffffffffffffffffffffffffffffffff16021790555091602001919060010190611960565b5b5090506119c69190611b08565b5090565b604051806040016040528060008152602001600073ffffffffffffffffffffffffffffffffffffffff1681525090565b828054828255906000526020600020908101928215611a73579160200282015b82811115611a725782518260006101000a81548173ffffffffffffffffffffffffffffffffffffffff021916908373ffffffffffffffffffffffffffffffffffffffff16021790555091602001919060010190611a1a565b5b509050611a809190611b08565b5090565b6040518060400160405280600290602082028038833980820191505090505090565b8260028101928215611ad5579160200282015b82811115611ad4578251825591602001919060010190611ab9565b5b509050611ae29190611b4b565b5090565b6040518060800160405280600490602082028038833980820191505090505090565b611b4891905b80821115611b4457600081816101000a81549073ffffffffffffffffffffffffffffffffffffffff021916905550600101611b0e565b5090565b90565b611b6d91905b80821115611b69576000816000905550600101611b51565b5090565b9056fea265627a7a72315820593682e083f6baffb6c16d49d340fb789783b7deb57bf95c96157ad3b9d8c01e64736f6c63430005100032a265627a7a7231582043b27f0514c5a482b581d4e5673a8b7f0b14c89dbd31fa83c767daf2abd983b664736f6c63430005100032",
  "source": "// SPDX-License-Identifier: MIT\npragma solidity >=0.4.21 <=0.7.0;\nimport \"./Topic.sol\";\n\ncontract PredictionMarket {\n    // Structs for users and arbitrators. Default scores = 100\n    struct Trader {\n        uint winScore;\n        uint loseScore;\n        bool isValid; \n    }\n\n    struct Arbitrator {\n        bytes32 displayName;\n        uint8 trustworthiness;\n        bool isValid;\n    }\n\n    // Maps of addresses to different entities\n    mapping (address => Trader) public traders;\n    mapping (address => Arbitrator) public arbitrators;\n    mapping (address => Topic) public marketTopics;\n\n    // Array of addresses of topics to return to front end\n    address[] topicAddresses;\n\n    // Array of addresses of arbitrators to return to front end\n    address payable[] arbitratorAddresses;\n\n    // Struct create functions\n    function createTrader() public {\n        address id = msg.sender;\n        // // require that address has not been assigned to a trader\n        require(!traders[id].isValid);\n\n        // // create new trader with the default values\n        traders[id] = Trader(100, 100, true);\n    }\n\n    function createArbitrator(bytes32 _displayName) public {\n        address id = msg.sender;\n\n        // require that address has not been assigned to a arbitrator\n        require(!arbitrators[id].isValid);\n\n        // create new arbitrator with the default values\n        arbitrators[id] = Arbitrator(_displayName, 50, true);\n\n        arbitratorAddresses.push(address(uint160(id)));\n    }\n\n    function getAllArbitrators() public view returns (address payable[] memory) {\n        return arbitratorAddresses;\n    }\n\n    function getAllArbitratorNames() public view returns (bytes32[] memory) {\n        uint len = arbitratorAddresses.length;\n        bytes32[] memory names = new bytes32[](len);\n\n        for (uint i = 0; i < len; i++) {\n            address arbitratorAddress = arbitratorAddresses[i];\n            Arbitrator memory arbitrator = arbitrators[arbitratorAddress];\n            names[i] = arbitrator.displayName;\n        }\n        return names;\n    }\n\n    //VOTER'S REPUTATION \n    function getVotersReputation(address id) public view returns (uint[2] memory){\n        return [traders[id].winScore, (traders[id].winScore + traders[id].loseScore)];\n    }\n\n    // AUTHENTICATION\n    function checkIdentity() public view returns (bytes32) {\n        // Check if user is a trader\n        if(traders[msg.sender].isValid){\n            return bytes32(\"Trader\");\n        }\n        // Check if user is an arbitrator\n        if(arbitrators[msg.sender].isValid){\n            return bytes32(\"Arbitrator\");\n        }\n        // If all the above fails, return invalid\n        return bytes32(\"Invalid\");\n    }\n\n\n    // Topics\n    function createTopic(\n        string memory name, string memory description, bytes32[] memory options, uint256 expiryDate, address payable[] memory selectedArbitrators\n    ) public payable\n        {\n        address payable creatorId = msg.sender;\n\n        // Creator must have a trader account\n        require(traders[creatorId].isValid);\n\n        // Must have value above 0 ETH for payment of creation bond\n        require(msg.value > 0 ether);\n\n        // selected arbitrators must have arbitrator account and creator must not select himself as an arbitrator\n        require(areValidArbitrators(creatorId, selectedArbitrators));\n\n        uint bondValue = msg.value;\n        Topic newTopic = new Topic(creatorId, name, description, options, bondValue, expiryDate, selectedArbitrators, address(this));\n        address payable topicAddress = address(uint160(address(newTopic))); // to cast from address to address payable\n        marketTopics[topicAddress] = newTopic;\n        topicAddresses.push(topicAddress);\n        emit TopicCreated(topicAddress);\n    }\n\n    function getAllTopics() public view returns (address[] memory) {\n        return topicAddresses;\n    }\n\n    function areValidArbitrators(address payable creatorId, address payable[] memory selectedArbitrators) internal view returns (bool) {\n        uint numSelectedArbitrators = selectedArbitrators.length;\n        for (uint i = 0; i < numSelectedArbitrators; i++) {\n            address arbitrator = selectedArbitrators[i];\n            if (!arbitrators[arbitrator].isValid || creatorId == arbitrator) {\n                return false;\n            }\n        }\n        return true;\n    }\n\n\n    // ===============================================================\n    // For testing purposes\n    // ===============================================================\n    event TopicCreated(address _topicAddress);\n\n    function getCreatorAddress(address topicAddress) public view returns (address payable) {\n        return marketTopics[topicAddress].topicCreator();\n    }\n\n    function getName(address topicAddress) public view returns (string memory) {\n        return marketTopics[topicAddress].name();\n    }\n\n    function getDescription(address topicAddress) public view returns (string memory) {\n        return marketTopics[topicAddress].description();\n    }\n\n    function getOptions(address topicAddress) public view returns (bytes32[] memory) {\n        return marketTopics[topicAddress].getOptions();\n    }\n\n    function getMarketCap(address topicAddress) public view returns (uint) {\n        return marketTopics[topicAddress].marketCap();\n    }\n\n    function getCreatorBond(address topicAddress) public view returns (uint) {\n        return marketTopics[topicAddress].creatorBond();\n    }\n\n    function getExpiryDate(address topicAddress) public view returns (uint256) {\n        return marketTopics[topicAddress].expiryDate();\n    }\n\n    function getSelectedArbitrators(address topicAddress) public view returns (address payable[] memory) {\n        return marketTopics[topicAddress].getArbitrators();\n    }\n\n    function getCurrentBalance() public view returns (uint) {\n        return address(this).balance;\n    }\n\n}",
  "sourcePath": "/Users/collinlim/Desktop/Desktop.nosync/School/CZ4153/Project/Decentralised_Prediction_Market/contracts/PredictionMarket.sol",
  "compiler": {
    "name": "solc",
    "version": "0.5.16+commit.9c3226ce.Emscripten.clang"
  },
  "schemaVersion": "3.2.5",
  "updatedAt": "2020-10-21T09:10:56.623Z",
  "networkType": "ethereum",
  "devdoc": {
    "methods": {}
  },
  "userdoc": {
    "methods": {}
  }
}