{
  "contractName": "PredictionMarket",
  "abi": [
    {
      "constant": true,
      "inputs": [
        {
          "internalType": "address",
          "name": "",
          "type": "address"
        }
      ],
      "name": "arbitrators",
      "outputs": [
        {
          "internalType": "int256",
          "name": "trustworthiness",
          "type": "int256"
        },
        {
          "internalType": "bool",
          "name": "isValid",
          "type": "bool"
        }
      ],
      "payable": false,
      "stateMutability": "view",
      "type": "function"
    },
    {
      "constant": true,
      "inputs": [
        {
          "internalType": "string",
          "name": "",
          "type": "string"
        }
      ],
      "name": "marketTopics",
      "outputs": [
        {
          "internalType": "uint256",
          "name": "creatorBond",
          "type": "uint256"
        }
      ],
      "payable": false,
      "stateMutability": "view",
      "type": "function"
    },
    {
      "constant": true,
      "inputs": [
        {
          "internalType": "address",
          "name": "",
          "type": "address"
        }
      ],
      "name": "traders",
      "outputs": [
        {
          "internalType": "int256",
          "name": "winScore",
          "type": "int256"
        },
        {
          "internalType": "int256",
          "name": "loseScore",
          "type": "int256"
        },
        {
          "internalType": "bool",
          "name": "isValid",
          "type": "bool"
        }
      ],
      "payable": false,
      "stateMutability": "view",
      "type": "function"
    },
    {
      "constant": false,
      "inputs": [],
      "name": "createTrader",
      "outputs": [],
      "payable": false,
      "stateMutability": "nonpayable",
      "type": "function"
    },
    {
      "constant": false,
      "inputs": [],
      "name": "createArbitrator",
      "outputs": [],
      "payable": false,
      "stateMutability": "nonpayable",
      "type": "function"
    },
    {
      "constant": false,
      "inputs": [
        {
          "internalType": "uint256",
          "name": "creatorBond",
          "type": "uint256"
        },
        {
          "internalType": "string",
          "name": "name",
          "type": "string"
        }
      ],
      "name": "createTopic",
      "outputs": [],
      "payable": true,
      "stateMutability": "payable",
      "type": "function"
    },
    {
      "constant": false,
      "inputs": [],
      "name": "transferFunds",
      "outputs": [],
      "payable": true,
      "stateMutability": "payable",
      "type": "function"
    },
    {
      "constant": true,
      "inputs": [],
      "name": "balanceOf",
      "outputs": [
        {
          "internalType": "uint256",
          "name": "",
          "type": "uint256"
        }
      ],
      "payable": false,
      "stateMutability": "view",
      "type": "function"
    }
  ],
  "bytecode": "0x608060405234801561001057600080fd5b506106ac806100206000396000f3fe60806040526004361061007b5760003560e01c8063722713f71161004e578063722713f71461029b5780637aaa11e5146102c657806392a88fa2146102dd578063b2271268146103545761007b565b8063260b6d4d146100805780633c68eb811461015c57806351d0ea37146101665780636f780356146101d6575b600080fd5b34801561008c57600080fd5b50610146600480360360208110156100a357600080fd5b81019080803590602001906401000000008111156100c057600080fd5b8201836020820111156100d257600080fd5b803590602001918460018302840111640100000000831117156100f457600080fd5b91908080601f016020809104026020016040519081016040528093929190818152602001838380828437600081840152601f19601f82011690508083019250505050505050919291929050505061036b565b6040518082815260200191505060405180910390f35b61016461039f565b005b34801561017257600080fd5b506101b56004803603602081101561018957600080fd5b81019080803573ffffffffffffffffffffffffffffffffffffffff1690602001909291905050506103a1565b60405180838152602001821515151581526020019250505060405180910390f35b610299600480360360408110156101ec57600080fd5b81019080803590602001909291908035906020019064010000000081111561021357600080fd5b82018360208201111561022557600080fd5b8035906020019184600183028401116401000000008311171561024757600080fd5b91908080601f016020809104026020016040519081016040528093929190818152602001838380828437600081840152601f19601f8201169050808301925050505050505091929192905050506103d2565b005b3480156102a757600080fd5b506102b061045b565b6040518082815260200191505060405180910390f35b3480156102d257600080fd5b506102db610463565b005b3480156102e957600080fd5b5061032c6004803603602081101561030057600080fd5b81019080803573ffffffffffffffffffffffffffffffffffffffff16906020019092919050505061054a565b6040518084815260200183815260200182151515158152602001935050505060405180910390f35b34801561036057600080fd5b50610369610581565b005b6002818051602081018201805184825260208301602085012081835280955050505050506000915090508060000154905081565b565b60016020528060005260406000206000915090508060000154908060010160009054906101000a900460ff16905082565b6040518060200160405280838152506002826040518082805190602001908083835b6020831061041757805182526020820191506020810190506020830392506103f4565b6001836020036101000a0380198251168184511680821785525050505050509050019150509081526020016040518091039020600082015181600001559050505050565b600047905090565b6000339050600160008273ffffffffffffffffffffffffffffffffffffffff1673ffffffffffffffffffffffffffffffffffffffff16815260200190815260200160002060010160009054906101000a900460ff16156104c257600080fd5b60405180604001604052806064815260200160011515815250600160008373ffffffffffffffffffffffffffffffffffffffff1673ffffffffffffffffffffffffffffffffffffffff1681526020019081526020016000206000820151816000015560208201518160010160006101000a81548160ff02191690831515021790555090505050565b60006020528060005260406000206000915090508060000154908060010154908060020160009054906101000a900460ff16905083565b60003390506000808273ffffffffffffffffffffffffffffffffffffffff1673ffffffffffffffffffffffffffffffffffffffff16815260200190815260200160002060020160009054906101000a900460ff16156105df57600080fd5b60405180606001604052806064815260200160648152602001600115158152506000808373ffffffffffffffffffffffffffffffffffffffff1673ffffffffffffffffffffffffffffffffffffffff168152602001908152602001600020600082015181600001556020820151816001015560408201518160020160006101000a81548160ff0219169083151502179055509050505056fea265627a7a72315820d7e2e43cf60aafaaa449d0216ada69a364f20bc2890d1676193926f0df61103f64736f6c63430005100032",
  "source": "pragma solidity >=0.4.21 <0.7.0;\nimport \"./Topic.sol\";\n\ncontract PredictionMarket {\n    // Structs for users and arbitrators. Default scores = 100\n    struct Trader {\n        int winScore;\n        int loseScore;\n        bool isValid; \n    }\n\n    struct Arbitrator {\n        int trustworthiness;\n        bool isValid;\n    }\n\n    struct Topic {\n        // address topicCreator;\n        // string name;\n        // string description;\n        // string options;\n        // uint marketCap;\n        uint creatorBond;\n    }\n\n    // Maps of addresses to different entities\n    mapping (address => Trader) public traders;\n    mapping (address => Arbitrator) public arbitrators;\n    // TODO: Uncomment mapping for marketTopic when Topic contract is completed\n    mapping (string => Topic) public marketTopics;\n\n\n    // Struct create functions\n    function createTrader() public {\n        address id = msg.sender;\n        // // require that address has not been assigned to a trader\n        require(!traders[id].isValid);\n\n        // // create new trader with the default values\n        traders[id] = Trader(100, 100, true);\n    }\n\n    function createArbitrator() public {\n        address id = msg.sender;\n\n        // require that address has not been assigned to a arbitrator\n        require(!arbitrators[id].isValid);\n\n        // create new arbitrator with the default values\n        arbitrators[id] = Arbitrator(100, true);\n    }\n\n\n    // Topics\n    function createTopic(uint creatorBond, string memory name) public payable{\n        // Mapping shouldnt be name -> topic but this can suffice for now\n        marketTopics[name] = Topic(creatorBond);\n    }\n    function transferFunds() public payable{\n        \n    }\n\n    function balanceOf() external view returns(uint) {\n        return address(this).balance;\n    }\n\n    // // TODO: To complete createTopic function when Topic contract is completed\n    // function createTopic(string _name, string _description, string[] _options, datetime _resolution, address _topicCreator, address[] _arbitrators) public {\n    //     // create new topic\n    //     return new Topic()\n    // }\n\n}",
  "sourcePath": "/Users/collinlim/Desktop/Desktop.nosync/School/CZ4153/Project/Decentralised_Prediction_Market/contracts/PredictionMarket.sol",
  "compiler": {
    "name": "solc",
    "version": "0.5.16+commit.9c3226ce.Emscripten.clang"
  },
  "schemaVersion": "3.2.5",
  "updatedAt": "2020-10-09T10:17:40.904Z",
  "devdoc": {
    "methods": {}
  },
  "userdoc": {
    "methods": {}
  }
}