{
  "contractName": "PredictionMarket",
  "abi": [
    {
      "anonymous": false,
      "inputs": [
        {
          "indexed": false,
          "internalType": "address",
          "name": "_topicAddress",
          "type": "address"
        }
      ],
      "name": "TopicCreated",
      "type": "event"
    },
    {
      "constant": true,
      "inputs": [
        {
          "internalType": "address",
          "name": "",
          "type": "address"
        }
      ],
      "name": "arbitrators",
      "outputs": [
        {
          "internalType": "bytes32",
          "name": "displayName",
          "type": "bytes32"
        },
        {
          "internalType": "uint8",
          "name": "trustworthiness",
          "type": "uint8"
        },
        {
          "internalType": "bool",
          "name": "isValid",
          "type": "bool"
        }
      ],
      "payable": false,
      "stateMutability": "view",
      "type": "function"
    },
    {
      "constant": true,
      "inputs": [
        {
          "internalType": "address",
          "name": "",
          "type": "address"
        }
      ],
      "name": "marketTopics",
      "outputs": [
        {
          "internalType": "contract Topic",
          "name": "",
          "type": "address"
        }
      ],
      "payable": false,
      "stateMutability": "view",
      "type": "function"
    },
    {
      "constant": true,
      "inputs": [
        {
          "internalType": "address",
          "name": "",
          "type": "address"
        }
      ],
      "name": "traders",
      "outputs": [
        {
          "internalType": "uint256",
          "name": "winScore",
          "type": "uint256"
        },
        {
          "internalType": "uint256",
          "name": "loseScore",
          "type": "uint256"
        },
        {
          "internalType": "bool",
          "name": "isValid",
          "type": "bool"
        }
      ],
      "payable": false,
      "stateMutability": "view",
      "type": "function"
    },
    {
      "constant": false,
      "inputs": [],
      "name": "createTrader",
      "outputs": [],
      "payable": false,
      "stateMutability": "nonpayable",
      "type": "function"
    },
    {
      "constant": false,
      "inputs": [
        {
          "internalType": "bytes32",
          "name": "_displayName",
          "type": "bytes32"
        }
      ],
      "name": "createArbitrator",
      "outputs": [],
      "payable": false,
      "stateMutability": "nonpayable",
      "type": "function"
    },
    {
      "constant": true,
      "inputs": [],
      "name": "getAllArbitrators",
      "outputs": [
        {
          "internalType": "address payable[]",
          "name": "",
          "type": "address[]"
        }
      ],
      "payable": false,
      "stateMutability": "view",
      "type": "function"
    },
    {
      "constant": true,
      "inputs": [],
      "name": "getAllArbitratorNames",
      "outputs": [
        {
          "internalType": "bytes32[]",
          "name": "",
          "type": "bytes32[]"
        }
      ],
      "payable": false,
      "stateMutability": "view",
      "type": "function"
    },
    {
      "constant": true,
      "inputs": [
        {
          "internalType": "address",
          "name": "id",
          "type": "address"
        }
      ],
      "name": "getVotersReputation",
      "outputs": [
        {
          "internalType": "uint256[2]",
          "name": "",
          "type": "uint256[2]"
        }
      ],
      "payable": false,
      "stateMutability": "view",
      "type": "function"
    },
    {
      "constant": true,
      "inputs": [],
      "name": "checkIdentity",
      "outputs": [
        {
          "internalType": "bytes32",
          "name": "",
          "type": "bytes32"
        }
      ],
      "payable": false,
      "stateMutability": "view",
      "type": "function"
    },
    {
      "constant": true,
      "inputs": [
        {
          "internalType": "address",
          "name": "trader",
          "type": "address"
        }
      ],
      "name": "checkValidTrader",
      "outputs": [
        {
          "internalType": "bool",
          "name": "",
          "type": "bool"
        }
      ],
      "payable": false,
      "stateMutability": "view",
      "type": "function"
    },
    {
      "constant": false,
      "inputs": [
        {
          "internalType": "string",
          "name": "name",
          "type": "string"
        },
        {
          "internalType": "string",
          "name": "description",
          "type": "string"
        },
        {
          "internalType": "bytes32[]",
          "name": "options",
          "type": "bytes32[]"
        },
        {
          "internalType": "uint256",
          "name": "expiryDate",
          "type": "uint256"
        },
        {
          "internalType": "address payable[]",
          "name": "selectedArbitrators",
          "type": "address[]"
        }
      ],
      "name": "createTopic",
      "outputs": [],
      "payable": true,
      "stateMutability": "payable",
      "type": "function"
    },
    {
      "constant": true,
      "inputs": [],
      "name": "getAllTopics",
      "outputs": [
        {
          "internalType": "address[]",
          "name": "",
          "type": "address[]"
        }
      ],
      "payable": false,
      "stateMutability": "view",
      "type": "function"
    },
    {
      "constant": false,
      "inputs": [
        {
          "internalType": "address",
          "name": "winnerAddress",
          "type": "address"
        }
      ],
      "name": "updateWinScore",
      "outputs": [],
      "payable": false,
      "stateMutability": "nonpayable",
      "type": "function"
    },
    {
      "constant": true,
      "inputs": [
        {
          "internalType": "address",
          "name": "winnerAddress",
          "type": "address"
        }
      ],
      "name": "getWinScore",
      "outputs": [
        {
          "internalType": "uint256",
          "name": "",
          "type": "uint256"
        }
      ],
      "payable": false,
      "stateMutability": "view",
      "type": "function"
    },
    {
      "constant": false,
      "inputs": [
        {
          "internalType": "address",
          "name": "loserAddress",
          "type": "address"
        }
      ],
      "name": "updateLoseScore",
      "outputs": [],
      "payable": false,
      "stateMutability": "nonpayable",
      "type": "function"
    },
    {
      "constant": true,
      "inputs": [
        {
          "internalType": "address",
          "name": "loserAddress",
          "type": "address"
        }
      ],
      "name": "getLoseScore",
      "outputs": [
        {
          "internalType": "uint256",
          "name": "",
          "type": "uint256"
        }
      ],
      "payable": false,
      "stateMutability": "view",
      "type": "function"
    },
    {
      "constant": true,
      "inputs": [
        {
          "internalType": "address",
          "name": "topicAddress",
          "type": "address"
        }
      ],
      "name": "getCreatorAddress",
      "outputs": [
        {
          "internalType": "address payable",
          "name": "",
          "type": "address"
        }
      ],
      "payable": false,
      "stateMutability": "view",
      "type": "function"
    },
    {
      "constant": true,
      "inputs": [
        {
          "internalType": "address",
          "name": "topicAddress",
          "type": "address"
        }
      ],
      "name": "getName",
      "outputs": [
        {
          "internalType": "string",
          "name": "",
          "type": "string"
        }
      ],
      "payable": false,
      "stateMutability": "view",
      "type": "function"
    },
    {
      "constant": true,
      "inputs": [
        {
          "internalType": "address",
          "name": "topicAddress",
          "type": "address"
        }
      ],
      "name": "getDescription",
      "outputs": [
        {
          "internalType": "string",
          "name": "",
          "type": "string"
        }
      ],
      "payable": false,
      "stateMutability": "view",
      "type": "function"
    },
    {
      "constant": true,
      "inputs": [
        {
          "internalType": "address",
          "name": "topicAddress",
          "type": "address"
        }
      ],
      "name": "getOptions",
      "outputs": [
        {
          "internalType": "bytes32[]",
          "name": "",
          "type": "bytes32[]"
        }
      ],
      "payable": false,
      "stateMutability": "view",
      "type": "function"
    },
    {
      "constant": true,
      "inputs": [
        {
          "internalType": "address",
          "name": "topicAddress",
          "type": "address"
        }
      ],
      "name": "getMarketCap",
      "outputs": [
        {
          "internalType": "uint256",
          "name": "",
          "type": "uint256"
        }
      ],
      "payable": false,
      "stateMutability": "view",
      "type": "function"
    },
    {
      "constant": true,
      "inputs": [
        {
          "internalType": "address",
          "name": "topicAddress",
          "type": "address"
        }
      ],
      "name": "getCreatorBond",
      "outputs": [
        {
          "internalType": "uint256",
          "name": "",
          "type": "uint256"
        }
      ],
      "payable": false,
      "stateMutability": "view",
      "type": "function"
    },
    {
      "constant": true,
      "inputs": [
        {
          "internalType": "address",
          "name": "topicAddress",
          "type": "address"
        }
      ],
      "name": "getExpiryDate",
      "outputs": [
        {
          "internalType": "uint256",
          "name": "",
          "type": "uint256"
        }
      ],
      "payable": false,
      "stateMutability": "view",
      "type": "function"
    },
    {
      "constant": true,
      "inputs": [
        {
          "internalType": "address",
          "name": "topicAddress",
          "type": "address"
        }
      ],
      "name": "getSelectedArbitrators",
      "outputs": [
        {
          "internalType": "address payable[]",
          "name": "",
          "type": "address[]"
        }
      ],
      "payable": false,
      "stateMutability": "view",
      "type": "function"
    },
    {
      "constant": true,
      "inputs": [],
      "name": "getCurrentBalance",
      "outputs": [
        {
          "internalType": "uint256",
          "name": "",
          "type": "uint256"
        }
      ],
      "payable": false,
      "stateMutability": "view",
      "type": "function"
    }
  ],
  "bytecode": "0x608060405234801561001057600080fd5b506158bf806100206000396000f3fe608060405260043610620001885760003560e01c80636f762d8a11620000e5578063b4b1d9c71162000097578063c9e519e8116200006d578063c9e519e81462000d24578063cd1e0b6d1462000d95578063d146d31d1462000dea578063e7c256b61462000e535762000188565b8063b4b1d9c71462000b55578063c082c30c1462000c26578063c86b21591462000cbb5762000188565b80636f762d8a146200094757806386416f1414620009b857806392a88fa21462000a295780639ea630ba1462000aa4578063a57497101462000b0d578063b22712681462000b3b5762000188565b8063420d3ae8116200013f578063420d3ae814620006c65780634de1c9e4146200070557806351d0ea3714620007335780635fd4b08a14620007b45780636215a16e14620008855780636e193a5914620008f25762000188565b806302d54fbf146200018d578063158f3c1e14620002225780631aa90abc14620004b55780632c2153ba14620005615780633d59f85b14620005ca5780633fd8667b146200065d575b600080fd5b3480156200019a57600080fd5b50620001e060048036036020811015620001b357600080fd5b81019080803573ffffffffffffffffffffffffffffffffffffffff16906020019092919050505062000eff565b604051808273ffffffffffffffffffffffffffffffffffffffff1673ffffffffffffffffffffffffffffffffffffffff16815260200191505060405180910390f35b620004b3600480360360a08110156200023a57600080fd5b81019080803590602001906401000000008111156200025857600080fd5b8201836020820111156200026b57600080fd5b803590602001918460018302840111640100000000831117156200028e57600080fd5b91908080601f016020809104026020016040519081016040528093929190818152602001838380828437600081840152601f19601f82011690508083019250505050505050919291929080359060200190640100000000811115620002f257600080fd5b8201836020820111156200030557600080fd5b803590602001918460018302840111640100000000831117156200032857600080fd5b91908080601f016020809104026020016040519081016040528093929190818152602001838380828437600081840152601f19601f820116905080830192505050505050509192919290803590602001906401000000008111156200038c57600080fd5b8201836020820111156200039f57600080fd5b80359060200191846020830284011164010000000083111715620003c257600080fd5b919080806020026020016040519081016040528093929190818152602001838360200280828437600081840152601f19601f82011690508083019250505050505050919291929080359060200190929190803590602001906401000000008111156200042d57600080fd5b8201836020820111156200044057600080fd5b803590602001918460208302840111640100000000831117156200046357600080fd5b919080806020026020016040519081016040528093929190818152602001838360200280828437600081840152601f19601f82011690508083019250505050505050919291929050505062000f32565b005b348015620004c257600080fd5b506200050860048036036020811015620004db57600080fd5b81019080803573ffffffffffffffffffffffffffffffffffffffff16906020019092919050505062001331565b6040518080602001828103825283818151815260200191508051906020019060200280838360005b838110156200054d57808201518184015260208101905062000530565b505050509050019250505060405180910390f35b3480156200056e57600080fd5b50620005b4600480360360208110156200058757600080fd5b81019080803573ffffffffffffffffffffffffffffffffffffffff169060200190929190505050620014bc565b6040518082815260200191505060405180910390f35b348015620005d757600080fd5b506200061d60048036036020811015620005f057600080fd5b81019080803573ffffffffffffffffffffffffffffffffffffffff1690602001909291905050506200150c565b6040518082600260200280838360005b838110156200064a5780820151818401526020810190506200062d565b5050505090500191505060405180910390f35b3480156200066a57600080fd5b50620006b0600480360360208110156200068357600080fd5b81019080803573ffffffffffffffffffffffffffffffffffffffff1690602001909291905050506200160d565b6040518082815260200191505060405180910390f35b348015620006d357600080fd5b506200070360048036036020811015620006ec57600080fd5b8101908080359060200190929190505050620016f9565b005b3480156200071257600080fd5b506200071d62001872565b6040518082815260200191505060405180910390f35b3480156200074057600080fd5b5062000786600480360360208110156200075957600080fd5b81019080803573ffffffffffffffffffffffffffffffffffffffff16906020019092919050505062001998565b604051808481526020018360ff1660ff16815260200182151515158152602001935050505060405180910390f35b348015620007c157600080fd5b506200080760048036036020811015620007da57600080fd5b81019080803573ffffffffffffffffffffffffffffffffffffffff169060200190929190505050620019dc565b6040518080602001828103825283818151815260200191508051906020019080838360005b83811015620008495780820151818401526020810190506200082c565b50505050905090810190601f168015620008775780820380516001836020036101000a031916815260200191505b509250505060405180910390f35b3480156200089257600080fd5b50620008d860048036036020811015620008ab57600080fd5b81019080803573ffffffffffffffffffffffffffffffffffffffff16906020019092919050505062001b8c565b604051808215151515815260200191505060405180910390f35b348015620008ff57600080fd5b5062000945600480360360208110156200091857600080fd5b81019080803573ffffffffffffffffffffffffffffffffffffffff16906020019092919050505062001be4565b005b3480156200095457600080fd5b506200095f62001c37565b6040518080602001828103825283818151815260200191508051906020019060200280838360005b83811015620009a457808201518184015260208101905062000987565b505050509050019250505060405180910390f35b348015620009c557600080fd5b50620009d062001d93565b6040518080602001828103825283818151815260200191508051906020019060200280838360005b8381101562000a15578082015181840152602081019050620009f8565b505050509050019250505060405180910390f35b34801562000a3657600080fd5b5062000a7c6004803603602081101562000a4f57600080fd5b81019080803573ffffffffffffffffffffffffffffffffffffffff16906020019092919050505062001e23565b6040518084815260200183815260200182151515158152602001935050505060405180910390f35b34801562000ab157600080fd5b5062000af76004803603602081101562000aca57600080fd5b81019080803573ffffffffffffffffffffffffffffffffffffffff16906020019092919050505062001e5a565b6040518082815260200191505060405180910390f35b34801562000b1a57600080fd5b5062000b2562001eaa565b6040518082815260200191505060405180910390f35b34801562000b4857600080fd5b5062000b5362001eb2565b005b34801562000b6257600080fd5b5062000ba86004803603602081101562000b7b57600080fd5b81019080803573ffffffffffffffffffffffffffffffffffffffff16906020019092919050505062001fa9565b6040518080602001828103825283818151815260200191508051906020019080838360005b8381101562000bea57808201518184015260208101905062000bcd565b50505050905090810190601f16801562000c185780820380516001836020036101000a031916815260200191505b509250505060405180910390f35b34801562000c3357600080fd5b5062000c796004803603602081101562000c4c57600080fd5b81019080803573ffffffffffffffffffffffffffffffffffffffff16906020019092919050505062002159565b604051808273ffffffffffffffffffffffffffffffffffffffff1673ffffffffffffffffffffffffffffffffffffffff16815260200191505060405180910390f35b34801562000cc857600080fd5b5062000d0e6004803603602081101562000ce157600080fd5b81019080803573ffffffffffffffffffffffffffffffffffffffff16906020019092919050505062002245565b6040518082815260200191505060405180910390f35b34801562000d3157600080fd5b5062000d3c62002331565b6040518080602001828103825283818151815260200191508051906020019060200280838360005b8381101562000d8157808201518184015260208101905062000d64565b505050509050019250505060405180910390f35b34801562000da257600080fd5b5062000de86004803603602081101562000dbb57600080fd5b81019080803573ffffffffffffffffffffffffffffffffffffffff169060200190929190505050620023c1565b005b34801562000df757600080fd5b5062000e3d6004803603602081101562000e1057600080fd5b81019080803573ffffffffffffffffffffffffffffffffffffffff16906020019092919050505062002414565b6040518082815260200191505060405180910390f35b34801562000e6057600080fd5b5062000ea66004803603602081101562000e7957600080fd5b81019080803573ffffffffffffffffffffffffffffffffffffffff16906020019092919050505062002500565b6040518080602001828103825283818151815260200191508051906020019060200280838360005b8381101562000eeb57808201518184015260208101905062000ece565b505050509050019250505060405180910390f35b60026020528060005260406000206000915054906101000a900473ffffffffffffffffffffffffffffffffffffffff1681565b60003390506000808273ffffffffffffffffffffffffffffffffffffffff1673ffffffffffffffffffffffffffffffffffffffff16815260200190815260200160002060020160009054906101000a900460ff1662000f9057600080fd5b6000341162000f9e57600080fd5b62000faa81836200268b565b62000fb457600080fd5b60003490506000828888888589893060405162000fd19062002771565b808973ffffffffffffffffffffffffffffffffffffffff1673ffffffffffffffffffffffffffffffffffffffff168152602001806020018060200180602001888152602001878152602001806020018673ffffffffffffffffffffffffffffffffffffffff1673ffffffffffffffffffffffffffffffffffffffff16815260200185810385528c818151815260200191508051906020019080838360005b838110156200108c5780820151818401526020810190506200106f565b50505050905090810190601f168015620010ba5780820380516001836020036101000a031916815260200191505b5085810384528b818151815260200191508051906020019080838360005b83811015620010f5578082015181840152602081019050620010d8565b50505050905090810190601f168015620011235780820380516001836020036101000a031916815260200191505b5085810383528a818151815260200191508051906020019060200280838360005b838110156200116157808201518184015260208101905062001144565b50505050905001858103825287818151815260200191508051906020019060200280838360005b83811015620011a557808201518184015260208101905062001188565b505050509050019c50505050505050505050505050604051809103906000f080158015620011d7573d6000803e3d6000fd5b509050600081905081600260008373ffffffffffffffffffffffffffffffffffffffff1673ffffffffffffffffffffffffffffffffffffffff16815260200190815260200160002060006101000a81548173ffffffffffffffffffffffffffffffffffffffff021916908373ffffffffffffffffffffffffffffffffffffffff16021790555060038190806001815401808255809150509060018203906000526020600020016000909192909190916101000a81548173ffffffffffffffffffffffffffffffffffffffff021916908373ffffffffffffffffffffffffffffffffffffffff160217905550507f3c1b2955a570d7b24867f47b5827c8c97e344bed881c4519bad1dd91656279da81604051808273ffffffffffffffffffffffffffffffffffffffff1673ffffffffffffffffffffffffffffffffffffffff16815260200191505060405180910390a1505050505050505050565b6060600260008373ffffffffffffffffffffffffffffffffffffffff1673ffffffffffffffffffffffffffffffffffffffff16815260200190815260200160002060009054906101000a900473ffffffffffffffffffffffffffffffffffffffff1673ffffffffffffffffffffffffffffffffffffffff1663894c3b1f6040518163ffffffff1660e01b815260040160006040518083038186803b158015620013d957600080fd5b505afa158015620013ee573d6000803e3d6000fd5b505050506040513d6000823e3d601f19601f8201168201806040525060208110156200141957600080fd5b81019080805160405193929190846401000000008211156200143a57600080fd5b838201915060208201858111156200145157600080fd5b82518660208202830111640100000000821117156200146f57600080fd5b8083526020830192505050908051906020019060200280838360005b83811015620014a85780820151818401526020810190506200148b565b505050509050016040525050509050919050565b6000806000808473ffffffffffffffffffffffffffffffffffffffff1673ffffffffffffffffffffffffffffffffffffffff16815260200190815260200160002090508060010154915050919050565b620015166200277f565b6000808373ffffffffffffffffffffffffffffffffffffffff1673ffffffffffffffffffffffffffffffffffffffff16815260200190815260200160002060020160009054906101000a900460ff166200156f57600080fd5b60405180604001604052806000808573ffffffffffffffffffffffffffffffffffffffff1673ffffffffffffffffffffffffffffffffffffffff1681526020019081526020016000206000015481526020016000808573ffffffffffffffffffffffffffffffffffffffff1673ffffffffffffffffffffffffffffffffffffffff168152602001908152602001600020600101548152509050919050565b6000600260008373ffffffffffffffffffffffffffffffffffffffff1673ffffffffffffffffffffffffffffffffffffffff16815260200190815260200160002060009054906101000a900473ffffffffffffffffffffffffffffffffffffffff1673ffffffffffffffffffffffffffffffffffffffff1663459d6e4f6040518163ffffffff1660e01b815260040160206040518083038186803b158015620016b557600080fd5b505afa158015620016ca573d6000803e3d6000fd5b505050506040513d6020811015620016e157600080fd5b81019080805190602001909291905050509050919050565b6000339050600160008273ffffffffffffffffffffffffffffffffffffffff1673ffffffffffffffffffffffffffffffffffffffff16815260200190815260200160002060010160019054906101000a900460ff16156200175957600080fd5b6040518060600160405280838152602001603260ff16815260200160011515815250600160008373ffffffffffffffffffffffffffffffffffffffff1673ffffffffffffffffffffffffffffffffffffffff1681526020019081526020016000206000820151816000015560208201518160010160006101000a81548160ff021916908360ff16021790555060408201518160010160016101000a81548160ff02191690831515021790555090505060048190806001815401808255809150509060018203906000526020600020016000909192909190916101000a81548173ffffffffffffffffffffffffffffffffffffffff021916908373ffffffffffffffffffffffffffffffffffffffff160217905550505050565b60008060003373ffffffffffffffffffffffffffffffffffffffff1673ffffffffffffffffffffffffffffffffffffffff16815260200190815260200160002060020160009054906101000a900460ff1615620018f2577f5472616465720000000000000000000000000000000000000000000000000000905062001995565b600160003373ffffffffffffffffffffffffffffffffffffffff1673ffffffffffffffffffffffffffffffffffffffff16815260200190815260200160002060010160019054906101000a900460ff161562001971577f41726269747261746f7200000000000000000000000000000000000000000000905062001995565b7f496e76616c69640000000000000000000000000000000000000000000000000090505b90565b60016020528060005260406000206000915090508060000154908060010160009054906101000a900460ff16908060010160019054906101000a900460ff16905083565b6060600260008373ffffffffffffffffffffffffffffffffffffffff1673ffffffffffffffffffffffffffffffffffffffff16815260200190815260200160002060009054906101000a900473ffffffffffffffffffffffffffffffffffffffff1673ffffffffffffffffffffffffffffffffffffffff166306fdde036040518163ffffffff1660e01b815260040160006040518083038186803b15801562001a8457600080fd5b505afa15801562001a99573d6000803e3d6000fd5b505050506040513d6000823e3d601f19601f82011682018060405250602081101562001ac457600080fd5b810190808051604051939291908464010000000082111562001ae557600080fd5b8382019150602082018581111562001afc57600080fd5b825186600182028301116401000000008211171562001b1a57600080fd5b8083526020830192505050908051906020019080838360005b8381101562001b5057808201518184015260208101905062001b33565b50505050905090810190601f16801562001b7e5780820380516001836020036101000a031916815260200191505b506040525050509050919050565b60008060008373ffffffffffffffffffffffffffffffffffffffff1673ffffffffffffffffffffffffffffffffffffffff16815260200190815260200160002060020160009054906101000a900460ff169050919050565b60016000808373ffffffffffffffffffffffffffffffffffffffff1673ffffffffffffffffffffffffffffffffffffffff1681526020019081526020016000206000016000828254019250508190555050565b60606000600480549050905060608160405190808252806020026020018201604052801562001c755781602001602082028038833980820191505090505b50905060008090505b8281101562001d8a5760006004828154811062001c9757fe5b9060005260206000200160009054906101000a900473ffffffffffffffffffffffffffffffffffffffff16905062001cce620027a1565b600160008373ffffffffffffffffffffffffffffffffffffffff1673ffffffffffffffffffffffffffffffffffffffff168152602001908152602001600020604051806060016040529081600082015481526020016001820160009054906101000a900460ff1660ff1660ff1681526020016001820160019054906101000a900460ff1615151515815250509050806000015184848151811062001d6e57fe5b6020026020010181815250505050808060010191505062001c7e565b50809250505090565b6060600380548060200260200160405190810160405280929190818152602001828054801562001e1957602002820191906000526020600020905b8160009054906101000a900473ffffffffffffffffffffffffffffffffffffffff1673ffffffffffffffffffffffffffffffffffffffff168152602001906001019080831162001dce575b5050505050905090565b60006020528060005260406000206000915090508060000154908060010154908060020160009054906101000a900460ff16905083565b6000806000808473ffffffffffffffffffffffffffffffffffffffff1673ffffffffffffffffffffffffffffffffffffffff16815260200190815260200160002090508060000154915050919050565b600047905090565b60003390506000808273ffffffffffffffffffffffffffffffffffffffff1673ffffffffffffffffffffffffffffffffffffffff16815260200190815260200160002060020160009054906101000a900460ff161562001f1157600080fd5b60405180606001604052806064815260200160648152602001600115158152506000808373ffffffffffffffffffffffffffffffffffffffff1673ffffffffffffffffffffffffffffffffffffffff168152602001908152602001600020600082015181600001556020820151816001015560408201518160020160006101000a81548160ff02191690831515021790555090505050565b6060600260008373ffffffffffffffffffffffffffffffffffffffff1673ffffffffffffffffffffffffffffffffffffffff16815260200190815260200160002060009054906101000a900473ffffffffffffffffffffffffffffffffffffffff1673ffffffffffffffffffffffffffffffffffffffff16637284e4166040518163ffffffff1660e01b815260040160006040518083038186803b1580156200205157600080fd5b505afa15801562002066573d6000803e3d6000fd5b505050506040513d6000823e3d601f19601f8201168201806040525060208110156200209157600080fd5b8101908080516040519392919084640100000000821115620020b257600080fd5b83820191506020820185811115620020c957600080fd5b8251866001820283011164010000000082111715620020e757600080fd5b8083526020830192505050908051906020019080838360005b838110156200211d57808201518184015260208101905062002100565b50505050905090810190601f1680156200214b5780820380516001836020036101000a031916815260200191505b506040525050509050919050565b6000600260008373ffffffffffffffffffffffffffffffffffffffff1673ffffffffffffffffffffffffffffffffffffffff16815260200190815260200160002060009054906101000a900473ffffffffffffffffffffffffffffffffffffffff1673ffffffffffffffffffffffffffffffffffffffff1663fbcc1e716040518163ffffffff1660e01b815260040160206040518083038186803b1580156200220157600080fd5b505afa15801562002216573d6000803e3d6000fd5b505050506040513d60208110156200222d57600080fd5b81019080805190602001909291905050509050919050565b6000600260008373ffffffffffffffffffffffffffffffffffffffff1673ffffffffffffffffffffffffffffffffffffffff16815260200190815260200160002060009054906101000a900473ffffffffffffffffffffffffffffffffffffffff1673ffffffffffffffffffffffffffffffffffffffff1663516dde436040518163ffffffff1660e01b815260040160206040518083038186803b158015620022ed57600080fd5b505afa15801562002302573d6000803e3d6000fd5b505050506040513d60208110156200231957600080fd5b81019080805190602001909291905050509050919050565b60606004805480602002602001604051908101604052809291908181526020018280548015620023b757602002820191906000526020600020905b8160009054906101000a900473ffffffffffffffffffffffffffffffffffffffff1673ffffffffffffffffffffffffffffffffffffffff16815260200190600101908083116200236c575b5050505050905090565b60016000808373ffffffffffffffffffffffffffffffffffffffff1673ffffffffffffffffffffffffffffffffffffffff1681526020019081526020016000206001016000828254019250508190555050565b6000600260008373ffffffffffffffffffffffffffffffffffffffff1673ffffffffffffffffffffffffffffffffffffffff16815260200190815260200160002060009054906101000a900473ffffffffffffffffffffffffffffffffffffffff1673ffffffffffffffffffffffffffffffffffffffff16632c135b936040518163ffffffff1660e01b815260040160206040518083038186803b158015620024bc57600080fd5b505afa158015620024d1573d6000803e3d6000fd5b505050506040513d6020811015620024e857600080fd5b81019080805190602001909291905050509050919050565b6060600260008373ffffffffffffffffffffffffffffffffffffffff1673ffffffffffffffffffffffffffffffffffffffff16815260200190815260200160002060009054906101000a900473ffffffffffffffffffffffffffffffffffffffff1673ffffffffffffffffffffffffffffffffffffffff1663cc2ee1966040518163ffffffff1660e01b815260040160006040518083038186803b158015620025a857600080fd5b505afa158015620025bd573d6000803e3d6000fd5b505050506040513d6000823e3d601f19601f820116820180604052506020811015620025e857600080fd5b81019080805160405193929190846401000000008211156200260957600080fd5b838201915060208201858111156200262057600080fd5b82518660208202830111640100000000821117156200263e57600080fd5b8083526020830192505050908051906020019060200280838360005b83811015620026775780820151818401526020810190506200265a565b505050509050016040525050509050919050565b6000808251905060008090505b8181101562002764576000848281518110620026b057fe5b60200260200101519050600160008273ffffffffffffffffffffffffffffffffffffffff1673ffffffffffffffffffffffffffffffffffffffff16815260200190815260200160002060010160019054906101000a900460ff1615806200274257508073ffffffffffffffffffffffffffffffffffffffff168673ffffffffffffffffffffffffffffffffffffffff16145b156200275557600093505050506200276b565b50808060010191505062002698565b5060019150505b92915050565b6130c080620027cb83390190565b6040518060400160405280600290602082028038833980820191505090505090565b604051806060016040528060008019168152602001600060ff168152602001600015158152509056fe60806040526000602460006101000a81548160ff021916908360038111156200002457fe5b0217905550604051620030c0380380620030c083398181016040526101008110156200004f57600080fd5b8101908080519060200190929190805160405193929190846401000000008211156200007a57600080fd5b838201915060208201858111156200009157600080fd5b8251866001820283011164010000000082111715620000af57600080fd5b8083526020830192505050908051906020019080838360005b83811015620000e5578082015181840152602081019050620000c8565b50505050905090810190601f168015620001135780820380516001836020036101000a031916815260200191505b50604052602001805160405193929190846401000000008211156200013757600080fd5b838201915060208201858111156200014e57600080fd5b82518660018202830111640100000000821117156200016c57600080fd5b8083526020830192505050908051906020019080838360005b83811015620001a257808201518184015260208101905062000185565b50505050905090810190601f168015620001d05780820380516001836020036101000a031916815260200191505b5060405260200180516040519392919084640100000000821115620001f457600080fd5b838201915060208201858111156200020b57600080fd5b82518660208202830111640100000000821117156200022957600080fd5b8083526020830192505050908051906020019060200280838360005b838110156200026257808201518184015260208101905062000245565b50505050905001604052602001805190602001909291908051906020019092919080516040519392919084640100000000821115620002a057600080fd5b83820191506020820185811115620002b757600080fd5b8251866020820283011164010000000082111715620002d557600080fd5b8083526020830192505050908051906020019060200280838360005b838110156200030e578082015181840152602081019050620002f1565b505050509050016040526020018051906020019092919050505080600960006101000a81548173ffffffffffffffffffffffffffffffffffffffff021916908373ffffffffffffffffffffffffffffffffffffffff160217905550876000806101000a81548173ffffffffffffffffffffffffffffffffffffffff021916908373ffffffffffffffffffffffffffffffffffffffff1602179055508660019080519060200190620003c19291906200058c565b508560029080519060200190620003da9291906200058c565b508460039080519060200190620003f392919062000613565b506000600481905550836005819055508260068190555081600790805190602001906200042292919062000665565b506017600960146101000a81548161ffff021916908361ffff16021790555060008090505b8551811015620004f257604051806040016040528060008152602001600073ffffffffffffffffffffffffffffffffffffffff16815250600c82600481106200048c57fe5b600202016000820151816000015560208201518160010160006101000a81548173ffffffffffffffffffffffffffffffffffffffff021916908373ffffffffffffffffffffffffffffffffffffffff160217905550905050808060010191505062000447565b5060008090505b82518110156200057d576001600a60008584815181106200051657fe5b602002602001015173ffffffffffffffffffffffffffffffffffffffff1673ffffffffffffffffffffffffffffffffffffffff16815260200190815260200160002060006101000a81548160ff0219169083151502179055508080600101915050620004f9565b5050505050505050506200078a565b828054600181600116156101000203166002900490600052602060002090601f016020900481019282601f10620005cf57805160ff191683800117855562000600565b8280016001018555821562000600579182015b82811115620005ff578251825591602001919060010190620005e2565b5b5090506200060f9190620006f4565b5090565b82805482825590600052602060002090810192821562000652579160200282015b828111156200065157825182559160200191906001019062000634565b5b5090506200066191906200071c565b5090565b828054828255906000526020600020908101928215620006e1579160200282015b82811115620006e05782518260006101000a81548173ffffffffffffffffffffffffffffffffffffffff021916908373ffffffffffffffffffffffffffffffffffffffff1602179055509160200191906001019062000686565b5b509050620006f0919062000744565b5090565b6200071991905b8082111562000715576000816000905550600101620006fb565b5090565b90565b6200074191905b808211156200073d57600081600090555060010162000723565b5090565b90565b6200078791905b808211156200078357600081816101000a81549073ffffffffffffffffffffffffffffffffffffffff0219169055506001016200074b565b5090565b90565b612926806200079a6000396000f3fe6080604052600436106101cd5760003560e01c8063722713f7116100f7578063a832317611610095578063cc7e621011610064578063cc7e621014610a43578063d3901fb514610a92578063f462f8af14610ac1578063fbcc1e7114610b05576101cd565b8063a8323176146108e8578063bc0da8d3146108ff578063bfb0b6081461096b578063cc2ee196146109d7576101cd565b806376bb984b116100d157806376bb984b1461077e578063894c3b1f1461079557806395e56a8414610801578063a6430cc01461086d576101cd565b8063722713f7146106485780637284e41614610673578063729ecb0714610703576101cd565b8063409e22051161016f5780634bc263b91161013e5780634bc263b914610531578063516dde43146105a15780636f0f9f5e146105cc5780636f36ec2314610602576101cd565b8063409e2205146103c6578063459d6e4f14610415578063465be85f146104405780634852aa6d146104ac576101cd565b8063288fa802116101ab578063288fa802146102b45780632c135b93146103205780632d9781631461034b57806338a481de14610384576101cd565b806306fdde03146101d2578063217a01c9146102625780632810e1d61461029d575b600080fd5b3480156101de57600080fd5b506101e7610b5c565b6040518080602001828103825283818151815260200191508051906020019080838360005b8381101561022757808201518184015260208101905061020c565b50505050905090810190601f1680156102545780820380516001836020036101000a031916815260200191505b509250505060405180910390f35b34801561026e57600080fd5b5061029b6004803603602081101561028557600080fd5b8101908080359060200190929190505050610bfa565b005b3480156102a957600080fd5b506102b2610d8c565b005b3480156102c057600080fd5b506102c9610db4565b6040518080602001828103825283818151815260200191508051906020019060200280838360005b8381101561030c5780820151818401526020810190506102f1565b505050509050019250505060405180910390f35b34801561032c57600080fd5b50610335610e44565b6040518082815260200191505060405180910390f35b34801561035757600080fd5b50610360610e4a565b6040518082600381111561037057fe5b60ff16815260200191505060405180910390f35b6103b06004803603602081101561039a57600080fd5b8101908080359060200190929190505050610e5d565b6040518082815260200191505060405180910390f35b3480156103d257600080fd5b506103ff600480360360208110156103e957600080fd5b8101908080359060200190929190505050610fd1565b6040518082815260200191505060405180910390f35b34801561042157600080fd5b5061042a610ff2565b6040518082815260200191505060405180910390f35b34801561044c57600080fd5b50610455610ff8565b6040518080602001828103825283818151815260200191508051906020019060200280838360005b8381101561049857808201518184015260208101905061047d565b505050509050019250505060405180910390f35b3480156104b857600080fd5b506104ef600480360360408110156104cf57600080fd5b810190808035906020019092919080359060200190929190505050611086565b604051808273ffffffffffffffffffffffffffffffffffffffff1673ffffffffffffffffffffffffffffffffffffffff16815260200191505060405180910390f35b34801561053d57600080fd5b506105806004803603602081101561055457600080fd5b81019080803573ffffffffffffffffffffffffffffffffffffffff1690602001909291905050506110d1565b60405180831515151581526020018281526020019250505060405180910390f35b3480156105ad57600080fd5b506105b6611102565b6040518082815260200191505060405180910390f35b3480156105d857600080fd5b506105e1611108565b60405180831515151581526020018281526020019250505060405180910390f35b61062e6004803603602081101561061857600080fd5b810190808035906020019092919050505061119a565b604051808215151515815260200191505060405180910390f35b34801561065457600080fd5b5061065d6116c3565b6040518082815260200191505060405180910390f35b34801561067f57600080fd5b506106886116cb565b6040518080602001828103825283818151815260200191508051906020019080838360005b838110156106c85780820151818401526020810190506106ad565b50505050905090810190601f1680156106f55780820380516001836020036101000a031916815260200191505b509250505060405180910390f35b34801561070f57600080fd5b5061073c6004803603602081101561072657600080fd5b8101908080359060200190929190505050611769565b604051808273ffffffffffffffffffffffffffffffffffffffff1673ffffffffffffffffffffffffffffffffffffffff16815260200191505060405180910390f35b34801561078a57600080fd5b506107936117a5565b005b3480156107a157600080fd5b506107aa611fab565b6040518080602001828103825283818151815260200191508051906020019060200280838360005b838110156107ed5780820151818401526020810190506107d2565b505050509050019250505060405180910390f35b34801561080d57600080fd5b50610816612039565b6040518080602001828103825283818151815260200191508051906020019060200280838360005b8381101561085957808201518184015260208101905061083e565b505050509050019250505060405180910390f35b34801561087957600080fd5b506108a66004803603602081101561089057600080fd5b81019080803590602001909291905050506120c3565b604051808273ffffffffffffffffffffffffffffffffffffffff1673ffffffffffffffffffffffffffffffffffffffff16815260200191505060405180910390f35b3480156108f457600080fd5b506108fd6120ff565b005b34801561090b57600080fd5b5061091461212d565b6040518080602001828103825283818151815260200191508051906020019060200280838360005b8381101561095757808201518184015260208101905061093c565b505050509050019250505060405180910390f35b34801561097757600080fd5b506109806121b7565b6040518080602001828103825283818151815260200191508051906020019060200280838360005b838110156109c35780820151818401526020810190506109a8565b505050509050019250505060405180910390f35b3480156109e357600080fd5b506109ec612241565b6040518080602001828103825283818151815260200191508051906020019060200280838360005b83811015610a2f578082015181840152602081019050610a14565b505050509050019250505060405180910390f35b348015610a4f57600080fd5b50610a7c60048036036020811015610a6657600080fd5b8101908080359060200190929190505050612299565b6040518082815260200191505060405180910390f35b348015610a9e57600080fd5b50610aa76122b1565b604051808215151515815260200191505060405180910390f35b610b0360048036036020811015610ad757600080fd5b81019080803573ffffffffffffffffffffffffffffffffffffffff169060200190929190505050612351565b005b348015610b1157600080fd5b50610b1a6123a3565b604051808273ffffffffffffffffffffffffffffffffffffffff1673ffffffffffffffffffffffffffffffffffffffff16815260200191505060405180910390f35b60018054600181600116156101000203166002900480601f016020809104026020016040519081016040528092919081815260200182805460018160011615610100020316600290048015610bf25780601f10610bc757610100808354040283529160200191610bf2565b820191906000526020600020905b815481529060010190602001808311610bd557829003601f168201915b505050505081565b60001515602160003373ffffffffffffffffffffffffffffffffffffffff1673ffffffffffffffffffffffffffffffffffffffff16815260200190815260200160002060000160009054906101000a900460ff16151514610c5a57600080fd5b610c626122b1565b610c6b57600080fd5b604051806040016040528060011515815260200182815250602160003373ffffffffffffffffffffffffffffffffffffffff1673ffffffffffffffffffffffffffffffffffffffff16815260200190815260200160002060008201518160000160006101000a81548160ff02191690831515021790555060208201518160010155905050602260008281526020019081526020016000203390806001815401808255809150509060018203906000526020600020016000909192909190916101000a81548173ffffffffffffffffffffffffffffffffffffffff021916908373ffffffffffffffffffffffffffffffffffffffff16021790555050602360008281526020019081526020016000206000815480929190600101919050555050565b600080610d97611108565b9150915081610daf57610da981610e5d565b50610db0565b5b5050565b6060600060049050606081604051908082528060200260200182016040528015610ded5781602001602082028038833980820191505090505b50905060008090505b82811015610e3b57600c8160048110610e0b57fe5b600202016000015460001b828281518110610e2257fe5b6020026020010181815250508080600101915050610df6565b50809250505090565b60045481565b602460009054906101000a900460ff1681565b600080600960009054906101000a900473ffffffffffffffffffffffffffffffffffffffff169050600080905060008090505b602080549050811015610fc65760008090505b60208281548110610eb057fe5b9060005260206000209050506004811015610fb857600073ffffffffffffffffffffffffffffffffffffffff1660208381548110610eea57fe5b90600052602060002090600402016000018260048110610f0657fe5b0160009054906101000a900473ffffffffffffffffffffffffffffffffffffffff1673ffffffffffffffffffffffffffffffffffffffff1614610fab57600a8301925085811415610fa957610fa460208381548110610f6157fe5b90600052602060002090600402016000018260048110610f7d57fe5b0160009054906101000a900473ffffffffffffffffffffffffffffffffffffffff16612351565b610faa565b5b5b8080600101915050610ea3565b508080600101915050610e90565b508092505050919050565b60038181548110610fde57fe5b906000526020600020016000915090505481565b60055481565b6060600880548060200260200160405190810160405280929190818152602001828054801561107c57602002820191906000526020600020905b8160009054906101000a900473ffffffffffffffffffffffffffffffffffffffff1673ffffffffffffffffffffffffffffffffffffffff1681526020019060010190808311611032575b5050505050905090565b6022602052816000526040600020818154811061109f57fe5b906000526020600020016000915091509054906101000a900473ffffffffffffffffffffffffffffffffffffffff1681565b60216020528060005260406000206000915090508060000160009054906101000a900460ff16908060010154905082565b60065481565b60008060008090506000806000905060008090505b60038054905081101561118c576000602360006003848154811061113d57fe5b9060005260206000200154815260200190815260200160002054905084811115611170578094506000925081935061117e565b8481141561117d57600192505b5b50808060010191505061111d565b508082945094505050509091565b6000600a60003373ffffffffffffffffffffffffffffffffffffffff1673ffffffffffffffffffffffffffffffffffffffff16815260200190815260200160002060009054906101000a900460ff16156111f357600080fd5b6000349050670de0b6b3a7640000341061120c57600080fd5b80600c846004811061121a57fe5b60020201600001541061122c57600080fd5b6000600960009054906101000a900473ffffffffffffffffffffffffffffffffffffffff16905060008173ffffffffffffffffffffffffffffffffffffffff16636215a16e336040518263ffffffff1660e01b8152600401808273ffffffffffffffffffffffffffffffffffffffff1673ffffffffffffffffffffffffffffffffffffffff16815260200191505060206040518083038186803b1580156112d257600080fd5b505afa1580156112e6573d6000803e3d6000fd5b505050506040513d60208110156112fc57600080fd5b810190808051906020019092919050505090508061131957600080fd5b600c856004811061132657fe5b6002020160010160009054906101000a900473ffffffffffffffffffffffffffffffffffffffff1673ffffffffffffffffffffffffffffffffffffffff166108fc600c876004811061137457fe5b60020201600001549081150290604051600060405180830381858888f193505050501580156113a7573d6000803e3d6000fd5b506000670de0b6b3a764000090506113bd6126f8565b60008090505b60048110156114725787811461146557600c81600481106113e057fe5b600202016000015483039250600c81600481106113f957fe5b6002020160010160009054906101000a900473ffffffffffffffffffffffffffffffffffffffff1682826004811061142d57fe5b602002019073ffffffffffffffffffffffffffffffffffffffff16908173ffffffffffffffffffffffffffffffffffffffff16815250505b80806001019150506113c3565b5084821161161c573381886004811061148757fe5b602002019073ffffffffffffffffffffffffffffffffffffffff16908173ffffffffffffffffffffffffffffffffffffffff16815250506114c661271a565b60405180602001604052808381525090506020819080600181540180825580915050906001820390600052602060002090600402016000909192909190915060008201518160000190600461151c929190612733565b5050505060008090505b6004811015611584578881141561154f57836014826004811061154557fe5b0181905550611577565b600c816004811061155c57fe5b60020201600001546014826004811061157157fe5b01819055505b8080600101915050611526565b503373ffffffffffffffffffffffffffffffffffffffff166108fc8488039081150290604051600060405180830381858888f193505050501580156115cd573d6000803e3d6000fd5b506115d66123c8565b60008090505b600481101561160c576000600c82600481106115f457fe5b600202016000018190555080806001019150506115dc565b50600196505050505050506116be565b6116246127b0565b60405180604001604052808781526020013373ffffffffffffffffffffffffffffffffffffffff16815250905080600c896004811061165f57fe5b600202016000820151816000015560208201518160010160006101000a81548173ffffffffffffffffffffffffffffffffffffffff021916908373ffffffffffffffffffffffffffffffffffffffff1602179055509050505050505050505b919050565b600047905090565b60028054600181600116156101000203166002900480601f0160208091040260200160405190810160405280929190818152602001828054600181600116156101000203166002900480156117615780601f1061173657610100808354040283529160200191611761565b820191906000526020600020905b81548152906001019060200180831161174457829003601f168201915b505050505081565b6008818154811061177657fe5b906000526020600020016000915054906101000a900473ffffffffffffffffffffffffffffffffffffffff1681565b6000600960009054906101000a900473ffffffffffffffffffffffffffffffffffffffff16905060608173ffffffffffffffffffffffffffffffffffffffff1663c9e519e86040518163ffffffff1660e01b815260040160006040518083038186803b15801561181457600080fd5b505afa158015611828573d6000803e3d6000fd5b505050506040513d6000823e3d601f19601f82011682018060405250602081101561185257600080fd5b810190808051604051939291908464010000000082111561187257600080fd5b8382019150602082018581111561188857600080fd5b82518660208202830111640100000000821117156118a557600080fd5b8083526020830192505050908051906020019060200280838360005b838110156118dc5780820151818401526020810190506118c1565b505050509050016040525050509050600560078054905082510311611aef57600060078054905082510390506060816040519080825280602002602001820160405280156119395781602001602082028038833980820191505090505b509050600080905060008090505b8451811015611acd57600085828151811061195e57fe5b60200260200101519050600a60008273ffffffffffffffffffffffffffffffffffffffff1673ffffffffffffffffffffffffffffffffffffffff16815260200190815260200160002060009054906101000a900460ff1680611a0c57506000809054906101000a900473ffffffffffffffffffffffffffffffffffffffff1673ffffffffffffffffffffffffffffffffffffffff168173ffffffffffffffffffffffffffffffffffffffff16145b15611a175750611ac0565b6001600b60008373ffffffffffffffffffffffffffffffffffffffff1673ffffffffffffffffffffffffffffffffffffffff16815260200190815260200160002060006101000a81548160ff02191690831515021790555080848481518110611a7c57fe5b602002602001019073ffffffffffffffffffffffffffffffffffffffff16908173ffffffffffffffffffffffffffffffffffffffff16815250508280600101935050505b8080600101915050611947565b508160089080519060200190611ae49291906127e0565b505050505050611fa9565b6060600a825102604051908082528060200260200182016040528015611b245781602001602082028038833980820191505090505b509050600080905060008090505b8351811015611d68576000848281518110611b4957fe5b60200260200101519050600a60008273ffffffffffffffffffffffffffffffffffffffff1673ffffffffffffffffffffffffffffffffffffffff16815260200190815260200160002060009054906101000a900460ff1680611bf757506000809054906101000a900473ffffffffffffffffffffffffffffffffffffffff1673ffffffffffffffffffffffffffffffffffffffff168173ffffffffffffffffffffffffffffffffffffffff16145b15611c025750611d5b565b60008673ffffffffffffffffffffffffffffffffffffffff166351d0ea37836040518263ffffffff1660e01b8152600401808273ffffffffffffffffffffffffffffffffffffffff1673ffffffffffffffffffffffffffffffffffffffff16815260200191505060606040518083038186803b158015611c8157600080fd5b505afa158015611c95573d6000803e3d6000fd5b505050506040513d6060811015611cab57600080fd5b81019080805190602001909291908051906020019092919080519060200190929190505050509150506000600a60ff168260ff1681611ce657fe5b04905060008090505b8160ff16811015611d565783878781518110611d0757fe5b602002602001019073ffffffffffffffffffffffffffffffffffffffff16908173ffffffffffffffffffffffffffffffffffffffff168152505085806001019650508080600101915050611cef565b505050505b8080600101915050611b32565b5060606005604051908082528060200260200182016040528015611d9b5781602001602082028038833980820191505090505b50905060008090505b6005811015611f8b576000834233600960149054906101000a900461ffff16604051602001808481526020018373ffffffffffffffffffffffffffffffffffffffff1673ffffffffffffffffffffffffffffffffffffffff1660601b81526014018261ffff1661ffff1660f01b815260020193505050506040516020818303038152906040528051906020012060001c81611e3b57fe5b0690506009601481819054906101000a900461ffff168092919060010191906101000a81548161ffff021916908361ffff160217905550506000858281518110611e8157fe5b60200260200101519050600b60008273ffffffffffffffffffffffffffffffffffffffff1673ffffffffffffffffffffffffffffffffffffffff16815260200190815260200160002060009054906101000a900460ff16611f84576001600b60008373ffffffffffffffffffffffffffffffffffffffff1673ffffffffffffffffffffffffffffffffffffffff16815260200190815260200160002060006101000a81548160ff02191690831515021790555080848481518110611f4157fe5b602002602001019073ffffffffffffffffffffffffffffffffffffffff16908173ffffffffffffffffffffffffffffffffffffffff168152505082806001019350505b5050611da4565b8160089080519060200190611fa19291906127e0565b505050505050505b565b6060600780548060200260200160405190810160405280929190818152602001828054801561202f57602002820191906000526020600020905b8160009054906101000a900473ffffffffffffffffffffffffffffffffffffffff1673ffffffffffffffffffffffffffffffffffffffff1681526020019060010190808311611fe5575b5050505050905090565b60606000600490506060816040519080825280602002602001820160405280156120725781602001602082028038833980820191505090505b50905060008090505b828110156120ba576014816004811061209057fe5b015460001b8282815181106120a157fe5b602002602001018181525050808060010191505061207b565b50809250505090565b600781815481106120d057fe5b906000526020600020016000915054906101000a900473ffffffffffffffffffffffffffffffffffffffff1681565b6002602460006101000a81548160ff0219169083600381111561211e57fe5b021790555061212b6117a5565b565b60606000600490506060816040519080825280602002602001820160405280156121665781602001602082028038833980820191505090505b50905060008090505b828110156121ae57601c816004811061218457fe5b015460001b82828151811061219557fe5b602002602001018181525050808060010191505061216f565b50809250505090565b60606000600490506060816040519080825280602002602001820160405280156121f05781602001602082028038833980820191505090505b50905060008090505b82811015612238576018816004811061220e57fe5b015460001b82828151811061221f57fe5b60200260200101818152505080806001019150506121f9565b50809250505090565b6060600380548060200260200160405190810160405280929190818152602001828054801561228f57602002820191906000526020600020905b81548152602001906001019080831161227b575b5050505050905090565b60236020528060005260406000206000915090505481565b600080600090505b600780549050811015612348573373ffffffffffffffffffffffffffffffffffffffff16600782815481106122ea57fe5b9060005260206000200160009054906101000a900473ffffffffffffffffffffffffffffffffffffffff1673ffffffffffffffffffffffffffffffffffffffff16141561233b57600191505061234e565b80806001019150506122b9565b50600090505b90565b8073ffffffffffffffffffffffffffffffffffffffff166108fc670d99a8cec7e200009081150290604051600060405180830381858888f1935050505015801561239f573d6000803e3d6000fd5b5050565b6000809054906101000a900473ffffffffffffffffffffffffffffffffffffffff1681565b6000600960009054906101000a900473ffffffffffffffffffffffffffffffffffffffff1690506123f761271a565b60206001602080549050038154811061240c57fe5b906000526020600020906004020160405180602001604052908160008201600480602002604051908101604052809291908260048015612497576020028201915b8160009054906101000a900473ffffffffffffffffffffffffffffffffffffffff1673ffffffffffffffffffffffffffffffffffffffff168152602001906001019080831161244d575b505050505081525050905060008090505b60048110156126f3576000826000015182600481106124c357fe5b60200201519050600073ffffffffffffffffffffffffffffffffffffffff168173ffffffffffffffffffffffffffffffffffffffff16146126e55761250661286a565b8473ffffffffffffffffffffffffffffffffffffffff16633d59f85b836040518263ffffffff1660e01b8152600401808273ffffffffffffffffffffffffffffffffffffffff1673ffffffffffffffffffffffffffffffffffffffff168152602001915050604080518083038186803b15801561258257600080fd5b505afa158015612596573d6000803e3d6000fd5b505050506040513d601f19601f8201168201806040525060408110156125bb57600080fd5b810190809190505090507f405f4ccba46549b1dbd2e5bfbf7248e032b3b50a1a6d65140c30c83a176d192e8282604051808373ffffffffffffffffffffffffffffffffffffffff1673ffffffffffffffffffffffffffffffffffffffff16815260200182600260200280838360005b8381101561264557808201518184015260208101905061262a565b505050509050019250505060405180910390a16014836004811061266557fe5b01548160006002811061267457fe5b6020020151026018846004811061268757fe5b0154016018846004811061269757fe5b0181905550601483600481106126a957fe5b0154600103816001600281106126bb57fe5b602002015102601c84600481106126ce57fe5b015401601c84600481106126de57fe5b0181905550505b5080806001019150506124a8565b505050565b6040518060800160405280600490602082028038833980820191505090505090565b604051806020016040528061272d61288c565b81525090565b826004810192821561279f579160200282015b8281111561279e5782518260006101000a81548173ffffffffffffffffffffffffffffffffffffffff021916908373ffffffffffffffffffffffffffffffffffffffff16021790555091602001919060010190612746565b5b5090506127ac91906128ae565b5090565b604051806040016040528060008152602001600073ffffffffffffffffffffffffffffffffffffffff1681525090565b828054828255906000526020600020908101928215612859579160200282015b828111156128585782518260006101000a81548173ffffffffffffffffffffffffffffffffffffffff021916908373ffffffffffffffffffffffffffffffffffffffff16021790555091602001919060010190612800565b5b50905061286691906128ae565b5090565b6040518060400160405280600290602082028038833980820191505090505090565b6040518060800160405280600490602082028038833980820191505090505090565b6128ee91905b808211156128ea57600081816101000a81549073ffffffffffffffffffffffffffffffffffffffff0219169055506001016128b4565b5090565b9056fea265627a7a7231582067640057c90ae6c4616057181bf30da2cb452a94ead4b4c58a661f1aa9e89fec64736f6c63430005100032a265627a7a72315820122498dda58c9e132d510568dbae7f19ce5d8891b5903b2e27ece9bc622e0b3064736f6c63430005100032",
  "source": "// SPDX-License-Identifier: MIT\npragma solidity >=0.4.21 <=0.7.0;\nimport \"./Topic.sol\";\n\ncontract PredictionMarket {\n    // Structs for users and arbitrators. Default scores = 100\n    struct Trader {\n        uint winScore;\n        uint loseScore;\n        bool isValid; \n    }\n\n    struct Arbitrator {\n        bytes32 displayName;\n        uint8 trustworthiness;\n        bool isValid;\n    }\n\n    // Maps of addresses to different entities\n    mapping (address => Trader) public traders;\n    mapping (address => Arbitrator) public arbitrators;\n    mapping (address => Topic) public marketTopics;\n\n    // Array of addresses of topics to return to front end\n    address[] topicAddresses;\n\n    // Array of addresses of arbitrators to return to front end\n    address payable[] arbitratorAddresses;\n\n    // Struct create functions\n    function createTrader() public {\n        address id = msg.sender;\n        // // require that address has not been assigned to a trader\n        require(!traders[id].isValid);\n\n        // // create new trader with the default values\n        traders[id] = Trader(100, 100, true);\n    }\n\n    function createArbitrator(bytes32 _displayName) public {\n        address id = msg.sender;\n\n        // require that address has not been assigned to a arbitrator\n        require(!arbitrators[id].isValid);\n\n        // create new arbitrator with the default values\n        arbitrators[id] = Arbitrator(_displayName, 50, true);\n\n        arbitratorAddresses.push(address(uint160(id)));\n    }\n\n    function getAllArbitrators() public view returns (address payable[] memory) {\n        return arbitratorAddresses;\n    }\n\n    function getAllArbitratorNames() public view returns (bytes32[] memory) {\n        uint len = arbitratorAddresses.length;\n        bytes32[] memory names = new bytes32[](len);\n\n        for (uint i = 0; i < len; i++) {\n            address arbitratorAddress = arbitratorAddresses[i];\n            Arbitrator memory arbitrator = arbitrators[arbitratorAddress];\n            names[i] = arbitrator.displayName;\n        }\n        return names;\n    }\n\n    //VOTER'S REPUTATION \n    function getVotersReputation(address id) public view returns (uint[2] memory){\n        require(traders[id].isValid);\n        return [traders[id].winScore, traders[id].loseScore];\n    }\n\n    // AUTHENTICATION\n    function checkIdentity() public view returns (bytes32) {\n        // Check if user is a trader\n        if(traders[msg.sender].isValid){\n            return bytes32(\"Trader\");\n        }\n        // Check if user is an arbitrator\n        if(arbitrators[msg.sender].isValid){\n            return bytes32(\"Arbitrator\");\n        }\n        // If all the above fails, return invalid\n        return bytes32(\"Invalid\");\n    }\n\n    // Check if a trader is valid, this is called from external contracts/ views\n    function checkValidTrader(address trader) public view returns (bool) {\n        return traders[trader].isValid;\n    }\n\n\n    // Topics\n    function createTopic(\n        string memory name, string memory description, bytes32[] memory options, uint256 expiryDate, address payable[] memory selectedArbitrators\n    ) public payable\n        {\n        address payable creatorId = msg.sender;\n\n        // Creator must have a trader account\n        require(traders[creatorId].isValid);\n\n        // Must have value above 0 ETH for payment of creation bond\n        require(msg.value > 0 ether);\n\n        // selected arbitrators must have arbitrator account and creator must not select himself as an arbitrator\n        require(areValidArbitrators(creatorId, selectedArbitrators));\n\n        uint bondValue = msg.value;\n        Topic newTopic = new Topic(creatorId, name, description, options, bondValue, expiryDate, selectedArbitrators, address(this));\n        address payable topicAddress = address(uint160(address(newTopic))); // to cast from address to address payable\n        marketTopics[topicAddress] = newTopic;\n        topicAddresses.push(topicAddress);\n        emit TopicCreated(topicAddress);\n    }\n\n    function getAllTopics() public view returns (address[] memory) {\n        return topicAddresses;\n    }\n\n    function areValidArbitrators(address payable creatorId, address payable[] memory selectedArbitrators) internal view returns (bool) {\n        uint numSelectedArbitrators = selectedArbitrators.length;\n        for (uint i = 0; i < numSelectedArbitrators; i++) {\n            address arbitrator = selectedArbitrators[i];\n            if (!arbitrators[arbitrator].isValid || creatorId == arbitrator) {\n                return false;\n            }\n        }\n        return true;\n    }\n\n    function updateWinScore(address winnerAddress) public {\n        traders[winnerAddress].winScore += 1;\n    }\n\n    function getWinScore(address winnerAddress) public view returns (uint){\n        Trader storage winner = traders[winnerAddress];\n        return winner.winScore;\n    }\n\n    function updateLoseScore(address loserAddress) public {\n        traders[loserAddress].loseScore += 1;\n    }\n\n    function getLoseScore(address loserAddress) public view returns (uint){\n        Trader storage loser = traders[loserAddress];\n        return loser.loseScore;\n    }\n\n\n    // ===============================================================\n    // For testing purposes\n    // ===============================================================\n    event TopicCreated(address _topicAddress);\n\n    function getCreatorAddress(address topicAddress) public view returns (address payable) {\n        return marketTopics[topicAddress].topicCreator();\n    }\n\n    function getName(address topicAddress) public view returns (string memory) {\n        return marketTopics[topicAddress].name();\n    }\n\n    function getDescription(address topicAddress) public view returns (string memory) {\n        return marketTopics[topicAddress].description();\n    }\n\n    function getOptions(address topicAddress) public view returns (bytes32[] memory) {\n        return marketTopics[topicAddress].getOptions();\n    }\n\n    function getMarketCap(address topicAddress) public view returns (uint) {\n        return marketTopics[topicAddress].marketCap();\n    }\n\n    function getCreatorBond(address topicAddress) public view returns (uint) {\n        return marketTopics[topicAddress].creatorBond();\n    }\n\n    function getExpiryDate(address topicAddress) public view returns (uint256) {\n        return marketTopics[topicAddress].expiryDate();\n    }\n\n    function getSelectedArbitrators(address topicAddress) public view returns (address payable[] memory) {\n        return marketTopics[topicAddress].getArbitrators();\n    }\n\n    function getCurrentBalance() public view returns (uint) {\n        return address(this).balance;\n    }\n\n}",
  "sourcePath": "/Users/collinlim/Desktop/Desktop.nosync/School/CZ4153/Project/Decentralised_Prediction_Market/contracts/PredictionMarket.sol",
  "compiler": {
    "name": "solc",
    "version": "0.5.16+commit.9c3226ce.Emscripten.clang"
  },
  "schemaVersion": "3.2.5",
  "updatedAt": "2020-10-25T06:36:11.810Z",
  "networkType": "ethereum",
  "devdoc": {
    "methods": {}
  },
  "userdoc": {
    "methods": {}
  }
}