{
  "contractName": "PredictionMarket",
  "abi": [
    {
      "anonymous": false,
      "inputs": [
        {
          "indexed": false,
          "internalType": "address",
          "name": "_topicAddress",
          "type": "address"
        }
      ],
      "name": "TopicCreated",
      "type": "event"
    },
    {
      "constant": true,
      "inputs": [
        {
          "internalType": "address",
          "name": "",
          "type": "address"
        }
      ],
      "name": "arbitrators",
      "outputs": [
        {
          "internalType": "bytes32",
          "name": "displayName",
          "type": "bytes32"
        },
        {
          "internalType": "uint8",
          "name": "trustworthiness",
          "type": "uint8"
        },
        {
          "internalType": "bool",
          "name": "isValid",
          "type": "bool"
        }
      ],
      "payable": false,
      "stateMutability": "view",
      "type": "function"
    },
    {
      "constant": true,
      "inputs": [
        {
          "internalType": "address",
          "name": "",
          "type": "address"
        }
      ],
      "name": "marketTopics",
      "outputs": [
        {
          "internalType": "contract Topic",
          "name": "",
          "type": "address"
        }
      ],
      "payable": false,
      "stateMutability": "view",
      "type": "function"
    },
    {
      "constant": true,
      "inputs": [
        {
          "internalType": "address",
          "name": "",
          "type": "address"
        }
      ],
      "name": "traders",
      "outputs": [
        {
          "internalType": "uint256",
          "name": "winScore",
          "type": "uint256"
        },
        {
          "internalType": "uint256",
          "name": "loseScore",
          "type": "uint256"
        },
        {
          "internalType": "bool",
          "name": "isValid",
          "type": "bool"
        }
      ],
      "payable": false,
      "stateMutability": "view",
      "type": "function"
    },
    {
      "constant": false,
      "inputs": [],
      "name": "createTrader",
      "outputs": [],
      "payable": false,
      "stateMutability": "nonpayable",
      "type": "function"
    },
    {
      "constant": false,
      "inputs": [
        {
          "internalType": "bytes32",
          "name": "_displayName",
          "type": "bytes32"
        }
      ],
      "name": "createArbitrator",
      "outputs": [],
      "payable": false,
      "stateMutability": "nonpayable",
      "type": "function"
    },
    {
      "constant": true,
      "inputs": [],
      "name": "getAllArbitrators",
      "outputs": [
        {
          "internalType": "address payable[]",
          "name": "",
          "type": "address[]"
        }
      ],
      "payable": false,
      "stateMutability": "view",
      "type": "function"
    },
    {
      "constant": true,
      "inputs": [],
      "name": "getAllArbitratorNames",
      "outputs": [
        {
          "internalType": "bytes32[]",
          "name": "",
          "type": "bytes32[]"
        }
      ],
      "payable": false,
      "stateMutability": "view",
      "type": "function"
    },
    {
      "constant": true,
      "inputs": [],
      "name": "checkIdentity",
      "outputs": [
        {
          "internalType": "bytes32",
          "name": "",
          "type": "bytes32"
        }
      ],
      "payable": false,
      "stateMutability": "view",
      "type": "function"
    },
    {
      "constant": false,
      "inputs": [
        {
          "internalType": "string",
          "name": "name",
          "type": "string"
        },
        {
          "internalType": "string",
          "name": "description",
          "type": "string"
        },
        {
          "internalType": "bytes32[]",
          "name": "options",
          "type": "bytes32[]"
        },
        {
          "internalType": "uint256",
          "name": "expiryDate",
          "type": "uint256"
        },
        {
          "internalType": "address payable[]",
          "name": "selectedArbitrators",
          "type": "address[]"
        }
      ],
      "name": "createTopic",
      "outputs": [],
      "payable": true,
      "stateMutability": "payable",
      "type": "function"
    },
    {
      "constant": true,
      "inputs": [],
      "name": "getAllTopics",
      "outputs": [
        {
          "internalType": "address[]",
          "name": "",
          "type": "address[]"
        }
      ],
      "payable": false,
      "stateMutability": "view",
      "type": "function"
    },
    {
      "constant": false,
      "inputs": [
        {
          "internalType": "address",
          "name": "winnerAddress",
          "type": "address"
        }
      ],
      "name": "updateWinScore",
      "outputs": [],
      "payable": false,
      "stateMutability": "nonpayable",
      "type": "function"
    },
    {
      "constant": true,
      "inputs": [
        {
          "internalType": "address",
          "name": "winnerAddress",
          "type": "address"
        }
      ],
      "name": "getWinScore",
      "outputs": [
        {
          "internalType": "uint256",
          "name": "",
          "type": "uint256"
        }
      ],
      "payable": false,
      "stateMutability": "view",
      "type": "function"
    },
    {
      "constant": false,
      "inputs": [
        {
          "internalType": "address",
          "name": "loserAddress",
          "type": "address"
        }
      ],
      "name": "updateLoseScore",
      "outputs": [],
      "payable": false,
      "stateMutability": "nonpayable",
      "type": "function"
    },
    {
      "constant": true,
      "inputs": [
        {
          "internalType": "address",
          "name": "loserAddress",
          "type": "address"
        }
      ],
      "name": "getLoseScore",
      "outputs": [
        {
          "internalType": "uint256",
          "name": "",
          "type": "uint256"
        }
      ],
      "payable": false,
      "stateMutability": "view",
      "type": "function"
    },
    {
      "constant": true,
      "inputs": [
        {
          "internalType": "address",
          "name": "topicAddress",
          "type": "address"
        }
      ],
      "name": "getCreatorAddress",
      "outputs": [
        {
          "internalType": "address payable",
          "name": "",
          "type": "address"
        }
      ],
      "payable": false,
      "stateMutability": "view",
      "type": "function"
    },
    {
      "constant": true,
      "inputs": [
        {
          "internalType": "address",
          "name": "topicAddress",
          "type": "address"
        }
      ],
      "name": "getName",
      "outputs": [
        {
          "internalType": "string",
          "name": "",
          "type": "string"
        }
      ],
      "payable": false,
      "stateMutability": "view",
      "type": "function"
    },
    {
      "constant": true,
      "inputs": [
        {
          "internalType": "address",
          "name": "topicAddress",
          "type": "address"
        }
      ],
      "name": "getDescription",
      "outputs": [
        {
          "internalType": "string",
          "name": "",
          "type": "string"
        }
      ],
      "payable": false,
      "stateMutability": "view",
      "type": "function"
    },
    {
      "constant": true,
      "inputs": [
        {
          "internalType": "address",
          "name": "topicAddress",
          "type": "address"
        }
      ],
      "name": "getOptions",
      "outputs": [
        {
          "internalType": "bytes32[]",
          "name": "",
          "type": "bytes32[]"
        }
      ],
      "payable": false,
      "stateMutability": "view",
      "type": "function"
    },
    {
      "constant": true,
      "inputs": [
        {
          "internalType": "address",
          "name": "topicAddress",
          "type": "address"
        }
      ],
      "name": "getMarketCap",
      "outputs": [
        {
          "internalType": "uint256",
          "name": "",
          "type": "uint256"
        }
      ],
      "payable": false,
      "stateMutability": "view",
      "type": "function"
    },
    {
      "constant": true,
      "inputs": [
        {
          "internalType": "address",
          "name": "topicAddress",
          "type": "address"
        }
      ],
      "name": "getCreatorBond",
      "outputs": [
        {
          "internalType": "uint256",
          "name": "",
          "type": "uint256"
        }
      ],
      "payable": false,
      "stateMutability": "view",
      "type": "function"
    },
    {
      "constant": true,
      "inputs": [
        {
          "internalType": "address",
          "name": "topicAddress",
          "type": "address"
        }
      ],
      "name": "getExpiryDate",
      "outputs": [
        {
          "internalType": "uint256",
          "name": "",
          "type": "uint256"
        }
      ],
      "payable": false,
      "stateMutability": "view",
      "type": "function"
    },
    {
      "constant": true,
      "inputs": [
        {
          "internalType": "address",
          "name": "topicAddress",
          "type": "address"
        }
      ],
      "name": "getSelectedArbitrators",
      "outputs": [
        {
          "internalType": "address payable[]",
          "name": "",
          "type": "address[]"
        }
      ],
      "payable": false,
      "stateMutability": "view",
      "type": "function"
    },
    {
      "constant": true,
      "inputs": [],
      "name": "getCurrentBalance",
      "outputs": [
        {
          "internalType": "uint256",
          "name": "",
          "type": "uint256"
        }
      ],
      "payable": false,
      "stateMutability": "view",
      "type": "function"
    }
  ],
  "bytecode": "0x608060405234801561001057600080fd5b50614cb1806100206000396000f3fe6080604052600436106200015e5760003560e01c806386416f1411620000c7578063c082c30c1162000079578063c082c30c1462000afc578063c86b21591462000b91578063c9e519e81462000bfa578063cd1e0b6d1462000c6b578063d146d31d1462000cc0578063e7c256b61462000d29576200015e565b806386416f14146200088e57806392a88fa214620008ff5780639ea630ba146200097a578063a574971014620009e3578063b22712681462000a11578063b4b1d9c71462000a2b576200015e565b8063420d3ae81162000121578063420d3ae814620006095780634de1c9e4146200064857806351d0ea3714620006765780635fd4b08a14620006f75780636e193a5914620007c85780636f762d8a146200081d576200015e565b806302d54fbf1462000163578063158f3c1e14620001f85780631aa90abc146200048b5780632c2153ba14620005375780633fd8667b14620005a0575b600080fd5b3480156200017057600080fd5b50620001b6600480360360208110156200018957600080fd5b81019080803573ffffffffffffffffffffffffffffffffffffffff16906020019092919050505062000dd5565b604051808273ffffffffffffffffffffffffffffffffffffffff1673ffffffffffffffffffffffffffffffffffffffff16815260200191505060405180910390f35b62000489600480360360a08110156200021057600080fd5b81019080803590602001906401000000008111156200022e57600080fd5b8201836020820111156200024157600080fd5b803590602001918460018302840111640100000000831117156200026457600080fd5b91908080601f016020809104026020016040519081016040528093929190818152602001838380828437600081840152601f19601f82011690508083019250505050505050919291929080359060200190640100000000811115620002c857600080fd5b820183602082011115620002db57600080fd5b80359060200191846001830284011164010000000083111715620002fe57600080fd5b91908080601f016020809104026020016040519081016040528093929190818152602001838380828437600081840152601f19601f820116905080830192505050505050509192919290803590602001906401000000008111156200036257600080fd5b8201836020820111156200037557600080fd5b803590602001918460208302840111640100000000831117156200039857600080fd5b919080806020026020016040519081016040528093929190818152602001838360200280828437600081840152601f19601f82011690508083019250505050505050919291929080359060200190929190803590602001906401000000008111156200040357600080fd5b8201836020820111156200041657600080fd5b803590602001918460208302840111640100000000831117156200043957600080fd5b919080806020026020016040519081016040528093929190818152602001838360200280828437600081840152601f19601f82011690508083019250505050505050919291929050505062000e08565b005b3480156200049857600080fd5b50620004de60048036036020811015620004b157600080fd5b81019080803573ffffffffffffffffffffffffffffffffffffffff169060200190929190505050620011ae565b6040518080602001828103825283818151815260200191508051906020019060200280838360005b838110156200052357808201518184015260208101905062000506565b505050509050019250505060405180910390f35b3480156200054457600080fd5b506200058a600480360360208110156200055d57600080fd5b81019080803573ffffffffffffffffffffffffffffffffffffffff16906020019092919050505062001339565b6040518082815260200191505060405180910390f35b348015620005ad57600080fd5b50620005f360048036036020811015620005c657600080fd5b81019080803573ffffffffffffffffffffffffffffffffffffffff16906020019092919050505062001389565b6040518082815260200191505060405180910390f35b3480156200061657600080fd5b5062000646600480360360208110156200062f57600080fd5b810190808035906020019092919050505062001475565b005b3480156200065557600080fd5b5062000660620015ee565b6040518082815260200191505060405180910390f35b3480156200068357600080fd5b50620006c9600480360360208110156200069c57600080fd5b81019080803573ffffffffffffffffffffffffffffffffffffffff16906020019092919050505062001714565b604051808481526020018360ff1660ff16815260200182151515158152602001935050505060405180910390f35b3480156200070457600080fd5b506200074a600480360360208110156200071d57600080fd5b81019080803573ffffffffffffffffffffffffffffffffffffffff16906020019092919050505062001758565b6040518080602001828103825283818151815260200191508051906020019080838360005b838110156200078c5780820151818401526020810190506200076f565b50505050905090810190601f168015620007ba5780820380516001836020036101000a031916815260200191505b509250505060405180910390f35b348015620007d557600080fd5b506200081b60048036036020811015620007ee57600080fd5b81019080803573ffffffffffffffffffffffffffffffffffffffff16906020019092919050505062001908565b005b3480156200082a57600080fd5b50620008356200195b565b6040518080602001828103825283818151815260200191508051906020019060200280838360005b838110156200087a5780820151818401526020810190506200085d565b505050509050019250505060405180910390f35b3480156200089b57600080fd5b50620008a662001ab7565b6040518080602001828103825283818151815260200191508051906020019060200280838360005b83811015620008eb578082015181840152602081019050620008ce565b505050509050019250505060405180910390f35b3480156200090c57600080fd5b5062000952600480360360208110156200092557600080fd5b81019080803573ffffffffffffffffffffffffffffffffffffffff16906020019092919050505062001b47565b6040518084815260200183815260200182151515158152602001935050505060405180910390f35b3480156200098757600080fd5b50620009cd60048036036020811015620009a057600080fd5b81019080803573ffffffffffffffffffffffffffffffffffffffff16906020019092919050505062001b7e565b6040518082815260200191505060405180910390f35b348015620009f057600080fd5b50620009fb62001bce565b6040518082815260200191505060405180910390f35b34801562000a1e57600080fd5b5062000a2962001bd6565b005b34801562000a3857600080fd5b5062000a7e6004803603602081101562000a5157600080fd5b81019080803573ffffffffffffffffffffffffffffffffffffffff16906020019092919050505062001ccd565b6040518080602001828103825283818151815260200191508051906020019080838360005b8381101562000ac057808201518184015260208101905062000aa3565b50505050905090810190601f16801562000aee5780820380516001836020036101000a031916815260200191505b509250505060405180910390f35b34801562000b0957600080fd5b5062000b4f6004803603602081101562000b2257600080fd5b81019080803573ffffffffffffffffffffffffffffffffffffffff16906020019092919050505062001e7d565b604051808273ffffffffffffffffffffffffffffffffffffffff1673ffffffffffffffffffffffffffffffffffffffff16815260200191505060405180910390f35b34801562000b9e57600080fd5b5062000be46004803603602081101562000bb757600080fd5b81019080803573ffffffffffffffffffffffffffffffffffffffff16906020019092919050505062001f69565b6040518082815260200191505060405180910390f35b34801562000c0757600080fd5b5062000c1262002055565b6040518080602001828103825283818151815260200191508051906020019060200280838360005b8381101562000c5757808201518184015260208101905062000c3a565b505050509050019250505060405180910390f35b34801562000c7857600080fd5b5062000cbe6004803603602081101562000c9157600080fd5b81019080803573ffffffffffffffffffffffffffffffffffffffff169060200190929190505050620020e5565b005b34801562000ccd57600080fd5b5062000d136004803603602081101562000ce657600080fd5b81019080803573ffffffffffffffffffffffffffffffffffffffff16906020019092919050505062002138565b6040518082815260200191505060405180910390f35b34801562000d3657600080fd5b5062000d7c6004803603602081101562000d4f57600080fd5b81019080803573ffffffffffffffffffffffffffffffffffffffff16906020019092919050505062002224565b6040518080602001828103825283818151815260200191508051906020019060200280838360005b8381101562000dc157808201518184015260208101905062000da4565b505050509050019250505060405180910390f35b60026020528060005260406000206000915054906101000a900473ffffffffffffffffffffffffffffffffffffffff1681565b60003390506000341162000e1b57600080fd5b62000e278183620023af565b62000e3157600080fd5b60003490506000828888888589893060405162000e4e9062002495565b808973ffffffffffffffffffffffffffffffffffffffff1673ffffffffffffffffffffffffffffffffffffffff168152602001806020018060200180602001888152602001878152602001806020018673ffffffffffffffffffffffffffffffffffffffff1673ffffffffffffffffffffffffffffffffffffffff16815260200185810385528c818151815260200191508051906020019080838360005b8381101562000f0957808201518184015260208101905062000eec565b50505050905090810190601f16801562000f375780820380516001836020036101000a031916815260200191505b5085810384528b818151815260200191508051906020019080838360005b8381101562000f7257808201518184015260208101905062000f55565b50505050905090810190601f16801562000fa05780820380516001836020036101000a031916815260200191505b5085810383528a818151815260200191508051906020019060200280838360005b8381101562000fde57808201518184015260208101905062000fc1565b50505050905001858103825287818151815260200191508051906020019060200280838360005b838110156200102257808201518184015260208101905062001005565b505050509050019c50505050505050505050505050604051809103906000f08015801562001054573d6000803e3d6000fd5b509050600081905081600260008373ffffffffffffffffffffffffffffffffffffffff1673ffffffffffffffffffffffffffffffffffffffff16815260200190815260200160002060006101000a81548173ffffffffffffffffffffffffffffffffffffffff021916908373ffffffffffffffffffffffffffffffffffffffff16021790555060038190806001815401808255809150509060018203906000526020600020016000909192909190916101000a81548173ffffffffffffffffffffffffffffffffffffffff021916908373ffffffffffffffffffffffffffffffffffffffff160217905550507f3c1b2955a570d7b24867f47b5827c8c97e344bed881c4519bad1dd91656279da81604051808273ffffffffffffffffffffffffffffffffffffffff1673ffffffffffffffffffffffffffffffffffffffff16815260200191505060405180910390a1505050505050505050565b6060600260008373ffffffffffffffffffffffffffffffffffffffff1673ffffffffffffffffffffffffffffffffffffffff16815260200190815260200160002060009054906101000a900473ffffffffffffffffffffffffffffffffffffffff1673ffffffffffffffffffffffffffffffffffffffff1663894c3b1f6040518163ffffffff1660e01b815260040160006040518083038186803b1580156200125657600080fd5b505afa1580156200126b573d6000803e3d6000fd5b505050506040513d6000823e3d601f19601f8201168201806040525060208110156200129657600080fd5b8101908080516040519392919084640100000000821115620012b757600080fd5b83820191506020820185811115620012ce57600080fd5b8251866020820283011164010000000082111715620012ec57600080fd5b8083526020830192505050908051906020019060200280838360005b838110156200132557808201518184015260208101905062001308565b505050509050016040525050509050919050565b6000806000808473ffffffffffffffffffffffffffffffffffffffff1673ffffffffffffffffffffffffffffffffffffffff16815260200190815260200160002090508060010154915050919050565b6000600260008373ffffffffffffffffffffffffffffffffffffffff1673ffffffffffffffffffffffffffffffffffffffff16815260200190815260200160002060009054906101000a900473ffffffffffffffffffffffffffffffffffffffff1673ffffffffffffffffffffffffffffffffffffffff1663459d6e4f6040518163ffffffff1660e01b815260040160206040518083038186803b1580156200143157600080fd5b505afa15801562001446573d6000803e3d6000fd5b505050506040513d60208110156200145d57600080fd5b81019080805190602001909291905050509050919050565b6000339050600160008273ffffffffffffffffffffffffffffffffffffffff1673ffffffffffffffffffffffffffffffffffffffff16815260200190815260200160002060010160019054906101000a900460ff1615620014d557600080fd5b6040518060600160405280838152602001603260ff16815260200160011515815250600160008373ffffffffffffffffffffffffffffffffffffffff1673ffffffffffffffffffffffffffffffffffffffff1681526020019081526020016000206000820151816000015560208201518160010160006101000a81548160ff021916908360ff16021790555060408201518160010160016101000a81548160ff02191690831515021790555090505060048190806001815401808255809150509060018203906000526020600020016000909192909190916101000a81548173ffffffffffffffffffffffffffffffffffffffff021916908373ffffffffffffffffffffffffffffffffffffffff160217905550505050565b60008060003373ffffffffffffffffffffffffffffffffffffffff1673ffffffffffffffffffffffffffffffffffffffff16815260200190815260200160002060020160009054906101000a900460ff16156200166e577f5472616465720000000000000000000000000000000000000000000000000000905062001711565b600160003373ffffffffffffffffffffffffffffffffffffffff1673ffffffffffffffffffffffffffffffffffffffff16815260200190815260200160002060010160019054906101000a900460ff1615620016ed577f41726269747261746f7200000000000000000000000000000000000000000000905062001711565b7f496e76616c69640000000000000000000000000000000000000000000000000090505b90565b60016020528060005260406000206000915090508060000154908060010160009054906101000a900460ff16908060010160019054906101000a900460ff16905083565b6060600260008373ffffffffffffffffffffffffffffffffffffffff1673ffffffffffffffffffffffffffffffffffffffff16815260200190815260200160002060009054906101000a900473ffffffffffffffffffffffffffffffffffffffff1673ffffffffffffffffffffffffffffffffffffffff166306fdde036040518163ffffffff1660e01b815260040160006040518083038186803b1580156200180057600080fd5b505afa15801562001815573d6000803e3d6000fd5b505050506040513d6000823e3d601f19601f8201168201806040525060208110156200184057600080fd5b81019080805160405193929190846401000000008211156200186157600080fd5b838201915060208201858111156200187857600080fd5b82518660018202830111640100000000821117156200189657600080fd5b8083526020830192505050908051906020019080838360005b83811015620018cc578082015181840152602081019050620018af565b50505050905090810190601f168015620018fa5780820380516001836020036101000a031916815260200191505b506040525050509050919050565b60016000808373ffffffffffffffffffffffffffffffffffffffff1673ffffffffffffffffffffffffffffffffffffffff1681526020019081526020016000206000016000828254019250508190555050565b606060006004805490509050606081604051908082528060200260200182016040528015620019995781602001602082028038833980820191505090505b50905060008090505b8281101562001aae57600060048281548110620019bb57fe5b9060005260206000200160009054906101000a900473ffffffffffffffffffffffffffffffffffffffff169050620019f2620024a3565b600160008373ffffffffffffffffffffffffffffffffffffffff1673ffffffffffffffffffffffffffffffffffffffff168152602001908152602001600020604051806060016040529081600082015481526020016001820160009054906101000a900460ff1660ff1660ff1681526020016001820160019054906101000a900460ff1615151515815250509050806000015184848151811062001a9257fe5b60200260200101818152505050508080600101915050620019a2565b50809250505090565b6060600380548060200260200160405190810160405280929190818152602001828054801562001b3d57602002820191906000526020600020905b8160009054906101000a900473ffffffffffffffffffffffffffffffffffffffff1673ffffffffffffffffffffffffffffffffffffffff168152602001906001019080831162001af2575b5050505050905090565b60006020528060005260406000206000915090508060000154908060010154908060020160009054906101000a900460ff16905083565b6000806000808473ffffffffffffffffffffffffffffffffffffffff1673ffffffffffffffffffffffffffffffffffffffff16815260200190815260200160002090508060000154915050919050565b600047905090565b60003390506000808273ffffffffffffffffffffffffffffffffffffffff1673ffffffffffffffffffffffffffffffffffffffff16815260200190815260200160002060020160009054906101000a900460ff161562001c3557600080fd5b60405180606001604052806064815260200160648152602001600115158152506000808373ffffffffffffffffffffffffffffffffffffffff1673ffffffffffffffffffffffffffffffffffffffff168152602001908152602001600020600082015181600001556020820151816001015560408201518160020160006101000a81548160ff02191690831515021790555090505050565b6060600260008373ffffffffffffffffffffffffffffffffffffffff1673ffffffffffffffffffffffffffffffffffffffff16815260200190815260200160002060009054906101000a900473ffffffffffffffffffffffffffffffffffffffff1673ffffffffffffffffffffffffffffffffffffffff16637284e4166040518163ffffffff1660e01b815260040160006040518083038186803b15801562001d7557600080fd5b505afa15801562001d8a573d6000803e3d6000fd5b505050506040513d6000823e3d601f19601f82011682018060405250602081101562001db557600080fd5b810190808051604051939291908464010000000082111562001dd657600080fd5b8382019150602082018581111562001ded57600080fd5b825186600182028301116401000000008211171562001e0b57600080fd5b8083526020830192505050908051906020019080838360005b8381101562001e4157808201518184015260208101905062001e24565b50505050905090810190601f16801562001e6f5780820380516001836020036101000a031916815260200191505b506040525050509050919050565b6000600260008373ffffffffffffffffffffffffffffffffffffffff1673ffffffffffffffffffffffffffffffffffffffff16815260200190815260200160002060009054906101000a900473ffffffffffffffffffffffffffffffffffffffff1673ffffffffffffffffffffffffffffffffffffffff1663fbcc1e716040518163ffffffff1660e01b815260040160206040518083038186803b15801562001f2557600080fd5b505afa15801562001f3a573d6000803e3d6000fd5b505050506040513d602081101562001f5157600080fd5b81019080805190602001909291905050509050919050565b6000600260008373ffffffffffffffffffffffffffffffffffffffff1673ffffffffffffffffffffffffffffffffffffffff16815260200190815260200160002060009054906101000a900473ffffffffffffffffffffffffffffffffffffffff1673ffffffffffffffffffffffffffffffffffffffff1663516dde436040518163ffffffff1660e01b815260040160206040518083038186803b1580156200201157600080fd5b505afa15801562002026573d6000803e3d6000fd5b505050506040513d60208110156200203d57600080fd5b81019080805190602001909291905050509050919050565b60606004805480602002602001604051908101604052809291908181526020018280548015620020db57602002820191906000526020600020905b8160009054906101000a900473ffffffffffffffffffffffffffffffffffffffff1673ffffffffffffffffffffffffffffffffffffffff168152602001906001019080831162002090575b5050505050905090565b60016000808373ffffffffffffffffffffffffffffffffffffffff1673ffffffffffffffffffffffffffffffffffffffff1681526020019081526020016000206001016000828254019250508190555050565b6000600260008373ffffffffffffffffffffffffffffffffffffffff1673ffffffffffffffffffffffffffffffffffffffff16815260200190815260200160002060009054906101000a900473ffffffffffffffffffffffffffffffffffffffff1673ffffffffffffffffffffffffffffffffffffffff16632c135b936040518163ffffffff1660e01b815260040160206040518083038186803b158015620021e057600080fd5b505afa158015620021f5573d6000803e3d6000fd5b505050506040513d60208110156200220c57600080fd5b81019080805190602001909291905050509050919050565b6060600260008373ffffffffffffffffffffffffffffffffffffffff1673ffffffffffffffffffffffffffffffffffffffff16815260200190815260200160002060009054906101000a900473ffffffffffffffffffffffffffffffffffffffff1673ffffffffffffffffffffffffffffffffffffffff1663cc2ee1966040518163ffffffff1660e01b815260040160006040518083038186803b158015620022cc57600080fd5b505afa158015620022e1573d6000803e3d6000fd5b505050506040513d6000823e3d601f19601f8201168201806040525060208110156200230c57600080fd5b81019080805160405193929190846401000000008211156200232d57600080fd5b838201915060208201858111156200234457600080fd5b82518660208202830111640100000000821117156200236257600080fd5b8083526020830192505050908051906020019060200280838360005b838110156200239b5780820151818401526020810190506200237e565b505050509050016040525050509050919050565b6000808251905060008090505b8181101562002488576000848281518110620023d457fe5b60200260200101519050600160008273ffffffffffffffffffffffffffffffffffffffff1673ffffffffffffffffffffffffffffffffffffffff16815260200190815260200160002060010160019054906101000a900460ff1615806200246657508073ffffffffffffffffffffffffffffffffffffffff168673ffffffffffffffffffffffffffffffffffffffff16145b156200247957600093505050506200248f565b508080600101915050620023bc565b5060019150505b92915050565b6127b080620024cd83390190565b604051806060016040528060008019168152602001600060ff168152602001600015158152509056fe60806040526000601c60006101000a81548160ff021916908360038111156200002457fe5b0217905550604051620027b0380380620027b083398181016040526101008110156200004f57600080fd5b8101908080519060200190929190805160405193929190846401000000008211156200007a57600080fd5b838201915060208201858111156200009157600080fd5b8251866001820283011164010000000082111715620000af57600080fd5b8083526020830192505050908051906020019080838360005b83811015620000e5578082015181840152602081019050620000c8565b50505050905090810190601f168015620001135780820380516001836020036101000a031916815260200191505b50604052602001805160405193929190846401000000008211156200013757600080fd5b838201915060208201858111156200014e57600080fd5b82518660018202830111640100000000821117156200016c57600080fd5b8083526020830192505050908051906020019080838360005b83811015620001a257808201518184015260208101905062000185565b50505050905090810190601f168015620001d05780820380516001836020036101000a031916815260200191505b5060405260200180516040519392919084640100000000821115620001f457600080fd5b838201915060208201858111156200020b57600080fd5b82518660208202830111640100000000821117156200022957600080fd5b8083526020830192505050908051906020019060200280838360005b838110156200026257808201518184015260208101905062000245565b50505050905001604052602001805190602001909291908051906020019092919080516040519392919084640100000000821115620002a057600080fd5b83820191506020820185811115620002b757600080fd5b8251866020820283011164010000000082111715620002d557600080fd5b8083526020830192505050908051906020019060200280838360005b838110156200030e578082015181840152602081019050620002f1565b505050509050016040526020018051906020019092919050505080600960006101000a81548173ffffffffffffffffffffffffffffffffffffffff021916908373ffffffffffffffffffffffffffffffffffffffff160217905550876000806101000a81548173ffffffffffffffffffffffffffffffffffffffff021916908373ffffffffffffffffffffffffffffffffffffffff1602179055508660019080519060200190620003c19291906200058c565b508560029080519060200190620003da9291906200058c565b508460039080519060200190620003f392919062000613565b506000600481905550836005819055508260068190555081600790805190602001906200042292919062000665565b506017600960146101000a81548161ffff021916908361ffff16021790555060008090505b8551811015620004f257604051806040016040528060008152602001600073ffffffffffffffffffffffffffffffffffffffff16815250600c82600481106200048c57fe5b600202016000820151816000015560208201518160010160006101000a81548173ffffffffffffffffffffffffffffffffffffffff021916908373ffffffffffffffffffffffffffffffffffffffff160217905550905050808060010191505062000447565b5060008090505b82518110156200057d576001600a60008584815181106200051657fe5b602002602001015173ffffffffffffffffffffffffffffffffffffffff1673ffffffffffffffffffffffffffffffffffffffff16815260200190815260200160002060006101000a81548160ff0219169083151502179055508080600101915050620004f9565b5050505050505050506200078a565b828054600181600116156101000203166002900490600052602060002090601f016020900481019282601f10620005cf57805160ff191683800117855562000600565b8280016001018555821562000600579182015b82811115620005ff578251825591602001919060010190620005e2565b5b5090506200060f9190620006f4565b5090565b82805482825590600052602060002090810192821562000652579160200282015b828111156200065157825182559160200191906001019062000634565b5b5090506200066191906200071c565b5090565b828054828255906000526020600020908101928215620006e1579160200282015b82811115620006e05782518260006101000a81548173ffffffffffffffffffffffffffffffffffffffff021916908373ffffffffffffffffffffffffffffffffffffffff1602179055509160200191906001019062000686565b5b509050620006f0919062000744565b5090565b6200071991905b8082111562000715576000816000905550600101620006fb565b5090565b90565b6200074191905b808211156200073d57600081600090555060010162000723565b5090565b90565b6200078791905b808211156200078357600081816101000a81549073ffffffffffffffffffffffffffffffffffffffff0219169055506001016200074b565b5090565b90565b612016806200079a6000396000f3fe6080604052600436106101b75760003560e01c80636f0f9f5e116100ec578063a6430cc01161008a578063cc7e621011610064578063cc7e62101461095f578063d3901fb5146109ae578063f462f8af146109dd578063fbcc1e7114610a21576101b7565b8063a6430cc014610861578063a8323176146108dc578063cc2ee196146108f3576101b7565b8063729ecb07116100c6578063729ecb07146106f757806376bb984b14610772578063894c3b1f1461078957806395e56a84146107f5576101b7565b80636f0f9f5e14610606578063722713f71461063c5780637284e41614610667576101b7565b8063409e2205116101595780634852aa6d116101335780634852aa6d146104965780634bc263b91461051b578063509bd3371461058b578063516dde43146105db576101b7565b8063409e2205146103b0578063459d6e4f146103ff578063465be85f1461042a576101b7565b8063288fa80211610195578063288fa8021461029e5780632c135b931461030a5780632d9781631461033557806338a481de1461036e576101b7565b806306fdde03146101bc578063217a01c91461024c5780632810e1d614610287575b600080fd5b3480156101c857600080fd5b506101d1610a78565b6040518080602001828103825283818151815260200191508051906020019080838360005b838110156102115780820151818401526020810190506101f6565b50505050905090810190601f16801561023e5780820380516001836020036101000a031916815260200191505b509250505060405180910390f35b34801561025857600080fd5b506102856004803603602081101561026f57600080fd5b8101908080359060200190929190505050610b16565b005b34801561029357600080fd5b5061029c610ca8565b005b3480156102aa57600080fd5b506102b3610cd0565b6040518080602001828103825283818151815260200191508051906020019060200280838360005b838110156102f65780820151818401526020810190506102db565b505050509050019250505060405180910390f35b34801561031657600080fd5b5061031f610d60565b6040518082815260200191505060405180910390f35b34801561034157600080fd5b5061034a610d66565b6040518082600381111561035a57fe5b60ff16815260200191505060405180910390f35b61039a6004803603602081101561038457600080fd5b8101908080359060200190929190505050610d79565b6040518082815260200191505060405180910390f35b3480156103bc57600080fd5b506103e9600480360360208110156103d357600080fd5b8101908080359060200190929190505050610eed565b6040518082815260200191505060405180910390f35b34801561040b57600080fd5b50610414610f0e565b6040518082815260200191505060405180910390f35b34801561043657600080fd5b5061043f610f14565b6040518080602001828103825283818151815260200191508051906020019060200280838360005b83811015610482578082015181840152602081019050610467565b505050509050019250505060405180910390f35b3480156104a257600080fd5b506104d9600480360360408110156104b957600080fd5b810190808035906020019092919080359060200190929190505050610fa2565b604051808273ffffffffffffffffffffffffffffffffffffffff1673ffffffffffffffffffffffffffffffffffffffff16815260200191505060405180910390f35b34801561052757600080fd5b5061056a6004803603602081101561053e57600080fd5b81019080803573ffffffffffffffffffffffffffffffffffffffff169060200190929190505050610fed565b60405180831515151581526020018281526020019250505060405180910390f35b6105c1600480360360408110156105a157600080fd5b81019080803590602001909291908035906020019092919050505061101e565b604051808215151515815260200191505060405180910390f35b3480156105e757600080fd5b506105f06113dd565b6040518082815260200191505060405180910390f35b34801561061257600080fd5b5061061b6113e3565b60405180831515151581526020018281526020019250505060405180910390f35b34801561064857600080fd5b50610651611475565b6040518082815260200191505060405180910390f35b34801561067357600080fd5b5061067c61147d565b6040518080602001828103825283818151815260200191508051906020019080838360005b838110156106bc5780820151818401526020810190506106a1565b50505050905090810190601f1680156106e95780820380516001836020036101000a031916815260200191505b509250505060405180910390f35b34801561070357600080fd5b506107306004803603602081101561071a57600080fd5b810190808035906020019092919050505061151b565b604051808273ffffffffffffffffffffffffffffffffffffffff1673ffffffffffffffffffffffffffffffffffffffff16815260200191505060405180910390f35b34801561077e57600080fd5b50610787611557565b005b34801561079557600080fd5b5061079e611b01565b6040518080602001828103825283818151815260200191508051906020019060200280838360005b838110156107e15780820151818401526020810190506107c6565b505050509050019250505060405180910390f35b34801561080157600080fd5b5061080a611b8f565b6040518080602001828103825283818151815260200191508051906020019060200280838360005b8381101561084d578082015181840152602081019050610832565b505050509050019250505060405180910390f35b34801561086d57600080fd5b5061089a6004803603602081101561088457600080fd5b8101908080359060200190929190505050611c19565b604051808273ffffffffffffffffffffffffffffffffffffffff1673ffffffffffffffffffffffffffffffffffffffff16815260200191505060405180910390f35b3480156108e857600080fd5b506108f1611c55565b005b3480156108ff57600080fd5b50610908611c83565b6040518080602001828103825283818151815260200191508051906020019060200280838360005b8381101561094b578082015181840152602081019050610930565b505050509050019250505060405180910390f35b34801561096b57600080fd5b506109986004803603602081101561098257600080fd5b8101908080359060200190929190505050611cdb565b6040518082815260200191505060405180910390f35b3480156109ba57600080fd5b506109c3611cf3565b604051808215151515815260200191505060405180910390f35b610a1f600480360360208110156109f357600080fd5b81019080803573ffffffffffffffffffffffffffffffffffffffff169060200190929190505050611d93565b005b348015610a2d57600080fd5b50610a36611de5565b604051808273ffffffffffffffffffffffffffffffffffffffff1673ffffffffffffffffffffffffffffffffffffffff16815260200191505060405180910390f35b60018054600181600116156101000203166002900480601f016020809104026020016040519081016040528092919081815260200182805460018160011615610100020316600290048015610b0e5780601f10610ae357610100808354040283529160200191610b0e565b820191906000526020600020905b815481529060010190602001808311610af157829003601f168201915b505050505081565b60001515601960003373ffffffffffffffffffffffffffffffffffffffff1673ffffffffffffffffffffffffffffffffffffffff16815260200190815260200160002060000160009054906101000a900460ff16151514610b7657600080fd5b610b7e611cf3565b610b8757600080fd5b604051806040016040528060011515815260200182815250601960003373ffffffffffffffffffffffffffffffffffffffff1673ffffffffffffffffffffffffffffffffffffffff16815260200190815260200160002060008201518160000160006101000a81548160ff02191690831515021790555060208201518160010155905050601a60008281526020019081526020016000203390806001815401808255809150509060018203906000526020600020016000909192909190916101000a81548173ffffffffffffffffffffffffffffffffffffffff021916908373ffffffffffffffffffffffffffffffffffffffff16021790555050601b60008281526020019081526020016000206000815480929190600101919050555050565b600080610cb36113e3565b9150915081610ccb57610cc581610d79565b50610ccc565b5b5050565b6060600060049050606081604051908082528060200260200182016040528015610d095781602001602082028038833980820191505090505b50905060008090505b82811015610d5757600c8160048110610d2757fe5b600202016000015460001b828281518110610d3e57fe5b6020026020010181815250508080600101915050610d12565b50809250505090565b60045481565b601c60009054906101000a900460ff1681565b600080600960009054906101000a900473ffffffffffffffffffffffffffffffffffffffff169050600080905060008090505b601880549050811015610ee25760008090505b60188281548110610dcc57fe5b9060005260206000209050506004811015610ed457600073ffffffffffffffffffffffffffffffffffffffff1660188381548110610e0657fe5b90600052602060002090600402016000018260048110610e2257fe5b0160009054906101000a900473ffffffffffffffffffffffffffffffffffffffff1673ffffffffffffffffffffffffffffffffffffffff1614610ec757600a8301925085811415610ec557610ec060188381548110610e7d57fe5b90600052602060002090600402016000018260048110610e9957fe5b0160009054906101000a900473ffffffffffffffffffffffffffffffffffffffff16611d93565b610ec6565b5b5b8080600101915050610dbf565b508080600101915050610dac565b508092505050919050565b60038181548110610efa57fe5b906000526020600020016000915090505481565b60055481565b60606008805480602002602001604051908101604052809291908181526020018280548015610f9857602002820191906000526020600020905b8160009054906101000a900473ffffffffffffffffffffffffffffffffffffffff1673ffffffffffffffffffffffffffffffffffffffff1681526020019060010190808311610f4e575b5050505050905090565b601a6020528160005260406000208181548110610fbb57fe5b906000526020600020016000915091509054906101000a900473ffffffffffffffffffffffffffffffffffffffff1681565b60196020528060005260406000206000915090508060000160009054906101000a900460ff16908060010154905082565b600082600c836004811061102e57fe5b60020201600001541061104057600080fd5b600c826004811061104d57fe5b6002020160010160009054906101000a900473ffffffffffffffffffffffffffffffffffffffff1673ffffffffffffffffffffffffffffffffffffffff166108fc600c846004811061109b57fe5b60020201600001549081150290604051600060405180830381858888f193505050501580156110ce573d6000803e3d6000fd5b506000670de0b6b3a764000090506110e4611e0a565b60008090505b60048110156111995784811461118c57600c816004811061110757fe5b600202016000015483039250600c816004811061112057fe5b6002020160010160009054906101000a900473ffffffffffffffffffffffffffffffffffffffff1682826004811061115457fe5b602002019073ffffffffffffffffffffffffffffffffffffffff16908173ffffffffffffffffffffffffffffffffffffffff16815250505b80806001019150506110ea565b5084821161133857338185600481106111ae57fe5b602002019073ffffffffffffffffffffffffffffffffffffffff16908173ffffffffffffffffffffffffffffffffffffffff16815250506111ed611e2c565b604051806020016040528083815250905060188190806001815401808255809150509060018203906000526020600020906004020160009091929091909150600082015181600001906004611243929190611e45565b5050505060008090505b60048110156112ab578581141561127657836014826004811061126c57fe5b018190555061129e565b600c816004811061128357fe5b60020201600001546014826004811061129857fe5b01819055505b808060010191505061124d565b503373ffffffffffffffffffffffffffffffffffffffff166108fc8488039081150290604051600060405180830381858888f193505050501580156112f4573d6000803e3d6000fd5b5060008090505b600481101561132b576000600c826004811061131357fe5b600202016000018190555080806001019150506112fb565b50600193505050506113d7565b611340611ec2565b60405180604001604052808781526020013373ffffffffffffffffffffffffffffffffffffffff16815250905080600c866004811061137b57fe5b600202016000820151816000015560208201518160010160006101000a81548173ffffffffffffffffffffffffffffffffffffffff021916908373ffffffffffffffffffffffffffffffffffffffff1602179055509050505050505b92915050565b60065481565b60008060008090506000806000905060008090505b600380549050811015611467576000601b60006003848154811061141857fe5b906000526020600020015481526020019081526020016000205490508481111561144b5780945060009250819350611459565b8481141561145857600192505b5b5080806001019150506113f8565b508082945094505050509091565b600047905090565b60028054600181600116156101000203166002900480601f0160208091040260200160405190810160405280929190818152602001828054600181600116156101000203166002900480156115135780601f106114e857610100808354040283529160200191611513565b820191906000526020600020905b8154815290600101906020018083116114f657829003601f168201915b505050505081565b6008818154811061152857fe5b906000526020600020016000915054906101000a900473ffffffffffffffffffffffffffffffffffffffff1681565b6000600960009054906101000a900473ffffffffffffffffffffffffffffffffffffffff16905060608173ffffffffffffffffffffffffffffffffffffffff1663c9e519e86040518163ffffffff1660e01b815260040160006040518083038186803b1580156115c657600080fd5b505afa1580156115da573d6000803e3d6000fd5b505050506040513d6000823e3d601f19601f82011682018060405250602081101561160457600080fd5b810190808051604051939291908464010000000082111561162457600080fd5b8382019150602082018581111561163a57600080fd5b825186602082028301116401000000008211171561165757600080fd5b8083526020830192505050908051906020019060200280838360005b8381101561168e578082015181840152602081019050611673565b5050505090500160405250505090506060600a8251026040519080825280602002602001820160405280156116d25781602001602082028038833980820191505090505b509050600080905060008090505b83518110156118bf5760008482815181106116f757fe5b60200260200101519050600a60008273ffffffffffffffffffffffffffffffffffffffff1673ffffffffffffffffffffffffffffffffffffffff16815260200190815260200160002060009054906101000a900460ff161561175957506118b2565b60008673ffffffffffffffffffffffffffffffffffffffff166351d0ea37836040518263ffffffff1660e01b8152600401808273ffffffffffffffffffffffffffffffffffffffff1673ffffffffffffffffffffffffffffffffffffffff16815260200191505060606040518083038186803b1580156117d857600080fd5b505afa1580156117ec573d6000803e3d6000fd5b505050506040513d606081101561180257600080fd5b81019080805190602001909291908051906020019092919080519060200190929190505050509150506000600a60ff168260ff168161183d57fe5b04905060008090505b8160ff168110156118ad578387878151811061185e57fe5b602002602001019073ffffffffffffffffffffffffffffffffffffffff16908173ffffffffffffffffffffffffffffffffffffffff168152505085806001019650508080600101915050611846565b505050505b80806001019150506116e0565b50606060056040519080825280602002602001820160405280156118f25781602001602082028038833980820191505090505b50905060008090505b6005811015611ae2576000834233600960149054906101000a900461ffff16604051602001808481526020018373ffffffffffffffffffffffffffffffffffffffff1673ffffffffffffffffffffffffffffffffffffffff1660601b81526014018261ffff1661ffff1660f01b815260020193505050506040516020818303038152906040528051906020012060001c8161199257fe5b0690506009601481819054906101000a900461ffff168092919060010191906101000a81548161ffff021916908361ffff1602179055505060008582815181106119d857fe5b60200260200101519050600b60008273ffffffffffffffffffffffffffffffffffffffff1673ffffffffffffffffffffffffffffffffffffffff16815260200190815260200160002060009054906101000a900460ff16611adb576001600b60008373ffffffffffffffffffffffffffffffffffffffff1673ffffffffffffffffffffffffffffffffffffffff16815260200190815260200160002060006101000a81548160ff02191690831515021790555080848481518110611a9857fe5b602002602001019073ffffffffffffffffffffffffffffffffffffffff16908173ffffffffffffffffffffffffffffffffffffffff168152505082806001019350505b50506118fb565b8160089080519060200190611af8929190611ef2565b50505050505050565b60606007805480602002602001604051908101604052809291908181526020018280548015611b8557602002820191906000526020600020905b8160009054906101000a900473ffffffffffffffffffffffffffffffffffffffff1673ffffffffffffffffffffffffffffffffffffffff1681526020019060010190808311611b3b575b5050505050905090565b6060600060049050606081604051908082528060200260200182016040528015611bc85781602001602082028038833980820191505090505b50905060008090505b82811015611c105760148160048110611be657fe5b015460001b828281518110611bf757fe5b6020026020010181815250508080600101915050611bd1565b50809250505090565b60078181548110611c2657fe5b906000526020600020016000915054906101000a900473ffffffffffffffffffffffffffffffffffffffff1681565b6002601c60006101000a81548160ff02191690836003811115611c7457fe5b0217905550611c81611557565b565b60606003805480602002602001604051908101604052809291908181526020018280548015611cd157602002820191906000526020600020905b815481526020019060010190808311611cbd575b5050505050905090565b601b6020528060005260406000206000915090505481565b600080600090505b600780549050811015611d8a573373ffffffffffffffffffffffffffffffffffffffff1660078281548110611d2c57fe5b9060005260206000200160009054906101000a900473ffffffffffffffffffffffffffffffffffffffff1673ffffffffffffffffffffffffffffffffffffffff161415611d7d576001915050611d90565b8080600101915050611cfb565b50600090505b90565b8073ffffffffffffffffffffffffffffffffffffffff166108fc670d99a8cec7e200009081150290604051600060405180830381858888f19350505050158015611de1573d6000803e3d6000fd5b5050565b6000809054906101000a900473ffffffffffffffffffffffffffffffffffffffff1681565b6040518060800160405280600490602082028038833980820191505090505090565b6040518060200160405280611e3f611f7c565b81525090565b8260048101928215611eb1579160200282015b82811115611eb05782518260006101000a81548173ffffffffffffffffffffffffffffffffffffffff021916908373ffffffffffffffffffffffffffffffffffffffff16021790555091602001919060010190611e58565b5b509050611ebe9190611f9e565b5090565b604051806040016040528060008152602001600073ffffffffffffffffffffffffffffffffffffffff1681525090565b828054828255906000526020600020908101928215611f6b579160200282015b82811115611f6a5782518260006101000a81548173ffffffffffffffffffffffffffffffffffffffff021916908373ffffffffffffffffffffffffffffffffffffffff16021790555091602001919060010190611f12565b5b509050611f789190611f9e565b5090565b6040518060800160405280600490602082028038833980820191505090505090565b611fde91905b80821115611fda57600081816101000a81549073ffffffffffffffffffffffffffffffffffffffff021916905550600101611fa4565b5090565b9056fea265627a7a7231582015f6f5e4bb4169d80884a896a9e7ae5732354392360e93d1b5a3d8662b351e4a64736f6c63430005100032a265627a7a7231582054e719307f2214e41b8b73e3b6d0883275757d635a610ec9ad8fcf3459bfe5b964736f6c63430005100032",
  "source": "// SPDX-License-Identifier: MIT\npragma solidity >=0.4.21 <=0.7.0;\nimport \"./Topic.sol\";\n\ncontract PredictionMarket {\n    // Structs for users and arbitrators. Default scores = 100\n    struct Trader {\n        uint winScore;\n        uint loseScore;\n        bool isValid; \n    }\n\n    struct Arbitrator {\n        bytes32 displayName;\n        uint8 trustworthiness;\n        bool isValid;\n    }\n\n    // Maps of addresses to different entities\n    mapping (address => Trader) public traders;\n    mapping (address => Arbitrator) public arbitrators;\n    mapping (address => Topic) public marketTopics;\n\n    // Array of addresses of topics to return to front end\n    address[] topicAddresses;\n\n    // Array of addresses of arbitrators to return to front end\n    address payable[] arbitratorAddresses;\n\n    // Struct create functions\n    function createTrader() public {\n        address id = msg.sender;\n        // // require that address has not been assigned to a trader\n        require(!traders[id].isValid);\n\n        // // create new trader with the default values\n        traders[id] = Trader(100, 100, true);\n    }\n\n    function createArbitrator(bytes32 _displayName) public {\n        address id = msg.sender;\n\n        // require that address has not been assigned to a arbitrator\n        require(!arbitrators[id].isValid);\n\n        // create new arbitrator with the default values\n        arbitrators[id] = Arbitrator(_displayName, 50, true);\n\n        arbitratorAddresses.push(address(uint160(id)));\n    }\n\n    function getAllArbitrators() public view returns (address payable[] memory) {\n        return arbitratorAddresses;\n    }\n\n    function getAllArbitratorNames() public view returns (bytes32[] memory) {\n        uint len = arbitratorAddresses.length;\n        bytes32[] memory names = new bytes32[](len);\n\n        for (uint i = 0; i < len; i++) {\n            address arbitratorAddress = arbitratorAddresses[i];\n            Arbitrator memory arbitrator = arbitrators[arbitratorAddress];\n            names[i] = arbitrator.displayName;\n        }\n        return names;\n    }\n\n    // AUTHENTICATION\n    function checkIdentity() public view returns (bytes32) {\n        // Check if user is a trader\n        if(traders[msg.sender].isValid){\n            return bytes32(\"Trader\");\n        }\n        // Check if user is an arbitrator\n        if(arbitrators[msg.sender].isValid){\n            return bytes32(\"Arbitrator\");\n        }\n        // If all the above fails, return invalid\n        return bytes32(\"Invalid\");\n    }\n\n\n    // Topics\n    function createTopic(\n        string memory name, string memory description, bytes32[] memory options, uint256 expiryDate, address payable[] memory selectedArbitrators\n    ) public payable\n        {\n        address payable creatorId = msg.sender;\n\n        // Creator must have a trader account\n        // TODO: Commented out for testing purposes, uncomment when createTrader is implemented\n        // require(traders[creatorId].isValid);\n\n        // Must have value above 0 ETH for payment of creation bond\n        require(msg.value > 0 ether);\n\n        // selected arbitrators must have arbitrator account and creator must not select himself as an arbitrator\n        require(areValidArbitrators(creatorId, selectedArbitrators));\n\n        uint bondValue = msg.value;\n        Topic newTopic = new Topic(creatorId, name, description, options, bondValue, expiryDate, selectedArbitrators, address(this));\n        address payable topicAddress = address(uint160(address(newTopic))); // to cast from address to address payable\n        marketTopics[topicAddress] = newTopic;\n        topicAddresses.push(topicAddress);\n        emit TopicCreated(topicAddress);\n    }\n\n    function getAllTopics() public view returns (address[] memory) {\n        return topicAddresses;\n    }\n\n    function areValidArbitrators(address payable creatorId, address payable[] memory selectedArbitrators) internal view returns (bool) {\n        uint numSelectedArbitrators = selectedArbitrators.length;\n        for (uint i = 0; i < numSelectedArbitrators; i++) {\n            address arbitrator = selectedArbitrators[i];\n            if (!arbitrators[arbitrator].isValid || creatorId == arbitrator) {\n                return false;\n            }\n        }\n        return true;\n    }\n\n    function updateWinScore(address winnerAddress) public {\n        traders[winnerAddress].winScore += 1;\n    }\n\n    function getWinScore(address winnerAddress) public view returns (uint){\n        Trader storage winner = traders[winnerAddress];\n        return winner.winScore;\n    }\n\n    function updateLoseScore(address loserAddress) public {\n        traders[loserAddress].loseScore += 1;\n    }\n\n    function getLoseScore(address loserAddress) public view returns (uint){\n        Trader storage loser = traders[loserAddress];\n        return loser.loseScore;\n    }\n\n\n    // ===============================================================\n    // For testing purposes\n    // ===============================================================\n    event TopicCreated(address _topicAddress);\n\n    function getCreatorAddress(address topicAddress) public view returns (address payable) {\n        return marketTopics[topicAddress].topicCreator();\n    }\n\n    function getName(address topicAddress) public view returns (string memory) {\n        return marketTopics[topicAddress].name();\n    }\n\n    function getDescription(address topicAddress) public view returns (string memory) {\n        return marketTopics[topicAddress].description();\n    }\n\n    function getOptions(address topicAddress) public view returns (bytes32[] memory) {\n        return marketTopics[topicAddress].getOptions();\n    }\n\n    function getMarketCap(address topicAddress) public view returns (uint) {\n        return marketTopics[topicAddress].marketCap();\n    }\n\n    function getCreatorBond(address topicAddress) public view returns (uint) {\n        return marketTopics[topicAddress].creatorBond();\n    }\n\n    function getExpiryDate(address topicAddress) public view returns (uint256) {\n        return marketTopics[topicAddress].expiryDate();\n    }\n\n    function getSelectedArbitrators(address topicAddress) public view returns (address payable[] memory) {\n        return marketTopics[topicAddress].getArbitrators();\n    }\n\n    function getCurrentBalance() public view returns (uint) {\n        return address(this).balance;\n    }\n\n}",
  "sourcePath": "/Users/gwynethang/Documents/Academics/Y4S1/Blockchain/Decentralised_Prediction_Market/contracts/PredictionMarket.sol",
  "compiler": {
    "name": "solc",
    "version": "0.5.16+commit.9c3226ce.Emscripten.clang"
  },
  "schemaVersion": "3.3.1",
  "updatedAt": "2020-10-24T06:53:18.339Z",
  "networkType": "ethereum",
  "devdoc": {
    "methods": {}
  },
  "userdoc": {
    "methods": {}
  }
}