{
  "contractName": "PredictionMarket",
  "abi": [
    {
      "constant": true,
      "inputs": [
        {
          "internalType": "address",
          "name": "",
          "type": "address"
        }
      ],
      "name": "arbitrators",
      "outputs": [
        {
          "internalType": "bytes32",
          "name": "displayName",
          "type": "bytes32"
        },
        {
          "internalType": "uint8",
          "name": "trustworthiness",
          "type": "uint8"
        },
        {
          "internalType": "bool",
          "name": "isValid",
          "type": "bool"
        }
      ],
      "payable": false,
      "stateMutability": "view",
      "type": "function"
    },
    {
      "constant": true,
      "inputs": [
        {
          "internalType": "address",
          "name": "",
          "type": "address"
        }
      ],
      "name": "marketTopics",
      "outputs": [
        {
          "internalType": "contract Topic",
          "name": "",
          "type": "address"
        }
      ],
      "payable": false,
      "stateMutability": "view",
      "type": "function"
    },
    {
      "constant": true,
      "inputs": [
        {
          "internalType": "address",
          "name": "",
          "type": "address"
        }
      ],
      "name": "traders",
      "outputs": [
        {
          "internalType": "uint256",
          "name": "winScore",
          "type": "uint256"
        },
        {
          "internalType": "uint256",
          "name": "loseScore",
          "type": "uint256"
        },
        {
          "internalType": "bool",
          "name": "isValid",
          "type": "bool"
        }
      ],
      "payable": false,
      "stateMutability": "view",
      "type": "function"
    },
    {
      "constant": false,
      "inputs": [],
      "name": "createTrader",
      "outputs": [],
      "payable": false,
      "stateMutability": "nonpayable",
      "type": "function"
    },
    {
      "constant": false,
      "inputs": [
        {
          "internalType": "bytes32",
          "name": "_displayName",
          "type": "bytes32"
        }
      ],
      "name": "createArbitrator",
      "outputs": [],
      "payable": false,
      "stateMutability": "nonpayable",
      "type": "function"
    },
    {
      "constant": true,
      "inputs": [],
      "name": "getAllArbitrators",
      "outputs": [
        {
          "internalType": "address payable[]",
          "name": "",
          "type": "address[]"
        }
      ],
      "payable": false,
      "stateMutability": "view",
      "type": "function"
    },
    {
      "constant": true,
      "inputs": [],
      "name": "getArbitratorName",
      "outputs": [
        {
          "internalType": "bytes32",
          "name": "",
          "type": "bytes32"
        }
      ],
      "payable": false,
      "stateMutability": "view",
      "type": "function"
    },
    {
      "constant": true,
      "inputs": [],
      "name": "getAllArbitratorNames",
      "outputs": [
        {
          "internalType": "bytes32[]",
          "name": "",
          "type": "bytes32[]"
        }
      ],
      "payable": false,
      "stateMutability": "view",
      "type": "function"
    },
    {
      "constant": true,
      "inputs": [],
      "name": "getArbitratorReputations",
      "outputs": [
        {
          "internalType": "uint256[]",
          "name": "",
          "type": "uint256[]"
        }
      ],
      "payable": false,
      "stateMutability": "view",
      "type": "function"
    },
    {
      "constant": true,
      "inputs": [
        {
          "internalType": "address",
          "name": "id",
          "type": "address"
        }
      ],
      "name": "getVotersReputation",
      "outputs": [
        {
          "internalType": "uint256[2]",
          "name": "",
          "type": "uint256[2]"
        }
      ],
      "payable": false,
      "stateMutability": "view",
      "type": "function"
    },
    {
      "constant": true,
      "inputs": [],
      "name": "checkIdentity",
      "outputs": [
        {
          "internalType": "bytes32",
          "name": "",
          "type": "bytes32"
        }
      ],
      "payable": false,
      "stateMutability": "view",
      "type": "function"
    },
    {
      "constant": true,
      "inputs": [
        {
          "internalType": "address",
          "name": "trader",
          "type": "address"
        }
      ],
      "name": "checkValidTrader",
      "outputs": [
        {
          "internalType": "bool",
          "name": "",
          "type": "bool"
        }
      ],
      "payable": false,
      "stateMutability": "view",
      "type": "function"
    },
    {
      "constant": false,
      "inputs": [
        {
          "internalType": "string",
          "name": "name",
          "type": "string"
        },
        {
          "internalType": "string",
          "name": "description",
          "type": "string"
        },
        {
          "internalType": "bytes32[]",
          "name": "options",
          "type": "bytes32[]"
        },
        {
          "internalType": "uint256",
          "name": "expiryDate",
          "type": "uint256"
        },
        {
          "internalType": "address payable[]",
          "name": "selectedArbitrators",
          "type": "address[]"
        }
      ],
      "name": "createTopic",
      "outputs": [],
      "payable": true,
      "stateMutability": "payable",
      "type": "function"
    },
    {
      "constant": true,
      "inputs": [],
      "name": "getAllTopics",
      "outputs": [
        {
          "internalType": "address[]",
          "name": "",
          "type": "address[]"
        }
      ],
      "payable": false,
      "stateMutability": "view",
      "type": "function"
    },
    {
      "constant": false,
      "inputs": [
        {
          "internalType": "address",
          "name": "winnerAddress",
          "type": "address"
        },
        {
          "internalType": "uint256",
          "name": "amount",
          "type": "uint256"
        }
      ],
      "name": "updateWinScore",
      "outputs": [],
      "payable": false,
      "stateMutability": "nonpayable",
      "type": "function"
    },
    {
      "constant": true,
      "inputs": [
        {
          "internalType": "address",
          "name": "winnerAddress",
          "type": "address"
        }
      ],
      "name": "getWinScore",
      "outputs": [
        {
          "internalType": "uint256",
          "name": "",
          "type": "uint256"
        }
      ],
      "payable": false,
      "stateMutability": "view",
      "type": "function"
    },
    {
      "constant": false,
      "inputs": [
        {
          "internalType": "address",
          "name": "loserAddress",
          "type": "address"
        },
        {
          "internalType": "uint256",
          "name": "amount",
          "type": "uint256"
        }
      ],
      "name": "updateLoseScore",
      "outputs": [],
      "payable": false,
      "stateMutability": "nonpayable",
      "type": "function"
    },
    {
      "constant": true,
      "inputs": [
        {
          "internalType": "address",
          "name": "loserAddress",
          "type": "address"
        }
      ],
      "name": "getLoseScore",
      "outputs": [
        {
          "internalType": "uint256",
          "name": "",
          "type": "uint256"
        }
      ],
      "payable": false,
      "stateMutability": "view",
      "type": "function"
    },
    {
      "constant": false,
      "inputs": [
        {
          "internalType": "address payable",
          "name": "targetAddress",
          "type": "address"
        },
        {
          "internalType": "uint256",
          "name": "bondValue",
          "type": "uint256"
        }
      ],
      "name": "transferCreatorBond",
      "outputs": [],
      "payable": true,
      "stateMutability": "payable",
      "type": "function"
    },
    {
      "constant": false,
      "inputs": [
        {
          "internalType": "address",
          "name": "honestArb",
          "type": "address"
        }
      ],
      "name": "updateHonestTrustworthiness",
      "outputs": [],
      "payable": false,
      "stateMutability": "nonpayable",
      "type": "function"
    },
    {
      "constant": false,
      "inputs": [
        {
          "internalType": "address",
          "name": "dishonestArb",
          "type": "address"
        }
      ],
      "name": "updateDishonestTrustworthiness",
      "outputs": [],
      "payable": false,
      "stateMutability": "nonpayable",
      "type": "function"
    },
    {
      "constant": true,
      "inputs": [
        {
          "internalType": "address",
          "name": "arbitrator",
          "type": "address"
        }
      ],
      "name": "getTrustworthinessScore",
      "outputs": [
        {
          "internalType": "uint256",
          "name": "",
          "type": "uint256"
        }
      ],
      "payable": false,
      "stateMutability": "view",
      "type": "function"
    },
    {
      "constant": true,
      "inputs": [
        {
          "internalType": "address",
          "name": "topicAddress",
          "type": "address"
        }
      ],
      "name": "getCreatorAddress",
      "outputs": [
        {
          "internalType": "address payable",
          "name": "",
          "type": "address"
        }
      ],
      "payable": false,
      "stateMutability": "view",
      "type": "function"
    },
    {
      "constant": true,
      "inputs": [
        {
          "internalType": "address",
          "name": "topicAddress",
          "type": "address"
        }
      ],
      "name": "getName",
      "outputs": [
        {
          "internalType": "string",
          "name": "",
          "type": "string"
        }
      ],
      "payable": false,
      "stateMutability": "view",
      "type": "function"
    },
    {
      "constant": true,
      "inputs": [
        {
          "internalType": "address",
          "name": "topicAddress",
          "type": "address"
        }
      ],
      "name": "getDescription",
      "outputs": [
        {
          "internalType": "string",
          "name": "",
          "type": "string"
        }
      ],
      "payable": false,
      "stateMutability": "view",
      "type": "function"
    },
    {
      "constant": true,
      "inputs": [
        {
          "internalType": "address",
          "name": "topicAddress",
          "type": "address"
        }
      ],
      "name": "getOptions",
      "outputs": [
        {
          "internalType": "bytes32[]",
          "name": "",
          "type": "bytes32[]"
        }
      ],
      "payable": false,
      "stateMutability": "view",
      "type": "function"
    },
    {
      "constant": true,
      "inputs": [
        {
          "internalType": "address",
          "name": "topicAddress",
          "type": "address"
        }
      ],
      "name": "getMarketCap",
      "outputs": [
        {
          "internalType": "uint256",
          "name": "",
          "type": "uint256"
        }
      ],
      "payable": false,
      "stateMutability": "view",
      "type": "function"
    },
    {
      "constant": true,
      "inputs": [
        {
          "internalType": "address",
          "name": "topicAddress",
          "type": "address"
        }
      ],
      "name": "getCreatorBond",
      "outputs": [
        {
          "internalType": "uint256",
          "name": "",
          "type": "uint256"
        }
      ],
      "payable": false,
      "stateMutability": "view",
      "type": "function"
    },
    {
      "constant": true,
      "inputs": [
        {
          "internalType": "address",
          "name": "topicAddress",
          "type": "address"
        }
      ],
      "name": "getExpiryDate",
      "outputs": [
        {
          "internalType": "uint256",
          "name": "",
          "type": "uint256"
        }
      ],
      "payable": false,
      "stateMutability": "view",
      "type": "function"
    },
    {
      "constant": true,
      "inputs": [
        {
          "internalType": "address",
          "name": "topicAddress",
          "type": "address"
        }
      ],
      "name": "getSelectedArbitrators",
      "outputs": [
        {
          "internalType": "address payable[]",
          "name": "",
          "type": "address[]"
        }
      ],
      "payable": false,
      "stateMutability": "view",
      "type": "function"
    },
    {
      "constant": true,
      "inputs": [],
      "name": "getCurrentBalance",
      "outputs": [
        {
          "internalType": "uint256",
          "name": "",
          "type": "uint256"
        }
      ],
      "payable": false,
      "stateMutability": "view",
      "type": "function"
    }
  ],
  "bytecode": "0x608060405234801561001057600080fd5b50614e47806100206000396000f3fe608060405260043610620002065760003560e01c80636f762d8a116200011b578063b755f3b311620000a3578063c9e519e8116200006d578063c9e519e81462000a8e578063d146d31d1462000aa6578063d3893d451462000add578063e7c256b61462000b1a5762000206565b8063b755f3b314620009cb578063c082c30c14620009e3578063c51795d11462000a1a578063c86b21591462000a575762000206565b80639ea630ba11620000e55780639ea630ba146200092d578063a57497101462000964578063b2271268146200097c578063b4b1d9c714620009945762000206565b80636f762d8a146200086f57806386416f14146200088757806392a88fa2146200089f57806399667bdc14620008f65762000206565b8063420d3ae8116200019f57806351d0ea37116200016957806351d0ea3714620007045780635fd4b08a146200075d5780636215a16e146200080c5780636c8501a914620008575762000206565b8063420d3ae81462000650578063457dac02146200067e5780634c5bab1714620006b55780634de1c9e414620006ec5762000206565b80632c2153ba11620001e15780632c2153ba146200052d5780632ea8e7ae14620005765780633d59f85b14620005a55780633fd8667b14620006195762000206565b806302d54fbf146200020b578063158f3c1e146200025e5780631aa90abc14620004a4575b600080fd5b3480156200021857600080fd5b5062000242600480360360208110156200023157600080fd5b50356001600160a01b031662000b51565b604080516001600160a01b039092168252519081900360200190f35b620004a2600480360360a08110156200027657600080fd5b810190602081018135600160201b8111156200029157600080fd5b820183602082011115620002a457600080fd5b803590602001918460018302840111600160201b83111715620002c657600080fd5b91908080601f0160208091040260200160405190810160405280939291908181526020018383808284376000920191909152509295949360208101935035915050600160201b8111156200031957600080fd5b8201836020820111156200032c57600080fd5b803590602001918460018302840111600160201b831117156200034e57600080fd5b91908080601f0160208091040260200160405190810160405280939291908181526020018383808284376000920191909152509295949360208101935035915050600160201b811115620003a157600080fd5b820183602082011115620003b457600080fd5b803590602001918460208302840111600160201b83111715620003d657600080fd5b91908080602002602001604051908101604052809392919081815260200183836020028082843760009201919091525092958435959094909350604081019250602001359050600160201b8111156200042e57600080fd5b8201836020820111156200044157600080fd5b803590602001918460208302840111600160201b831117156200046357600080fd5b91908080602002602001604051908101604052809392919081815260200183836020028082843760009201919091525092955062000b6c945050505050565b005b348015620004b157600080fd5b50620004db60048036036020811015620004ca57600080fd5b50356001600160a01b031662000dfb565b60408051602080825283518183015283519192839290830191858101910280838360005b8381101562000519578181015183820152602001620004ff565b505050509050019250505060405180910390f35b3480156200053a57600080fd5b5062000564600480360360208110156200055357600080fd5b50356001600160a01b031662000f23565b60408051918252519081900360200190f35b620004a2600480360360408110156200058e57600080fd5b506001600160a01b03813516906020013562000f41565b348015620005b257600080fd5b50620005dc60048036036020811015620005cb57600080fd5b50356001600160a01b031662000fd5565b6040518082600260200280838360005b8381101562000606578181015183820152602001620005ec565b5050505090500191505060405180910390f35b3480156200062657600080fd5b5062000564600480360360208110156200063f57600080fd5b50356001600160a01b03166200103f565b3480156200065d57600080fd5b50620004a2600480360360208110156200067657600080fd5b5035620010c6565b3480156200068b57600080fd5b50620004a260048036036020811015620006a457600080fd5b50356001600160a01b031662001198565b348015620006c257600080fd5b506200056460048036036020811015620006db57600080fd5b50356001600160a01b0316620011f7565b348015620006f957600080fd5b506200056462001219565b3480156200071157600080fd5b506200073b600480360360208110156200072a57600080fd5b50356001600160a01b0316620012ee565b6040805193845260ff9092166020840152151582820152519081900360600190f35b3480156200076a57600080fd5b5062000794600480360360208110156200078357600080fd5b50356001600160a01b031662001313565b6040805160208082528351818301528351919283929083019185019080838360005b83811015620007d0578181015183820152602001620007b6565b50505050905090810190601f168015620007fe5780820380516001836020036101000a031916815260200191505b509250505060405180910390f35b3480156200081957600080fd5b5062000843600480360360208110156200083257600080fd5b50356001600160a01b031662001460565b604080519115158252519081900360200190f35b3480156200086457600080fd5b506200056462001481565b3480156200087c57600080fd5b50620004db62001494565b3480156200089457600080fd5b50620004db62001582565b348015620008ac57600080fd5b50620008d660048036036020811015620008c557600080fd5b50356001600160a01b0316620015e6565b604080519384526020840192909252151582820152519081900360600190f35b3480156200090357600080fd5b50620004a2600480360360208110156200091c57600080fd5b50356001600160a01b03166200160a565b3480156200093a57600080fd5b5062000564600480360360208110156200095357600080fd5b50356001600160a01b03166200162f565b3480156200097157600080fd5b50620005646200164a565b3480156200098957600080fd5b50620004a26200164e565b348015620009a157600080fd5b506200079460048036036020811015620009ba57600080fd5b50356001600160a01b0316620016ca565b348015620009d857600080fd5b50620004db6200171d565b348015620009f057600080fd5b50620002426004803603602081101562000a0957600080fd5b50356001600160a01b0316620017ff565b34801562000a2757600080fd5b50620004a26004803603604081101562000a4057600080fd5b506001600160a01b03813516906020013562001852565b34801562000a6457600080fd5b50620005646004803603602081101562000a7d57600080fd5b50356001600160a01b03166200189d565b34801562000a9b57600080fd5b50620004db620018f0565b34801562000ab357600080fd5b50620005646004803603602081101562000acc57600080fd5b50356001600160a01b031662001952565b34801562000aea57600080fd5b50620004a26004803603604081101562000b0357600080fd5b506001600160a01b038135169060200135620019a5565b34801562000b2757600080fd5b50620004db6004803603602081101562000b4057600080fd5b50356001600160a01b0316620019f6565b6002602052600090815260409020546001600160a01b031681565b3360008181526020819052604090206002015460ff1662000b8c57600080fd5b6000341162000b9a57600080fd5b62000ba6818362001a49565b62000bb057600080fd5b60003490506000828888888589893060405162000bcd9062001b52565b80896001600160a01b03166001600160a01b0316815260200180602001806020018060200188815260200187815260200180602001866001600160a01b03166001600160a01b0316815260200185810385528c818151815260200191508051906020019080838360005b8381101562000c5157818101518382015260200162000c37565b50505050905090810190601f16801562000c7f5780820380516001836020036101000a031916815260200191505b5085810384528b5181528b516020918201918d019080838360005b8381101562000cb457818101518382015260200162000c9a565b50505050905090810190601f16801562000ce25780820380516001836020036101000a031916815260200191505b5085810383528a5181528a51602091820191808d01910280838360005b8381101562000d1957818101518382015260200162000cff565b50505050905001858103825287818151815260200191508051906020019060200280838360005b8381101562000d5a57818101518382015260200162000d40565b505050509050019c50505050505050505050505050604051809103906000f08015801562000d8c573d6000803e3d6000fd5b506001600160a01b0316600081815260026020526040812080546001600160a01b031990811684179091556003805460018101825592527fc2575a0e9e593c00f959f8c92f12db2869c3395a3b0502d05e2516446f71f85b909101805490911690911790555050505050505050565b6001600160a01b0380821660009081526002602052604080822054815163894c3b1f60e01b81529151606094919091169263894c3b1f9260048082019391829003018186803b15801562000e4e57600080fd5b505afa15801562000e63573d6000803e3d6000fd5b505050506040513d6000823e601f3d908101601f19168201604052602081101562000e8d57600080fd5b8101908080516040519392919084600160201b82111562000ead57600080fd5b90830190602082018581111562000ec357600080fd5b82518660208202830111600160201b8211171562000ee057600080fd5b82525081516020918201928201910280838360005b8381101562000f0f57818101518382015260200162000ef5565b505050509050016040525050509050919050565b6001600160a01b031660009081526020819052604090206001015490565b6001600160a01b03821660009081526005602052604090205460ff1662000fd1576001600160a01b038216600081815260056020526040808220805460ff191660011790555183156108fc0291849190818181858888f1935050505015801562000faf573d6000803e3d6000fd5b506001600160a01b0382166000908152600560205260409020805460ff191690555b5050565b62000fdf62001b60565b6001600160a01b03821660009081526020819052604090206002015460ff166200100857600080fd5b506040805180820182526001600160a01b039290921660008181526020818152928120805485529181528252600101549082015290565b6001600160a01b03808216600090815260026020908152604080832054815163459d6e4f60e01b815291519394169263459d6e4f92600480840193919291829003018186803b1580156200109257600080fd5b505afa158015620010a7573d6000803e3d6000fd5b505050506040513d6020811015620010be57600080fd5b505192915050565b3360008181526001602081905260409091200154610100900460ff1615620010ed57600080fd5b604080516060810182529283526032602080850191825260018584018181526001600160a01b039095166000818152928290529382209551865591519482018054945115156101000261ff001960ff9790971660ff199096169590951795909516939093179093556004805493840181559091527f8a35acfbc15ff81a39ae7d344fd709f28e8600b4aa8c65c6b64bfe7fe36bd19b90910180546001600160a01b0319169091179055565b6001600160a01b03811660009081526001602081905260409091200154606460ff9091161015620011f4576001600160a01b038116600090815260016020819052604090912001805460ff8082166005011660ff199091161790555b50565b6001600160a01b03166000908152600160208190526040909120015460ff1690565b3360009081526020819052604081206002015460ff1680156200125457503360009081526001602081905260409091200154610100900460ff165b156200127a5750742a3930b232b91030b7321020b93134ba3930ba37b960591b620012eb565b3360009081526020819052604090206002015460ff1615620012a75750652a3930b232b960d11b620012eb565b3360009081526001602081905260409091200154610100900460ff1615620012de57506920b93134ba3930ba37b960b11b620012eb565b5066125b9d985b1a5960ca1b5b90565b6001602081905260009182526040909120805491015460ff8082169161010090041683565b6001600160a01b038082166000908152600260205260408082205481516306fdde0360e01b8152915160609491909116926306fdde039260048082019391829003018186803b1580156200136657600080fd5b505afa1580156200137b573d6000803e3d6000fd5b505050506040513d6000823e601f3d908101601f191682016040526020811015620013a557600080fd5b8101908080516040519392919084600160201b821115620013c557600080fd5b908301906020820185811115620013db57600080fd5b8251600160201b811182820188101715620013f557600080fd5b82525081516020918201929091019080838360005b83811015620014245781810151838201526020016200140a565b50505050905090810190601f168015620014525780820380516001836020036101000a031916815260200191505b506040525050509050919050565b6001600160a01b031660009081526020819052604090206002015460ff1690565b3360009081526001602052604090205490565b600454604080518281526020808402820101909152606091908290828015620014c7578160200160208202803883390190505b50905060005b828110156200157b57600060048281548110620014e657fe5b6000918252602090912001546001600160a01b031690506200150762001b7e565b506001600160a01b03811660009081526001602081815260409283902083516060810185528154808252919093015460ff80821693850193909352610100900490911615159282019290925284519091908590859081106200156557fe5b60209081029190910101525050600101620014cd565b5091505090565b60606003805480602002602001604051908101604052809291908181526020018280548015620015dc57602002820191906000526020600020905b81546001600160a01b03168152600190910190602001808311620015bd575b5050505050905090565b60006020819052908152604090208054600182015460029092015490919060ff1683565b6001600160a01b0316600090815260016020819052604090912001805460ff19169055565b6001600160a01b031660009081526020819052604090205490565b4790565b3360008181526020819052604090206002015460ff16156200166f57600080fd5b604080516060810182526064808252602080830191825260018385018181526001600160a01b039690961660009081529182905293902091518255519181019190915590516002909101805460ff1916911515919091179055565b6001600160a01b03808216600090815260026020526040808220548151633942720b60e11b815291516060949190911692637284e4169260048082019391829003018186803b1580156200136657600080fd5b60045460408051828152602080840282010190915260609190829082801562001750578160200160208202803883390190505b50905060005b828110156200157b576000600482815481106200176f57fe5b6000918252602090912001546001600160a01b031690506200179062001b7e565b506001600160a01b03811660009081526001602081815260409283902083516060810185528154815292015460ff808216928401839052610100909104161515928201929092528451909190859085908110620017e957fe5b6020908102919091010152505060010162001756565b6001600160a01b03808216600090815260026020908152604080832054815163fbcc1e7160e01b815291519394169263fbcc1e7192600480840193919291829003018186803b1580156200109257600080fd5b6001600160a01b0382166000908152602081905260409020546200187d908263ffffffff62001af016565b6001600160a01b0390921660009081526020819052604090209190915550565b6001600160a01b03808216600090815260026020908152604080832054815163516dde4360e01b815291519394169263516dde4392600480840193919291829003018186803b1580156200109257600080fd5b60606004805480602002602001604051908101604052809291908181526020018280548015620015dc576020028201919060005260206000209081546001600160a01b03168152600190910190602001808311620015bd575050505050905090565b6001600160a01b038082166000908152600260209081526040808320548151632c135b9360e01b8152915193941692632c135b9392600480840193919291829003018186803b1580156200109257600080fd5b6001600160a01b038216600090815260208190526040902060010154620019d3908263ffffffff62001af016565b6001600160a01b0390921660009081526020819052604090206001019190915550565b6001600160a01b0380821660009081526002602052604080822054815163661770cb60e11b81529151606094919091169263cc2ee1969260048082019391829003018186803b15801562000e4e57600080fd5b8051600090815b8181101562001ae357600084828151811062001a6857fe5b6020026020010151905060016000826001600160a01b03166001600160a01b0316815260200190815260200160002060010160019054906101000a900460ff16158062001ac65750806001600160a01b0316866001600160a01b0316145b1562001ad9576000935050505062001aea565b5060010162001a50565b5060019150505b92915050565b60008282018381101562001b4b576040805162461bcd60e51b815260206004820152601b60248201527f536166654d6174683a206164646974696f6e206f766572666c6f770000000000604482015290519081900360640190fd5b9392505050565b6132748062001b9f83390190565b60405180604001604052806002906020820280388339509192915050565b60408051606081018252600080825260208201819052918101919091529056fe6080604052604051620032743803806200327483398181016040526101008110156200002a57600080fd5b8151602083018051604051929492938301929190846401000000008211156200005257600080fd5b9083019060208201858111156200006857600080fd5b82516401000000008111828201881017156200008357600080fd5b82525081516020918201929091019080838360005b83811015620000b257818101518382015260200162000098565b50505050905090810190601f168015620000e05780820380516001836020036101000a031916815260200191505b50604052602001805160405193929190846401000000008211156200010457600080fd5b9083019060208201858111156200011a57600080fd5b82516401000000008111828201881017156200013557600080fd5b82525081516020918201929091019080838360005b83811015620001645781810151838201526020016200014a565b50505050905090810190601f168015620001925780820380516001836020036101000a031916815260200191505b5060405260200180516040519392919084640100000000821115620001b657600080fd5b908301906020820185811115620001cc57600080fd5b8251866020820283011164010000000082111715620001ea57600080fd5b82525081516020918201928201910280838360005b8381101562000219578181015183820152602001620001ff565b5050505091909101604081815260208401519084015160609094018051919694959294935090846401000000008211156200025357600080fd5b9083019060208201858111156200026957600080fd5b82518660208202830111640100000000821117156200028757600080fd5b82525081516020918201928201910280838360005b83811015620002b65781810151838201526020016200029c565b505050509190910160405250602090810151600a80546001600160a01b038084166001600160a01b03199283161790925560008054928e169290911691909117905589519093506200030f92506001918a0190620004ba565b50855162000325906002906020890190620004ba565b5084516200033b9060039060208801906200053f565b506000600455600584905560068390558151620003609060079060208501906200057c565b50602a80546000919060ff19166001830217905550600a805461ffff60a01b1916601760a01b1760ff60b01b19168155600c805460ff1916905560095560005b85518110156200040a576040805180820190915260008082526020820152600f8260048110620003cc57fe5b825160029190910291909101908155602090910151600191820180546001600160a01b0319166001600160a01b0390921691909117905501620003a0565b5060005b8251811015620004ab5760405180606001604052806001151581526020016000151581526020016000801b815250602460008584815181106200044d57fe5b6020908102919091018101516001600160a01b03168252818101929092526040908101600020835181549385015115156101000261ff001991151560ff1990951694909417169290921782559190910151600191820155016200040e565b50505050505050505062000629565b828054600181600116156101000203166002900490600052602060002090601f016020900481019282601f10620004fd57805160ff19168380011785556200052d565b828001600101855582156200052d579182015b828111156200052d57825182559160200191906001019062000510565b506200053b929150620005e2565b5090565b8280548282559060005260206000209081019282156200052d57916020028201828111156200052d57825182559160200191906001019062000510565b828054828255906000526020600020908101928215620005d4579160200282015b82811115620005d457825182546001600160a01b0319166001600160a01b039091161782556020909201916001909101906200059d565b506200053b92915062000602565b620005ff91905b808211156200053b5760008155600101620005e9565b90565b620005ff91905b808211156200053b5780546001600160a01b031916815560010162000609565b612c3b80620006396000396000f3fe60806040526004361061021a5760003560e01c806382f8943811610123578063bfb0b608116100ab578063e6cd5a111161006f578063e6cd5a1114610778578063e6ff5096146107a8578063e8a1e12e146107fb578063f06e3e2e14610810578063fbcc1e71146108435761021a565b8063bfb0b608146106dc578063c617339b146106f1578063cc2ee19614610724578063cc7e621014610739578063d3901fb5146107635761021a565b80639e6fcc06116100f25780639e6fcc0614610619578063a6430cc014610643578063b4164e8b1461066d578063b55eb88b1461069d578063bc0da8d3146106c75761021a565b806382f8943814610599578063894c3b1f146105c557806393fc29cb146105da57806395e56a84146106045761021a565b80634852aa6d116101a657806366d4bfac1161017557806366d4bfac146104eb5780636f0f9f5e14610515578063722713f7146105455780637284e4161461055a578063729ecb071461056f5761021a565b80634852aa6d14610452578063509bd3371461049e578063516dde43146104c157806357cde0e6146104d65761021a565b80632c135b93116101ed5780632c135b931461039e5780632d978163146103c5578063409e2205146103fe578063459d6e4f14610428578063465be85f1461043d5761021a565b806306fdde031461021f578063123230df146102a957806312b8b1a3146102f2578063288fa80214610339575b600080fd5b34801561022b57600080fd5b50610234610858565b6040805160208082528351818301528351919283929083019185019080838360005b8381101561026e578181015183820152602001610256565b50505050905090810190601f16801561029b5780820380516001836020036101000a031916815260200191505b509250505060405180910390f35b3480156102b557600080fd5b506102be6108e5565b604080516001600160a01b039586168152938516602085015291841683830152909216606082015290519081900360800190f35b3480156102fe57600080fd5b506103256004803603602081101561031557600080fd5b50356001600160a01b03166109b9565b604080519115158252519081900360200190f35b34801561034557600080fd5b5061034e6109dc565b60408051602080825283518183015283519192839290830191858101910280838360005b8381101561038a578181015183820152602001610372565b505050509050019250505060405180910390f35b3480156103aa57600080fd5b506103b3610a49565b60408051918252519081900360200190f35b3480156103d157600080fd5b506103da610a4f565b604051808260038111156103ea57fe5b60ff16815260200191505060405180910390f35b34801561040a57600080fd5b506103b36004803603602081101561042157600080fd5b5035610a58565b34801561043457600080fd5b506103b3610a76565b34801561044957600080fd5b5061034e610a7c565b34801561045e57600080fd5b506104826004803603604081101561047557600080fd5b5080359060200135610ade565b604080516001600160a01b039092168252519081900360200190f35b610325600480360360408110156104b457600080fd5b5080359060200135610b13565b3480156104cd57600080fd5b506103b3610f81565b3480156104e257600080fd5b506103b3610f87565b3480156104f757600080fd5b506103b36004803603602081101561050e57600080fd5b5035610f8d565b34801561052157600080fd5b5061052a610f9f565b60408051921515835260208301919091528051918290030190f35b34801561055157600080fd5b506103b3611017565b34801561056657600080fd5b5061023461101b565b34801561057b57600080fd5b506104826004803603602081101561059257600080fd5b5035611073565b3480156105a557600080fd5b506105c3600480360360208110156105bc57600080fd5b503561109a565b005b3480156105d157600080fd5b5061034e611185565b3480156105e657600080fd5b5061034e600480360360208110156105fd57600080fd5b50356111e5565b34801561061057600080fd5b5061034e61127a565b34801561062557600080fd5b5061034e6004803603602081101561063c57600080fd5b50356112dd565b34801561064f57600080fd5b506104826004803603602081101561066657600080fd5b5035611382565b34801561067957600080fd5b506105c36004803603604081101561069057600080fd5b508035906020013561138f565b3480156106a957600080fd5b506105c3600480360360208110156106c057600080fd5b50356114bb565b3480156106d357600080fd5b5061034e611682565b3480156106e857600080fd5b5061034e6116e5565b3480156106fd57600080fd5b506103256004803603602081101561071457600080fd5b50356001600160a01b0316611748565b34801561073057600080fd5b5061034e61176b565b34801561074557600080fd5b506103b36004803603602081101561075c57600080fd5b50356117c2565b34801561076f57600080fd5b506103256117d4565b34801561078457600080fd5b506104826004803603604081101561079b57600080fd5b50803590602001356117ea565b3480156107b457600080fd5b506107db600480360360208110156107cb57600080fd5b50356001600160a01b0316611803565b604080519315158452911515602084015282820152519081900360600190f35b34801561080757600080fd5b506103b3611829565b34801561081c57600080fd5b506107db6004803603602081101561083357600080fd5b50356001600160a01b031661182f565b34801561084f57600080fd5b50610482611855565b60018054604080516020600284861615610100026000190190941693909304601f810184900484028201840190925281815292918301828280156108dd5780601f106108b2576101008083540402835291602001916108dd565b820191906000526020600020905b8154815290600101906020018083116108c057829003601f168201915b505050505081565b6000806000806108f3612a6a565b60238054600019810190811061090557fe5b600091825260209091206040805160c081018083529093600802909201918391820190839060049082845b81546001600160a01b031681526001909101906020018083116109305750505091835250506040805160808101918290526020909201919060048481019182845b815481526020019060010190808311610971575050505050815250509050610997612a8f565b5051805160208201516040830151606090930151919790965091945092509050565b6001600160a01b0316600090815260246020526040902054610100900460ff1690565b60408051600480825260a08201909252606091908290826020820160808038833901905050905060005b82811015610a4157600f8160048110610a1b57fe5b60020201548251839083908110610a2e57fe5b6020908102919091010152600101610a06565b509150505b90565b60045481565b602a5460ff1681565b60038181548110610a6557fe5b600091825260209091200154905081565b60055481565b60606008805480602002602001604051908101604052809291908181526020018280548015610ad457602002820191906000526020600020905b81546001600160a01b03168152600190910190602001808311610ab6575b5050505050905090565b60256020528160005260406000208181548110610af757fe5b6000918252602090912001546001600160a01b03169150829050565b6000600654821115610b2f57610b27611864565b506000610f7b565b3360009081526024602052604090205460ff1615610b4c57600080fd5b6000602a5460ff166003811115610b5f57fe5b14610b6957600080fd5b34670de0b6b3a76400008110610b7e57600080fd5b80600f8560048110610b8c57fe5b600202015410610b9b57600080fd5b600a546040805163310ad0b760e11b815233600482015290516001600160a01b03909216916000918391636215a16e91602480820192602092909190829003018186803b158015610beb57600080fd5b505afa158015610bff573d6000803e3d6000fd5b505050506040513d6020811015610c1557600080fd5b5051905080610c2357600080fd5b600f8660048110610c3057fe5b60020201600101546001600160a01b03166108fc600f8860048110610c5157fe5b60020201546040518115909202916000818181858888f19350505050158015610c7e573d6000803e3d6000fd5b50670de0b6b3a7640000610c90612a8f565b610c98612a8f565b60005b6004811015610d2a57898114610d2257600f8160048110610cb857fe5b600202015490930392600f8160048110610cce57fe5b60020201600101546001600160a01b0316838260048110610ceb57fe5b6001600160a01b039092166020929092020152600f8160048110610d0b57fe5b6002020154828260048110610d1c57fe5b60200201525b600101610c9b565b50336000908152600d60205260409020805460ff19166001179055858311610f125733828a60048110610d5957fe5b6001600160a01b03909216602092909202015282818a60048110610d7957fe5b6020020152610d86612a6a565b5060408051808201909152828152602081018290526023805460018101808355600092909252825183916008027fd57b2b5166478fd4318d2acc6cc2c704584312bdd8781b32d5d06abda57f42300190610de39082906004612aad565b506020820151610df99060048084019190612b05565b506000925050505b6004811015610e51578a811415610e27578460178260048110610e2057fe5b0155610e49565b600f8160048110610e3457fe5b600202015460178260048110610e4657fe5b01555b600101610e01565b50604051339085890380156108fc02916000818181858888f19350505050158015610e80573d6000803e3d6000fd5b50610e89611895565b60005b6004811015610ef0576000600f8260048110610ea457fe5b60020201556000600f8260048110610eb857fe5b6002020160010160006101000a8154816001600160a01b0302191690836001600160a01b031602179055508080600101915050610e8c565b505060048054670de0b6b3a76400000190555060019550610f7b945050505050565b610f1a612b3f565b506040805180820190915286815233602082015280600f8b60048110610f3c57fe5b825160029190910291909101908155602090910151600190910180546001600160a01b0319166001600160a01b03909216919091179055505050505050505b92915050565b60065481565b60095481565b60296020526000908152604090205481565b600080808080805b60035481101561100d5760006026600060038481548110610fc457fe5b9060005260206000200154815260200190815260200160002054905084811115610ff75780945060009250819350611004565b8481141561100457600192505b50600101610fa7565b5093509150509091565b4790565b6002805460408051602060018416156101000260001901909316849004601f810184900484028201840190925281815292918301828280156108dd5780601f106108b2576101008083540402835291602001916108dd565b6008818154811061108057fe5b6000918252602090912001546001600160a01b0316905081565b6002602a5460ff1660038111156110ad57fe5b146110b757600080fd5b33600090815260276020526040902054610100900460ff16156110d957600080fd5b3360009081526027602052604090205460ff166110f557600080fd5b336000818152602760209081526040808320805461ff001916610100178155600190810186905585845260288352818420805480830182559085528385200180546001600160a01b03191690951790945584835260299091529020805482019055600c805460ff818116909301831660ff199091161790819055600b549116141561118257611182611af3565b50565b60606007805480602002602001604051908101604052809291908181526020018280548015610ad4576020028201919060005260206000209081546001600160a01b03168152600190910190602001808311610ab6575050505050905090565b602354604080518281526020808402820101909152606091908290828015611217578160200160208202803883390190505b50905060005b82811015611272576023818154811061123257fe5b9060005260206000209060080201600401856004811061124e57fe5b015460001b82828151811061125f57fe5b602090810291909101015260010161121d565b509392505050565b60408051600480825260a08201909252606091908290826020820160808038833901905050905060005b82811015610a4157601781600481106112b957fe5b015460001b8282815181106112ca57fe5b60209081029190910101526001016112a4565b60235460408051828152602080840282010190915260609190829082801561130f578160200160208202803883390190505b50905060005b82811015611272576023818154811061132a57fe5b9060005260206000209060080201600001856004811061134657fe5b015482516001600160a01b039091169083908390811061136257fe5b6001600160a01b0390921660209283029190910190910152600101611315565b6007818154811061108057fe5b600654811161139d57600080fd5b6000602a5460ff1660038111156113b057fe5b14156113be576113be611864565b6001602a5460ff1660038111156113d157fe5b146113db57600080fd5b33600090815260246020526040902054610100900460ff16156113fd57600080fd5b3360009081526024602052604090205460ff1661141957600080fd5b336000818152602460209081526040808320805461010061ff0019909116178155600190810187905586845260258352818420805480830182559085528385200180546001600160a01b03191690951790945585835260269091529020805482019055600a805460ff60b01b19811660ff600160b01b928390048116909401841682021791829055600754910490911614156114b7576114b7611af3565b5050565b600a546001600160a01b031660005b60035481101561167d5760005b60256000600384815481106114e857fe5b906000526020600020015481526020019081526020016000208054905081101561167457838214156115c257826001600160a01b031663457dac02602560006003868154811061153457fe5b90600052602060002001548152602001908152602001600020838154811061155857fe5b6000918252602082200154604080516001600160e01b031960e086901b1681526001600160a01b039092166004830152516024808301939282900301818387803b1580156115a557600080fd5b505af11580156115b9573d6000803e3d6000fd5b5050505061166c565b826001600160a01b03166399667bdc60256000600386815481106115e257fe5b90600052602060002001548152602001908152602001600020838154811061160657fe5b6000918252602082200154604080516001600160e01b031960e086901b1681526001600160a01b039092166004830152516024808301939282900301818387803b15801561165357600080fd5b505af1158015611667573d6000803e3d6000fd5b505050505b6001016114d7565b506001016114ca565b505050565b60408051600480825260a08201909252606091908290826020820160808038833901905050905060005b82811015610a4157601f81600481106116c157fe5b015460001b8282815181106116d257fe5b60209081029190910101526001016116ac565b60408051600480825260a08201909252606091908290826020820160808038833901905050905060005b82811015610a4157601b816004811061172457fe5b015460001b82828151811061173557fe5b602090810291909101015260010161170f565b6001600160a01b0316600090815260276020526040902054610100900460ff1690565b60606003805480602002602001604051908101604052809291908181526020018280548015610ad457602002820191906000526020600020905b8154815260200190600101908083116117a5575050505050905090565b60266020526000908152604090205481565b3360009081526024602052604090205460ff1690565b60286020528160005260406000208181548110610af757fe5b6027602052600090815260409020805460019091015460ff808316926101009004169083565b600b5490565b6024602052600090815260409020805460019091015460ff808316926101009004169083565b6000546001600160a01b031681565b6000602a5460ff16600381111561187757fe5b141561188b57602a805460ff191660011790555b611893611b98565b565b600a546001600160a01b03166118a9612a6a565b6023805460001981019081106118bb57fe5b600091825260209091206040805160c081018083529093600802909201918391820190839060049082845b81546001600160a01b031681526001909101906020018083116118e65750505091835250506040805160808101918290526020909201919060048481019182845b81548152602001906001019080831161192757505050505081525050905060008090505b600481101561167d578151600090826004811061196457fe5b602002015190506001600160a01b03811615611aea57611982612b56565b60408051633d59f85b60e01b81526001600160a01b038481166004830152825190881692633d59f85b9260248082019391829003018186803b1580156119c757600080fd5b505afa1580156119db573d6000803e3d6000fd5b505050506040513d601f19601f820116820180604052506040811015611a0057600080fd5b50604080516001600160a01b03851681529192507f405f4ccba46549b1dbd2e5bfbf7248e032b3b50a1a6d65140c30c83a176d192e9184918491906020820190839080838360005b83811015611a60578181015183820152602001611a48565b505050509050019250505060405180910390a160178360048110611a8057fe5b0154815102601b8460048110611a9257fe5b015401601b8460048110611aa257fe5b015560178360048110611ab157fe5b015460010381600160028110611ac357fe5b602002015102601f8460048110611ad657fe5b015401601f8460048110611ae657fe5b0155505b5060010161194b565b6000602a5460ff166003811115611b0657fe5b14158015611b2557506003602a5460ff166003811115611b2257fe5b14155b611b2e57600080fd5b6002602a5460ff166003811115611b4157fe5b1415611b68576000611b51611ce8565b60098190559050611b6181611d3f565b5050611893565b600080611b73610f9f565b9150915081611b90576009819055611b8a81611d3f565b506114b7565b6114b761208d565b60005b6004811015611182576000600f8260048110611bb357fe5b60020201600101546001600160a01b03161415611bcf57611ce0565b6000600f8260048110611bde57fe5b60020201600101546001600160a01b031690506000600f8360048110611c0057fe5b60020201546001600160a01b0383166000908152600e602052604090205490915060ff1615611c30575050611ce0565b6000600f8460048110611c3f57fe5b60020201556000600f8460048110611c5357fe5b60020201600190810180546001600160a01b0319166001600160a01b039384161790559083166000818152600e6020526040808220805460ff1916909417909355915190916108fc841502918491818181858888f19350505050158015611cbe573d6000803e3d6000fd5b50506001600160a01b03166000908152600e60205260409020805460ff191690555b600101611b9b565b60008080805b600354811015610a415760006029600060038481548110611d0b57fe5b9060005260206000200154815260200190815260200160002054905083811115611d36578093508192505b50600101611cee565b600080602a5460ff166003811115611d5357fe5b14158015611d7257506003602a5460ff166003811115611d6f57fe5b14155b611d7b57600080fd5b600a546001600160a01b03166000805b6023548110156120385760005b60238281548110611da557fe5b50600052600481101561202f5760006001600160a01b031660238381548110611dca57fe5b90600052602060002090600802016000018260048110611de657fe5b01546001600160a01b0316146120275782600a01925085811415611f3757836001600160a01b031663c51795d160238481548110611e2057fe5b90600052602060002090600802016000018360048110611e3c57fe5b0154602380546001600160a01b0390921691670de0b6b3a7640000919087908110611e6357fe5b90600052602060002090600802016004018560048110611e7f57fe5b015460640281611e8b57fe5b046064036040518363ffffffff1660e01b815260040180836001600160a01b03166001600160a01b0316815260200182815260200192505050600060405180830381600087803b158015611ede57600080fd5b505af1158015611ef2573d6000803e3d6000fd5b50505050611f3260238381548110611f0657fe5b90600052602060002090600802016000018260048110611f2257fe5b01546001600160a01b03166120a2565b612027565b836001600160a01b031663d3893d4560238481548110611f5357fe5b90600052602060002090600802016000018360048110611f6f57fe5b0154602380546001600160a01b0390921691670de0b6b3a7640000919087908110611f9657fe5b90600052602060002090600802016004018560048110611fb257fe5b015460640281611fbe57fe5b046040518363ffffffff1660e01b815260040180836001600160a01b03166001600160a01b0316815260200182815260200192505050600060405180830381600087803b15801561200e57600080fd5b505af1158015612022573d6000803e3d6000fd5b505050505b600101611d98565b50600101611d8b565b50612042846114bb565b61204b84612131565b6002602a5460ff16600381111561205e57fe5b146120705761206b61220e565b612079565b612079846122fc565b602a805460ff191660031790559392505050565b602a805460ff19166002179055611893612470565b6001600160a01b0381166000908152600e602052604090205460ff16611182576001600160a01b0381166000818152600e6020526040808220805460ff1916600117905551670d99a8cec7e200009082818181858883f1935050505015801561210f573d6000803e3d6000fd5b506001600160a01b03166000908152600e60205260409020805460ff19169055565b600060646004548161213f57fe5b04905060006003838154811061215157fe5b600091825260208083209091015480835260269091526040822054909250905b8181101561220757600083815260256020526040812080548390811061219357fe5b60009182526020808320909101546001600160a01b0316808352600e9091526040909120805460ff191660011790559050806108fc8487816121d157fe5b049081150290604051600060405180830381858888f193505050501580156121fd573d6000803e3d6000fd5b5050600101612171565b5050505050565b600080546001600160a01b03168152600e602052604090205460ff1661189357600080546001600160a01b039081168252600e60205260408220805460ff1916600117905590546004549116906108fc90606490049081150290604051600060405180830381858888f1935050505015801561228e573d6000803e3d6000fd5b50600a54600080546005546040805163175473d760e11b81526001600160a01b03938416600482015260248101929092525191909316928392632ea8e7ae9260448084019382900301818387803b1580156122e857600080fd5b505af1158015612207573d6000803e3d6000fd5b600a546004546001600160a01b039091169060009060649004905060006003848154811061232657fe5b600091825260208083209091015480835260299091526040822054909250905b8181101561246857600083815260286020526040812080548390811061236857fe5b60009182526020808320909101546001600160a01b0316808352600e90915260408220805460ff1916600117905591508386816123a157fe5b049050866001600160a01b0316632ea8e7ae8386600554816123bf57fe5b046040518363ffffffff1660e01b815260040180836001600160a01b03166001600160a01b0316815260200182815260200192505050600060405180830381600087803b15801561240f57600080fd5b505af1158015612423573d6000803e3d6000fd5b50506040516001600160a01b038516925083156108fc02915083906000818181858888f1935050505015801561245d573d6000803e3d6000fd5b505050600101612346565b505050505050565b600a546040805163193ca33d60e31b815290516001600160a01b0390921691606091839163c9e519e891600480820192600092909190829003018186803b1580156124ba57600080fd5b505afa1580156124ce573d6000803e3d6000fd5b505050506040513d6000823e601f3d908101601f1916820160405260208110156124f757600080fd5b810190808051604051939291908464010000000082111561251757600080fd5b90830190602082018581111561252c57600080fd5b825186602082028301116401000000008211171561254957600080fd5b82525081516020918201928201910280838360005b8381101561257657818101518382015260200161255e565b50505050905001604052505050905060056007805490508251031161271557600060078054905082510390506060816040519080825280602002602001820160405280156125ce578160200160208202803883390190505b5090506000805b84518110156126f35760008582815181106125ec57fe5b6020908102919091018101516001600160a01b0381166000908152602490925260409091205490915060ff168061263057506000546001600160a01b038281169116145b8061265357506001600160a01b0381166000908152600d602052604090205460ff165b1561265e57506126eb565b604080516060810182526001808252600060208084018281528486018381526001600160a01b038816845260279092529490912092518354945115156101000261ff001991151560ff1990961695909517169390931782559151910155835181908590859081106126cb57fe5b6001600160a01b0390921660209283029190910190910152506001909101905b6001016125d5565b508151612707906008906020850190612b74565b50600b555061189392505050565b60608151600a02604051908082528060200260200182016040528015612745578160200160208202803883390190505b5090506000805b83518110156128b157600084828151811061276357fe5b6020908102919091018101516001600160a01b0381166000908152602490925260409091205490915060ff16806127a757506000546001600160a01b038281169116145b806127ca57506001600160a01b0381166000908152600d602052604090205460ff165b156127d557506128a9565b6000866001600160a01b03166351d0ea37836040518263ffffffff1660e01b815260040180826001600160a01b03166001600160a01b0316815260200191505060606040518083038186803b15801561282d57600080fd5b505afa158015612841573d6000803e3d6000fd5b505050506040513d606081101561285757600080fd5b50602001519050600a60ff82160460005b8160ff168110156128a4578387878151811061288057fe5b6001600160a01b039092166020928302919091019091015260019586019501612868565b505050505b60010161274c565b5060408051600580825260c082019092526060916020820160a080388339019050509050600060335b6005821080156128ed575060008160ff16115b15612a4b57600a5460408051426020808301919091523360601b82840152600160a01b90930460f01b6001600160f01b0319166054820152815180820360360181526056909101909152805191012060009085908161294857fe5b600a8054600161ffff600160a01b808404821692909201160261ffff60a01b199091161790558751919006915060009087908390811061298457fe5b6020908102919091018101516001600160a01b0381166000908152602790925260409091205490915060ff16612a4057604080516060810182526001808252600060208084018281528486018381526001600160a01b038816845260279092529490912092518354945115156101000261ff001991151560ff199096169590951716939093178255915191015584518190869086908110612a2157fe5b6001600160a01b03909216602092830291909101909101526001909301925b5050600019016128da565b8251612a5e906008906020860190612b74565b5050600b555050505050565b6040518060400160405280612a7d612a8f565b8152602001612a8a612a8f565b905290565b60405180608001604052806004906020820280388339509192915050565b8260048101928215612af5579160200282015b82811115612af557825182546001600160a01b0319166001600160a01b03909116178255602090920191600190910190612ac0565b50612b01929150612bc8565b5090565b8260048101928215612b33579160200282015b82811115612b33578251825591602001919060010190612b18565b50612b01929150612bec565b604080518082019091526000808252602082015290565b60405180604001604052806002906020820280388339509192915050565b828054828255906000526020600020908101928215612af55791602002820182811115612af557825182546001600160a01b0319166001600160a01b03909116178255602090920191600190910190612ac0565b610a4691905b80821115612b015780546001600160a01b0319168155600101612bce565b610a4691905b80821115612b015760008155600101612bf256fea265627a7a72315820a6d2600509d5872b1725f9a5b9a324962ec8f6aeb51d76b733edaa21d497795664736f6c63430005100032a265627a7a723158209890628bb62b2ec7464050e1e45bec3f4178cfeee25baa1dd57c1f384122144864736f6c63430005100032",
  "source": "// SPDX-License-Identifier: MIT\npragma solidity >=0.4.21 <=0.7.0;\nimport \"./Topic.sol\";\nimport \"./SafeMath.sol\";\n\ncontract PredictionMarket {\n    using SafeMath for uint256;\n    // Structs for users and arbitrators. Default scores = 100\n    struct Trader {\n        uint winScore;\n        uint loseScore;\n        bool isValid; \n    }\n\n    struct Arbitrator {\n        bytes32 displayName;\n        uint8 trustworthiness;\n        bool isValid;\n    }\n    // Maps of addresses to different entities\n    mapping (address => Trader) public traders;\n    mapping (address => Arbitrator) public arbitrators;\n    mapping (address => Topic) public marketTopics;\n\n    // Array of addresses of topics to return to front end\n    address[] topicAddresses;\n\n    // Array of addresses of arbitrators to return to front end\n    address payable[] arbitratorAddresses;\n\n    // Guard against reentrancy attacks\n    mapping (address => bool) transferredToWithinWindow;\n\n    // Struct create functions\n    function createTrader() public {\n        address id = msg.sender;\n        // // require that address has not been assigned to a trader\n        require(!traders[id].isValid);\n\n        // // create new trader with the default values\n        traders[id] = Trader(100, 100, true);\n    }\n\n    function createArbitrator(bytes32 _displayName) public {\n        address id = msg.sender;\n\n        // require that address has not been assigned to a arbitrator\n        require(!arbitrators[id].isValid);\n\n        // create new arbitrator with the default values\n        arbitrators[id] = Arbitrator(_displayName, 50, true);\n\n        arbitratorAddresses.push(address(uint160(id)));\n    }\n\n    function getAllArbitrators() public view returns (address payable[] memory) {\n        return arbitratorAddresses;\n    }\n\n    function getArbitratorName() public view returns (bytes32){\n        return arbitrators[msg.sender].displayName;\n    }\n\n    function getAllArbitratorNames() public view returns (bytes32[] memory) {\n        uint len = arbitratorAddresses.length;\n        bytes32[] memory names = new bytes32[](len);\n\n        for (uint i = 0; i < len; i++) {\n            address arbitratorAddress = arbitratorAddresses[i];\n            Arbitrator memory arbitrator = arbitrators[arbitratorAddress];\n            names[i] = arbitrator.displayName;\n        }\n        return names;\n    }\n\n    function getArbitratorReputations() public view returns (uint[] memory) {\n        uint len = arbitratorAddresses.length;\n        uint[] memory reputations = new uint[](len);\n\n        for (uint i = 0; i < len; i++) {\n            address arbitratorAddress = arbitratorAddresses[i];\n            Arbitrator memory arbitrator = arbitrators[arbitratorAddress];\n            reputations[i] = arbitrator.trustworthiness;\n        }\n        return reputations;\n    }\n\n    //VOTER'S REPUTATION \n    function getVotersReputation(address id) public view returns (uint[2] memory){\n        require(traders[id].isValid);\n        return [traders[id].winScore, traders[id].loseScore];\n    }\n\n    // AUTHENTICATION\n    function checkIdentity() public view returns (bytes32) {\n        // Check if user is a trader\n        if(traders[msg.sender].isValid && arbitrators[msg.sender].isValid){\n            return bytes32(\"Trader and Arbitrator\");\n        }\n\n        // Check if user is a trader\n        if(traders[msg.sender].isValid){\n            return bytes32(\"Trader\");\n        }\n        // Check if user is an arbitrator\n        if(arbitrators[msg.sender].isValid){\n            return bytes32(\"Arbitrator\");\n        }\n        // If all the above fails, return invalid\n        return bytes32(\"Invalid\");\n    }\n\n    // Check if a trader is valid, this is called from external contracts/ views\n    // This function is for internal use between contracts only\n    function checkValidTrader(address trader) public view returns (bool) {\n        return traders[trader].isValid;\n    }\n\n\n    // Topics\n    function createTopic(\n        string memory name, string memory description, bytes32[] memory options, uint256 expiryDate, address payable[] memory selectedArbitrators\n    ) public payable\n        {\n        address payable creatorId = msg.sender;\n\n        // Creator must have a trader account\n        require(traders[creatorId].isValid);\n\n        // Must have value above 0 ETH for payment of creation bond\n        require(msg.value > 0 ether);\n\n        // selected arbitrators must have arbitrator account and creator must not select himself as an arbitrator\n        require(areValidArbitrators(creatorId, selectedArbitrators));\n\n        uint bondValue = msg.value;\n        Topic newTopic = new Topic(creatorId, name, description, options, bondValue, expiryDate, selectedArbitrators, address(this));\n        address payable topicAddress = address(uint160(address(newTopic))); // to cast from address to address payable\n        marketTopics[topicAddress] = newTopic;\n        topicAddresses.push(topicAddress);\n    }\n\n    function getAllTopics() public view returns (address[] memory) {\n        return topicAddresses;\n    }\n\n    function areValidArbitrators(address payable creatorId, address payable[] memory selectedArbitrators) internal view returns (bool) {\n        uint numSelectedArbitrators = selectedArbitrators.length;\n        for (uint i = 0; i < numSelectedArbitrators; i++) {\n            address arbitrator = selectedArbitrators[i];\n            if (!arbitrators[arbitrator].isValid || creatorId == arbitrator) {\n                return false;\n            }\n        }\n        return true;\n    }\n\n    function updateWinScore(address winnerAddress, uint amount) public {\n        // traders[winnerAddress].winScore += amount;\n        traders[winnerAddress].winScore = traders[winnerAddress].winScore.add(amount);\n    }\n\n    function getWinScore(address winnerAddress) public view returns (uint){\n        Trader storage winner = traders[winnerAddress];\n        return winner.winScore;\n    }\n\n    function updateLoseScore(address loserAddress, uint amount) public {\n        // traders[loserAddress].loseScore += amount;\n        traders[loserAddress].loseScore = traders[loserAddress].loseScore.add(amount);\n    }\n\n    function getLoseScore(address loserAddress) public view returns (uint){\n        Trader storage loser = traders[loserAddress];\n        return loser.loseScore;\n    }\n\n    // Transfer creator bond function\n    function transferCreatorBond(address payable targetAddress, uint bondValue) external payable {\n        if (!transferredToWithinWindow[targetAddress]) {\n            transferredToWithinWindow[targetAddress] = true;\n            targetAddress.transfer(bondValue);\n            transferredToWithinWindow[targetAddress] = false;\n        }\n    }\n\n    function updateHonestTrustworthiness(address honestArb) public {\n        if (arbitrators[honestArb].trustworthiness < 100) {\n            arbitrators[honestArb].trustworthiness += 5;\n        } \n    }\n\n    function updateDishonestTrustworthiness(address dishonestArb) public {\n        arbitrators[dishonestArb].trustworthiness -= arbitrators[dishonestArb].trustworthiness;\n    }\n\n    function getTrustworthinessScore(address arbitrator) public view returns (uint){\n        return arbitrators[arbitrator].trustworthiness;\n    }\n\n    function getCreatorAddress(address topicAddress) public view returns (address payable) {\n        return marketTopics[topicAddress].topicCreator();\n    }\n\n    function getName(address topicAddress) public view returns (string memory) {\n        return marketTopics[topicAddress].name();\n    }\n\n    function getDescription(address topicAddress) public view returns (string memory) {\n        return marketTopics[topicAddress].description();\n    }\n\n    function getOptions(address topicAddress) public view returns (bytes32[] memory) {\n        return marketTopics[topicAddress].getOptions();\n    }\n\n    function getMarketCap(address topicAddress) public view returns (uint) {\n        return marketTopics[topicAddress].marketCap();\n    }\n\n    function getCreatorBond(address topicAddress) public view returns (uint) {\n        return marketTopics[topicAddress].creatorBond();\n    }\n\n    function getExpiryDate(address topicAddress) public view returns (uint256) {\n        return marketTopics[topicAddress].expiryDate();\n    }\n\n    function getSelectedArbitrators(address topicAddress) public view returns (address payable[] memory) {\n        return marketTopics[topicAddress].getArbitrators();\n    }\n\n    function getCurrentBalance() public view returns (uint) {\n        return address(this).balance;\n    }\n\n}",
  "sourcePath": "/Users/gwynethang/Documents/Academics/Y4S1/Blockchain/Decentralised_Prediction_Market/contracts/PredictionMarket.sol",
  "compiler": {
    "name": "solc",
    "version": "0.5.16+commit.9c3226ce.Emscripten.clang"
  },
  "schemaVersion": "3.3.1",
  "updatedAt": "2020-11-01T03:11:28.953Z",
  "networkType": "ethereum",
  "devdoc": {
    "methods": {}
  },
  "userdoc": {
    "methods": {}
  }
}