{
  "contractName": "PredictionMarket",
  "abi": [
    {
      "anonymous": false,
      "inputs": [
        {
          "indexed": false,
          "internalType": "address",
          "name": "_topicAddress",
          "type": "address"
        }
      ],
      "name": "TopicCreated",
      "type": "event"
    },
    {
      "constant": true,
      "inputs": [
        {
          "internalType": "address",
          "name": "",
          "type": "address"
        }
      ],
      "name": "arbitrators",
      "outputs": [
        {
          "internalType": "bytes32",
          "name": "displayName",
          "type": "bytes32"
        },
        {
          "internalType": "uint8",
          "name": "trustworthiness",
          "type": "uint8"
        },
        {
          "internalType": "bool",
          "name": "isValid",
          "type": "bool"
        }
      ],
      "payable": false,
      "stateMutability": "view",
      "type": "function"
    },
    {
      "constant": true,
      "inputs": [
        {
          "internalType": "address",
          "name": "",
          "type": "address"
        }
      ],
      "name": "marketTopics",
      "outputs": [
        {
          "internalType": "contract Topic",
          "name": "",
          "type": "address"
        }
      ],
      "payable": false,
      "stateMutability": "view",
      "type": "function"
    },
    {
      "constant": true,
      "inputs": [
        {
          "internalType": "address",
          "name": "",
          "type": "address"
        }
      ],
      "name": "traders",
      "outputs": [
        {
          "internalType": "uint256",
          "name": "winScore",
          "type": "uint256"
        },
        {
          "internalType": "uint256",
          "name": "loseScore",
          "type": "uint256"
        },
        {
          "internalType": "bool",
          "name": "isValid",
          "type": "bool"
        }
      ],
      "payable": false,
      "stateMutability": "view",
      "type": "function"
    },
    {
      "constant": false,
      "inputs": [],
      "name": "createTrader",
      "outputs": [],
      "payable": false,
      "stateMutability": "nonpayable",
      "type": "function"
    },
    {
      "constant": false,
      "inputs": [
        {
          "internalType": "bytes32",
          "name": "_displayName",
          "type": "bytes32"
        }
      ],
      "name": "createArbitrator",
      "outputs": [],
      "payable": false,
      "stateMutability": "nonpayable",
      "type": "function"
    },
    {
      "constant": true,
      "inputs": [],
      "name": "getAllArbitrators",
      "outputs": [
        {
          "internalType": "address payable[]",
          "name": "",
          "type": "address[]"
        }
      ],
      "payable": false,
      "stateMutability": "view",
      "type": "function"
    },
    {
      "constant": true,
      "inputs": [],
      "name": "getAllArbitratorNames",
      "outputs": [
        {
          "internalType": "bytes32[]",
          "name": "",
          "type": "bytes32[]"
        }
      ],
      "payable": false,
      "stateMutability": "view",
      "type": "function"
    },
    {
      "constant": true,
      "inputs": [],
      "name": "checkIdentity",
      "outputs": [
        {
          "internalType": "bytes32",
          "name": "",
          "type": "bytes32"
        }
      ],
      "payable": false,
      "stateMutability": "view",
      "type": "function"
    },
    {
      "constant": false,
      "inputs": [
        {
          "internalType": "string",
          "name": "name",
          "type": "string"
        },
        {
          "internalType": "string",
          "name": "description",
          "type": "string"
        },
        {
          "internalType": "bytes32[]",
          "name": "options",
          "type": "bytes32[]"
        },
        {
          "internalType": "uint256",
          "name": "expiryDate",
          "type": "uint256"
        },
        {
          "internalType": "address payable[]",
          "name": "selectedArbitrators",
          "type": "address[]"
        }
      ],
      "name": "createTopic",
      "outputs": [],
      "payable": true,
      "stateMutability": "payable",
      "type": "function"
    },
    {
      "constant": true,
      "inputs": [],
      "name": "getAllTopics",
      "outputs": [
        {
          "internalType": "address[]",
          "name": "",
          "type": "address[]"
        }
      ],
      "payable": false,
      "stateMutability": "view",
      "type": "function"
    },
    {
      "constant": true,
      "inputs": [
        {
          "internalType": "address",
          "name": "topicAddress",
          "type": "address"
        }
      ],
      "name": "getCreatorAddress",
      "outputs": [
        {
          "internalType": "address payable",
          "name": "",
          "type": "address"
        }
      ],
      "payable": false,
      "stateMutability": "view",
      "type": "function"
    },
    {
      "constant": true,
      "inputs": [
        {
          "internalType": "address",
          "name": "topicAddress",
          "type": "address"
        }
      ],
      "name": "getName",
      "outputs": [
        {
          "internalType": "string",
          "name": "",
          "type": "string"
        }
      ],
      "payable": false,
      "stateMutability": "view",
      "type": "function"
    },
    {
      "constant": true,
      "inputs": [
        {
          "internalType": "address",
          "name": "topicAddress",
          "type": "address"
        }
      ],
      "name": "getDescription",
      "outputs": [
        {
          "internalType": "string",
          "name": "",
          "type": "string"
        }
      ],
      "payable": false,
      "stateMutability": "view",
      "type": "function"
    },
    {
      "constant": true,
      "inputs": [
        {
          "internalType": "address",
          "name": "topicAddress",
          "type": "address"
        }
      ],
      "name": "getOptions",
      "outputs": [
        {
          "internalType": "bytes32[]",
          "name": "",
          "type": "bytes32[]"
        }
      ],
      "payable": false,
      "stateMutability": "view",
      "type": "function"
    },
    {
      "constant": true,
      "inputs": [
        {
          "internalType": "address",
          "name": "topicAddress",
          "type": "address"
        }
      ],
      "name": "getMarketCap",
      "outputs": [
        {
          "internalType": "uint256",
          "name": "",
          "type": "uint256"
        }
      ],
      "payable": false,
      "stateMutability": "view",
      "type": "function"
    },
    {
      "constant": true,
      "inputs": [
        {
          "internalType": "address",
          "name": "topicAddress",
          "type": "address"
        }
      ],
      "name": "getCreatorBond",
      "outputs": [
        {
          "internalType": "uint256",
          "name": "",
          "type": "uint256"
        }
      ],
      "payable": false,
      "stateMutability": "view",
      "type": "function"
    },
    {
      "constant": true,
      "inputs": [
        {
          "internalType": "address",
          "name": "topicAddress",
          "type": "address"
        }
      ],
      "name": "getExpiryDate",
      "outputs": [
        {
          "internalType": "uint256",
          "name": "",
          "type": "uint256"
        }
      ],
      "payable": false,
      "stateMutability": "view",
      "type": "function"
    },
    {
      "constant": true,
      "inputs": [
        {
          "internalType": "address",
          "name": "topicAddress",
          "type": "address"
        }
      ],
      "name": "getSelectedArbitrators",
      "outputs": [
        {
          "internalType": "address payable[]",
          "name": "",
          "type": "address[]"
        }
      ],
      "payable": false,
      "stateMutability": "view",
      "type": "function"
    },
    {
      "constant": true,
      "inputs": [],
      "name": "getCurrentBalance",
      "outputs": [
        {
          "internalType": "uint256",
          "name": "",
          "type": "uint256"
        }
      ],
      "payable": false,
      "stateMutability": "view",
      "type": "function"
    }
  ],
  "bytecode": "0x608060405234801561001057600080fd5b50614155806100206000396000f3fe6080604052600436106200012e5760003560e01c806386416f1411620000af578063c082c30c116200006d578063c082c30c14620009a5578063c86b21591462000a3a578063c9e519e81462000aa3578063d146d31d1462000b14578063e7c256b61462000b7d576200012e565b806386416f1414620007a057806392a88fa21462000811578063a5749710146200088c578063b227126814620008ba578063b4b1d9c714620008d4576200012e565b8063420d3ae811620000fd578063420d3ae814620005705780634de1c9e414620005af57806351d0ea3714620005dd5780635fd4b08a146200065e5780636f762d8a146200072f576200012e565b806302d54fbf1462000133578063158f3c1e14620001c85780631aa90abc146200045b5780633fd8667b1462000507575b600080fd5b3480156200014057600080fd5b5062000186600480360360208110156200015957600080fd5b81019080803573ffffffffffffffffffffffffffffffffffffffff16906020019092919050505062000c29565b604051808273ffffffffffffffffffffffffffffffffffffffff1673ffffffffffffffffffffffffffffffffffffffff16815260200191505060405180910390f35b62000459600480360360a0811015620001e057600080fd5b8101908080359060200190640100000000811115620001fe57600080fd5b8201836020820111156200021157600080fd5b803590602001918460018302840111640100000000831117156200023457600080fd5b91908080601f016020809104026020016040519081016040528093929190818152602001838380828437600081840152601f19601f820116905080830192505050505050509192919290803590602001906401000000008111156200029857600080fd5b820183602082011115620002ab57600080fd5b80359060200191846001830284011164010000000083111715620002ce57600080fd5b91908080601f016020809104026020016040519081016040528093929190818152602001838380828437600081840152601f19601f820116905080830192505050505050509192919290803590602001906401000000008111156200033257600080fd5b8201836020820111156200034557600080fd5b803590602001918460208302840111640100000000831117156200036857600080fd5b919080806020026020016040519081016040528093929190818152602001838360200280828437600081840152601f19601f8201169050808301925050505050505091929192908035906020019092919080359060200190640100000000811115620003d357600080fd5b820183602082011115620003e657600080fd5b803590602001918460208302840111640100000000831117156200040957600080fd5b919080806020026020016040519081016040528093929190818152602001838360200280828437600081840152601f19601f82011690508083019250505050505050919291929050505062000c5c565b005b3480156200046857600080fd5b50620004ae600480360360208110156200048157600080fd5b81019080803573ffffffffffffffffffffffffffffffffffffffff16906020019092919050505062001002565b6040518080602001828103825283818151815260200191508051906020019060200280838360005b83811015620004f3578082015181840152602081019050620004d6565b505050509050019250505060405180910390f35b3480156200051457600080fd5b506200055a600480360360208110156200052d57600080fd5b81019080803573ffffffffffffffffffffffffffffffffffffffff1690602001909291905050506200118d565b6040518082815260200191505060405180910390f35b3480156200057d57600080fd5b50620005ad600480360360208110156200059657600080fd5b810190808035906020019092919050505062001279565b005b348015620005bc57600080fd5b50620005c7620013f2565b6040518082815260200191505060405180910390f35b348015620005ea57600080fd5b5062000630600480360360208110156200060357600080fd5b81019080803573ffffffffffffffffffffffffffffffffffffffff16906020019092919050505062001518565b604051808481526020018360ff1660ff16815260200182151515158152602001935050505060405180910390f35b3480156200066b57600080fd5b50620006b1600480360360208110156200068457600080fd5b81019080803573ffffffffffffffffffffffffffffffffffffffff1690602001909291905050506200155c565b6040518080602001828103825283818151815260200191508051906020019080838360005b83811015620006f3578082015181840152602081019050620006d6565b50505050905090810190601f168015620007215780820380516001836020036101000a031916815260200191505b509250505060405180910390f35b3480156200073c57600080fd5b50620007476200170c565b6040518080602001828103825283818151815260200191508051906020019060200280838360005b838110156200078c5780820151818401526020810190506200076f565b505050509050019250505060405180910390f35b348015620007ad57600080fd5b50620007b862001868565b6040518080602001828103825283818151815260200191508051906020019060200280838360005b83811015620007fd578082015181840152602081019050620007e0565b505050509050019250505060405180910390f35b3480156200081e57600080fd5b5062000864600480360360208110156200083757600080fd5b81019080803573ffffffffffffffffffffffffffffffffffffffff169060200190929190505050620018f8565b6040518084815260200183815260200182151515158152602001935050505060405180910390f35b3480156200089957600080fd5b50620008a46200192f565b6040518082815260200191505060405180910390f35b348015620008c757600080fd5b50620008d262001937565b005b348015620008e157600080fd5b506200092760048036036020811015620008fa57600080fd5b81019080803573ffffffffffffffffffffffffffffffffffffffff16906020019092919050505062001a2e565b6040518080602001828103825283818151815260200191508051906020019080838360005b83811015620009695780820151818401526020810190506200094c565b50505050905090810190601f168015620009975780820380516001836020036101000a031916815260200191505b509250505060405180910390f35b348015620009b257600080fd5b50620009f860048036036020811015620009cb57600080fd5b81019080803573ffffffffffffffffffffffffffffffffffffffff16906020019092919050505062001bde565b604051808273ffffffffffffffffffffffffffffffffffffffff1673ffffffffffffffffffffffffffffffffffffffff16815260200191505060405180910390f35b34801562000a4757600080fd5b5062000a8d6004803603602081101562000a6057600080fd5b81019080803573ffffffffffffffffffffffffffffffffffffffff16906020019092919050505062001cca565b6040518082815260200191505060405180910390f35b34801562000ab057600080fd5b5062000abb62001db6565b6040518080602001828103825283818151815260200191508051906020019060200280838360005b8381101562000b0057808201518184015260208101905062000ae3565b505050509050019250505060405180910390f35b34801562000b2157600080fd5b5062000b676004803603602081101562000b3a57600080fd5b81019080803573ffffffffffffffffffffffffffffffffffffffff16906020019092919050505062001e46565b6040518082815260200191505060405180910390f35b34801562000b8a57600080fd5b5062000bd06004803603602081101562000ba357600080fd5b81019080803573ffffffffffffffffffffffffffffffffffffffff16906020019092919050505062001f32565b6040518080602001828103825283818151815260200191508051906020019060200280838360005b8381101562000c1557808201518184015260208101905062000bf8565b505050509050019250505060405180910390f35b60026020528060005260406000206000915054906101000a900473ffffffffffffffffffffffffffffffffffffffff1681565b60003390506000341162000c6f57600080fd5b62000c7b8183620020bd565b62000c8557600080fd5b60003490506000828888888589893060405162000ca290620021a3565b808973ffffffffffffffffffffffffffffffffffffffff1673ffffffffffffffffffffffffffffffffffffffff168152602001806020018060200180602001888152602001878152602001806020018673ffffffffffffffffffffffffffffffffffffffff1673ffffffffffffffffffffffffffffffffffffffff16815260200185810385528c818151815260200191508051906020019080838360005b8381101562000d5d57808201518184015260208101905062000d40565b50505050905090810190601f16801562000d8b5780820380516001836020036101000a031916815260200191505b5085810384528b818151815260200191508051906020019080838360005b8381101562000dc657808201518184015260208101905062000da9565b50505050905090810190601f16801562000df45780820380516001836020036101000a031916815260200191505b5085810383528a818151815260200191508051906020019060200280838360005b8381101562000e3257808201518184015260208101905062000e15565b50505050905001858103825287818151815260200191508051906020019060200280838360005b8381101562000e7657808201518184015260208101905062000e59565b505050509050019c50505050505050505050505050604051809103906000f08015801562000ea8573d6000803e3d6000fd5b509050600081905081600260008373ffffffffffffffffffffffffffffffffffffffff1673ffffffffffffffffffffffffffffffffffffffff16815260200190815260200160002060006101000a81548173ffffffffffffffffffffffffffffffffffffffff021916908373ffffffffffffffffffffffffffffffffffffffff16021790555060038190806001815401808255809150509060018203906000526020600020016000909192909190916101000a81548173ffffffffffffffffffffffffffffffffffffffff021916908373ffffffffffffffffffffffffffffffffffffffff160217905550507f3c1b2955a570d7b24867f47b5827c8c97e344bed881c4519bad1dd91656279da81604051808273ffffffffffffffffffffffffffffffffffffffff1673ffffffffffffffffffffffffffffffffffffffff16815260200191505060405180910390a1505050505050505050565b6060600260008373ffffffffffffffffffffffffffffffffffffffff1673ffffffffffffffffffffffffffffffffffffffff16815260200190815260200160002060009054906101000a900473ffffffffffffffffffffffffffffffffffffffff1673ffffffffffffffffffffffffffffffffffffffff1663894c3b1f6040518163ffffffff1660e01b815260040160006040518083038186803b158015620010aa57600080fd5b505afa158015620010bf573d6000803e3d6000fd5b505050506040513d6000823e3d601f19601f820116820180604052506020811015620010ea57600080fd5b81019080805160405193929190846401000000008211156200110b57600080fd5b838201915060208201858111156200112257600080fd5b82518660208202830111640100000000821117156200114057600080fd5b8083526020830192505050908051906020019060200280838360005b83811015620011795780820151818401526020810190506200115c565b505050509050016040525050509050919050565b6000600260008373ffffffffffffffffffffffffffffffffffffffff1673ffffffffffffffffffffffffffffffffffffffff16815260200190815260200160002060009054906101000a900473ffffffffffffffffffffffffffffffffffffffff1673ffffffffffffffffffffffffffffffffffffffff1663459d6e4f6040518163ffffffff1660e01b815260040160206040518083038186803b1580156200123557600080fd5b505afa1580156200124a573d6000803e3d6000fd5b505050506040513d60208110156200126157600080fd5b81019080805190602001909291905050509050919050565b6000339050600160008273ffffffffffffffffffffffffffffffffffffffff1673ffffffffffffffffffffffffffffffffffffffff16815260200190815260200160002060010160019054906101000a900460ff1615620012d957600080fd5b6040518060600160405280838152602001603260ff16815260200160011515815250600160008373ffffffffffffffffffffffffffffffffffffffff1673ffffffffffffffffffffffffffffffffffffffff1681526020019081526020016000206000820151816000015560208201518160010160006101000a81548160ff021916908360ff16021790555060408201518160010160016101000a81548160ff02191690831515021790555090505060048190806001815401808255809150509060018203906000526020600020016000909192909190916101000a81548173ffffffffffffffffffffffffffffffffffffffff021916908373ffffffffffffffffffffffffffffffffffffffff160217905550505050565b60008060003373ffffffffffffffffffffffffffffffffffffffff1673ffffffffffffffffffffffffffffffffffffffff16815260200190815260200160002060020160009054906101000a900460ff161562001472577f5472616465720000000000000000000000000000000000000000000000000000905062001515565b600160003373ffffffffffffffffffffffffffffffffffffffff1673ffffffffffffffffffffffffffffffffffffffff16815260200190815260200160002060010160019054906101000a900460ff1615620014f1577f41726269747261746f7200000000000000000000000000000000000000000000905062001515565b7f496e76616c69640000000000000000000000000000000000000000000000000090505b90565b60016020528060005260406000206000915090508060000154908060010160009054906101000a900460ff16908060010160019054906101000a900460ff16905083565b6060600260008373ffffffffffffffffffffffffffffffffffffffff1673ffffffffffffffffffffffffffffffffffffffff16815260200190815260200160002060009054906101000a900473ffffffffffffffffffffffffffffffffffffffff1673ffffffffffffffffffffffffffffffffffffffff166306fdde036040518163ffffffff1660e01b815260040160006040518083038186803b1580156200160457600080fd5b505afa15801562001619573d6000803e3d6000fd5b505050506040513d6000823e3d601f19601f8201168201806040525060208110156200164457600080fd5b81019080805160405193929190846401000000008211156200166557600080fd5b838201915060208201858111156200167c57600080fd5b82518660018202830111640100000000821117156200169a57600080fd5b8083526020830192505050908051906020019080838360005b83811015620016d0578082015181840152602081019050620016b3565b50505050905090810190601f168015620016fe5780820380516001836020036101000a031916815260200191505b506040525050509050919050565b6060600060048054905090506060816040519080825280602002602001820160405280156200174a5781602001602082028038833980820191505090505b50905060008090505b828110156200185f576000600482815481106200176c57fe5b9060005260206000200160009054906101000a900473ffffffffffffffffffffffffffffffffffffffff169050620017a3620021b1565b600160008373ffffffffffffffffffffffffffffffffffffffff1673ffffffffffffffffffffffffffffffffffffffff168152602001908152602001600020604051806060016040529081600082015481526020016001820160009054906101000a900460ff1660ff1660ff1681526020016001820160019054906101000a900460ff161515151581525050905080600001518484815181106200184357fe5b6020026020010181815250505050808060010191505062001753565b50809250505090565b60606003805480602002602001604051908101604052809291908181526020018280548015620018ee57602002820191906000526020600020905b8160009054906101000a900473ffffffffffffffffffffffffffffffffffffffff1673ffffffffffffffffffffffffffffffffffffffff1681526020019060010190808311620018a3575b5050505050905090565b60006020528060005260406000206000915090508060000154908060010154908060020160009054906101000a900460ff16905083565b600047905090565b60003390506000808273ffffffffffffffffffffffffffffffffffffffff1673ffffffffffffffffffffffffffffffffffffffff16815260200190815260200160002060020160009054906101000a900460ff16156200199657600080fd5b60405180606001604052806064815260200160648152602001600115158152506000808373ffffffffffffffffffffffffffffffffffffffff1673ffffffffffffffffffffffffffffffffffffffff168152602001908152602001600020600082015181600001556020820151816001015560408201518160020160006101000a81548160ff02191690831515021790555090505050565b6060600260008373ffffffffffffffffffffffffffffffffffffffff1673ffffffffffffffffffffffffffffffffffffffff16815260200190815260200160002060009054906101000a900473ffffffffffffffffffffffffffffffffffffffff1673ffffffffffffffffffffffffffffffffffffffff16637284e4166040518163ffffffff1660e01b815260040160006040518083038186803b15801562001ad657600080fd5b505afa15801562001aeb573d6000803e3d6000fd5b505050506040513d6000823e3d601f19601f82011682018060405250602081101562001b1657600080fd5b810190808051604051939291908464010000000082111562001b3757600080fd5b8382019150602082018581111562001b4e57600080fd5b825186600182028301116401000000008211171562001b6c57600080fd5b8083526020830192505050908051906020019080838360005b8381101562001ba257808201518184015260208101905062001b85565b50505050905090810190601f16801562001bd05780820380516001836020036101000a031916815260200191505b506040525050509050919050565b6000600260008373ffffffffffffffffffffffffffffffffffffffff1673ffffffffffffffffffffffffffffffffffffffff16815260200190815260200160002060009054906101000a900473ffffffffffffffffffffffffffffffffffffffff1673ffffffffffffffffffffffffffffffffffffffff1663fbcc1e716040518163ffffffff1660e01b815260040160206040518083038186803b15801562001c8657600080fd5b505afa15801562001c9b573d6000803e3d6000fd5b505050506040513d602081101562001cb257600080fd5b81019080805190602001909291905050509050919050565b6000600260008373ffffffffffffffffffffffffffffffffffffffff1673ffffffffffffffffffffffffffffffffffffffff16815260200190815260200160002060009054906101000a900473ffffffffffffffffffffffffffffffffffffffff1673ffffffffffffffffffffffffffffffffffffffff1663516dde436040518163ffffffff1660e01b815260040160206040518083038186803b15801562001d7257600080fd5b505afa15801562001d87573d6000803e3d6000fd5b505050506040513d602081101562001d9e57600080fd5b81019080805190602001909291905050509050919050565b6060600480548060200260200160405190810160405280929190818152602001828054801562001e3c57602002820191906000526020600020905b8160009054906101000a900473ffffffffffffffffffffffffffffffffffffffff1673ffffffffffffffffffffffffffffffffffffffff168152602001906001019080831162001df1575b5050505050905090565b6000600260008373ffffffffffffffffffffffffffffffffffffffff1673ffffffffffffffffffffffffffffffffffffffff16815260200190815260200160002060009054906101000a900473ffffffffffffffffffffffffffffffffffffffff1673ffffffffffffffffffffffffffffffffffffffff16632c135b936040518163ffffffff1660e01b815260040160206040518083038186803b15801562001eee57600080fd5b505afa15801562001f03573d6000803e3d6000fd5b505050506040513d602081101562001f1a57600080fd5b81019080805190602001909291905050509050919050565b6060600260008373ffffffffffffffffffffffffffffffffffffffff1673ffffffffffffffffffffffffffffffffffffffff16815260200190815260200160002060009054906101000a900473ffffffffffffffffffffffffffffffffffffffff1673ffffffffffffffffffffffffffffffffffffffff1663cc2ee1966040518163ffffffff1660e01b815260040160006040518083038186803b15801562001fda57600080fd5b505afa15801562001fef573d6000803e3d6000fd5b505050506040513d6000823e3d601f19601f8201168201806040525060208110156200201a57600080fd5b81019080805160405193929190846401000000008211156200203b57600080fd5b838201915060208201858111156200205257600080fd5b82518660208202830111640100000000821117156200207057600080fd5b8083526020830192505050908051906020019060200280838360005b83811015620020a95780820151818401526020810190506200208c565b505050509050016040525050509050919050565b6000808251905060008090505b8181101562002196576000848281518110620020e257fe5b60200260200101519050600160008273ffffffffffffffffffffffffffffffffffffffff1673ffffffffffffffffffffffffffffffffffffffff16815260200190815260200160002060010160019054906101000a900460ff1615806200217457508073ffffffffffffffffffffffffffffffffffffffff168673ffffffffffffffffffffffffffffffffffffffff16145b156200218757600093505050506200219d565b508080600101915050620020ca565b5060019150505b92915050565b611f4680620021db83390190565b604051806060016040528060008019168152602001600060ff168152602001600015158152509056fe60806040526000601960006101000a81548160ff021916908360038111156200002457fe5b021790555060405162001f4638038062001f4683398181016040526101008110156200004f57600080fd5b8101908080519060200190929190805160405193929190846401000000008211156200007a57600080fd5b838201915060208201858111156200009157600080fd5b8251866001820283011164010000000082111715620000af57600080fd5b8083526020830192505050908051906020019080838360005b83811015620000e5578082015181840152602081019050620000c8565b50505050905090810190601f168015620001135780820380516001836020036101000a031916815260200191505b50604052602001805160405193929190846401000000008211156200013757600080fd5b838201915060208201858111156200014e57600080fd5b82518660018202830111640100000000821117156200016c57600080fd5b8083526020830192505050908051906020019080838360005b83811015620001a257808201518184015260208101905062000185565b50505050905090810190601f168015620001d05780820380516001836020036101000a031916815260200191505b5060405260200180516040519392919084640100000000821115620001f457600080fd5b838201915060208201858111156200020b57600080fd5b82518660208202830111640100000000821117156200022957600080fd5b8083526020830192505050908051906020019060200280838360005b838110156200026257808201518184015260208101905062000245565b50505050905001604052602001805190602001909291908051906020019092919080516040519392919084640100000000821115620002a057600080fd5b83820191506020820185811115620002b757600080fd5b8251866020820283011164010000000082111715620002d557600080fd5b8083526020830192505050908051906020019060200280838360005b838110156200030e578082015181840152602081019050620002f1565b505050509050016040526020018051906020019092919050505080600960006101000a81548173ffffffffffffffffffffffffffffffffffffffff021916908373ffffffffffffffffffffffffffffffffffffffff160217905550876000806101000a81548173ffffffffffffffffffffffffffffffffffffffff021916908373ffffffffffffffffffffffffffffffffffffffff1602179055508660019080519060200190620003c19291906200058c565b508560029080519060200190620003da9291906200058c565b508460039080519060200190620003f392919062000613565b506000600481905550836005819055508260068190555081600790805190602001906200042292919062000665565b506017600960146101000a81548161ffff021916908361ffff16021790555060008090505b8551811015620004f257604051806040016040528060008152602001600073ffffffffffffffffffffffffffffffffffffffff16815250600c82600481106200048c57fe5b600202016000820151816000015560208201518160010160006101000a81548173ffffffffffffffffffffffffffffffffffffffff021916908373ffffffffffffffffffffffffffffffffffffffff160217905550905050808060010191505062000447565b5060008090505b82518110156200057d576001600a60008584815181106200051657fe5b602002602001015173ffffffffffffffffffffffffffffffffffffffff1673ffffffffffffffffffffffffffffffffffffffff16815260200190815260200160002060006101000a81548160ff0219169083151502179055508080600101915050620004f9565b5050505050505050506200078a565b828054600181600116156101000203166002900490600052602060002090601f016020900481019282601f10620005cf57805160ff191683800117855562000600565b8280016001018555821562000600579182015b82811115620005ff578251825591602001919060010190620005e2565b5b5090506200060f9190620006f4565b5090565b82805482825590600052602060002090810192821562000652579160200282015b828111156200065157825182559160200191906001019062000634565b5b5090506200066191906200071c565b5090565b828054828255906000526020600020908101928215620006e1579160200282015b82811115620006e05782518260006101000a81548173ffffffffffffffffffffffffffffffffffffffff021916908373ffffffffffffffffffffffffffffffffffffffff1602179055509160200191906001019062000686565b5b509050620006f0919062000744565b5090565b6200071991905b8082111562000715576000816000905550600101620006fb565b5090565b90565b6200074191905b808211156200073d57600081600090555060010162000723565b5090565b90565b6200078791905b808211156200078357600081816101000a81549073ffffffffffffffffffffffffffffffffffffffff0219169055506001016200074b565b5090565b90565b6117ac806200079a6000396000f3fe6080604052600436106101145760003560e01c8063722713f7116100a057806395e56a841161006457806395e56a8414610593578063a6430cc0146105ff578063a83231761461067a578063cc2ee19614610691578063fbcc1e71146106fd57610114565b8063722713f7146103da5780637284e41614610405578063729ecb071461049557806376bb984b14610510578063894c3b1f1461052757610114565b8063409e2205116100e7578063409e220514610279578063459d6e4f146102c8578063465be85f146102f3578063509bd3371461035f578063516dde43146103af57610114565b806306fdde0314610119578063288fa802146101a95780632c135b93146102155780632d97816314610240575b600080fd5b34801561012557600080fd5b5061012e610754565b6040518080602001828103825283818151815260200191508051906020019080838360005b8381101561016e578082015181840152602081019050610153565b50505050905090810190601f16801561019b5780820380516001836020036101000a031916815260200191505b509250505060405180910390f35b3480156101b557600080fd5b506101be6107f2565b6040518080602001828103825283818151815260200191508051906020019060200280838360005b838110156102015780820151818401526020810190506101e6565b505050509050019250505060405180910390f35b34801561022157600080fd5b5061022a610882565b6040518082815260200191505060405180910390f35b34801561024c57600080fd5b50610255610888565b6040518082600381111561026557fe5b60ff16815260200191505060405180910390f35b34801561028557600080fd5b506102b26004803603602081101561029c57600080fd5b810190808035906020019092919050505061089b565b6040518082815260200191505060405180910390f35b3480156102d457600080fd5b506102dd6108bc565b6040518082815260200191505060405180910390f35b3480156102ff57600080fd5b506103086108c2565b6040518080602001828103825283818151815260200191508051906020019060200280838360005b8381101561034b578082015181840152602081019050610330565b505050509050019250505060405180910390f35b6103956004803603604081101561037557600080fd5b810190808035906020019092919080359060200190929190505050610950565b604051808215151515815260200191505060405180910390f35b3480156103bb57600080fd5b506103c4610d0f565b6040518082815260200191505060405180910390f35b3480156103e657600080fd5b506103ef610d15565b6040518082815260200191505060405180910390f35b34801561041157600080fd5b5061041a610d1d565b6040518080602001828103825283818151815260200191508051906020019080838360005b8381101561045a57808201518184015260208101905061043f565b50505050905090810190601f1680156104875780820380516001836020036101000a031916815260200191505b509250505060405180910390f35b3480156104a157600080fd5b506104ce600480360360208110156104b857600080fd5b8101908080359060200190929190505050610dbb565b604051808273ffffffffffffffffffffffffffffffffffffffff1673ffffffffffffffffffffffffffffffffffffffff16815260200191505060405180910390f35b34801561051c57600080fd5b50610525610df7565b005b34801561053357600080fd5b5061053c6113a1565b6040518080602001828103825283818151815260200191508051906020019060200280838360005b8381101561057f578082015181840152602081019050610564565b505050509050019250505060405180910390f35b34801561059f57600080fd5b506105a861142f565b6040518080602001828103825283818151815260200191508051906020019060200280838360005b838110156105eb5780820151818401526020810190506105d0565b505050509050019250505060405180910390f35b34801561060b57600080fd5b506106386004803603602081101561062257600080fd5b81019080803590602001909291905050506114b9565b604051808273ffffffffffffffffffffffffffffffffffffffff1673ffffffffffffffffffffffffffffffffffffffff16815260200191505060405180910390f35b34801561068657600080fd5b5061068f6114f5565b005b34801561069d57600080fd5b506106a6611523565b6040518080602001828103825283818151815260200191508051906020019060200280838360005b838110156106e95780820151818401526020810190506106ce565b505050509050019250505060405180910390f35b34801561070957600080fd5b5061071261157b565b604051808273ffffffffffffffffffffffffffffffffffffffff1673ffffffffffffffffffffffffffffffffffffffff16815260200191505060405180910390f35b60018054600181600116156101000203166002900480601f0160208091040260200160405190810160405280929190818152602001828054600181600116156101000203166002900480156107ea5780601f106107bf576101008083540402835291602001916107ea565b820191906000526020600020905b8154815290600101906020018083116107cd57829003601f168201915b505050505081565b606060006004905060608160405190808252806020026020018201604052801561082b5781602001602082028038833980820191505090505b50905060008090505b8281101561087957600c816004811061084957fe5b600202016000015460001b82828151811061086057fe5b6020026020010181815250508080600101915050610834565b50809250505090565b60045481565b601960009054906101000a900460ff1681565b600381815481106108a857fe5b906000526020600020016000915090505481565b60055481565b6060600880548060200260200160405190810160405280929190818152602001828054801561094657602002820191906000526020600020905b8160009054906101000a900473ffffffffffffffffffffffffffffffffffffffff1673ffffffffffffffffffffffffffffffffffffffff16815260200190600101908083116108fc575b5050505050905090565b600082600c836004811061096057fe5b60020201600001541061097257600080fd5b600c826004811061097f57fe5b6002020160010160009054906101000a900473ffffffffffffffffffffffffffffffffffffffff1673ffffffffffffffffffffffffffffffffffffffff166108fc600c84600481106109cd57fe5b60020201600001549081150290604051600060405180830381858888f19350505050158015610a00573d6000803e3d6000fd5b506000670de0b6b3a76400009050610a166115a0565b60008090505b6004811015610acb57848114610abe57600c8160048110610a3957fe5b600202016000015483039250600c8160048110610a5257fe5b6002020160010160009054906101000a900473ffffffffffffffffffffffffffffffffffffffff16828260048110610a8657fe5b602002019073ffffffffffffffffffffffffffffffffffffffff16908173ffffffffffffffffffffffffffffffffffffffff16815250505b8080600101915050610a1c565b50848211610c6a5733818560048110610ae057fe5b602002019073ffffffffffffffffffffffffffffffffffffffff16908173ffffffffffffffffffffffffffffffffffffffff1681525050610b1f6115c2565b604051806020016040528083815250905060188190806001815401808255809150509060018203906000526020600020906004020160009091929091909150600082015181600001906004610b759291906115db565b5050505060008090505b6004811015610bdd5785811415610ba8578360148260048110610b9e57fe5b0181905550610bd0565b600c8160048110610bb557fe5b600202016000015460148260048110610bca57fe5b01819055505b8080600101915050610b7f565b503373ffffffffffffffffffffffffffffffffffffffff166108fc8488039081150290604051600060405180830381858888f19350505050158015610c26573d6000803e3d6000fd5b5060008090505b6004811015610c5d576000600c8260048110610c4557fe5b60020201600001819055508080600101915050610c2d565b5060019350505050610d09565b610c72611658565b60405180604001604052808781526020013373ffffffffffffffffffffffffffffffffffffffff16815250905080600c8660048110610cad57fe5b600202016000820151816000015560208201518160010160006101000a81548173ffffffffffffffffffffffffffffffffffffffff021916908373ffffffffffffffffffffffffffffffffffffffff1602179055509050505050505b92915050565b60065481565b600047905090565b60028054600181600116156101000203166002900480601f016020809104026020016040519081016040528092919081815260200182805460018160011615610100020316600290048015610db35780601f10610d8857610100808354040283529160200191610db3565b820191906000526020600020905b815481529060010190602001808311610d9657829003601f168201915b505050505081565b60088181548110610dc857fe5b906000526020600020016000915054906101000a900473ffffffffffffffffffffffffffffffffffffffff1681565b6000600960009054906101000a900473ffffffffffffffffffffffffffffffffffffffff16905060608173ffffffffffffffffffffffffffffffffffffffff1663c9e519e86040518163ffffffff1660e01b815260040160006040518083038186803b158015610e6657600080fd5b505afa158015610e7a573d6000803e3d6000fd5b505050506040513d6000823e3d601f19601f820116820180604052506020811015610ea457600080fd5b8101908080516040519392919084640100000000821115610ec457600080fd5b83820191506020820185811115610eda57600080fd5b8251866020820283011164010000000082111715610ef757600080fd5b8083526020830192505050908051906020019060200280838360005b83811015610f2e578082015181840152602081019050610f13565b5050505090500160405250505090506060600a825102604051908082528060200260200182016040528015610f725781602001602082028038833980820191505090505b509050600080905060008090505b835181101561115f576000848281518110610f9757fe5b60200260200101519050600a60008273ffffffffffffffffffffffffffffffffffffffff1673ffffffffffffffffffffffffffffffffffffffff16815260200190815260200160002060009054906101000a900460ff1615610ff95750611152565b60008673ffffffffffffffffffffffffffffffffffffffff166351d0ea37836040518263ffffffff1660e01b8152600401808273ffffffffffffffffffffffffffffffffffffffff1673ffffffffffffffffffffffffffffffffffffffff16815260200191505060606040518083038186803b15801561107857600080fd5b505afa15801561108c573d6000803e3d6000fd5b505050506040513d60608110156110a257600080fd5b81019080805190602001909291908051906020019092919080519060200190929190505050509150506000600a60ff168260ff16816110dd57fe5b04905060008090505b8160ff1681101561114d57838787815181106110fe57fe5b602002602001019073ffffffffffffffffffffffffffffffffffffffff16908173ffffffffffffffffffffffffffffffffffffffff1681525050858060010196505080806001019150506110e6565b505050505b8080600101915050610f80565b50606060056040519080825280602002602001820160405280156111925781602001602082028038833980820191505090505b50905060008090505b6005811015611382576000834233600960149054906101000a900461ffff16604051602001808481526020018373ffffffffffffffffffffffffffffffffffffffff1673ffffffffffffffffffffffffffffffffffffffff1660601b81526014018261ffff1661ffff1660f01b815260020193505050506040516020818303038152906040528051906020012060001c8161123257fe5b0690506009601481819054906101000a900461ffff168092919060010191906101000a81548161ffff021916908361ffff16021790555050600085828151811061127857fe5b60200260200101519050600b60008273ffffffffffffffffffffffffffffffffffffffff1673ffffffffffffffffffffffffffffffffffffffff16815260200190815260200160002060009054906101000a900460ff1661137b576001600b60008373ffffffffffffffffffffffffffffffffffffffff1673ffffffffffffffffffffffffffffffffffffffff16815260200190815260200160002060006101000a81548160ff0219169083151502179055508084848151811061133857fe5b602002602001019073ffffffffffffffffffffffffffffffffffffffff16908173ffffffffffffffffffffffffffffffffffffffff168152505082806001019350505b505061119b565b8160089080519060200190611398929190611688565b50505050505050565b6060600780548060200260200160405190810160405280929190818152602001828054801561142557602002820191906000526020600020905b8160009054906101000a900473ffffffffffffffffffffffffffffffffffffffff1673ffffffffffffffffffffffffffffffffffffffff16815260200190600101908083116113db575b5050505050905090565b60606000600490506060816040519080825280602002602001820160405280156114685781602001602082028038833980820191505090505b50905060008090505b828110156114b0576014816004811061148657fe5b015460001b82828151811061149757fe5b6020026020010181815250508080600101915050611471565b50809250505090565b600781815481106114c657fe5b906000526020600020016000915054906101000a900473ffffffffffffffffffffffffffffffffffffffff1681565b6002601960006101000a81548160ff0219169083600381111561151457fe5b0217905550611521610df7565b565b6060600380548060200260200160405190810160405280929190818152602001828054801561157157602002820191906000526020600020905b81548152602001906001019080831161155d575b5050505050905090565b6000809054906101000a900473ffffffffffffffffffffffffffffffffffffffff1681565b6040518060800160405280600490602082028038833980820191505090505090565b60405180602001604052806115d5611712565b81525090565b8260048101928215611647579160200282015b828111156116465782518260006101000a81548173ffffffffffffffffffffffffffffffffffffffff021916908373ffffffffffffffffffffffffffffffffffffffff160217905550916020019190600101906115ee565b5b5090506116549190611734565b5090565b604051806040016040528060008152602001600073ffffffffffffffffffffffffffffffffffffffff1681525090565b828054828255906000526020600020908101928215611701579160200282015b828111156117005782518260006101000a81548173ffffffffffffffffffffffffffffffffffffffff021916908373ffffffffffffffffffffffffffffffffffffffff160217905550916020019190600101906116a8565b5b50905061170e9190611734565b5090565b6040518060800160405280600490602082028038833980820191505090505090565b61177491905b8082111561177057600081816101000a81549073ffffffffffffffffffffffffffffffffffffffff02191690555060010161173a565b5090565b9056fea265627a7a723158208c2bf720aef85dd5cc391387be2d92adc8e16976b8bf5f8faaee70fa87ad9e7c64736f6c63430005100032a265627a7a723158207da12759d182563ac6fa459c06af8d10a54c5eb88eadd2ae680bdf1a3b49da9964736f6c63430005100032",
  "source": "// SPDX-License-Identifier: MIT\npragma solidity >=0.4.21 <=0.7.0;\nimport \"./Topic.sol\";\n\ncontract PredictionMarket {\n    // Structs for users and arbitrators. Default scores = 100\n    struct Trader {\n        uint winScore;\n        uint loseScore;\n        bool isValid; \n    }\n\n    struct Arbitrator {\n        bytes32 displayName;\n        uint8 trustworthiness;\n        bool isValid;\n    }\n\n    // Maps of addresses to different entities\n    mapping (address => Trader) public traders;\n    mapping (address => Arbitrator) public arbitrators;\n    mapping (address => Topic) public marketTopics;\n\n    // Array of addresses of topics to return to front end\n    address[] topicAddresses;\n\n    // Array of addresses of arbitrators to return to front end\n    address payable[] arbitratorAddresses;\n\n    // Struct create functions\n    function createTrader() public {\n        address id = msg.sender;\n        // // require that address has not been assigned to a trader\n        require(!traders[id].isValid);\n\n        // // create new trader with the default values\n        traders[id] = Trader(100, 100, true);\n    }\n\n    function createArbitrator(bytes32 _displayName) public {\n        address id = msg.sender;\n\n        // require that address has not been assigned to a arbitrator\n        require(!arbitrators[id].isValid);\n\n        // create new arbitrator with the default values\n        arbitrators[id] = Arbitrator(_displayName, 50, true);\n\n        arbitratorAddresses.push(address(uint160(id)));\n    }\n\n    function getAllArbitrators() public view returns (address payable[] memory) {\n        return arbitratorAddresses;\n    }\n\n    function getAllArbitratorNames() public view returns (bytes32[] memory) {\n        uint len = arbitratorAddresses.length;\n        bytes32[] memory names = new bytes32[](len);\n\n        for (uint i = 0; i < len; i++) {\n            address arbitratorAddress = arbitratorAddresses[i];\n            Arbitrator memory arbitrator = arbitrators[arbitratorAddress];\n            names[i] = arbitrator.displayName;\n        }\n        return names;\n    }\n\n    // AUTHENTICATION\n    function checkIdentity() public view returns (bytes32) {\n        // Check if user is a trader\n        if(traders[msg.sender].isValid){\n            return bytes32(\"Trader\");\n        }\n        // Check if user is an arbitrator\n        if(arbitrators[msg.sender].isValid){\n            return bytes32(\"Arbitrator\");\n        }\n        // If all the above fails, return invalid\n        return bytes32(\"Invalid\");\n    }\n\n\n    // Topics\n    function createTopic(\n        string memory name, string memory description, bytes32[] memory options, uint256 expiryDate, address payable[] memory selectedArbitrators\n    ) public payable\n        {\n        address payable creatorId = msg.sender;\n\n        // Creator must have a trader account\n        // TODO: Commented out for testing purposes, uncomment when createTrader is implemented\n        // require(traders[creatorId].isValid);\n\n        // Must have value above 0 ETH for payment of creation bond\n        require(msg.value > 0 ether);\n\n        // selected arbitrators must have arbitrator account and creator must not select himself as an arbitrator\n        require(areValidArbitrators(creatorId, selectedArbitrators));\n\n        uint bondValue = msg.value;\n        Topic newTopic = new Topic(creatorId, name, description, options, bondValue, expiryDate, selectedArbitrators, address(this));\n        address payable topicAddress = address(uint160(address(newTopic))); // to cast from address to address payable\n        marketTopics[topicAddress] = newTopic;\n        topicAddresses.push(topicAddress);\n        emit TopicCreated(topicAddress);\n    }\n\n    function getAllTopics() public view returns (address[] memory) {\n        return topicAddresses;\n    }\n\n    function areValidArbitrators(address payable creatorId, address payable[] memory selectedArbitrators) internal view returns (bool) {\n        uint numSelectedArbitrators = selectedArbitrators.length;\n        for (uint i = 0; i < numSelectedArbitrators; i++) {\n            address arbitrator = selectedArbitrators[i];\n            if (!arbitrators[arbitrator].isValid || creatorId == arbitrator) {\n                return false;\n            }\n        }\n        return true;\n    }\n\n\n    // ===============================================================\n    // For testing purposes\n    // ===============================================================\n    event TopicCreated(address _topicAddress);\n\n    function getCreatorAddress(address topicAddress) public view returns (address payable) {\n        return marketTopics[topicAddress].topicCreator();\n    }\n\n    function getName(address topicAddress) public view returns (string memory) {\n        return marketTopics[topicAddress].name();\n    }\n\n    function getDescription(address topicAddress) public view returns (string memory) {\n        return marketTopics[topicAddress].description();\n    }\n\n    function getOptions(address topicAddress) public view returns (bytes32[] memory) {\n        return marketTopics[topicAddress].getOptions();\n    }\n\n    function getMarketCap(address topicAddress) public view returns (uint) {\n        return marketTopics[topicAddress].marketCap();\n    }\n\n    function getCreatorBond(address topicAddress) public view returns (uint) {\n        return marketTopics[topicAddress].creatorBond();\n    }\n\n    function getExpiryDate(address topicAddress) public view returns (uint256) {\n        return marketTopics[topicAddress].expiryDate();\n    }\n\n    function getSelectedArbitrators(address topicAddress) public view returns (address payable[] memory) {\n        return marketTopics[topicAddress].getArbitrators();\n    }\n\n    function getCurrentBalance() public view returns (uint) {\n        return address(this).balance;\n    }\n\n}",
  "sourcePath": "/Users/collinlim/Desktop/Desktop.nosync/School/CZ4153/Project/Decentralised_Prediction_Market/contracts/PredictionMarket.sol",
  "compiler": {
    "name": "solc",
    "version": "0.5.16+commit.9c3226ce.Emscripten.clang"
  },
  "schemaVersion": "3.2.5",
  "updatedAt": "2020-10-21T00:50:20.133Z",
  "networkType": "ethereum",
  "devdoc": {
    "methods": {}
  },
  "userdoc": {
    "methods": {}
  }
}