{
  "contractName": "PredictionMarket",
  "abi": [
    {
      "anonymous": false,
      "inputs": [
        {
          "indexed": false,
          "internalType": "address",
          "name": "_topicAddress",
          "type": "address"
        }
      ],
      "name": "TopicCreated",
      "type": "event"
    },
    {
      "constant": true,
      "inputs": [
        {
          "internalType": "address",
          "name": "",
          "type": "address"
        }
      ],
      "name": "arbitrators",
      "outputs": [
        {
          "internalType": "bytes32",
          "name": "displayName",
          "type": "bytes32"
        },
        {
          "internalType": "uint8",
          "name": "trustworthiness",
          "type": "uint8"
        },
        {
          "internalType": "bool",
          "name": "isValid",
          "type": "bool"
        }
      ],
      "payable": false,
      "stateMutability": "view",
      "type": "function"
    },
    {
      "constant": true,
      "inputs": [
        {
          "internalType": "address",
          "name": "",
          "type": "address"
        }
      ],
      "name": "marketTopics",
      "outputs": [
        {
          "internalType": "contract Topic",
          "name": "",
          "type": "address"
        }
      ],
      "payable": false,
      "stateMutability": "view",
      "type": "function"
    },
    {
      "constant": true,
      "inputs": [
        {
          "internalType": "address",
          "name": "",
          "type": "address"
        }
      ],
      "name": "traders",
      "outputs": [
        {
          "internalType": "uint256",
          "name": "winScore",
          "type": "uint256"
        },
        {
          "internalType": "uint256",
          "name": "loseScore",
          "type": "uint256"
        },
        {
          "internalType": "bool",
          "name": "isValid",
          "type": "bool"
        }
      ],
      "payable": false,
      "stateMutability": "view",
      "type": "function"
    },
    {
      "constant": false,
      "inputs": [],
      "name": "createTrader",
      "outputs": [],
      "payable": false,
      "stateMutability": "nonpayable",
      "type": "function"
    },
    {
      "constant": false,
      "inputs": [
        {
          "internalType": "bytes32",
          "name": "_displayName",
          "type": "bytes32"
        }
      ],
      "name": "createArbitrator",
      "outputs": [],
      "payable": false,
      "stateMutability": "nonpayable",
      "type": "function"
    },
    {
      "constant": true,
      "inputs": [],
      "name": "getAllArbitrators",
      "outputs": [
        {
          "internalType": "address payable[]",
          "name": "",
          "type": "address[]"
        }
      ],
      "payable": false,
      "stateMutability": "view",
      "type": "function"
    },
    {
      "constant": true,
      "inputs": [],
      "name": "getArbitratorName",
      "outputs": [
        {
          "internalType": "bytes32",
          "name": "",
          "type": "bytes32"
        }
      ],
      "payable": false,
      "stateMutability": "view",
      "type": "function"
    },
    {
      "constant": true,
      "inputs": [],
      "name": "getAllArbitratorNames",
      "outputs": [
        {
          "internalType": "bytes32[]",
          "name": "",
          "type": "bytes32[]"
        }
      ],
      "payable": false,
      "stateMutability": "view",
      "type": "function"
    },
    {
      "constant": true,
      "inputs": [],
      "name": "getArbitratorReputations",
      "outputs": [
        {
          "internalType": "uint256[]",
          "name": "",
          "type": "uint256[]"
        }
      ],
      "payable": false,
      "stateMutability": "view",
      "type": "function"
    },
    {
      "constant": true,
      "inputs": [
        {
          "internalType": "address",
          "name": "id",
          "type": "address"
        }
      ],
      "name": "getVotersReputation",
      "outputs": [
        {
          "internalType": "uint256[2]",
          "name": "",
          "type": "uint256[2]"
        }
      ],
      "payable": false,
      "stateMutability": "view",
      "type": "function"
    },
    {
      "constant": true,
      "inputs": [],
      "name": "checkIdentity",
      "outputs": [
        {
          "internalType": "bytes32",
          "name": "",
          "type": "bytes32"
        }
      ],
      "payable": false,
      "stateMutability": "view",
      "type": "function"
    },
    {
      "constant": true,
      "inputs": [
        {
          "internalType": "address",
          "name": "trader",
          "type": "address"
        }
      ],
      "name": "checkValidTrader",
      "outputs": [
        {
          "internalType": "bool",
          "name": "",
          "type": "bool"
        }
      ],
      "payable": false,
      "stateMutability": "view",
      "type": "function"
    },
    {
      "constant": false,
      "inputs": [
        {
          "internalType": "string",
          "name": "name",
          "type": "string"
        },
        {
          "internalType": "string",
          "name": "description",
          "type": "string"
        },
        {
          "internalType": "bytes32[]",
          "name": "options",
          "type": "bytes32[]"
        },
        {
          "internalType": "uint256",
          "name": "expiryDate",
          "type": "uint256"
        },
        {
          "internalType": "address payable[]",
          "name": "selectedArbitrators",
          "type": "address[]"
        }
      ],
      "name": "createTopic",
      "outputs": [],
      "payable": true,
      "stateMutability": "payable",
      "type": "function"
    },
    {
      "constant": true,
      "inputs": [],
      "name": "getAllTopics",
      "outputs": [
        {
          "internalType": "address[]",
          "name": "",
          "type": "address[]"
        }
      ],
      "payable": false,
      "stateMutability": "view",
      "type": "function"
    },
    {
      "constant": false,
      "inputs": [
        {
          "internalType": "address",
          "name": "winnerAddress",
          "type": "address"
        }
      ],
      "name": "updateWinScore",
      "outputs": [],
      "payable": false,
      "stateMutability": "nonpayable",
      "type": "function"
    },
    {
      "constant": true,
      "inputs": [
        {
          "internalType": "address",
          "name": "winnerAddress",
          "type": "address"
        }
      ],
      "name": "getWinScore",
      "outputs": [
        {
          "internalType": "uint256",
          "name": "",
          "type": "uint256"
        }
      ],
      "payable": false,
      "stateMutability": "view",
      "type": "function"
    },
    {
      "constant": false,
      "inputs": [
        {
          "internalType": "address",
          "name": "loserAddress",
          "type": "address"
        }
      ],
      "name": "updateLoseScore",
      "outputs": [],
      "payable": false,
      "stateMutability": "nonpayable",
      "type": "function"
    },
    {
      "constant": true,
      "inputs": [
        {
          "internalType": "address",
          "name": "loserAddress",
          "type": "address"
        }
      ],
      "name": "getLoseScore",
      "outputs": [
        {
          "internalType": "uint256",
          "name": "",
          "type": "uint256"
        }
      ],
      "payable": false,
      "stateMutability": "view",
      "type": "function"
    },
    {
      "constant": false,
      "inputs": [
        {
          "internalType": "address payable",
          "name": "targetAddress",
          "type": "address"
        },
        {
          "internalType": "uint256",
          "name": "bondValue",
          "type": "uint256"
        }
      ],
      "name": "transferCreatorBond",
      "outputs": [],
      "payable": true,
      "stateMutability": "payable",
      "type": "function"
    },
    {
      "constant": true,
      "inputs": [
        {
          "internalType": "address",
          "name": "topicAddress",
          "type": "address"
        }
      ],
      "name": "getCreatorAddress",
      "outputs": [
        {
          "internalType": "address payable",
          "name": "",
          "type": "address"
        }
      ],
      "payable": false,
      "stateMutability": "view",
      "type": "function"
    },
    {
      "constant": true,
      "inputs": [
        {
          "internalType": "address",
          "name": "topicAddress",
          "type": "address"
        }
      ],
      "name": "getName",
      "outputs": [
        {
          "internalType": "string",
          "name": "",
          "type": "string"
        }
      ],
      "payable": false,
      "stateMutability": "view",
      "type": "function"
    },
    {
      "constant": true,
      "inputs": [
        {
          "internalType": "address",
          "name": "topicAddress",
          "type": "address"
        }
      ],
      "name": "getDescription",
      "outputs": [
        {
          "internalType": "string",
          "name": "",
          "type": "string"
        }
      ],
      "payable": false,
      "stateMutability": "view",
      "type": "function"
    },
    {
      "constant": true,
      "inputs": [
        {
          "internalType": "address",
          "name": "topicAddress",
          "type": "address"
        }
      ],
      "name": "getOptions",
      "outputs": [
        {
          "internalType": "bytes32[]",
          "name": "",
          "type": "bytes32[]"
        }
      ],
      "payable": false,
      "stateMutability": "view",
      "type": "function"
    },
    {
      "constant": true,
      "inputs": [
        {
          "internalType": "address",
          "name": "topicAddress",
          "type": "address"
        }
      ],
      "name": "getMarketCap",
      "outputs": [
        {
          "internalType": "uint256",
          "name": "",
          "type": "uint256"
        }
      ],
      "payable": false,
      "stateMutability": "view",
      "type": "function"
    },
    {
      "constant": true,
      "inputs": [
        {
          "internalType": "address",
          "name": "topicAddress",
          "type": "address"
        }
      ],
      "name": "getCreatorBond",
      "outputs": [
        {
          "internalType": "uint256",
          "name": "",
          "type": "uint256"
        }
      ],
      "payable": false,
      "stateMutability": "view",
      "type": "function"
    },
    {
      "constant": true,
      "inputs": [
        {
          "internalType": "address",
          "name": "topicAddress",
          "type": "address"
        }
      ],
      "name": "getExpiryDate",
      "outputs": [
        {
          "internalType": "uint256",
          "name": "",
          "type": "uint256"
        }
      ],
      "payable": false,
      "stateMutability": "view",
      "type": "function"
    },
    {
      "constant": true,
      "inputs": [
        {
          "internalType": "address",
          "name": "topicAddress",
          "type": "address"
        }
      ],
      "name": "getSelectedArbitrators",
      "outputs": [
        {
          "internalType": "address payable[]",
          "name": "",
          "type": "address[]"
        }
      ],
      "payable": false,
      "stateMutability": "view",
      "type": "function"
    },
    {
      "constant": true,
      "inputs": [],
      "name": "getCurrentBalance",
      "outputs": [
        {
          "internalType": "uint256",
          "name": "",
          "type": "uint256"
        }
      ],
      "payable": false,
      "stateMutability": "view",
      "type": "function"
    }
  ],
  "bytecode": "0x608060405234801561001057600080fd5b50614712806100206000396000f3fe608060405260043610620001e25760003560e01c80636f762d8a1162000103578063b755f3b31162000097578063c9e519e8116200006d578063c9e519e814620009bf578063cd1e0b6d14620009d7578063d146d31d1462000a0e578063e7c256b61462000a4557620001e2565b8063b755f3b31462000939578063c082c30c1462000951578063c86b2159146200098857620001e2565b80639ea630ba11620000d95780639ea630ba146200089b578063a574971014620008d2578063b227126814620008ea578063b4b1d9c7146200090257620001e2565b80636f762d8a146200081457806386416f14146200082c57806392a88fa2146200084457620001e2565b8063420d3ae8116200017b5780635fd4b08a11620001515780635fd4b08a14620006cb5780636215a16e146200077a5780636c8501a914620007c55780636e193a5914620007dd57620001e2565b8063420d3ae8146200062c5780634de1c9e4146200065a57806351d0ea37146200067257620001e2565b80632c2153ba11620001bd5780632c2153ba14620005095780632ea8e7ae14620005525780633d59f85b14620005815780633fd8667b14620005f557620001e2565b806302d54fbf14620001e7578063158f3c1e146200023a5780631aa90abc1462000480575b600080fd5b348015620001f457600080fd5b506200021e600480360360208110156200020d57600080fd5b50356001600160a01b031662000a7c565b604080516001600160a01b039092168252519081900360200190f35b6200047e600480360360a08110156200025257600080fd5b810190602081018135600160201b8111156200026d57600080fd5b8201836020820111156200028057600080fd5b803590602001918460018302840111600160201b83111715620002a257600080fd5b91908080601f0160208091040260200160405190810160405280939291908181526020018383808284376000920191909152509295949360208101935035915050600160201b811115620002f557600080fd5b8201836020820111156200030857600080fd5b803590602001918460018302840111600160201b831117156200032a57600080fd5b91908080601f0160208091040260200160405190810160405280939291908181526020018383808284376000920191909152509295949360208101935035915050600160201b8111156200037d57600080fd5b8201836020820111156200039057600080fd5b803590602001918460208302840111600160201b83111715620003b257600080fd5b91908080602002602001604051908101604052809392919081815260200183836020028082843760009201919091525092958435959094909350604081019250602001359050600160201b8111156200040a57600080fd5b8201836020820111156200041d57600080fd5b803590602001918460208302840111600160201b831117156200043f57600080fd5b91908080602002602001604051908101604052809392919081815260200183836020028082843760009201919091525092955062000a97945050505050565b005b3480156200048d57600080fd5b50620004b760048036036020811015620004a657600080fd5b50356001600160a01b031662000d61565b60408051602080825283518183015283519192839290830191858101910280838360005b83811015620004f5578181015183820152602001620004db565b505050509050019250505060405180910390f35b3480156200051657600080fd5b5062000540600480360360208110156200052f57600080fd5b50356001600160a01b031662000e89565b60408051918252519081900360200190f35b6200047e600480360360408110156200056a57600080fd5b506001600160a01b03813516906020013562000ea7565b3480156200058e57600080fd5b50620005b860048036036020811015620005a757600080fd5b50356001600160a01b031662000f3b565b6040518082600260200280838360005b83811015620005e2578181015183820152602001620005c8565b5050505090500191505060405180910390f35b3480156200060257600080fd5b5062000540600480360360208110156200061b57600080fd5b50356001600160a01b031662000fa5565b3480156200063957600080fd5b506200047e600480360360208110156200065257600080fd5b50356200102c565b3480156200066757600080fd5b5062000540620010fe565b3480156200067f57600080fd5b50620006a9600480360360208110156200069857600080fd5b50356001600160a01b0316620011d3565b6040805193845260ff9092166020840152151582820152519081900360600190f35b348015620006d857600080fd5b506200070260048036036020811015620006f157600080fd5b50356001600160a01b0316620011f8565b6040805160208082528351818301528351919283929083019185019080838360005b838110156200073e57818101518382015260200162000724565b50505050905090810190601f1680156200076c5780820380516001836020036101000a031916815260200191505b509250505060405180910390f35b3480156200078757600080fd5b50620007b160048036036020811015620007a057600080fd5b50356001600160a01b031662001345565b604080519115158252519081900360200190f35b348015620007d257600080fd5b506200054062001366565b348015620007ea57600080fd5b506200047e600480360360208110156200080357600080fd5b50356001600160a01b031662001379565b3480156200082157600080fd5b50620004b762001399565b3480156200083957600080fd5b50620004b762001487565b3480156200085157600080fd5b506200087b600480360360208110156200086a57600080fd5b50356001600160a01b0316620014eb565b604080519384526020840192909252151582820152519081900360600190f35b348015620008a857600080fd5b506200054060048036036020811015620008c157600080fd5b50356001600160a01b03166200150f565b348015620008df57600080fd5b50620005406200152a565b348015620008f757600080fd5b506200047e6200152e565b3480156200090f57600080fd5b5062000702600480360360208110156200092857600080fd5b50356001600160a01b0316620015aa565b3480156200094657600080fd5b50620004b7620015fd565b3480156200095e57600080fd5b506200021e600480360360208110156200097757600080fd5b50356001600160a01b0316620016df565b3480156200099557600080fd5b506200054060048036036020811015620009ae57600080fd5b50356001600160a01b031662001732565b348015620009cc57600080fd5b50620004b762001785565b348015620009e457600080fd5b506200047e60048036036020811015620009fd57600080fd5b50356001600160a01b0316620017e7565b34801562000a1b57600080fd5b50620005406004803603602081101562000a3457600080fd5b50356001600160a01b03166200180c565b34801562000a5257600080fd5b50620004b76004803603602081101562000a6b57600080fd5b50356001600160a01b03166200185f565b6002602052600090815260409020546001600160a01b031681565b3360008181526020819052604090206002015460ff1662000ab757600080fd5b6000341162000ac557600080fd5b62000ad18183620018b2565b62000adb57600080fd5b60003490506000828888888589893060405162000af89062001959565b80896001600160a01b03166001600160a01b0316815260200180602001806020018060200188815260200187815260200180602001866001600160a01b03166001600160a01b0316815260200185810385528c818151815260200191508051906020019080838360005b8381101562000b7c57818101518382015260200162000b62565b50505050905090810190601f16801562000baa5780820380516001836020036101000a031916815260200191505b5085810384528b5181528b516020918201918d019080838360005b8381101562000bdf57818101518382015260200162000bc5565b50505050905090810190601f16801562000c0d5780820380516001836020036101000a031916815260200191505b5085810383528a5181528a51602091820191808d01910280838360005b8381101562000c4457818101518382015260200162000c2a565b50505050905001858103825287818151815260200191508051906020019060200280838360005b8381101562000c8557818101518382015260200162000c6b565b505050509050019c50505050505050505050505050604051809103906000f08015801562000cb7573d6000803e3d6000fd5b506001600160a01b038116600081815260026020908152604080832080546001600160a01b031990811686179091556003805460018101825594527fc2575a0e9e593c00f959f8c92f12db2869c3395a3b0502d05e2516446f71f85b909301805490931684179092558151928352905192935083927f3c1b2955a570d7b24867f47b5827c8c97e344bed881c4519bad1dd91656279da9281900390910190a1505050505050505050565b6001600160a01b0380821660009081526002602052604080822054815163894c3b1f60e01b81529151606094919091169263894c3b1f9260048082019391829003018186803b15801562000db457600080fd5b505afa15801562000dc9573d6000803e3d6000fd5b505050506040513d6000823e601f3d908101601f19168201604052602081101562000df357600080fd5b8101908080516040519392919084600160201b82111562000e1357600080fd5b90830190602082018581111562000e2957600080fd5b82518660208202830111600160201b8211171562000e4657600080fd5b82525081516020918201928201910280838360005b8381101562000e7557818101518382015260200162000e5b565b505050509050016040525050509050919050565b6001600160a01b031660009081526020819052604090206001015490565b6001600160a01b03821660009081526005602052604090205460ff1662000f37576001600160a01b038216600081815260056020526040808220805460ff191660011790555183156108fc0291849190818181858888f1935050505015801562000f15573d6000803e3d6000fd5b506001600160a01b0382166000908152600560205260409020805460ff191690555b5050565b62000f4562001967565b6001600160a01b03821660009081526020819052604090206002015460ff1662000f6e57600080fd5b506040805180820182526001600160a01b039290921660008181526020818152928120805485529181528252600101549082015290565b6001600160a01b03808216600090815260026020908152604080832054815163459d6e4f60e01b815291519394169263459d6e4f92600480840193919291829003018186803b15801562000ff857600080fd5b505afa1580156200100d573d6000803e3d6000fd5b505050506040513d60208110156200102457600080fd5b505192915050565b3360008181526001602081905260409091200154610100900460ff16156200105357600080fd5b604080516060810182529283526032602080850191825260018584018181526001600160a01b039095166000818152928290529382209551865591519482018054945115156101000261ff001960ff9790971660ff199096169590951795909516939093179093556004805493840181559091527f8a35acfbc15ff81a39ae7d344fd709f28e8600b4aa8c65c6b64bfe7fe36bd19b90910180546001600160a01b0319169091179055565b3360009081526020819052604081206002015460ff1680156200113957503360009081526001602081905260409091200154610100900460ff165b156200115f5750742a3930b232b91030b7321020b93134ba3930ba37b960591b620011d0565b3360009081526020819052604090206002015460ff16156200118c5750652a3930b232b960d11b620011d0565b3360009081526001602081905260409091200154610100900460ff1615620011c357506920b93134ba3930ba37b960b11b620011d0565b5066125b9d985b1a5960ca1b5b90565b6001602081905260009182526040909120805491015460ff8082169161010090041683565b6001600160a01b038082166000908152600260205260408082205481516306fdde0360e01b8152915160609491909116926306fdde039260048082019391829003018186803b1580156200124b57600080fd5b505afa15801562001260573d6000803e3d6000fd5b505050506040513d6000823e601f3d908101601f1916820160405260208110156200128a57600080fd5b8101908080516040519392919084600160201b821115620012aa57600080fd5b908301906020820185811115620012c057600080fd5b8251600160201b811182820188101715620012da57600080fd5b82525081516020918201929091019080838360005b8381101562001309578181015183820152602001620012ef565b50505050905090810190601f168015620013375780820380516001836020036101000a031916815260200191505b506040525050509050919050565b6001600160a01b031660009081526020819052604090206002015460ff1690565b3360009081526001602052604090205490565b6001600160a01b0316600090815260208190526040902080546001019055565b600454604080518281526020808402820101909152606091908290828015620013cc578160200160208202803883390190505b50905060005b828110156200148057600060048281548110620013eb57fe5b6000918252602090912001546001600160a01b031690506200140c62001985565b506001600160a01b03811660009081526001602081815260409283902083516060810185528154808252919093015460ff80821693850193909352610100900490911615159282019290925284519091908590859081106200146a57fe5b60209081029190910101525050600101620013d2565b5091505090565b60606003805480602002602001604051908101604052809291908181526020018280548015620014e157602002820191906000526020600020905b81546001600160a01b03168152600190910190602001808311620014c2575b5050505050905090565b60006020819052908152604090208054600182015460029092015490919060ff1683565b6001600160a01b031660009081526020819052604090205490565b4790565b3360008181526020819052604090206002015460ff16156200154f57600080fd5b604080516060810182526064808252602080830191825260018385018181526001600160a01b039690961660009081529182905293902091518255519181019190915590516002909101805460ff1916911515919091179055565b6001600160a01b03808216600090815260026020526040808220548151633942720b60e11b815291516060949190911692637284e4169260048082019391829003018186803b1580156200124b57600080fd5b60045460408051828152602080840282010190915260609190829082801562001630578160200160208202803883390190505b50905060005b8281101562001480576000600482815481106200164f57fe5b6000918252602090912001546001600160a01b031690506200167062001985565b506001600160a01b03811660009081526001602081815260409283902083516060810185528154815292015460ff808216928401839052610100909104161515928201929092528451909190859085908110620016c957fe5b6020908102919091010152505060010162001636565b6001600160a01b03808216600090815260026020908152604080832054815163fbcc1e7160e01b815291519394169263fbcc1e7192600480840193919291829003018186803b15801562000ff857600080fd5b6001600160a01b03808216600090815260026020908152604080832054815163516dde4360e01b815291519394169263516dde4392600480840193919291829003018186803b15801562000ff857600080fd5b60606004805480602002602001604051908101604052809291908181526020018280548015620014e1576020028201919060005260206000209081546001600160a01b03168152600190910190602001808311620014c2575050505050905090565b6001600160a01b03166000908152602081905260409020600190810180549091019055565b6001600160a01b038082166000908152600260209081526040808320548151632c135b9360e01b8152915193941692632c135b9392600480840193919291829003018186803b15801562000ff857600080fd5b6001600160a01b0380821660009081526002602052604080822054815163661770cb60e11b81529151606094919091169263cc2ee1969260048082019391829003018186803b15801562000db457600080fd5b8051600090815b818110156200194c576000848281518110620018d157fe5b6020026020010151905060016000826001600160a01b03166001600160a01b0316815260200190815260200160002060010160019054906101000a900460ff1615806200192f5750806001600160a01b0316866001600160a01b0316145b1562001942576000935050505062001953565b50600101620018b9565b5060019150505b92915050565b612d3880620019a683390190565b60405180604001604052806002906020820280388339509192915050565b60408051606081018252600080825260208201819052918101919091529056fe60806040819052602a805460ff1916905562002d383881900390819083398181016040526101008110156200003357600080fd5b8151602083018051604051929492938301929190846401000000008211156200005b57600080fd5b9083019060208201858111156200007157600080fd5b82516401000000008111828201881017156200008c57600080fd5b82525081516020918201929091019080838360005b83811015620000bb578181015183820152602001620000a1565b50505050905090810190601f168015620000e95780820380516001836020036101000a031916815260200191505b50604052602001805160405193929190846401000000008211156200010d57600080fd5b9083019060208201858111156200012357600080fd5b82516401000000008111828201881017156200013e57600080fd5b82525081516020918201929091019080838360005b838110156200016d57818101518382015260200162000153565b50505050905090810190601f1680156200019b5780820380516001836020036101000a031916815260200191505b5060405260200180516040519392919084640100000000821115620001bf57600080fd5b908301906020820185811115620001d557600080fd5b8251866020820283011164010000000082111715620001f357600080fd5b82525081516020918201928201910280838360005b838110156200022257818101518382015260200162000208565b5050505091909101604081815260208401519084015160609094018051919694959294935090846401000000008211156200025c57600080fd5b9083019060208201858111156200027257600080fd5b82518660208202830111640100000000821117156200029057600080fd5b82525081516020918201928201910280838360005b83811015620002bf578181015183820152602001620002a5565b505050509190910160405250602090810151600a80546001600160a01b038084166001600160a01b03199283161790925560008054928e169290911691909117905589519093506200031892506001918a0190620004af565b5085516200032e906002906020890190620004af565b5084516200034490600390602088019062000534565b5060006004556005849055600683905581516200036990600790602085019062000571565b50600a805461ffff60a01b1916601760a01b1760ff60b01b19168155600c805460ff1916905560095560005b8551811015620003ff576040805180820190915260008082526020820152600f8260048110620003c157fe5b825160029190910291909101908155602090910151600191820180546001600160a01b0319166001600160a01b039092169190911790550162000395565b5060005b8251811015620004a05760405180606001604052806001151581526020016000151581526020016000801b815250602460008584815181106200044257fe5b6020908102919091018101516001600160a01b03168252818101929092526040908101600020835181549385015115156101000261ff001991151560ff19909516949094171692909217825591909101516001918201550162000403565b5050505050505050506200061e565b828054600181600116156101000203166002900490600052602060002090601f016020900481019282601f10620004f257805160ff191683800117855562000522565b8280016001018555821562000522579182015b828111156200052257825182559160200191906001019062000505565b5062000530929150620005d7565b5090565b8280548282559060005260206000209081019282156200052257916020028201828111156200052257825182559160200191906001019062000505565b828054828255906000526020600020908101928215620005c9579160200282015b82811115620005c957825182546001600160a01b0319166001600160a01b0390911617825560209092019160019091019062000592565b5062000530929150620005f7565b620005f491905b80821115620005305760008155600101620005de565b90565b620005f491905b80821115620005305780546001600160a01b0319168155600101620005fe565b61270a806200062e6000396000f3fe6080604052600436106102515760003560e01c8063729ecb0711610139578063c617339b116100b6578063e6ff50961161007a578063e6ff5096146107d9578063e8a1e12e1461082c578063f06e3e2e14610841578063f462f8af14610874578063f4c6284b1461089a578063fbcc1e71146108cc57610251565b8063c617339b14610722578063cc2ee19614610755578063cc7e62101461076a578063d3901fb514610794578063e6cd5a11146107a957610251565b8063a6430cc0116100fd578063a6430cc014610687578063a8323176146106b1578063b1d5362b146106c6578063bc0da8d3146106f8578063bfb0b6081461070d57610251565b8063729ecb07146105f957806388814f4314610623578063894c3b1f146106385780639570400f1461064d57806395e56a841461067257610251565b8063409e2205116101d257806357cde0e61161019657806357cde0e61461054357806366d4bfac146105585780636f0f9f5e146105825780636f36ec23146105b2578063722713f7146105cf5780637284e416146105e457610251565b8063409e22051461048e578063459d6e4f146104b8578063465be85f146104cd5780634852aa6d146104e2578063516dde431461052e57610251565b806322cedead1161021957806322cedead146103a4578063288fa802146103ac5780632c135b93146104115780632d978163146104385780633b2c0cc31461047157610251565b806306fdde0314610256578063123230df146102e057806312b8b1a31461032957806313e86a8f14610370578063153ee2ba1461038f575b600080fd5b34801561026257600080fd5b5061026b6108e1565b6040805160208082528351818301528351919283929083019185019080838360005b838110156102a557818101518382015260200161028d565b50505050905090810190601f1680156102d25780820380516001836020036101000a031916815260200191505b509250505060405180910390f35b3480156102ec57600080fd5b506102f561096e565b604080516001600160a01b039586168152938516602085015291841683830152909216606082015290519081900360800190f35b34801561033557600080fd5b5061035c6004803603602081101561034c57600080fd5b50356001600160a01b0316610a0c565b604080519115158252519081900360200190f35b61038d6004803603602081101561038657600080fd5b5035610a33565b005b34801561039b57600080fd5b5061038d610b84565b61038d610c1a565b3480156103b857600080fd5b506103c1610cf6565b60408051602080825283518183015283519192839290830191858101910280838360005b838110156103fd5781810151838201526020016103e5565b505050509050019250505060405180910390f35b34801561041d57600080fd5b50610426610d63565b60408051918252519081900360200190f35b34801561044457600080fd5b5061044d610d69565b6040518082600381111561045d57fe5b60ff16815260200191505060405180910390f35b61038d6004803603602081101561048757600080fd5b5035610d72565b34801561049a57600080fd5b50610426600480360360208110156104b157600080fd5b5035610e48565b3480156104c457600080fd5b50610426610e66565b3480156104d957600080fd5b506103c1610e6c565b3480156104ee57600080fd5b506105126004803603604081101561050557600080fd5b5080359060200135610ece565b604080516001600160a01b039092168252519081900360200190f35b34801561053a57600080fd5b50610426610f03565b34801561054f57600080fd5b50610426610f09565b34801561056457600080fd5b506104266004803603602081101561057b57600080fd5b5035610f0f565b34801561058e57600080fd5b50610597610f21565b60408051921515835260208301919091528051918290030190f35b61035c600480360360208110156105c857600080fd5b5035610f99565b3480156105db57600080fd5b50610426611351565b3480156105f057600080fd5b5061026b611355565b34801561060557600080fd5b506105126004803603602081101561061c57600080fd5b50356113ad565b34801561062f57600080fd5b506104266113d4565b34801561064457600080fd5b506103c161142b565b6104266004803603604081101561066357600080fd5b5080359060200135151561148b565b34801561067e57600080fd5b506103c1611731565b34801561069357600080fd5b50610512600480360360208110156106aa57600080fd5b5035611794565b3480156106bd57600080fd5b5061038d6117a1565b3480156106d257600080fd5b5061038d600480360360408110156106e957600080fd5b508035906020013515156117b6565b34801561070457600080fd5b506103c1611928565b34801561071957600080fd5b506103c161198b565b34801561072e57600080fd5b5061035c6004803603602081101561074557600080fd5b50356001600160a01b03166119ee565b34801561076157600080fd5b506103c1611a11565b34801561077657600080fd5b506104266004803603602081101561078d57600080fd5b5035611a68565b3480156107a057600080fd5b5061035c611a7a565b3480156107b557600080fd5b50610512600480360360408110156107cc57600080fd5b5080359060200135611a90565b3480156107e557600080fd5b5061080c600480360360208110156107fc57600080fd5b50356001600160a01b0316611aa9565b604080519315158452911515602084015282820152519081900360600190f35b34801561083857600080fd5b50610426611acf565b34801561084d57600080fd5b5061080c6004803603602081101561086457600080fd5b50356001600160a01b0316611ad5565b61038d6004803603602081101561088a57600080fd5b50356001600160a01b0316611afb565b3480156108a657600080fd5b5061038d600480360360408110156108bd57600080fd5b50803590602001351515611b8d565b3480156108d857600080fd5b50610512611cbd565b60018054604080516020600284861615610100026000190190941693909304601f810184900484028201840190925281815292918301828280156109665780601f1061093b57610100808354040283529160200191610966565b820191906000526020600020905b81548152906001019060200180831161094957829003601f168201915b505050505081565b60008060008061097c61259a565b60238054600019810190811061098e57fe5b60009182526020918290206040805160a081019182905293600493840290920192849283019184919082845b81546001600160a01b031681526001909101906020018083116109ba5750505050508152505090506109ea6125b2565b5051805160208201516040830151606090930151919790965091945092509050565b6001600160a01b038116600090815260246020526040902054610100900460ff165b919050565b600a546005546040805163175473d760e11b81523060048201526024810192909252516001600160a01b03909216918291632ea8e7ae91604480830192600092919082900301818387803b158015610a8a57600080fd5b505af1158015610a9e573d6000803e3d6000fd5b505050506000606460045481610ab057fe5b04600554019050600060038481548110610ac657fe5b600091825260208083209091015480835260299091526040822054909250905b81811015610b7c576000838152602860205260408120805483908110610b0857fe5b60009182526020808320909101546001600160a01b0316808352600e9091526040909120805460ff191660011790559050806108fc848781610b4657fe5b049081150290604051600060405180830381858888f19350505050158015610b72573d6000803e3d6000fd5b5050600101610ae6565b505050505050565b600a54602380546001600160a01b03909216918291636e193a5991600090610ba857fe5b6000918252602082206004909102010154604080516001600160e01b031960e085901b1681526001600160a01b03909216600483015251602480830192600092919082900301818387803b158015610bff57600080fd5b505af1158015610c13573d6000803e3d6000fd5b5050505050565b600080546001600160a01b03168152600e602052604090205460ff16610cf457600080546001600160a01b039081168252600e60205260408220805460ff1916600117905590546004549116906108fc90606490049081150290604051600060405180830381858888f19350505050158015610c9a573d6000803e3d6000fd5b50600a54600080546005546040805163175473d760e11b81526001600160a01b03938416600482015260248101929092525191909316928392632ea8e7ae9260448084019382900301818387803b158015610bff57600080fd5b565b60408051600480825260a08201909252606091908290826020820160808038833901905050905060005b82811015610d5b57600f8160048110610d3557fe5b60020201548251839083908110610d4857fe5b6020908102919091010152600101610d20565b509150505b90565b60045481565b602a5460ff1681565b6000606460045481610d8057fe5b049050600060038381548110610d9257fe5b600091825260208083209091015480835260269091526040822054909250905b81811015610c13576000838152602560205260408120805483908110610dd457fe5b60009182526020808320909101546001600160a01b0316808352600e9091526040909120805460ff191660011790559050806108fc848781610e1257fe5b049081150290604051600060405180830381858888f19350505050158015610e3e573d6000803e3d6000fd5b5050600101610db2565b60038181548110610e5557fe5b600091825260209091200154905081565b60055481565b60606008805480602002602001604051908101604052809291908181526020018280548015610ec457602002820191906000526020600020905b81546001600160a01b03168152600190910190602001808311610ea6575b5050505050905090565b60256020528160005260406000208181548110610ee757fe5b6000918252602090912001546001600160a01b03169150829050565b60065481565b60095481565b60296020526000908152604090205481565b600080808080805b600354811015610f8f5760006026600060038481548110610f4657fe5b9060005260206000200154815260200190815260200160002054905084811115610f795780945060009250819350610f86565b84811415610f8657600192505b50600101610f29565b5093509150509091565b3360009081526024602052604081205460ff1615610fb657600080fd5b6000602a5460ff166003811115610fc957fe5b14610fd357600080fd5b34670de0b6b3a76400008110610fe857600080fd5b80600f8460048110610ff657fe5b60020201541061100557600080fd5b600a546040805163310ad0b760e11b815233600482015290516001600160a01b03909216916000918391636215a16e91602480820192602092909190829003018186803b15801561105557600080fd5b505afa158015611069573d6000803e3d6000fd5b505050506040513d602081101561107f57600080fd5b505190508061108d57600080fd5b600f856004811061109a57fe5b60020201600101546001600160a01b03166108fc600f87600481106110bb57fe5b60020201546040518115909202916000818181858888f193505050501580156110e8573d6000803e3d6000fd5b50670de0b6b3a76400006110fa6125b2565b60005b60048110156111695787811461116157600f816004811061111a57fe5b600202015490920391600f816004811061113057fe5b60020201600101546001600160a01b031682826004811061114d57fe5b6001600160a01b0390921660209290920201525b6001016110fd565b50336000908152600d60205260409020805460ff191660011790558482116112e4573381886004811061119857fe5b6001600160a01b0390921660209290920201526111b361259a565b50604080516020810190915281815260238054600181018083556000929092528251839160049081027fd57b2b5166478fd4318d2acc6cc2c704584312bdd8781b32d5d06abda57f4230019161120b918391906125d0565b506000925050505b6004811015611263578881141561123957836017826004811061123257fe5b015561125b565b600f816004811061124657fe5b60020201546017826004811061125857fe5b01555b600101611213565b50604051339084880380156108fc02916000818181858888f19350505050158015611292573d6000803e3d6000fd5b5061129b611ccc565b60005b60048110156112c3576000600f82600481106112b657fe5b600202015560010161129e565b505060048054670de0b6b3a76400000190555060019450610a2e9350505050565b6112ec612628565b506040805180820190915285815233602082015280600f896004811061130e57fe5b825160029190910291909101908155602090910151600190910180546001600160a01b0319166001600160a01b0390921691909117905550949695505050505050565b4790565b6002805460408051602060018416156101000260001901909316849004601f810184900484028201840190925281815292918301828280156109665780601f1061093b57610100808354040283529160200191610966565b600881815481106113ba57fe5b6000918252602090912001546001600160a01b0316905081565b60008080805b600354811015610d5b57600060296000600384815481106113f757fe5b9060005260206000200154815260200190815260200160002054905083811115611422578093508192505b506001016113da565b60606007805480602002602001604051908101604052809291908181526020018280548015610ec4576020028201919060005260206000209081546001600160a01b03168152600190910190602001808311610ea6575050505050905090565b600080602a5460ff16600381111561149f57fe5b141580156114be57506003602a5460ff1660038111156114bb57fe5b14155b6114c757600080fd5b600a54602a805460ff191660031790556001600160a01b03166000805b6023548110156116e05760005b602382815481106114fe57fe5b5060005260048110156116d75760006001600160a01b03166023838154811061152357fe5b9060005260206000209060040201600001826004811061153f57fe5b01546001600160a01b0316146116cf5782600a0192508681141561163657836001600160a01b0316636e193a596023848154811061157957fe5b9060005260206000209060040201600001836004811061159557fe5b0154604080516001600160e01b031960e085901b1681526001600160a01b03909216600483015251602480830192600092919082900301818387803b1580156115dd57600080fd5b505af11580156115f1573d6000803e3d6000fd5b505050506116316023838154811061160557fe5b9060005260206000209060040201600001826004811061162157fe5b01546001600160a01b0316611afb565b6116cf565b836001600160a01b031663cd1e0b6d6023848154811061165257fe5b9060005260206000209060040201600001836004811061166e57fe5b0154604080516001600160e01b031960e085901b1681526001600160a01b03909216600483015251602480830192600092919082900301818387803b1580156116b657600080fd5b505af11580156116ca573d6000803e3d6000fd5b505050505b6001016114f1565b506001016114e4565b5083156116f057915061172b9050565b6116f985610d72565b6002602a5460ff16600381111561170c57fe5b1461171e57611719610c1a565b611727565b61172785610a33565b9150505b92915050565b60408051600480825260a08201909252606091908290826020820160808038833901905050905060005b82811015610d5b576017816004811061177057fe5b015460001b82828151811061178157fe5b602090810291909101015260010161175b565b600781815481106113ba57fe5b602a805460ff19166002179055610cf4611ef9565b6000602a5460ff1660038111156117c957fe5b14156117dd57602a805460ff191660011790555b6001602a5460ff1660038111156117f057fe5b146117fa57600080fd5b33600090815260246020526040902054610100900460ff161561181c57600080fd5b3360009081526024602052604090205460ff1661183857600080fd5b336000818152602460209081526040808320805461010061ff0019909116178155600190810187905586845260258352818420805480830182559085528385200180546001600160a01b03191690951790945585835260269091529020805482019055600a805460ff60b01b19811660ff600160b01b9283900481169094018416820217918290556007549104909116141561192457604080516020808252600a908201526920b93134ba3930ba37b960b11b8183015290517f21f0146f421195b1872d8b4b0ef2c37e13a25a518f7a902d98ae120c530beebc9181900360600190a1611924816124f3565b5050565b60408051600480825260a08201909252606091908290826020820160808038833901905050905060005b82811015610d5b57601f816004811061196757fe5b015460001b82828151811061197857fe5b6020908102919091010152600101611952565b60408051600480825260a08201909252606091908290826020820160808038833901905050905060005b82811015610d5b57601b81600481106119ca57fe5b015460001b8282815181106119db57fe5b60209081029190910101526001016119b5565b6001600160a01b0316600090815260276020526040902054610100900460ff1690565b60606003805480602002602001604051908101604052809291908181526020018280548015610ec457602002820191906000526020600020905b815481526020019060010190808311611a4b575050505050905090565b60266020526000908152604090205481565b3360009081526024602052604090205460ff1690565b60286020528160005260406000208181548110610ee757fe5b6027602052600090815260409020805460019091015460ff808316926101009004169083565b600b5490565b6024602052600090815260409020805460019091015460ff808316926101009004169083565b6001600160a01b0381166000908152600e602052604090205460ff16611b8a576001600160a01b0381166000818152600e6020526040808220805460ff1916600117905551670d99a8cec7e200009082818181858883f19350505050158015611b68573d6000803e3d6000fd5b506001600160a01b0381166000908152600e60205260409020805460ff191690555b50565b6002602a5460ff166003811115611ba057fe5b14611baa57600080fd5b33600090815260276020526040902054610100900460ff1615611bcc57600080fd5b3360009081526027602052604090205460ff16611be857600080fd5b336000818152602760209081526040808320805461ff001916610100178155600190810187905586845260288352818420805480830182559085528385200180546001600160a01b03191690951790945585835260299091529020805482019055600c805460ff818116909301831660ff199091161790819055600b549116141561192457604080516020808252600490820152634a75727960e01b8183015290517f21f0146f421195b1872d8b4b0ef2c37e13a25a518f7a902d98ae120c530beebc9181900360600190a1611924816124f3565b6000546001600160a01b031681565b600a546001600160a01b0316611ce061259a565b602380546000198101908110611cf257fe5b60009182526020918290206040805160a081019182905293600493840290920192849283019184919082845b81546001600160a01b03168152600190910190602001808311611d1e57505050505081525050905060008090505b6004811015611ef45781516000908260048110611d6557fe5b602002015190506001600160a01b03811615611eeb57611d8361263f565b60408051633d59f85b60e01b81526001600160a01b038481166004830152825190881692633d59f85b9260248082019391829003018186803b158015611dc857600080fd5b505afa158015611ddc573d6000803e3d6000fd5b505050506040513d601f19601f820116820180604052506040811015611e0157600080fd5b50604080516001600160a01b03851681529192507f405f4ccba46549b1dbd2e5bfbf7248e032b3b50a1a6d65140c30c83a176d192e9184918491906020820190839080838360005b83811015611e61578181015183820152602001611e49565b505050509050019250505060405180910390a160178360048110611e8157fe5b0154815102601b8460048110611e9357fe5b015401601b8460048110611ea357fe5b015560178360048110611eb257fe5b015460010381600160028110611ec457fe5b602002015102601f8460048110611ed757fe5b015401601f8460048110611ee757fe5b0155505b50600101611d4c565b505050565b600a546040805163193ca33d60e31b815290516001600160a01b0390921691606091839163c9e519e891600480820192600092909190829003018186803b158015611f4357600080fd5b505afa158015611f57573d6000803e3d6000fd5b505050506040513d6000823e601f3d908101601f191682016040526020811015611f8057600080fd5b8101908080516040519392919084640100000000821115611fa057600080fd5b908301906020820185811115611fb557600080fd5b8251866020820283011164010000000082111715611fd257600080fd5b82525081516020918201928201910280838360005b83811015611fff578181015183820152602001611fe7565b50505050905001604052505050905060056007805490508251031161219e5760006007805490508251039050606081604051908082528060200260200182016040528015612057578160200160208202803883390190505b5090506000805b845181101561217c57600085828151811061207557fe5b6020908102919091018101516001600160a01b0381166000908152602490925260409091205490915060ff16806120b957506000546001600160a01b038281169116145b806120dc57506001600160a01b0381166000908152600d602052604090205460ff165b156120e75750612174565b604080516060810182526001808252600060208084018281528486018381526001600160a01b038816845260279092529490912092518354945115156101000261ff001991151560ff19909616959095171693909317825591519101558351819085908590811061215457fe5b6001600160a01b0390921660209283029190910190910152506001909101905b60010161205e565b50815161219090600890602085019061265d565b50600b5550610cf492505050565b60608151600a026040519080825280602002602001820160405280156121ce578160200160208202803883390190505b5090506000805b835181101561233a5760008482815181106121ec57fe5b6020908102919091018101516001600160a01b0381166000908152602490925260409091205490915060ff168061223057506000546001600160a01b038281169116145b8061225357506001600160a01b0381166000908152600d602052604090205460ff165b1561225e5750612332565b6000866001600160a01b03166351d0ea37836040518263ffffffff1660e01b815260040180826001600160a01b03166001600160a01b0316815260200191505060606040518083038186803b1580156122b657600080fd5b505afa1580156122ca573d6000803e3d6000fd5b505050506040513d60608110156122e057600080fd5b50602001519050600a60ff82160460005b8160ff1681101561232d578387878151811061230957fe5b6001600160a01b0390921660209283029190910190910152600195860195016122f1565b505050505b6001016121d5565b5060408051600580825260c082019092526060916020820160a080388339019050509050600060335b600582108015612376575060008160ff16115b156124d457600a5460408051426020808301919091523360601b82840152600160a01b90930460f01b6001600160f01b031916605482015281518082036036018152605690910190915280519101206000908590816123d157fe5b600a8054600161ffff600160a01b808404821692909201160261ffff60a01b199091161790558751919006915060009087908390811061240d57fe5b6020908102919091018101516001600160a01b0381166000908152602790925260409091205490915060ff166124c957604080516060810182526001808252600060208084018281528486018381526001600160a01b038816845260279092529490912092518354945115156101000261ff001991151560ff1990961695909517169390931782559151910155845181908690869081106124aa57fe5b6001600160a01b03909216602092830291909101909101526001909301925b505060001901612363565b82516124e790600890602086019061265d565b5050600b555050505050565b6000602a5460ff16600381111561250657fe5b1415801561252557506003602a5460ff16600381111561252257fe5b14155b61252e57600080fd5b6002602a5460ff16600381111561254157fe5b14156125695760006125516113d4565b60098190559050612562818361148b565b5050611b8a565b600080612574610f21565b915091508161259257600981905561258c818461148b565b50611ef4565b611ef46117a1565b60405180602001604052806125ad6125b2565b905290565b60405180608001604052806004906020820280388339509192915050565b8260048101928215612618579160200282015b8281111561261857825182546001600160a01b0319166001600160a01b039091161782556020909201916001909101906125e3565b506126249291506126b1565b5090565b604080518082019091526000808252602082015290565b60405180604001604052806002906020820280388339509192915050565b828054828255906000526020600020908101928215612618579160200282018281111561261857825182546001600160a01b0319166001600160a01b039091161782556020909201916001909101906125e3565b610d6091905b808211156126245780546001600160a01b03191681556001016126b756fea265627a7a7231582081c5da78c710851ede1988ccffd8d334dd65b2e3fc891188f8ef3fc7fd74142864736f6c63430005100032a265627a7a72315820130e275ad4f56cc891f09fd438eec575e54babc017a3b265581b62227317511464736f6c63430005100032",
  "source": "// SPDX-License-Identifier: MIT\npragma solidity >=0.4.21 <=0.7.0;\nimport \"./Topic.sol\";\n\ncontract PredictionMarket {\n    // Structs for users and arbitrators. Default scores = 100\n    struct Trader {\n        uint winScore;\n        uint loseScore;\n        bool isValid; \n    }\n\n    struct Arbitrator {\n        bytes32 displayName;\n        uint8 trustworthiness;\n        bool isValid;\n    }\n    // Maps of addresses to different entities\n    mapping (address => Trader) public traders;\n    mapping (address => Arbitrator) public arbitrators;\n    mapping (address => Topic) public marketTopics;\n\n    // Array of addresses of topics to return to front end\n    address[] topicAddresses;\n\n    // Array of addresses of arbitrators to return to front end\n    address payable[] arbitratorAddresses;\n\n    // Guard against reentrancy attacks\n    mapping (address => bool) transferredToWithinWindow;\n\n    // Struct create functions\n    function createTrader() public {\n        address id = msg.sender;\n        // // require that address has not been assigned to a trader\n        require(!traders[id].isValid);\n\n        // // create new trader with the default values\n        traders[id] = Trader(100, 100, true);\n    }\n\n    function createArbitrator(bytes32 _displayName) public {\n        address id = msg.sender;\n\n        // require that address has not been assigned to a arbitrator\n        require(!arbitrators[id].isValid);\n\n        // create new arbitrator with the default values\n        arbitrators[id] = Arbitrator(_displayName, 50, true);\n\n        arbitratorAddresses.push(address(uint160(id)));\n    }\n\n    function getAllArbitrators() public view returns (address payable[] memory) {\n        return arbitratorAddresses;\n    }\n\n    function getArbitratorName() public view returns (bytes32){\n        return arbitrators[msg.sender].displayName;\n    }\n\n    function getAllArbitratorNames() public view returns (bytes32[] memory) {\n        uint len = arbitratorAddresses.length;\n        bytes32[] memory names = new bytes32[](len);\n\n        for (uint i = 0; i < len; i++) {\n            address arbitratorAddress = arbitratorAddresses[i];\n            Arbitrator memory arbitrator = arbitrators[arbitratorAddress];\n            names[i] = arbitrator.displayName;\n        }\n        return names;\n    }\n\n    function getArbitratorReputations() public view returns (uint[] memory) {\n        uint len = arbitratorAddresses.length;\n        uint[] memory reputations = new uint[](len);\n\n        for (uint i = 0; i < len; i++) {\n            address arbitratorAddress = arbitratorAddresses[i];\n            Arbitrator memory arbitrator = arbitrators[arbitratorAddress];\n            reputations[i] = arbitrator.trustworthiness;\n        }\n        return reputations;\n    }\n\n    //VOTER'S REPUTATION \n    function getVotersReputation(address id) public view returns (uint[2] memory){\n        require(traders[id].isValid);\n        return [traders[id].winScore, traders[id].loseScore];\n    }\n\n    // AUTHENTICATION\n    function checkIdentity() public view returns (bytes32) {\n        // Check if user is a trader\n        if(traders[msg.sender].isValid && arbitrators[msg.sender].isValid){\n            return bytes32(\"Trader and Arbitrator\");\n        }\n\n        // Check if user is a trader\n        if(traders[msg.sender].isValid){\n            return bytes32(\"Trader\");\n        }\n        // Check if user is an arbitrator\n        if(arbitrators[msg.sender].isValid){\n            return bytes32(\"Arbitrator\");\n        }\n        // If all the above fails, return invalid\n        return bytes32(\"Invalid\");\n    }\n\n    // Check if a trader is valid, this is called from external contracts/ views\n    // This function is for internal use between contracts only\n    function checkValidTrader(address trader) public view returns (bool) {\n        return traders[trader].isValid;\n    }\n\n\n    // Topics\n    function createTopic(\n        string memory name, string memory description, bytes32[] memory options, uint256 expiryDate, address payable[] memory selectedArbitrators\n    ) public payable\n        {\n        address payable creatorId = msg.sender;\n\n        // Creator must have a trader account\n        require(traders[creatorId].isValid);\n\n        // Must have value above 0 ETH for payment of creation bond\n        require(msg.value > 0 ether);\n\n        // selected arbitrators must have arbitrator account and creator must not select himself as an arbitrator\n        require(areValidArbitrators(creatorId, selectedArbitrators));\n\n        uint bondValue = msg.value;\n        Topic newTopic = new Topic(creatorId, name, description, options, bondValue, expiryDate, selectedArbitrators, address(this));\n        address payable topicAddress = address(uint160(address(newTopic))); // to cast from address to address payable\n        marketTopics[topicAddress] = newTopic;\n        topicAddresses.push(topicAddress);\n        emit TopicCreated(topicAddress);\n    }\n\n    function getAllTopics() public view returns (address[] memory) {\n        return topicAddresses;\n    }\n\n    function areValidArbitrators(address payable creatorId, address payable[] memory selectedArbitrators) internal view returns (bool) {\n        uint numSelectedArbitrators = selectedArbitrators.length;\n        for (uint i = 0; i < numSelectedArbitrators; i++) {\n            address arbitrator = selectedArbitrators[i];\n            if (!arbitrators[arbitrator].isValid || creatorId == arbitrator) {\n                return false;\n            }\n        }\n        return true;\n    }\n\n    function updateWinScore(address winnerAddress) public {\n        traders[winnerAddress].winScore += 1;\n    }\n\n    function getWinScore(address winnerAddress) public view returns (uint){\n        Trader storage winner = traders[winnerAddress];\n        return winner.winScore;\n    }\n\n    function updateLoseScore(address loserAddress) public {\n        traders[loserAddress].loseScore += 1;\n    }\n\n    function getLoseScore(address loserAddress) public view returns (uint){\n        Trader storage loser = traders[loserAddress];\n        return loser.loseScore;\n    }\n\n    // Transfer creator bond function\n    function transferCreatorBond(address payable targetAddress, uint bondValue) external payable {\n        if (!transferredToWithinWindow[targetAddress]) {\n            transferredToWithinWindow[targetAddress] = true;\n            targetAddress.transfer(bondValue);\n            transferredToWithinWindow[targetAddress] = false;\n        }\n    }\n\n    // ===============================================================\n    // For testing purposes\n    // ===============================================================\n    event TopicCreated(address _topicAddress);\n\n    function getCreatorAddress(address topicAddress) public view returns (address payable) {\n        return marketTopics[topicAddress].topicCreator();\n    }\n\n    function getName(address topicAddress) public view returns (string memory) {\n        return marketTopics[topicAddress].name();\n    }\n\n    function getDescription(address topicAddress) public view returns (string memory) {\n        return marketTopics[topicAddress].description();\n    }\n\n    function getOptions(address topicAddress) public view returns (bytes32[] memory) {\n        return marketTopics[topicAddress].getOptions();\n    }\n\n    function getMarketCap(address topicAddress) public view returns (uint) {\n        return marketTopics[topicAddress].marketCap();\n    }\n\n    function getCreatorBond(address topicAddress) public view returns (uint) {\n        return marketTopics[topicAddress].creatorBond();\n    }\n\n    function getExpiryDate(address topicAddress) public view returns (uint256) {\n        return marketTopics[topicAddress].expiryDate();\n    }\n\n    function getSelectedArbitrators(address topicAddress) public view returns (address payable[] memory) {\n        return marketTopics[topicAddress].getArbitrators();\n    }\n\n    function getCurrentBalance() public view returns (uint) {\n        return address(this).balance;\n    }\n\n}",
  "sourcePath": "/Users/gwynethang/Documents/Academics/Y4S1/Blockchain/Decentralised_Prediction_Market/contracts/PredictionMarket.sol",
  "compiler": {
    "name": "solc",
    "version": "0.5.16+commit.9c3226ce.Emscripten.clang"
  },
  "schemaVersion": "3.3.1",
  "updatedAt": "2020-10-27T16:47:18.866Z",
  "networkType": "ethereum",
  "devdoc": {
    "methods": {}
  },
  "userdoc": {
    "methods": {}
  }
}