{
  "contractName": "PredictionMarket",
  "abi": [
    {
      "anonymous": false,
      "inputs": [
        {
          "indexed": false,
          "internalType": "address",
          "name": "_topicAddress",
          "type": "address"
        }
      ],
      "name": "TopicCreated",
      "type": "event"
    },
    {
      "constant": true,
      "inputs": [
        {
          "internalType": "address",
          "name": "",
          "type": "address"
        }
      ],
      "name": "arbitrators",
      "outputs": [
        {
          "internalType": "bytes32",
          "name": "displayName",
          "type": "bytes32"
        },
        {
          "internalType": "uint8",
          "name": "trustworthiness",
          "type": "uint8"
        },
        {
          "internalType": "bool",
          "name": "isValid",
          "type": "bool"
        }
      ],
      "payable": false,
      "stateMutability": "view",
      "type": "function"
    },
    {
      "constant": true,
      "inputs": [
        {
          "internalType": "address",
          "name": "",
          "type": "address"
        }
      ],
      "name": "marketTopics",
      "outputs": [
        {
          "internalType": "contract Topic",
          "name": "",
          "type": "address"
        }
      ],
      "payable": false,
      "stateMutability": "view",
      "type": "function"
    },
    {
      "constant": true,
      "inputs": [
        {
          "internalType": "address",
          "name": "",
          "type": "address"
        }
      ],
      "name": "traders",
      "outputs": [
        {
          "internalType": "uint256",
          "name": "winScore",
          "type": "uint256"
        },
        {
          "internalType": "uint256",
          "name": "loseScore",
          "type": "uint256"
        },
        {
          "internalType": "bool",
          "name": "isValid",
          "type": "bool"
        }
      ],
      "payable": false,
      "stateMutability": "view",
      "type": "function"
    },
    {
      "constant": false,
      "inputs": [],
      "name": "createTrader",
      "outputs": [],
      "payable": false,
      "stateMutability": "nonpayable",
      "type": "function"
    },
    {
      "constant": false,
      "inputs": [
        {
          "internalType": "bytes32",
          "name": "_displayName",
          "type": "bytes32"
        }
      ],
      "name": "createArbitrator",
      "outputs": [],
      "payable": false,
      "stateMutability": "nonpayable",
      "type": "function"
    },
    {
      "constant": true,
      "inputs": [],
      "name": "getAllArbitrators",
      "outputs": [
        {
          "internalType": "address payable[]",
          "name": "",
          "type": "address[]"
        }
      ],
      "payable": false,
      "stateMutability": "view",
      "type": "function"
    },
    {
      "constant": true,
      "inputs": [],
      "name": "getAllArbitratorNames",
      "outputs": [
        {
          "internalType": "bytes32[]",
          "name": "",
          "type": "bytes32[]"
        }
      ],
      "payable": false,
      "stateMutability": "view",
      "type": "function"
    },
    {
      "constant": true,
      "inputs": [
        {
          "internalType": "address",
          "name": "id",
          "type": "address"
        }
      ],
      "name": "getVotersReputation",
      "outputs": [
        {
          "internalType": "uint256[2]",
          "name": "",
          "type": "uint256[2]"
        }
      ],
      "payable": false,
      "stateMutability": "view",
      "type": "function"
    },
    {
      "constant": true,
      "inputs": [],
      "name": "checkIdentity",
      "outputs": [
        {
          "internalType": "bytes32",
          "name": "",
          "type": "bytes32"
        }
      ],
      "payable": false,
      "stateMutability": "view",
      "type": "function"
    },
    {
      "constant": false,
      "inputs": [
        {
          "internalType": "string",
          "name": "name",
          "type": "string"
        },
        {
          "internalType": "string",
          "name": "description",
          "type": "string"
        },
        {
          "internalType": "bytes32[]",
          "name": "options",
          "type": "bytes32[]"
        },
        {
          "internalType": "uint256",
          "name": "expiryDate",
          "type": "uint256"
        },
        {
          "internalType": "address payable[]",
          "name": "selectedArbitrators",
          "type": "address[]"
        }
      ],
      "name": "createTopic",
      "outputs": [],
      "payable": true,
      "stateMutability": "payable",
      "type": "function"
    },
    {
      "constant": true,
      "inputs": [],
      "name": "getAllTopics",
      "outputs": [
        {
          "internalType": "address[]",
          "name": "",
          "type": "address[]"
        }
      ],
      "payable": false,
      "stateMutability": "view",
      "type": "function"
    },
    {
      "constant": false,
      "inputs": [
        {
          "internalType": "address",
          "name": "winnerAddress",
          "type": "address"
        }
      ],
      "name": "updateWinScore",
      "outputs": [],
      "payable": false,
      "stateMutability": "nonpayable",
      "type": "function"
    },
    {
      "constant": true,
      "inputs": [
        {
          "internalType": "address",
          "name": "winnerAddress",
          "type": "address"
        }
      ],
      "name": "getWinScore",
      "outputs": [
        {
          "internalType": "uint256",
          "name": "",
          "type": "uint256"
        }
      ],
      "payable": false,
      "stateMutability": "view",
      "type": "function"
    },
    {
      "constant": false,
      "inputs": [
        {
          "internalType": "address",
          "name": "loserAddress",
          "type": "address"
        }
      ],
      "name": "updateLoseScore",
      "outputs": [],
      "payable": false,
      "stateMutability": "nonpayable",
      "type": "function"
    },
    {
      "constant": true,
      "inputs": [
        {
          "internalType": "address",
          "name": "loserAddress",
          "type": "address"
        }
      ],
      "name": "getLoseScore",
      "outputs": [
        {
          "internalType": "uint256",
          "name": "",
          "type": "uint256"
        }
      ],
      "payable": false,
      "stateMutability": "view",
      "type": "function"
    },
    {
      "constant": true,
      "inputs": [
        {
          "internalType": "address",
          "name": "topicAddress",
          "type": "address"
        }
      ],
      "name": "getCreatorAddress",
      "outputs": [
        {
          "internalType": "address payable",
          "name": "",
          "type": "address"
        }
      ],
      "payable": false,
      "stateMutability": "view",
      "type": "function"
    },
    {
      "constant": true,
      "inputs": [
        {
          "internalType": "address",
          "name": "topicAddress",
          "type": "address"
        }
      ],
      "name": "getName",
      "outputs": [
        {
          "internalType": "string",
          "name": "",
          "type": "string"
        }
      ],
      "payable": false,
      "stateMutability": "view",
      "type": "function"
    },
    {
      "constant": true,
      "inputs": [
        {
          "internalType": "address",
          "name": "topicAddress",
          "type": "address"
        }
      ],
      "name": "getDescription",
      "outputs": [
        {
          "internalType": "string",
          "name": "",
          "type": "string"
        }
      ],
      "payable": false,
      "stateMutability": "view",
      "type": "function"
    },
    {
      "constant": true,
      "inputs": [
        {
          "internalType": "address",
          "name": "topicAddress",
          "type": "address"
        }
      ],
      "name": "getOptions",
      "outputs": [
        {
          "internalType": "bytes32[]",
          "name": "",
          "type": "bytes32[]"
        }
      ],
      "payable": false,
      "stateMutability": "view",
      "type": "function"
    },
    {
      "constant": true,
      "inputs": [
        {
          "internalType": "address",
          "name": "topicAddress",
          "type": "address"
        }
      ],
      "name": "getMarketCap",
      "outputs": [
        {
          "internalType": "uint256",
          "name": "",
          "type": "uint256"
        }
      ],
      "payable": false,
      "stateMutability": "view",
      "type": "function"
    },
    {
      "constant": true,
      "inputs": [
        {
          "internalType": "address",
          "name": "topicAddress",
          "type": "address"
        }
      ],
      "name": "getCreatorBond",
      "outputs": [
        {
          "internalType": "uint256",
          "name": "",
          "type": "uint256"
        }
      ],
      "payable": false,
      "stateMutability": "view",
      "type": "function"
    },
    {
      "constant": true,
      "inputs": [
        {
          "internalType": "address",
          "name": "topicAddress",
          "type": "address"
        }
      ],
      "name": "getExpiryDate",
      "outputs": [
        {
          "internalType": "uint256",
          "name": "",
          "type": "uint256"
        }
      ],
      "payable": false,
      "stateMutability": "view",
      "type": "function"
    },
    {
      "constant": true,
      "inputs": [
        {
          "internalType": "address",
          "name": "topicAddress",
          "type": "address"
        }
      ],
      "name": "getSelectedArbitrators",
      "outputs": [
        {
          "internalType": "address payable[]",
          "name": "",
          "type": "address[]"
        }
      ],
      "payable": false,
      "stateMutability": "view",
      "type": "function"
    },
    {
      "constant": true,
      "inputs": [],
      "name": "getCurrentBalance",
      "outputs": [
        {
          "internalType": "uint256",
          "name": "",
          "type": "uint256"
        }
      ],
      "payable": false,
      "stateMutability": "view",
      "type": "function"
    }
  ],
  "bytecode": "0x608060405234801561001057600080fd5b50615317806100206000396000f3fe6080604052600436106200016a5760003560e01c806386416f1411620000c7578063c082c30c1162000079578063c082c30c1462000b9b578063c86b21591462000c30578063c9e519e81462000c99578063cd1e0b6d1462000d0a578063d146d31d1462000d5f578063e7c256b61462000dc8576200016a565b806386416f14146200092d57806392a88fa2146200099e5780639ea630ba1462000a19578063a57497101462000a82578063b22712681462000ab0578063b4b1d9c71462000aca576200016a565b8063420d3ae81162000121578063420d3ae814620006a85780634de1c9e414620006e757806351d0ea3714620007155780635fd4b08a14620007965780636e193a5914620008675780636f762d8a14620008bc576200016a565b806302d54fbf146200016f578063158f3c1e14620002045780631aa90abc14620004975780632c2153ba14620005435780633d59f85b14620005ac5780633fd8667b146200063f575b600080fd5b3480156200017c57600080fd5b50620001c2600480360360208110156200019557600080fd5b81019080803573ffffffffffffffffffffffffffffffffffffffff16906020019092919050505062000e74565b604051808273ffffffffffffffffffffffffffffffffffffffff1673ffffffffffffffffffffffffffffffffffffffff16815260200191505060405180910390f35b62000495600480360360a08110156200021c57600080fd5b81019080803590602001906401000000008111156200023a57600080fd5b8201836020820111156200024d57600080fd5b803590602001918460018302840111640100000000831117156200027057600080fd5b91908080601f016020809104026020016040519081016040528093929190818152602001838380828437600081840152601f19601f82011690508083019250505050505050919291929080359060200190640100000000811115620002d457600080fd5b820183602082011115620002e757600080fd5b803590602001918460018302840111640100000000831117156200030a57600080fd5b91908080601f016020809104026020016040519081016040528093929190818152602001838380828437600081840152601f19601f820116905080830192505050505050509192919290803590602001906401000000008111156200036e57600080fd5b8201836020820111156200038157600080fd5b80359060200191846020830284011164010000000083111715620003a457600080fd5b919080806020026020016040519081016040528093929190818152602001838360200280828437600081840152601f19601f82011690508083019250505050505050919291929080359060200190929190803590602001906401000000008111156200040f57600080fd5b8201836020820111156200042257600080fd5b803590602001918460208302840111640100000000831117156200044557600080fd5b919080806020026020016040519081016040528093929190818152602001838360200280828437600081840152601f19601f82011690508083019250505050505050919291929050505062000ea7565b005b348015620004a457600080fd5b50620004ea60048036036020811015620004bd57600080fd5b81019080803573ffffffffffffffffffffffffffffffffffffffff169060200190929190505050620012a6565b6040518080602001828103825283818151815260200191508051906020019060200280838360005b838110156200052f57808201518184015260208101905062000512565b505050509050019250505060405180910390f35b3480156200055057600080fd5b5062000596600480360360208110156200056957600080fd5b81019080803573ffffffffffffffffffffffffffffffffffffffff16906020019092919050505062001431565b6040518082815260200191505060405180910390f35b348015620005b957600080fd5b50620005ff60048036036020811015620005d257600080fd5b81019080803573ffffffffffffffffffffffffffffffffffffffff16906020019092919050505062001481565b6040518082600260200280838360005b838110156200062c5780820151818401526020810190506200060f565b5050505090500191505060405180910390f35b3480156200064c57600080fd5b5062000692600480360360208110156200066557600080fd5b81019080803573ffffffffffffffffffffffffffffffffffffffff16906020019092919050505062001529565b6040518082815260200191505060405180910390f35b348015620006b557600080fd5b50620006e560048036036020811015620006ce57600080fd5b810190808035906020019092919050505062001615565b005b348015620006f457600080fd5b50620006ff6200178e565b6040518082815260200191505060405180910390f35b3480156200072257600080fd5b5062000768600480360360208110156200073b57600080fd5b81019080803573ffffffffffffffffffffffffffffffffffffffff169060200190929190505050620018b4565b604051808481526020018360ff1660ff16815260200182151515158152602001935050505060405180910390f35b348015620007a357600080fd5b50620007e960048036036020811015620007bc57600080fd5b81019080803573ffffffffffffffffffffffffffffffffffffffff169060200190929190505050620018f8565b6040518080602001828103825283818151815260200191508051906020019080838360005b838110156200082b5780820151818401526020810190506200080e565b50505050905090810190601f168015620008595780820380516001836020036101000a031916815260200191505b509250505060405180910390f35b3480156200087457600080fd5b50620008ba600480360360208110156200088d57600080fd5b81019080803573ffffffffffffffffffffffffffffffffffffffff16906020019092919050505062001aa8565b005b348015620008c957600080fd5b50620008d462001afb565b6040518080602001828103825283818151815260200191508051906020019060200280838360005b8381101562000919578082015181840152602081019050620008fc565b505050509050019250505060405180910390f35b3480156200093a57600080fd5b506200094562001c57565b6040518080602001828103825283818151815260200191508051906020019060200280838360005b838110156200098a5780820151818401526020810190506200096d565b505050509050019250505060405180910390f35b348015620009ab57600080fd5b50620009f160048036036020811015620009c457600080fd5b81019080803573ffffffffffffffffffffffffffffffffffffffff16906020019092919050505062001ce7565b6040518084815260200183815260200182151515158152602001935050505060405180910390f35b34801562000a2657600080fd5b5062000a6c6004803603602081101562000a3f57600080fd5b81019080803573ffffffffffffffffffffffffffffffffffffffff16906020019092919050505062001d1e565b6040518082815260200191505060405180910390f35b34801562000a8f57600080fd5b5062000a9a62001d6e565b6040518082815260200191505060405180910390f35b34801562000abd57600080fd5b5062000ac862001d76565b005b34801562000ad757600080fd5b5062000b1d6004803603602081101562000af057600080fd5b81019080803573ffffffffffffffffffffffffffffffffffffffff16906020019092919050505062001e6d565b6040518080602001828103825283818151815260200191508051906020019080838360005b8381101562000b5f57808201518184015260208101905062000b42565b50505050905090810190601f16801562000b8d5780820380516001836020036101000a031916815260200191505b509250505060405180910390f35b34801562000ba857600080fd5b5062000bee6004803603602081101562000bc157600080fd5b81019080803573ffffffffffffffffffffffffffffffffffffffff1690602001909291905050506200201d565b604051808273ffffffffffffffffffffffffffffffffffffffff1673ffffffffffffffffffffffffffffffffffffffff16815260200191505060405180910390f35b34801562000c3d57600080fd5b5062000c836004803603602081101562000c5657600080fd5b81019080803573ffffffffffffffffffffffffffffffffffffffff16906020019092919050505062002109565b6040518082815260200191505060405180910390f35b34801562000ca657600080fd5b5062000cb1620021f5565b6040518080602001828103825283818151815260200191508051906020019060200280838360005b8381101562000cf657808201518184015260208101905062000cd9565b505050509050019250505060405180910390f35b34801562000d1757600080fd5b5062000d5d6004803603602081101562000d3057600080fd5b81019080803573ffffffffffffffffffffffffffffffffffffffff16906020019092919050505062002285565b005b34801562000d6c57600080fd5b5062000db26004803603602081101562000d8557600080fd5b81019080803573ffffffffffffffffffffffffffffffffffffffff169060200190929190505050620022d8565b6040518082815260200191505060405180910390f35b34801562000dd557600080fd5b5062000e1b6004803603602081101562000dee57600080fd5b81019080803573ffffffffffffffffffffffffffffffffffffffff169060200190929190505050620023c4565b6040518080602001828103825283818151815260200191508051906020019060200280838360005b8381101562000e6057808201518184015260208101905062000e43565b505050509050019250505060405180910390f35b60026020528060005260406000206000915054906101000a900473ffffffffffffffffffffffffffffffffffffffff1681565b60003390506000808273ffffffffffffffffffffffffffffffffffffffff1673ffffffffffffffffffffffffffffffffffffffff16815260200190815260200160002060020160009054906101000a900460ff1662000f0557600080fd5b6000341162000f1357600080fd5b62000f1f81836200254f565b62000f2957600080fd5b60003490506000828888888589893060405162000f469062002635565b808973ffffffffffffffffffffffffffffffffffffffff1673ffffffffffffffffffffffffffffffffffffffff168152602001806020018060200180602001888152602001878152602001806020018673ffffffffffffffffffffffffffffffffffffffff1673ffffffffffffffffffffffffffffffffffffffff16815260200185810385528c818151815260200191508051906020019080838360005b838110156200100157808201518184015260208101905062000fe4565b50505050905090810190601f1680156200102f5780820380516001836020036101000a031916815260200191505b5085810384528b818151815260200191508051906020019080838360005b838110156200106a5780820151818401526020810190506200104d565b50505050905090810190601f168015620010985780820380516001836020036101000a031916815260200191505b5085810383528a818151815260200191508051906020019060200280838360005b83811015620010d6578082015181840152602081019050620010b9565b50505050905001858103825287818151815260200191508051906020019060200280838360005b838110156200111a578082015181840152602081019050620010fd565b505050509050019c50505050505050505050505050604051809103906000f0801580156200114c573d6000803e3d6000fd5b509050600081905081600260008373ffffffffffffffffffffffffffffffffffffffff1673ffffffffffffffffffffffffffffffffffffffff16815260200190815260200160002060006101000a81548173ffffffffffffffffffffffffffffffffffffffff021916908373ffffffffffffffffffffffffffffffffffffffff16021790555060038190806001815401808255809150509060018203906000526020600020016000909192909190916101000a81548173ffffffffffffffffffffffffffffffffffffffff021916908373ffffffffffffffffffffffffffffffffffffffff160217905550507f3c1b2955a570d7b24867f47b5827c8c97e344bed881c4519bad1dd91656279da81604051808273ffffffffffffffffffffffffffffffffffffffff1673ffffffffffffffffffffffffffffffffffffffff16815260200191505060405180910390a1505050505050505050565b6060600260008373ffffffffffffffffffffffffffffffffffffffff1673ffffffffffffffffffffffffffffffffffffffff16815260200190815260200160002060009054906101000a900473ffffffffffffffffffffffffffffffffffffffff1673ffffffffffffffffffffffffffffffffffffffff1663894c3b1f6040518163ffffffff1660e01b815260040160006040518083038186803b1580156200134e57600080fd5b505afa15801562001363573d6000803e3d6000fd5b505050506040513d6000823e3d601f19601f8201168201806040525060208110156200138e57600080fd5b8101908080516040519392919084640100000000821115620013af57600080fd5b83820191506020820185811115620013c657600080fd5b8251866020820283011164010000000082111715620013e457600080fd5b8083526020830192505050908051906020019060200280838360005b838110156200141d57808201518184015260208101905062001400565b505050509050016040525050509050919050565b6000806000808473ffffffffffffffffffffffffffffffffffffffff1673ffffffffffffffffffffffffffffffffffffffff16815260200190815260200160002090508060010154915050919050565b6200148b62002643565b60405180604001604052806000808573ffffffffffffffffffffffffffffffffffffffff1673ffffffffffffffffffffffffffffffffffffffff1681526020019081526020016000206000015481526020016000808573ffffffffffffffffffffffffffffffffffffffff1673ffffffffffffffffffffffffffffffffffffffff168152602001908152602001600020600101548152509050919050565b6000600260008373ffffffffffffffffffffffffffffffffffffffff1673ffffffffffffffffffffffffffffffffffffffff16815260200190815260200160002060009054906101000a900473ffffffffffffffffffffffffffffffffffffffff1673ffffffffffffffffffffffffffffffffffffffff1663459d6e4f6040518163ffffffff1660e01b815260040160206040518083038186803b158015620015d157600080fd5b505afa158015620015e6573d6000803e3d6000fd5b505050506040513d6020811015620015fd57600080fd5b81019080805190602001909291905050509050919050565b6000339050600160008273ffffffffffffffffffffffffffffffffffffffff1673ffffffffffffffffffffffffffffffffffffffff16815260200190815260200160002060010160019054906101000a900460ff16156200167557600080fd5b6040518060600160405280838152602001603260ff16815260200160011515815250600160008373ffffffffffffffffffffffffffffffffffffffff1673ffffffffffffffffffffffffffffffffffffffff1681526020019081526020016000206000820151816000015560208201518160010160006101000a81548160ff021916908360ff16021790555060408201518160010160016101000a81548160ff02191690831515021790555090505060048190806001815401808255809150509060018203906000526020600020016000909192909190916101000a81548173ffffffffffffffffffffffffffffffffffffffff021916908373ffffffffffffffffffffffffffffffffffffffff160217905550505050565b60008060003373ffffffffffffffffffffffffffffffffffffffff1673ffffffffffffffffffffffffffffffffffffffff16815260200190815260200160002060020160009054906101000a900460ff16156200180e577f54726164657200000000000000000000000000000000000000000000000000009050620018b1565b600160003373ffffffffffffffffffffffffffffffffffffffff1673ffffffffffffffffffffffffffffffffffffffff16815260200190815260200160002060010160019054906101000a900460ff16156200188d577f41726269747261746f72000000000000000000000000000000000000000000009050620018b1565b7f496e76616c69640000000000000000000000000000000000000000000000000090505b90565b60016020528060005260406000206000915090508060000154908060010160009054906101000a900460ff16908060010160019054906101000a900460ff16905083565b6060600260008373ffffffffffffffffffffffffffffffffffffffff1673ffffffffffffffffffffffffffffffffffffffff16815260200190815260200160002060009054906101000a900473ffffffffffffffffffffffffffffffffffffffff1673ffffffffffffffffffffffffffffffffffffffff166306fdde036040518163ffffffff1660e01b815260040160006040518083038186803b158015620019a057600080fd5b505afa158015620019b5573d6000803e3d6000fd5b505050506040513d6000823e3d601f19601f820116820180604052506020811015620019e057600080fd5b810190808051604051939291908464010000000082111562001a0157600080fd5b8382019150602082018581111562001a1857600080fd5b825186600182028301116401000000008211171562001a3657600080fd5b8083526020830192505050908051906020019080838360005b8381101562001a6c57808201518184015260208101905062001a4f565b50505050905090810190601f16801562001a9a5780820380516001836020036101000a031916815260200191505b506040525050509050919050565b60016000808373ffffffffffffffffffffffffffffffffffffffff1673ffffffffffffffffffffffffffffffffffffffff1681526020019081526020016000206000016000828254019250508190555050565b60606000600480549050905060608160405190808252806020026020018201604052801562001b395781602001602082028038833980820191505090505b50905060008090505b8281101562001c4e5760006004828154811062001b5b57fe5b9060005260206000200160009054906101000a900473ffffffffffffffffffffffffffffffffffffffff16905062001b9262002665565b600160008373ffffffffffffffffffffffffffffffffffffffff1673ffffffffffffffffffffffffffffffffffffffff168152602001908152602001600020604051806060016040529081600082015481526020016001820160009054906101000a900460ff1660ff1660ff1681526020016001820160019054906101000a900460ff1615151515815250509050806000015184848151811062001c3257fe5b6020026020010181815250505050808060010191505062001b42565b50809250505090565b6060600380548060200260200160405190810160405280929190818152602001828054801562001cdd57602002820191906000526020600020905b8160009054906101000a900473ffffffffffffffffffffffffffffffffffffffff1673ffffffffffffffffffffffffffffffffffffffff168152602001906001019080831162001c92575b5050505050905090565b60006020528060005260406000206000915090508060000154908060010154908060020160009054906101000a900460ff16905083565b6000806000808473ffffffffffffffffffffffffffffffffffffffff1673ffffffffffffffffffffffffffffffffffffffff16815260200190815260200160002090508060000154915050919050565b600047905090565b60003390506000808273ffffffffffffffffffffffffffffffffffffffff1673ffffffffffffffffffffffffffffffffffffffff16815260200190815260200160002060020160009054906101000a900460ff161562001dd557600080fd5b60405180606001604052806064815260200160648152602001600115158152506000808373ffffffffffffffffffffffffffffffffffffffff1673ffffffffffffffffffffffffffffffffffffffff168152602001908152602001600020600082015181600001556020820151816001015560408201518160020160006101000a81548160ff02191690831515021790555090505050565b6060600260008373ffffffffffffffffffffffffffffffffffffffff1673ffffffffffffffffffffffffffffffffffffffff16815260200190815260200160002060009054906101000a900473ffffffffffffffffffffffffffffffffffffffff1673ffffffffffffffffffffffffffffffffffffffff16637284e4166040518163ffffffff1660e01b815260040160006040518083038186803b15801562001f1557600080fd5b505afa15801562001f2a573d6000803e3d6000fd5b505050506040513d6000823e3d601f19601f82011682018060405250602081101562001f5557600080fd5b810190808051604051939291908464010000000082111562001f7657600080fd5b8382019150602082018581111562001f8d57600080fd5b825186600182028301116401000000008211171562001fab57600080fd5b8083526020830192505050908051906020019080838360005b8381101562001fe157808201518184015260208101905062001fc4565b50505050905090810190601f1680156200200f5780820380516001836020036101000a031916815260200191505b506040525050509050919050565b6000600260008373ffffffffffffffffffffffffffffffffffffffff1673ffffffffffffffffffffffffffffffffffffffff16815260200190815260200160002060009054906101000a900473ffffffffffffffffffffffffffffffffffffffff1673ffffffffffffffffffffffffffffffffffffffff1663fbcc1e716040518163ffffffff1660e01b815260040160206040518083038186803b158015620020c557600080fd5b505afa158015620020da573d6000803e3d6000fd5b505050506040513d6020811015620020f157600080fd5b81019080805190602001909291905050509050919050565b6000600260008373ffffffffffffffffffffffffffffffffffffffff1673ffffffffffffffffffffffffffffffffffffffff16815260200190815260200160002060009054906101000a900473ffffffffffffffffffffffffffffffffffffffff1673ffffffffffffffffffffffffffffffffffffffff1663516dde436040518163ffffffff1660e01b815260040160206040518083038186803b158015620021b157600080fd5b505afa158015620021c6573d6000803e3d6000fd5b505050506040513d6020811015620021dd57600080fd5b81019080805190602001909291905050509050919050565b606060048054806020026020016040519081016040528092919081815260200182805480156200227b57602002820191906000526020600020905b8160009054906101000a900473ffffffffffffffffffffffffffffffffffffffff1673ffffffffffffffffffffffffffffffffffffffff168152602001906001019080831162002230575b5050505050905090565b60016000808373ffffffffffffffffffffffffffffffffffffffff1673ffffffffffffffffffffffffffffffffffffffff1681526020019081526020016000206001016000828254019250508190555050565b6000600260008373ffffffffffffffffffffffffffffffffffffffff1673ffffffffffffffffffffffffffffffffffffffff16815260200190815260200160002060009054906101000a900473ffffffffffffffffffffffffffffffffffffffff1673ffffffffffffffffffffffffffffffffffffffff16632c135b936040518163ffffffff1660e01b815260040160206040518083038186803b1580156200238057600080fd5b505afa15801562002395573d6000803e3d6000fd5b505050506040513d6020811015620023ac57600080fd5b81019080805190602001909291905050509050919050565b6060600260008373ffffffffffffffffffffffffffffffffffffffff1673ffffffffffffffffffffffffffffffffffffffff16815260200190815260200160002060009054906101000a900473ffffffffffffffffffffffffffffffffffffffff1673ffffffffffffffffffffffffffffffffffffffff1663cc2ee1966040518163ffffffff1660e01b815260040160006040518083038186803b1580156200246c57600080fd5b505afa15801562002481573d6000803e3d6000fd5b505050506040513d6000823e3d601f19601f820116820180604052506020811015620024ac57600080fd5b8101908080516040519392919084640100000000821115620024cd57600080fd5b83820191506020820185811115620024e457600080fd5b82518660208202830111640100000000821117156200250257600080fd5b8083526020830192505050908051906020019060200280838360005b838110156200253b5780820151818401526020810190506200251e565b505050509050016040525050509050919050565b6000808251905060008090505b81811015620026285760008482815181106200257457fe5b60200260200101519050600160008273ffffffffffffffffffffffffffffffffffffffff1673ffffffffffffffffffffffffffffffffffffffff16815260200190815260200160002060010160019054906101000a900460ff1615806200260657508073ffffffffffffffffffffffffffffffffffffffff168673ffffffffffffffffffffffffffffffffffffffff16145b156200261957600093505050506200262f565b5080806001019150506200255c565b5060019150505b92915050565b612c54806200268f83390190565b6040518060400160405280600290602082028038833980820191505090505090565b604051806060016040528060008019168152602001600060ff168152602001600015158152509056fe60806040526000602460006101000a81548160ff021916908360038111156200002457fe5b021790555060405162002c5438038062002c5483398181016040526101008110156200004f57600080fd5b8101908080519060200190929190805160405193929190846401000000008211156200007a57600080fd5b838201915060208201858111156200009157600080fd5b8251866001820283011164010000000082111715620000af57600080fd5b8083526020830192505050908051906020019080838360005b83811015620000e5578082015181840152602081019050620000c8565b50505050905090810190601f168015620001135780820380516001836020036101000a031916815260200191505b50604052602001805160405193929190846401000000008211156200013757600080fd5b838201915060208201858111156200014e57600080fd5b82518660018202830111640100000000821117156200016c57600080fd5b8083526020830192505050908051906020019080838360005b83811015620001a257808201518184015260208101905062000185565b50505050905090810190601f168015620001d05780820380516001836020036101000a031916815260200191505b5060405260200180516040519392919084640100000000821115620001f457600080fd5b838201915060208201858111156200020b57600080fd5b82518660208202830111640100000000821117156200022957600080fd5b8083526020830192505050908051906020019060200280838360005b838110156200026257808201518184015260208101905062000245565b50505050905001604052602001805190602001909291908051906020019092919080516040519392919084640100000000821115620002a057600080fd5b83820191506020820185811115620002b757600080fd5b8251866020820283011164010000000082111715620002d557600080fd5b8083526020830192505050908051906020019060200280838360005b838110156200030e578082015181840152602081019050620002f1565b505050509050016040526020018051906020019092919050505080600960006101000a81548173ffffffffffffffffffffffffffffffffffffffff021916908373ffffffffffffffffffffffffffffffffffffffff160217905550876000806101000a81548173ffffffffffffffffffffffffffffffffffffffff021916908373ffffffffffffffffffffffffffffffffffffffff1602179055508660019080519060200190620003c19291906200058c565b508560029080519060200190620003da9291906200058c565b508460039080519060200190620003f392919062000613565b506000600481905550836005819055508260068190555081600790805190602001906200042292919062000665565b506017600960146101000a81548161ffff021916908361ffff16021790555060008090505b8551811015620004f257604051806040016040528060008152602001600073ffffffffffffffffffffffffffffffffffffffff16815250600c82600481106200048c57fe5b600202016000820151816000015560208201518160010160006101000a81548173ffffffffffffffffffffffffffffffffffffffff021916908373ffffffffffffffffffffffffffffffffffffffff160217905550905050808060010191505062000447565b5060008090505b82518110156200057d576001600a60008584815181106200051657fe5b602002602001015173ffffffffffffffffffffffffffffffffffffffff1673ffffffffffffffffffffffffffffffffffffffff16815260200190815260200160002060006101000a81548160ff0219169083151502179055508080600101915050620004f9565b5050505050505050506200078a565b828054600181600116156101000203166002900490600052602060002090601f016020900481019282601f10620005cf57805160ff191683800117855562000600565b8280016001018555821562000600579182015b82811115620005ff578251825591602001919060010190620005e2565b5b5090506200060f9190620006f4565b5090565b82805482825590600052602060002090810192821562000652579160200282015b828111156200065157825182559160200191906001019062000634565b5b5090506200066191906200071c565b5090565b828054828255906000526020600020908101928215620006e1579160200282015b82811115620006e05782518260006101000a81548173ffffffffffffffffffffffffffffffffffffffff021916908373ffffffffffffffffffffffffffffffffffffffff1602179055509160200191906001019062000686565b5b509050620006f0919062000744565b5090565b6200071991905b8082111562000715576000816000905550600101620006fb565b5090565b90565b6200074191905b808211156200073d57600081600090555060010162000723565b5090565b90565b6200078791905b808211156200078357600081816101000a81549073ffffffffffffffffffffffffffffffffffffffff0219169055506001016200074b565b5090565b90565b6124ba806200079a6000396000f3fe6080604052600436106101cd5760003560e01c8063722713f7116100f7578063a832317611610095578063cc7e621011610064578063cc7e621014610a63578063d3901fb514610ab2578063f462f8af14610ae1578063fbcc1e7114610b25576101cd565b8063a832317614610908578063bc0da8d31461091f578063bfb0b6081461098b578063cc2ee196146109f7576101cd565b806376bb984b116100d157806376bb984b1461079e578063894c3b1f146107b557806395e56a8414610821578063a6430cc01461088d576101cd565b8063722713f7146106685780637284e41614610693578063729ecb0714610723576101cd565b8063401e7c111161016f5780634852aa6d1161013e5780634852aa6d146105125780634bc263b914610597578063516dde43146106075780636f0f9f5e14610632576101cd565b8063401e7c11146103c6578063409e22051461042c578063459d6e4f1461047b578063465be85f146104a6576101cd565b8063288fa802116101ab578063288fa802146102b45780632c135b93146103205780632d9781631461034b57806338a481de14610384576101cd565b806306fdde03146101d2578063217a01c9146102625780632810e1d61461029d575b600080fd5b3480156101de57600080fd5b506101e7610b7c565b6040518080602001828103825283818151815260200191508051906020019080838360005b8381101561022757808201518184015260208101905061020c565b50505050905090810190601f1680156102545780820380516001836020036101000a031916815260200191505b509250505060405180910390f35b34801561026e57600080fd5b5061029b6004803603602081101561028557600080fd5b8101908080359060200190929190505050610c1a565b005b3480156102a957600080fd5b506102b2610dac565b005b3480156102c057600080fd5b506102c9610dd4565b6040518080602001828103825283818151815260200191508051906020019060200280838360005b8381101561030c5780820151818401526020810190506102f1565b505050509050019250505060405180910390f35b34801561032c57600080fd5b50610335610e64565b6040518082815260200191505060405180910390f35b34801561035757600080fd5b50610360610e6a565b6040518082600381111561037057fe5b60ff16815260200191505060405180910390f35b6103b06004803603602081101561039a57600080fd5b8101908080359060200190929190505050610e7d565b6040518082815260200191505060405180910390f35b610412600480360360408110156103dc57600080fd5b8101908080359060200190929190803573ffffffffffffffffffffffffffffffffffffffff169060200190929190505050610ff1565b604051808215151515815260200191505060405180910390f35b34801561043857600080fd5b506104656004803603602081101561044f57600080fd5b81019080803590602001909291905050506113d3565b6040518082815260200191505060405180910390f35b34801561048757600080fd5b506104906113f4565b6040518082815260200191505060405180910390f35b3480156104b257600080fd5b506104bb6113fa565b6040518080602001828103825283818151815260200191508051906020019060200280838360005b838110156104fe5780820151818401526020810190506104e3565b505050509050019250505060405180910390f35b34801561051e57600080fd5b506105556004803603604081101561053557600080fd5b810190808035906020019092919080359060200190929190505050611488565b604051808273ffffffffffffffffffffffffffffffffffffffff1673ffffffffffffffffffffffffffffffffffffffff16815260200191505060405180910390f35b3480156105a357600080fd5b506105e6600480360360208110156105ba57600080fd5b81019080803573ffffffffffffffffffffffffffffffffffffffff1690602001909291905050506114d3565b60405180831515151581526020018281526020019250505060405180910390f35b34801561061357600080fd5b5061061c611504565b6040518082815260200191505060405180910390f35b34801561063e57600080fd5b5061064761150a565b60405180831515151581526020018281526020019250505060405180910390f35b34801561067457600080fd5b5061067d61159c565b6040518082815260200191505060405180910390f35b34801561069f57600080fd5b506106a86115a4565b6040518080602001828103825283818151815260200191508051906020019080838360005b838110156106e85780820151818401526020810190506106cd565b50505050905090810190601f1680156107155780820380516001836020036101000a031916815260200191505b509250505060405180910390f35b34801561072f57600080fd5b5061075c6004803603602081101561074657600080fd5b8101908080359060200190929190505050611642565b604051808273ffffffffffffffffffffffffffffffffffffffff1673ffffffffffffffffffffffffffffffffffffffff16815260200191505060405180910390f35b3480156107aa57600080fd5b506107b361167e565b005b3480156107c157600080fd5b506107ca611c28565b6040518080602001828103825283818151815260200191508051906020019060200280838360005b8381101561080d5780820151818401526020810190506107f2565b505050509050019250505060405180910390f35b34801561082d57600080fd5b50610836611cb6565b6040518080602001828103825283818151815260200191508051906020019060200280838360005b8381101561087957808201518184015260208101905061085e565b505050509050019250505060405180910390f35b34801561089957600080fd5b506108c6600480360360208110156108b057600080fd5b8101908080359060200190929190505050611d40565b604051808273ffffffffffffffffffffffffffffffffffffffff1673ffffffffffffffffffffffffffffffffffffffff16815260200191505060405180910390f35b34801561091457600080fd5b5061091d611d7c565b005b34801561092b57600080fd5b50610934611daa565b6040518080602001828103825283818151815260200191508051906020019060200280838360005b8381101561097757808201518184015260208101905061095c565b505050509050019250505060405180910390f35b34801561099757600080fd5b506109a0611e34565b6040518080602001828103825283818151815260200191508051906020019060200280838360005b838110156109e35780820151818401526020810190506109c8565b505050509050019250505060405180910390f35b348015610a0357600080fd5b50610a0c611ebe565b6040518080602001828103825283818151815260200191508051906020019060200280838360005b83811015610a4f578082015181840152602081019050610a34565b505050509050019250505060405180910390f35b348015610a6f57600080fd5b50610a9c60048036036020811015610a8657600080fd5b8101908080359060200190929190505050611f16565b6040518082815260200191505060405180910390f35b348015610abe57600080fd5b50610ac7611f2e565b604051808215151515815260200191505060405180910390f35b610b2360048036036020811015610af757600080fd5b81019080803573ffffffffffffffffffffffffffffffffffffffff169060200190929190505050611fce565b005b348015610b3157600080fd5b50610b3a612020565b604051808273ffffffffffffffffffffffffffffffffffffffff1673ffffffffffffffffffffffffffffffffffffffff16815260200191505060405180910390f35b60018054600181600116156101000203166002900480601f016020809104026020016040519081016040528092919081815260200182805460018160011615610100020316600290048015610c125780601f10610be757610100808354040283529160200191610c12565b820191906000526020600020905b815481529060010190602001808311610bf557829003601f168201915b505050505081565b60001515602160003373ffffffffffffffffffffffffffffffffffffffff1673ffffffffffffffffffffffffffffffffffffffff16815260200190815260200160002060000160009054906101000a900460ff16151514610c7a57600080fd5b610c82611f2e565b610c8b57600080fd5b604051806040016040528060011515815260200182815250602160003373ffffffffffffffffffffffffffffffffffffffff1673ffffffffffffffffffffffffffffffffffffffff16815260200190815260200160002060008201518160000160006101000a81548160ff02191690831515021790555060208201518160010155905050602260008281526020019081526020016000203390806001815401808255809150509060018203906000526020600020016000909192909190916101000a81548173ffffffffffffffffffffffffffffffffffffffff021916908373ffffffffffffffffffffffffffffffffffffffff16021790555050602360008281526020019081526020016000206000815480929190600101919050555050565b600080610db761150a565b9150915081610dcf57610dc981610e7d565b50610dd0565b5b5050565b6060600060049050606081604051908082528060200260200182016040528015610e0d5781602001602082028038833980820191505090505b50905060008090505b82811015610e5b57600c8160048110610e2b57fe5b600202016000015460001b828281518110610e4257fe5b6020026020010181815250508080600101915050610e16565b50809250505090565b60045481565b602460009054906101000a900460ff1681565b600080600960009054906101000a900473ffffffffffffffffffffffffffffffffffffffff169050600080905060008090505b602080549050811015610fe65760008090505b60208281548110610ed057fe5b9060005260206000209050506004811015610fd857600073ffffffffffffffffffffffffffffffffffffffff1660208381548110610f0a57fe5b90600052602060002090600402016000018260048110610f2657fe5b0160009054906101000a900473ffffffffffffffffffffffffffffffffffffffff1673ffffffffffffffffffffffffffffffffffffffff1614610fcb57600a8301925085811415610fc957610fc460208381548110610f8157fe5b90600052602060002090600402016000018260048110610f9d57fe5b0160009054906101000a900473ffffffffffffffffffffffffffffffffffffffff16611fce565b610fca565b5b5b8080600101915050610ec3565b508080600101915050610eb0565b508092505050919050565b600080349050670de0b6b3a7640000341061100b57600080fd5b80600c856004811061101957fe5b60020201600001541061102b57600080fd5b600c846004811061103857fe5b6002020160010160009054906101000a900473ffffffffffffffffffffffffffffffffffffffff1673ffffffffffffffffffffffffffffffffffffffff166108fc600c866004811061108657fe5b60020201600001549081150290604051600060405180830381858888f193505050501580156110b9573d6000803e3d6000fd5b506000670de0b6b3a764000090506110cf61228c565b60008090505b60048110156111845786811461117757600c81600481106110f257fe5b600202016000015483039250600c816004811061110b57fe5b6002020160010160009054906101000a900473ffffffffffffffffffffffffffffffffffffffff1682826004811061113f57fe5b602002019073ffffffffffffffffffffffffffffffffffffffff16908173ffffffffffffffffffffffffffffffffffffffff16815250505b80806001019150506110d5565b5082821161132d573381876004811061119957fe5b602002019073ffffffffffffffffffffffffffffffffffffffff16908173ffffffffffffffffffffffffffffffffffffffff16815250506111d86122ae565b60405180602001604052808381525090506020819080600181540180825580915050906001820390600052602060002090600402016000909192909190915060008201518160000190600461122e9291906122c7565b5050505060008090505b6004811015611296578781141561126157836014826004811061125757fe5b0181905550611289565b600c816004811061126e57fe5b60020201600001546014826004811061128357fe5b01819055505b8080600101915050611238565b503373ffffffffffffffffffffffffffffffffffffffff166108fc8486039081150290604051600060405180830381858888f193505050501580156112df573d6000803e3d6000fd5b506112e986612045565b60008090505b600481101561131f576000600c826004811061130757fe5b600202016000018190555080806001019150506112ef565b5060019450505050506113cd565b611335612344565b60405180604001604052808581526020013373ffffffffffffffffffffffffffffffffffffffff16815250905080600c886004811061137057fe5b600202016000820151816000015560208201518160010160006101000a81548173ffffffffffffffffffffffffffffffffffffffff021916908373ffffffffffffffffffffffffffffffffffffffff160217905550905050505050505b92915050565b600381815481106113e057fe5b906000526020600020016000915090505481565b60055481565b6060600880548060200260200160405190810160405280929190818152602001828054801561147e57602002820191906000526020600020905b8160009054906101000a900473ffffffffffffffffffffffffffffffffffffffff1673ffffffffffffffffffffffffffffffffffffffff1681526020019060010190808311611434575b5050505050905090565b602260205281600052604060002081815481106114a157fe5b906000526020600020016000915091509054906101000a900473ffffffffffffffffffffffffffffffffffffffff1681565b60216020528060005260406000206000915090508060000160009054906101000a900460ff16908060010154905082565b60065481565b60008060008090506000806000905060008090505b60038054905081101561158e576000602360006003848154811061153f57fe5b90600052602060002001548152602001908152602001600020549050848111156115725780945060009250819350611580565b8481141561157f57600192505b5b50808060010191505061151f565b508082945094505050509091565b600047905090565b60028054600181600116156101000203166002900480601f01602080910402602001604051908101604052809291908181526020018280546001816001161561010002031660029004801561163a5780601f1061160f5761010080835404028352916020019161163a565b820191906000526020600020905b81548152906001019060200180831161161d57829003601f168201915b505050505081565b6008818154811061164f57fe5b906000526020600020016000915054906101000a900473ffffffffffffffffffffffffffffffffffffffff1681565b6000600960009054906101000a900473ffffffffffffffffffffffffffffffffffffffff16905060608173ffffffffffffffffffffffffffffffffffffffff1663c9e519e86040518163ffffffff1660e01b815260040160006040518083038186803b1580156116ed57600080fd5b505afa158015611701573d6000803e3d6000fd5b505050506040513d6000823e3d601f19601f82011682018060405250602081101561172b57600080fd5b810190808051604051939291908464010000000082111561174b57600080fd5b8382019150602082018581111561176157600080fd5b825186602082028301116401000000008211171561177e57600080fd5b8083526020830192505050908051906020019060200280838360005b838110156117b557808201518184015260208101905061179a565b5050505090500160405250505090506060600a8251026040519080825280602002602001820160405280156117f95781602001602082028038833980820191505090505b509050600080905060008090505b83518110156119e657600084828151811061181e57fe5b60200260200101519050600a60008273ffffffffffffffffffffffffffffffffffffffff1673ffffffffffffffffffffffffffffffffffffffff16815260200190815260200160002060009054906101000a900460ff161561188057506119d9565b60008673ffffffffffffffffffffffffffffffffffffffff166351d0ea37836040518263ffffffff1660e01b8152600401808273ffffffffffffffffffffffffffffffffffffffff1673ffffffffffffffffffffffffffffffffffffffff16815260200191505060606040518083038186803b1580156118ff57600080fd5b505afa158015611913573d6000803e3d6000fd5b505050506040513d606081101561192957600080fd5b81019080805190602001909291908051906020019092919080519060200190929190505050509150506000600a60ff168260ff168161196457fe5b04905060008090505b8160ff168110156119d4578387878151811061198557fe5b602002602001019073ffffffffffffffffffffffffffffffffffffffff16908173ffffffffffffffffffffffffffffffffffffffff16815250508580600101965050808060010191505061196d565b505050505b8080600101915050611807565b5060606005604051908082528060200260200182016040528015611a195781602001602082028038833980820191505090505b50905060008090505b6005811015611c09576000834233600960149054906101000a900461ffff16604051602001808481526020018373ffffffffffffffffffffffffffffffffffffffff1673ffffffffffffffffffffffffffffffffffffffff1660601b81526014018261ffff1661ffff1660f01b815260020193505050506040516020818303038152906040528051906020012060001c81611ab957fe5b0690506009601481819054906101000a900461ffff168092919060010191906101000a81548161ffff021916908361ffff160217905550506000858281518110611aff57fe5b60200260200101519050600b60008273ffffffffffffffffffffffffffffffffffffffff1673ffffffffffffffffffffffffffffffffffffffff16815260200190815260200160002060009054906101000a900460ff16611c02576001600b60008373ffffffffffffffffffffffffffffffffffffffff1673ffffffffffffffffffffffffffffffffffffffff16815260200190815260200160002060006101000a81548160ff02191690831515021790555080848481518110611bbf57fe5b602002602001019073ffffffffffffffffffffffffffffffffffffffff16908173ffffffffffffffffffffffffffffffffffffffff168152505082806001019350505b5050611a22565b8160089080519060200190611c1f929190612374565b50505050505050565b60606007805480602002602001604051908101604052809291908181526020018280548015611cac57602002820191906000526020600020905b8160009054906101000a900473ffffffffffffffffffffffffffffffffffffffff1673ffffffffffffffffffffffffffffffffffffffff1681526020019060010190808311611c62575b5050505050905090565b6060600060049050606081604051908082528060200260200182016040528015611cef5781602001602082028038833980820191505090505b50905060008090505b82811015611d375760148160048110611d0d57fe5b015460001b828281518110611d1e57fe5b6020026020010181815250508080600101915050611cf8565b50809250505090565b60078181548110611d4d57fe5b906000526020600020016000915054906101000a900473ffffffffffffffffffffffffffffffffffffffff1681565b6002602460006101000a81548160ff02191690836003811115611d9b57fe5b0217905550611da861167e565b565b6060600060049050606081604051908082528060200260200182016040528015611de35781602001602082028038833980820191505090505b50905060008090505b82811015611e2b57601c8160048110611e0157fe5b015460001b828281518110611e1257fe5b6020026020010181815250508080600101915050611dec565b50809250505090565b6060600060049050606081604051908082528060200260200182016040528015611e6d5781602001602082028038833980820191505090505b50905060008090505b82811015611eb55760188160048110611e8b57fe5b015460001b828281518110611e9c57fe5b6020026020010181815250508080600101915050611e76565b50809250505090565b60606003805480602002602001604051908101604052809291908181526020018280548015611f0c57602002820191906000526020600020905b815481526020019060010190808311611ef8575b5050505050905090565b60236020528060005260406000206000915090505481565b600080600090505b600780549050811015611fc5573373ffffffffffffffffffffffffffffffffffffffff1660078281548110611f6757fe5b9060005260206000200160009054906101000a900473ffffffffffffffffffffffffffffffffffffffff1673ffffffffffffffffffffffffffffffffffffffff161415611fb8576001915050611fcb565b8080600101915050611f36565b50600090505b90565b8073ffffffffffffffffffffffffffffffffffffffff166108fc670d99a8cec7e200009081150290604051600060405180830381858888f1935050505015801561201c573d6000803e3d6000fd5b5050565b6000809054906101000a900473ffffffffffffffffffffffffffffffffffffffff1681565b60008190506120526122ae565b60206001602080549050038154811061206757fe5b9060005260206000209060040201604051806020016040529081600082016004806020026040519081016040528092919082600480156120f2576020028201915b8160009054906101000a900473ffffffffffffffffffffffffffffffffffffffff1673ffffffffffffffffffffffffffffffffffffffff16815260200190600101908083116120a8575b505050505081525050905060008090505b60048110156122865760008260000151826004811061211e57fe5b6020020151905061212d6123fe565b8473ffffffffffffffffffffffffffffffffffffffff16633d59f85b836040518263ffffffff1660e01b8152600401808273ffffffffffffffffffffffffffffffffffffffff1673ffffffffffffffffffffffffffffffffffffffff168152602001915050604080518083038186803b1580156121a957600080fd5b505afa1580156121bd573d6000803e3d6000fd5b505050506040513d601f19601f8201168201806040525060408110156121e257600080fd5b81019080919050509050601483600481106121f957fe5b01548160006002811061220857fe5b6020020151026018846004811061221b57fe5b0154016018846004811061222b57fe5b01819055506014836004811061223d57fe5b01546001038160016002811061224f57fe5b602002015102601c846004811061226257fe5b015401601c846004811061227257fe5b018190555050508080600101915050612103565b50505050565b6040518060800160405280600490602082028038833980820191505090505090565b60405180602001604052806122c1612420565b81525090565b8260048101928215612333579160200282015b828111156123325782518260006101000a81548173ffffffffffffffffffffffffffffffffffffffff021916908373ffffffffffffffffffffffffffffffffffffffff160217905550916020019190600101906122da565b5b5090506123409190612442565b5090565b604051806040016040528060008152602001600073ffffffffffffffffffffffffffffffffffffffff1681525090565b8280548282559060005260206000209081019282156123ed579160200282015b828111156123ec5782518260006101000a81548173ffffffffffffffffffffffffffffffffffffffff021916908373ffffffffffffffffffffffffffffffffffffffff16021790555091602001919060010190612394565b5b5090506123fa9190612442565b5090565b6040518060400160405280600290602082028038833980820191505090505090565b6040518060800160405280600490602082028038833980820191505090505090565b61248291905b8082111561247e57600081816101000a81549073ffffffffffffffffffffffffffffffffffffffff021916905550600101612448565b5090565b9056fea265627a7a72315820606374b633ef325155d21d8f2b0fc581ee1d70ab3a10e8d14c768b0a8ea28e4564736f6c63430005100032a265627a7a723158208a06c711506aa3f3e1078b46721d3fcecc042a8a1ceb37f670a528e3d1ed7f3764736f6c63430005100032",
  "source": "// SPDX-License-Identifier: MIT\npragma solidity >=0.4.21 <=0.7.0;\nimport \"./Topic.sol\";\n\ncontract PredictionMarket {\n    // Structs for users and arbitrators. Default scores = 100\n    struct Trader {\n        uint winScore;\n        uint loseScore;\n        bool isValid; \n    }\n\n    struct Arbitrator {\n        bytes32 displayName;\n        uint8 trustworthiness;\n        bool isValid;\n    }\n\n    // Maps of addresses to different entities\n    mapping (address => Trader) public traders;\n    mapping (address => Arbitrator) public arbitrators;\n    mapping (address => Topic) public marketTopics;\n\n    // Array of addresses of topics to return to front end\n    address[] topicAddresses;\n\n    // Array of addresses of arbitrators to return to front end\n    address payable[] arbitratorAddresses;\n\n    // Struct create functions\n    function createTrader() public {\n        address id = msg.sender;\n        // // require that address has not been assigned to a trader\n        require(!traders[id].isValid);\n\n        // // create new trader with the default values\n        traders[id] = Trader(100, 100, true);\n    }\n\n    function createArbitrator(bytes32 _displayName) public {\n        address id = msg.sender;\n\n        // require that address has not been assigned to a arbitrator\n        require(!arbitrators[id].isValid);\n\n        // create new arbitrator with the default values\n        arbitrators[id] = Arbitrator(_displayName, 50, true);\n\n        arbitratorAddresses.push(address(uint160(id)));\n    }\n\n    function getAllArbitrators() public view returns (address payable[] memory) {\n        return arbitratorAddresses;\n    }\n\n    function getAllArbitratorNames() public view returns (bytes32[] memory) {\n        uint len = arbitratorAddresses.length;\n        bytes32[] memory names = new bytes32[](len);\n\n        for (uint i = 0; i < len; i++) {\n            address arbitratorAddress = arbitratorAddresses[i];\n            Arbitrator memory arbitrator = arbitrators[arbitratorAddress];\n            names[i] = arbitrator.displayName;\n        }\n        return names;\n    }\n\n    //VOTER'S REPUTATION \n    function getVotersReputation(address id) public view returns (uint[2] memory){\n        return [traders[id].winScore, traders[id].loseScore];\n    }\n\n    // AUTHENTICATION\n    function checkIdentity() public view returns (bytes32) {\n        // Check if user is a trader\n        if(traders[msg.sender].isValid){\n            return bytes32(\"Trader\");\n        }\n        // Check if user is an arbitrator\n        if(arbitrators[msg.sender].isValid){\n            return bytes32(\"Arbitrator\");\n        }\n        // If all the above fails, return invalid\n        return bytes32(\"Invalid\");\n    }\n\n\n    // Topics\n    function createTopic(\n        string memory name, string memory description, bytes32[] memory options, uint256 expiryDate, address payable[] memory selectedArbitrators\n    ) public payable\n        {\n        address payable creatorId = msg.sender;\n\n        // Creator must have a trader account\n        require(traders[creatorId].isValid);\n\n        // Must have value above 0 ETH for payment of creation bond\n        require(msg.value > 0 ether);\n\n        // selected arbitrators must have arbitrator account and creator must not select himself as an arbitrator\n        require(areValidArbitrators(creatorId, selectedArbitrators));\n\n        uint bondValue = msg.value;\n        Topic newTopic = new Topic(creatorId, name, description, options, bondValue, expiryDate, selectedArbitrators, address(this));\n        address payable topicAddress = address(uint160(address(newTopic))); // to cast from address to address payable\n        marketTopics[topicAddress] = newTopic;\n        topicAddresses.push(topicAddress);\n        emit TopicCreated(topicAddress);\n    }\n\n    function getAllTopics() public view returns (address[] memory) {\n        return topicAddresses;\n    }\n\n    function areValidArbitrators(address payable creatorId, address payable[] memory selectedArbitrators) internal view returns (bool) {\n        uint numSelectedArbitrators = selectedArbitrators.length;\n        for (uint i = 0; i < numSelectedArbitrators; i++) {\n            address arbitrator = selectedArbitrators[i];\n            if (!arbitrators[arbitrator].isValid || creatorId == arbitrator) {\n                return false;\n            }\n        }\n        return true;\n    }\n\n    function updateWinScore(address winnerAddress) public {\n        traders[winnerAddress].winScore += 1;\n    }\n\n    function getWinScore(address winnerAddress) public view returns (uint){\n        Trader storage winner = traders[winnerAddress];\n        return winner.winScore;\n    }\n\n    function updateLoseScore(address loserAddress) public {\n        traders[loserAddress].loseScore += 1;\n    }\n\n    function getLoseScore(address loserAddress) public view returns (uint){\n        Trader storage loser = traders[loserAddress];\n        return loser.loseScore;\n    }\n\n\n    // ===============================================================\n    // For testing purposes\n    // ===============================================================\n    event TopicCreated(address _topicAddress);\n\n    function getCreatorAddress(address topicAddress) public view returns (address payable) {\n        return marketTopics[topicAddress].topicCreator();\n    }\n\n    function getName(address topicAddress) public view returns (string memory) {\n        return marketTopics[topicAddress].name();\n    }\n\n    function getDescription(address topicAddress) public view returns (string memory) {\n        return marketTopics[topicAddress].description();\n    }\n\n    function getOptions(address topicAddress) public view returns (bytes32[] memory) {\n        return marketTopics[topicAddress].getOptions();\n    }\n\n    function getMarketCap(address topicAddress) public view returns (uint) {\n        return marketTopics[topicAddress].marketCap();\n    }\n\n    function getCreatorBond(address topicAddress) public view returns (uint) {\n        return marketTopics[topicAddress].creatorBond();\n    }\n\n    function getExpiryDate(address topicAddress) public view returns (uint256) {\n        return marketTopics[topicAddress].expiryDate();\n    }\n\n    function getSelectedArbitrators(address topicAddress) public view returns (address payable[] memory) {\n        return marketTopics[topicAddress].getArbitrators();\n    }\n\n    function getCurrentBalance() public view returns (uint) {\n        return address(this).balance;\n    }\n\n}",
  "sourcePath": "/Users/gwynethang/Documents/Academics/Y4S1/Blockchain/Decentralised_Prediction_Market/contracts/PredictionMarket.sol",
  "compiler": {
    "name": "solc",
    "version": "0.5.16+commit.9c3226ce.Emscripten.clang"
  },
  "schemaVersion": "3.3.1",
  "updatedAt": "2020-10-24T09:50:40.013Z",
  "networkType": "ethereum",
  "devdoc": {
    "methods": {}
  },
  "userdoc": {
    "methods": {}
  }
}