{
  "contractName": "PredictionMarket",
  "abi": [
    {
      "anonymous": false,
      "inputs": [
        {
          "indexed": false,
          "internalType": "address",
          "name": "_topicAddress",
          "type": "address"
        }
      ],
      "name": "TopicCreated",
      "type": "event"
    },
    {
      "constant": true,
      "inputs": [
        {
          "internalType": "address",
          "name": "",
          "type": "address"
        }
      ],
      "name": "arbitrators",
      "outputs": [
        {
          "internalType": "bytes32",
          "name": "displayName",
          "type": "bytes32"
        },
        {
          "internalType": "uint8",
          "name": "trustworthiness",
          "type": "uint8"
        },
        {
          "internalType": "bool",
          "name": "isValid",
          "type": "bool"
        }
      ],
      "payable": false,
      "stateMutability": "view",
      "type": "function"
    },
    {
      "constant": true,
      "inputs": [
        {
          "internalType": "address",
          "name": "",
          "type": "address"
        }
      ],
      "name": "marketTopics",
      "outputs": [
        {
          "internalType": "contract Topic",
          "name": "",
          "type": "address"
        }
      ],
      "payable": false,
      "stateMutability": "view",
      "type": "function"
    },
    {
      "constant": true,
      "inputs": [
        {
          "internalType": "address",
          "name": "",
          "type": "address"
        }
      ],
      "name": "traders",
      "outputs": [
        {
          "internalType": "uint256",
          "name": "winScore",
          "type": "uint256"
        },
        {
          "internalType": "uint256",
          "name": "loseScore",
          "type": "uint256"
        },
        {
          "internalType": "bool",
          "name": "isValid",
          "type": "bool"
        }
      ],
      "payable": false,
      "stateMutability": "view",
      "type": "function"
    },
    {
      "constant": false,
      "inputs": [],
      "name": "createTrader",
      "outputs": [],
      "payable": false,
      "stateMutability": "nonpayable",
      "type": "function"
    },
    {
      "constant": false,
      "inputs": [
        {
          "internalType": "bytes32",
          "name": "_displayName",
          "type": "bytes32"
        }
      ],
      "name": "createArbitrator",
      "outputs": [],
      "payable": false,
      "stateMutability": "nonpayable",
      "type": "function"
    },
    {
      "constant": true,
      "inputs": [],
      "name": "getAllArbitrators",
      "outputs": [
        {
          "internalType": "address payable[]",
          "name": "",
          "type": "address[]"
        }
      ],
      "payable": false,
      "stateMutability": "view",
      "type": "function"
    },
    {
      "constant": true,
      "inputs": [],
      "name": "getArbitratorName",
      "outputs": [
        {
          "internalType": "bytes32",
          "name": "",
          "type": "bytes32"
        }
      ],
      "payable": false,
      "stateMutability": "view",
      "type": "function"
    },
    {
      "constant": true,
      "inputs": [],
      "name": "getAllArbitratorNames",
      "outputs": [
        {
          "internalType": "bytes32[]",
          "name": "",
          "type": "bytes32[]"
        }
      ],
      "payable": false,
      "stateMutability": "view",
      "type": "function"
    },
    {
      "constant": true,
      "inputs": [],
      "name": "getArbitratorReputations",
      "outputs": [
        {
          "internalType": "uint256[]",
          "name": "",
          "type": "uint256[]"
        }
      ],
      "payable": false,
      "stateMutability": "view",
      "type": "function"
    },
    {
      "constant": true,
      "inputs": [
        {
          "internalType": "address",
          "name": "id",
          "type": "address"
        }
      ],
      "name": "getVotersReputation",
      "outputs": [
        {
          "internalType": "uint256[2]",
          "name": "",
          "type": "uint256[2]"
        }
      ],
      "payable": false,
      "stateMutability": "view",
      "type": "function"
    },
    {
      "constant": true,
      "inputs": [],
      "name": "checkIdentity",
      "outputs": [
        {
          "internalType": "bytes32",
          "name": "",
          "type": "bytes32"
        }
      ],
      "payable": false,
      "stateMutability": "view",
      "type": "function"
    },
    {
      "constant": true,
      "inputs": [
        {
          "internalType": "address",
          "name": "trader",
          "type": "address"
        }
      ],
      "name": "checkValidTrader",
      "outputs": [
        {
          "internalType": "bool",
          "name": "",
          "type": "bool"
        }
      ],
      "payable": false,
      "stateMutability": "view",
      "type": "function"
    },
    {
      "constant": false,
      "inputs": [
        {
          "internalType": "string",
          "name": "name",
          "type": "string"
        },
        {
          "internalType": "string",
          "name": "description",
          "type": "string"
        },
        {
          "internalType": "bytes32[]",
          "name": "options",
          "type": "bytes32[]"
        },
        {
          "internalType": "uint256",
          "name": "expiryDate",
          "type": "uint256"
        },
        {
          "internalType": "address payable[]",
          "name": "selectedArbitrators",
          "type": "address[]"
        }
      ],
      "name": "createTopic",
      "outputs": [],
      "payable": true,
      "stateMutability": "payable",
      "type": "function"
    },
    {
      "constant": true,
      "inputs": [],
      "name": "getAllTopics",
      "outputs": [
        {
          "internalType": "address[]",
          "name": "",
          "type": "address[]"
        }
      ],
      "payable": false,
      "stateMutability": "view",
      "type": "function"
    },
    {
      "constant": false,
      "inputs": [
        {
          "internalType": "address",
          "name": "winnerAddress",
          "type": "address"
        }
      ],
      "name": "updateWinScore",
      "outputs": [],
      "payable": false,
      "stateMutability": "nonpayable",
      "type": "function"
    },
    {
      "constant": true,
      "inputs": [
        {
          "internalType": "address",
          "name": "winnerAddress",
          "type": "address"
        }
      ],
      "name": "getWinScore",
      "outputs": [
        {
          "internalType": "uint256",
          "name": "",
          "type": "uint256"
        }
      ],
      "payable": false,
      "stateMutability": "view",
      "type": "function"
    },
    {
      "constant": false,
      "inputs": [
        {
          "internalType": "address",
          "name": "loserAddress",
          "type": "address"
        }
      ],
      "name": "updateLoseScore",
      "outputs": [],
      "payable": false,
      "stateMutability": "nonpayable",
      "type": "function"
    },
    {
      "constant": true,
      "inputs": [
        {
          "internalType": "address",
          "name": "loserAddress",
          "type": "address"
        }
      ],
      "name": "getLoseScore",
      "outputs": [
        {
          "internalType": "uint256",
          "name": "",
          "type": "uint256"
        }
      ],
      "payable": false,
      "stateMutability": "view",
      "type": "function"
    },
    {
      "constant": false,
      "inputs": [
        {
          "internalType": "address payable",
          "name": "targetAddress",
          "type": "address"
        },
        {
          "internalType": "uint256",
          "name": "bondValue",
          "type": "uint256"
        }
      ],
      "name": "transferCreatorBond",
      "outputs": [],
      "payable": true,
      "stateMutability": "payable",
      "type": "function"
    },
    {
      "constant": false,
      "inputs": [
        {
          "internalType": "address",
          "name": "honestArb",
          "type": "address"
        }
      ],
      "name": "updateHonestTrustworthiness",
      "outputs": [],
      "payable": false,
      "stateMutability": "nonpayable",
      "type": "function"
    },
    {
      "constant": false,
      "inputs": [
        {
          "internalType": "address",
          "name": "dishonestArb",
          "type": "address"
        }
      ],
      "name": "updateDishonestTrustworthiness",
      "outputs": [],
      "payable": false,
      "stateMutability": "nonpayable",
      "type": "function"
    },
    {
      "constant": true,
      "inputs": [
        {
          "internalType": "address",
          "name": "arbitrator",
          "type": "address"
        }
      ],
      "name": "getTrustworthinessScore",
      "outputs": [
        {
          "internalType": "uint256",
          "name": "",
          "type": "uint256"
        }
      ],
      "payable": false,
      "stateMutability": "view",
      "type": "function"
    },
    {
      "constant": true,
      "inputs": [
        {
          "internalType": "address",
          "name": "topicAddress",
          "type": "address"
        }
      ],
      "name": "getCreatorAddress",
      "outputs": [
        {
          "internalType": "address payable",
          "name": "",
          "type": "address"
        }
      ],
      "payable": false,
      "stateMutability": "view",
      "type": "function"
    },
    {
      "constant": true,
      "inputs": [
        {
          "internalType": "address",
          "name": "topicAddress",
          "type": "address"
        }
      ],
      "name": "getName",
      "outputs": [
        {
          "internalType": "string",
          "name": "",
          "type": "string"
        }
      ],
      "payable": false,
      "stateMutability": "view",
      "type": "function"
    },
    {
      "constant": true,
      "inputs": [
        {
          "internalType": "address",
          "name": "topicAddress",
          "type": "address"
        }
      ],
      "name": "getDescription",
      "outputs": [
        {
          "internalType": "string",
          "name": "",
          "type": "string"
        }
      ],
      "payable": false,
      "stateMutability": "view",
      "type": "function"
    },
    {
      "constant": true,
      "inputs": [
        {
          "internalType": "address",
          "name": "topicAddress",
          "type": "address"
        }
      ],
      "name": "getOptions",
      "outputs": [
        {
          "internalType": "bytes32[]",
          "name": "",
          "type": "bytes32[]"
        }
      ],
      "payable": false,
      "stateMutability": "view",
      "type": "function"
    },
    {
      "constant": true,
      "inputs": [
        {
          "internalType": "address",
          "name": "topicAddress",
          "type": "address"
        }
      ],
      "name": "getMarketCap",
      "outputs": [
        {
          "internalType": "uint256",
          "name": "",
          "type": "uint256"
        }
      ],
      "payable": false,
      "stateMutability": "view",
      "type": "function"
    },
    {
      "constant": true,
      "inputs": [
        {
          "internalType": "address",
          "name": "topicAddress",
          "type": "address"
        }
      ],
      "name": "getCreatorBond",
      "outputs": [
        {
          "internalType": "uint256",
          "name": "",
          "type": "uint256"
        }
      ],
      "payable": false,
      "stateMutability": "view",
      "type": "function"
    },
    {
      "constant": true,
      "inputs": [
        {
          "internalType": "address",
          "name": "topicAddress",
          "type": "address"
        }
      ],
      "name": "getExpiryDate",
      "outputs": [
        {
          "internalType": "uint256",
          "name": "",
          "type": "uint256"
        }
      ],
      "payable": false,
      "stateMutability": "view",
      "type": "function"
    },
    {
      "constant": true,
      "inputs": [
        {
          "internalType": "address",
          "name": "topicAddress",
          "type": "address"
        }
      ],
      "name": "getSelectedArbitrators",
      "outputs": [
        {
          "internalType": "address payable[]",
          "name": "",
          "type": "address[]"
        }
      ],
      "payable": false,
      "stateMutability": "view",
      "type": "function"
    },
    {
      "constant": true,
      "inputs": [],
      "name": "getCurrentBalance",
      "outputs": [
        {
          "internalType": "uint256",
          "name": "",
          "type": "uint256"
        }
      ],
      "payable": false,
      "stateMutability": "view",
      "type": "function"
    }
  ],
  "bytecode": "0x608060405234801561001057600080fd5b50614e68806100206000396000f3fe608060405260043610620002065760003560e01c80636e193a59116200011b578063b4b1d9c711620000a3578063c9e519e8116200006d578063c9e519e81462000a88578063cd1e0b6d1462000aa0578063d146d31d1462000ad7578063e7c256b61462000b0e5762000206565b8063b4b1d9c714620009cb578063b755f3b31462000a02578063c082c30c1462000a1a578063c86b21591462000a515762000206565b806399667bdc11620000e557806399667bdc146200092d5780639ea630ba1462000964578063a5749710146200099b578063b227126814620009b35762000206565b80636e193a59146200086f5780636f762d8a14620008a657806386416f1414620008be57806392a88fa214620008d65762000206565b8063420d3ae8116200019f57806351d0ea37116200016957806351d0ea3714620007045780635fd4b08a146200075d5780636215a16e146200080c5780636c8501a914620008575762000206565b8063420d3ae81462000650578063457dac02146200067e5780634c5bab1714620006b55780634de1c9e414620006ec5762000206565b80632c2153ba11620001e15780632c2153ba146200052d5780632ea8e7ae14620005765780633d59f85b14620005a55780633fd8667b14620006195762000206565b806302d54fbf146200020b578063158f3c1e146200025e5780631aa90abc14620004a4575b600080fd5b3480156200021857600080fd5b5062000242600480360360208110156200023157600080fd5b50356001600160a01b031662000b45565b604080516001600160a01b039092168252519081900360200190f35b620004a2600480360360a08110156200027657600080fd5b810190602081018135600160201b8111156200029157600080fd5b820183602082011115620002a457600080fd5b803590602001918460018302840111600160201b83111715620002c657600080fd5b91908080601f0160208091040260200160405190810160405280939291908181526020018383808284376000920191909152509295949360208101935035915050600160201b8111156200031957600080fd5b8201836020820111156200032c57600080fd5b803590602001918460018302840111600160201b831117156200034e57600080fd5b91908080601f0160208091040260200160405190810160405280939291908181526020018383808284376000920191909152509295949360208101935035915050600160201b811115620003a157600080fd5b820183602082011115620003b457600080fd5b803590602001918460208302840111600160201b83111715620003d657600080fd5b91908080602002602001604051908101604052809392919081815260200183836020028082843760009201919091525092958435959094909350604081019250602001359050600160201b8111156200042e57600080fd5b8201836020820111156200044157600080fd5b803590602001918460208302840111600160201b831117156200046357600080fd5b91908080602002602001604051908101604052809392919081815260200183836020028082843760009201919091525092955062000b60945050505050565b005b348015620004b157600080fd5b50620004db60048036036020811015620004ca57600080fd5b50356001600160a01b031662000e2a565b60408051602080825283518183015283519192839290830191858101910280838360005b8381101562000519578181015183820152602001620004ff565b505050509050019250505060405180910390f35b3480156200053a57600080fd5b5062000564600480360360208110156200055357600080fd5b50356001600160a01b031662000f52565b60408051918252519081900360200190f35b620004a2600480360360408110156200058e57600080fd5b506001600160a01b03813516906020013562000f70565b348015620005b257600080fd5b50620005dc60048036036020811015620005cb57600080fd5b50356001600160a01b031662001004565b6040518082600260200280838360005b8381101562000606578181015183820152602001620005ec565b5050505090500191505060405180910390f35b3480156200062657600080fd5b5062000564600480360360208110156200063f57600080fd5b50356001600160a01b03166200106e565b3480156200065d57600080fd5b50620004a2600480360360208110156200067657600080fd5b5035620010f5565b3480156200068b57600080fd5b50620004a260048036036020811015620006a457600080fd5b50356001600160a01b0316620011c7565b348015620006c257600080fd5b506200056460048036036020811015620006db57600080fd5b50356001600160a01b031662001226565b348015620006f957600080fd5b506200056462001248565b3480156200071157600080fd5b506200073b600480360360208110156200072a57600080fd5b50356001600160a01b03166200131d565b6040805193845260ff9092166020840152151582820152519081900360600190f35b3480156200076a57600080fd5b5062000794600480360360208110156200078357600080fd5b50356001600160a01b031662001342565b6040805160208082528351818301528351919283929083019185019080838360005b83811015620007d0578181015183820152602001620007b6565b50505050905090810190601f168015620007fe5780820380516001836020036101000a031916815260200191505b509250505060405180910390f35b3480156200081957600080fd5b5062000843600480360360208110156200083257600080fd5b50356001600160a01b03166200148f565b604080519115158252519081900360200190f35b3480156200086457600080fd5b5062000564620014b0565b3480156200087c57600080fd5b50620004a2600480360360208110156200089557600080fd5b50356001600160a01b0316620014c3565b348015620008b357600080fd5b50620004db620014e3565b348015620008cb57600080fd5b50620004db620015d1565b348015620008e357600080fd5b506200090d60048036036020811015620008fc57600080fd5b50356001600160a01b031662001635565b604080519384526020840192909252151582820152519081900360600190f35b3480156200093a57600080fd5b50620004a2600480360360208110156200095357600080fd5b50356001600160a01b031662001659565b3480156200097157600080fd5b5062000564600480360360208110156200098a57600080fd5b50356001600160a01b03166200167e565b348015620009a857600080fd5b506200056462001699565b348015620009c057600080fd5b50620004a26200169d565b348015620009d857600080fd5b506200079460048036036020811015620009f157600080fd5b50356001600160a01b031662001719565b34801562000a0f57600080fd5b50620004db6200176c565b34801562000a2757600080fd5b50620002426004803603602081101562000a4057600080fd5b50356001600160a01b03166200184e565b34801562000a5e57600080fd5b50620005646004803603602081101562000a7757600080fd5b50356001600160a01b0316620018a1565b34801562000a9557600080fd5b50620004db620018f4565b34801562000aad57600080fd5b50620004a26004803603602081101562000ac657600080fd5b50356001600160a01b031662001956565b34801562000ae457600080fd5b50620005646004803603602081101562000afd57600080fd5b50356001600160a01b03166200197b565b34801562000b1b57600080fd5b50620004db6004803603602081101562000b3457600080fd5b50356001600160a01b0316620019ce565b6002602052600090815260409020546001600160a01b031681565b3360008181526020819052604090206002015460ff1662000b8057600080fd5b6000341162000b8e57600080fd5b62000b9a818362001a21565b62000ba457600080fd5b60003490506000828888888589893060405162000bc19062001ac8565b80896001600160a01b03166001600160a01b0316815260200180602001806020018060200188815260200187815260200180602001866001600160a01b03166001600160a01b0316815260200185810385528c818151815260200191508051906020019080838360005b8381101562000c4557818101518382015260200162000c2b565b50505050905090810190601f16801562000c735780820380516001836020036101000a031916815260200191505b5085810384528b5181528b516020918201918d019080838360005b8381101562000ca857818101518382015260200162000c8e565b50505050905090810190601f16801562000cd65780820380516001836020036101000a031916815260200191505b5085810383528a5181528a51602091820191808d01910280838360005b8381101562000d0d57818101518382015260200162000cf3565b50505050905001858103825287818151815260200191508051906020019060200280838360005b8381101562000d4e57818101518382015260200162000d34565b505050509050019c50505050505050505050505050604051809103906000f08015801562000d80573d6000803e3d6000fd5b506001600160a01b038116600081815260026020908152604080832080546001600160a01b031990811686179091556003805460018101825594527fc2575a0e9e593c00f959f8c92f12db2869c3395a3b0502d05e2516446f71f85b909301805490931684179092558151928352905192935083927f3c1b2955a570d7b24867f47b5827c8c97e344bed881c4519bad1dd91656279da9281900390910190a1505050505050505050565b6001600160a01b0380821660009081526002602052604080822054815163894c3b1f60e01b81529151606094919091169263894c3b1f9260048082019391829003018186803b15801562000e7d57600080fd5b505afa15801562000e92573d6000803e3d6000fd5b505050506040513d6000823e601f3d908101601f19168201604052602081101562000ebc57600080fd5b8101908080516040519392919084600160201b82111562000edc57600080fd5b90830190602082018581111562000ef257600080fd5b82518660208202830111600160201b8211171562000f0f57600080fd5b82525081516020918201928201910280838360005b8381101562000f3e57818101518382015260200162000f24565b505050509050016040525050509050919050565b6001600160a01b031660009081526020819052604090206001015490565b6001600160a01b03821660009081526005602052604090205460ff1662001000576001600160a01b038216600081815260056020526040808220805460ff191660011790555183156108fc0291849190818181858888f1935050505015801562000fde573d6000803e3d6000fd5b506001600160a01b0382166000908152600560205260409020805460ff191690555b5050565b6200100e62001ad6565b6001600160a01b03821660009081526020819052604090206002015460ff166200103757600080fd5b506040805180820182526001600160a01b039290921660008181526020818152928120805485529181528252600101549082015290565b6001600160a01b03808216600090815260026020908152604080832054815163459d6e4f60e01b815291519394169263459d6e4f92600480840193919291829003018186803b158015620010c157600080fd5b505afa158015620010d6573d6000803e3d6000fd5b505050506040513d6020811015620010ed57600080fd5b505192915050565b3360008181526001602081905260409091200154610100900460ff16156200111c57600080fd5b604080516060810182529283526032602080850191825260018584018181526001600160a01b039095166000818152928290529382209551865591519482018054945115156101000261ff001960ff9790971660ff199096169590951795909516939093179093556004805493840181559091527f8a35acfbc15ff81a39ae7d344fd709f28e8600b4aa8c65c6b64bfe7fe36bd19b90910180546001600160a01b0319169091179055565b6001600160a01b03811660009081526001602081905260409091200154606460ff909116101562001223576001600160a01b038116600090815260016020819052604090912001805460ff8082166005011660ff199091161790555b50565b6001600160a01b03166000908152600160208190526040909120015460ff1690565b3360009081526020819052604081206002015460ff1680156200128357503360009081526001602081905260409091200154610100900460ff165b15620012a95750742a3930b232b91030b7321020b93134ba3930ba37b960591b6200131a565b3360009081526020819052604090206002015460ff1615620012d65750652a3930b232b960d11b6200131a565b3360009081526001602081905260409091200154610100900460ff16156200130d57506920b93134ba3930ba37b960b11b6200131a565b5066125b9d985b1a5960ca1b5b90565b6001602081905260009182526040909120805491015460ff8082169161010090041683565b6001600160a01b038082166000908152600260205260408082205481516306fdde0360e01b8152915160609491909116926306fdde039260048082019391829003018186803b1580156200139557600080fd5b505afa158015620013aa573d6000803e3d6000fd5b505050506040513d6000823e601f3d908101601f191682016040526020811015620013d457600080fd5b8101908080516040519392919084600160201b821115620013f457600080fd5b9083019060208201858111156200140a57600080fd5b8251600160201b8111828201881017156200142457600080fd5b82525081516020918201929091019080838360005b838110156200145357818101518382015260200162001439565b50505050905090810190601f168015620014815780820380516001836020036101000a031916815260200191505b506040525050509050919050565b6001600160a01b031660009081526020819052604090206002015460ff1690565b3360009081526001602052604090205490565b6001600160a01b0316600090815260208190526040902080546001019055565b60045460408051828152602080840282010190915260609190829082801562001516578160200160208202803883390190505b50905060005b82811015620015ca576000600482815481106200153557fe5b6000918252602090912001546001600160a01b031690506200155662001af4565b506001600160a01b03811660009081526001602081815260409283902083516060810185528154808252919093015460ff8082169385019390935261010090049091161515928201929092528451909190859085908110620015b457fe5b602090810291909101015250506001016200151c565b5091505090565b606060038054806020026020016040519081016040528092919081815260200182805480156200162b57602002820191906000526020600020905b81546001600160a01b031681526001909101906020018083116200160c575b5050505050905090565b60006020819052908152604090208054600182015460029092015490919060ff1683565b6001600160a01b0316600090815260016020819052604090912001805460ff19169055565b6001600160a01b031660009081526020819052604090205490565b4790565b3360008181526020819052604090206002015460ff1615620016be57600080fd5b604080516060810182526064808252602080830191825260018385018181526001600160a01b039690961660009081529182905293902091518255519181019190915590516002909101805460ff1916911515919091179055565b6001600160a01b03808216600090815260026020526040808220548151633942720b60e11b815291516060949190911692637284e4169260048082019391829003018186803b1580156200139557600080fd5b6004546040805182815260208084028201019091526060919082908280156200179f578160200160208202803883390190505b50905060005b82811015620015ca57600060048281548110620017be57fe5b6000918252602090912001546001600160a01b03169050620017df62001af4565b506001600160a01b03811660009081526001602081815260409283902083516060810185528154815292015460ff8082169284018390526101009091041615159282019290925284519091908590859081106200183857fe5b60209081029190910101525050600101620017a5565b6001600160a01b03808216600090815260026020908152604080832054815163fbcc1e7160e01b815291519394169263fbcc1e7192600480840193919291829003018186803b158015620010c157600080fd5b6001600160a01b03808216600090815260026020908152604080832054815163516dde4360e01b815291519394169263516dde4392600480840193919291829003018186803b158015620010c157600080fd5b606060048054806020026020016040519081016040528092919081815260200182805480156200162b576020028201919060005260206000209081546001600160a01b031681526001909101906020018083116200160c575050505050905090565b6001600160a01b03166000908152602081905260409020600190810180549091019055565b6001600160a01b038082166000908152600260209081526040808320548151632c135b9360e01b8152915193941692632c135b9392600480840193919291829003018186803b158015620010c157600080fd5b6001600160a01b0380821660009081526002602052604080822054815163661770cb60e11b81529151606094919091169263cc2ee1969260048082019391829003018186803b15801562000e7d57600080fd5b8051600090815b8181101562001abb57600084828151811062001a4057fe5b6020026020010151905060016000826001600160a01b03166001600160a01b0316815260200190815260200160002060010160019054906101000a900460ff16158062001a9e5750806001600160a01b0316866001600160a01b0316145b1562001ab1576000935050505062001ac2565b5060010162001a28565b5060019150505b92915050565b61331f8062001b1583390190565b60405180604001604052806002906020820280388339509192915050565b60408051606081018252600080825260208201819052918101919091529056fe60806040526040516200331f3803806200331f83398181016040526101008110156200002a57600080fd5b8151602083018051604051929492938301929190846401000000008211156200005257600080fd5b9083019060208201858111156200006857600080fd5b82516401000000008111828201881017156200008357600080fd5b82525081516020918201929091019080838360005b83811015620000b257818101518382015260200162000098565b50505050905090810190601f168015620000e05780820380516001836020036101000a031916815260200191505b50604052602001805160405193929190846401000000008211156200010457600080fd5b9083019060208201858111156200011a57600080fd5b82516401000000008111828201881017156200013557600080fd5b82525081516020918201929091019080838360005b83811015620001645781810151838201526020016200014a565b50505050905090810190601f168015620001925780820380516001836020036101000a031916815260200191505b5060405260200180516040519392919084640100000000821115620001b657600080fd5b908301906020820185811115620001cc57600080fd5b8251866020820283011164010000000082111715620001ea57600080fd5b82525081516020918201928201910280838360005b8381101562000219578181015183820152602001620001ff565b5050505091909101604081815260208401519084015160609094018051919694959294935090846401000000008211156200025357600080fd5b9083019060208201858111156200026957600080fd5b82518660208202830111640100000000821117156200028757600080fd5b82525081516020918201928201910280838360005b83811015620002b65781810151838201526020016200029c565b505050509190910160405250602090810151600a80546001600160a01b038084166001600160a01b03199283161790925560008054928e169290911691909117905589519093506200030f92506001918a0190620004ba565b50855162000325906002906020890190620004ba565b5084516200033b9060039060208801906200053f565b506000600455600584905560068390558151620003609060079060208501906200057c565b50602a80546000919060ff19166001830217905550600a805461ffff60a01b1916601760a01b1760ff60b01b19168155600c805460ff1916905560095560005b85518110156200040a576040805180820190915260008082526020820152600f8260048110620003cc57fe5b825160029190910291909101908155602090910151600191820180546001600160a01b0319166001600160a01b0390921691909117905501620003a0565b5060005b8251811015620004ab5760405180606001604052806001151581526020016000151581526020016000801b815250602460008584815181106200044d57fe5b6020908102919091018101516001600160a01b03168252818101929092526040908101600020835181549385015115156101000261ff001991151560ff1990951694909417169290921782559190910151600191820155016200040e565b50505050505050505062000629565b828054600181600116156101000203166002900490600052602060002090601f016020900481019282601f10620004fd57805160ff19168380011785556200052d565b828001600101855582156200052d579182015b828111156200052d57825182559160200191906001019062000510565b506200053b929150620005e2565b5090565b8280548282559060005260206000209081019282156200052d57916020028201828111156200052d57825182559160200191906001019062000510565b828054828255906000526020600020908101928215620005d4579160200282015b82811115620005d457825182546001600160a01b0319166001600160a01b039091161782556020909201916001909101906200059d565b506200053b92915062000602565b620005ff91905b808211156200053b5760008155600101620005e9565b90565b620005ff91905b808211156200053b5780546001600160a01b031916815560010162000609565b612ce680620006396000396000f3fe6080604052600436106102465760003560e01c80639570400f11610139578063cc2ee196116100b6578063e8a1e12e1161007a578063e8a1e12e1461083f578063f06e3e2e14610854578063f462f8af14610887578063f4c6284b146108ba578063f745bd4d146108ec578063fbcc1e711461090157610246565b8063cc2ee19614610768578063cc7e62101461077d578063d3901fb5146107a7578063e6cd5a11146107bc578063e6ff5096146107ec57610246565b8063a8323176116100fd578063a8323176146106cc578063b55eb88b146106e1578063bc0da8d31461070b578063bfb0b60814610720578063c617339b1461073557610246565b80639570400f1461060457806395e56a84146106295780639d7740461461063e5780639e6fcc0614610678578063a6430cc0146106a257610246565b8063509bd337116101c7578063722713f71161018b578063722713f7146105715780637284e41614610586578063729ecb071461059b578063894c3b1f146105c557806393fc29cb146105da57610246565b8063509bd337146104ca578063516dde43146104ed57806357cde0e61461050257806366d4bfac146105175780636f0f9f5e1461054157610246565b80632d9781631161020e5780632d978163146103f1578063409e22051461042a578063459d6e4f14610454578063465be85f146104695780634852aa6d1461047e57610246565b806306fdde031461024b578063123230df146102d557806312b8b1a31461031e578063288fa802146103655780632c135b93146103ca575b600080fd5b34801561025757600080fd5b50610260610916565b6040805160208082528351818301528351919283929083019185019080838360005b8381101561029a578181015183820152602001610282565b50505050905090810190601f1680156102c75780820380516001836020036101000a031916815260200191505b509250505060405180910390f35b3480156102e157600080fd5b506102ea6109a3565b604080516001600160a01b039586168152938516602085015291841683830152909216606082015290519081900360800190f35b34801561032a57600080fd5b506103516004803603602081101561034157600080fd5b50356001600160a01b0316610a77565b604080519115158252519081900360200190f35b34801561037157600080fd5b5061037a610a9a565b60408051602080825283518183015283519192839290830191858101910280838360005b838110156103b657818101518382015260200161039e565b505050509050019250505060405180910390f35b3480156103d657600080fd5b506103df610b07565b60408051918252519081900360200190f35b3480156103fd57600080fd5b50610406610b0d565b6040518082600381111561041657fe5b60ff16815260200191505060405180910390f35b34801561043657600080fd5b506103df6004803603602081101561044d57600080fd5b5035610b16565b34801561046057600080fd5b506103df610b34565b34801561047557600080fd5b5061037a610b3a565b34801561048a57600080fd5b506104ae600480360360408110156104a157600080fd5b5080359060200135610b9c565b604080516001600160a01b039092168252519081900360200190f35b610351600480360360408110156104e057600080fd5b5080359060200135610bd1565b3480156104f957600080fd5b506103df61103f565b34801561050e57600080fd5b506103df611045565b34801561052357600080fd5b506103df6004803603602081101561053a57600080fd5b503561104b565b34801561054d57600080fd5b5061055661105d565b60408051921515835260208301919091528051918290030190f35b34801561057d57600080fd5b506103df6110d5565b34801561059257600080fd5b506102606110d9565b3480156105a757600080fd5b506104ae600480360360208110156105be57600080fd5b5035611131565b3480156105d157600080fd5b5061037a611158565b3480156105e657600080fd5b5061037a600480360360208110156105fd57600080fd5b50356111b8565b6103df6004803603604081101561061a57600080fd5b5080359060200135151561124d565b34801561063557600080fd5b5061037a6114f0565b34801561064a57600080fd5b506106766004803603606081101561066157600080fd5b50803590602081013590604001351515611553565b005b34801561068457600080fd5b5061037a6004803603602081101561069b57600080fd5b50356116ce565b3480156106ae57600080fd5b506104ae600480360360208110156106c557600080fd5b5035611773565b3480156106d857600080fd5b50610676611780565b3480156106ed57600080fd5b506106766004803603602081101561070457600080fd5b5035611797565b34801561071757600080fd5b5061037a611959565b34801561072c57600080fd5b5061037a6119bc565b34801561074157600080fd5b506103516004803603602081101561075857600080fd5b50356001600160a01b0316611a1f565b34801561077457600080fd5b5061037a611a42565b34801561078957600080fd5b506103df600480360360208110156107a057600080fd5b5035611a99565b3480156107b357600080fd5b50610351611aab565b3480156107c857600080fd5b506104ae600480360360408110156107df57600080fd5b5080359060200135611ac1565b3480156107f857600080fd5b5061081f6004803603602081101561080f57600080fd5b50356001600160a01b0316611ada565b604080519315158452911515602084015282820152519081900360600190f35b34801561084b57600080fd5b506103df611b00565b34801561086057600080fd5b5061081f6004803603602081101561087757600080fd5b50356001600160a01b0316611b06565b34801561089357600080fd5b50610676600480360360208110156108aa57600080fd5b50356001600160a01b0316611b2c565b3480156108c657600080fd5b50610676600480360360408110156108dd57600080fd5b50803590602001351515611bbe565b3480156108f857600080fd5b50610676611cf2565b34801561090d57600080fd5b506104ae611d21565b60018054604080516020600284861615610100026000190190941693909304601f8101849004840282018401909252818152929183018282801561099b5780601f106109705761010080835404028352916020019161099b565b820191906000526020600020905b81548152906001019060200180831161097e57829003601f168201915b505050505081565b6000806000806109b1612b15565b6023805460001981019081106109c357fe5b600091825260209091206040805160c081018083529093600802909201918391820190839060049082845b81546001600160a01b031681526001909101906020018083116109ee5750505091835250506040805160808101918290526020909201919060048481019182845b815481526020019060010190808311610a2f575050505050815250509050610a55612b3a565b5051805160208201516040830151606090930151919790965091945092509050565b6001600160a01b0316600090815260246020526040902054610100900460ff1690565b60408051600480825260a08201909252606091908290826020820160808038833901905050905060005b82811015610aff57600f8160048110610ad957fe5b60020201548251839083908110610aec57fe5b6020908102919091010152600101610ac4565b509150505b90565b60045481565b602a5460ff1681565b60038181548110610b2357fe5b600091825260209091200154905081565b60055481565b60606008805480602002602001604051908101604052809291908181526020018280548015610b9257602002820191906000526020600020905b81546001600160a01b03168152600190910190602001808311610b74575b5050505050905090565b60256020528160005260406000208181548110610bb557fe5b6000918252602090912001546001600160a01b03169150829050565b6000600654821115610bed57610be5611cf2565b506000611039565b3360009081526024602052604090205460ff1615610c0a57600080fd5b6000602a5460ff166003811115610c1d57fe5b14610c2757600080fd5b34670de0b6b3a76400008110610c3c57600080fd5b80600f8560048110610c4a57fe5b600202015410610c5957600080fd5b600a546040805163310ad0b760e11b815233600482015290516001600160a01b03909216916000918391636215a16e91602480820192602092909190829003018186803b158015610ca957600080fd5b505afa158015610cbd573d6000803e3d6000fd5b505050506040513d6020811015610cd357600080fd5b5051905080610ce157600080fd5b600f8660048110610cee57fe5b60020201600101546001600160a01b03166108fc600f8860048110610d0f57fe5b60020201546040518115909202916000818181858888f19350505050158015610d3c573d6000803e3d6000fd5b50670de0b6b3a7640000610d4e612b3a565b610d56612b3a565b60005b6004811015610de857898114610de057600f8160048110610d7657fe5b600202015490930392600f8160048110610d8c57fe5b60020201600101546001600160a01b0316838260048110610da957fe5b6001600160a01b039092166020929092020152600f8160048110610dc957fe5b6002020154828260048110610dda57fe5b60200201525b600101610d59565b50336000908152600d60205260409020805460ff19166001179055858311610fd05733828a60048110610e1757fe5b6001600160a01b03909216602092909202015282818a60048110610e3757fe5b6020020152610e44612b15565b5060408051808201909152828152602081018290526023805460018101808355600092909252825183916008027fd57b2b5166478fd4318d2acc6cc2c704584312bdd8781b32d5d06abda57f42300190610ea19082906004612b58565b506020820151610eb79060048084019190612bb0565b506000925050505b6004811015610f0f578a811415610ee5578460178260048110610ede57fe5b0155610f07565b600f8160048110610ef257fe5b600202015460178260048110610f0457fe5b01555b600101610ebf565b50604051339085890380156108fc02916000818181858888f19350505050158015610f3e573d6000803e3d6000fd5b50610f47611d30565b60005b6004811015610fae576000600f8260048110610f6257fe5b60020201556000600f8260048110610f7657fe5b6002020160010160006101000a8154816001600160a01b0302191690836001600160a01b031602179055508080600101915050610f4a565b505060048054670de0b6b3a76400000190555060019550611039945050505050565b610fd8612bea565b506040805180820190915286815233602082015280600f8b60048110610ffa57fe5b825160029190910291909101908155602090910151600190910180546001600160a01b0319166001600160a01b03909216919091179055505050505050505b92915050565b60065481565b60095481565b60296020526000908152604090205481565b600080808080805b6003548110156110cb576000602660006003848154811061108257fe5b90600052602060002001548152602001908152602001600020549050848111156110b557809450600092508193506110c2565b848114156110c257600192505b50600101611065565b5093509150509091565b4790565b6002805460408051602060018416156101000260001901909316849004601f8101849004840282018401909252818152929183018282801561099b5780601f106109705761010080835404028352916020019161099b565b6008818154811061113e57fe5b6000918252602090912001546001600160a01b0316905081565b60606007805480602002602001604051908101604052809291908181526020018280548015610b92576020028201919060005260206000209081546001600160a01b03168152600190910190602001808311610b74575050505050905090565b6023546040805182815260208084028201019091526060919082908280156111ea578160200160208202803883390190505b50905060005b82811015611245576023818154811061120557fe5b9060005260206000209060080201600401856004811061122157fe5b015460001b82828151811061123257fe5b60209081029190910101526001016111f0565b509392505050565b600080602a5460ff16600381111561126157fe5b1415801561128057506003602a5460ff16600381111561127d57fe5b14155b61128957600080fd5b600a546001600160a01b03166000805b6023548110156114955760005b602382815481106112b357fe5b50600052600481101561148c5760006001600160a01b0316602383815481106112d857fe5b906000526020600020906008020160000182600481106112f457fe5b01546001600160a01b0316146114845782600a019250868114156113eb57836001600160a01b0316636e193a596023848154811061132e57fe5b9060005260206000209060080201600001836004811061134a57fe5b0154604080516001600160e01b031960e085901b1681526001600160a01b03909216600483015251602480830192600092919082900301818387803b15801561139257600080fd5b505af11580156113a6573d6000803e3d6000fd5b505050506113e6602383815481106113ba57fe5b906000526020600020906008020160000182600481106113d657fe5b01546001600160a01b0316611b2c565b611484565b836001600160a01b031663cd1e0b6d6023848154811061140757fe5b9060005260206000209060080201600001836004811061142357fe5b0154604080516001600160e01b031960e085901b1681526001600160a01b03909216600483015251602480830192600092919082900301818387803b15801561146b57600080fd5b505af115801561147f573d6000803e3d6000fd5b505050505b6001016112a6565b50600101611299565b5061149f85611797565b836114db576114ad85611f8e565b6002602a5460ff1660038111156114c057fe5b146114d2576114cd61206b565b6114db565b6114db85612159565b602a805460ff19166003179055949350505050565b60408051600480825260a08201909252606091908290826020820160808038833901905050905060005b82811015610aff576017816004811061152f57fe5b015460001b82828151811061154057fe5b602090810291909101015260010161151a565b600654821161156157600080fd5b6000602a5460ff16600381111561157457fe5b141561158257611582611cf2565b6001602a5460ff16600381111561159557fe5b1461159f57600080fd5b33600090815260246020526040902054610100900460ff16156115c157600080fd5b3360009081526024602052604090205460ff166115dd57600080fd5b336000818152602460209081526040808320805461010061ff0019909116178155600190810188905587845260258352818420805480830182559085528385200180546001600160a01b03191690951790945586835260269091529020805482019055600a805460ff60b01b19811660ff600160b01b928390048116909401841682021791829055600754910490911614156116c957604080516020808252600a908201526920b93134ba3930ba37b960b11b8183015290517f21f0146f421195b1872d8b4b0ef2c37e13a25a518f7a902d98ae120c530beebc9181900360600190a16116c9816122cd565b505050565b602354604080518281526020808402820101909152606091908290828015611700578160200160208202803883390190505b50905060005b82811015611245576023818154811061171b57fe5b9060005260206000209060080201600001856004811061173757fe5b015482516001600160a01b039091169083908390811061175357fe5b6001600160a01b0390921660209283029190910190910152600101611706565b6007818154811061113e57fe5b602a805460ff19166002179055611795612374565b565b600a546001600160a01b031660005b6003548110156116c95760005b60256000600384815481106117c457fe5b9060005260206000200154815260200190815260200160002080549050811015611950578382141561189e57826001600160a01b031663457dac02602560006003868154811061181057fe5b90600052602060002001548152602001908152602001600020838154811061183457fe5b6000918252602082200154604080516001600160e01b031960e086901b1681526001600160a01b039092166004830152516024808301939282900301818387803b15801561188157600080fd5b505af1158015611895573d6000803e3d6000fd5b50505050611948565b826001600160a01b03166399667bdc60256000600386815481106118be57fe5b9060005260206000200154815260200190815260200160002083815481106118e257fe5b6000918252602082200154604080516001600160e01b031960e086901b1681526001600160a01b039092166004830152516024808301939282900301818387803b15801561192f57600080fd5b505af1158015611943573d6000803e3d6000fd5b505050505b6001016117b3565b506001016117a6565b60408051600480825260a08201909252606091908290826020820160808038833901905050905060005b82811015610aff57601f816004811061199857fe5b015460001b8282815181106119a957fe5b6020908102919091010152600101611983565b60408051600480825260a08201909252606091908290826020820160808038833901905050905060005b82811015610aff57601b81600481106119fb57fe5b015460001b828281518110611a0c57fe5b60209081029190910101526001016119e6565b6001600160a01b0316600090815260276020526040902054610100900460ff1690565b60606003805480602002602001604051908101604052809291908181526020018280548015610b9257602002820191906000526020600020905b815481526020019060010190808311611a7c575050505050905090565b60266020526000908152604090205481565b3360009081526024602052604090205460ff1690565b60286020528160005260406000208181548110610bb557fe5b6027602052600090815260409020805460019091015460ff808316926101009004169083565b600b5490565b6024602052600090815260409020805460019091015460ff808316926101009004169083565b6001600160a01b0381166000908152600e602052604090205460ff16611bbb576001600160a01b0381166000818152600e6020526040808220805460ff1916600117905551670d99a8cec7e200009082818181858883f19350505050158015611b99573d6000803e3d6000fd5b506001600160a01b0381166000908152600e60205260409020805460ff191690555b50565b6002602a5460ff166003811115611bd157fe5b14611bdb57600080fd5b33600090815260276020526040902054610100900460ff1615611bfd57600080fd5b3360009081526027602052604090205460ff16611c1957600080fd5b336000818152602760209081526040808320805461ff001916610100178155600190810187905586845260288352818420805480830182559085528385200180546001600160a01b03191690951790945585835260299091529020805482019055600c805460ff818116909301831660ff199091161790819055600b5491161415611cee57604080516020808252600490820152634a75727960e01b8183015290517f21f0146f421195b1872d8b4b0ef2c37e13a25a518f7a902d98ae120c530beebc9181900360600190a1611cee816122cd565b5050565b6000602a5460ff166003811115611d0557fe5b1415611d1957602a805460ff191660011790555b61179561296e565b6000546001600160a01b031681565b600a546001600160a01b0316611d44612b15565b602380546000198101908110611d5657fe5b600091825260209091206040805160c081018083529093600802909201918391820190839060049082845b81546001600160a01b03168152600190910190602001808311611d815750505091835250506040805160808101918290526020909201919060048481019182845b815481526020019060010190808311611dc257505050505081525050905060008090505b60048110156116c95781516000908260048110611dff57fe5b602002015190506001600160a01b03811615611f8557611e1d612c01565b60408051633d59f85b60e01b81526001600160a01b038481166004830152825190881692633d59f85b9260248082019391829003018186803b158015611e6257600080fd5b505afa158015611e76573d6000803e3d6000fd5b505050506040513d601f19601f820116820180604052506040811015611e9b57600080fd5b50604080516001600160a01b03851681529192507f405f4ccba46549b1dbd2e5bfbf7248e032b3b50a1a6d65140c30c83a176d192e9184918491906020820190839080838360005b83811015611efb578181015183820152602001611ee3565b505050509050019250505060405180910390a160178360048110611f1b57fe5b0154815102601b8460048110611f2d57fe5b015401601b8460048110611f3d57fe5b015560178360048110611f4c57fe5b015460010381600160028110611f5e57fe5b602002015102601f8460048110611f7157fe5b015401601f8460048110611f8157fe5b0155505b50600101611de6565b6000606460045481611f9c57fe5b049050600060038381548110611fae57fe5b600091825260208083209091015480835260269091526040822054909250905b81811015612064576000838152602560205260408120805483908110611ff057fe5b60009182526020808320909101546001600160a01b0316808352600e9091526040909120805460ff191660011790559050806108fc84878161202e57fe5b049081150290604051600060405180830381858888f1935050505015801561205a573d6000803e3d6000fd5b5050600101611fce565b5050505050565b600080546001600160a01b03168152600e602052604090205460ff1661179557600080546001600160a01b039081168252600e60205260408220805460ff1916600117905590546004549116906108fc90606490049081150290604051600060405180830381858888f193505050501580156120eb573d6000803e3d6000fd5b50600a54600080546005546040805163175473d760e11b81526001600160a01b03938416600482015260248101929092525191909316928392632ea8e7ae9260448084019382900301818387803b15801561214557600080fd5b505af1158015612064573d6000803e3d6000fd5b600a546004546001600160a01b039091169060009060649004905060006003848154811061218357fe5b600091825260208083209091015480835260299091526040822054909250905b818110156122c55760008381526028602052604081208054839081106121c557fe5b60009182526020808320909101546001600160a01b0316808352600e90915260408220805460ff1916600117905591508386816121fe57fe5b049050866001600160a01b0316632ea8e7ae83866005548161221c57fe5b046040518363ffffffff1660e01b815260040180836001600160a01b03166001600160a01b0316815260200182815260200192505050600060405180830381600087803b15801561226c57600080fd5b505af1158015612280573d6000803e3d6000fd5b50506040516001600160a01b038516925083156108fc02915083906000818181858888f193505050501580156122ba573d6000803e3d6000fd5b5050506001016121a3565b505050505050565b6000602a5460ff1660038111156122e057fe5b141580156122ff57506003602a5460ff1660038111156122fc57fe5b14155b61230857600080fd5b6002602a5460ff16600381111561231b57fe5b141561234357600061232b612abe565b6009819055905061233c818361124d565b5050611bbb565b60008061234e61105d565b915091508161236c576009819055612366818461124d565b506116c9565b6116c9611780565b600a546040805163193ca33d60e31b815290516001600160a01b0390921691606091839163c9e519e891600480820192600092909190829003018186803b1580156123be57600080fd5b505afa1580156123d2573d6000803e3d6000fd5b505050506040513d6000823e601f3d908101601f1916820160405260208110156123fb57600080fd5b810190808051604051939291908464010000000082111561241b57600080fd5b90830190602082018581111561243057600080fd5b825186602082028301116401000000008211171561244d57600080fd5b82525081516020918201928201910280838360005b8381101561247a578181015183820152602001612462565b50505050905001604052505050905060056007805490508251031161261957600060078054905082510390506060816040519080825280602002602001820160405280156124d2578160200160208202803883390190505b5090506000805b84518110156125f75760008582815181106124f057fe5b6020908102919091018101516001600160a01b0381166000908152602490925260409091205490915060ff168061253457506000546001600160a01b038281169116145b8061255757506001600160a01b0381166000908152600d602052604090205460ff165b1561256257506125ef565b604080516060810182526001808252600060208084018281528486018381526001600160a01b038816845260279092529490912092518354945115156101000261ff001991151560ff1990961695909517169390931782559151910155835181908590859081106125cf57fe5b6001600160a01b0390921660209283029190910190910152506001909101905b6001016124d9565b50815161260b906008906020850190612c1f565b50600b555061179592505050565b60608151600a02604051908082528060200260200182016040528015612649578160200160208202803883390190505b5090506000805b83518110156127b557600084828151811061266757fe5b6020908102919091018101516001600160a01b0381166000908152602490925260409091205490915060ff16806126ab57506000546001600160a01b038281169116145b806126ce57506001600160a01b0381166000908152600d602052604090205460ff165b156126d957506127ad565b6000866001600160a01b03166351d0ea37836040518263ffffffff1660e01b815260040180826001600160a01b03166001600160a01b0316815260200191505060606040518083038186803b15801561273157600080fd5b505afa158015612745573d6000803e3d6000fd5b505050506040513d606081101561275b57600080fd5b50602001519050600a60ff82160460005b8160ff168110156127a8578387878151811061278457fe5b6001600160a01b03909216602092830291909101909101526001958601950161276c565b505050505b600101612650565b5060408051600580825260c082019092526060916020820160a080388339019050509050600060335b6005821080156127f1575060008160ff16115b1561294f57600a5460408051426020808301919091523360601b82840152600160a01b90930460f01b6001600160f01b0319166054820152815180820360360181526056909101909152805191012060009085908161284c57fe5b600a8054600161ffff600160a01b808404821692909201160261ffff60a01b199091161790558751919006915060009087908390811061288857fe5b6020908102919091018101516001600160a01b0381166000908152602790925260409091205490915060ff1661294457604080516060810182526001808252600060208084018281528486018381526001600160a01b038816845260279092529490912092518354945115156101000261ff001991151560ff19909616959095171693909317825591519101558451819086908690811061292557fe5b6001600160a01b03909216602092830291909101909101526001909301925b5050600019016127de565b8251612962906008906020860190612c1f565b5050600b555050505050565b60005b6004811015611bbb576000600f826004811061298957fe5b60020201600101546001600160a01b031614156129a557612ab6565b6000600f82600481106129b457fe5b60020201600101546001600160a01b031690506000600f83600481106129d657fe5b60020201546001600160a01b0383166000908152600e602052604090205490915060ff1615612a06575050612ab6565b6000600f8460048110612a1557fe5b60020201556000600f8460048110612a2957fe5b60020201600190810180546001600160a01b0319166001600160a01b039384161790559083166000818152600e6020526040808220805460ff1916909417909355915190916108fc841502918491818181858888f19350505050158015612a94573d6000803e3d6000fd5b50506001600160a01b03166000908152600e60205260409020805460ff191690555b600101612971565b60008080805b600354811015610aff5760006029600060038481548110612ae157fe5b9060005260206000200154815260200190815260200160002054905083811115612b0c578093508192505b50600101612ac4565b6040518060400160405280612b28612b3a565b8152602001612b35612b3a565b905290565b60405180608001604052806004906020820280388339509192915050565b8260048101928215612ba0579160200282015b82811115612ba057825182546001600160a01b0319166001600160a01b03909116178255602090920191600190910190612b6b565b50612bac929150612c73565b5090565b8260048101928215612bde579160200282015b82811115612bde578251825591602001919060010190612bc3565b50612bac929150612c97565b604080518082019091526000808252602082015290565b60405180604001604052806002906020820280388339509192915050565b828054828255906000526020600020908101928215612ba05791602002820182811115612ba057825182546001600160a01b0319166001600160a01b03909116178255602090920191600190910190612b6b565b610b0491905b80821115612bac5780546001600160a01b0319168155600101612c79565b610b0491905b80821115612bac5760008155600101612c9d56fea265627a7a72315820d834ecf0ccd0d757dc4057a13fc2479f381fed1db60ee03a6d02f66efa6d945d64736f6c63430005100032a265627a7a72315820f992306022866457ed7647c9c34483ff39f0f2fbb8ff20486690755c02f9abcf64736f6c63430005100032",
  "source": "// SPDX-License-Identifier: MIT\npragma solidity >=0.4.21 <=0.7.0;\nimport \"./Topic.sol\";\n\ncontract PredictionMarket {\n    // Structs for users and arbitrators. Default scores = 100\n    struct Trader {\n        uint winScore;\n        uint loseScore;\n        bool isValid; \n    }\n\n    struct Arbitrator {\n        bytes32 displayName;\n        uint8 trustworthiness;\n        bool isValid;\n    }\n    // Maps of addresses to different entities\n    mapping (address => Trader) public traders;\n    mapping (address => Arbitrator) public arbitrators;\n    mapping (address => Topic) public marketTopics;\n\n    // Array of addresses of topics to return to front end\n    address[] topicAddresses;\n\n    // Array of addresses of arbitrators to return to front end\n    address payable[] arbitratorAddresses;\n\n    // Guard against reentrancy attacks\n    mapping (address => bool) transferredToWithinWindow;\n\n    // Struct create functions\n    function createTrader() public {\n        address id = msg.sender;\n        // // require that address has not been assigned to a trader\n        require(!traders[id].isValid);\n\n        // // create new trader with the default values\n        traders[id] = Trader(100, 100, true);\n    }\n\n    function createArbitrator(bytes32 _displayName) public {\n        address id = msg.sender;\n\n        // require that address has not been assigned to a arbitrator\n        require(!arbitrators[id].isValid);\n\n        // create new arbitrator with the default values\n        arbitrators[id] = Arbitrator(_displayName, 50, true);\n\n        arbitratorAddresses.push(address(uint160(id)));\n    }\n\n    function getAllArbitrators() public view returns (address payable[] memory) {\n        return arbitratorAddresses;\n    }\n\n    function getArbitratorName() public view returns (bytes32){\n        return arbitrators[msg.sender].displayName;\n    }\n\n    function getAllArbitratorNames() public view returns (bytes32[] memory) {\n        uint len = arbitratorAddresses.length;\n        bytes32[] memory names = new bytes32[](len);\n\n        for (uint i = 0; i < len; i++) {\n            address arbitratorAddress = arbitratorAddresses[i];\n            Arbitrator memory arbitrator = arbitrators[arbitratorAddress];\n            names[i] = arbitrator.displayName;\n        }\n        return names;\n    }\n\n    function getArbitratorReputations() public view returns (uint[] memory) {\n        uint len = arbitratorAddresses.length;\n        uint[] memory reputations = new uint[](len);\n\n        for (uint i = 0; i < len; i++) {\n            address arbitratorAddress = arbitratorAddresses[i];\n            Arbitrator memory arbitrator = arbitrators[arbitratorAddress];\n            reputations[i] = arbitrator.trustworthiness;\n        }\n        return reputations;\n    }\n\n    //VOTER'S REPUTATION \n    function getVotersReputation(address id) public view returns (uint[2] memory){\n        require(traders[id].isValid);\n        return [traders[id].winScore, traders[id].loseScore];\n    }\n\n    // AUTHENTICATION\n    function checkIdentity() public view returns (bytes32) {\n        // Check if user is a trader\n        if(traders[msg.sender].isValid && arbitrators[msg.sender].isValid){\n            return bytes32(\"Trader and Arbitrator\");\n        }\n\n        // Check if user is a trader\n        if(traders[msg.sender].isValid){\n            return bytes32(\"Trader\");\n        }\n        // Check if user is an arbitrator\n        if(arbitrators[msg.sender].isValid){\n            return bytes32(\"Arbitrator\");\n        }\n        // If all the above fails, return invalid\n        return bytes32(\"Invalid\");\n    }\n\n    // Check if a trader is valid, this is called from external contracts/ views\n    // This function is for internal use between contracts only\n    function checkValidTrader(address trader) public view returns (bool) {\n        return traders[trader].isValid;\n    }\n\n\n    // Topics\n    function createTopic(\n        string memory name, string memory description, bytes32[] memory options, uint256 expiryDate, address payable[] memory selectedArbitrators\n    ) public payable\n        {\n        address payable creatorId = msg.sender;\n\n        // Creator must have a trader account\n        require(traders[creatorId].isValid);\n\n        // Must have value above 0 ETH for payment of creation bond\n        require(msg.value > 0 ether);\n\n        // selected arbitrators must have arbitrator account and creator must not select himself as an arbitrator\n        require(areValidArbitrators(creatorId, selectedArbitrators));\n\n        uint bondValue = msg.value;\n        Topic newTopic = new Topic(creatorId, name, description, options, bondValue, expiryDate, selectedArbitrators, address(this));\n        address payable topicAddress = address(uint160(address(newTopic))); // to cast from address to address payable\n        marketTopics[topicAddress] = newTopic;\n        topicAddresses.push(topicAddress);\n        emit TopicCreated(topicAddress);\n    }\n\n    function getAllTopics() public view returns (address[] memory) {\n        return topicAddresses;\n    }\n\n    function areValidArbitrators(address payable creatorId, address payable[] memory selectedArbitrators) internal view returns (bool) {\n        uint numSelectedArbitrators = selectedArbitrators.length;\n        for (uint i = 0; i < numSelectedArbitrators; i++) {\n            address arbitrator = selectedArbitrators[i];\n            if (!arbitrators[arbitrator].isValid || creatorId == arbitrator) {\n                return false;\n            }\n        }\n        return true;\n    }\n\n    function updateWinScore(address winnerAddress) public {\n        traders[winnerAddress].winScore += 1;\n    }\n\n    function getWinScore(address winnerAddress) public view returns (uint){\n        Trader storage winner = traders[winnerAddress];\n        return winner.winScore;\n    }\n\n    function updateLoseScore(address loserAddress) public {\n        traders[loserAddress].loseScore += 1;\n    }\n\n    function getLoseScore(address loserAddress) public view returns (uint){\n        Trader storage loser = traders[loserAddress];\n        return loser.loseScore;\n    }\n\n    // Transfer creator bond function\n    function transferCreatorBond(address payable targetAddress, uint bondValue) external payable {\n        if (!transferredToWithinWindow[targetAddress]) {\n            transferredToWithinWindow[targetAddress] = true;\n            targetAddress.transfer(bondValue);\n            transferredToWithinWindow[targetAddress] = false;\n        }\n    }\n\n    function updateHonestTrustworthiness(address honestArb) public {\n        if (arbitrators[honestArb].trustworthiness < 100) {\n            arbitrators[honestArb].trustworthiness += 5;\n        } \n    }\n\n    function updateDishonestTrustworthiness(address dishonestArb) public {\n        arbitrators[dishonestArb].trustworthiness -= arbitrators[dishonestArb].trustworthiness;\n    }\n\n    function getTrustworthinessScore(address arbitrator) public view returns (uint){\n        return arbitrators[arbitrator].trustworthiness;\n    }\n    // ===============================================================\n    // For testing purposes\n    // ===============================================================\n    event TopicCreated(address _topicAddress);\n\n    function getCreatorAddress(address topicAddress) public view returns (address payable) {\n        return marketTopics[topicAddress].topicCreator();\n    }\n\n    function getName(address topicAddress) public view returns (string memory) {\n        return marketTopics[topicAddress].name();\n    }\n\n    function getDescription(address topicAddress) public view returns (string memory) {\n        return marketTopics[topicAddress].description();\n    }\n\n    function getOptions(address topicAddress) public view returns (bytes32[] memory) {\n        return marketTopics[topicAddress].getOptions();\n    }\n\n    function getMarketCap(address topicAddress) public view returns (uint) {\n        return marketTopics[topicAddress].marketCap();\n    }\n\n    function getCreatorBond(address topicAddress) public view returns (uint) {\n        return marketTopics[topicAddress].creatorBond();\n    }\n\n    function getExpiryDate(address topicAddress) public view returns (uint256) {\n        return marketTopics[topicAddress].expiryDate();\n    }\n\n    function getSelectedArbitrators(address topicAddress) public view returns (address payable[] memory) {\n        return marketTopics[topicAddress].getArbitrators();\n    }\n\n    function getCurrentBalance() public view returns (uint) {\n        return address(this).balance;\n    }\n\n}",
  "sourcePath": "/Users/collinlim/Desktop/Desktop.nosync/School/CZ4153/Project/Decentralised_Prediction_Market/contracts/PredictionMarket.sol",
  "compiler": {
    "name": "solc",
    "version": "0.5.16+commit.9c3226ce.Emscripten.clang"
  },
  "schemaVersion": "3.2.5",
  "updatedAt": "2020-10-29T02:48:40.149Z",
  "networkType": "ethereum",
  "devdoc": {
    "methods": {}
  },
  "userdoc": {
    "methods": {}
  }
}