{
  "contractName": "PredictionMarket",
  "abi": [
    {
      "anonymous": false,
      "inputs": [
        {
          "indexed": false,
          "internalType": "address",
          "name": "_topicAddress",
          "type": "address"
        }
      ],
      "name": "TopicCreated",
      "type": "event"
    },
    {
      "constant": true,
      "inputs": [
        {
          "internalType": "address",
          "name": "",
          "type": "address"
        }
      ],
      "name": "arbitrators",
      "outputs": [
        {
          "internalType": "bytes32",
          "name": "displayName",
          "type": "bytes32"
        },
        {
          "internalType": "uint8",
          "name": "trustworthiness",
          "type": "uint8"
        },
        {
          "internalType": "bool",
          "name": "isValid",
          "type": "bool"
        }
      ],
      "payable": false,
      "stateMutability": "view",
      "type": "function"
    },
    {
      "constant": true,
      "inputs": [
        {
          "internalType": "address",
          "name": "",
          "type": "address"
        }
      ],
      "name": "marketTopics",
      "outputs": [
        {
          "internalType": "contract Topic",
          "name": "",
          "type": "address"
        }
      ],
      "payable": false,
      "stateMutability": "view",
      "type": "function"
    },
    {
      "constant": true,
      "inputs": [
        {
          "internalType": "address",
          "name": "",
          "type": "address"
        }
      ],
      "name": "traders",
      "outputs": [
        {
          "internalType": "uint256",
          "name": "winScore",
          "type": "uint256"
        },
        {
          "internalType": "uint256",
          "name": "loseScore",
          "type": "uint256"
        },
        {
          "internalType": "bool",
          "name": "isValid",
          "type": "bool"
        }
      ],
      "payable": false,
      "stateMutability": "view",
      "type": "function"
    },
    {
      "constant": false,
      "inputs": [],
      "name": "createTrader",
      "outputs": [],
      "payable": false,
      "stateMutability": "nonpayable",
      "type": "function"
    },
    {
      "constant": false,
      "inputs": [
        {
          "internalType": "bytes32",
          "name": "_displayName",
          "type": "bytes32"
        }
      ],
      "name": "createArbitrator",
      "outputs": [],
      "payable": false,
      "stateMutability": "nonpayable",
      "type": "function"
    },
    {
      "constant": true,
      "inputs": [],
      "name": "getAllArbitrators",
      "outputs": [
        {
          "internalType": "address payable[]",
          "name": "",
          "type": "address[]"
        }
      ],
      "payable": false,
      "stateMutability": "view",
      "type": "function"
    },
    {
      "constant": true,
      "inputs": [],
      "name": "getArbitratorName",
      "outputs": [
        {
          "internalType": "bytes32",
          "name": "",
          "type": "bytes32"
        }
      ],
      "payable": false,
      "stateMutability": "view",
      "type": "function"
    },
    {
      "constant": true,
      "inputs": [],
      "name": "getAllArbitratorNames",
      "outputs": [
        {
          "internalType": "bytes32[]",
          "name": "",
          "type": "bytes32[]"
        }
      ],
      "payable": false,
      "stateMutability": "view",
      "type": "function"
    },
    {
      "constant": true,
      "inputs": [
        {
          "internalType": "address",
          "name": "id",
          "type": "address"
        }
      ],
      "name": "getVotersReputation",
      "outputs": [
        {
          "internalType": "uint256[2]",
          "name": "",
          "type": "uint256[2]"
        }
      ],
      "payable": false,
      "stateMutability": "view",
      "type": "function"
    },
    {
      "constant": true,
      "inputs": [],
      "name": "checkIdentity",
      "outputs": [
        {
          "internalType": "bytes32",
          "name": "",
          "type": "bytes32"
        }
      ],
      "payable": false,
      "stateMutability": "view",
      "type": "function"
    },
    {
      "constant": true,
      "inputs": [
        {
          "internalType": "address",
          "name": "trader",
          "type": "address"
        }
      ],
      "name": "checkValidTrader",
      "outputs": [
        {
          "internalType": "bool",
          "name": "",
          "type": "bool"
        }
      ],
      "payable": false,
      "stateMutability": "view",
      "type": "function"
    },
    {
      "constant": false,
      "inputs": [
        {
          "internalType": "string",
          "name": "name",
          "type": "string"
        },
        {
          "internalType": "string",
          "name": "description",
          "type": "string"
        },
        {
          "internalType": "bytes32[]",
          "name": "options",
          "type": "bytes32[]"
        },
        {
          "internalType": "uint256",
          "name": "expiryDate",
          "type": "uint256"
        },
        {
          "internalType": "address payable[]",
          "name": "selectedArbitrators",
          "type": "address[]"
        }
      ],
      "name": "createTopic",
      "outputs": [],
      "payable": true,
      "stateMutability": "payable",
      "type": "function"
    },
    {
      "constant": true,
      "inputs": [],
      "name": "getAllTopics",
      "outputs": [
        {
          "internalType": "address[]",
          "name": "",
          "type": "address[]"
        }
      ],
      "payable": false,
      "stateMutability": "view",
      "type": "function"
    },
    {
      "constant": false,
      "inputs": [
        {
          "internalType": "address",
          "name": "winnerAddress",
          "type": "address"
        }
      ],
      "name": "updateWinScore",
      "outputs": [],
      "payable": false,
      "stateMutability": "nonpayable",
      "type": "function"
    },
    {
      "constant": true,
      "inputs": [
        {
          "internalType": "address",
          "name": "winnerAddress",
          "type": "address"
        }
      ],
      "name": "getWinScore",
      "outputs": [
        {
          "internalType": "uint256",
          "name": "",
          "type": "uint256"
        }
      ],
      "payable": false,
      "stateMutability": "view",
      "type": "function"
    },
    {
      "constant": false,
      "inputs": [
        {
          "internalType": "address",
          "name": "loserAddress",
          "type": "address"
        }
      ],
      "name": "updateLoseScore",
      "outputs": [],
      "payable": false,
      "stateMutability": "nonpayable",
      "type": "function"
    },
    {
      "constant": true,
      "inputs": [
        {
          "internalType": "address",
          "name": "loserAddress",
          "type": "address"
        }
      ],
      "name": "getLoseScore",
      "outputs": [
        {
          "internalType": "uint256",
          "name": "",
          "type": "uint256"
        }
      ],
      "payable": false,
      "stateMutability": "view",
      "type": "function"
    },
    {
      "constant": false,
      "inputs": [
        {
          "internalType": "address payable",
          "name": "targetAddress",
          "type": "address"
        },
        {
          "internalType": "uint256",
          "name": "bondValue",
          "type": "uint256"
        }
      ],
      "name": "transferCreatorBond",
      "outputs": [],
      "payable": true,
      "stateMutability": "payable",
      "type": "function"
    },
    {
      "constant": true,
      "inputs": [
        {
          "internalType": "address",
          "name": "topicAddress",
          "type": "address"
        }
      ],
      "name": "getCreatorAddress",
      "outputs": [
        {
          "internalType": "address payable",
          "name": "",
          "type": "address"
        }
      ],
      "payable": false,
      "stateMutability": "view",
      "type": "function"
    },
    {
      "constant": true,
      "inputs": [
        {
          "internalType": "address",
          "name": "topicAddress",
          "type": "address"
        }
      ],
      "name": "getName",
      "outputs": [
        {
          "internalType": "string",
          "name": "",
          "type": "string"
        }
      ],
      "payable": false,
      "stateMutability": "view",
      "type": "function"
    },
    {
      "constant": true,
      "inputs": [
        {
          "internalType": "address",
          "name": "topicAddress",
          "type": "address"
        }
      ],
      "name": "getDescription",
      "outputs": [
        {
          "internalType": "string",
          "name": "",
          "type": "string"
        }
      ],
      "payable": false,
      "stateMutability": "view",
      "type": "function"
    },
    {
      "constant": true,
      "inputs": [
        {
          "internalType": "address",
          "name": "topicAddress",
          "type": "address"
        }
      ],
      "name": "getOptions",
      "outputs": [
        {
          "internalType": "bytes32[]",
          "name": "",
          "type": "bytes32[]"
        }
      ],
      "payable": false,
      "stateMutability": "view",
      "type": "function"
    },
    {
      "constant": true,
      "inputs": [
        {
          "internalType": "address",
          "name": "topicAddress",
          "type": "address"
        }
      ],
      "name": "getMarketCap",
      "outputs": [
        {
          "internalType": "uint256",
          "name": "",
          "type": "uint256"
        }
      ],
      "payable": false,
      "stateMutability": "view",
      "type": "function"
    },
    {
      "constant": true,
      "inputs": [
        {
          "internalType": "address",
          "name": "topicAddress",
          "type": "address"
        }
      ],
      "name": "getCreatorBond",
      "outputs": [
        {
          "internalType": "uint256",
          "name": "",
          "type": "uint256"
        }
      ],
      "payable": false,
      "stateMutability": "view",
      "type": "function"
    },
    {
      "constant": true,
      "inputs": [
        {
          "internalType": "address",
          "name": "topicAddress",
          "type": "address"
        }
      ],
      "name": "getExpiryDate",
      "outputs": [
        {
          "internalType": "uint256",
          "name": "",
          "type": "uint256"
        }
      ],
      "payable": false,
      "stateMutability": "view",
      "type": "function"
    },
    {
      "constant": true,
      "inputs": [
        {
          "internalType": "address",
          "name": "topicAddress",
          "type": "address"
        }
      ],
      "name": "getSelectedArbitrators",
      "outputs": [
        {
          "internalType": "address payable[]",
          "name": "",
          "type": "address[]"
        }
      ],
      "payable": false,
      "stateMutability": "view",
      "type": "function"
    },
    {
      "constant": true,
      "inputs": [],
      "name": "getCurrentBalance",
      "outputs": [
        {
          "internalType": "uint256",
          "name": "",
          "type": "uint256"
        }
      ],
      "payable": false,
      "stateMutability": "view",
      "type": "function"
    }
  ],
  "bytecode": "0x608060405234801561001057600080fd5b50614327806100206000396000f3fe608060405260043610620001c45760003560e01c80636e193a591162000103578063b4b1d9c71162000097578063c9e519e8116200006d578063c9e519e81462000989578063cd1e0b6d14620009a1578063d146d31d14620009d8578063e7c256b61462000a0f57620001c4565b8063b4b1d9c714620008e4578063c082c30c146200091b578063c86b2159146200095257620001c4565b806392a88fa211620000d957806392a88fa214620008265780639ea630ba146200087d578063a574971014620008b4578063b227126814620008cc57620001c4565b80636e193a5914620007bf5780636f762d8a14620007f657806386416f14146200080e57620001c4565b80633fd8667b116200017b57806351d0ea37116200015157806351d0ea3714620006545780635fd4b08a14620006ad5780636215a16e146200075c5780636c8501a914620007a757620001c4565b80633fd8667b14620005d7578063420d3ae8146200060e5780634de1c9e4146200063c57620001c4565b806302d54fbf14620001c9578063158f3c1e146200021c5780631aa90abc14620004625780632c2153ba14620004eb5780632ea8e7ae14620005345780633d59f85b1462000563575b600080fd5b348015620001d657600080fd5b506200020060048036036020811015620001ef57600080fd5b50356001600160a01b031662000a46565b604080516001600160a01b039092168252519081900360200190f35b62000460600480360360a08110156200023457600080fd5b810190602081018135600160201b8111156200024f57600080fd5b8201836020820111156200026257600080fd5b803590602001918460018302840111600160201b831117156200028457600080fd5b91908080601f0160208091040260200160405190810160405280939291908181526020018383808284376000920191909152509295949360208101935035915050600160201b811115620002d757600080fd5b820183602082011115620002ea57600080fd5b803590602001918460018302840111600160201b831117156200030c57600080fd5b91908080601f0160208091040260200160405190810160405280939291908181526020018383808284376000920191909152509295949360208101935035915050600160201b8111156200035f57600080fd5b8201836020820111156200037257600080fd5b803590602001918460208302840111600160201b831117156200039457600080fd5b91908080602002602001604051908101604052809392919081815260200183836020028082843760009201919091525092958435959094909350604081019250602001359050600160201b811115620003ec57600080fd5b820183602082011115620003ff57600080fd5b803590602001918460208302840111600160201b831117156200042157600080fd5b91908080602002602001604051908101604052809392919081815260200183836020028082843760009201919091525092955062000a61945050505050565b005b3480156200046f57600080fd5b5062000499600480360360208110156200048857600080fd5b50356001600160a01b031662000d2b565b60408051602080825283518183015283519192839290830191858101910280838360005b83811015620004d7578181015183820152602001620004bd565b505050509050019250505060405180910390f35b348015620004f857600080fd5b5062000522600480360360208110156200051157600080fd5b50356001600160a01b031662000e53565b60408051918252519081900360200190f35b62000460600480360360408110156200054c57600080fd5b506001600160a01b03813516906020013562000e71565b3480156200057057600080fd5b506200059a600480360360208110156200058957600080fd5b50356001600160a01b031662000f05565b6040518082600260200280838360005b83811015620005c4578181015183820152602001620005aa565b5050505090500191505060405180910390f35b348015620005e457600080fd5b506200052260048036036020811015620005fd57600080fd5b50356001600160a01b031662000f6f565b3480156200061b57600080fd5b5062000460600480360360208110156200063457600080fd5b503562000ff6565b3480156200064957600080fd5b5062000522620010c8565b3480156200066157600080fd5b506200068b600480360360208110156200067a57600080fd5b50356001600160a01b03166200119d565b6040805193845260ff9092166020840152151582820152519081900360600190f35b348015620006ba57600080fd5b50620006e460048036036020811015620006d357600080fd5b50356001600160a01b0316620011c2565b6040805160208082528351818301528351919283929083019185019080838360005b838110156200072057818101518382015260200162000706565b50505050905090810190601f1680156200074e5780820380516001836020036101000a031916815260200191505b509250505060405180910390f35b3480156200076957600080fd5b5062000793600480360360208110156200078257600080fd5b50356001600160a01b03166200130f565b604080519115158252519081900360200190f35b348015620007b457600080fd5b506200052262001330565b348015620007cc57600080fd5b506200046060048036036020811015620007e557600080fd5b50356001600160a01b031662001343565b3480156200080357600080fd5b506200049962001363565b3480156200081b57600080fd5b506200049962001451565b3480156200083357600080fd5b506200085d600480360360208110156200084c57600080fd5b50356001600160a01b0316620014b5565b604080519384526020840192909252151582820152519081900360600190f35b3480156200088a57600080fd5b506200052260048036036020811015620008a357600080fd5b50356001600160a01b0316620014d9565b348015620008c157600080fd5b5062000522620014f4565b348015620008d957600080fd5b5062000460620014f8565b348015620008f157600080fd5b50620006e4600480360360208110156200090a57600080fd5b50356001600160a01b031662001574565b3480156200092857600080fd5b5062000200600480360360208110156200094157600080fd5b50356001600160a01b0316620015c7565b3480156200095f57600080fd5b5062000522600480360360208110156200097857600080fd5b50356001600160a01b03166200161a565b3480156200099657600080fd5b50620004996200166d565b348015620009ae57600080fd5b506200046060048036036020811015620009c757600080fd5b50356001600160a01b0316620016cf565b348015620009e557600080fd5b506200052260048036036020811015620009fe57600080fd5b50356001600160a01b0316620016f4565b34801562000a1c57600080fd5b50620004996004803603602081101562000a3557600080fd5b50356001600160a01b031662001747565b6002602052600090815260409020546001600160a01b031681565b3360008181526020819052604090206002015460ff1662000a8157600080fd5b6000341162000a8f57600080fd5b62000a9b81836200179a565b62000aa557600080fd5b60003490506000828888888589893060405162000ac29062001841565b80896001600160a01b03166001600160a01b0316815260200180602001806020018060200188815260200187815260200180602001866001600160a01b03166001600160a01b0316815260200185810385528c818151815260200191508051906020019080838360005b8381101562000b4657818101518382015260200162000b2c565b50505050905090810190601f16801562000b745780820380516001836020036101000a031916815260200191505b5085810384528b5181528b516020918201918d019080838360005b8381101562000ba957818101518382015260200162000b8f565b50505050905090810190601f16801562000bd75780820380516001836020036101000a031916815260200191505b5085810383528a5181528a51602091820191808d01910280838360005b8381101562000c0e57818101518382015260200162000bf4565b50505050905001858103825287818151815260200191508051906020019060200280838360005b8381101562000c4f57818101518382015260200162000c35565b505050509050019c50505050505050505050505050604051809103906000f08015801562000c81573d6000803e3d6000fd5b506001600160a01b038116600081815260026020908152604080832080546001600160a01b031990811686179091556003805460018101825594527fc2575a0e9e593c00f959f8c92f12db2869c3395a3b0502d05e2516446f71f85b909301805490931684179092558151928352905192935083927f3c1b2955a570d7b24867f47b5827c8c97e344bed881c4519bad1dd91656279da9281900390910190a1505050505050505050565b6001600160a01b0380821660009081526002602052604080822054815163894c3b1f60e01b81529151606094919091169263894c3b1f9260048082019391829003018186803b15801562000d7e57600080fd5b505afa15801562000d93573d6000803e3d6000fd5b505050506040513d6000823e601f3d908101601f19168201604052602081101562000dbd57600080fd5b8101908080516040519392919084600160201b82111562000ddd57600080fd5b90830190602082018581111562000df357600080fd5b82518660208202830111600160201b8211171562000e1057600080fd5b82525081516020918201928201910280838360005b8381101562000e3f57818101518382015260200162000e25565b505050509050016040525050509050919050565b6001600160a01b031660009081526020819052604090206001015490565b6001600160a01b03821660009081526005602052604090205460ff1662000f01576001600160a01b038216600081815260056020526040808220805460ff191660011790555183156108fc0291849190818181858888f1935050505015801562000edf573d6000803e3d6000fd5b506001600160a01b0382166000908152600560205260409020805460ff191690555b5050565b62000f0f6200184f565b6001600160a01b03821660009081526020819052604090206002015460ff1662000f3857600080fd5b506040805180820182526001600160a01b039290921660008181526020818152928120805485529181528252600101549082015290565b6001600160a01b03808216600090815260026020908152604080832054815163459d6e4f60e01b815291519394169263459d6e4f92600480840193919291829003018186803b15801562000fc257600080fd5b505afa15801562000fd7573d6000803e3d6000fd5b505050506040513d602081101562000fee57600080fd5b505192915050565b3360008181526001602081905260409091200154610100900460ff16156200101d57600080fd5b604080516060810182529283526032602080850191825260018584018181526001600160a01b039095166000818152928290529382209551865591519482018054945115156101000261ff001960ff9790971660ff199096169590951795909516939093179093556004805493840181559091527f8a35acfbc15ff81a39ae7d344fd709f28e8600b4aa8c65c6b64bfe7fe36bd19b90910180546001600160a01b0319169091179055565b3360009081526020819052604081206002015460ff1680156200110357503360009081526001602081905260409091200154610100900460ff165b15620011295750742a3930b232b91030b7321020b93134ba3930ba37b960591b6200119a565b3360009081526020819052604090206002015460ff1615620011565750652a3930b232b960d11b6200119a565b3360009081526001602081905260409091200154610100900460ff16156200118d57506920b93134ba3930ba37b960b11b6200119a565b5066125b9d985b1a5960ca1b5b90565b6001602081905260009182526040909120805491015460ff8082169161010090041683565b6001600160a01b038082166000908152600260205260408082205481516306fdde0360e01b8152915160609491909116926306fdde039260048082019391829003018186803b1580156200121557600080fd5b505afa1580156200122a573d6000803e3d6000fd5b505050506040513d6000823e601f3d908101601f1916820160405260208110156200125457600080fd5b8101908080516040519392919084600160201b8211156200127457600080fd5b9083019060208201858111156200128a57600080fd5b8251600160201b811182820188101715620012a457600080fd5b82525081516020918201929091019080838360005b83811015620012d3578181015183820152602001620012b9565b50505050905090810190601f168015620013015780820380516001836020036101000a031916815260200191505b506040525050509050919050565b6001600160a01b031660009081526020819052604090206002015460ff1690565b3360009081526001602052604090205490565b6001600160a01b0316600090815260208190526040902080546001019055565b60045460408051828152602080840282010190915260609190829082801562001396578160200160208202803883390190505b50905060005b828110156200144a57600060048281548110620013b557fe5b6000918252602090912001546001600160a01b03169050620013d66200186d565b506001600160a01b03811660009081526001602081815260409283902083516060810185528154808252919093015460ff80821693850193909352610100900490911615159282019290925284519091908590859081106200143457fe5b602090810291909101015250506001016200139c565b5091505090565b60606003805480602002602001604051908101604052809291908181526020018280548015620014ab57602002820191906000526020600020905b81546001600160a01b031681526001909101906020018083116200148c575b5050505050905090565b60006020819052908152604090208054600182015460029092015490919060ff1683565b6001600160a01b031660009081526020819052604090205490565b4790565b3360008181526020819052604090206002015460ff16156200151957600080fd5b604080516060810182526064808252602080830191825260018385018181526001600160a01b039690961660009081529182905293902091518255519181019190915590516002909101805460ff1916911515919091179055565b6001600160a01b03808216600090815260026020526040808220548151633942720b60e11b815291516060949190911692637284e4169260048082019391829003018186803b1580156200121557600080fd5b6001600160a01b03808216600090815260026020908152604080832054815163fbcc1e7160e01b815291519394169263fbcc1e7192600480840193919291829003018186803b15801562000fc257600080fd5b6001600160a01b03808216600090815260026020908152604080832054815163516dde4360e01b815291519394169263516dde4392600480840193919291829003018186803b15801562000fc257600080fd5b60606004805480602002602001604051908101604052809291908181526020018280548015620014ab576020028201919060005260206000209081546001600160a01b031681526001909101906020018083116200148c575050505050905090565b6001600160a01b03166000908152602081905260409020600190810180549091019055565b6001600160a01b038082166000908152600260209081526040808320548151632c135b9360e01b8152915193941692632c135b9392600480840193919291829003018186803b15801562000fc257600080fd5b6001600160a01b0380821660009081526002602052604080822054815163661770cb60e11b81529151606094919091169263cc2ee1969260048082019391829003018186803b15801562000d7e57600080fd5b8051600090815b8181101562001834576000848281518110620017b957fe5b6020026020010151905060016000826001600160a01b03166001600160a01b0316815260200190815260200160002060010160019054906101000a900460ff161580620018175750806001600160a01b0316866001600160a01b0316145b156200182a57600093505050506200183b565b50600101620017a1565b5060019150505b92915050565b612a65806200188e83390190565b60405180604001604052806002906020820280388339509192915050565b60408051606081018252600080825260208201819052918101919091529056fe608060408190526028805460ff1916905562002a653881900390819083398181016040526101008110156200003357600080fd5b8151602083018051604051929492938301929190846401000000008211156200005b57600080fd5b9083019060208201858111156200007157600080fd5b82516401000000008111828201881017156200008c57600080fd5b82525081516020918201929091019080838360005b83811015620000bb578181015183820152602001620000a1565b50505050905090810190601f168015620000e95780820380516001836020036101000a031916815260200191505b50604052602001805160405193929190846401000000008211156200010d57600080fd5b9083019060208201858111156200012357600080fd5b82516401000000008111828201881017156200013e57600080fd5b82525081516020918201929091019080838360005b838110156200016d57818101518382015260200162000153565b50505050905090810190601f1680156200019b5780820380516001836020036101000a031916815260200191505b5060405260200180516040519392919084640100000000821115620001bf57600080fd5b908301906020820185811115620001d557600080fd5b8251866020820283011164010000000082111715620001f357600080fd5b82525081516020918201928201910280838360005b838110156200022257818101518382015260200162000208565b5050505091909101604081815260208401519084015160609094018051919694959294935090846401000000008211156200025c57600080fd5b9083019060208201858111156200027257600080fd5b82518660208202830111640100000000821117156200029057600080fd5b82525081516020918201928201910280838360005b83811015620002bf578181015183820152602001620002a5565b505050509190910160405250602090810151600980546001600160a01b038084166001600160a01b03199283161790925560008054928e169290911691909117905589519093506200031892506001918a0190620004ac565b5085516200032e906002906020890190620004ac565b5084516200034490600390602088019062000531565b506000600455600584905560068390558151620003699060079060208501906200056e565b506009805461ffff60a01b1916601760a01b1760ff60b01b19169055600b805460ff1916905560005b8551811015620003fc576040805180820190915260008082526020820152600d8260048110620003be57fe5b825160029190910291909101908155602090910151600191820180546001600160a01b0319166001600160a01b039092169190911790550162000392565b5060005b82518110156200049d5760405180606001604052806001151581526020016000151581526020016000801b815250602260008584815181106200043f57fe5b6020908102919091018101516001600160a01b03168252818101929092526040908101600020835181549385015115156101000261ff001991151560ff19909516949094171692909217825591909101516001918201550162000400565b5050505050505050506200061b565b828054600181600116156101000203166002900490600052602060002090601f016020900481019282601f10620004ef57805160ff19168380011785556200051f565b828001600101855582156200051f579182015b828111156200051f57825182559160200191906001019062000502565b506200052d929150620005d4565b5090565b8280548282559060005260206000209081019282156200051f57916020028201828111156200051f57825182559160200191906001019062000502565b828054828255906000526020600020908101928215620005c6579160200282015b82811115620005c657825182546001600160a01b0319166001600160a01b039091161782556020909201916001909101906200058f565b506200052d929150620005f4565b620005f191905b808211156200052d5760008155600101620005db565b90565b620005f191905b808211156200052d5780546001600160a01b0319168155600101620005fb565b61243a806200062b6000396000f3fe60806040526004361061023b5760003560e01c806388814f431161012e578063cc2ee196116100ab578063e8a1e12e1161006f578063e8a1e12e146107b8578063f06e3e2e146107cd578063f462f8af14610800578063f4c6284b14610826578063fbcc1e71146108585761023b565b8063cc2ee196146106e1578063cc7e6210146106f6578063d3901fb514610720578063e6cd5a1114610735578063e6ff5096146107655761023b565b8063a8323176116100f2578063a83231761461063d578063b1d5362b14610652578063bc0da8d314610684578063bfb0b60814610699578063c617339b146106ae5761023b565b806388814f43146105af578063894c3b1f146105c45780639570400f146105d957806395e56a84146105fe578063a6430cc0146106135761023b565b8063465be85f116101bc5780636f36ec23116101805780636f36ec2314610529578063722713f7146105465780637284e4161461055b578063729ecb071461057057806376bb984b1461059a5761023b565b8063465be85f146104595780634852aa6d1461046e578063516dde43146104ba57806366d4bfac146104cf5780636f0f9f5e146104f95761023b565b80632c135b93116102035780632c135b931461039d5780632d978163146103c45780633b2c0cc3146103fd578063409e22051461041a578063459d6e4f146104445761023b565b806306fdde031461024057806312b8b1a3146102ca57806313e86a8f1461031157806322cedead14610330578063288fa80214610338575b600080fd5b34801561024c57600080fd5b5061025561086d565b6040805160208082528351818301528351919283929083019185019080838360005b8381101561028f578181015183820152602001610277565b50505050905090810190601f1680156102bc5780820380516001836020036101000a031916815260200191505b509250505060405180910390f35b3480156102d657600080fd5b506102fd600480360360208110156102ed57600080fd5b50356001600160a01b03166108fa565b604080519115158252519081900360200190f35b61032e6004803603602081101561032757600080fd5b5035610921565b005b61032e610a72565b34801561034457600080fd5b5061034d610b68565b60408051602080825283518183015283519192839290830191858101910280838360005b83811015610389578181015183820152602001610371565b505050509050019250505060405180910390f35b3480156103a957600080fd5b506103b2610bd5565b60408051918252519081900360200190f35b3480156103d057600080fd5b506103d9610bdb565b604051808260038111156103e957fe5b60ff16815260200191505060405180910390f35b61032e6004803603602081101561041357600080fd5b5035610be4565b34801561042657600080fd5b506103b26004803603602081101561043d57600080fd5b5035610cba565b34801561045057600080fd5b506103b2610cd8565b34801561046557600080fd5b5061034d610cde565b34801561047a57600080fd5b5061049e6004803603604081101561049157600080fd5b5080359060200135610d40565b604080516001600160a01b039092168252519081900360200190f35b3480156104c657600080fd5b506103b2610d75565b3480156104db57600080fd5b506103b2600480360360208110156104f257600080fd5b5035610d7b565b34801561050557600080fd5b5061050e610d8d565b60408051921515835260208301919091528051918290030190f35b6102fd6004803603602081101561053f57600080fd5b5035610e05565b34801561055257600080fd5b506103b2611186565b34801561056757600080fd5b5061025561118a565b34801561057c57600080fd5b5061049e6004803603602081101561059357600080fd5b50356111e2565b3480156105a657600080fd5b5061032e611209565b3480156105bb57600080fd5b506103b26117c0565b3480156105d057600080fd5b5061034d611817565b6103b2600480360360408110156105ef57600080fd5b50803590602001351515611877565b34801561060a57600080fd5b5061034d6119e7565b34801561061f57600080fd5b5061049e6004803603602081101561063657600080fd5b5035611a4a565b34801561064957600080fd5b5061032e611a57565b34801561065e57600080fd5b5061032e6004803603604081101561067557600080fd5b50803590602001351515611a6c565b34801561069057600080fd5b5061034d611bc0565b3480156106a557600080fd5b5061034d611c23565b3480156106ba57600080fd5b506102fd600480360360208110156106d157600080fd5b50356001600160a01b0316611c86565b3480156106ed57600080fd5b5061034d611ca9565b34801561070257600080fd5b506103b26004803603602081101561071957600080fd5b5035611d00565b34801561072c57600080fd5b506102fd611d12565b34801561074157600080fd5b5061049e6004803603604081101561075857600080fd5b5080359060200135611d28565b34801561077157600080fd5b506107986004803603602081101561078857600080fd5b50356001600160a01b0316611d41565b604080519315158452911515602084015282820152519081900360600190f35b3480156107c457600080fd5b506103b2611d67565b3480156107d957600080fd5b50610798600480360360208110156107f057600080fd5b50356001600160a01b0316611d6d565b61032e6004803603602081101561081657600080fd5b50356001600160a01b0316611d93565b34801561083257600080fd5b5061032e6004803603604081101561084957600080fd5b50803590602001351515611e25565b34801561086457600080fd5b5061049e611f55565b60018054604080516020600284861615610100026000190190941693909304601f810184900484028201840190925281815292918301828280156108f25780601f106108c7576101008083540402835291602001916108f2565b820191906000526020600020905b8154815290600101906020018083116108d557829003601f168201915b505050505081565b6001600160a01b038116600090815260226020526040902054610100900460ff165b919050565b6009546005546040805163175473d760e11b81523060048201526024810192909252516001600160a01b03909216918291632ea8e7ae91604480830192600092919082900301818387803b15801561097857600080fd5b505af115801561098c573d6000803e3d6000fd5b50505050600060646004548161099e57fe5b046005540190506000600384815481106109b457fe5b600091825260208083209091015480835260279091526040822054909250905b81811015610a6a5760008381526026602052604081208054839081106109f657fe5b60009182526020808320909101546001600160a01b0316808352600c9091526040909120805460ff191660011790559050806108fc848781610a3457fe5b049081150290604051600060405180830381858888f19350505050158015610a60573d6000803e3d6000fd5b50506001016109d4565b505050505050565b600080546001600160a01b03168152600c602052604090205460ff16610b6657600080546001600160a01b039081168252600c60205260408220805460ff1916600117905590546004549116906108fc90606490049081150290604051600060405180830381858888f19350505050158015610af2573d6000803e3d6000fd5b50600954600080546005546040805163175473d760e11b81526001600160a01b03938416600482015260248101929092525191909316928392632ea8e7ae9260448084019382900301818387803b158015610b4c57600080fd5b505af1158015610b60573d6000803e3d6000fd5b50505050505b565b60408051600480825260a08201909252606091908290826020820160808038833901905050905060005b82811015610bcd57600d8160048110610ba757fe5b60020201548251839083908110610bba57fe5b6020908102919091010152600101610b92565b509150505b90565b60045481565b60285460ff1681565b6000606460045481610bf257fe5b049050600060038381548110610c0457fe5b600091825260208083209091015480835260249091526040822054909250905b81811015610b60576000838152602360205260408120805483908110610c4657fe5b60009182526020808320909101546001600160a01b0316808352600c9091526040909120805460ff191660011790559050806108fc848781610c8457fe5b049081150290604051600060405180830381858888f19350505050158015610cb0573d6000803e3d6000fd5b5050600101610c24565b60038181548110610cc757fe5b600091825260209091200154905081565b60055481565b60606008805480602002602001604051908101604052809291908181526020018280548015610d3657602002820191906000526020600020905b81546001600160a01b03168152600190910190602001808311610d18575b5050505050905090565b60236020528160005260406000208181548110610d5957fe5b6000918252602090912001546001600160a01b03169150829050565b60065481565b60276020526000908152604090205481565b600080808080805b600354811015610dfb5760006024600060038481548110610db257fe5b9060005260206000200154815260200190815260200160002054905084811115610de55780945060009250819350610df2565b84811415610df257600192505b50600101610d95565b5093509150509091565b3360009081526022602052604081205460ff1615610e2257600080fd5b34670de0b6b3a76400008110610e3757600080fd5b80600d8460048110610e4557fe5b600202015410610e5457600080fd5b6009546040805163310ad0b760e11b815233600482015290516001600160a01b03909216916000918391636215a16e91602480820192602092909190829003018186803b158015610ea457600080fd5b505afa158015610eb8573d6000803e3d6000fd5b505050506040513d6020811015610ece57600080fd5b5051905080610edc57600080fd5b600d8560048110610ee957fe5b60020201600101546001600160a01b03166108fc600d8760048110610f0a57fe5b60020201546040518115909202916000818181858888f19350505050158015610f37573d6000803e3d6000fd5b50670de0b6b3a7640000610f496122ca565b60005b6004811015610fb857878114610fb057600d8160048110610f6957fe5b600202015490920391600d8160048110610f7f57fe5b60020201600101546001600160a01b0316828260048110610f9c57fe5b6001600160a01b0390921660209290920201525b600101610f4c565b508482116111195733818860048110610fcd57fe5b6001600160a01b039092166020929092020152610fe86122e8565b50604080516020810190915281815260218054600181018083556000929092528251839160049081027f3a6357012c1a3ae0a17d304c9920310382d968ebcc4b1771f41c6b304205b570019161104091839190612300565b506000925050505b6004811015611098578881141561106e57836015826004811061106757fe5b0155611090565b600d816004811061107b57fe5b60020201546015826004811061108d57fe5b01555b600101611048565b50604051339084880380156108fc02916000818181858888f193505050501580156110c7573d6000803e3d6000fd5b506110d0611f64565b60005b60048110156110f8576000600d82600481106110eb57fe5b60020201556001016110d3565b505060048054670de0b6b3a7640000019055506001945061091c9350505050565b611121612358565b506040805180820190915285815233602082015280600d896004811061114357fe5b825160029190910291909101908155602090910151600190910180546001600160a01b0319166001600160a01b0390921691909117905550949695505050505050565b4790565b6002805460408051602060018416156101000260001901909316849004601f810184900484028201840190925281815292918301828280156108f25780601f106108c7576101008083540402835291602001916108f2565b600881815481106111ef57fe5b6000918252602090912001546001600160a01b0316905081565b6009546040805163193ca33d60e31b815290516001600160a01b0390921691606091839163c9e519e891600480820192600092909190829003018186803b15801561125357600080fd5b505afa158015611267573d6000803e3d6000fd5b505050506040513d6000823e601f3d908101601f19168201604052602081101561129057600080fd5b81019080805160405193929190846401000000008211156112b057600080fd5b9083019060208201858111156112c557600080fd5b82518660208202830111640100000000821117156112e257600080fd5b82525081516020918201928201910280838360005b8381101561130f5781810151838201526020016112f7565b50505050905001604052505050905060056007805490508251031161148b5760006007805490508251039050606081604051908082528060200260200182016040528015611367578160200160208202803883390190505b5090506000805b845181101561146957600085828151811061138557fe5b6020908102919091018101516001600160a01b0381166000908152602290925260409091205490915060ff16806113c957506000546001600160a01b038281169116145b156113d45750611461565b604080516060810182526001808252600060208084018281528486018381526001600160a01b038816845260259092529490912092518354945115156101000261ff001991151560ff19909616959095171693909317825591519101558351819085908590811061144157fe5b6001600160a01b0390921660209283029190910190910152506001909101905b60010161136e565b50815161147d90600890602085019061236f565b50600a5550610b6692505050565b60608151600a026040519080825280602002602001820160405280156114bb578160200160208202803883390190505b5090506000805b83518110156116045760008482815181106114d957fe5b6020908102919091018101516001600160a01b0381166000908152602290925260409091205490915060ff168061151d57506000546001600160a01b038281169116145b1561152857506115fc565b6000866001600160a01b03166351d0ea37836040518263ffffffff1660e01b815260040180826001600160a01b03166001600160a01b0316815260200191505060606040518083038186803b15801561158057600080fd5b505afa158015611594573d6000803e3d6000fd5b505050506040513d60608110156115aa57600080fd5b50602001519050600a60ff82160460005b8160ff168110156115f757838787815181106115d357fe5b6001600160a01b0390921660209283029190910190910152600195860195016115bb565b505050505b6001016114c2565b5060408051600580825260c082019092526060916020820160a080388339019050509050600060335b600582108015611640575060008160ff16115b1561179e5760095460408051426020808301919091523360601b82840152600160a01b90930460f01b6001600160f01b0319166054820152815180820360360181526056909101909152805191012060009085908161169b57fe5b60098054600161ffff600160a01b808404821692909201160261ffff60a01b19909116179055875191900691506000908790839081106116d757fe5b6020908102919091018101516001600160a01b0381166000908152602590925260409091205490915060ff1661179357604080516060810182526001808252600060208084018281528486018381526001600160a01b038816845260259092529490912092518354945115156101000261ff001991151560ff19909616959095171693909317825591519101558451819086908690811061177457fe5b6001600160a01b03909216602092830291909101909101526001909301925b50506000190161162d565b82516117b190600890602086019061236f565b50506005600a55505050505050565b60008080805b600354811015610bcd57600060276000600384815481106117e357fe5b906000526020600020015481526020019081526020016000205490508381111561180e578093508192505b506001016117c6565b60606007805480602002602001604051908101604052809291908181526020018280548015610d36576020028201919060005260206000209081546001600160a01b03168152600190910190602001808311610d18575050505050905090565b60008060285460ff16600381111561188b57fe5b141580156118aa5750600360285460ff1660038111156118a757fe5b14155b6118b357600080fd5b6009546028805460ff191660031790556001600160a01b03166000805b6021548110156119965760005b602182815481106118ea57fe5b50600052600481101561198d5760006001600160a01b03166021838154811061190f57fe5b9060005260206000209060040201600001826004811061192b57fe5b01546001600160a01b0316146119855782600a01925086811415611985576119856021838154811061195957fe5b9060005260206000209060040201600001826004811061197557fe5b01546001600160a01b0316611d93565b6001016118dd565b506001016118d0565b5083156119a65791506119e19050565b6119af85610be4565b600260285460ff1660038111156119c257fe5b146119d4576119cf610a72565b6119dd565b6119dd85610921565b9150505b92915050565b60408051600480825260a08201909252606091908290826020820160808038833901905050905060005b82811015610bcd5760158160048110611a2657fe5b015460001b828281518110611a3757fe5b6020908102919091010152600101611a11565b600781815481106111ef57fe5b6028805460ff19166002179055610b66611209565b600160285460ff166003811115611a7f57fe5b14611a92576028805460ff191660011790555b33600090815260226020526040902054610100900460ff1615611ab457600080fd5b3360009081526022602052604090205460ff16611ad057600080fd5b336000818152602260209081526040808320805461010061ff0019909116178155600190810187905586845260238352818420805480830182559085528385200180546001600160a01b031916909517909455858352602490915290208054820190556009805460ff60b01b19811660ff600160b01b92839004811690940184168202179182905560075491049091161415611bbc57604080516020808252600a908201526920b93134ba3930ba37b960b11b8183015290517f21f0146f421195b1872d8b4b0ef2c37e13a25a518f7a902d98ae120c530beebc9181900360600190a1611bbc81612191565b5050565b60408051600480825260a08201909252606091908290826020820160808038833901905050905060005b82811015610bcd57601d8160048110611bff57fe5b015460001b828281518110611c1057fe5b6020908102919091010152600101611bea565b60408051600480825260a08201909252606091908290826020820160808038833901905050905060005b82811015610bcd5760198160048110611c6257fe5b015460001b828281518110611c7357fe5b6020908102919091010152600101611c4d565b6001600160a01b0316600090815260256020526040902054610100900460ff1690565b60606003805480602002602001604051908101604052809291908181526020018280548015610d3657602002820191906000526020600020905b815481526020019060010190808311611ce3575050505050905090565b60246020526000908152604090205481565b3360009081526022602052604090205460ff1690565b60266020528160005260406000208181548110610d5957fe5b6025602052600090815260409020805460019091015460ff808316926101009004169083565b600a5490565b6022602052600090815260409020805460019091015460ff808316926101009004169083565b6001600160a01b0381166000908152600c602052604090205460ff16611e22576001600160a01b0381166000818152600c6020526040808220805460ff1916600117905551670d99a8cec7e200009082818181858883f19350505050158015611e00573d6000803e3d6000fd5b506001600160a01b0381166000908152600c60205260409020805460ff191690555b50565b600260285460ff166003811115611e3857fe5b14611e4257600080fd5b33600090815260256020526040902054610100900460ff1615611e6457600080fd5b3360009081526025602052604090205460ff16611e8057600080fd5b336000818152602560209081526040808320805461ff001916610100178155600190810187905586845260268352818420805480830182559085528385200180546001600160a01b03191690951790945585835260279091529020805482019055600b805460ff818116909301831660ff199091161790819055600a5491161415611bbc57604080516020808252600490820152634a75727960e01b8183015290517f21f0146f421195b1872d8b4b0ef2c37e13a25a518f7a902d98ae120c530beebc9181900360600190a1611bbc81612191565b6000546001600160a01b031681565b6009546001600160a01b0316611f786122e8565b602180546000198101908110611f8a57fe5b60009182526020918290206040805160a081019182905293600493840290920192849283019184919082845b81546001600160a01b03168152600190910190602001808311611fb657505050505081525050905060008090505b600481101561218c5781516000908260048110611ffd57fe5b602002015190506001600160a01b038116156121835761201b6123c3565b60408051633d59f85b60e01b81526001600160a01b038481166004830152825190881692633d59f85b9260248082019391829003018186803b15801561206057600080fd5b505afa158015612074573d6000803e3d6000fd5b505050506040513d601f19601f82011682018060405250604081101561209957600080fd5b50604080516001600160a01b03851681529192507f405f4ccba46549b1dbd2e5bfbf7248e032b3b50a1a6d65140c30c83a176d192e9184918491906020820190839080838360005b838110156120f95781810151838201526020016120e1565b505050509050019250505060405180910390a16015836004811061211957fe5b01548151026019846004811061212b57fe5b0154016019846004811061213b57fe5b01556015836004811061214a57fe5b01546001038160016002811061215c57fe5b602002015102601d846004811061216f57fe5b015401601d846004811061217f57fe5b0155505b50600101611fe4565b505050565b600060285460ff1660038111156121a457fe5b141580156121c35750600360285460ff1660038111156121c057fe5b14155b6121cc57600080fd5b600260285460ff1660038111156121df57fe5b14156122505760006121ef6117c0565b90507f66b3df4a88fe35c4317e0f383c3a982564d17f7c0396b0e2fc77dc8f93ee2d266003828154811061221f57fe5b90600052602060002001546040518082815260200191505060405180910390a16122498183611877565b5050611e22565b60008061225b610d8d565b91509150816122c2577f66b3df4a88fe35c4317e0f383c3a982564d17f7c0396b0e2fc77dc8f93ee2d266003828154811061229257fe5b90600052602060002001546040518082815260200191505060405180910390a16122bc8184611877565b5061218c565b61218c611a57565b60405180608001604052806004906020820280388339509192915050565b60405180602001604052806122fb6122ca565b905290565b8260048101928215612348579160200282015b8281111561234857825182546001600160a01b0319166001600160a01b03909116178255602090920191600190910190612313565b506123549291506123e1565b5090565b604080518082019091526000808252602082015290565b828054828255906000526020600020908101928215612348579160200282018281111561234857825182546001600160a01b0319166001600160a01b03909116178255602090920191600190910190612313565b60405180604001604052806002906020820280388339509192915050565b610bd291905b808211156123545780546001600160a01b03191681556001016123e756fea265627a7a72315820374d6315c695734bcc52d29fbdd9109a43e4995e32e8d699d4584f080021ec6164736f6c63430005100032a265627a7a7231582062bd8b5d01973f7b6e17bd03db7cd42bf81534c4ff0553129f16ef64599474ae64736f6c63430005100032",
  "source": "// SPDX-License-Identifier: MIT\npragma solidity >=0.4.21 <=0.7.0;\nimport \"./Topic.sol\";\n\ncontract PredictionMarket {\n    // Structs for users and arbitrators. Default scores = 100\n    struct Trader {\n        uint winScore;\n        uint loseScore;\n        bool isValid; \n    }\n\n    struct Arbitrator {\n        bytes32 displayName;\n        uint8 trustworthiness;\n        bool isValid;\n    }\n    // Maps of addresses to different entities\n    mapping (address => Trader) public traders;\n    mapping (address => Arbitrator) public arbitrators;\n    mapping (address => Topic) public marketTopics;\n\n    // Array of addresses of topics to return to front end\n    address[] topicAddresses;\n\n    // Array of addresses of arbitrators to return to front end\n    address payable[] arbitratorAddresses;\n\n    // Guard against reentrancy attacks\n    mapping (address => bool) transferredToWithinWindow;\n\n    // Struct create functions\n    function createTrader() public {\n        address id = msg.sender;\n        // // require that address has not been assigned to a trader\n        require(!traders[id].isValid);\n\n        // // create new trader with the default values\n        traders[id] = Trader(100, 100, true);\n    }\n\n    function createArbitrator(bytes32 _displayName) public {\n        address id = msg.sender;\n\n        // require that address has not been assigned to a arbitrator\n        require(!arbitrators[id].isValid);\n\n        // create new arbitrator with the default values\n        arbitrators[id] = Arbitrator(_displayName, 50, true);\n\n        arbitratorAddresses.push(address(uint160(id)));\n    }\n\n    function getAllArbitrators() public view returns (address payable[] memory) {\n        return arbitratorAddresses;\n    }\n\n    function getArbitratorName() public view returns (bytes32){\n        return arbitrators[msg.sender].displayName;\n    }\n\n    function getAllArbitratorNames() public view returns (bytes32[] memory) {\n        uint len = arbitratorAddresses.length;\n        bytes32[] memory names = new bytes32[](len);\n\n        for (uint i = 0; i < len; i++) {\n            address arbitratorAddress = arbitratorAddresses[i];\n            Arbitrator memory arbitrator = arbitrators[arbitratorAddress];\n            names[i] = arbitrator.displayName;\n        }\n        return names;\n    }\n\n    //VOTER'S REPUTATION \n    function getVotersReputation(address id) public view returns (uint[2] memory){\n        require(traders[id].isValid);\n        return [traders[id].winScore, traders[id].loseScore];\n    }\n\n    // AUTHENTICATION\n    function checkIdentity() public view returns (bytes32) {\n        // Check if user is a trader\n        if(traders[msg.sender].isValid && arbitrators[msg.sender].isValid){\n            return bytes32(\"Trader and Arbitrator\");\n        }\n\n        // Check if user is a trader\n        if(traders[msg.sender].isValid){\n            return bytes32(\"Trader\");\n        }\n        // Check if user is an arbitrator\n        if(arbitrators[msg.sender].isValid){\n            return bytes32(\"Arbitrator\");\n        }\n        // If all the above fails, return invalid\n        return bytes32(\"Invalid\");\n    }\n\n    // Check if a trader is valid, this is called from external contracts/ views\n    // This function is for internal use between contracts only\n    function checkValidTrader(address trader) public view returns (bool) {\n        return traders[trader].isValid;\n    }\n\n\n    // Topics\n    function createTopic(\n        string memory name, string memory description, bytes32[] memory options, uint256 expiryDate, address payable[] memory selectedArbitrators\n    ) public payable\n        {\n        address payable creatorId = msg.sender;\n\n        // Creator must have a trader account\n        require(traders[creatorId].isValid);\n\n        // Must have value above 0 ETH for payment of creation bond\n        require(msg.value > 0 ether);\n\n        // selected arbitrators must have arbitrator account and creator must not select himself as an arbitrator\n        require(areValidArbitrators(creatorId, selectedArbitrators));\n\n        uint bondValue = msg.value;\n        Topic newTopic = new Topic(creatorId, name, description, options, bondValue, expiryDate, selectedArbitrators, address(this));\n        address payable topicAddress = address(uint160(address(newTopic))); // to cast from address to address payable\n        marketTopics[topicAddress] = newTopic;\n        topicAddresses.push(topicAddress);\n        emit TopicCreated(topicAddress);\n    }\n\n    function getAllTopics() public view returns (address[] memory) {\n        return topicAddresses;\n    }\n\n    function areValidArbitrators(address payable creatorId, address payable[] memory selectedArbitrators) internal view returns (bool) {\n        uint numSelectedArbitrators = selectedArbitrators.length;\n        for (uint i = 0; i < numSelectedArbitrators; i++) {\n            address arbitrator = selectedArbitrators[i];\n            if (!arbitrators[arbitrator].isValid || creatorId == arbitrator) {\n                return false;\n            }\n        }\n        return true;\n    }\n\n    function updateWinScore(address winnerAddress) public {\n        traders[winnerAddress].winScore += 1;\n    }\n\n    function getWinScore(address winnerAddress) public view returns (uint){\n        Trader storage winner = traders[winnerAddress];\n        return winner.winScore;\n    }\n\n    function updateLoseScore(address loserAddress) public {\n        traders[loserAddress].loseScore += 1;\n    }\n\n    function getLoseScore(address loserAddress) public view returns (uint){\n        Trader storage loser = traders[loserAddress];\n        return loser.loseScore;\n    }\n\n    // Transfer creator bond function\n    function transferCreatorBond(address payable targetAddress, uint bondValue) external payable {\n        if (!transferredToWithinWindow[targetAddress]) {\n            transferredToWithinWindow[targetAddress] = true;\n            targetAddress.transfer(bondValue);\n            transferredToWithinWindow[targetAddress] = false;\n        }\n    }\n\n    // ===============================================================\n    // For testing purposes\n    // ===============================================================\n    event TopicCreated(address _topicAddress);\n\n    function getCreatorAddress(address topicAddress) public view returns (address payable) {\n        return marketTopics[topicAddress].topicCreator();\n    }\n\n    function getName(address topicAddress) public view returns (string memory) {\n        return marketTopics[topicAddress].name();\n    }\n\n    function getDescription(address topicAddress) public view returns (string memory) {\n        return marketTopics[topicAddress].description();\n    }\n\n    function getOptions(address topicAddress) public view returns (bytes32[] memory) {\n        return marketTopics[topicAddress].getOptions();\n    }\n\n    function getMarketCap(address topicAddress) public view returns (uint) {\n        return marketTopics[topicAddress].marketCap();\n    }\n\n    function getCreatorBond(address topicAddress) public view returns (uint) {\n        return marketTopics[topicAddress].creatorBond();\n    }\n\n    function getExpiryDate(address topicAddress) public view returns (uint256) {\n        return marketTopics[topicAddress].expiryDate();\n    }\n\n    function getSelectedArbitrators(address topicAddress) public view returns (address payable[] memory) {\n        return marketTopics[topicAddress].getArbitrators();\n    }\n\n    function getCurrentBalance() public view returns (uint) {\n        return address(this).balance;\n    }\n\n}",
  "sourcePath": "/Users/collinlim/Desktop/Desktop.nosync/School/CZ4153/Project/Decentralised_Prediction_Market/contracts/PredictionMarket.sol",
  "compiler": {
    "name": "solc",
    "version": "0.5.16+commit.9c3226ce.Emscripten.clang"
  },
  "schemaVersion": "3.2.5",
  "updatedAt": "2020-10-27T09:52:22.708Z",
  "networkType": "ethereum",
  "devdoc": {
    "methods": {}
  },
  "userdoc": {
    "methods": {}
  }
}