{
  "contractName": "PredictionMarket",
  "abi": [
    {
      "anonymous": false,
      "inputs": [
        {
          "indexed": false,
          "internalType": "address",
          "name": "_topicAddress",
          "type": "address"
        }
      ],
      "name": "TopicCreated",
      "type": "event"
    },
    {
      "constant": true,
      "inputs": [
        {
          "internalType": "address",
          "name": "",
          "type": "address"
        }
      ],
      "name": "arbitrators",
      "outputs": [
        {
          "internalType": "int256",
          "name": "trustworthiness",
          "type": "int256"
        },
        {
          "internalType": "bool",
          "name": "isValid",
          "type": "bool"
        }
      ],
      "payable": false,
      "stateMutability": "view",
      "type": "function"
    },
    {
      "constant": true,
      "inputs": [
        {
          "internalType": "address",
          "name": "",
          "type": "address"
        }
      ],
      "name": "marketTopics",
      "outputs": [
        {
          "internalType": "contract Topic",
          "name": "",
          "type": "address"
        }
      ],
      "payable": false,
      "stateMutability": "view",
      "type": "function"
    },
    {
      "constant": true,
      "inputs": [
        {
          "internalType": "address",
          "name": "",
          "type": "address"
        }
      ],
      "name": "traders",
      "outputs": [
        {
          "internalType": "uint256",
          "name": "winScore",
          "type": "uint256"
        },
        {
          "internalType": "uint256",
          "name": "loseScore",
          "type": "uint256"
        },
        {
          "internalType": "bool",
          "name": "isValid",
          "type": "bool"
        }
      ],
      "payable": false,
      "stateMutability": "view",
      "type": "function"
    },
    {
      "constant": false,
      "inputs": [],
      "name": "createTrader",
      "outputs": [],
      "payable": false,
      "stateMutability": "nonpayable",
      "type": "function"
    },
    {
      "constant": false,
      "inputs": [],
      "name": "createArbitrator",
      "outputs": [],
      "payable": false,
      "stateMutability": "nonpayable",
      "type": "function"
    },
    {
      "constant": false,
      "inputs": [
        {
          "internalType": "string",
          "name": "name",
          "type": "string"
        },
        {
          "internalType": "string",
          "name": "description",
          "type": "string"
        },
        {
          "internalType": "bytes32[]",
          "name": "options",
          "type": "bytes32[]"
        },
        {
          "internalType": "uint256",
          "name": "expiryDate",
          "type": "uint256"
        }
      ],
      "name": "createTopic",
      "outputs": [],
      "payable": true,
      "stateMutability": "payable",
      "type": "function"
    },
    {
      "constant": true,
      "inputs": [
        {
          "internalType": "address payable",
          "name": "topicAddress",
          "type": "address"
        }
      ],
      "name": "getCreatorAddress",
      "outputs": [
        {
          "internalType": "address payable",
          "name": "",
          "type": "address"
        }
      ],
      "payable": false,
      "stateMutability": "view",
      "type": "function"
    },
    {
      "constant": true,
      "inputs": [
        {
          "internalType": "address payable",
          "name": "topicAddress",
          "type": "address"
        }
      ],
      "name": "getName",
      "outputs": [
        {
          "internalType": "string",
          "name": "",
          "type": "string"
        }
      ],
      "payable": false,
      "stateMutability": "view",
      "type": "function"
    },
    {
      "constant": true,
      "inputs": [
        {
          "internalType": "address payable",
          "name": "topicAddress",
          "type": "address"
        }
      ],
      "name": "getDescription",
      "outputs": [
        {
          "internalType": "string",
          "name": "",
          "type": "string"
        }
      ],
      "payable": false,
      "stateMutability": "view",
      "type": "function"
    },
    {
      "constant": true,
      "inputs": [
        {
          "internalType": "address payable",
          "name": "topicAddress",
          "type": "address"
        }
      ],
      "name": "getOptions",
      "outputs": [
        {
          "internalType": "bytes32[]",
          "name": "",
          "type": "bytes32[]"
        }
      ],
      "payable": false,
      "stateMutability": "view",
      "type": "function"
    },
    {
      "constant": true,
      "inputs": [
        {
          "internalType": "address payable",
          "name": "topicAddress",
          "type": "address"
        }
      ],
      "name": "getMarketCap",
      "outputs": [
        {
          "internalType": "uint256",
          "name": "",
          "type": "uint256"
        }
      ],
      "payable": false,
      "stateMutability": "view",
      "type": "function"
    },
    {
      "constant": true,
      "inputs": [
        {
          "internalType": "address payable",
          "name": "topicAddress",
          "type": "address"
        }
      ],
      "name": "getCreatorBond",
      "outputs": [
        {
          "internalType": "uint256",
          "name": "",
          "type": "uint256"
        }
      ],
      "payable": false,
      "stateMutability": "view",
      "type": "function"
    },
    {
      "constant": true,
      "inputs": [
        {
          "internalType": "address payable",
          "name": "topicAddress",
          "type": "address"
        }
      ],
      "name": "getExpiryDate",
      "outputs": [
        {
          "internalType": "uint256",
          "name": "",
          "type": "uint256"
        }
      ],
      "payable": false,
      "stateMutability": "view",
      "type": "function"
    }
  ],
  "bytecode": "0x608060405234801561001057600080fd5b506127fb806100206000396000f3fe608060405260043610620000d45760003560e01c80639ed795f6116200008b578063c082c30c1162000061578063c082c30c1462000698578063c86b2159146200072d578063d146d31d1462000796578063e7c256b614620007ff57620000d4565b80639ed795f614620003b1578063b227126814620005ad578063b4b1d9c714620005c757620000d4565b806302d54fbf14620000d95780633fd8667b146200016e57806351d0ea3714620001d75780635fd4b08a146200024b5780637aaa11e5146200031c57806392a88fa21462000336575b600080fd5b348015620000e657600080fd5b506200012c60048036036020811015620000ff57600080fd5b81019080803573ffffffffffffffffffffffffffffffffffffffff169060200190929190505050620008ab565b604051808273ffffffffffffffffffffffffffffffffffffffff1673ffffffffffffffffffffffffffffffffffffffff16815260200191505060405180910390f35b3480156200017b57600080fd5b50620001c1600480360360208110156200019457600080fd5b81019080803573ffffffffffffffffffffffffffffffffffffffff169060200190929190505050620008de565b6040518082815260200191505060405180910390f35b348015620001e457600080fd5b506200022a60048036036020811015620001fd57600080fd5b81019080803573ffffffffffffffffffffffffffffffffffffffff169060200190929190505050620009ca565b60405180838152602001821515151581526020019250505060405180910390f35b3480156200025857600080fd5b506200029e600480360360208110156200027157600080fd5b81019080803573ffffffffffffffffffffffffffffffffffffffff169060200190929190505050620009fb565b6040518080602001828103825283818151815260200191508051906020019080838360005b83811015620002e0578082015181840152602081019050620002c3565b50505050905090810190601f1680156200030e5780820380516001836020036101000a031916815260200191505b509250505060405180910390f35b3480156200032957600080fd5b506200033462000bab565b005b3480156200034357600080fd5b5062000389600480360360208110156200035c57600080fd5b81019080803573ffffffffffffffffffffffffffffffffffffffff16906020019092919050505062000c93565b6040518084815260200183815260200182151515158152602001935050505060405180910390f35b620005ab60048036036080811015620003c957600080fd5b8101908080359060200190640100000000811115620003e757600080fd5b820183602082011115620003fa57600080fd5b803590602001918460018302840111640100000000831117156200041d57600080fd5b91908080601f016020809104026020016040519081016040528093929190818152602001838380828437600081840152601f19601f820116905080830192505050505050509192919290803590602001906401000000008111156200048157600080fd5b8201836020820111156200049457600080fd5b80359060200191846001830284011164010000000083111715620004b757600080fd5b91908080601f016020809104026020016040519081016040528093929190818152602001838380828437600081840152601f19601f820116905080830192505050505050509192919290803590602001906401000000008111156200051b57600080fd5b8201836020820111156200052e57600080fd5b803590602001918460208302840111640100000000831117156200055157600080fd5b919080806020026020016040519081016040528093929190818152602001838360200280828437600081840152601f19601f8201169050808301925050505050505091929192908035906020019092919050505062000cca565b005b348015620005ba57600080fd5b50620005c562000fcd565b005b348015620005d457600080fd5b506200061a60048036036020811015620005ed57600080fd5b81019080803573ffffffffffffffffffffffffffffffffffffffff169060200190929190505050620010c4565b6040518080602001828103825283818151815260200191508051906020019080838360005b838110156200065c5780820151818401526020810190506200063f565b50505050905090810190601f1680156200068a5780820380516001836020036101000a031916815260200191505b509250505060405180910390f35b348015620006a557600080fd5b50620006eb60048036036020811015620006be57600080fd5b81019080803573ffffffffffffffffffffffffffffffffffffffff16906020019092919050505062001274565b604051808273ffffffffffffffffffffffffffffffffffffffff1673ffffffffffffffffffffffffffffffffffffffff16815260200191505060405180910390f35b3480156200073a57600080fd5b5062000780600480360360208110156200075357600080fd5b81019080803573ffffffffffffffffffffffffffffffffffffffff16906020019092919050505062001360565b6040518082815260200191505060405180910390f35b348015620007a357600080fd5b50620007e960048036036020811015620007bc57600080fd5b81019080803573ffffffffffffffffffffffffffffffffffffffff1690602001909291905050506200144c565b6040518082815260200191505060405180910390f35b3480156200080c57600080fd5b5062000852600480360360208110156200082557600080fd5b81019080803573ffffffffffffffffffffffffffffffffffffffff16906020019092919050505062001538565b6040518080602001828103825283818151815260200191508051906020019060200280838360005b83811015620008975780820151818401526020810190506200087a565b505050509050019250505060405180910390f35b60026020528060005260406000206000915054906101000a900473ffffffffffffffffffffffffffffffffffffffff1681565b6000600260008373ffffffffffffffffffffffffffffffffffffffff1673ffffffffffffffffffffffffffffffffffffffff16815260200190815260200160002060009054906101000a900473ffffffffffffffffffffffffffffffffffffffff1673ffffffffffffffffffffffffffffffffffffffff1663459d6e4f6040518163ffffffff1660e01b815260040160206040518083038186803b1580156200098657600080fd5b505afa1580156200099b573d6000803e3d6000fd5b505050506040513d6020811015620009b257600080fd5b81019080805190602001909291905050509050919050565b60016020528060005260406000206000915090508060000154908060010160009054906101000a900460ff16905082565b6060600260008373ffffffffffffffffffffffffffffffffffffffff1673ffffffffffffffffffffffffffffffffffffffff16815260200190815260200160002060009054906101000a900473ffffffffffffffffffffffffffffffffffffffff1673ffffffffffffffffffffffffffffffffffffffff166306fdde036040518163ffffffff1660e01b815260040160006040518083038186803b15801562000aa357600080fd5b505afa15801562000ab8573d6000803e3d6000fd5b505050506040513d6000823e3d601f19601f82011682018060405250602081101562000ae357600080fd5b810190808051604051939291908464010000000082111562000b0457600080fd5b8382019150602082018581111562000b1b57600080fd5b825186600182028301116401000000008211171562000b3957600080fd5b8083526020830192505050908051906020019080838360005b8381101562000b6f57808201518184015260208101905062000b52565b50505050905090810190601f16801562000b9d5780820380516001836020036101000a031916815260200191505b506040525050509050919050565b6000339050600160008273ffffffffffffffffffffffffffffffffffffffff1673ffffffffffffffffffffffffffffffffffffffff16815260200190815260200160002060010160009054906101000a900460ff161562000c0b57600080fd5b60405180604001604052806064815260200160011515815250600160008373ffffffffffffffffffffffffffffffffffffffff1673ffffffffffffffffffffffffffffffffffffffff1681526020019081526020016000206000820151816000015560208201518160010160006101000a81548160ff02191690831515021790555090505050565b60006020528060005260406000206000915090508060000154908060010154908060020160009054906101000a900460ff16905083565b60003390506000808273ffffffffffffffffffffffffffffffffffffffff1673ffffffffffffffffffffffffffffffffffffffff16815260200190815260200160002060020160009054906101000a900460ff1662000d2857600080fd5b6000341162000d3657600080fd5b6000349050600082878787858860405162000d5190620016c3565b808773ffffffffffffffffffffffffffffffffffffffff1673ffffffffffffffffffffffffffffffffffffffff168152602001806020018060200180602001868152602001858152602001848103845289818151815260200191508051906020019080838360005b8381101562000dd657808201518184015260208101905062000db9565b50505050905090810190601f16801562000e045780820380516001836020036101000a031916815260200191505b50848103835288818151815260200191508051906020019080838360005b8381101562000e3f57808201518184015260208101905062000e22565b50505050905090810190601f16801562000e6d5780820380516001836020036101000a031916815260200191505b50848103825287818151815260200191508051906020019060200280838360005b8381101562000eab57808201518184015260208101905062000e8e565b505050509050019950505050505050505050604051809103906000f08015801562000eda573d6000803e3d6000fd5b509050600081905081600260008373ffffffffffffffffffffffffffffffffffffffff1673ffffffffffffffffffffffffffffffffffffffff16815260200190815260200160002060006101000a81548173ffffffffffffffffffffffffffffffffffffffff021916908373ffffffffffffffffffffffffffffffffffffffff1602179055507f3c1b2955a570d7b24867f47b5827c8c97e344bed881c4519bad1dd91656279da81604051808273ffffffffffffffffffffffffffffffffffffffff1673ffffffffffffffffffffffffffffffffffffffff16815260200191505060405180910390a15050505050505050565b60003390506000808273ffffffffffffffffffffffffffffffffffffffff1673ffffffffffffffffffffffffffffffffffffffff16815260200190815260200160002060020160009054906101000a900460ff16156200102c57600080fd5b60405180606001604052806064815260200160648152602001600115158152506000808373ffffffffffffffffffffffffffffffffffffffff1673ffffffffffffffffffffffffffffffffffffffff168152602001908152602001600020600082015181600001556020820151816001015560408201518160020160006101000a81548160ff02191690831515021790555090505050565b6060600260008373ffffffffffffffffffffffffffffffffffffffff1673ffffffffffffffffffffffffffffffffffffffff16815260200190815260200160002060009054906101000a900473ffffffffffffffffffffffffffffffffffffffff1673ffffffffffffffffffffffffffffffffffffffff16637284e4166040518163ffffffff1660e01b815260040160006040518083038186803b1580156200116c57600080fd5b505afa15801562001181573d6000803e3d6000fd5b505050506040513d6000823e3d601f19601f820116820180604052506020811015620011ac57600080fd5b8101908080516040519392919084640100000000821115620011cd57600080fd5b83820191506020820185811115620011e457600080fd5b82518660018202830111640100000000821117156200120257600080fd5b8083526020830192505050908051906020019080838360005b83811015620012385780820151818401526020810190506200121b565b50505050905090810190601f168015620012665780820380516001836020036101000a031916815260200191505b506040525050509050919050565b6000600260008373ffffffffffffffffffffffffffffffffffffffff1673ffffffffffffffffffffffffffffffffffffffff16815260200190815260200160002060009054906101000a900473ffffffffffffffffffffffffffffffffffffffff1673ffffffffffffffffffffffffffffffffffffffff1663fbcc1e716040518163ffffffff1660e01b815260040160206040518083038186803b1580156200131c57600080fd5b505afa15801562001331573d6000803e3d6000fd5b505050506040513d60208110156200134857600080fd5b81019080805190602001909291905050509050919050565b6000600260008373ffffffffffffffffffffffffffffffffffffffff1673ffffffffffffffffffffffffffffffffffffffff16815260200190815260200160002060009054906101000a900473ffffffffffffffffffffffffffffffffffffffff1673ffffffffffffffffffffffffffffffffffffffff1663516dde436040518163ffffffff1660e01b815260040160206040518083038186803b1580156200140857600080fd5b505afa1580156200141d573d6000803e3d6000fd5b505050506040513d60208110156200143457600080fd5b81019080805190602001909291905050509050919050565b6000600260008373ffffffffffffffffffffffffffffffffffffffff1673ffffffffffffffffffffffffffffffffffffffff16815260200190815260200160002060009054906101000a900473ffffffffffffffffffffffffffffffffffffffff1673ffffffffffffffffffffffffffffffffffffffff16632c135b936040518163ffffffff1660e01b815260040160206040518083038186803b158015620014f457600080fd5b505afa15801562001509573d6000803e3d6000fd5b505050506040513d60208110156200152057600080fd5b81019080805190602001909291905050509050919050565b6060600260008373ffffffffffffffffffffffffffffffffffffffff1673ffffffffffffffffffffffffffffffffffffffff16815260200190815260200160002060009054906101000a900473ffffffffffffffffffffffffffffffffffffffff1673ffffffffffffffffffffffffffffffffffffffff1663cc2ee1966040518163ffffffff1660e01b815260040160006040518083038186803b158015620015e057600080fd5b505afa158015620015f5573d6000803e3d6000fd5b505050506040513d6000823e3d601f19601f8201168201806040525060208110156200162057600080fd5b81019080805160405193929190846401000000008211156200164157600080fd5b838201915060208201858111156200165857600080fd5b82518660208202830111640100000000821117156200167657600080fd5b8083526020830192505050908051906020019060200280838360005b83811015620016af57808201518184015260208101905062001692565b505050509050016040525050509050919050565b6110f580620016d28339019056fe6080604052604051620010f5380380620010f5833981810160405260c08110156200002957600080fd5b8101908080519060200190929190805160405193929190846401000000008211156200005457600080fd5b838201915060208201858111156200006b57600080fd5b82518660018202830111640100000000821117156200008957600080fd5b8083526020830192505050908051906020019080838360005b83811015620000bf578082015181840152602081019050620000a2565b50505050905090810190601f168015620000ed5780820380516001836020036101000a031916815260200191505b50604052602001805160405193929190846401000000008211156200011157600080fd5b838201915060208201858111156200012857600080fd5b82518660018202830111640100000000821117156200014657600080fd5b8083526020830192505050908051906020019080838360005b838110156200017c5780820151818401526020810190506200015f565b50505050905090810190601f168015620001aa5780820380516001836020036101000a031916815260200191505b5060405260200180516040519392919084640100000000821115620001ce57600080fd5b83820191506020820185811115620001e557600080fd5b82518660208202830111640100000000821117156200020357600080fd5b8083526020830192505050908051906020019060200280838360005b838110156200023c5780820151818401526020810190506200021f565b505050509050016040526020018051906020019092919080519060200190929190505050856000806101000a81548173ffffffffffffffffffffffffffffffffffffffff021916908373ffffffffffffffffffffffffffffffffffffffff1602179055508460019080519060200190620002b8929190620003bf565b508360029080519060200190620002d1929190620003bf565b508260039080519060200190620002ea92919062000446565b506000600481905550816005819055508060068190555060008090505b6004811015620003b257604051806040016040528060008152602001600073ffffffffffffffffffffffffffffffffffffffff16815250600782600481106200034c57fe5b600202016000820151816000015560208201518160010160006101000a81548173ffffffffffffffffffffffffffffffffffffffff021916908373ffffffffffffffffffffffffffffffffffffffff160217905550905050808060010191505062000307565b50505050505050620004e8565b828054600181600116156101000203166002900490600052602060002090601f016020900481019282601f106200040257805160ff191683800117855562000433565b8280016001018555821562000433579182015b828111156200043257825182559160200191906001019062000415565b5b50905062000442919062000498565b5090565b82805482825590600052602060002090810192821562000485579160200282015b828111156200048457825182559160200191906001019062000467565b5b509050620004949190620004c0565b5090565b620004bd91905b80821115620004b95760008160009055506001016200049f565b5090565b90565b620004e591905b80821115620004e1576000816000905550600101620004c7565b5090565b90565b610bfd80620004f86000396000f3fe6080604052600436106100a75760003560e01c8063516dde4311610064578063516dde431461029d578063722713f7146102c85780637284e416146102f3578063b745467014610383578063cc2ee196146103d2578063fbcc1e711461043e576100a7565b806306fdde03146100ac578063288fa8021461013c5780632c135b93146101a8578063409e2205146101d3578063459d6e4f14610222578063509bd3371461024d575b600080fd5b3480156100b857600080fd5b506100c1610495565b6040518080602001828103825283818151815260200191508051906020019080838360005b838110156101015780820151818401526020810190506100e6565b50505050905090810190601f16801561012e5780820380516001836020036101000a031916815260200191505b509250505060405180910390f35b34801561014857600080fd5b50610151610533565b6040518080602001828103825283818151815260200191508051906020019060200280838360005b83811015610194578082015181840152602081019050610179565b505050509050019250505060405180910390f35b3480156101b457600080fd5b506101bd6105c3565b6040518082815260200191505060405180910390f35b3480156101df57600080fd5b5061020c600480360360208110156101f657600080fd5b81019080803590602001909291905050506105c9565b6040518082815260200191505060405180910390f35b34801561022e57600080fd5b506102376105ea565b6040518082815260200191505060405180910390f35b6102836004803603604081101561026357600080fd5b8101908080359060200190929190803590602001909291905050506105f0565b604051808215151515815260200191505060405180910390f35b3480156102a957600080fd5b506102b26108f8565b6040518082815260200191505060405180910390f35b3480156102d457600080fd5b506102dd6108fe565b6040518082815260200191505060405180910390f35b3480156102ff57600080fd5b50610308610906565b6040518080602001828103825283818151815260200191508051906020019080838360005b8381101561034857808201518184015260208101905061032d565b50505050905090810190601f1680156103755780820380516001836020036101000a031916815260200191505b509250505060405180910390f35b34801561038f57600080fd5b506103bc600480360360208110156103a657600080fd5b81019080803590602001909291905050506109a4565b6040518082815260200191505060405180910390f35b3480156103de57600080fd5b506103e76109c2565b6040518080602001828103825283818151815260200191508051906020019060200280838360005b8381101561042a57808201518184015260208101905061040f565b505050509050019250505060405180910390f35b34801561044a57600080fd5b50610453610a56565b604051808273ffffffffffffffffffffffffffffffffffffffff1673ffffffffffffffffffffffffffffffffffffffff16815260200191505060405180910390f35b60018054600181600116156101000203166002900480601f01602080910402602001604051908101604052809291908181526020018280546001816001161561010002031660029004801561052b5780601f106105005761010080835404028352916020019161052b565b820191906000526020600020905b81548152906001019060200180831161050e57829003601f168201915b505050505081565b606060006004905060608160405190808252806020026020018201604052801561056c5781602001602082028038833980820191505090505b50905060008090505b828110156105ba576007816004811061058a57fe5b600202016000015460001b8282815181106105a157fe5b6020026020010181815250508080600101915050610575565b50809250505090565b60045481565b600381815481106105d657fe5b906000526020600020016000915090505481565b60055481565b60006105fa610a7b565b60405180604001604052808581526020013373ffffffffffffffffffffffffffffffffffffffff168152509050836007846004811061063557fe5b60020201600001541061064c5760009150506108f2565b6000670de0b6b3a76400009050610661610aab565b60008090505b600481101561071657858114610709576007816004811061068457fe5b6002020160000154830392506007816004811061069d57fe5b6002020160010160009054906101000a900473ffffffffffffffffffffffffffffffffffffffff168282600481106106d157fe5b602002019073ffffffffffffffffffffffffffffffffffffffff16908173ffffffffffffffffffffffffffffffffffffffff16815250505b8080600101915050610667565b5085821015610852573381866004811061072c57fe5b602002019073ffffffffffffffffffffffffffffffffffffffff16908173ffffffffffffffffffffffffffffffffffffffff168152505061076b610acd565b6040518060200160405280838152509050600f81908060018154018082558091505090600182039060005260206000209060040201600090919290919091506000820151816000019060046107c1929190610ae6565b505050503373ffffffffffffffffffffffffffffffffffffffff166108fc8489039081150290604051600060405180830381858888f1935050505015801561080d573d6000803e3d6000fd5b5060008090505b60048110156108445760006007826004811061082c57fe5b60020201600001819055508080600101915050610814565b5060019450505050506108f2565b61085a610a7b565b60405180604001604052808881526020013373ffffffffffffffffffffffffffffffffffffffff168152509050806007876004811061089557fe5b600202016000820151816000015560208201518160010160006101000a81548173ffffffffffffffffffffffffffffffffffffffff021916908373ffffffffffffffffffffffffffffffffffffffff160217905550905050505050505b92915050565b60065481565b600047905090565b60028054600181600116156101000203166002900480601f01602080910402602001604051908101604052809291908181526020018280546001816001161561010002031660029004801561099c5780601f106109715761010080835404028352916020019161099c565b820191906000526020600020905b81548152906001019060200180831161097f57829003601f168201915b505050505081565b6000600782600481106109b357fe5b60020201600001549050919050565b6060600060038054905090506060816040519080825280602002602001820160405280156109ff5781602001602082028038833980820191505090505b50905060008090505b82811015610a4d5760038181548110610a1d57fe5b9060005260206000200154828281518110610a3457fe5b6020026020010181815250508080600101915050610a08565b50809250505090565b6000809054906101000a900473ffffffffffffffffffffffffffffffffffffffff1681565b604051806040016040528060008152602001600073ffffffffffffffffffffffffffffffffffffffff1681525090565b6040518060800160405280600490602082028038833980820191505090505090565b6040518060200160405280610ae0610b63565b81525090565b8260048101928215610b52579160200282015b82811115610b515782518260006101000a81548173ffffffffffffffffffffffffffffffffffffffff021916908373ffffffffffffffffffffffffffffffffffffffff16021790555091602001919060010190610af9565b5b509050610b5f9190610b85565b5090565b6040518060800160405280600490602082028038833980820191505090505090565b610bc591905b80821115610bc157600081816101000a81549073ffffffffffffffffffffffffffffffffffffffff021916905550600101610b8b565b5090565b9056fea265627a7a72315820931a1b9507968cd2cf27c83360f4300b2f8742a19f3971a17375f4141b6f20df64736f6c63430005100032a265627a7a7231582093675e3e1ec2e1f699c4d7df0915938d848cac7c08413d361ced6950dbb5b62064736f6c63430005100032",
  "source": "pragma solidity >=0.4.21 <0.7.0;\nimport \"./Topic.sol\";\n\ncontract PredictionMarket {\n    // Structs for users and arbitrators. Default scores = 100\n    struct Trader {\n        uint winScore;\n        uint loseScore;\n        bool isValid; \n    }\n\n    struct Arbitrator {\n        int trustworthiness;\n        bool isValid;\n    }\n\n    // Maps of addresses to different entities\n    mapping (address => Trader) public traders;\n    mapping (address => Arbitrator) public arbitrators;\n    mapping (address => Topic) public marketTopics;\n\n\n    // Struct create functions\n    function createTrader() public {\n        address id = msg.sender;\n        // // require that address has not been assigned to a trader\n        require(!traders[id].isValid);\n\n        // // create new trader with the default values\n        traders[id] = Trader(100, 100, true);\n    }\n\n    function createArbitrator() public {\n        address id = msg.sender;\n\n        // require that address has not been assigned to a arbitrator\n        require(!arbitrators[id].isValid);\n\n        // create new arbitrator with the default values\n        arbitrators[id] = Arbitrator(100, true);\n    }\n\n\n    // Topics\n    function createTopic(\n        string memory name, string memory description, bytes32[] memory options, uint256 expiryDate\n    ) public payable\n        {\n        address payable creatorId = msg.sender;\n\n        // Creator must have a trader account\n        require(traders[creatorId].isValid);\n\n        // Must have value above 0 ETH for payment of creation bond\n        require(msg.value > 0 ether);\n\n        uint bondValue = msg.value;\n        Topic newTopic = new Topic(creatorId, name, description, options, bondValue, expiryDate);\n        address payable topicAddress = address(uint160(address(newTopic))); // to cast from address to address payable\n        // topicAddress.transfer(bondValue);\n        marketTopics[topicAddress] = newTopic;\n        emit TopicCreated(topicAddress);\n    }\n\n    // // TODO: To complete createTopic function when Topic contract is completed\n    // function createTopic(string _name, string _description, string[] _options, datetime _resolution, address _topicCreator, address[] _arbitrators) public {\n    //     // create new topic\n    //     return new Topic()\n    // }\n\n    // For testing purposes\n    event TopicCreated(address _topicAddress);\n\n    function getCreatorAddress(address payable topicAddress) public view returns (address payable) {\n        return marketTopics[topicAddress].topicCreator();\n    }\n\n    function getName(address payable topicAddress) public view returns (string memory) {\n        return marketTopics[topicAddress].name();\n    }\n\n    function getDescription(address payable topicAddress) public view returns (string memory) {\n        return marketTopics[topicAddress].description();\n    }\n\n    function getOptions(address payable topicAddress) public view returns (bytes32[] memory) {\n        return marketTopics[topicAddress].getOptions();\n    }\n\n    function getMarketCap(address payable topicAddress) public view returns (uint) {\n        return marketTopics[topicAddress].marketCap();\n    }\n\n    function getCreatorBond(address payable topicAddress) public view returns (uint) {\n        return marketTopics[topicAddress].creatorBond();\n    }\n\n    function getExpiryDate(address payable topicAddress) public view returns (uint256) {\n        return marketTopics[topicAddress].expiryDate();\n    }\n\n}",
  "sourcePath": "/Users/collinlim/Desktop/Desktop.nosync/School/CZ4153/Project/Decentralised_Prediction_Market/contracts/PredictionMarket.sol",
  "compiler": {
    "name": "solc",
    "version": "0.5.16+commit.9c3226ce.Emscripten.clang"
  },
  "schemaVersion": "3.2.5",
  "updatedAt": "2020-10-17T06:24:29.873Z",
  "networkType": "ethereum",
  "devdoc": {
    "methods": {}
  },
  "userdoc": {
    "methods": {}
  }
}