{
  "contractName": "PredictionMarket",
  "abi": [
    {
      "constant": true,
      "inputs": [
        {
          "internalType": "address",
          "name": "",
          "type": "address"
        }
      ],
      "name": "arbitrators",
      "outputs": [
        {
          "internalType": "int256",
          "name": "trustworthiness",
          "type": "int256"
        },
        {
          "internalType": "bool",
          "name": "isValid",
          "type": "bool"
        }
      ],
      "payable": false,
      "stateMutability": "view",
      "type": "function"
    },
    {
      "constant": true,
      "inputs": [
        {
          "internalType": "address",
          "name": "",
          "type": "address"
        }
      ],
      "name": "traders",
      "outputs": [
        {
          "internalType": "int256",
          "name": "winScore",
          "type": "int256"
        },
        {
          "internalType": "int256",
          "name": "loseScore",
          "type": "int256"
        },
        {
          "internalType": "bool",
          "name": "isValid",
          "type": "bool"
        }
      ],
      "payable": false,
      "stateMutability": "view",
      "type": "function"
    },
    {
      "constant": false,
      "inputs": [],
      "name": "createTrader",
      "outputs": [],
      "payable": false,
      "stateMutability": "nonpayable",
      "type": "function"
    },
    {
      "constant": false,
      "inputs": [],
      "name": "createArbitrator",
      "outputs": [],
      "payable": false,
      "stateMutability": "nonpayable",
      "type": "function"
    }
  ],
  "bytecode": "0x608060405234801561001057600080fd5b506103ac806100206000396000f3fe608060405234801561001057600080fd5b506004361061004c5760003560e01c806351d0ea37146100515780637aaa11e5146100b457806392a88fa2146100be578063b227126814610128575b600080fd5b6100936004803603602081101561006757600080fd5b81019080803573ffffffffffffffffffffffffffffffffffffffff169060200190929190505050610132565b60405180838152602001821515151581526020019250505060405180910390f35b6100bc610163565b005b610100600480360360208110156100d457600080fd5b81019080803573ffffffffffffffffffffffffffffffffffffffff16906020019092919050505061024a565b6040518084815260200183815260200182151515158152602001935050505060405180910390f35b610130610281565b005b60016020528060005260406000206000915090508060000154908060010160009054906101000a900460ff16905082565b6000339050600160008273ffffffffffffffffffffffffffffffffffffffff1673ffffffffffffffffffffffffffffffffffffffff16815260200190815260200160002060010160009054906101000a900460ff16156101c257600080fd5b60405180604001604052806064815260200160011515815250600160008373ffffffffffffffffffffffffffffffffffffffff1673ffffffffffffffffffffffffffffffffffffffff1681526020019081526020016000206000820151816000015560208201518160010160006101000a81548160ff02191690831515021790555090505050565b60006020528060005260406000206000915090508060000154908060010154908060020160009054906101000a900460ff16905083565b60003390506000808273ffffffffffffffffffffffffffffffffffffffff1673ffffffffffffffffffffffffffffffffffffffff16815260200190815260200160002060020160009054906101000a900460ff16156102df57600080fd5b60405180606001604052806064815260200160648152602001600115158152506000808373ffffffffffffffffffffffffffffffffffffffff1673ffffffffffffffffffffffffffffffffffffffff168152602001908152602001600020600082015181600001556020820151816001015560408201518160020160006101000a81548160ff0219169083151502179055509050505056fea265627a7a7231582068dcacf51a4acf6b13200d771161b97cb84c40956f1865747bf1c4a26adf059364736f6c63430005100032",
  "source": "pragma solidity >=0.4.21 <0.7.0;\n\ncontract PredictionMarket {\n    // Structs for users and arbitrators. Default scores = 100\n    struct Trader {\n        int winScore;\n        int loseScore;\n        bool isValid; \n    }\n\n    struct Arbitrator {\n        int trustworthiness;\n        bool isValid;\n    }\n\n    // Maps of addresses to different entities\n    mapping (address => Trader) public traders;\n    mapping (address => Arbitrator) public arbitrators;\n    // TODO: Uncomment mapping for marketTopic when Topic contract is completed\n    // mapping (address => Topic) public marketTopics;\n\n\n    // Struct create functions\n    function createTrader() public {\n        address id = msg.sender;\n\n        // require that address has not been assigned to a trader\n        require(!traders[id].isValid);\n\n        // create new trader with the default values\n        traders[id] = Trader(100, 100, true);\n    }\n\n    function createArbitrator() public {\n        address id = msg.sender;\n\n        // require that address has not been assigned to a arbitrator\n        require(!arbitrators[id].isValid);\n\n        // create new arbitrator with the default values\n        arbitrators[id] = Arbitrator(100, true);\n    }\n\n    // TODO: To complete createTopic function when Topic contract is completed\n    // function createTopic(string _name, string _description, string[] _options, datetime _resolution, address _topicCreator, address[] _arbitrators) public {\n    //     // create new topic\n    //     // add to map\n    // }\n}",
  "sourcePath": "/Users/collinlim/Desktop/Desktop.nosync/School/CZ4153/Project/Decentralised_Prediction_Market/contracts/PredictionMarket.sol",
  "compiler": {
    "name": "solc",
    "version": "0.5.16+commit.9c3226ce.Emscripten.clang"
  },
  "schemaVersion": "3.2.5",
  "updatedAt": "2020-10-09T02:18:58.025Z",
  "networkType": "ethereum",
  "devdoc": {
    "methods": {}
  },
  "userdoc": {
    "methods": {}
  }
}