{
  "contractName": "PredictionMarket",
  "abi": [
    {
      "anonymous": false,
      "inputs": [
        {
          "indexed": false,
          "internalType": "address",
          "name": "_topicAddress",
          "type": "address"
        }
      ],
      "name": "TopicCreated",
      "type": "event"
    },
    {
      "constant": true,
      "inputs": [
        {
          "internalType": "address",
          "name": "",
          "type": "address"
        }
      ],
      "name": "arbitrators",
      "outputs": [
        {
          "internalType": "string",
          "name": "displayName",
          "type": "string"
        },
        {
          "internalType": "int256",
          "name": "trustworthiness",
          "type": "int256"
        },
        {
          "internalType": "bool",
          "name": "isValid",
          "type": "bool"
        }
      ],
      "payable": false,
      "stateMutability": "view",
      "type": "function"
    },
    {
      "constant": true,
      "inputs": [
        {
          "internalType": "address",
          "name": "",
          "type": "address"
        }
      ],
      "name": "marketTopics",
      "outputs": [
        {
          "internalType": "contract Topic",
          "name": "",
          "type": "address"
        }
      ],
      "payable": false,
      "stateMutability": "view",
      "type": "function"
    },
    {
      "constant": true,
      "inputs": [
        {
          "internalType": "address",
          "name": "",
          "type": "address"
        }
      ],
      "name": "traders",
      "outputs": [
        {
          "internalType": "uint256",
          "name": "winScore",
          "type": "uint256"
        },
        {
          "internalType": "uint256",
          "name": "loseScore",
          "type": "uint256"
        },
        {
          "internalType": "bool",
          "name": "isValid",
          "type": "bool"
        }
      ],
      "payable": false,
      "stateMutability": "view",
      "type": "function"
    },
    {
      "constant": false,
      "inputs": [],
      "name": "createTrader",
      "outputs": [],
      "payable": false,
      "stateMutability": "nonpayable",
      "type": "function"
    },
    {
      "constant": false,
      "inputs": [
        {
          "internalType": "string",
          "name": "_displayName",
          "type": "string"
        }
      ],
      "name": "createArbitrator",
      "outputs": [],
      "payable": false,
      "stateMutability": "nonpayable",
      "type": "function"
    },
    {
      "constant": true,
      "inputs": [],
      "name": "getAllArbitrators",
      "outputs": [
        {
          "internalType": "address[]",
          "name": "",
          "type": "address[]"
        }
      ],
      "payable": false,
      "stateMutability": "view",
      "type": "function"
    },
    {
      "constant": false,
      "inputs": [
        {
          "internalType": "string",
          "name": "name",
          "type": "string"
        },
        {
          "internalType": "string",
          "name": "description",
          "type": "string"
        },
        {
          "internalType": "bytes32[]",
          "name": "options",
          "type": "bytes32[]"
        },
        {
          "internalType": "uint256",
          "name": "expiryDate",
          "type": "uint256"
        },
        {
          "internalType": "address payable[]",
          "name": "selectedArbitrators",
          "type": "address[]"
        }
      ],
      "name": "createTopic",
      "outputs": [],
      "payable": true,
      "stateMutability": "payable",
      "type": "function"
    },
    {
      "constant": true,
      "inputs": [],
      "name": "getAllTopics",
      "outputs": [
        {
          "internalType": "address[]",
          "name": "",
          "type": "address[]"
        }
      ],
      "payable": false,
      "stateMutability": "view",
      "type": "function"
    },
    {
      "constant": true,
      "inputs": [
        {
          "internalType": "address",
          "name": "topicAddress",
          "type": "address"
        }
      ],
      "name": "getCreatorAddress",
      "outputs": [
        {
          "internalType": "address payable",
          "name": "",
          "type": "address"
        }
      ],
      "payable": false,
      "stateMutability": "view",
      "type": "function"
    },
    {
      "constant": true,
      "inputs": [
        {
          "internalType": "address",
          "name": "topicAddress",
          "type": "address"
        }
      ],
      "name": "getName",
      "outputs": [
        {
          "internalType": "string",
          "name": "",
          "type": "string"
        }
      ],
      "payable": false,
      "stateMutability": "view",
      "type": "function"
    },
    {
      "constant": true,
      "inputs": [
        {
          "internalType": "address",
          "name": "topicAddress",
          "type": "address"
        }
      ],
      "name": "getDescription",
      "outputs": [
        {
          "internalType": "string",
          "name": "",
          "type": "string"
        }
      ],
      "payable": false,
      "stateMutability": "view",
      "type": "function"
    },
    {
      "constant": true,
      "inputs": [
        {
          "internalType": "address",
          "name": "topicAddress",
          "type": "address"
        }
      ],
      "name": "getOptions",
      "outputs": [
        {
          "internalType": "bytes32[]",
          "name": "",
          "type": "bytes32[]"
        }
      ],
      "payable": false,
      "stateMutability": "view",
      "type": "function"
    },
    {
      "constant": true,
      "inputs": [
        {
          "internalType": "address",
          "name": "topicAddress",
          "type": "address"
        }
      ],
      "name": "getMarketCap",
      "outputs": [
        {
          "internalType": "uint256",
          "name": "",
          "type": "uint256"
        }
      ],
      "payable": false,
      "stateMutability": "view",
      "type": "function"
    },
    {
      "constant": true,
      "inputs": [
        {
          "internalType": "address",
          "name": "topicAddress",
          "type": "address"
        }
      ],
      "name": "getCreatorBond",
      "outputs": [
        {
          "internalType": "uint256",
          "name": "",
          "type": "uint256"
        }
      ],
      "payable": false,
      "stateMutability": "view",
      "type": "function"
    },
    {
      "constant": true,
      "inputs": [
        {
          "internalType": "address",
          "name": "topicAddress",
          "type": "address"
        }
      ],
      "name": "getExpiryDate",
      "outputs": [
        {
          "internalType": "uint256",
          "name": "",
          "type": "uint256"
        }
      ],
      "payable": false,
      "stateMutability": "view",
      "type": "function"
    },
    {
      "constant": true,
      "inputs": [
        {
          "internalType": "address",
          "name": "topicAddress",
          "type": "address"
        }
      ],
      "name": "getSelectedArbitrators",
      "outputs": [
        {
          "internalType": "address payable[]",
          "name": "",
          "type": "address[]"
        }
      ],
      "payable": false,
      "stateMutability": "view",
      "type": "function"
    },
    {
      "constant": true,
      "inputs": [],
      "name": "getCurrentBalance",
      "outputs": [
        {
          "internalType": "uint256",
          "name": "",
          "type": "uint256"
        }
      ],
      "payable": false,
      "stateMutability": "view",
      "type": "function"
    }
  ],
  "bytecode": "0x608060405234801561001057600080fd5b50613680806100206000396000f3fe608060405260043610620001165760003560e01c806392a88fa211620000a3578063c082c30c116200006d578063c082c30c14620009e0578063c86b21591462000a75578063c9e519e81462000ade578063d146d31d1462000b4f578063e7c256b61462000bb85762000116565b806392a88fa2146200084c578063a574971014620008c7578063b227126814620008f5578063b4b1d9c7146200090f5762000116565b806351d0ea3711620000e557806351d0ea3714620005585780635b69aeb3146200063b5780635fd4b08a146200070a57806386416f1414620007db5762000116565b806302d54fbf146200011b578063158f3c1e14620001b05780631aa90abc14620004435780633fd8667b14620004ef575b600080fd5b3480156200012857600080fd5b506200016e600480360360208110156200014157600080fd5b81019080803573ffffffffffffffffffffffffffffffffffffffff16906020019092919050505062000c64565b604051808273ffffffffffffffffffffffffffffffffffffffff1673ffffffffffffffffffffffffffffffffffffffff16815260200191505060405180910390f35b62000441600480360360a0811015620001c857600080fd5b8101908080359060200190640100000000811115620001e657600080fd5b820183602082011115620001f957600080fd5b803590602001918460018302840111640100000000831117156200021c57600080fd5b91908080601f016020809104026020016040519081016040528093929190818152602001838380828437600081840152601f19601f820116905080830192505050505050509192919290803590602001906401000000008111156200028057600080fd5b8201836020820111156200029357600080fd5b80359060200191846001830284011164010000000083111715620002b657600080fd5b91908080601f016020809104026020016040519081016040528093929190818152602001838380828437600081840152601f19601f820116905080830192505050505050509192919290803590602001906401000000008111156200031a57600080fd5b8201836020820111156200032d57600080fd5b803590602001918460208302840111640100000000831117156200035057600080fd5b919080806020026020016040519081016040528093929190818152602001838360200280828437600081840152601f19601f8201169050808301925050505050505091929192908035906020019092919080359060200190640100000000811115620003bb57600080fd5b820183602082011115620003ce57600080fd5b80359060200191846020830284011164010000000083111715620003f157600080fd5b919080806020026020016040519081016040528093929190818152602001838360200280828437600081840152601f19601f82011690508083019250505050505050919291929050505062000c97565b005b3480156200045057600080fd5b5062000496600480360360208110156200046957600080fd5b81019080803573ffffffffffffffffffffffffffffffffffffffff16906020019092919050505062001009565b6040518080602001828103825283818151815260200191508051906020019060200280838360005b83811015620004db578082015181840152602081019050620004be565b505050509050019250505060405180910390f35b348015620004fc57600080fd5b5062000542600480360360208110156200051557600080fd5b81019080803573ffffffffffffffffffffffffffffffffffffffff16906020019092919050505062001194565b6040518082815260200191505060405180910390f35b3480156200056557600080fd5b50620005ab600480360360208110156200057e57600080fd5b81019080803573ffffffffffffffffffffffffffffffffffffffff16906020019092919050505062001280565b604051808060200184815260200183151515158152602001828103825285818151815260200191508051906020019080838360005b83811015620005fd578082015181840152602081019050620005e0565b50505050905090810190601f1680156200062b5780820380516001836020036101000a031916815260200191505b5094505050505060405180910390f35b3480156200064857600080fd5b5062000708600480360360208110156200066157600080fd5b81019080803590602001906401000000008111156200067f57600080fd5b8201836020820111156200069257600080fd5b80359060200191846001830284011164010000000083111715620006b557600080fd5b91908080601f016020809104026020016040519081016040528093929190818152602001838380828437600081840152601f19601f82011690508083019250505050505050919291929050505062001353565b005b3480156200071757600080fd5b506200075d600480360360208110156200073057600080fd5b81019080803573ffffffffffffffffffffffffffffffffffffffff169060200190929190505050620014c7565b6040518080602001828103825283818151815260200191508051906020019080838360005b838110156200079f57808201518184015260208101905062000782565b50505050905090810190601f168015620007cd5780820380516001836020036101000a031916815260200191505b509250505060405180910390f35b348015620007e857600080fd5b50620007f362001677565b6040518080602001828103825283818151815260200191508051906020019060200280838360005b83811015620008385780820151818401526020810190506200081b565b505050509050019250505060405180910390f35b3480156200085957600080fd5b506200089f600480360360208110156200087257600080fd5b81019080803573ffffffffffffffffffffffffffffffffffffffff16906020019092919050505062001707565b6040518084815260200183815260200182151515158152602001935050505060405180910390f35b348015620008d457600080fd5b50620008df6200173e565b6040518082815260200191505060405180910390f35b3480156200090257600080fd5b506200090d62001746565b005b3480156200091c57600080fd5b5062000962600480360360208110156200093557600080fd5b81019080803573ffffffffffffffffffffffffffffffffffffffff1690602001909291905050506200183d565b6040518080602001828103825283818151815260200191508051906020019080838360005b83811015620009a457808201518184015260208101905062000987565b50505050905090810190601f168015620009d25780820380516001836020036101000a031916815260200191505b509250505060405180910390f35b348015620009ed57600080fd5b5062000a336004803603602081101562000a0657600080fd5b81019080803573ffffffffffffffffffffffffffffffffffffffff169060200190929190505050620019ed565b604051808273ffffffffffffffffffffffffffffffffffffffff1673ffffffffffffffffffffffffffffffffffffffff16815260200191505060405180910390f35b34801562000a8257600080fd5b5062000ac86004803603602081101562000a9b57600080fd5b81019080803573ffffffffffffffffffffffffffffffffffffffff16906020019092919050505062001ad9565b6040518082815260200191505060405180910390f35b34801562000aeb57600080fd5b5062000af662001bc5565b6040518080602001828103825283818151815260200191508051906020019060200280838360005b8381101562000b3b57808201518184015260208101905062000b1e565b505050509050019250505060405180910390f35b34801562000b5c57600080fd5b5062000ba26004803603602081101562000b7557600080fd5b81019080803573ffffffffffffffffffffffffffffffffffffffff16906020019092919050505062001c55565b6040518082815260200191505060405180910390f35b34801562000bc557600080fd5b5062000c0b6004803603602081101562000bde57600080fd5b81019080803573ffffffffffffffffffffffffffffffffffffffff16906020019092919050505062001d41565b6040518080602001828103825283818151815260200191508051906020019060200280838360005b8381101562000c5057808201518184015260208101905062000c33565b505050509050019250505060405180910390f35b60026020528060005260406000206000915054906101000a900473ffffffffffffffffffffffffffffffffffffffff1681565b60003390506000341162000caa57600080fd5b62000cb6818362001ecc565b62000cc057600080fd5b600034905060008288888885898960405162000cdc9062001fb2565b808873ffffffffffffffffffffffffffffffffffffffff1673ffffffffffffffffffffffffffffffffffffffff1681526020018060200180602001806020018781526020018681526020018060200185810385528b818151815260200191508051906020019080838360005b8381101562000d6557808201518184015260208101905062000d48565b50505050905090810190601f16801562000d935780820380516001836020036101000a031916815260200191505b5085810384528a818151815260200191508051906020019080838360005b8381101562000dce57808201518184015260208101905062000db1565b50505050905090810190601f16801562000dfc5780820380516001836020036101000a031916815260200191505b50858103835289818151815260200191508051906020019060200280838360005b8381101562000e3a57808201518184015260208101905062000e1d565b50505050905001858103825286818151815260200191508051906020019060200280838360005b8381101562000e7e57808201518184015260208101905062000e61565b505050509050019b505050505050505050505050604051809103906000f08015801562000eaf573d6000803e3d6000fd5b509050600081905081600260008373ffffffffffffffffffffffffffffffffffffffff1673ffffffffffffffffffffffffffffffffffffffff16815260200190815260200160002060006101000a81548173ffffffffffffffffffffffffffffffffffffffff021916908373ffffffffffffffffffffffffffffffffffffffff16021790555060038190806001815401808255809150509060018203906000526020600020016000909192909190916101000a81548173ffffffffffffffffffffffffffffffffffffffff021916908373ffffffffffffffffffffffffffffffffffffffff160217905550507f3c1b2955a570d7b24867f47b5827c8c97e344bed881c4519bad1dd91656279da81604051808273ffffffffffffffffffffffffffffffffffffffff1673ffffffffffffffffffffffffffffffffffffffff16815260200191505060405180910390a1505050505050505050565b6060600260008373ffffffffffffffffffffffffffffffffffffffff1673ffffffffffffffffffffffffffffffffffffffff16815260200190815260200160002060009054906101000a900473ffffffffffffffffffffffffffffffffffffffff1673ffffffffffffffffffffffffffffffffffffffff1663894c3b1f6040518163ffffffff1660e01b815260040160006040518083038186803b158015620010b157600080fd5b505afa158015620010c6573d6000803e3d6000fd5b505050506040513d6000823e3d601f19601f820116820180604052506020811015620010f157600080fd5b81019080805160405193929190846401000000008211156200111257600080fd5b838201915060208201858111156200112957600080fd5b82518660208202830111640100000000821117156200114757600080fd5b8083526020830192505050908051906020019060200280838360005b838110156200118057808201518184015260208101905062001163565b505050509050016040525050509050919050565b6000600260008373ffffffffffffffffffffffffffffffffffffffff1673ffffffffffffffffffffffffffffffffffffffff16815260200190815260200160002060009054906101000a900473ffffffffffffffffffffffffffffffffffffffff1673ffffffffffffffffffffffffffffffffffffffff1663459d6e4f6040518163ffffffff1660e01b815260040160206040518083038186803b1580156200123c57600080fd5b505afa15801562001251573d6000803e3d6000fd5b505050506040513d60208110156200126857600080fd5b81019080805190602001909291905050509050919050565b6001602052806000526040600020600091509050806000018054600181600116156101000203166002900480601f016020809104026020016040519081016040528092919081815260200182805460018160011615610100020316600290048015620013305780601f10620013045761010080835404028352916020019162001330565b820191906000526020600020905b8154815290600101906020018083116200131257829003601f168201915b5050505050908060010154908060020160009054906101000a900460ff16905083565b6000339050600160008273ffffffffffffffffffffffffffffffffffffffff1673ffffffffffffffffffffffffffffffffffffffff16815260200190815260200160002060020160009054906101000a900460ff1615620013b357600080fd5b60405180606001604052808381526020016032815260200160011515815250600160008373ffffffffffffffffffffffffffffffffffffffff1673ffffffffffffffffffffffffffffffffffffffff16815260200190815260200160002060008201518160000190805190602001906200142f92919062001fc0565b506020820151816001015560408201518160020160006101000a81548160ff02191690831515021790555090505060048190806001815401808255809150509060018203906000526020600020016000909192909190916101000a81548173ffffffffffffffffffffffffffffffffffffffff021916908373ffffffffffffffffffffffffffffffffffffffff160217905550505050565b6060600260008373ffffffffffffffffffffffffffffffffffffffff1673ffffffffffffffffffffffffffffffffffffffff16815260200190815260200160002060009054906101000a900473ffffffffffffffffffffffffffffffffffffffff1673ffffffffffffffffffffffffffffffffffffffff166306fdde036040518163ffffffff1660e01b815260040160006040518083038186803b1580156200156f57600080fd5b505afa15801562001584573d6000803e3d6000fd5b505050506040513d6000823e3d601f19601f820116820180604052506020811015620015af57600080fd5b8101908080516040519392919084640100000000821115620015d057600080fd5b83820191506020820185811115620015e757600080fd5b82518660018202830111640100000000821117156200160557600080fd5b8083526020830192505050908051906020019080838360005b838110156200163b5780820151818401526020810190506200161e565b50505050905090810190601f168015620016695780820380516001836020036101000a031916815260200191505b506040525050509050919050565b60606003805480602002602001604051908101604052809291908181526020018280548015620016fd57602002820191906000526020600020905b8160009054906101000a900473ffffffffffffffffffffffffffffffffffffffff1673ffffffffffffffffffffffffffffffffffffffff1681526020019060010190808311620016b2575b5050505050905090565b60006020528060005260406000206000915090508060000154908060010154908060020160009054906101000a900460ff16905083565b600047905090565b60003390506000808273ffffffffffffffffffffffffffffffffffffffff1673ffffffffffffffffffffffffffffffffffffffff16815260200190815260200160002060020160009054906101000a900460ff1615620017a557600080fd5b60405180606001604052806064815260200160648152602001600115158152506000808373ffffffffffffffffffffffffffffffffffffffff1673ffffffffffffffffffffffffffffffffffffffff168152602001908152602001600020600082015181600001556020820151816001015560408201518160020160006101000a81548160ff02191690831515021790555090505050565b6060600260008373ffffffffffffffffffffffffffffffffffffffff1673ffffffffffffffffffffffffffffffffffffffff16815260200190815260200160002060009054906101000a900473ffffffffffffffffffffffffffffffffffffffff1673ffffffffffffffffffffffffffffffffffffffff16637284e4166040518163ffffffff1660e01b815260040160006040518083038186803b158015620018e557600080fd5b505afa158015620018fa573d6000803e3d6000fd5b505050506040513d6000823e3d601f19601f8201168201806040525060208110156200192557600080fd5b81019080805160405193929190846401000000008211156200194657600080fd5b838201915060208201858111156200195d57600080fd5b82518660018202830111640100000000821117156200197b57600080fd5b8083526020830192505050908051906020019080838360005b83811015620019b157808201518184015260208101905062001994565b50505050905090810190601f168015620019df5780820380516001836020036101000a031916815260200191505b506040525050509050919050565b6000600260008373ffffffffffffffffffffffffffffffffffffffff1673ffffffffffffffffffffffffffffffffffffffff16815260200190815260200160002060009054906101000a900473ffffffffffffffffffffffffffffffffffffffff1673ffffffffffffffffffffffffffffffffffffffff1663fbcc1e716040518163ffffffff1660e01b815260040160206040518083038186803b15801562001a9557600080fd5b505afa15801562001aaa573d6000803e3d6000fd5b505050506040513d602081101562001ac157600080fd5b81019080805190602001909291905050509050919050565b6000600260008373ffffffffffffffffffffffffffffffffffffffff1673ffffffffffffffffffffffffffffffffffffffff16815260200190815260200160002060009054906101000a900473ffffffffffffffffffffffffffffffffffffffff1673ffffffffffffffffffffffffffffffffffffffff1663516dde436040518163ffffffff1660e01b815260040160206040518083038186803b15801562001b8157600080fd5b505afa15801562001b96573d6000803e3d6000fd5b505050506040513d602081101562001bad57600080fd5b81019080805190602001909291905050509050919050565b6060600480548060200260200160405190810160405280929190818152602001828054801562001c4b57602002820191906000526020600020905b8160009054906101000a900473ffffffffffffffffffffffffffffffffffffffff1673ffffffffffffffffffffffffffffffffffffffff168152602001906001019080831162001c00575b5050505050905090565b6000600260008373ffffffffffffffffffffffffffffffffffffffff1673ffffffffffffffffffffffffffffffffffffffff16815260200190815260200160002060009054906101000a900473ffffffffffffffffffffffffffffffffffffffff1673ffffffffffffffffffffffffffffffffffffffff16632c135b936040518163ffffffff1660e01b815260040160206040518083038186803b15801562001cfd57600080fd5b505afa15801562001d12573d6000803e3d6000fd5b505050506040513d602081101562001d2957600080fd5b81019080805190602001909291905050509050919050565b6060600260008373ffffffffffffffffffffffffffffffffffffffff1673ffffffffffffffffffffffffffffffffffffffff16815260200190815260200160002060009054906101000a900473ffffffffffffffffffffffffffffffffffffffff1673ffffffffffffffffffffffffffffffffffffffff1663cc2ee1966040518163ffffffff1660e01b815260040160006040518083038186803b15801562001de957600080fd5b505afa15801562001dfe573d6000803e3d6000fd5b505050506040513d6000823e3d601f19601f82011682018060405250602081101562001e2957600080fd5b810190808051604051939291908464010000000082111562001e4a57600080fd5b8382019150602082018581111562001e6157600080fd5b825186602082028301116401000000008211171562001e7f57600080fd5b8083526020830192505050908051906020019060200280838360005b8381101562001eb857808201518184015260208101905062001e9b565b505050509050016040525050509050919050565b6000808251905060008090505b8181101562001fa557600084828151811062001ef157fe5b60200260200101519050600160008273ffffffffffffffffffffffffffffffffffffffff1673ffffffffffffffffffffffffffffffffffffffff16815260200190815260200160002060020160009054906101000a900460ff16158062001f8357508073ffffffffffffffffffffffffffffffffffffffff168673ffffffffffffffffffffffffffffffffffffffff16145b1562001f96576000935050505062001fac565b50808060010191505062001ed9565b5060019150505b92915050565b6115dc806200207083390190565b828054600181600116156101000203166002900490600052602060002090601f016020900481019282601f106200200357805160ff191683800117855562002034565b8280016001018555821562002034579182015b828111156200203357825182559160200191906001019062002016565b5b50905062002043919062002047565b5090565b6200206c91905b80821115620020685760008160009055506001016200204e565b5090565b9056fe6080604052604051620015dc380380620015dc833981810160405260e08110156200002957600080fd5b8101908080519060200190929190805160405193929190846401000000008211156200005457600080fd5b838201915060208201858111156200006b57600080fd5b82518660018202830111640100000000821117156200008957600080fd5b8083526020830192505050908051906020019080838360005b83811015620000bf578082015181840152602081019050620000a2565b50505050905090810190601f168015620000ed5780820380516001836020036101000a031916815260200191505b50604052602001805160405193929190846401000000008211156200011157600080fd5b838201915060208201858111156200012857600080fd5b82518660018202830111640100000000821117156200014657600080fd5b8083526020830192505050908051906020019080838360005b838110156200017c5780820151818401526020810190506200015f565b50505050905090810190601f168015620001aa5780820380516001836020036101000a031916815260200191505b5060405260200180516040519392919084640100000000821115620001ce57600080fd5b83820191506020820185811115620001e557600080fd5b82518660208202830111640100000000821117156200020357600080fd5b8083526020830192505050908051906020019060200280838360005b838110156200023c5780820151818401526020810190506200021f565b505050509050016040526020018051906020019092919080519060200190929190805160405193929190846401000000008211156200027a57600080fd5b838201915060208201858111156200029157600080fd5b8251866020820283011164010000000082111715620002af57600080fd5b8083526020830192505050908051906020019060200280838360005b83811015620002e8578082015181840152602081019050620002cb565b50505050905001604052505050866000806101000a81548173ffffffffffffffffffffffffffffffffffffffff021916908373ffffffffffffffffffffffffffffffffffffffff16021790555085600190805190602001906200034d9291906200046e565b508460029080519060200190620003669291906200046e565b5083600390805190602001906200037f929190620004f5565b50600060048190555082600581905550816006819055508060079080519060200190620003ae92919062000547565b5060008090505b84518110156200046057604051806040016040528060008152602001600073ffffffffffffffffffffffffffffffffffffffff1681525060088260048110620003fa57fe5b600202016000820151816000015560208201518160010160006101000a81548173ffffffffffffffffffffffffffffffffffffffff021916908373ffffffffffffffffffffffffffffffffffffffff1602179055509050508080600101915050620003b5565b50505050505050506200066c565b828054600181600116156101000203166002900490600052602060002090601f016020900481019282601f10620004b157805160ff1916838001178555620004e2565b82800160010185558215620004e2579182015b82811115620004e1578251825591602001919060010190620004c4565b5b509050620004f19190620005d6565b5090565b82805482825590600052602060002090810192821562000534579160200282015b828111156200053357825182559160200191906001019062000516565b5b509050620005439190620005fe565b5090565b828054828255906000526020600020908101928215620005c3579160200282015b82811115620005c25782518260006101000a81548173ffffffffffffffffffffffffffffffffffffffff021916908373ffffffffffffffffffffffffffffffffffffffff1602179055509160200191906001019062000568565b5b509050620005d2919062000626565b5090565b620005fb91905b80821115620005f7576000816000905550600101620005dd565b5090565b90565b6200062391905b808211156200061f57600081600090555060010162000605565b5090565b90565b6200066991905b808211156200066557600081816101000a81549073ffffffffffffffffffffffffffffffffffffffff0219169055506001016200062d565b5090565b90565b610f60806200067c6000396000f3fe6080604052600436106100e85760003560e01c8063722713f71161008a578063a6430cc011610059578063a6430cc01461049c578063b745467014610517578063cc2ee19614610566578063fbcc1e71146105d2576100e8565b8063722713f7146103095780637284e41614610334578063894c3b1f146103c457806395e56a8414610430576100e8565b8063409e2205116100c6578063409e220514610214578063459d6e4f14610263578063509bd3371461028e578063516dde43146102de576100e8565b806306fdde03146100ed578063288fa8021461017d5780632c135b93146101e9575b600080fd5b3480156100f957600080fd5b50610102610629565b6040518080602001828103825283818151815260200191508051906020019080838360005b83811015610142578082015181840152602081019050610127565b50505050905090810190601f16801561016f5780820380516001836020036101000a031916815260200191505b509250505060405180910390f35b34801561018957600080fd5b506101926106c7565b6040518080602001828103825283818151815260200191508051906020019060200280838360005b838110156101d55780820151818401526020810190506101ba565b505050509050019250505060405180910390f35b3480156101f557600080fd5b506101fe610757565b6040518082815260200191505060405180910390f35b34801561022057600080fd5b5061024d6004803603602081101561023757600080fd5b810190808035906020019092919050505061075d565b6040518082815260200191505060405180910390f35b34801561026f57600080fd5b5061027861077e565b6040518082815260200191505060405180910390f35b6102c4600480360360408110156102a457600080fd5b810190808035906020019092919080359060200190929190505050610784565b604051808215151515815260200191505060405180910390f35b3480156102ea57600080fd5b506102f3610b43565b6040518082815260200191505060405180910390f35b34801561031557600080fd5b5061031e610b49565b6040518082815260200191505060405180910390f35b34801561034057600080fd5b50610349610b51565b6040518080602001828103825283818151815260200191508051906020019080838360005b8381101561038957808201518184015260208101905061036e565b50505050905090810190601f1680156103b65780820380516001836020036101000a031916815260200191505b509250505060405180910390f35b3480156103d057600080fd5b506103d9610bef565b6040518080602001828103825283818151815260200191508051906020019060200280838360005b8381101561041c578082015181840152602081019050610401565b505050509050019250505060405180910390f35b34801561043c57600080fd5b50610445610c7d565b6040518080602001828103825283818151815260200191508051906020019060200280838360005b8381101561048857808201518184015260208101905061046d565b505050509050019250505060405180910390f35b3480156104a857600080fd5b506104d5600480360360208110156104bf57600080fd5b8101908080359060200190929190505050610d07565b604051808273ffffffffffffffffffffffffffffffffffffffff1673ffffffffffffffffffffffffffffffffffffffff16815260200191505060405180910390f35b34801561052357600080fd5b506105506004803603602081101561053a57600080fd5b8101908080359060200190929190505050610d43565b6040518082815260200191505060405180910390f35b34801561057257600080fd5b5061057b610d61565b6040518080602001828103825283818151815260200191508051906020019060200280838360005b838110156105be5780820151818401526020810190506105a3565b505050509050019250505060405180910390f35b3480156105de57600080fd5b506105e7610db9565b604051808273ffffffffffffffffffffffffffffffffffffffff1673ffffffffffffffffffffffffffffffffffffffff16815260200191505060405180910390f35b60018054600181600116156101000203166002900480601f0160208091040260200160405190810160405280929190818152602001828054600181600116156101000203166002900480156106bf5780601f10610694576101008083540402835291602001916106bf565b820191906000526020600020905b8154815290600101906020018083116106a257829003601f168201915b505050505081565b60606000600490506060816040519080825280602002602001820160405280156107005781602001602082028038833980820191505090505b50905060008090505b8281101561074e576008816004811061071e57fe5b600202016000015460001b82828151811061073557fe5b6020026020010181815250508080600101915050610709565b50809250505090565b60045481565b6003818154811061076a57fe5b906000526020600020016000915090505481565b60055481565b6000826008836004811061079457fe5b6002020160000154106107a657600080fd5b600882600481106107b357fe5b6002020160010160009054906101000a900473ffffffffffffffffffffffffffffffffffffffff1673ffffffffffffffffffffffffffffffffffffffff166108fc6008846004811061080157fe5b60020201600001549081150290604051600060405180830381858888f19350505050158015610834573d6000803e3d6000fd5b506000670de0b6b3a7640000905061084a610dde565b60008090505b60048110156108ff578481146108f2576008816004811061086d57fe5b6002020160000154830392506008816004811061088657fe5b6002020160010160009054906101000a900473ffffffffffffffffffffffffffffffffffffffff168282600481106108ba57fe5b602002019073ffffffffffffffffffffffffffffffffffffffff16908173ffffffffffffffffffffffffffffffffffffffff16815250505b8080600101915050610850565b50848211610a9e573381856004811061091457fe5b602002019073ffffffffffffffffffffffffffffffffffffffff16908173ffffffffffffffffffffffffffffffffffffffff1681525050610953610e00565b6040518060200160405280838152509050601481908060018154018082558091505090600182039060005260206000209060040201600090919290919091506000820151816000019060046109a9929190610e19565b5050505060008090505b6004811015610a1157858114156109dc5783601082600481106109d257fe5b0181905550610a04565b600881600481106109e957fe5b6002020160000154601082600481106109fe57fe5b01819055505b80806001019150506109b3565b503373ffffffffffffffffffffffffffffffffffffffff166108fc8488039081150290604051600060405180830381858888f19350505050158015610a5a573d6000803e3d6000fd5b5060008090505b6004811015610a9157600060088260048110610a7957fe5b60020201600001819055508080600101915050610a61565b5060019350505050610b3d565b610aa6610e96565b60405180604001604052808781526020013373ffffffffffffffffffffffffffffffffffffffff1681525090508060088660048110610ae157fe5b600202016000820151816000015560208201518160010160006101000a81548173ffffffffffffffffffffffffffffffffffffffff021916908373ffffffffffffffffffffffffffffffffffffffff1602179055509050505050505b92915050565b60065481565b600047905090565b60028054600181600116156101000203166002900480601f016020809104026020016040519081016040528092919081815260200182805460018160011615610100020316600290048015610be75780601f10610bbc57610100808354040283529160200191610be7565b820191906000526020600020905b815481529060010190602001808311610bca57829003601f168201915b505050505081565b60606007805480602002602001604051908101604052809291908181526020018280548015610c7357602002820191906000526020600020905b8160009054906101000a900473ffffffffffffffffffffffffffffffffffffffff1673ffffffffffffffffffffffffffffffffffffffff1681526020019060010190808311610c29575b5050505050905090565b6060600060049050606081604051908082528060200260200182016040528015610cb65781602001602082028038833980820191505090505b50905060008090505b82811015610cfe5760108160048110610cd457fe5b015460001b828281518110610ce557fe5b6020026020010181815250508080600101915050610cbf565b50809250505090565b60078181548110610d1457fe5b906000526020600020016000915054906101000a900473ffffffffffffffffffffffffffffffffffffffff1681565b600060088260048110610d5257fe5b60020201600001549050919050565b60606003805480602002602001604051908101604052809291908181526020018280548015610daf57602002820191906000526020600020905b815481526020019060010190808311610d9b575b5050505050905090565b6000809054906101000a900473ffffffffffffffffffffffffffffffffffffffff1681565b6040518060800160405280600490602082028038833980820191505090505090565b6040518060200160405280610e13610ec6565b81525090565b8260048101928215610e85579160200282015b82811115610e845782518260006101000a81548173ffffffffffffffffffffffffffffffffffffffff021916908373ffffffffffffffffffffffffffffffffffffffff16021790555091602001919060010190610e2c565b5b509050610e929190610ee8565b5090565b604051806040016040528060008152602001600073ffffffffffffffffffffffffffffffffffffffff1681525090565b6040518060800160405280600490602082028038833980820191505090505090565b610f2891905b80821115610f2457600081816101000a81549073ffffffffffffffffffffffffffffffffffffffff021916905550600101610eee565b5090565b9056fea265627a7a723158207bdf8cd0200a014fa6e20b884e39d44ef7d3ab6d1c6a3e6dd8ba7828cbf1b4a864736f6c63430005100032a265627a7a72315820ca99d483a61efc702d26c622d01e94d9e14cc4c60d8960da1d6da9f56765d92f64736f6c63430005100032",
  "source": "// SPDX-License-Identifier: MIT\npragma solidity >=0.4.21 <=0.7.0;\nimport \"./Topic.sol\";\n\ncontract PredictionMarket {\n    // Structs for users and arbitrators. Default scores = 100\n    struct Trader {\n        uint winScore;\n        uint loseScore;\n        bool isValid; \n    }\n\n    struct Arbitrator {\n        string displayName;\n        int trustworthiness;\n        bool isValid;\n    }\n\n    // Maps of addresses to different entities\n    mapping (address => Trader) public traders;\n    mapping (address => Arbitrator) public arbitrators;\n    mapping (address => Topic) public marketTopics;\n\n    // Array of addresses of topics to return to front end\n    address[] topicAddresses;\n\n    // Array of addresses of arbitrators to return to front end\n    address[] arbitratorAddresses;\n\n    // Struct create functions\n    function createTrader() public {\n        address id = msg.sender;\n        // // require that address has not been assigned to a trader\n        require(!traders[id].isValid);\n\n        // // create new trader with the default values\n        traders[id] = Trader(100, 100, true);\n    }\n\n    function createArbitrator(string memory _displayName) public {\n        address id = msg.sender;\n\n        // require that address has not been assigned to a arbitrator\n        require(!arbitrators[id].isValid);\n\n        // create new arbitrator with the default values\n        arbitrators[id] = Arbitrator(_displayName, 50, true);\n\n        arbitratorAddresses.push(id);\n    }\n\n    function getAllArbitrators() public view returns (address[] memory) {\n        return arbitratorAddresses;\n    }\n\n\n    // Topics\n    function createTopic(\n        string memory name, string memory description, bytes32[] memory options, uint256 expiryDate, address payable[] memory selectedArbitrators\n    ) public payable\n        {\n        address payable creatorId = msg.sender;\n\n        // Creator must have a trader account\n        // Commented out for testing purposes, uncomment when createTrader is implemented\n        // require(traders[creatorId].isValid);\n\n        // Must have value above 0 ETH for payment of creation bond\n        require(msg.value > 0 ether);\n\n        // selected arbitrators must have arbitrator account and creator must not select himself as an arbitrator\n        require(areValidArbitrators(creatorId, selectedArbitrators));\n\n        uint bondValue = msg.value;\n        Topic newTopic = new Topic(creatorId, name, description, options, bondValue, expiryDate, selectedArbitrators);\n        address payable topicAddress = address(uint160(address(newTopic))); // to cast from address to address payable\n        marketTopics[topicAddress] = newTopic;\n        topicAddresses.push(topicAddress);\n        emit TopicCreated(topicAddress);\n    }\n\n    function getAllTopics() public view returns (address[] memory) {\n        return topicAddresses;\n    }\n\n    function areValidArbitrators(address payable creatorId, address payable[] memory selectedArbitrators) internal view returns (bool) {\n        uint numSelectedArbitrators = selectedArbitrators.length;\n        for (uint i = 0; i < numSelectedArbitrators; i++) {\n            address arbitrator = selectedArbitrators[i];\n            if (!arbitrators[arbitrator].isValid || creatorId == arbitrator) {\n                return false;\n            }\n        }\n        return true;\n    }\n\n    // // TODO: To complete createTopic function when Topic contract is completed\n    // function createTopic(string _name, string _description, string[] _options, datetime _resolution, address _topicCreator, address[] _arbitrators) public {\n    //     // create new topic\n    //     return new Topic()\n    // }\n\n    // ===============================================================\n    // For testing purposes\n    // ===============================================================\n    event TopicCreated(address _topicAddress);\n\n    function getCreatorAddress(address topicAddress) public view returns (address payable) {\n        return marketTopics[topicAddress].topicCreator();\n    }\n\n    function getName(address topicAddress) public view returns (string memory) {\n        return marketTopics[topicAddress].name();\n    }\n\n    function getDescription(address topicAddress) public view returns (string memory) {\n        return marketTopics[topicAddress].description();\n    }\n\n    function getOptions(address topicAddress) public view returns (bytes32[] memory) {\n        return marketTopics[topicAddress].getOptions();\n    }\n\n    function getMarketCap(address topicAddress) public view returns (uint) {\n        return marketTopics[topicAddress].marketCap();\n    }\n\n    function getCreatorBond(address topicAddress) public view returns (uint) {\n        return marketTopics[topicAddress].creatorBond();\n    }\n\n    function getExpiryDate(address topicAddress) public view returns (uint256) {\n        return marketTopics[topicAddress].expiryDate();\n    }\n\n    function getSelectedArbitrators(address topicAddress) public view returns (address payable[] memory) {\n        return marketTopics[topicAddress].getArbitrators();\n    }\n\n    function getCurrentBalance() public view returns (uint) {\n        return address(this).balance;\n    }\n\n}",
  "sourcePath": "/Users/collinlim/Desktop/Desktop.nosync/School/CZ4153/Project/Decentralised_Prediction_Market/contracts/PredictionMarket.sol",
  "compiler": {
    "name": "solc",
    "version": "0.5.16+commit.9c3226ce.Emscripten.clang"
  },
  "schemaVersion": "3.2.5",
  "updatedAt": "2020-10-19T08:32:37.120Z",
  "networkType": "ethereum",
  "devdoc": {
    "methods": {}
  },
  "userdoc": {
    "methods": {}
  }
}