{
  "contractName": "PredictionMarket",
  "abi": [
    {
      "anonymous": false,
      "inputs": [
        {
          "indexed": false,
          "internalType": "address",
          "name": "_topicAddress",
          "type": "address"
        }
      ],
      "name": "TopicCreated",
      "type": "event"
    },
    {
      "constant": true,
      "inputs": [
        {
          "internalType": "address",
          "name": "",
          "type": "address"
        }
      ],
      "name": "arbitrators",
      "outputs": [
        {
          "internalType": "bytes32",
          "name": "displayName",
          "type": "bytes32"
        },
        {
          "internalType": "uint8",
          "name": "trustworthiness",
          "type": "uint8"
        },
        {
          "internalType": "bool",
          "name": "isValid",
          "type": "bool"
        }
      ],
      "payable": false,
      "stateMutability": "view",
      "type": "function"
    },
    {
      "constant": true,
      "inputs": [
        {
          "internalType": "address",
          "name": "",
          "type": "address"
        }
      ],
      "name": "marketTopics",
      "outputs": [
        {
          "internalType": "contract Topic",
          "name": "",
          "type": "address"
        }
      ],
      "payable": false,
      "stateMutability": "view",
      "type": "function"
    },
    {
      "constant": true,
      "inputs": [
        {
          "internalType": "address",
          "name": "",
          "type": "address"
        }
      ],
      "name": "traders",
      "outputs": [
        {
          "internalType": "uint256",
          "name": "winScore",
          "type": "uint256"
        },
        {
          "internalType": "uint256",
          "name": "loseScore",
          "type": "uint256"
        },
        {
          "internalType": "bool",
          "name": "isValid",
          "type": "bool"
        }
      ],
      "payable": false,
      "stateMutability": "view",
      "type": "function"
    },
    {
      "constant": false,
      "inputs": [],
      "name": "createTrader",
      "outputs": [],
      "payable": false,
      "stateMutability": "nonpayable",
      "type": "function"
    },
    {
      "constant": false,
      "inputs": [
        {
          "internalType": "bytes32",
          "name": "_displayName",
          "type": "bytes32"
        }
      ],
      "name": "createArbitrator",
      "outputs": [],
      "payable": false,
      "stateMutability": "nonpayable",
      "type": "function"
    },
    {
      "constant": true,
      "inputs": [],
      "name": "getAllArbitrators",
      "outputs": [
        {
          "internalType": "address payable[]",
          "name": "",
          "type": "address[]"
        }
      ],
      "payable": false,
      "stateMutability": "view",
      "type": "function"
    },
    {
      "constant": true,
      "inputs": [],
      "name": "getAllArbitratorNames",
      "outputs": [
        {
          "internalType": "bytes32[]",
          "name": "",
          "type": "bytes32[]"
        }
      ],
      "payable": false,
      "stateMutability": "view",
      "type": "function"
    },
    {
      "constant": true,
      "inputs": [
        {
          "internalType": "address",
          "name": "id",
          "type": "address"
        }
      ],
      "name": "getVotersReputation",
      "outputs": [
        {
          "internalType": "uint256[2]",
          "name": "",
          "type": "uint256[2]"
        }
      ],
      "payable": false,
      "stateMutability": "view",
      "type": "function"
    },
    {
      "constant": true,
      "inputs": [],
      "name": "checkIdentity",
      "outputs": [
        {
          "internalType": "bytes32",
          "name": "",
          "type": "bytes32"
        }
      ],
      "payable": false,
      "stateMutability": "view",
      "type": "function"
    },
    {
      "constant": false,
      "inputs": [
        {
          "internalType": "string",
          "name": "name",
          "type": "string"
        },
        {
          "internalType": "string",
          "name": "description",
          "type": "string"
        },
        {
          "internalType": "bytes32[]",
          "name": "options",
          "type": "bytes32[]"
        },
        {
          "internalType": "uint256",
          "name": "expiryDate",
          "type": "uint256"
        },
        {
          "internalType": "address payable[]",
          "name": "selectedArbitrators",
          "type": "address[]"
        }
      ],
      "name": "createTopic",
      "outputs": [],
      "payable": true,
      "stateMutability": "payable",
      "type": "function"
    },
    {
      "constant": true,
      "inputs": [],
      "name": "getAllTopics",
      "outputs": [
        {
          "internalType": "address[]",
          "name": "",
          "type": "address[]"
        }
      ],
      "payable": false,
      "stateMutability": "view",
      "type": "function"
    },
    {
      "constant": true,
      "inputs": [
        {
          "internalType": "address",
          "name": "topicAddress",
          "type": "address"
        }
      ],
      "name": "getCreatorAddress",
      "outputs": [
        {
          "internalType": "address payable",
          "name": "",
          "type": "address"
        }
      ],
      "payable": false,
      "stateMutability": "view",
      "type": "function"
    },
    {
      "constant": true,
      "inputs": [
        {
          "internalType": "address",
          "name": "topicAddress",
          "type": "address"
        }
      ],
      "name": "getName",
      "outputs": [
        {
          "internalType": "string",
          "name": "",
          "type": "string"
        }
      ],
      "payable": false,
      "stateMutability": "view",
      "type": "function"
    },
    {
      "constant": true,
      "inputs": [
        {
          "internalType": "address",
          "name": "topicAddress",
          "type": "address"
        }
      ],
      "name": "getDescription",
      "outputs": [
        {
          "internalType": "string",
          "name": "",
          "type": "string"
        }
      ],
      "payable": false,
      "stateMutability": "view",
      "type": "function"
    },
    {
      "constant": true,
      "inputs": [
        {
          "internalType": "address",
          "name": "topicAddress",
          "type": "address"
        }
      ],
      "name": "getOptions",
      "outputs": [
        {
          "internalType": "bytes32[]",
          "name": "",
          "type": "bytes32[]"
        }
      ],
      "payable": false,
      "stateMutability": "view",
      "type": "function"
    },
    {
      "constant": true,
      "inputs": [
        {
          "internalType": "address",
          "name": "topicAddress",
          "type": "address"
        }
      ],
      "name": "getMarketCap",
      "outputs": [
        {
          "internalType": "uint256",
          "name": "",
          "type": "uint256"
        }
      ],
      "payable": false,
      "stateMutability": "view",
      "type": "function"
    },
    {
      "constant": true,
      "inputs": [
        {
          "internalType": "address",
          "name": "topicAddress",
          "type": "address"
        }
      ],
      "name": "getCreatorBond",
      "outputs": [
        {
          "internalType": "uint256",
          "name": "",
          "type": "uint256"
        }
      ],
      "payable": false,
      "stateMutability": "view",
      "type": "function"
    },
    {
      "constant": true,
      "inputs": [
        {
          "internalType": "address",
          "name": "topicAddress",
          "type": "address"
        }
      ],
      "name": "getExpiryDate",
      "outputs": [
        {
          "internalType": "uint256",
          "name": "",
          "type": "uint256"
        }
      ],
      "payable": false,
      "stateMutability": "view",
      "type": "function"
    },
    {
      "constant": true,
      "inputs": [
        {
          "internalType": "address",
          "name": "topicAddress",
          "type": "address"
        }
      ],
      "name": "getSelectedArbitrators",
      "outputs": [
        {
          "internalType": "address payable[]",
          "name": "",
          "type": "address[]"
        }
      ],
      "payable": false,
      "stateMutability": "view",
      "type": "function"
    },
    {
      "constant": true,
      "inputs": [],
      "name": "getCurrentBalance",
      "outputs": [
        {
          "internalType": "uint256",
          "name": "",
          "type": "uint256"
        }
      ],
      "payable": false,
      "stateMutability": "view",
      "type": "function"
    }
  ],
  "bytecode": "0x608060405234801561001057600080fd5b506147ac806100206000396000f3fe6080604052600436106200013a5760003560e01c806386416f1411620000af578063c082c30c116200006d578063c082c30c1462000a44578063c86b21591462000ad9578063c9e519e81462000b42578063d146d31d1462000bb3578063e7c256b61462000c1c576200013a565b806386416f14146200083f57806392a88fa214620008b0578063a5749710146200092b578063b22712681462000959578063b4b1d9c71462000973576200013a565b8063420d3ae811620000fd578063420d3ae8146200060f5780634de1c9e4146200064e57806351d0ea37146200067c5780635fd4b08a14620006fd5780636f762d8a14620007ce576200013a565b806302d54fbf146200013f578063158f3c1e14620001d45780631aa90abc14620004675780633d59f85b14620005135780633fd8667b14620005a6575b600080fd5b3480156200014c57600080fd5b5062000192600480360360208110156200016557600080fd5b81019080803573ffffffffffffffffffffffffffffffffffffffff16906020019092919050505062000cc8565b604051808273ffffffffffffffffffffffffffffffffffffffff1673ffffffffffffffffffffffffffffffffffffffff16815260200191505060405180910390f35b62000465600480360360a0811015620001ec57600080fd5b81019080803590602001906401000000008111156200020a57600080fd5b8201836020820111156200021d57600080fd5b803590602001918460018302840111640100000000831117156200024057600080fd5b91908080601f016020809104026020016040519081016040528093929190818152602001838380828437600081840152601f19601f82011690508083019250505050505050919291929080359060200190640100000000811115620002a457600080fd5b820183602082011115620002b757600080fd5b80359060200191846001830284011164010000000083111715620002da57600080fd5b91908080601f016020809104026020016040519081016040528093929190818152602001838380828437600081840152601f19601f820116905080830192505050505050509192919290803590602001906401000000008111156200033e57600080fd5b8201836020820111156200035157600080fd5b803590602001918460208302840111640100000000831117156200037457600080fd5b919080806020026020016040519081016040528093929190818152602001838360200280828437600081840152601f19601f8201169050808301925050505050505091929192908035906020019092919080359060200190640100000000811115620003df57600080fd5b820183602082011115620003f257600080fd5b803590602001918460208302840111640100000000831117156200041557600080fd5b919080806020026020016040519081016040528093929190818152602001838360200280828437600081840152601f19601f82011690508083019250505050505050919291929050505062000cfb565b005b3480156200047457600080fd5b50620004ba600480360360208110156200048d57600080fd5b81019080803573ffffffffffffffffffffffffffffffffffffffff169060200190929190505050620010fa565b6040518080602001828103825283818151815260200191508051906020019060200280838360005b83811015620004ff578082015181840152602081019050620004e2565b505050509050019250505060405180910390f35b3480156200052057600080fd5b5062000566600480360360208110156200053957600080fd5b81019080803573ffffffffffffffffffffffffffffffffffffffff16906020019092919050505062001285565b6040518082600260200280838360005b838110156200059357808201518184015260208101905062000576565b5050505090500191505060405180910390f35b348015620005b357600080fd5b50620005f960048036036020811015620005cc57600080fd5b81019080803573ffffffffffffffffffffffffffffffffffffffff1690602001909291905050506200132d565b6040518082815260200191505060405180910390f35b3480156200061c57600080fd5b506200064c600480360360208110156200063557600080fd5b810190808035906020019092919050505062001419565b005b3480156200065b57600080fd5b506200066662001592565b6040518082815260200191505060405180910390f35b3480156200068957600080fd5b50620006cf60048036036020811015620006a257600080fd5b81019080803573ffffffffffffffffffffffffffffffffffffffff169060200190929190505050620016b8565b604051808481526020018360ff1660ff16815260200182151515158152602001935050505060405180910390f35b3480156200070a57600080fd5b5062000750600480360360208110156200072357600080fd5b81019080803573ffffffffffffffffffffffffffffffffffffffff169060200190929190505050620016fc565b6040518080602001828103825283818151815260200191508051906020019080838360005b838110156200079257808201518184015260208101905062000775565b50505050905090810190601f168015620007c05780820380516001836020036101000a031916815260200191505b509250505060405180910390f35b348015620007db57600080fd5b50620007e6620018ac565b6040518080602001828103825283818151815260200191508051906020019060200280838360005b838110156200082b5780820151818401526020810190506200080e565b505050509050019250505060405180910390f35b3480156200084c57600080fd5b506200085762001a08565b6040518080602001828103825283818151815260200191508051906020019060200280838360005b838110156200089c5780820151818401526020810190506200087f565b505050509050019250505060405180910390f35b348015620008bd57600080fd5b506200090360048036036020811015620008d657600080fd5b81019080803573ffffffffffffffffffffffffffffffffffffffff16906020019092919050505062001a98565b6040518084815260200183815260200182151515158152602001935050505060405180910390f35b3480156200093857600080fd5b506200094362001acf565b6040518082815260200191505060405180910390f35b3480156200096657600080fd5b506200097162001ad7565b005b3480156200098057600080fd5b50620009c6600480360360208110156200099957600080fd5b81019080803573ffffffffffffffffffffffffffffffffffffffff16906020019092919050505062001bce565b6040518080602001828103825283818151815260200191508051906020019080838360005b8381101562000a08578082015181840152602081019050620009eb565b50505050905090810190601f16801562000a365780820380516001836020036101000a031916815260200191505b509250505060405180910390f35b34801562000a5157600080fd5b5062000a976004803603602081101562000a6a57600080fd5b81019080803573ffffffffffffffffffffffffffffffffffffffff16906020019092919050505062001d7e565b604051808273ffffffffffffffffffffffffffffffffffffffff1673ffffffffffffffffffffffffffffffffffffffff16815260200191505060405180910390f35b34801562000ae657600080fd5b5062000b2c6004803603602081101562000aff57600080fd5b81019080803573ffffffffffffffffffffffffffffffffffffffff16906020019092919050505062001e6a565b6040518082815260200191505060405180910390f35b34801562000b4f57600080fd5b5062000b5a62001f56565b6040518080602001828103825283818151815260200191508051906020019060200280838360005b8381101562000b9f57808201518184015260208101905062000b82565b505050509050019250505060405180910390f35b34801562000bc057600080fd5b5062000c066004803603602081101562000bd957600080fd5b81019080803573ffffffffffffffffffffffffffffffffffffffff16906020019092919050505062001fe6565b6040518082815260200191505060405180910390f35b34801562000c2957600080fd5b5062000c6f6004803603602081101562000c4257600080fd5b81019080803573ffffffffffffffffffffffffffffffffffffffff169060200190929190505050620020d2565b6040518080602001828103825283818151815260200191508051906020019060200280838360005b8381101562000cb457808201518184015260208101905062000c97565b505050509050019250505060405180910390f35b60026020528060005260406000206000915054906101000a900473ffffffffffffffffffffffffffffffffffffffff1681565b60003390506000808273ffffffffffffffffffffffffffffffffffffffff1673ffffffffffffffffffffffffffffffffffffffff16815260200190815260200160002060020160009054906101000a900460ff1662000d5957600080fd5b6000341162000d6757600080fd5b62000d7381836200225d565b62000d7d57600080fd5b60003490506000828888888589893060405162000d9a9062002343565b808973ffffffffffffffffffffffffffffffffffffffff1673ffffffffffffffffffffffffffffffffffffffff168152602001806020018060200180602001888152602001878152602001806020018673ffffffffffffffffffffffffffffffffffffffff1673ffffffffffffffffffffffffffffffffffffffff16815260200185810385528c818151815260200191508051906020019080838360005b8381101562000e5557808201518184015260208101905062000e38565b50505050905090810190601f16801562000e835780820380516001836020036101000a031916815260200191505b5085810384528b818151815260200191508051906020019080838360005b8381101562000ebe57808201518184015260208101905062000ea1565b50505050905090810190601f16801562000eec5780820380516001836020036101000a031916815260200191505b5085810383528a818151815260200191508051906020019060200280838360005b8381101562000f2a57808201518184015260208101905062000f0d565b50505050905001858103825287818151815260200191508051906020019060200280838360005b8381101562000f6e57808201518184015260208101905062000f51565b505050509050019c50505050505050505050505050604051809103906000f08015801562000fa0573d6000803e3d6000fd5b509050600081905081600260008373ffffffffffffffffffffffffffffffffffffffff1673ffffffffffffffffffffffffffffffffffffffff16815260200190815260200160002060006101000a81548173ffffffffffffffffffffffffffffffffffffffff021916908373ffffffffffffffffffffffffffffffffffffffff16021790555060038190806001815401808255809150509060018203906000526020600020016000909192909190916101000a81548173ffffffffffffffffffffffffffffffffffffffff021916908373ffffffffffffffffffffffffffffffffffffffff160217905550507f3c1b2955a570d7b24867f47b5827c8c97e344bed881c4519bad1dd91656279da81604051808273ffffffffffffffffffffffffffffffffffffffff1673ffffffffffffffffffffffffffffffffffffffff16815260200191505060405180910390a1505050505050505050565b6060600260008373ffffffffffffffffffffffffffffffffffffffff1673ffffffffffffffffffffffffffffffffffffffff16815260200190815260200160002060009054906101000a900473ffffffffffffffffffffffffffffffffffffffff1673ffffffffffffffffffffffffffffffffffffffff1663894c3b1f6040518163ffffffff1660e01b815260040160006040518083038186803b158015620011a257600080fd5b505afa158015620011b7573d6000803e3d6000fd5b505050506040513d6000823e3d601f19601f820116820180604052506020811015620011e257600080fd5b81019080805160405193929190846401000000008211156200120357600080fd5b838201915060208201858111156200121a57600080fd5b82518660208202830111640100000000821117156200123857600080fd5b8083526020830192505050908051906020019060200280838360005b838110156200127157808201518184015260208101905062001254565b505050509050016040525050509050919050565b6200128f62002351565b60405180604001604052806000808573ffffffffffffffffffffffffffffffffffffffff1673ffffffffffffffffffffffffffffffffffffffff1681526020019081526020016000206000015481526020016000808573ffffffffffffffffffffffffffffffffffffffff1673ffffffffffffffffffffffffffffffffffffffff168152602001908152602001600020600101548152509050919050565b6000600260008373ffffffffffffffffffffffffffffffffffffffff1673ffffffffffffffffffffffffffffffffffffffff16815260200190815260200160002060009054906101000a900473ffffffffffffffffffffffffffffffffffffffff1673ffffffffffffffffffffffffffffffffffffffff1663459d6e4f6040518163ffffffff1660e01b815260040160206040518083038186803b158015620013d557600080fd5b505afa158015620013ea573d6000803e3d6000fd5b505050506040513d60208110156200140157600080fd5b81019080805190602001909291905050509050919050565b6000339050600160008273ffffffffffffffffffffffffffffffffffffffff1673ffffffffffffffffffffffffffffffffffffffff16815260200190815260200160002060010160019054906101000a900460ff16156200147957600080fd5b6040518060600160405280838152602001603260ff16815260200160011515815250600160008373ffffffffffffffffffffffffffffffffffffffff1673ffffffffffffffffffffffffffffffffffffffff1681526020019081526020016000206000820151816000015560208201518160010160006101000a81548160ff021916908360ff16021790555060408201518160010160016101000a81548160ff02191690831515021790555090505060048190806001815401808255809150509060018203906000526020600020016000909192909190916101000a81548173ffffffffffffffffffffffffffffffffffffffff021916908373ffffffffffffffffffffffffffffffffffffffff160217905550505050565b60008060003373ffffffffffffffffffffffffffffffffffffffff1673ffffffffffffffffffffffffffffffffffffffff16815260200190815260200160002060020160009054906101000a900460ff161562001612577f54726164657200000000000000000000000000000000000000000000000000009050620016b5565b600160003373ffffffffffffffffffffffffffffffffffffffff1673ffffffffffffffffffffffffffffffffffffffff16815260200190815260200160002060010160019054906101000a900460ff161562001691577f41726269747261746f72000000000000000000000000000000000000000000009050620016b5565b7f496e76616c69640000000000000000000000000000000000000000000000000090505b90565b60016020528060005260406000206000915090508060000154908060010160009054906101000a900460ff16908060010160019054906101000a900460ff16905083565b6060600260008373ffffffffffffffffffffffffffffffffffffffff1673ffffffffffffffffffffffffffffffffffffffff16815260200190815260200160002060009054906101000a900473ffffffffffffffffffffffffffffffffffffffff1673ffffffffffffffffffffffffffffffffffffffff166306fdde036040518163ffffffff1660e01b815260040160006040518083038186803b158015620017a457600080fd5b505afa158015620017b9573d6000803e3d6000fd5b505050506040513d6000823e3d601f19601f820116820180604052506020811015620017e457600080fd5b81019080805160405193929190846401000000008211156200180557600080fd5b838201915060208201858111156200181c57600080fd5b82518660018202830111640100000000821117156200183a57600080fd5b8083526020830192505050908051906020019080838360005b838110156200187057808201518184015260208101905062001853565b50505050905090810190601f1680156200189e5780820380516001836020036101000a031916815260200191505b506040525050509050919050565b606060006004805490509050606081604051908082528060200260200182016040528015620018ea5781602001602082028038833980820191505090505b50905060008090505b82811015620019ff576000600482815481106200190c57fe5b9060005260206000200160009054906101000a900473ffffffffffffffffffffffffffffffffffffffff1690506200194362002373565b600160008373ffffffffffffffffffffffffffffffffffffffff1673ffffffffffffffffffffffffffffffffffffffff168152602001908152602001600020604051806060016040529081600082015481526020016001820160009054906101000a900460ff1660ff1660ff1681526020016001820160019054906101000a900460ff16151515158152505090508060000151848481518110620019e357fe5b60200260200101818152505050508080600101915050620018f3565b50809250505090565b6060600380548060200260200160405190810160405280929190818152602001828054801562001a8e57602002820191906000526020600020905b8160009054906101000a900473ffffffffffffffffffffffffffffffffffffffff1673ffffffffffffffffffffffffffffffffffffffff168152602001906001019080831162001a43575b5050505050905090565b60006020528060005260406000206000915090508060000154908060010154908060020160009054906101000a900460ff16905083565b600047905090565b60003390506000808273ffffffffffffffffffffffffffffffffffffffff1673ffffffffffffffffffffffffffffffffffffffff16815260200190815260200160002060020160009054906101000a900460ff161562001b3657600080fd5b60405180606001604052806064815260200160648152602001600115158152506000808373ffffffffffffffffffffffffffffffffffffffff1673ffffffffffffffffffffffffffffffffffffffff168152602001908152602001600020600082015181600001556020820151816001015560408201518160020160006101000a81548160ff02191690831515021790555090505050565b6060600260008373ffffffffffffffffffffffffffffffffffffffff1673ffffffffffffffffffffffffffffffffffffffff16815260200190815260200160002060009054906101000a900473ffffffffffffffffffffffffffffffffffffffff1673ffffffffffffffffffffffffffffffffffffffff16637284e4166040518163ffffffff1660e01b815260040160006040518083038186803b15801562001c7657600080fd5b505afa15801562001c8b573d6000803e3d6000fd5b505050506040513d6000823e3d601f19601f82011682018060405250602081101562001cb657600080fd5b810190808051604051939291908464010000000082111562001cd757600080fd5b8382019150602082018581111562001cee57600080fd5b825186600182028301116401000000008211171562001d0c57600080fd5b8083526020830192505050908051906020019080838360005b8381101562001d4257808201518184015260208101905062001d25565b50505050905090810190601f16801562001d705780820380516001836020036101000a031916815260200191505b506040525050509050919050565b6000600260008373ffffffffffffffffffffffffffffffffffffffff1673ffffffffffffffffffffffffffffffffffffffff16815260200190815260200160002060009054906101000a900473ffffffffffffffffffffffffffffffffffffffff1673ffffffffffffffffffffffffffffffffffffffff1663fbcc1e716040518163ffffffff1660e01b815260040160206040518083038186803b15801562001e2657600080fd5b505afa15801562001e3b573d6000803e3d6000fd5b505050506040513d602081101562001e5257600080fd5b81019080805190602001909291905050509050919050565b6000600260008373ffffffffffffffffffffffffffffffffffffffff1673ffffffffffffffffffffffffffffffffffffffff16815260200190815260200160002060009054906101000a900473ffffffffffffffffffffffffffffffffffffffff1673ffffffffffffffffffffffffffffffffffffffff1663516dde436040518163ffffffff1660e01b815260040160206040518083038186803b15801562001f1257600080fd5b505afa15801562001f27573d6000803e3d6000fd5b505050506040513d602081101562001f3e57600080fd5b81019080805190602001909291905050509050919050565b6060600480548060200260200160405190810160405280929190818152602001828054801562001fdc57602002820191906000526020600020905b8160009054906101000a900473ffffffffffffffffffffffffffffffffffffffff1673ffffffffffffffffffffffffffffffffffffffff168152602001906001019080831162001f91575b5050505050905090565b6000600260008373ffffffffffffffffffffffffffffffffffffffff1673ffffffffffffffffffffffffffffffffffffffff16815260200190815260200160002060009054906101000a900473ffffffffffffffffffffffffffffffffffffffff1673ffffffffffffffffffffffffffffffffffffffff16632c135b936040518163ffffffff1660e01b815260040160206040518083038186803b1580156200208e57600080fd5b505afa158015620020a3573d6000803e3d6000fd5b505050506040513d6020811015620020ba57600080fd5b81019080805190602001909291905050509050919050565b6060600260008373ffffffffffffffffffffffffffffffffffffffff1673ffffffffffffffffffffffffffffffffffffffff16815260200190815260200160002060009054906101000a900473ffffffffffffffffffffffffffffffffffffffff1673ffffffffffffffffffffffffffffffffffffffff1663cc2ee1966040518163ffffffff1660e01b815260040160006040518083038186803b1580156200217a57600080fd5b505afa1580156200218f573d6000803e3d6000fd5b505050506040513d6000823e3d601f19601f820116820180604052506020811015620021ba57600080fd5b8101908080516040519392919084640100000000821115620021db57600080fd5b83820191506020820185811115620021f257600080fd5b82518660208202830111640100000000821117156200221057600080fd5b8083526020830192505050908051906020019060200280838360005b83811015620022495780820151818401526020810190506200222c565b505050509050016040525050509050919050565b6000808251905060008090505b81811015620023365760008482815181106200228257fe5b60200260200101519050600160008273ffffffffffffffffffffffffffffffffffffffff1673ffffffffffffffffffffffffffffffffffffffff16815260200190815260200160002060010160019054906101000a900460ff1615806200231457508073ffffffffffffffffffffffffffffffffffffffff168673ffffffffffffffffffffffffffffffffffffffff16145b156200232757600093505050506200233d565b5080806001019150506200226a565b5060019150505b92915050565b6123db806200239d83390190565b6040518060400160405280600290602082028038833980820191505090505090565b604051806060016040528060008019168152602001600060ff168152602001600015158152509056fe60806040526000602160006101000a81548160ff021916908360038111156200002457fe5b0217905550604051620023db380380620023db83398181016040526101008110156200004f57600080fd5b8101908080519060200190929190805160405193929190846401000000008211156200007a57600080fd5b838201915060208201858111156200009157600080fd5b8251866001820283011164010000000082111715620000af57600080fd5b8083526020830192505050908051906020019080838360005b83811015620000e5578082015181840152602081019050620000c8565b50505050905090810190601f168015620001135780820380516001836020036101000a031916815260200191505b50604052602001805160405193929190846401000000008211156200013757600080fd5b838201915060208201858111156200014e57600080fd5b82518660018202830111640100000000821117156200016c57600080fd5b8083526020830192505050908051906020019080838360005b83811015620001a257808201518184015260208101905062000185565b50505050905090810190601f168015620001d05780820380516001836020036101000a031916815260200191505b5060405260200180516040519392919084640100000000821115620001f457600080fd5b838201915060208201858111156200020b57600080fd5b82518660208202830111640100000000821117156200022957600080fd5b8083526020830192505050908051906020019060200280838360005b838110156200026257808201518184015260208101905062000245565b50505050905001604052602001805190602001909291908051906020019092919080516040519392919084640100000000821115620002a057600080fd5b83820191506020820185811115620002b757600080fd5b8251866020820283011164010000000082111715620002d557600080fd5b8083526020830192505050908051906020019060200280838360005b838110156200030e578082015181840152602081019050620002f1565b505050509050016040526020018051906020019092919050505080600960006101000a81548173ffffffffffffffffffffffffffffffffffffffff021916908373ffffffffffffffffffffffffffffffffffffffff160217905550876000806101000a81548173ffffffffffffffffffffffffffffffffffffffff021916908373ffffffffffffffffffffffffffffffffffffffff1602179055508660019080519060200190620003c19291906200058c565b508560029080519060200190620003da9291906200058c565b508460039080519060200190620003f392919062000613565b506000600481905550836005819055508260068190555081600790805190602001906200042292919062000665565b506017600960146101000a81548161ffff021916908361ffff16021790555060008090505b8551811015620004f257604051806040016040528060008152602001600073ffffffffffffffffffffffffffffffffffffffff16815250600c82600481106200048c57fe5b600202016000820151816000015560208201518160010160006101000a81548173ffffffffffffffffffffffffffffffffffffffff021916908373ffffffffffffffffffffffffffffffffffffffff160217905550905050808060010191505062000447565b5060008090505b82518110156200057d576001600a60008584815181106200051657fe5b602002602001015173ffffffffffffffffffffffffffffffffffffffff1673ffffffffffffffffffffffffffffffffffffffff16815260200190815260200160002060006101000a81548160ff0219169083151502179055508080600101915050620004f9565b5050505050505050506200078a565b828054600181600116156101000203166002900490600052602060002090601f016020900481019282601f10620005cf57805160ff191683800117855562000600565b8280016001018555821562000600579182015b82811115620005ff578251825591602001919060010190620005e2565b5b5090506200060f9190620006f4565b5090565b82805482825590600052602060002090810192821562000652579160200282015b828111156200065157825182559160200191906001019062000634565b5b5090506200066191906200071c565b5090565b828054828255906000526020600020908101928215620006e1579160200282015b82811115620006e05782518260006101000a81548173ffffffffffffffffffffffffffffffffffffffff021916908373ffffffffffffffffffffffffffffffffffffffff1602179055509160200191906001019062000686565b5b509050620006f0919062000744565b5090565b6200071991905b8082111562000715576000816000905550600101620006fb565b5090565b90565b6200074191905b808211156200073d57600081600090555060010162000723565b5090565b90565b6200078791905b808211156200078357600081816101000a81549073ffffffffffffffffffffffffffffffffffffffff0219169055506001016200074b565b5090565b90565b611c41806200079a6000396000f3fe60806040526004361061012a5760003560e01c80637284e416116100ab578063a6430cc01161006f578063a6430cc014610635578063a8323176146106b0578063bc0da8d3146106c7578063bfb0b60814610733578063cc2ee1961461079f578063fbcc1e711461080b5761012a565b80637284e4161461043b578063729ecb07146104cb57806376bb984b14610546578063894c3b1f1461055d57806395e56a84146105c95761012a565b8063409e2205116100f2578063409e2205146102ff578063459d6e4f1461034e578063465be85f14610379578063516dde43146103e5578063722713f7146104105761012a565b806306fdde031461012f578063288fa802146101bf5780632c135b931461022b5780632cd25535146102565780632d978163146102c6575b600080fd5b34801561013b57600080fd5b50610144610862565b6040518080602001828103825283818151815260200191508051906020019080838360005b83811015610184578082015181840152602081019050610169565b50505050905090810190601f1680156101b15780820380516001836020036101000a031916815260200191505b509250505060405180910390f35b3480156101cb57600080fd5b506101d4610900565b6040518080602001828103825283818151815260200191508051906020019060200280838360005b838110156102175780820151818401526020810190506101fc565b505050509050019250505060405180910390f35b34801561023757600080fd5b50610240610990565b6040518082815260200191505060405180910390f35b6102ac6004803603606081101561026c57600080fd5b810190808035906020019092919080359060200190929190803573ffffffffffffffffffffffffffffffffffffffff169060200190929190505050610996565b604051808215151515815260200191505060405180910390f35b3480156102d257600080fd5b506102db610d5f565b604051808260038111156102eb57fe5b60ff16815260200191505060405180910390f35b34801561030b57600080fd5b506103386004803603602081101561032257600080fd5b8101908080359060200190929190505050610d72565b6040518082815260200191505060405180910390f35b34801561035a57600080fd5b50610363610d93565b6040518082815260200191505060405180910390f35b34801561038557600080fd5b5061038e610d99565b6040518080602001828103825283818151815260200191508051906020019060200280838360005b838110156103d15780820151818401526020810190506103b6565b505050509050019250505060405180910390f35b3480156103f157600080fd5b506103fa610e27565b6040518082815260200191505060405180910390f35b34801561041c57600080fd5b50610425610e2d565b6040518082815260200191505060405180910390f35b34801561044757600080fd5b50610450610e35565b6040518080602001828103825283818151815260200191508051906020019080838360005b83811015610490578082015181840152602081019050610475565b50505050905090810190601f1680156104bd5780820380516001836020036101000a031916815260200191505b509250505060405180910390f35b3480156104d757600080fd5b50610504600480360360208110156104ee57600080fd5b8101908080359060200190929190505050610ed3565b604051808273ffffffffffffffffffffffffffffffffffffffff1673ffffffffffffffffffffffffffffffffffffffff16815260200191505060405180910390f35b34801561055257600080fd5b5061055b610f0f565b005b34801561056957600080fd5b506105726114b9565b6040518080602001828103825283818151815260200191508051906020019060200280838360005b838110156105b557808201518184015260208101905061059a565b505050509050019250505060405180910390f35b3480156105d557600080fd5b506105de611547565b6040518080602001828103825283818151815260200191508051906020019060200280838360005b83811015610621578082015181840152602081019050610606565b505050509050019250505060405180910390f35b34801561064157600080fd5b5061066e6004803603602081101561065857600080fd5b81019080803590602001909291905050506115d1565b604051808273ffffffffffffffffffffffffffffffffffffffff1673ffffffffffffffffffffffffffffffffffffffff16815260200191505060405180910390f35b3480156106bc57600080fd5b506106c561160d565b005b3480156106d357600080fd5b506106dc61163b565b6040518080602001828103825283818151815260200191508051906020019060200280838360005b8381101561071f578082015181840152602081019050610704565b505050509050019250505060405180910390f35b34801561073f57600080fd5b506107486116c5565b6040518080602001828103825283818151815260200191508051906020019060200280838360005b8381101561078b578082015181840152602081019050610770565b505050509050019250505060405180910390f35b3480156107ab57600080fd5b506107b461174f565b6040518080602001828103825283818151815260200191508051906020019060200280838360005b838110156107f75780820151818401526020810190506107dc565b505050509050019250505060405180910390f35b34801561081757600080fd5b506108206117a7565b604051808273ffffffffffffffffffffffffffffffffffffffff1673ffffffffffffffffffffffffffffffffffffffff16815260200191505060405180910390f35b60018054600181600116156101000203166002900480601f0160208091040260200160405190810160405280929190818152602001828054600181600116156101000203166002900480156108f85780601f106108cd576101008083540402835291602001916108f8565b820191906000526020600020905b8154815290600101906020018083116108db57829003601f168201915b505050505081565b60606000600490506060816040519080825280602002602001820160405280156109395781602001602082028038833980820191505090505b50905060008090505b8281101561098757600c816004811061095757fe5b600202016000015460001b82828151811061096e57fe5b6020026020010181815250508080600101915050610942565b50809250505090565b60045481565b600083600c84600481106109a657fe5b6002020160000154106109b857600080fd5b600c83600481106109c557fe5b6002020160010160009054906101000a900473ffffffffffffffffffffffffffffffffffffffff1673ffffffffffffffffffffffffffffffffffffffff166108fc600c8560048110610a1357fe5b60020201600001549081150290604051600060405180830381858888f19350505050158015610a46573d6000803e3d6000fd5b506000670de0b6b3a76400009050610a5c611a13565b60008090505b6004811015610b1157858114610b0457600c8160048110610a7f57fe5b600202016000015483039250600c8160048110610a9857fe5b6002020160010160009054906101000a900473ffffffffffffffffffffffffffffffffffffffff16828260048110610acc57fe5b602002019073ffffffffffffffffffffffffffffffffffffffff16908173ffffffffffffffffffffffffffffffffffffffff16815250505b8080600101915050610a62565b50858211610cb95733818660048110610b2657fe5b602002019073ffffffffffffffffffffffffffffffffffffffff16908173ffffffffffffffffffffffffffffffffffffffff1681525050610b65611a35565b604051806020016040528083815250905060208190806001815401808255809150509060018203906000526020600020906004020160009091929091909150600082015181600001906004610bbb929190611a4e565b5050505060008090505b6004811015610c235786811415610bee578360148260048110610be457fe5b0181905550610c16565b600c8160048110610bfb57fe5b600202016000015460148260048110610c1057fe5b01819055505b8080600101915050610bc5565b503373ffffffffffffffffffffffffffffffffffffffff166108fc8489039081150290604051600060405180830381858888f19350505050158015610c6c573d6000803e3d6000fd5b50610c76856117cc565b60008090505b6004811015610cac576000600c8260048110610c9457fe5b60020201600001819055508080600101915050610c7c565b5060019350505050610d58565b610cc1611acb565b60405180604001604052808881526020013373ffffffffffffffffffffffffffffffffffffffff16815250905080600c8760048110610cfc57fe5b600202016000820151816000015560208201518160010160006101000a81548173ffffffffffffffffffffffffffffffffffffffff021916908373ffffffffffffffffffffffffffffffffffffffff1602179055509050505050505b9392505050565b602160009054906101000a900460ff1681565b60038181548110610d7f57fe5b906000526020600020016000915090505481565b60055481565b60606008805480602002602001604051908101604052809291908181526020018280548015610e1d57602002820191906000526020600020905b8160009054906101000a900473ffffffffffffffffffffffffffffffffffffffff1673ffffffffffffffffffffffffffffffffffffffff1681526020019060010190808311610dd3575b5050505050905090565b60065481565b600047905090565b60028054600181600116156101000203166002900480601f016020809104026020016040519081016040528092919081815260200182805460018160011615610100020316600290048015610ecb5780601f10610ea057610100808354040283529160200191610ecb565b820191906000526020600020905b815481529060010190602001808311610eae57829003601f168201915b505050505081565b60088181548110610ee057fe5b906000526020600020016000915054906101000a900473ffffffffffffffffffffffffffffffffffffffff1681565b6000600960009054906101000a900473ffffffffffffffffffffffffffffffffffffffff16905060608173ffffffffffffffffffffffffffffffffffffffff1663c9e519e86040518163ffffffff1660e01b815260040160006040518083038186803b158015610f7e57600080fd5b505afa158015610f92573d6000803e3d6000fd5b505050506040513d6000823e3d601f19601f820116820180604052506020811015610fbc57600080fd5b8101908080516040519392919084640100000000821115610fdc57600080fd5b83820191506020820185811115610ff257600080fd5b825186602082028301116401000000008211171561100f57600080fd5b8083526020830192505050908051906020019060200280838360005b8381101561104657808201518184015260208101905061102b565b5050505090500160405250505090506060600a82510260405190808252806020026020018201604052801561108a5781602001602082028038833980820191505090505b509050600080905060008090505b83518110156112775760008482815181106110af57fe5b60200260200101519050600a60008273ffffffffffffffffffffffffffffffffffffffff1673ffffffffffffffffffffffffffffffffffffffff16815260200190815260200160002060009054906101000a900460ff1615611111575061126a565b60008673ffffffffffffffffffffffffffffffffffffffff166351d0ea37836040518263ffffffff1660e01b8152600401808273ffffffffffffffffffffffffffffffffffffffff1673ffffffffffffffffffffffffffffffffffffffff16815260200191505060606040518083038186803b15801561119057600080fd5b505afa1580156111a4573d6000803e3d6000fd5b505050506040513d60608110156111ba57600080fd5b81019080805190602001909291908051906020019092919080519060200190929190505050509150506000600a60ff168260ff16816111f557fe5b04905060008090505b8160ff16811015611265578387878151811061121657fe5b602002602001019073ffffffffffffffffffffffffffffffffffffffff16908173ffffffffffffffffffffffffffffffffffffffff1681525050858060010196505080806001019150506111fe565b505050505b8080600101915050611098565b50606060056040519080825280602002602001820160405280156112aa5781602001602082028038833980820191505090505b50905060008090505b600581101561149a576000834233600960149054906101000a900461ffff16604051602001808481526020018373ffffffffffffffffffffffffffffffffffffffff1673ffffffffffffffffffffffffffffffffffffffff1660601b81526014018261ffff1661ffff1660f01b815260020193505050506040516020818303038152906040528051906020012060001c8161134a57fe5b0690506009601481819054906101000a900461ffff168092919060010191906101000a81548161ffff021916908361ffff16021790555050600085828151811061139057fe5b60200260200101519050600b60008273ffffffffffffffffffffffffffffffffffffffff1673ffffffffffffffffffffffffffffffffffffffff16815260200190815260200160002060009054906101000a900460ff16611493576001600b60008373ffffffffffffffffffffffffffffffffffffffff1673ffffffffffffffffffffffffffffffffffffffff16815260200190815260200160002060006101000a81548160ff0219169083151502179055508084848151811061145057fe5b602002602001019073ffffffffffffffffffffffffffffffffffffffff16908173ffffffffffffffffffffffffffffffffffffffff168152505082806001019350505b50506112b3565b81600890805190602001906114b0929190611afb565b50505050505050565b6060600780548060200260200160405190810160405280929190818152602001828054801561153d57602002820191906000526020600020905b8160009054906101000a900473ffffffffffffffffffffffffffffffffffffffff1673ffffffffffffffffffffffffffffffffffffffff16815260200190600101908083116114f3575b5050505050905090565b60606000600490506060816040519080825280602002602001820160405280156115805781602001602082028038833980820191505090505b50905060008090505b828110156115c8576014816004811061159e57fe5b015460001b8282815181106115af57fe5b6020026020010181815250508080600101915050611589565b50809250505090565b600781815481106115de57fe5b906000526020600020016000915054906101000a900473ffffffffffffffffffffffffffffffffffffffff1681565b6002602160006101000a81548160ff0219169083600381111561162c57fe5b0217905550611639610f0f565b565b60606000600490506060816040519080825280602002602001820160405280156116745781602001602082028038833980820191505090505b50905060008090505b828110156116bc57601c816004811061169257fe5b015460001b8282815181106116a357fe5b602002602001018181525050808060010191505061167d565b50809250505090565b60606000600490506060816040519080825280602002602001820160405280156116fe5781602001602082028038833980820191505090505b50905060008090505b82811015611746576018816004811061171c57fe5b015460001b82828151811061172d57fe5b6020026020010181815250508080600101915050611707565b50809250505090565b6060600380548060200260200160405190810160405280929190818152602001828054801561179d57602002820191906000526020600020905b815481526020019060010190808311611789575b5050505050905090565b6000809054906101000a900473ffffffffffffffffffffffffffffffffffffffff1681565b60008190506117d9611a35565b6020600160208054905003815481106117ee57fe5b906000526020600020906004020160405180602001604052908160008201600480602002604051908101604052809291908260048015611879576020028201915b8160009054906101000a900473ffffffffffffffffffffffffffffffffffffffff1673ffffffffffffffffffffffffffffffffffffffff168152602001906001019080831161182f575b505050505081525050905060008090505b6004811015611a0d576000826000015182600481106118a557fe5b602002015190506118b4611b85565b8473ffffffffffffffffffffffffffffffffffffffff16633d59f85b836040518263ffffffff1660e01b8152600401808273ffffffffffffffffffffffffffffffffffffffff1673ffffffffffffffffffffffffffffffffffffffff168152602001915050604080518083038186803b15801561193057600080fd5b505afa158015611944573d6000803e3d6000fd5b505050506040513d601f19601f82011682018060405250604081101561196957600080fd5b810190809190505090506014836004811061198057fe5b01548160006002811061198f57fe5b602002015102601884600481106119a257fe5b015401601884600481106119b257fe5b0181905550601483600481106119c457fe5b0154600103816001600281106119d657fe5b602002015102601c84600481106119e957fe5b015401601c84600481106119f957fe5b01819055505050808060010191505061188a565b50505050565b6040518060800160405280600490602082028038833980820191505090505090565b6040518060200160405280611a48611ba7565b81525090565b8260048101928215611aba579160200282015b82811115611ab95782518260006101000a81548173ffffffffffffffffffffffffffffffffffffffff021916908373ffffffffffffffffffffffffffffffffffffffff16021790555091602001919060010190611a61565b5b509050611ac79190611bc9565b5090565b604051806040016040528060008152602001600073ffffffffffffffffffffffffffffffffffffffff1681525090565b828054828255906000526020600020908101928215611b74579160200282015b82811115611b735782518260006101000a81548173ffffffffffffffffffffffffffffffffffffffff021916908373ffffffffffffffffffffffffffffffffffffffff16021790555091602001919060010190611b1b565b5b509050611b819190611bc9565b5090565b6040518060400160405280600290602082028038833980820191505090505090565b6040518060800160405280600490602082028038833980820191505090505090565b611c0991905b80821115611c0557600081816101000a81549073ffffffffffffffffffffffffffffffffffffffff021916905550600101611bcf565b5090565b9056fea265627a7a7231582099ff198db993b38bc54760ba9056020a619d7752defd806d3b6cf5101967aacd64736f6c63430005100032a265627a7a72315820e32e7f882dd1fb29d46bcc74a8c6453145763f90ac4baaca9f931c90b7d6de3264736f6c63430005100032",
  "source": "// SPDX-License-Identifier: MIT\npragma solidity >=0.4.21 <=0.7.0;\nimport \"./Topic.sol\";\n\ncontract PredictionMarket {\n    // Structs for users and arbitrators. Default scores = 100\n    struct Trader {\n        uint winScore;\n        uint loseScore;\n        bool isValid; \n    }\n\n    struct Arbitrator {\n        bytes32 displayName;\n        uint8 trustworthiness;\n        bool isValid;\n    }\n\n    // Maps of addresses to different entities\n    mapping (address => Trader) public traders;\n    mapping (address => Arbitrator) public arbitrators;\n    mapping (address => Topic) public marketTopics;\n\n    // Array of addresses of topics to return to front end\n    address[] topicAddresses;\n\n    // Array of addresses of arbitrators to return to front end\n    address payable[] arbitratorAddresses;\n\n    // Struct create functions\n    function createTrader() public {\n        address id = msg.sender;\n        // // require that address has not been assigned to a trader\n        require(!traders[id].isValid);\n\n        // // create new trader with the default values\n        traders[id] = Trader(100, 100, true);\n    }\n\n    function createArbitrator(bytes32 _displayName) public {\n        address id = msg.sender;\n\n        // require that address has not been assigned to a arbitrator\n        require(!arbitrators[id].isValid);\n\n        // create new arbitrator with the default values\n        arbitrators[id] = Arbitrator(_displayName, 50, true);\n\n        arbitratorAddresses.push(address(uint160(id)));\n    }\n\n    function getAllArbitrators() public view returns (address payable[] memory) {\n        return arbitratorAddresses;\n    }\n\n    function getAllArbitratorNames() public view returns (bytes32[] memory) {\n        uint len = arbitratorAddresses.length;\n        bytes32[] memory names = new bytes32[](len);\n\n        for (uint i = 0; i < len; i++) {\n            address arbitratorAddress = arbitratorAddresses[i];\n            Arbitrator memory arbitrator = arbitrators[arbitratorAddress];\n            names[i] = arbitrator.displayName;\n        }\n        return names;\n    }\n\n    //VOTER'S REPUTATION \n    function getVotersReputation(address id) public view returns (uint[2] memory){\n        return [traders[id].winScore, traders[id].loseScore];\n    }\n\n    // AUTHENTICATION\n    function checkIdentity() public view returns (bytes32) {\n        // Check if user is a trader\n        if(traders[msg.sender].isValid){\n            return bytes32(\"Trader\");\n        }\n        // Check if user is an arbitrator\n        if(arbitrators[msg.sender].isValid){\n            return bytes32(\"Arbitrator\");\n        }\n        // If all the above fails, return invalid\n        return bytes32(\"Invalid\");\n    }\n\n\n    // Topics\n    function createTopic(\n        string memory name, string memory description, bytes32[] memory options, uint256 expiryDate, address payable[] memory selectedArbitrators\n    ) public payable\n        {\n        address payable creatorId = msg.sender;\n\n        // Creator must have a trader account\n        require(traders[creatorId].isValid);\n\n        // Must have value above 0 ETH for payment of creation bond\n        require(msg.value > 0 ether);\n\n        // selected arbitrators must have arbitrator account and creator must not select himself as an arbitrator\n        require(areValidArbitrators(creatorId, selectedArbitrators));\n\n        uint bondValue = msg.value;\n        Topic newTopic = new Topic(creatorId, name, description, options, bondValue, expiryDate, selectedArbitrators, address(this));\n        address payable topicAddress = address(uint160(address(newTopic))); // to cast from address to address payable\n        marketTopics[topicAddress] = newTopic;\n        topicAddresses.push(topicAddress);\n        emit TopicCreated(topicAddress);\n    }\n\n    function getAllTopics() public view returns (address[] memory) {\n        return topicAddresses;\n    }\n\n    function areValidArbitrators(address payable creatorId, address payable[] memory selectedArbitrators) internal view returns (bool) {\n        uint numSelectedArbitrators = selectedArbitrators.length;\n        for (uint i = 0; i < numSelectedArbitrators; i++) {\n            address arbitrator = selectedArbitrators[i];\n            if (!arbitrators[arbitrator].isValid || creatorId == arbitrator) {\n                return false;\n            }\n        }\n        return true;\n    }\n\n\n    // ===============================================================\n    // For testing purposes\n    // ===============================================================\n    event TopicCreated(address _topicAddress);\n\n    function getCreatorAddress(address topicAddress) public view returns (address payable) {\n        return marketTopics[topicAddress].topicCreator();\n    }\n\n    function getName(address topicAddress) public view returns (string memory) {\n        return marketTopics[topicAddress].name();\n    }\n\n    function getDescription(address topicAddress) public view returns (string memory) {\n        return marketTopics[topicAddress].description();\n    }\n\n    function getOptions(address topicAddress) public view returns (bytes32[] memory) {\n        return marketTopics[topicAddress].getOptions();\n    }\n\n    function getMarketCap(address topicAddress) public view returns (uint) {\n        return marketTopics[topicAddress].marketCap();\n    }\n\n    function getCreatorBond(address topicAddress) public view returns (uint) {\n        return marketTopics[topicAddress].creatorBond();\n    }\n\n    function getExpiryDate(address topicAddress) public view returns (uint256) {\n        return marketTopics[topicAddress].expiryDate();\n    }\n\n    function getSelectedArbitrators(address topicAddress) public view returns (address payable[] memory) {\n        return marketTopics[topicAddress].getArbitrators();\n    }\n\n    function getCurrentBalance() public view returns (uint) {\n        return address(this).balance;\n    }\n\n}",
  "sourcePath": "/Users/collinlim/Desktop/Desktop.nosync/School/CZ4153/Project/Decentralised_Prediction_Market/contracts/PredictionMarket.sol",
  "compiler": {
    "name": "solc",
    "version": "0.5.16+commit.9c3226ce.Emscripten.clang"
  },
  "schemaVersion": "3.2.5",
  "updatedAt": "2020-10-22T01:45:16.109Z",
  "networkType": "ethereum",
  "devdoc": {
    "methods": {}
  },
  "userdoc": {
    "methods": {}
  }
}