{
  "contractName": "Topic",
  "abi": [
    {
      "inputs": [
        {
          "internalType": "address payable",
          "name": "_creator",
          "type": "address"
        },
        {
          "internalType": "string",
          "name": "_name",
          "type": "string"
        },
        {
          "internalType": "string",
          "name": "_description",
          "type": "string"
        },
        {
          "internalType": "bytes32[]",
          "name": "_options",
          "type": "bytes32[]"
        },
        {
          "internalType": "uint256",
          "name": "_bondValue",
          "type": "uint256"
        },
        {
          "internalType": "uint256",
          "name": "_expiryDate",
          "type": "uint256"
        },
        {
          "internalType": "address payable[]",
          "name": "_arbitrators",
          "type": "address[]"
        }
      ],
      "payable": true,
      "stateMutability": "payable",
      "type": "constructor"
    },
    {
      "constant": true,
      "inputs": [
        {
          "internalType": "uint256",
          "name": "",
          "type": "uint256"
        }
      ],
      "name": "arbitrators",
      "outputs": [
        {
          "internalType": "address payable",
          "name": "",
          "type": "address"
        }
      ],
      "payable": false,
      "stateMutability": "view",
      "type": "function"
    },
    {
      "constant": true,
      "inputs": [],
      "name": "creatorBond",
      "outputs": [
        {
          "internalType": "uint256",
          "name": "",
          "type": "uint256"
        }
      ],
      "payable": false,
      "stateMutability": "view",
      "type": "function"
    },
    {
      "constant": true,
      "inputs": [],
      "name": "description",
      "outputs": [
        {
          "internalType": "string",
          "name": "",
          "type": "string"
        }
      ],
      "payable": false,
      "stateMutability": "view",
      "type": "function"
    },
    {
      "constant": true,
      "inputs": [],
      "name": "expiryDate",
      "outputs": [
        {
          "internalType": "uint256",
          "name": "",
          "type": "uint256"
        }
      ],
      "payable": false,
      "stateMutability": "view",
      "type": "function"
    },
    {
      "constant": true,
      "inputs": [],
      "name": "marketCap",
      "outputs": [
        {
          "internalType": "uint256",
          "name": "",
          "type": "uint256"
        }
      ],
      "payable": false,
      "stateMutability": "view",
      "type": "function"
    },
    {
      "constant": true,
      "inputs": [],
      "name": "name",
      "outputs": [
        {
          "internalType": "string",
          "name": "",
          "type": "string"
        }
      ],
      "payable": false,
      "stateMutability": "view",
      "type": "function"
    },
    {
      "constant": true,
      "inputs": [
        {
          "internalType": "uint256",
          "name": "",
          "type": "uint256"
        }
      ],
      "name": "options",
      "outputs": [
        {
          "internalType": "bytes32",
          "name": "",
          "type": "bytes32"
        }
      ],
      "payable": false,
      "stateMutability": "view",
      "type": "function"
    },
    {
      "constant": true,
      "inputs": [],
      "name": "topicCreator",
      "outputs": [
        {
          "internalType": "address payable",
          "name": "",
          "type": "address"
        }
      ],
      "payable": false,
      "stateMutability": "view",
      "type": "function"
    },
    {
      "constant": false,
      "inputs": [
        {
          "internalType": "uint256",
          "name": "amount",
          "type": "uint256"
        },
        {
          "internalType": "uint256",
          "name": "option",
          "type": "uint256"
        }
      ],
      "name": "voteOption",
      "outputs": [
        {
          "internalType": "bool",
          "name": "",
          "type": "bool"
        }
      ],
      "payable": true,
      "stateMutability": "payable",
      "type": "function"
    },
    {
      "constant": true,
      "inputs": [],
      "name": "getAllPendingVotePrice",
      "outputs": [
        {
          "internalType": "bytes32[]",
          "name": "",
          "type": "bytes32[]"
        }
      ],
      "payable": false,
      "stateMutability": "view",
      "type": "function"
    },
    {
      "constant": true,
      "inputs": [],
      "name": "getLastTradedPrices",
      "outputs": [
        {
          "internalType": "bytes32[]",
          "name": "",
          "type": "bytes32[]"
        }
      ],
      "payable": false,
      "stateMutability": "view",
      "type": "function"
    },
    {
      "constant": true,
      "inputs": [],
      "name": "balanceOf",
      "outputs": [
        {
          "internalType": "uint256",
          "name": "",
          "type": "uint256"
        }
      ],
      "payable": false,
      "stateMutability": "view",
      "type": "function"
    },
    {
      "constant": true,
      "inputs": [],
      "name": "getOptions",
      "outputs": [
        {
          "internalType": "bytes32[]",
          "name": "",
          "type": "bytes32[]"
        }
      ],
      "payable": false,
      "stateMutability": "view",
      "type": "function"
    },
    {
      "constant": true,
      "inputs": [],
      "name": "getArbitrators",
      "outputs": [
        {
          "internalType": "address payable[]",
          "name": "",
          "type": "address[]"
        }
      ],
      "payable": false,
      "stateMutability": "view",
      "type": "function"
    }
  ],
  "bytecode": "0x60806040526040516200156438038062001564833981810160405260e08110156200002957600080fd5b8101908080519060200190929190805160405193929190846401000000008211156200005457600080fd5b838201915060208201858111156200006b57600080fd5b82518660018202830111640100000000821117156200008957600080fd5b8083526020830192505050908051906020019080838360005b83811015620000bf578082015181840152602081019050620000a2565b50505050905090810190601f168015620000ed5780820380516001836020036101000a031916815260200191505b50604052602001805160405193929190846401000000008211156200011157600080fd5b838201915060208201858111156200012857600080fd5b82518660018202830111640100000000821117156200014657600080fd5b8083526020830192505050908051906020019080838360005b838110156200017c5780820151818401526020810190506200015f565b50505050905090810190601f168015620001aa5780820380516001836020036101000a031916815260200191505b5060405260200180516040519392919084640100000000821115620001ce57600080fd5b83820191506020820185811115620001e557600080fd5b82518660208202830111640100000000821117156200020357600080fd5b8083526020830192505050908051906020019060200280838360005b838110156200023c5780820151818401526020810190506200021f565b505050509050016040526020018051906020019092919080519060200190929190805160405193929190846401000000008211156200027a57600080fd5b838201915060208201858111156200029157600080fd5b8251866020820283011164010000000082111715620002af57600080fd5b8083526020830192505050908051906020019060200280838360005b83811015620002e8578082015181840152602081019050620002cb565b50505050905001604052505050866000806101000a81548173ffffffffffffffffffffffffffffffffffffffff021916908373ffffffffffffffffffffffffffffffffffffffff16021790555085600190805190602001906200034d9291906200046e565b508460029080519060200190620003669291906200046e565b5083600390805190602001906200037f929190620004f5565b50600060048190555082600581905550816006819055508060079080519060200190620003ae92919062000547565b5060008090505b84518110156200046057604051806040016040528060008152602001600073ffffffffffffffffffffffffffffffffffffffff1681525060088260048110620003fa57fe5b600202016000820151816000015560208201518160010160006101000a81548173ffffffffffffffffffffffffffffffffffffffff021916908373ffffffffffffffffffffffffffffffffffffffff1602179055509050508080600101915050620003b5565b50505050505050506200066c565b828054600181600116156101000203166002900490600052602060002090601f016020900481019282601f10620004b157805160ff1916838001178555620004e2565b82800160010185558215620004e2579182015b82811115620004e1578251825591602001919060010190620004c4565b5b509050620004f19190620005d6565b5090565b82805482825590600052602060002090810192821562000534579160200282015b828111156200053357825182559160200191906001019062000516565b5b509050620005439190620005fe565b5090565b828054828255906000526020600020908101928215620005c3579160200282015b82811115620005c25782518260006101000a81548173ffffffffffffffffffffffffffffffffffffffff021916908373ffffffffffffffffffffffffffffffffffffffff1602179055509160200191906001019062000568565b5b509050620005d2919062000626565b5090565b620005fb91905b80821115620005f7576000816000905550600101620005dd565b5090565b90565b6200062391905b808211156200061f57600081600090555060010162000605565b5090565b90565b6200066991905b808211156200066557600081816101000a81549073ffffffffffffffffffffffffffffffffffffffff0219169055506001016200062d565b5090565b90565b610ee8806200067c6000396000f3fe6080604052600436106100dd5760003560e01c8063722713f71161007f57806395e56a841161005957806395e56a8414610425578063a6430cc014610491578063cc2ee1961461050c578063fbcc1e7114610578576100dd565b8063722713f7146102fe5780637284e41614610329578063894c3b1f146103b9576100dd565b8063409e2205116100bb578063409e220514610209578063459d6e4f14610258578063509bd33714610283578063516dde43146102d3576100dd565b806306fdde03146100e2578063288fa802146101725780632c135b93146101de575b600080fd5b3480156100ee57600080fd5b506100f76105cf565b6040518080602001828103825283818151815260200191508051906020019080838360005b8381101561013757808201518184015260208101905061011c565b50505050905090810190601f1680156101645780820380516001836020036101000a031916815260200191505b509250505060405180910390f35b34801561017e57600080fd5b5061018761066d565b6040518080602001828103825283818151815260200191508051906020019060200280838360005b838110156101ca5780820151818401526020810190506101af565b505050509050019250505060405180910390f35b3480156101ea57600080fd5b506101f36106fd565b6040518082815260200191505060405180910390f35b34801561021557600080fd5b506102426004803603602081101561022c57600080fd5b8101908080359060200190929190505050610703565b6040518082815260200191505060405180910390f35b34801561026457600080fd5b5061026d610724565b6040518082815260200191505060405180910390f35b6102b96004803603604081101561029957600080fd5b81019080803590602001909291908035906020019092919050505061072a565b604051808215151515815260200191505060405180910390f35b3480156102df57600080fd5b506102e8610ae9565b6040518082815260200191505060405180910390f35b34801561030a57600080fd5b50610313610aef565b6040518082815260200191505060405180910390f35b34801561033557600080fd5b5061033e610af7565b6040518080602001828103825283818151815260200191508051906020019080838360005b8381101561037e578082015181840152602081019050610363565b50505050905090810190601f1680156103ab5780820380516001836020036101000a031916815260200191505b509250505060405180910390f35b3480156103c557600080fd5b506103ce610b95565b6040518080602001828103825283818151815260200191508051906020019060200280838360005b838110156104115780820151818401526020810190506103f6565b505050509050019250505060405180910390f35b34801561043157600080fd5b5061043a610c23565b6040518080602001828103825283818151815260200191508051906020019060200280838360005b8381101561047d578082015181840152602081019050610462565b505050509050019250505060405180910390f35b34801561049d57600080fd5b506104ca600480360360208110156104b457600080fd5b8101908080359060200190929190505050610cad565b604051808273ffffffffffffffffffffffffffffffffffffffff1673ffffffffffffffffffffffffffffffffffffffff16815260200191505060405180910390f35b34801561051857600080fd5b50610521610ce9565b6040518080602001828103825283818151815260200191508051906020019060200280838360005b83811015610564578082015181840152602081019050610549565b505050509050019250505060405180910390f35b34801561058457600080fd5b5061058d610d41565b604051808273ffffffffffffffffffffffffffffffffffffffff1673ffffffffffffffffffffffffffffffffffffffff16815260200191505060405180910390f35b60018054600181600116156101000203166002900480601f0160208091040260200160405190810160405280929190818152602001828054600181600116156101000203166002900480156106655780601f1061063a57610100808354040283529160200191610665565b820191906000526020600020905b81548152906001019060200180831161064857829003601f168201915b505050505081565b60606000600490506060816040519080825280602002602001820160405280156106a65781602001602082028038833980820191505090505b50905060008090505b828110156106f457600881600481106106c457fe5b600202016000015460001b8282815181106106db57fe5b60200260200101818152505080806001019150506106af565b50809250505090565b60045481565b6003818154811061071057fe5b906000526020600020016000915090505481565b60055481565b6000826008836004811061073a57fe5b60020201600001541061074c57600080fd5b6008826004811061075957fe5b6002020160010160009054906101000a900473ffffffffffffffffffffffffffffffffffffffff1673ffffffffffffffffffffffffffffffffffffffff166108fc600884600481106107a757fe5b60020201600001549081150290604051600060405180830381858888f193505050501580156107da573d6000803e3d6000fd5b506000670de0b6b3a764000090506107f0610d66565b60008090505b60048110156108a557848114610898576008816004811061081357fe5b6002020160000154830392506008816004811061082c57fe5b6002020160010160009054906101000a900473ffffffffffffffffffffffffffffffffffffffff1682826004811061086057fe5b602002019073ffffffffffffffffffffffffffffffffffffffff16908173ffffffffffffffffffffffffffffffffffffffff16815250505b80806001019150506107f6565b50848211610a4457338185600481106108ba57fe5b602002019073ffffffffffffffffffffffffffffffffffffffff16908173ffffffffffffffffffffffffffffffffffffffff16815250506108f9610d88565b60405180602001604052808381525090506014819080600181540180825580915050906001820390600052602060002090600402016000909192909190915060008201518160000190600461094f929190610da1565b5050505060008090505b60048110156109b7578581141561098257836010826004811061097857fe5b01819055506109aa565b6008816004811061098f57fe5b6002020160000154601082600481106109a457fe5b01819055505b8080600101915050610959565b503373ffffffffffffffffffffffffffffffffffffffff166108fc8488039081150290604051600060405180830381858888f19350505050158015610a00573d6000803e3d6000fd5b5060008090505b6004811015610a3757600060088260048110610a1f57fe5b60020201600001819055508080600101915050610a07565b5060019350505050610ae3565b610a4c610e1e565b60405180604001604052808781526020013373ffffffffffffffffffffffffffffffffffffffff1681525090508060088660048110610a8757fe5b600202016000820151816000015560208201518160010160006101000a81548173ffffffffffffffffffffffffffffffffffffffff021916908373ffffffffffffffffffffffffffffffffffffffff1602179055509050505050505b92915050565b60065481565b600047905090565b60028054600181600116156101000203166002900480601f016020809104026020016040519081016040528092919081815260200182805460018160011615610100020316600290048015610b8d5780601f10610b6257610100808354040283529160200191610b8d565b820191906000526020600020905b815481529060010190602001808311610b7057829003601f168201915b505050505081565b60606007805480602002602001604051908101604052809291908181526020018280548015610c1957602002820191906000526020600020905b8160009054906101000a900473ffffffffffffffffffffffffffffffffffffffff1673ffffffffffffffffffffffffffffffffffffffff1681526020019060010190808311610bcf575b5050505050905090565b6060600060049050606081604051908082528060200260200182016040528015610c5c5781602001602082028038833980820191505090505b50905060008090505b82811015610ca45760108160048110610c7a57fe5b015460001b828281518110610c8b57fe5b6020026020010181815250508080600101915050610c65565b50809250505090565b60078181548110610cba57fe5b906000526020600020016000915054906101000a900473ffffffffffffffffffffffffffffffffffffffff1681565b60606003805480602002602001604051908101604052809291908181526020018280548015610d3757602002820191906000526020600020905b815481526020019060010190808311610d23575b5050505050905090565b6000809054906101000a900473ffffffffffffffffffffffffffffffffffffffff1681565b6040518060800160405280600490602082028038833980820191505090505090565b6040518060200160405280610d9b610e4e565b81525090565b8260048101928215610e0d579160200282015b82811115610e0c5782518260006101000a81548173ffffffffffffffffffffffffffffffffffffffff021916908373ffffffffffffffffffffffffffffffffffffffff16021790555091602001919060010190610db4565b5b509050610e1a9190610e70565b5090565b604051806040016040528060008152602001600073ffffffffffffffffffffffffffffffffffffffff1681525090565b6040518060800160405280600490602082028038833980820191505090505090565b610eb091905b80821115610eac57600081816101000a81549073ffffffffffffffffffffffffffffffffffffffff021916905550600101610e76565b5090565b9056fea265627a7a723158200aef849e2859dd8390e2a1620155aa0df2776dae3bc015c50a068a4c84a4037864736f6c63430005100032",
  "source": "// SPDX-License-Identifier: MIT\npragma solidity >=0.4.21 <=0.7.0;\n// pragma solidity ^0.7.0;\n\ncontract Topic {\n\n  address payable public topicCreator;\n  string public name;\n  string public description;\n  bytes32[] public options;\n  uint public marketCap;\n  uint public creatorBond;\n  uint256 public expiryDate;\n  address payable[] public arbitrators;\n\n  // Pending votes\n  voteStruct[4] pendingVotes;\n  struct voteStruct {\n    uint price; \n    address payable voter;\n  }\n\n  // Last Traded Prices\n  uint[4] lastTradedPrices;\n\n  // Successful trades\n  trade[] confirmedTrades;\n  struct trade {\n    address payable[4] shareOwners;\n  }\n\n  constructor (\n      address payable _creator, string memory _name, string memory _description, bytes32[] memory _options, \n      uint _bondValue, uint256 _expiryDate, address payable[] memory _arbitrators\n    ) public payable {\n        topicCreator = _creator;\n        name = _name;\n        description = _description;\n        options = _options;\n        marketCap = 0;\n        creatorBond = _bondValue;\n        expiryDate = _expiryDate;\n        arbitrators = _arbitrators;\n\n        // init pending votes\n        for (uint i = 0; i < _options.length; i++) {\n          pendingVotes[i] = voteStruct(0, address(0));\n        }\n    }\n\n     \n  function voteOption(uint amount, uint option) public payable returns(bool){\n    // Reject the vote if it is lower than the last available vote\n    require(pendingVotes[option].price <  amount);\n\n    // If the vote is higher than the last available price, send money back to the previous voter\n    pendingVotes[option].voter.transfer(pendingVotes[option].price);\n\n    // Balance to decide if the vote goes through\n    uint balance = 1 ether; \n\n    // Entry to insert into the confirmed trades if vote goes through\n    address payable[4] memory tempTrade;\n\n    for(uint i=0; i< 4; i++){\n      if(i != option){\n        balance = balance - pendingVotes[i].price; \n        tempTrade[i] = pendingVotes[i].voter;\n      }\n    }\n    \n    // If vote can go through\n    if(balance <= amount){\n      \n      // 1) Confirm the trade\n      tempTrade[option] = msg.sender;\n      trade memory tradeConfirmed = trade(tempTrade);\n      confirmedTrades.push(tradeConfirmed);\n      \n      // 2) Update the lastTradedPrices\n      for(uint i=0; i< 4; i++){\n        if(i == option){\n          lastTradedPrices[i] = balance;\n        }\n        else{\n          lastTradedPrices[i]= pendingVotes[i].price;\n        }\n      }\n      \n\n      // 3) Send the remaining money back to the sender\n      msg.sender.transfer(amount - balance);\n      // 4) Reset the pending votes instance\n      for(uint i =0; i< 4; i++){\n        pendingVotes[i].price =0; \n      }\n      return true;\n    }\n\n    // If vote cannot go through\n    else {\n      // Update the pending votes\n      voteStruct memory tempVote = voteStruct(amount, msg.sender); \n      pendingVotes[option] = tempVote;\n    }\n  }\n\n\n  function getAllPendingVotePrice() view public returns(bytes32[] memory){\n    uint len = pendingVotes.length;\n    bytes32[] memory bytesArray = new bytes32[](len);\n    for (uint i = 0; i < len; i++) {\n      bytesArray[i] = bytes32(pendingVotes[i].price);\n    }\n    return bytesArray;\n  } \n\n  function getLastTradedPrices() view public returns(bytes32[] memory){\n    uint len = lastTradedPrices.length;\n    bytes32[] memory bytesArray = new bytes32[](len);\n    for (uint i = 0; i < len; i++) {\n      bytesArray[i] = bytes32(lastTradedPrices[i]);\n    }\n    return bytesArray;\n  }\n\n  function balanceOf() external view returns(uint) {\n    return address(this).balance;\n  }\n\n  function getOptions() public view returns (bytes32[] memory) {\n    return options;\n  }\n\n  function getArbitrators() public view returns (address payable[] memory) {\n    return arbitrators;\n  }\n}\n",
  "sourcePath": "/Users/collinlim/Desktop/Desktop.nosync/School/CZ4153/Project/Decentralised_Prediction_Market/contracts/Topic.sol",
  "compiler": {
    "name": "solc",
    "version": "0.5.16+commit.9c3226ce.Emscripten.clang"
  },
  "schemaVersion": "3.2.5",
  "updatedAt": "2020-10-19T15:49:16.078Z",
  "networkType": "ethereum",
  "devdoc": {
    "methods": {}
  },
  "userdoc": {
    "methods": {}
  }
}