{
  "contractName": "Topic",
  "abi": [
    {
      "inputs": [
        {
          "internalType": "string",
          "name": "_name",
          "type": "string"
        }
      ],
      "payable": true,
      "stateMutability": "payable",
      "type": "constructor"
    },
    {
      "constant": false,
      "inputs": [
        {
          "internalType": "uint256",
          "name": "amount",
          "type": "uint256"
        },
        {
          "internalType": "uint256",
          "name": "option",
          "type": "uint256"
        }
      ],
      "name": "voteOption",
      "outputs": [
        {
          "internalType": "bool",
          "name": "",
          "type": "bool"
        }
      ],
      "payable": true,
      "stateMutability": "payable",
      "type": "function"
    },
    {
      "constant": true,
      "inputs": [
        {
          "internalType": "uint256",
          "name": "option",
          "type": "uint256"
        }
      ],
      "name": "getPendingVotePrice",
      "outputs": [
        {
          "internalType": "uint256",
          "name": "",
          "type": "uint256"
        }
      ],
      "payable": false,
      "stateMutability": "view",
      "type": "function"
    },
    {
      "constant": true,
      "inputs": [],
      "name": "getAllPendingVotePrice",
      "outputs": [
        {
          "internalType": "uint256",
          "name": "",
          "type": "uint256"
        }
      ],
      "payable": false,
      "stateMutability": "view",
      "type": "function"
    },
    {
      "constant": true,
      "inputs": [],
      "name": "balanceOf",
      "outputs": [
        {
          "internalType": "uint256",
          "name": "",
          "type": "uint256"
        }
      ],
      "payable": false,
      "stateMutability": "view",
      "type": "function"
    }
  ],
  "bytecode": "0x60806040526040516107b83803806107b88339818101604052602081101561002657600080fd5b810190808051604051939291908464010000000082111561004657600080fd5b8382019150602082018581111561005c57600080fd5b825186600182028301116401000000008211171561007957600080fd5b8083526020830192505050908051906020019080838360005b838110156100ad578082015181840152602081019050610092565b50505050905090810190601f1680156100da5780820380516001836020036101000a031916815260200191505b5060405250505080600190805190602001906100f79291906100fe565b50506101a3565b828054600181600116156101000203166002900490600052602060002090601f016020900481019282601f1061013f57805160ff191683800117855561016d565b8280016001018555821561016d579182015b8281111561016c578251825591602001919060010190610151565b5b50905061017a919061017e565b5090565b6101a091905b8082111561019c576000816000905550600101610184565b5090565b90565b610606806101b26000396000f3fe60806040526004361061003f5760003560e01c8063288fa80214610044578063509bd3371461006f578063722713f7146100bf578063b7454670146100ea575b600080fd5b34801561005057600080fd5b50610059610139565b6040518082815260200191505060405180910390f35b6100a56004803603604081101561008557600080fd5b810190808035906020019092919080359060200190929190505050610156565b604051808215151515815260200191505060405180910390f35b3480156100cb57600080fd5b506100d461045e565b6040518082815260200191505060405180910390f35b3480156100f657600080fd5b506101236004803603602081101561010d57600080fd5b8101908080359060200190929190505050610466565b6040518082815260200191505060405180910390f35b6000600660006004811061014957fe5b6002020160000154905090565b6000610160610484565b60405180604001604052808581526020013373ffffffffffffffffffffffffffffffffffffffff168152509050836006846004811061019b57fe5b6002020160000154106101b2576000915050610458565b6000670de0b6b3a764000090506101c76104b4565b60008090505b600481101561027c5785811461026f57600681600481106101ea57fe5b6002020160000154830392506006816004811061020357fe5b6002020160010160009054906101000a900473ffffffffffffffffffffffffffffffffffffffff1682826004811061023757fe5b602002019073ffffffffffffffffffffffffffffffffffffffff16908173ffffffffffffffffffffffffffffffffffffffff16815250505b80806001019150506101cd565b50858210156103b8573381866004811061029257fe5b602002019073ffffffffffffffffffffffffffffffffffffffff16908173ffffffffffffffffffffffffffffffffffffffff16815250506102d16104d6565b6040518060200160405280838152509050600e81908060018154018082558091505090600182039060005260206000209060040201600090919290919091506000820151816000019060046103279291906104ef565b505050503373ffffffffffffffffffffffffffffffffffffffff166108fc8489039081150290604051600060405180830381858888f19350505050158015610373573d6000803e3d6000fd5b5060008090505b60048110156103aa5760006006826004811061039257fe5b6002020160000181905550808060010191505061037a565b506001945050505050610458565b6103c0610484565b60405180604001604052808881526020013373ffffffffffffffffffffffffffffffffffffffff16815250905080600687600481106103fb57fe5b600202016000820151816000015560208201518160010160006101000a81548173ffffffffffffffffffffffffffffffffffffffff021916908373ffffffffffffffffffffffffffffffffffffffff160217905550905050505050505b92915050565b600047905090565b60006006826004811061047557fe5b60020201600001549050919050565b604051806040016040528060008152602001600073ffffffffffffffffffffffffffffffffffffffff1681525090565b6040518060800160405280600490602082028038833980820191505090505090565b60405180602001604052806104e961056c565b81525090565b826004810192821561055b579160200282015b8281111561055a5782518260006101000a81548173ffffffffffffffffffffffffffffffffffffffff021916908373ffffffffffffffffffffffffffffffffffffffff16021790555091602001919060010190610502565b5b509050610568919061058e565b5090565b6040518060800160405280600490602082028038833980820191505090505090565b6105ce91905b808211156105ca57600081816101000a81549073ffffffffffffffffffffffffffffffffffffffff021916905550600101610594565b5090565b9056fea265627a7a72315820a335f9798a07f480035be3e589d4cbe8bae099feea931889487ec159155e3e5a64736f6c63430005100032",
  "source": "// SPDX-License-Identifier: MIT\npragma solidity >=0.4.21 <0.7.0;\n// pragma solidity ^0.7.0;\n\ncontract Topic {\n  address topicCreator;\n\n  string name;\n  string description;\n  string[] options;\n  uint marketCap;\n  uint creatorBond;\n\n  // Pending votes\n  voteStruct[4] pendingVotes;\n  struct voteStruct {\n    uint price; \n    address voter;\n  }\n\n\n  // Successful trades\n  trade[] confirmedTrades;\n  struct trade {\n    address[4] shareOwners;\n  }\n\n  constructor (string memory _name) public payable {\n      name = _name;\n  }\n\n\n  function voteOption(uint amount, uint option) public payable returns(bool){\n    // 1. Transfer the money in\n    // 2. If can be resolved now, resolve it and transfer any remaining money\n    voteStruct memory vote = voteStruct(amount, msg.sender);\n\n    // Reject the vote if it is lower than the last available vote\n    if(pendingVotes[option].price >=  amount){\n      return false;\n    }\n\n    // Try to resolve the vote\n    uint balance = 1000000000000000000; \n    address[4] memory tempTrade;\n    for(uint i=0; i< 4; i++){\n      if(i != option){\n        balance = balance - pendingVotes[i].price; \n        tempTrade[i] = pendingVotes[i].voter;\n      }\n    }\n    \n    // Vote can go through\n    if(balance < amount){\n      // Confirm the trade\n      tempTrade[option] = msg.sender;\n      trade memory tradeConfirmed = trade(tempTrade);\n      confirmedTrades.push(tradeConfirmed);\n\n      // Send the remaining money back to the sender\n      msg.sender.transfer(amount - balance);\n      // Reset the pending votes instance\n      for(uint i =0; i< 4; i++){\n        pendingVotes[i].price =0; \n      }\n      return true;\n    }\n\n    // if vote cannot go through, update the pending votes and keep the money\n    else {\n      voteStruct memory tempVote = voteStruct(amount, msg.sender); \n      pendingVotes[option] = tempVote;\n    }\n  }\n\n  function getPendingVotePrice(uint option) view public returns(uint){\n    return pendingVotes[option].price;\n  } \n\n  function getAllPendingVotePrice() view public returns(uint){\n    // return pendingVotes[0].price,pendingVotes[1].price,pendingVotes[2].price,pendingVotes[3].price;\n    return pendingVotes[0].price;\n  } \n\n  //TODO: get All Successful trades, return an array of array of addresses\n  // function getAllSuccessfulTrades()\n\n  function balanceOf() external view returns(uint) {\n        return address(this).balance;\n    }\n\n\n}\n",
  "sourcePath": "/Users/collinlim/Desktop/Desktop.nosync/School/CZ4153/Project/Decentralised_Prediction_Market/contracts/Topic.sol",
  "compiler": {
    "name": "solc",
    "version": "0.5.16+commit.9c3226ce.Emscripten.clang"
  },
  "schemaVersion": "3.2.5",
  "updatedAt": "2020-10-12T05:47:03.126Z",
  "networkType": "ethereum",
  "devdoc": {
    "methods": {}
  },
  "userdoc": {
    "methods": {}
  }
}