{
  "contractName": "Topic",
  "abi": [
    {
      "inputs": [
        {
          "internalType": "address payable",
          "name": "_creator",
          "type": "address"
        },
        {
          "internalType": "string",
          "name": "_name",
          "type": "string"
        },
        {
          "internalType": "string",
          "name": "_description",
          "type": "string"
        },
        {
          "internalType": "bytes32[]",
          "name": "_options",
          "type": "bytes32[]"
        },
        {
          "internalType": "uint256",
          "name": "_bondValue",
          "type": "uint256"
        },
        {
          "internalType": "uint256",
          "name": "_expiryDate",
          "type": "uint256"
        },
        {
          "internalType": "address payable[]",
          "name": "_arbitrators",
          "type": "address[]"
        },
        {
          "internalType": "address",
          "name": "_predictionMarket",
          "type": "address"
        }
      ],
      "payable": true,
      "stateMutability": "payable",
      "type": "constructor"
    },
    {
      "anonymous": false,
      "inputs": [
        {
          "indexed": false,
          "internalType": "string",
          "name": "source",
          "type": "string"
        }
      ],
      "name": "ResolveCalled",
      "type": "event"
    },
    {
      "anonymous": false,
      "inputs": [
        {
          "indexed": false,
          "internalType": "address",
          "name": "add",
          "type": "address"
        },
        {
          "indexed": false,
          "internalType": "uint256[2]",
          "name": "beforeUpdate",
          "type": "uint256[2]"
        }
      ],
      "name": "UpdateWeightedVotes",
      "type": "event"
    },
    {
      "constant": true,
      "inputs": [
        {
          "internalType": "uint256",
          "name": "",
          "type": "uint256"
        }
      ],
      "name": "arbitrators",
      "outputs": [
        {
          "internalType": "address payable",
          "name": "",
          "type": "address"
        }
      ],
      "payable": false,
      "stateMutability": "view",
      "type": "function"
    },
    {
      "constant": true,
      "inputs": [
        {
          "internalType": "bytes32",
          "name": "",
          "type": "bytes32"
        },
        {
          "internalType": "uint256",
          "name": "",
          "type": "uint256"
        }
      ],
      "name": "arbitratorsVotes",
      "outputs": [
        {
          "internalType": "address",
          "name": "",
          "type": "address"
        }
      ],
      "payable": false,
      "stateMutability": "view",
      "type": "function"
    },
    {
      "constant": true,
      "inputs": [],
      "name": "contractPhase",
      "outputs": [
        {
          "internalType": "enum Topic.Phase",
          "name": "",
          "type": "uint8"
        }
      ],
      "payable": false,
      "stateMutability": "view",
      "type": "function"
    },
    {
      "constant": true,
      "inputs": [
        {
          "internalType": "bytes32",
          "name": "",
          "type": "bytes32"
        }
      ],
      "name": "countofArbVotes",
      "outputs": [
        {
          "internalType": "uint256",
          "name": "",
          "type": "uint256"
        }
      ],
      "payable": false,
      "stateMutability": "view",
      "type": "function"
    },
    {
      "constant": true,
      "inputs": [
        {
          "internalType": "bytes32",
          "name": "",
          "type": "bytes32"
        }
      ],
      "name": "countofJuryVotes",
      "outputs": [
        {
          "internalType": "uint256",
          "name": "",
          "type": "uint256"
        }
      ],
      "payable": false,
      "stateMutability": "view",
      "type": "function"
    },
    {
      "constant": true,
      "inputs": [],
      "name": "creatorBond",
      "outputs": [
        {
          "internalType": "uint256",
          "name": "",
          "type": "uint256"
        }
      ],
      "payable": false,
      "stateMutability": "view",
      "type": "function"
    },
    {
      "constant": true,
      "inputs": [],
      "name": "description",
      "outputs": [
        {
          "internalType": "string",
          "name": "",
          "type": "string"
        }
      ],
      "payable": false,
      "stateMutability": "view",
      "type": "function"
    },
    {
      "constant": true,
      "inputs": [],
      "name": "expiryDate",
      "outputs": [
        {
          "internalType": "uint256",
          "name": "",
          "type": "uint256"
        }
      ],
      "payable": false,
      "stateMutability": "view",
      "type": "function"
    },
    {
      "constant": true,
      "inputs": [
        {
          "internalType": "uint256",
          "name": "",
          "type": "uint256"
        }
      ],
      "name": "jury",
      "outputs": [
        {
          "internalType": "address payable",
          "name": "",
          "type": "address"
        }
      ],
      "payable": false,
      "stateMutability": "view",
      "type": "function"
    },
    {
      "constant": true,
      "inputs": [
        {
          "internalType": "bytes32",
          "name": "",
          "type": "bytes32"
        },
        {
          "internalType": "uint256",
          "name": "",
          "type": "uint256"
        }
      ],
      "name": "jurysVotes",
      "outputs": [
        {
          "internalType": "address",
          "name": "",
          "type": "address"
        }
      ],
      "payable": false,
      "stateMutability": "view",
      "type": "function"
    },
    {
      "constant": true,
      "inputs": [],
      "name": "marketCap",
      "outputs": [
        {
          "internalType": "uint256",
          "name": "",
          "type": "uint256"
        }
      ],
      "payable": false,
      "stateMutability": "view",
      "type": "function"
    },
    {
      "constant": true,
      "inputs": [],
      "name": "name",
      "outputs": [
        {
          "internalType": "string",
          "name": "",
          "type": "string"
        }
      ],
      "payable": false,
      "stateMutability": "view",
      "type": "function"
    },
    {
      "constant": true,
      "inputs": [
        {
          "internalType": "uint256",
          "name": "",
          "type": "uint256"
        }
      ],
      "name": "options",
      "outputs": [
        {
          "internalType": "bytes32",
          "name": "",
          "type": "bytes32"
        }
      ],
      "payable": false,
      "stateMutability": "view",
      "type": "function"
    },
    {
      "constant": true,
      "inputs": [
        {
          "internalType": "address",
          "name": "",
          "type": "address"
        }
      ],
      "name": "selectedArbitrators",
      "outputs": [
        {
          "internalType": "bool",
          "name": "isAssigned",
          "type": "bool"
        },
        {
          "internalType": "bool",
          "name": "hasVoted",
          "type": "bool"
        },
        {
          "internalType": "bytes32",
          "name": "votedOption",
          "type": "bytes32"
        }
      ],
      "payable": false,
      "stateMutability": "view",
      "type": "function"
    },
    {
      "constant": true,
      "inputs": [
        {
          "internalType": "address",
          "name": "",
          "type": "address"
        }
      ],
      "name": "selectedJurys",
      "outputs": [
        {
          "internalType": "bool",
          "name": "isAssigned",
          "type": "bool"
        },
        {
          "internalType": "bool",
          "name": "hasVoted",
          "type": "bool"
        },
        {
          "internalType": "bytes32",
          "name": "votedOption",
          "type": "bytes32"
        }
      ],
      "payable": false,
      "stateMutability": "view",
      "type": "function"
    },
    {
      "constant": true,
      "inputs": [],
      "name": "topicCreator",
      "outputs": [
        {
          "internalType": "address payable",
          "name": "",
          "type": "address"
        }
      ],
      "payable": false,
      "stateMutability": "view",
      "type": "function"
    },
    {
      "constant": true,
      "inputs": [],
      "name": "winningOptionIndex",
      "outputs": [
        {
          "internalType": "uint256",
          "name": "",
          "type": "uint256"
        }
      ],
      "payable": false,
      "stateMutability": "view",
      "type": "function"
    },
    {
      "constant": false,
      "inputs": [
        {
          "internalType": "uint256",
          "name": "option",
          "type": "uint256"
        }
      ],
      "name": "voteOption",
      "outputs": [
        {
          "internalType": "bool",
          "name": "",
          "type": "bool"
        }
      ],
      "payable": true,
      "stateMutability": "payable",
      "type": "function"
    },
    {
      "constant": false,
      "inputs": [],
      "name": "openOrResolvedPhaseToVerificationPhase",
      "outputs": [],
      "payable": false,
      "stateMutability": "nonpayable",
      "type": "function"
    },
    {
      "constant": false,
      "inputs": [
        {
          "internalType": "bytes32",
          "name": "_option",
          "type": "bytes32"
        },
        {
          "internalType": "bool",
          "name": "forUnitTest",
          "type": "bool"
        }
      ],
      "name": "addArbitratorVote",
      "outputs": [],
      "payable": false,
      "stateMutability": "nonpayable",
      "type": "function"
    },
    {
      "constant": false,
      "inputs": [
        {
          "internalType": "bytes32",
          "name": "_option",
          "type": "bytes32"
        },
        {
          "internalType": "bool",
          "name": "forUnitTest",
          "type": "bool"
        }
      ],
      "name": "addJuryVote",
      "outputs": [],
      "payable": false,
      "stateMutability": "nonpayable",
      "type": "function"
    },
    {
      "constant": true,
      "inputs": [],
      "name": "checkIfSelectedArbitrator",
      "outputs": [
        {
          "internalType": "bool",
          "name": "",
          "type": "bool"
        }
      ],
      "payable": false,
      "stateMutability": "view",
      "type": "function"
    },
    {
      "constant": true,
      "inputs": [],
      "name": "getArbitratorVerdict",
      "outputs": [
        {
          "internalType": "bool",
          "name": "",
          "type": "bool"
        },
        {
          "internalType": "uint256",
          "name": "",
          "type": "uint256"
        }
      ],
      "payable": false,
      "stateMutability": "view",
      "type": "function"
    },
    {
      "constant": false,
      "inputs": [
        {
          "internalType": "uint256",
          "name": "winIndex",
          "type": "uint256"
        }
      ],
      "name": "updateArbitratorsTrustworthiness",
      "outputs": [],
      "payable": false,
      "stateMutability": "nonpayable",
      "type": "function"
    },
    {
      "constant": false,
      "inputs": [
        {
          "internalType": "uint256",
          "name": "winIndex",
          "type": "uint256"
        },
        {
          "internalType": "bool",
          "name": "forUnitTest",
          "type": "bool"
        }
      ],
      "name": "resolveWithoutTie",
      "outputs": [
        {
          "internalType": "uint256",
          "name": "",
          "type": "uint256"
        }
      ],
      "payable": true,
      "stateMutability": "payable",
      "type": "function"
    },
    {
      "constant": false,
      "inputs": [],
      "name": "resolveWithTie",
      "outputs": [],
      "payable": false,
      "stateMutability": "nonpayable",
      "type": "function"
    },
    {
      "constant": true,
      "inputs": [],
      "name": "getAllPendingVotePrice",
      "outputs": [
        {
          "internalType": "bytes32[]",
          "name": "",
          "type": "bytes32[]"
        }
      ],
      "payable": false,
      "stateMutability": "view",
      "type": "function"
    },
    {
      "constant": true,
      "inputs": [],
      "name": "getLastTradedPrices",
      "outputs": [
        {
          "internalType": "bytes32[]",
          "name": "",
          "type": "bytes32[]"
        }
      ],
      "payable": false,
      "stateMutability": "view",
      "type": "function"
    },
    {
      "constant": true,
      "inputs": [],
      "name": "getLoseScores",
      "outputs": [
        {
          "internalType": "bytes32[]",
          "name": "",
          "type": "bytes32[]"
        }
      ],
      "payable": false,
      "stateMutability": "view",
      "type": "function"
    },
    {
      "constant": true,
      "inputs": [],
      "name": "getWinScores",
      "outputs": [
        {
          "internalType": "bytes32[]",
          "name": "",
          "type": "bytes32[]"
        }
      ],
      "payable": false,
      "stateMutability": "view",
      "type": "function"
    },
    {
      "constant": true,
      "inputs": [],
      "name": "balanceOf",
      "outputs": [
        {
          "internalType": "uint256",
          "name": "",
          "type": "uint256"
        }
      ],
      "payable": false,
      "stateMutability": "view",
      "type": "function"
    },
    {
      "constant": true,
      "inputs": [],
      "name": "getOptions",
      "outputs": [
        {
          "internalType": "bytes32[]",
          "name": "",
          "type": "bytes32[]"
        }
      ],
      "payable": false,
      "stateMutability": "view",
      "type": "function"
    },
    {
      "constant": true,
      "inputs": [],
      "name": "getArbitrators",
      "outputs": [
        {
          "internalType": "address payable[]",
          "name": "",
          "type": "address[]"
        }
      ],
      "payable": false,
      "stateMutability": "view",
      "type": "function"
    },
    {
      "constant": true,
      "inputs": [],
      "name": "getJury",
      "outputs": [
        {
          "internalType": "address payable[]",
          "name": "",
          "type": "address[]"
        }
      ],
      "payable": false,
      "stateMutability": "view",
      "type": "function"
    },
    {
      "constant": true,
      "inputs": [
        {
          "internalType": "address",
          "name": "arbitratorAddress",
          "type": "address"
        }
      ],
      "name": "hasArbitratorVoted",
      "outputs": [
        {
          "internalType": "bool",
          "name": "",
          "type": "bool"
        }
      ],
      "payable": false,
      "stateMutability": "view",
      "type": "function"
    },
    {
      "constant": true,
      "inputs": [
        {
          "internalType": "address",
          "name": "juryAddress",
          "type": "address"
        }
      ],
      "name": "hasJuryVoted",
      "outputs": [
        {
          "internalType": "bool",
          "name": "",
          "type": "bool"
        }
      ],
      "payable": false,
      "stateMutability": "view",
      "type": "function"
    },
    {
      "constant": true,
      "inputs": [],
      "name": "getNumOfJurySelected",
      "outputs": [
        {
          "internalType": "uint256",
          "name": "",
          "type": "uint256"
        }
      ],
      "payable": false,
      "stateMutability": "view",
      "type": "function"
    },
    {
      "constant": true,
      "inputs": [],
      "name": "getLastConfirmedTradeAddresses",
      "outputs": [
        {
          "internalType": "address",
          "name": "",
          "type": "address"
        },
        {
          "internalType": "address",
          "name": "",
          "type": "address"
        },
        {
          "internalType": "address",
          "name": "",
          "type": "address"
        },
        {
          "internalType": "address",
          "name": "",
          "type": "address"
        }
      ],
      "payable": false,
      "stateMutability": "view",
      "type": "function"
    }
  ],
  "bytecode": "0x60806040819052602a805460ff1916905562002e623881900390819083398181016040526101008110156200003357600080fd5b8151602083018051604051929492938301929190846401000000008211156200005b57600080fd5b9083019060208201858111156200007157600080fd5b82516401000000008111828201881017156200008c57600080fd5b82525081516020918201929091019080838360005b83811015620000bb578181015183820152602001620000a1565b50505050905090810190601f168015620000e95780820380516001836020036101000a031916815260200191505b50604052602001805160405193929190846401000000008211156200010d57600080fd5b9083019060208201858111156200012357600080fd5b82516401000000008111828201881017156200013e57600080fd5b82525081516020918201929091019080838360005b838110156200016d57818101518382015260200162000153565b50505050905090810190601f1680156200019b5780820380516001836020036101000a031916815260200191505b5060405260200180516040519392919084640100000000821115620001bf57600080fd5b908301906020820185811115620001d557600080fd5b8251866020820283011164010000000082111715620001f357600080fd5b82525081516020918201928201910280838360005b838110156200022257818101518382015260200162000208565b5050505091909101604081815260208401519084015160609094018051919694959294935090846401000000008211156200025c57600080fd5b9083019060208201858111156200027257600080fd5b82518660208202830111640100000000821117156200029057600080fd5b82525081516020918201928201910280838360005b83811015620002bf578181015183820152602001620002a5565b505050509190910160405250602090810151600a80546001600160a01b038084166001600160a01b03199283161790925560008054928e169290911691909117905589519093506200031892506001918a0190620004af565b5085516200032e906002906020890190620004af565b5084516200034490600390602088019062000534565b5060006004556005849055600683905581516200036990600790602085019062000571565b50600a805461ffff60a01b1916601760a01b1760ff60b01b19168155600c805460ff1916905560095560005b8551811015620003ff576040805180820190915260008082526020820152600f8260048110620003c157fe5b825160029190910291909101908155602090910151600191820180546001600160a01b0319166001600160a01b039092169190911790550162000395565b5060005b8251811015620004a05760405180606001604052806001151581526020016000151581526020016000801b815250602460008584815181106200044257fe5b6020908102919091018101516001600160a01b03168252818101929092526040908101600020835181549385015115156101000261ff001991151560ff19909516949094171692909217825591909101516001918201550162000403565b5050505050505050506200061e565b828054600181600116156101000203166002900490600052602060002090601f016020900481019282601f10620004f257805160ff191683800117855562000522565b8280016001018555821562000522579182015b828111156200052257825182559160200191906001019062000505565b5062000530929150620005d7565b5090565b8280548282559060005260206000209081019282156200052257916020028201828111156200052257825182559160200191906001019062000505565b828054828255906000526020600020908101928215620005c9579160200282015b82811115620005c957825182546001600160a01b0319166001600160a01b0390911617825560209092019160019091019062000592565b5062000530929150620005f7565b620005f491905b80821115620005305760008155600101620005de565b90565b620005f491905b80821115620005305780546001600160a01b0319168155600101620005fe565b612834806200062e6000396000f3fe6080604052600436106102255760003560e01c8063894c3b1f11610123578063c617339b116100ab578063e6ff50961161006f578063e6ff509614610780578063e8a1e12e146107d3578063f06e3e2e146107e8578063f4c6284b1461081b578063fbcc1e711461084d57610225565b8063c617339b146106c9578063cc2ee196146106fc578063cc7e621014610711578063d3901fb51461073b578063e6cd5a111461075057610225565b8063a8323176116100f2578063a83231761461062e578063b1d5362b14610643578063b55eb88b14610675578063bc0da8d31461069f578063bfb0b608146106b457610225565b8063894c3b1f146105b55780639570400f146105ca57806395e56a84146105ef578063a6430cc01461060457610225565b80634852aa6d116101b15780636f0f9f5e116101755780636f0f9f5e146105145780636f36ec2314610544578063722713f7146105615780637284e41614610576578063729ecb071461058b57610225565b80634852aa6d1461045d578063516dde43146104a957806357cde0e6146104be57806366d4bfac146104d35780636b958f13146104fd57610225565b80632c135b93116101f85780632c135b93146103a95780632d978163146103d0578063409e220514610409578063459d6e4f14610433578063465be85f1461044857610225565b806306fdde031461022a578063123230df146102b457806312b8b1a3146102fd578063288fa80214610344575b600080fd5b34801561023657600080fd5b5061023f610862565b6040805160208082528351818301528351919283929083019185019080838360005b83811015610279578181015183820152602001610261565b50505050905090810190601f1680156102a65780820380516001836020036101000a031916815260200191505b509250505060405180910390f35b3480156102c057600080fd5b506102c96108ef565b604080516001600160a01b039586168152938516602085015291841683830152909216606082015290519081900360800190f35b34801561030957600080fd5b506103306004803603602081101561032057600080fd5b50356001600160a01b031661098d565b604080519115158252519081900360200190f35b34801561035057600080fd5b506103596109b4565b60408051602080825283518183015283519192839290830191858101910280838360005b8381101561039557818101518382015260200161037d565b505050509050019250505060405180910390f35b3480156103b557600080fd5b506103be610a21565b60408051918252519081900360200190f35b3480156103dc57600080fd5b506103e5610a27565b604051808260038111156103f557fe5b60ff16815260200191505060405180910390f35b34801561041557600080fd5b506103be6004803603602081101561042c57600080fd5b5035610a30565b34801561043f57600080fd5b506103be610a4e565b34801561045457600080fd5b50610359610a54565b34801561046957600080fd5b5061048d6004803603604081101561048057600080fd5b5080359060200135610ab6565b604080516001600160a01b039092168252519081900360200190f35b3480156104b557600080fd5b506103be610aeb565b3480156104ca57600080fd5b506103be610af1565b3480156104df57600080fd5b506103be600480360360208110156104f657600080fd5b5035610af7565b34801561050957600080fd5b50610512610b09565b005b34801561052057600080fd5b50610529610b4d565b60408051921515835260208301919091528051918290030190f35b6103306004803603602081101561055a57600080fd5b5035610bc5565b34801561056d57600080fd5b506103be610f7d565b34801561058257600080fd5b5061023f610f81565b34801561059757600080fd5b5061048d600480360360208110156105ae57600080fd5b5035610fd9565b3480156105c157600080fd5b50610359611000565b6103be600480360360408110156105e057600080fd5b50803590602001351515611060565b3480156105fb57600080fd5b50610359611303565b34801561061057600080fd5b5061048d6004803603602081101561062757600080fd5b5035611366565b34801561063a57600080fd5b50610512611373565b34801561064f57600080fd5b506105126004803603604081101561066657600080fd5b50803590602001351515611388565b34801561068157600080fd5b506105126004803603602081101561069857600080fd5b50356114fa565b3480156106ab57600080fd5b506103596116c1565b3480156106c057600080fd5b50610359611724565b3480156106d557600080fd5b50610330600480360360208110156106ec57600080fd5b50356001600160a01b0316611787565b34801561070857600080fd5b506103596117aa565b34801561071d57600080fd5b506103be6004803603602081101561073457600080fd5b5035611801565b34801561074757600080fd5b50610330611813565b34801561075c57600080fd5b5061048d6004803603604081101561077357600080fd5b5080359060200135611829565b34801561078c57600080fd5b506107b3600480360360208110156107a357600080fd5b50356001600160a01b0316611842565b604080519315158452911515602084015282820152519081900360600190f35b3480156107df57600080fd5b506103be611868565b3480156107f457600080fd5b506107b36004803603602081101561080b57600080fd5b50356001600160a01b031661186e565b34801561082757600080fd5b506105126004803603604081101561083e57600080fd5b50803590602001351515611894565b34801561085957600080fd5b5061048d6119c4565b60018054604080516020600284861615610100026000190190941693909304601f810184900484028201840190925281815292918301828280156108e75780601f106108bc576101008083540402835291602001916108e7565b820191906000526020600020905b8154815290600101906020018083116108ca57829003601f168201915b505050505081565b6000806000806108fd6126c4565b60238054600019810190811061090f57fe5b60009182526020918290206040805160a081019182905293600493840290920192849283019184919082845b81546001600160a01b0316815260019091019060200180831161093b57505050505081525050905061096b6126dc565b5051805160208201516040830151606090930151919790965091945092509050565b6001600160a01b038116600090815260246020526040902054610100900460ff165b919050565b60408051600480825260a08201909252606091908290826020820160808038833901905050905060005b82811015610a1957600f81600481106109f357fe5b60020201548251839083908110610a0657fe5b60209081029190910101526001016109de565b509150505b90565b60045481565b602a5460ff1681565b60038181548110610a3d57fe5b600091825260209091200154905081565b60055481565b60606008805480602002602001604051908101604052809291908181526020018280548015610aac57602002820191906000526020600020905b81546001600160a01b03168152600190910190602001808311610a8e575b5050505050905090565b60256020528160005260406000208181548110610acf57fe5b6000918252602090912001546001600160a01b03169150829050565b60065481565b60095481565b60296020526000908152604090205481565b6000602a5460ff166003811115610b1c57fe5b1480610b3857506003602a5460ff166003811115610b3657fe5b145b15610b4b57602a805460ff191660011790555b565b600080808080805b600354811015610bbb5760006026600060038481548110610b7257fe5b9060005260206000200154815260200190815260200160002054905084811115610ba55780945060009250819350610bb2565b84811415610bb257600192505b50600101610b55565b5093509150509091565b3360009081526024602052604081205460ff1615610be257600080fd5b6000602a5460ff166003811115610bf557fe5b14610bff57600080fd5b34670de0b6b3a76400008110610c1457600080fd5b80600f8460048110610c2257fe5b600202015410610c3157600080fd5b600a546040805163310ad0b760e11b815233600482015290516001600160a01b03909216916000918391636215a16e91602480820192602092909190829003018186803b158015610c8157600080fd5b505afa158015610c95573d6000803e3d6000fd5b505050506040513d6020811015610cab57600080fd5b5051905080610cb957600080fd5b600f8560048110610cc657fe5b60020201600101546001600160a01b03166108fc600f8760048110610ce757fe5b60020201546040518115909202916000818181858888f19350505050158015610d14573d6000803e3d6000fd5b50670de0b6b3a7640000610d266126dc565b60005b6004811015610d9557878114610d8d57600f8160048110610d4657fe5b600202015490920391600f8160048110610d5c57fe5b60020201600101546001600160a01b0316828260048110610d7957fe5b6001600160a01b0390921660209290920201525b600101610d29565b50336000908152600d60205260409020805460ff19166001179055848211610f105733818860048110610dc457fe5b6001600160a01b039092166020929092020152610ddf6126c4565b50604080516020810190915281815260238054600181018083556000929092528251839160049081027fd57b2b5166478fd4318d2acc6cc2c704584312bdd8781b32d5d06abda57f42300191610e37918391906126fa565b506000925050505b6004811015610e8f5788811415610e65578360178260048110610e5e57fe5b0155610e87565b600f8160048110610e7257fe5b600202015460178260048110610e8457fe5b01555b600101610e3f565b50604051339084880380156108fc02916000818181858888f19350505050158015610ebe573d6000803e3d6000fd5b50610ec76119d3565b60005b6004811015610eef576000600f8260048110610ee257fe5b6002020155600101610eca565b505060048054670de0b6b3a764000001905550600194506109af9350505050565b610f18612752565b506040805180820190915285815233602082015280600f8960048110610f3a57fe5b825160029190910291909101908155602090910151600190910180546001600160a01b0319166001600160a01b0390921691909117905550949695505050505050565b4790565b6002805460408051602060018416156101000260001901909316849004601f810184900484028201840190925281815292918301828280156108e75780601f106108bc576101008083540402835291602001916108e7565b60088181548110610fe657fe5b6000918252602090912001546001600160a01b0316905081565b60606007805480602002602001604051908101604052809291908181526020018280548015610aac576020028201919060005260206000209081546001600160a01b03168152600190910190602001808311610a8e575050505050905090565b600080602a5460ff16600381111561107457fe5b1415801561109357506003602a5460ff16600381111561109057fe5b14155b61109c57600080fd5b600a546001600160a01b03166000805b6023548110156112a85760005b602382815481106110c657fe5b50600052600481101561129f5760006001600160a01b0316602383815481106110eb57fe5b9060005260206000209060040201600001826004811061110757fe5b01546001600160a01b0316146112975782600a019250868114156111fe57836001600160a01b0316636e193a596023848154811061114157fe5b9060005260206000209060040201600001836004811061115d57fe5b0154604080516001600160e01b031960e085901b1681526001600160a01b03909216600483015251602480830192600092919082900301818387803b1580156111a557600080fd5b505af11580156111b9573d6000803e3d6000fd5b505050506111f9602383815481106111cd57fe5b906000526020600020906004020160000182600481106111e957fe5b01546001600160a01b0316611bfb565b611297565b836001600160a01b031663cd1e0b6d6023848154811061121a57fe5b9060005260206000209060040201600001836004811061123657fe5b0154604080516001600160e01b031960e085901b1681526001600160a01b03909216600483015251602480830192600092919082900301818387803b15801561127e57600080fd5b505af1158015611292573d6000803e3d6000fd5b505050505b6001016110b9565b506001016110ac565b506112b2856114fa565b836112ee576112c085611c8d565b6002602a5460ff1660038111156112d357fe5b146112e5576112e0611d6a565b6112ee565b6112ee85611e58565b602a805460ff19166003179055949350505050565b60408051600480825260a08201909252606091908290826020820160808038833901905050905060005b82811015610a19576017816004811061134257fe5b015460001b82828151811061135357fe5b602090810291909101015260010161132d565b60078181548110610fe657fe5b602a805460ff19166002179055610b4b611fcc565b6000602a5460ff16600381111561139b57fe5b14156113af57602a805460ff191660011790555b6001602a5460ff1660038111156113c257fe5b146113cc57600080fd5b33600090815260246020526040902054610100900460ff16156113ee57600080fd5b3360009081526024602052604090205460ff1661140a57600080fd5b336000818152602460209081526040808320805461010061ff0019909116178155600190810187905586845260258352818420805480830182559085528385200180546001600160a01b03191690951790945585835260269091529020805482019055600a805460ff60b01b19811660ff600160b01b928390048116909401841682021791829055600754910490911614156114f657604080516020808252600a908201526920b93134ba3930ba37b960b11b8183015290517f21f0146f421195b1872d8b4b0ef2c37e13a25a518f7a902d98ae120c530beebc9181900360600190a16114f6816125c6565b5050565b600a546001600160a01b031660005b6003548110156116bc5760005b602560006003848154811061152757fe5b90600052602060002001548152602001908152602001600020805490508110156116b3578382141561160157826001600160a01b031663457dac02602560006003868154811061157357fe5b90600052602060002001548152602001908152602001600020838154811061159757fe5b6000918252602082200154604080516001600160e01b031960e086901b1681526001600160a01b039092166004830152516024808301939282900301818387803b1580156115e457600080fd5b505af11580156115f8573d6000803e3d6000fd5b505050506116ab565b826001600160a01b03166399667bdc602560006003868154811061162157fe5b90600052602060002001548152602001908152602001600020838154811061164557fe5b6000918252602082200154604080516001600160e01b031960e086901b1681526001600160a01b039092166004830152516024808301939282900301818387803b15801561169257600080fd5b505af11580156116a6573d6000803e3d6000fd5b505050505b600101611516565b50600101611509565b505050565b60408051600480825260a08201909252606091908290826020820160808038833901905050905060005b82811015610a1957601f816004811061170057fe5b015460001b82828151811061171157fe5b60209081029190910101526001016116eb565b60408051600480825260a08201909252606091908290826020820160808038833901905050905060005b82811015610a1957601b816004811061176357fe5b015460001b82828151811061177457fe5b602090810291909101015260010161174e565b6001600160a01b0316600090815260276020526040902054610100900460ff1690565b60606003805480602002602001604051908101604052809291908181526020018280548015610aac57602002820191906000526020600020905b8154815260200190600101908083116117e4575050505050905090565b60266020526000908152604090205481565b3360009081526024602052604090205460ff1690565b60286020528160005260406000208181548110610acf57fe5b6027602052600090815260409020805460019091015460ff808316926101009004169083565b600b5490565b6024602052600090815260409020805460019091015460ff808316926101009004169083565b6002602a5460ff1660038111156118a757fe5b146118b157600080fd5b33600090815260276020526040902054610100900460ff16156118d357600080fd5b3360009081526027602052604090205460ff166118ef57600080fd5b336000818152602760209081526040808320805461ff001916610100178155600190810187905586845260288352818420805480830182559085528385200180546001600160a01b03191690951790945585835260299091529020805482019055600c805460ff818116909301831660ff199091161790819055600b54911614156114f657604080516020808252600490820152634a75727960e01b8183015290517f21f0146f421195b1872d8b4b0ef2c37e13a25a518f7a902d98ae120c530beebc9181900360600190a16114f6816125c6565b6000546001600160a01b031681565b600a546001600160a01b03166119e76126c4565b6023805460001981019081106119f957fe5b60009182526020918290206040805160a081019182905293600493840290920192849283019184919082845b81546001600160a01b03168152600190910190602001808311611a2557505050505081525050905060008090505b60048110156116bc5781516000908260048110611a6c57fe5b602002015190506001600160a01b03811615611bf257611a8a612769565b60408051633d59f85b60e01b81526001600160a01b038481166004830152825190881692633d59f85b9260248082019391829003018186803b158015611acf57600080fd5b505afa158015611ae3573d6000803e3d6000fd5b505050506040513d601f19601f820116820180604052506040811015611b0857600080fd5b50604080516001600160a01b03851681529192507f405f4ccba46549b1dbd2e5bfbf7248e032b3b50a1a6d65140c30c83a176d192e9184918491906020820190839080838360005b83811015611b68578181015183820152602001611b50565b505050509050019250505060405180910390a160178360048110611b8857fe5b0154815102601b8460048110611b9a57fe5b015401601b8460048110611baa57fe5b015560178360048110611bb957fe5b015460010381600160028110611bcb57fe5b602002015102601f8460048110611bde57fe5b015401601f8460048110611bee57fe5b0155505b50600101611a53565b6001600160a01b0381166000908152600e602052604090205460ff16611c8a576001600160a01b0381166000818152600e6020526040808220805460ff1916600117905551670d99a8cec7e200009082818181858883f19350505050158015611c68573d6000803e3d6000fd5b506001600160a01b0381166000908152600e60205260409020805460ff191690555b50565b6000606460045481611c9b57fe5b049050600060038381548110611cad57fe5b600091825260208083209091015480835260269091526040822054909250905b81811015611d63576000838152602560205260408120805483908110611cef57fe5b60009182526020808320909101546001600160a01b0316808352600e9091526040909120805460ff191660011790559050806108fc848781611d2d57fe5b049081150290604051600060405180830381858888f19350505050158015611d59573d6000803e3d6000fd5b5050600101611ccd565b5050505050565b600080546001600160a01b03168152600e602052604090205460ff16610b4b57600080546001600160a01b039081168252600e60205260408220805460ff1916600117905590546004549116906108fc90606490049081150290604051600060405180830381858888f19350505050158015611dea573d6000803e3d6000fd5b50600a54600080546005546040805163175473d760e11b81526001600160a01b03938416600482015260248101929092525191909316928392632ea8e7ae9260448084019382900301818387803b158015611e4457600080fd5b505af1158015611d63573d6000803e3d6000fd5b600a546004546001600160a01b0390911690600090606490049050600060038481548110611e8257fe5b600091825260208083209091015480835260299091526040822054909250905b81811015611fc4576000838152602860205260408120805483908110611ec457fe5b60009182526020808320909101546001600160a01b0316808352600e90915260408220805460ff191660011790559150838681611efd57fe5b049050866001600160a01b0316632ea8e7ae838660055481611f1b57fe5b046040518363ffffffff1660e01b815260040180836001600160a01b03166001600160a01b0316815260200182815260200192505050600060405180830381600087803b158015611f6b57600080fd5b505af1158015611f7f573d6000803e3d6000fd5b50506040516001600160a01b038516925083156108fc02915083906000818181858888f19350505050158015611fb9573d6000803e3d6000fd5b505050600101611ea2565b505050505050565b600a546040805163193ca33d60e31b815290516001600160a01b0390921691606091839163c9e519e891600480820192600092909190829003018186803b15801561201657600080fd5b505afa15801561202a573d6000803e3d6000fd5b505050506040513d6000823e601f3d908101601f19168201604052602081101561205357600080fd5b810190808051604051939291908464010000000082111561207357600080fd5b90830190602082018581111561208857600080fd5b82518660208202830111640100000000821117156120a557600080fd5b82525081516020918201928201910280838360005b838110156120d25781810151838201526020016120ba565b505050509050016040525050509050600560078054905082510311612271576000600780549050825103905060608160405190808252806020026020018201604052801561212a578160200160208202803883390190505b5090506000805b845181101561224f57600085828151811061214857fe5b6020908102919091018101516001600160a01b0381166000908152602490925260409091205490915060ff168061218c57506000546001600160a01b038281169116145b806121af57506001600160a01b0381166000908152600d602052604090205460ff165b156121ba5750612247565b604080516060810182526001808252600060208084018281528486018381526001600160a01b038816845260279092529490912092518354945115156101000261ff001991151560ff19909616959095171693909317825591519101558351819085908590811061222757fe5b6001600160a01b0390921660209283029190910190910152506001909101905b600101612131565b508151612263906008906020850190612787565b50600b5550610b4b92505050565b60608151600a026040519080825280602002602001820160405280156122a1578160200160208202803883390190505b5090506000805b835181101561240d5760008482815181106122bf57fe5b6020908102919091018101516001600160a01b0381166000908152602490925260409091205490915060ff168061230357506000546001600160a01b038281169116145b8061232657506001600160a01b0381166000908152600d602052604090205460ff165b156123315750612405565b6000866001600160a01b03166351d0ea37836040518263ffffffff1660e01b815260040180826001600160a01b03166001600160a01b0316815260200191505060606040518083038186803b15801561238957600080fd5b505afa15801561239d573d6000803e3d6000fd5b505050506040513d60608110156123b357600080fd5b50602001519050600a60ff82160460005b8160ff1681101561240057838787815181106123dc57fe5b6001600160a01b0390921660209283029190910190910152600195860195016123c4565b505050505b6001016122a8565b5060408051600580825260c082019092526060916020820160a080388339019050509050600060335b600582108015612449575060008160ff16115b156125a757600a5460408051426020808301919091523360601b82840152600160a01b90930460f01b6001600160f01b031916605482015281518082036036018152605690910190915280519101206000908590816124a457fe5b600a8054600161ffff600160a01b808404821692909201160261ffff60a01b19909116179055875191900691506000908790839081106124e057fe5b6020908102919091018101516001600160a01b0381166000908152602790925260409091205490915060ff1661259c57604080516060810182526001808252600060208084018281528486018381526001600160a01b038816845260279092529490912092518354945115156101000261ff001991151560ff19909616959095171693909317825591519101558451819086908690811061257d57fe5b6001600160a01b03909216602092830291909101909101526001909301925b505060001901612436565b82516125ba906008906020860190612787565b5050600b555050505050565b6000602a5460ff1660038111156125d957fe5b141580156125f857506003602a5460ff1660038111156125f557fe5b14155b61260157600080fd5b6002602a5460ff16600381111561261457fe5b141561263c57600061262461266d565b600981905590506126358183611060565b5050611c8a565b600080612647610b4d565b915091508161266557600981905561265f8184611060565b506116bc565b6116bc611373565b60008080805b600354811015610a19576000602960006003848154811061269057fe5b90600052602060002001548152602001908152602001600020549050838111156126bb578093508192505b50600101612673565b60405180602001604052806126d76126dc565b905290565b60405180608001604052806004906020820280388339509192915050565b8260048101928215612742579160200282015b8281111561274257825182546001600160a01b0319166001600160a01b0390911617825560209092019160019091019061270d565b5061274e9291506127db565b5090565b604080518082019091526000808252602082015290565b60405180604001604052806002906020820280388339509192915050565b828054828255906000526020600020908101928215612742579160200282018281111561274257825182546001600160a01b0319166001600160a01b0390911617825560209092019160019091019061270d565b610a1e91905b8082111561274e5780546001600160a01b03191681556001016127e156fea265627a7a7231582018e7223d458bb60696843e9248513bb83ba949f8e766b178e5ed33280a85c29764736f6c63430005100032",
  "source": "// SPDX-License-Identifier: MIT\npragma solidity >=0.4.21 <=0.7.0;\nimport \"./PredictionMarket.sol\";\n// import \"github.com/OpenZeppelin/zeppelin-solidity/contracts/math/SafeMath.sol\";\n\ncontract Topic {\n  // Public attirbutes\n  address payable public topicCreator;\n  string public name;\n  string public description;\n  bytes32[] public options;\n  uint public marketCap;\n  uint public creatorBond;\n  uint256 public expiryDate;\n  address payable[] public arbitrators;\n  address payable[] public jury;\n  uint public winningOptionIndex;\n\n  // Private attributes\n  address parentContract;\n  uint16 nonce;\n  uint8 numArbitratorVoted;\n  uint numOfJury;\n  uint8 numJuryVoted;\n  mapping (address => bool) hasBoughtShare;\n\n  // Guard against reentrancy => applicable for all receivers of ether\n  mapping (address => bool) hasReceivedPayout;\n\n  // Pending votes\n  voteStruct[4] pendingVotes;\n  struct voteStruct {\n    uint price; \n    address payable voter;\n  }\n\n  // Last Traded Prices\n  uint[4] lastTradedPrices;\n\n  // weighted votes\n  uint[4] winScores;\n  uint[4] loseScores;\n\n  // Successful trades\n  trade[] confirmedTrades;\n  struct trade {\n    address payable[4] shareOwners;\n  }\n\n  // Arbitrator voting related variables\n  struct SelectedArbitrator {\n        bool isAssigned;\n        bool hasVoted;\n        bytes32 votedOption;\n  }\n\n  mapping (address => SelectedArbitrator) public selectedArbitrators;\n  mapping (bytes32 => address[]) public arbitratorsVotes;\n  mapping (bytes32 => uint) public countofArbVotes;\n\n  // Jury voting related variables\n  struct SelectedJury {\n      bool isAssigned;\n      bool hasVoted;\n      bytes32 votedOption;\n  }\n  mapping (address => SelectedJury) public selectedJurys;\n  mapping (bytes32 => address[]) public jurysVotes;\n  mapping (bytes32 => uint) public countofJuryVotes;\n\n  // State of contract\n  // 0 => Open, 1 => Arbitrator Voting, 2 => Jury Voting, 3 => Resolved / closed\n  enum Phase { Open, Verification, Jury, Resolved }\n  Phase public contractPhase = Phase.Open;\n\n  // NOTE: Ignore linter warning about visibility modifier being ignored. \n  // It is required for successful compilation\n  constructor (\n      address payable _creator, string memory _name, string memory _description, bytes32[] memory _options, \n      uint _bondValue, uint256 _expiryDate, address payable[] memory _arbitrators, address _predictionMarket\n    ) public payable {\n        parentContract = _predictionMarket;\n        topicCreator = _creator;\n        name = _name;\n        description = _description;\n        options = _options;\n        marketCap = 0;\n        creatorBond = _bondValue;\n        expiryDate = _expiryDate;\n        arbitrators = _arbitrators;\n\n        nonce = 23; // NOTE: Random number for the nonce\n        numArbitratorVoted = 0;\n        numJuryVoted = 0;\n        winningOptionIndex = 10; // Assign random value not within [0, 3]\n\n        // init pending votes\n        for (uint i = 0; i < _options.length; i++) {\n          pendingVotes[i] = voteStruct(0, address(0));\n        }\n\n        for (uint j = 0; j < _arbitrators.length; j++) {\n          selectedArbitrators[_arbitrators[j]] = SelectedArbitrator(true, false, bytes32(0));\n        }\n    }\n\n// TODO: TEST CASES\n  function updateWeightedVotes() private {\n    PredictionMarket pm = PredictionMarket(parentContract);\n    trade memory lastTrade = confirmedTrades[confirmedTrades.length - 1];\n    for(uint i=0; i<4; i++){\n      address voterAddress = lastTrade.shareOwners[i]; \n      \n      if(voterAddress != address(0)){\n        // getVotersReputation only accepts a valid voterAddress. \n        uint[2] memory winLose = pm.getVotersReputation(voterAddress);   \n        emit UpdateWeightedVotes(voterAddress, winLose);\n        winScores[i] = winScores[i] + (winLose[0] * lastTradedPrices[i]);\n        loseScores[i] = loseScores[i] + (winLose[1] * (1 - lastTradedPrices[i]));\n      }\n    }\n  }\n     \n  function voteOption(uint option) public payable returns(bool){\n    require(!selectedArbitrators[msg.sender].isAssigned);\n    require(contractPhase == Phase.Open);\n\n    uint amount = msg.value;\n    require(msg.value < 1 ether);\n    // Reject the vote if it is lower than the last available vote\n    require(pendingVotes[option].price <  amount);\n\n    // Check if the voter is valid\n    PredictionMarket pm = PredictionMarket(parentContract);\n    bool validTrader = pm.checkValidTrader(msg.sender);\n    require(validTrader);\n\n    // If the vote is higher than the last available price, send money back to the previous voter\n    pendingVotes[option].voter.transfer(pendingVotes[option].price);\n\n    // Balance to decide if the vote goes through\n    uint balance = 1 ether; \n\n    // Entry to insert into the confirmed trades if vote goes through\n    address payable[4] memory tempTrade;\n\n    for(uint i=0; i< 4; i++){\n      if(i != option){\n        balance = balance - pendingVotes[i].price; \n        tempTrade[i] = pendingVotes[i].voter;\n      }\n    }\n\n    // Update hasBoughtShare\n    hasBoughtShare[msg.sender] = true;\n    \n    // If vote can go through\n    if(balance <= amount){\n      \n      // 1) Confirm the trade by putting it into trade confirmed\n      tempTrade[option] = msg.sender;\n      trade memory tradeConfirmed = trade(tempTrade);\n      confirmedTrades.push(tradeConfirmed);\n      \n      // 2) Update the lastTradedPrices\n      for(uint i=0; i< 4; i++){\n        if(i == option){\n          lastTradedPrices[i] = balance;\n        }\n        else{\n          lastTradedPrices[i]= pendingVotes[i].price;\n        }\n      }\n      \n\n      // 3) Send the remaining money back to the sender\n      msg.sender.transfer(amount - balance);\n\n      // 4) Update the weighted votes according to the last trade\n      updateWeightedVotes();\n\n      // 5) Reset the pending votes instance\n      for(uint i =0; i< 4; i++){\n        pendingVotes[i].price =0; \n      }\n\n      // 6) Add to market cap for future payouts calculations\n      marketCap += 1 ether;\n      return true;\n    }\n\n    // If vote cannot go through\n    else {\n      // Update the pending votes\n      voteStruct memory tempVote = voteStruct(amount, msg.sender); \n      pendingVotes[option] = tempVote;\n    }\n  }\n\n  function openOrResolvedPhaseToVerificationPhase() public {\n    if (contractPhase == Phase.Open || contractPhase == Phase.Resolved) { // TODO: @jee, should we refactor this from addArbitratorVote cos this is needed in unit testing\n      contractPhase = Phase.Verification;\n    }\n  }\n\n  function addArbitratorVote(bytes32 _option, bool forUnitTest) public { // FIXME: Remove unit test options before deploying to testnet!\n    // Shift contract phase\n    if (contractPhase == Phase.Open) { // TODO: Add check for expiry date as well!\n      contractPhase = Phase.Verification;\n      // refundPendingVotes();\n    }\n    require(contractPhase == Phase.Verification);\n    require(!selectedArbitrators[msg.sender].hasVoted); //no double voting\n    require(selectedArbitrators[msg.sender].isAssigned);\n    selectedArbitrators[msg.sender].hasVoted = true;\n    selectedArbitrators[msg.sender].votedOption = _option;\n    arbitratorsVotes[_option].push(msg.sender);\n    countofArbVotes[_option]++;\n\n    // Trigger resolve if all selected arbitrators have voted\n    numArbitratorVoted++;\n    if (numArbitratorVoted == arbitrators.length) {\n      emit ResolveCalled(\"Arbitrator\");\n      resolve(forUnitTest);\n    }\n  }\n\n  function addJuryVote(bytes32 _option, bool forUnitTest) public { // FIXME: Remove unit test options before deploying to testnet!\n    require(contractPhase == Phase.Jury); // require it to be in jury phase\n    require(!selectedJurys[msg.sender].hasVoted); //no double voting\n    require(selectedJurys[msg.sender].isAssigned);\n    selectedJurys[msg.sender].hasVoted = true;\n    selectedJurys[msg.sender].votedOption = _option;\n    jurysVotes[_option].push(msg.sender);\n    countofJuryVotes[_option]++;\n\n    // Trigger resolve if all selected jury have voted\n    numJuryVoted++;\n    if (numJuryVoted == numOfJury) {\n      emit ResolveCalled(\"Jury\");\n      resolve(forUnitTest);\n    }\n  }\n\n  // Getter function for test\n  function checkIfSelectedArbitrator() public view returns (bool) {\n    return selectedArbitrators[msg.sender].isAssigned;\n  }\n\n  /*\n  resolve() will be called after all selected arbitrators have voted for the truth\n  TODO: figure out how to make last arbitrator call resolve function and are we going to charge gas fees to last arbitrator? \n  NOTE: Events for testing purpose. Can see if FE requires events as well else remove before deployment on testnet\n  */\n  event ResolveCalled(string source);\n\n  function resolve(bool forUnitTest) internal { // FIXME: Remove unit test options before deploying to testnet!\n    require(contractPhase != Phase.Open && contractPhase != Phase.Resolved);\n    if(contractPhase == Phase.Jury){ \n      uint finalWinIndex = getJuryVerdict();\n      winningOptionIndex = finalWinIndex;\n      resolveWithoutTie(finalWinIndex, forUnitTest);\n      return;\n    }\n    \n    (bool hasTie, uint winIndex) = getArbitratorVerdict();\n    if (!hasTie) {\n      winningOptionIndex = winIndex;\n      resolveWithoutTie(winIndex, forUnitTest);\n    } else {\n      resolveWithTie();\n    }\n  }\n\n  function getJuryVerdict() internal view returns (uint) {\n    uint largest = 0;\n    uint winningOption;\n    for (uint i = 0; i < options.length; i++){\n      uint temp = countofJuryVotes[options[i]];\n      if (temp > largest){\n        largest = temp;\n        winningOption = i;\n      }\n    }\n    return winningOption;\n  }\n\n  function getArbitratorVerdict() public view returns (bool,uint){\n    uint largest = 0;\n    uint winningOption;\n    bool hasTie = false;\n    for (uint i =0; i < options.length; i++){\n      uint temp = countofArbVotes[options[i]];\n      if (temp > largest){\n        largest = temp;\n        hasTie = false;\n        winningOption = i;\n      } else if (temp == largest){\n        hasTie = true;\n      }\n    }\n    return (hasTie, winningOption);\n  }\n\nfunction updateArbitratorsTrustworthiness(uint winIndex) public {\n  PredictionMarket marketInstance = PredictionMarket(parentContract);\n  for (uint o=0; o < options.length; o++){\n      for (uint i=0; i<arbitratorsVotes[options[o]].length; i++){\n        if (o == winIndex){\n          marketInstance.updateHonestTrustworthiness(arbitratorsVotes[options[o]][i]);\n        } else {\n          marketInstance.updateDishonestTrustworthiness(arbitratorsVotes[options[o]][i]);\n        }\n      }\n    }\n}\n\n  // TODO: Payout to arbitrators, jury/creator\n  function resolveWithoutTie(uint winIndex, bool forUnitTest) public payable returns(uint) { // FIXME: Remove unit test options before deploying to testnet!\n    require(contractPhase != Phase.Open && contractPhase != Phase.Resolved); // Check required as function is public\n    PredictionMarket marketInstance = PredictionMarket(parentContract);\n    uint temp = 0;\n    \n    for(uint i = 0; i<confirmedTrades.length; i++){\n      for(uint j = 0; j<confirmedTrades[i].shareOwners.length; j++){\n        if (confirmedTrades[i].shareOwners[j] != address(uint160(0x0))){\n          temp = temp + 10;\n          if(j == winIndex){\n            marketInstance.updateWinScore(address(uint160(confirmedTrades[i].shareOwners[j])));\n            payoutToWinners(confirmedTrades[i].shareOwners[j]);\n          } else {\n            marketInstance.updateLoseScore(confirmedTrades[i].shareOwners[j]);\n          }\n        }\n      }\n    }\n\n    updateArbitratorsTrustworthiness(winIndex);\n\n    if (!forUnitTest) {\n      payoutToArbitrators(winIndex);\n      if (contractPhase != Phase.Jury) {\n        payoutToCreator();\n      } else {\n        payoutToJury(winIndex);\n      }\n    }\n    contractPhase = Phase.Resolved;\n    return temp;\n  }\n\n  function payoutToCreator() internal {\n    if (!hasReceivedPayout[topicCreator]) {\n      hasReceivedPayout[topicCreator] = true;\n      topicCreator.transfer(uint(marketCap) / uint(100));\n      PredictionMarket marketInstance = PredictionMarket(parentContract);\n      marketInstance.transferCreatorBond(topicCreator, uint(creatorBond));\n    }\n  }\n\n  function payoutToJury(uint winIndex) internal {\n    PredictionMarket marketInstance = PredictionMarket(parentContract);\n\n    // Creator bond is forfeited to the jury\n    uint juryShare = (uint(marketCap) / uint(100)); // integer division\n    bytes32 winningOption = options[winIndex];\n    uint numWinners = countofJuryVotes[winningOption];\n    for (uint i = 0; i < numWinners; i++) {\n      address payable winningJury = address(uint160(jurysVotes[winningOption][i]));\n      hasReceivedPayout[winningJury] = true;\n      uint transferAmount = uint(juryShare) / uint(numWinners);\n      marketInstance.transferCreatorBond(winningJury, (uint(creatorBond) / numWinners));\n      winningJury.transfer(transferAmount);\n    }\n  }\n\n  function payoutToArbitrators(uint winIndex) internal {\n    uint arbitratorShare = uint(marketCap) / uint(100); // integer division\n    bytes32 winningOption = options[winIndex];\n    uint numWinners = countofArbVotes[winningOption];\n    for (uint i = 0; i < numWinners; i++) {\n      address payable winningArbitrator = address(uint160(arbitratorsVotes[winningOption][i]));\n      hasReceivedPayout[winningArbitrator] = true;\n      winningArbitrator.transfer(uint(arbitratorShare) / uint(numWinners));\n    }\n  }\n\n  function payoutToWinners(address payable winner) internal {\n    if (!hasReceivedPayout[winner]) {\n      hasReceivedPayout[winner] = true;\n      winner.transfer(0.98 ether);\n      hasReceivedPayout[winner] = false; // set back to false in case trader bought more than 1 share\n    }\n  }\n \n  // FIXME: Change visibility to internal before deploying on testnet!\n  // Use public for unit tests\n  function resolveWithTie() public {\n    contractPhase = Phase.Jury;\n    selectJury();\n  }\n\n  function selectJury() internal {\n    PredictionMarket marketInstance = PredictionMarket(parentContract);\n    address payable[] memory allArbitrators = marketInstance.getAllArbitrators();\n\n    // If there are less than 5 remaining arbitrators, select all of them as jury\n    // Topic creator is excluded from selection as well\n    if (allArbitrators.length - arbitrators.length <= 5) {\n      uint diff = allArbitrators.length - arbitrators.length;\n      address payable[] memory remainingArbitrators = new address payable[](diff);\n      uint ptr = 0;\n      for (uint k = 0; k < allArbitrators.length; k++) {\n        address payable arb = allArbitrators[k];\n        if (selectedArbitrators[arb].isAssigned || arb == topicCreator || hasBoughtShare[arb]) {\n          continue;\n        }\n        selectedJurys[arb] = SelectedJury(true, false, bytes32(0));\n        remainingArbitrators[ptr] = arb;\n        ptr++;\n      }\n      // If less than diff arbitrators are selected (i.e. one of the remaining is the topic creator)\n      // last address will be address(0)\n      jury = remainingArbitrators;\n      numOfJury = ptr; // Ptr will indicate how many jury were selected in the end\n      return;\n    }\n\n    // Else, create ballot where number of chances is proportional to the arbitrator's trustworthiness\n    address payable[] memory ballot = new address payable[](allArbitrators.length * 10); // Max length is when all arbitrators are at 100 score\n    uint ballotPointer = 0;\n\n    for (uint i = 0; i < allArbitrators.length; i++) {\n      address payable arbitrator = allArbitrators[i];\n      if (selectedArbitrators[arbitrator].isAssigned || arbitrator == topicCreator || hasBoughtShare[arbitrator]) {\n        continue;\n      }\n      (,uint8 trustworthiness,) = marketInstance.arbitrators(arbitrator); // Access trustworthiness score of struct\n      uint8 chance = trustworthiness / uint8(10);\n      for (uint j = 0; j < chance; j++) {\n        ballot[ballotPointer] = arbitrator;\n        ballotPointer++;\n      }\n    }\n\n    // Select random jury from the ballot\n    // Rechoose if address is already selected in the jury\n    address payable[] memory juryMemory = new address payable[](5);\n    uint juryPointer = 0;\n    // Max tries is bounded by 51 => For 1st 4 jury, repeated hit their address again = 4 * 10, \n    // 10 additional tries if creator is arbitrator, hence 51st try is guaranteed to resolve\n    uint8 triesLeft = 51; \n    while (juryPointer < 5 && triesLeft > 0) {\n      uint next = uint(keccak256(abi.encodePacked(block.timestamp, msg.sender, nonce))) % ballotPointer;\n      nonce++;\n      address payable potential = ballot[next];\n      if (!selectedJurys[potential].isAssigned) {\n        selectedJurys[potential] = SelectedJury(true, false, bytes32(0));\n        juryMemory[juryPointer] = potential;\n        juryPointer++;\n      }\n      triesLeft--;\n    }\n    jury = juryMemory;\n    numOfJury = juryPointer; // Jury pointer would indicate number of jury members finally selected. Should be 5 but can be lower in edge cases\n  }\n\n  // ===================================================\n  // Getters\n  // ===================================================\n\n  function getAllPendingVotePrice() view public returns(bytes32[] memory){\n    uint len = pendingVotes.length;\n    bytes32[] memory bytesArray = new bytes32[](len);\n    for (uint i = 0; i < len; i++) {\n      bytesArray[i] = bytes32(pendingVotes[i].price);\n    }\n    return bytesArray;\n  } \n\n  function getLastTradedPrices() view public returns(bytes32[] memory){\n    uint len = lastTradedPrices.length;\n    bytes32[] memory bytesArray = new bytes32[](len);\n    for (uint i = 0; i < len; i++) {\n      bytesArray[i] = bytes32(lastTradedPrices[i]);\n    }\n    return bytesArray;\n  }\n\n// Function will return an array of 8 elements in total: [win0, lose0, win1, lose1...]\n  function getLoseScores() view public returns(bytes32[] memory){\n    uint len = loseScores.length;\n    bytes32[] memory bytesArray = new bytes32[](len);\n    for (uint i = 0; i < len; i++) {\n      bytesArray[i] = bytes32(loseScores[i]);\n    }\n    return bytesArray;\n  }\n\n  // Function will return an array of 8 elements in total: [win0, lose0, win1, lose1...]\n  function getWinScores() view public returns(bytes32[] memory){\n    uint len = loseScores.length;\n    bytes32[] memory bytesArray = new bytes32[](len);\n    for (uint i = 0; i < len; i++) {\n      bytesArray[i] = bytes32(winScores[i]);\n    }\n    return bytesArray;\n  }\n\n  function balanceOf() external view returns(uint) {\n    return address(this).balance;\n  }\n\n  function getOptions() public view returns (bytes32[] memory) {\n    return options;\n  }\n\n  function getArbitrators() public view returns (address payable[] memory) {\n    return arbitrators;\n  }\n\n  function getJury() public view returns (address payable[] memory) {\n    return jury;\n  }\n\n  function hasArbitratorVoted(address arbitratorAddress) public view returns (bool) {\n    return selectedArbitrators[arbitratorAddress].hasVoted;\n  }\n\n  function hasJuryVoted(address juryAddress) public view returns (bool) {\n    return selectedJurys[juryAddress].hasVoted;\n  }\n\n  // ===================================================\n  // For testing purposes\n  // ===================================================\n  event UpdateWeightedVotes(address add, uint[2] beforeUpdate);\n\n  function getNumOfJurySelected() public view returns (uint) {\n    return numOfJury;\n  }\n\n  function getLastConfirmedTradeAddresses() public view returns (address, address, address, address) {\n    trade memory lastConfirmedTrade = confirmedTrades[confirmedTrades.length - 1];\n    address payable[4] memory tradeOwners = lastConfirmedTrade.shareOwners;\n    return (tradeOwners[0], tradeOwners[1], tradeOwners[2], tradeOwners[3]);\n  }\n}\n",
  "sourcePath": "/Users/gwynethang/Documents/Academics/Y4S1/Blockchain/Decentralised_Prediction_Market/contracts/Topic.sol",
  "compiler": {
    "name": "solc",
    "version": "0.5.16+commit.9c3226ce.Emscripten.clang"
  },
  "schemaVersion": "3.3.1",
  "updatedAt": "2020-10-28T16:46:03.849Z",
  "networkType": "ethereum",
  "devdoc": {
    "methods": {}
  },
  "userdoc": {
    "methods": {}
  }
}