{
  "contractName": "Topic",
  "abi": [
    {
      "inputs": [
        {
          "internalType": "address payable",
          "name": "_creator",
          "type": "address"
        },
        {
          "internalType": "string",
          "name": "_name",
          "type": "string"
        },
        {
          "internalType": "string",
          "name": "_description",
          "type": "string"
        },
        {
          "internalType": "bytes32[]",
          "name": "_options",
          "type": "bytes32[]"
        },
        {
          "internalType": "uint256",
          "name": "_bondValue",
          "type": "uint256"
        },
        {
          "internalType": "uint256",
          "name": "_expiryDate",
          "type": "uint256"
        },
        {
          "internalType": "address payable[]",
          "name": "_arbitrators",
          "type": "address[]"
        },
        {
          "internalType": "address",
          "name": "_predictionMarket",
          "type": "address"
        }
      ],
      "payable": true,
      "stateMutability": "payable",
      "type": "constructor"
    },
    {
      "anonymous": false,
      "inputs": [
        {
          "indexed": false,
          "internalType": "string",
          "name": "source",
          "type": "string"
        }
      ],
      "name": "ResolveCalled",
      "type": "event"
    },
    {
      "anonymous": false,
      "inputs": [
        {
          "indexed": false,
          "internalType": "address",
          "name": "add",
          "type": "address"
        },
        {
          "indexed": false,
          "internalType": "uint256[2]",
          "name": "beforeUpdate",
          "type": "uint256[2]"
        }
      ],
      "name": "UpdateWeightedVotes",
      "type": "event"
    },
    {
      "constant": true,
      "inputs": [
        {
          "internalType": "uint256",
          "name": "",
          "type": "uint256"
        }
      ],
      "name": "arbitrators",
      "outputs": [
        {
          "internalType": "address payable",
          "name": "",
          "type": "address"
        }
      ],
      "payable": false,
      "stateMutability": "view",
      "type": "function"
    },
    {
      "constant": true,
      "inputs": [
        {
          "internalType": "bytes32",
          "name": "",
          "type": "bytes32"
        },
        {
          "internalType": "uint256",
          "name": "",
          "type": "uint256"
        }
      ],
      "name": "arbitratorsVotes",
      "outputs": [
        {
          "internalType": "address",
          "name": "",
          "type": "address"
        }
      ],
      "payable": false,
      "stateMutability": "view",
      "type": "function"
    },
    {
      "constant": true,
      "inputs": [],
      "name": "contractPhase",
      "outputs": [
        {
          "internalType": "enum Topic.Phase",
          "name": "",
          "type": "uint8"
        }
      ],
      "payable": false,
      "stateMutability": "view",
      "type": "function"
    },
    {
      "constant": true,
      "inputs": [
        {
          "internalType": "bytes32",
          "name": "",
          "type": "bytes32"
        }
      ],
      "name": "countofArbVotes",
      "outputs": [
        {
          "internalType": "uint256",
          "name": "",
          "type": "uint256"
        }
      ],
      "payable": false,
      "stateMutability": "view",
      "type": "function"
    },
    {
      "constant": true,
      "inputs": [
        {
          "internalType": "bytes32",
          "name": "",
          "type": "bytes32"
        }
      ],
      "name": "countofJuryVotes",
      "outputs": [
        {
          "internalType": "uint256",
          "name": "",
          "type": "uint256"
        }
      ],
      "payable": false,
      "stateMutability": "view",
      "type": "function"
    },
    {
      "constant": true,
      "inputs": [],
      "name": "creatorBond",
      "outputs": [
        {
          "internalType": "uint256",
          "name": "",
          "type": "uint256"
        }
      ],
      "payable": false,
      "stateMutability": "view",
      "type": "function"
    },
    {
      "constant": true,
      "inputs": [],
      "name": "description",
      "outputs": [
        {
          "internalType": "string",
          "name": "",
          "type": "string"
        }
      ],
      "payable": false,
      "stateMutability": "view",
      "type": "function"
    },
    {
      "constant": true,
      "inputs": [],
      "name": "expiryDate",
      "outputs": [
        {
          "internalType": "uint256",
          "name": "",
          "type": "uint256"
        }
      ],
      "payable": false,
      "stateMutability": "view",
      "type": "function"
    },
    {
      "constant": true,
      "inputs": [
        {
          "internalType": "uint256",
          "name": "",
          "type": "uint256"
        }
      ],
      "name": "jury",
      "outputs": [
        {
          "internalType": "address payable",
          "name": "",
          "type": "address"
        }
      ],
      "payable": false,
      "stateMutability": "view",
      "type": "function"
    },
    {
      "constant": true,
      "inputs": [
        {
          "internalType": "bytes32",
          "name": "",
          "type": "bytes32"
        },
        {
          "internalType": "uint256",
          "name": "",
          "type": "uint256"
        }
      ],
      "name": "jurysVotes",
      "outputs": [
        {
          "internalType": "address",
          "name": "",
          "type": "address"
        }
      ],
      "payable": false,
      "stateMutability": "view",
      "type": "function"
    },
    {
      "constant": true,
      "inputs": [],
      "name": "marketCap",
      "outputs": [
        {
          "internalType": "uint256",
          "name": "",
          "type": "uint256"
        }
      ],
      "payable": false,
      "stateMutability": "view",
      "type": "function"
    },
    {
      "constant": true,
      "inputs": [],
      "name": "name",
      "outputs": [
        {
          "internalType": "string",
          "name": "",
          "type": "string"
        }
      ],
      "payable": false,
      "stateMutability": "view",
      "type": "function"
    },
    {
      "constant": true,
      "inputs": [
        {
          "internalType": "uint256",
          "name": "",
          "type": "uint256"
        }
      ],
      "name": "options",
      "outputs": [
        {
          "internalType": "bytes32",
          "name": "",
          "type": "bytes32"
        }
      ],
      "payable": false,
      "stateMutability": "view",
      "type": "function"
    },
    {
      "constant": true,
      "inputs": [
        {
          "internalType": "address",
          "name": "",
          "type": "address"
        }
      ],
      "name": "selectedArbitrators",
      "outputs": [
        {
          "internalType": "bool",
          "name": "isAssigned",
          "type": "bool"
        },
        {
          "internalType": "bool",
          "name": "hasVoted",
          "type": "bool"
        },
        {
          "internalType": "bytes32",
          "name": "votedOption",
          "type": "bytes32"
        }
      ],
      "payable": false,
      "stateMutability": "view",
      "type": "function"
    },
    {
      "constant": true,
      "inputs": [
        {
          "internalType": "address",
          "name": "",
          "type": "address"
        }
      ],
      "name": "selectedJurys",
      "outputs": [
        {
          "internalType": "bool",
          "name": "isAssigned",
          "type": "bool"
        },
        {
          "internalType": "bool",
          "name": "hasVoted",
          "type": "bool"
        },
        {
          "internalType": "bytes32",
          "name": "votedOption",
          "type": "bytes32"
        }
      ],
      "payable": false,
      "stateMutability": "view",
      "type": "function"
    },
    {
      "constant": true,
      "inputs": [],
      "name": "topicCreator",
      "outputs": [
        {
          "internalType": "address payable",
          "name": "",
          "type": "address"
        }
      ],
      "payable": false,
      "stateMutability": "view",
      "type": "function"
    },
    {
      "constant": true,
      "inputs": [],
      "name": "winningOptionIndex",
      "outputs": [
        {
          "internalType": "uint256",
          "name": "",
          "type": "uint256"
        }
      ],
      "payable": false,
      "stateMutability": "view",
      "type": "function"
    },
    {
      "constant": false,
      "inputs": [
        {
          "internalType": "uint256",
          "name": "option",
          "type": "uint256"
        }
      ],
      "name": "voteOption",
      "outputs": [
        {
          "internalType": "bool",
          "name": "",
          "type": "bool"
        }
      ],
      "payable": true,
      "stateMutability": "payable",
      "type": "function"
    },
    {
      "constant": false,
      "inputs": [],
      "name": "openPhaseToVerificationPhase",
      "outputs": [],
      "payable": false,
      "stateMutability": "nonpayable",
      "type": "function"
    },
    {
      "constant": false,
      "inputs": [
        {
          "internalType": "bytes32",
          "name": "_option",
          "type": "bytes32"
        },
        {
          "internalType": "bool",
          "name": "forUnitTest",
          "type": "bool"
        }
      ],
      "name": "addArbitratorVote",
      "outputs": [],
      "payable": false,
      "stateMutability": "nonpayable",
      "type": "function"
    },
    {
      "constant": false,
      "inputs": [
        {
          "internalType": "bytes32",
          "name": "_option",
          "type": "bytes32"
        },
        {
          "internalType": "bool",
          "name": "forUnitTest",
          "type": "bool"
        }
      ],
      "name": "addJuryVote",
      "outputs": [],
      "payable": false,
      "stateMutability": "nonpayable",
      "type": "function"
    },
    {
      "constant": true,
      "inputs": [],
      "name": "checkIfSelectedArbitrator",
      "outputs": [
        {
          "internalType": "bool",
          "name": "",
          "type": "bool"
        }
      ],
      "payable": false,
      "stateMutability": "view",
      "type": "function"
    },
    {
      "constant": true,
      "inputs": [],
      "name": "getJuryVerdict",
      "outputs": [
        {
          "internalType": "uint256",
          "name": "",
          "type": "uint256"
        }
      ],
      "payable": false,
      "stateMutability": "view",
      "type": "function"
    },
    {
      "constant": true,
      "inputs": [],
      "name": "getArbitratorVerdict",
      "outputs": [
        {
          "internalType": "bool",
          "name": "",
          "type": "bool"
        },
        {
          "internalType": "uint256",
          "name": "",
          "type": "uint256"
        }
      ],
      "payable": false,
      "stateMutability": "view",
      "type": "function"
    },
    {
      "constant": false,
      "inputs": [],
      "name": "testUpdateWinScore",
      "outputs": [],
      "payable": false,
      "stateMutability": "nonpayable",
      "type": "function"
    },
    {
      "constant": false,
      "inputs": [
        {
          "internalType": "uint256",
          "name": "winIndex",
          "type": "uint256"
        },
        {
          "internalType": "bool",
          "name": "forUnitTest",
          "type": "bool"
        }
      ],
      "name": "resolveWithoutTie",
      "outputs": [
        {
          "internalType": "uint256",
          "name": "",
          "type": "uint256"
        }
      ],
      "payable": true,
      "stateMutability": "payable",
      "type": "function"
    },
    {
      "constant": false,
      "inputs": [],
      "name": "payoutToCreator",
      "outputs": [],
      "payable": true,
      "stateMutability": "payable",
      "type": "function"
    },
    {
      "constant": false,
      "inputs": [
        {
          "internalType": "uint256",
          "name": "winIndex",
          "type": "uint256"
        }
      ],
      "name": "payoutToJury",
      "outputs": [],
      "payable": true,
      "stateMutability": "payable",
      "type": "function"
    },
    {
      "constant": false,
      "inputs": [
        {
          "internalType": "uint256",
          "name": "winIndex",
          "type": "uint256"
        }
      ],
      "name": "payoutToArbitrators",
      "outputs": [],
      "payable": true,
      "stateMutability": "payable",
      "type": "function"
    },
    {
      "constant": false,
      "inputs": [
        {
          "internalType": "address payable",
          "name": "winner",
          "type": "address"
        }
      ],
      "name": "payoutToWinners",
      "outputs": [],
      "payable": true,
      "stateMutability": "payable",
      "type": "function"
    },
    {
      "constant": false,
      "inputs": [],
      "name": "resolveWithTie",
      "outputs": [],
      "payable": false,
      "stateMutability": "nonpayable",
      "type": "function"
    },
    {
      "constant": true,
      "inputs": [],
      "name": "getAllPendingVotePrice",
      "outputs": [
        {
          "internalType": "bytes32[]",
          "name": "",
          "type": "bytes32[]"
        }
      ],
      "payable": false,
      "stateMutability": "view",
      "type": "function"
    },
    {
      "constant": true,
      "inputs": [],
      "name": "getLastTradedPrices",
      "outputs": [
        {
          "internalType": "bytes32[]",
          "name": "",
          "type": "bytes32[]"
        }
      ],
      "payable": false,
      "stateMutability": "view",
      "type": "function"
    },
    {
      "constant": true,
      "inputs": [],
      "name": "getLoseScores",
      "outputs": [
        {
          "internalType": "bytes32[]",
          "name": "",
          "type": "bytes32[]"
        }
      ],
      "payable": false,
      "stateMutability": "view",
      "type": "function"
    },
    {
      "constant": true,
      "inputs": [],
      "name": "getWinScores",
      "outputs": [
        {
          "internalType": "bytes32[]",
          "name": "",
          "type": "bytes32[]"
        }
      ],
      "payable": false,
      "stateMutability": "view",
      "type": "function"
    },
    {
      "constant": true,
      "inputs": [],
      "name": "balanceOf",
      "outputs": [
        {
          "internalType": "uint256",
          "name": "",
          "type": "uint256"
        }
      ],
      "payable": false,
      "stateMutability": "view",
      "type": "function"
    },
    {
      "constant": true,
      "inputs": [],
      "name": "getOptions",
      "outputs": [
        {
          "internalType": "bytes32[]",
          "name": "",
          "type": "bytes32[]"
        }
      ],
      "payable": false,
      "stateMutability": "view",
      "type": "function"
    },
    {
      "constant": true,
      "inputs": [],
      "name": "getArbitrators",
      "outputs": [
        {
          "internalType": "address payable[]",
          "name": "",
          "type": "address[]"
        }
      ],
      "payable": false,
      "stateMutability": "view",
      "type": "function"
    },
    {
      "constant": true,
      "inputs": [],
      "name": "getJury",
      "outputs": [
        {
          "internalType": "address payable[]",
          "name": "",
          "type": "address[]"
        }
      ],
      "payable": false,
      "stateMutability": "view",
      "type": "function"
    },
    {
      "constant": true,
      "inputs": [
        {
          "internalType": "address",
          "name": "arbitratorAddress",
          "type": "address"
        }
      ],
      "name": "hasArbitratorVoted",
      "outputs": [
        {
          "internalType": "bool",
          "name": "",
          "type": "bool"
        }
      ],
      "payable": false,
      "stateMutability": "view",
      "type": "function"
    },
    {
      "constant": true,
      "inputs": [
        {
          "internalType": "address",
          "name": "juryAddress",
          "type": "address"
        }
      ],
      "name": "hasJuryVoted",
      "outputs": [
        {
          "internalType": "bool",
          "name": "",
          "type": "bool"
        }
      ],
      "payable": false,
      "stateMutability": "view",
      "type": "function"
    },
    {
      "constant": true,
      "inputs": [],
      "name": "getNumOfJurySelected",
      "outputs": [
        {
          "internalType": "uint256",
          "name": "",
          "type": "uint256"
        }
      ],
      "payable": false,
      "stateMutability": "view",
      "type": "function"
    },
    {
      "constant": true,
      "inputs": [],
      "name": "getLastConfirmedTradeAddresses",
      "outputs": [
        {
          "internalType": "address",
          "name": "",
          "type": "address"
        },
        {
          "internalType": "address",
          "name": "",
          "type": "address"
        },
        {
          "internalType": "address",
          "name": "",
          "type": "address"
        },
        {
          "internalType": "address",
          "name": "",
          "type": "address"
        }
      ],
      "payable": false,
      "stateMutability": "view",
      "type": "function"
    }
  ],
  "bytecode": "0x60806040819052602a805460ff1916905562002d973881900390819083398181016040526101008110156200003357600080fd5b8151602083018051604051929492938301929190846401000000008211156200005b57600080fd5b9083019060208201858111156200007157600080fd5b82516401000000008111828201881017156200008c57600080fd5b82525081516020918201929091019080838360005b83811015620000bb578181015183820152602001620000a1565b50505050905090810190601f168015620000e95780820380516001836020036101000a031916815260200191505b50604052602001805160405193929190846401000000008211156200010d57600080fd5b9083019060208201858111156200012357600080fd5b82516401000000008111828201881017156200013e57600080fd5b82525081516020918201929091019080838360005b838110156200016d57818101518382015260200162000153565b50505050905090810190601f1680156200019b5780820380516001836020036101000a031916815260200191505b5060405260200180516040519392919084640100000000821115620001bf57600080fd5b908301906020820185811115620001d557600080fd5b8251866020820283011164010000000082111715620001f357600080fd5b82525081516020918201928201910280838360005b838110156200022257818101518382015260200162000208565b5050505091909101604081815260208401519084015160609094018051919694959294935090846401000000008211156200025c57600080fd5b9083019060208201858111156200027257600080fd5b82518660208202830111640100000000821117156200029057600080fd5b82525081516020918201928201910280838360005b83811015620002bf578181015183820152602001620002a5565b505050509190910160405250602090810151600a80546001600160a01b038084166001600160a01b03199283161790925560008054928e169290911691909117905589519093506200031892506001918a0190620004af565b5085516200032e906002906020890190620004af565b5084516200034490600390602088019062000534565b5060006004556005849055600683905581516200036990600790602085019062000571565b50600a805461ffff60a01b1916601760a01b1760ff60b01b19168155600c805460ff1916905560095560005b8551811015620003ff576040805180820190915260008082526020820152600f8260048110620003c157fe5b825160029190910291909101908155602090910151600191820180546001600160a01b0319166001600160a01b039092169190911790550162000395565b5060005b8251811015620004a05760405180606001604052806001151581526020016000151581526020016000801b815250602460008584815181106200044257fe5b6020908102919091018101516001600160a01b03168252818101929092526040908101600020835181549385015115156101000261ff001991151560ff19909516949094171692909217825591909101516001918201550162000403565b5050505050505050506200061e565b828054600181600116156101000203166002900490600052602060002090601f016020900481019282601f10620004f257805160ff191683800117855562000522565b8280016001018555821562000522579182015b828111156200052257825182559160200191906001019062000505565b5062000530929150620005d7565b5090565b8280548282559060005260206000209081019282156200052257916020028201828111156200052257825182559160200191906001019062000505565b828054828255906000526020600020908101928215620005c9579160200282015b82811115620005c957825182546001600160a01b0319166001600160a01b0390911617825560209092019160019091019062000592565b5062000530929150620005f7565b620005f491905b80821115620005305760008155600101620005de565b90565b620005f491905b80821115620005305780546001600160a01b0319168155600101620005fe565b612769806200062e6000396000f3fe60806040526004361061025c5760003560e01c8063729ecb0711610144578063cc2ee196116100b6578063e8a1e12e1161007a578063e8a1e12e14610837578063f06e3e2e1461084c578063f462f8af1461087f578063f4c6284b146108a5578063f745bd4d146108d7578063fbcc1e71146108ec5761025c565b8063cc2ee19614610760578063cc7e621014610775578063d3901fb51461079f578063e6cd5a11146107b4578063e6ff5096146107e45761025c565b8063a6430cc011610108578063a6430cc014610692578063a8323176146106bc578063b1d5362b146106d1578063bc0da8d314610703578063bfb0b60814610718578063c617339b1461072d5761025c565b8063729ecb071461060457806388814f431461062e578063894c3b1f146106435780639570400f1461065857806395e56a841461067d5761025c565b8063409e2205116101dd57806357cde0e6116101a157806357cde0e61461054e57806366d4bfac146105635780636f0f9f5e1461058d5780636f36ec23146105bd578063722713f7146105da5780637284e416146105ef5761025c565b8063409e220514610499578063459d6e4f146104c3578063465be85f146104d85780634852aa6d146104ed578063516dde43146105395761025c565b806322cedead1161022457806322cedead146103af578063288fa802146103b75780632c135b931461041c5780632d978163146104435780633b2c0cc31461047c5761025c565b806306fdde0314610261578063123230df146102eb57806312b8b1a31461033457806313e86a8f1461037b578063153ee2ba1461039a575b600080fd5b34801561026d57600080fd5b50610276610901565b6040805160208082528351818301528351919283929083019185019080838360005b838110156102b0578181015183820152602001610298565b50505050905090810190601f1680156102dd5780820380516001836020036101000a031916815260200191505b509250505060405180910390f35b3480156102f757600080fd5b5061030061098e565b604080516001600160a01b039586168152938516602085015291841683830152909216606082015290519081900360800190f35b34801561034057600080fd5b506103676004803603602081101561035757600080fd5b50356001600160a01b0316610a2c565b604080519115158252519081900360200190f35b6103986004803603602081101561039157600080fd5b5035610a53565b005b3480156103a657600080fd5b50610398610bc7565b610398610c5d565b3480156103c357600080fd5b506103cc610d39565b60408051602080825283518183015283519192839290830191858101910280838360005b838110156104085781810151838201526020016103f0565b505050509050019250505060405180910390f35b34801561042857600080fd5b50610431610da6565b60408051918252519081900360200190f35b34801561044f57600080fd5b50610458610dac565b6040518082600381111561046857fe5b60ff16815260200191505060405180910390f35b6103986004803603602081101561049257600080fd5b5035610db5565b3480156104a557600080fd5b50610431600480360360208110156104bc57600080fd5b5035610e8b565b3480156104cf57600080fd5b50610431610ea9565b3480156104e457600080fd5b506103cc610eaf565b3480156104f957600080fd5b5061051d6004803603604081101561051057600080fd5b5080359060200135610f11565b604080516001600160a01b039092168252519081900360200190f35b34801561054557600080fd5b50610431610f46565b34801561055a57600080fd5b50610431610f4c565b34801561056f57600080fd5b506104316004803603602081101561058657600080fd5b5035610f52565b34801561059957600080fd5b506105a2610f64565b60408051921515835260208301919091528051918290030190f35b610367600480360360208110156105d357600080fd5b5035610fdc565b3480156105e657600080fd5b50610431611394565b3480156105fb57600080fd5b50610276611398565b34801561061057600080fd5b5061051d6004803603602081101561062757600080fd5b50356113f0565b34801561063a57600080fd5b50610431611417565b34801561064f57600080fd5b506103cc61146e565b6104316004803603604081101561066e57600080fd5b508035906020013515156114ce565b34801561068957600080fd5b506103cc611768565b34801561069e57600080fd5b5061051d600480360360208110156106b557600080fd5b50356117cb565b3480156106c857600080fd5b506103986117d8565b3480156106dd57600080fd5b50610398600480360360408110156106f457600080fd5b508035906020013515156117ed565b34801561070f57600080fd5b506103cc61195f565b34801561072457600080fd5b506103cc6119c2565b34801561073957600080fd5b506103676004803603602081101561075057600080fd5b50356001600160a01b0316611a25565b34801561076c57600080fd5b506103cc611a48565b34801561078157600080fd5b506104316004803603602081101561079857600080fd5b5035611a9f565b3480156107ab57600080fd5b50610367611ab1565b3480156107c057600080fd5b5061051d600480360360408110156107d757600080fd5b5080359060200135611ac7565b3480156107f057600080fd5b506108176004803603602081101561080757600080fd5b50356001600160a01b0316611ae0565b604080519315158452911515602084015282820152519081900360600190f35b34801561084357600080fd5b50610431611b06565b34801561085857600080fd5b506108176004803603602081101561086f57600080fd5b50356001600160a01b0316611b0c565b6103986004803603602081101561089557600080fd5b50356001600160a01b0316611b32565b3480156108b157600080fd5b50610398600480360360408110156108c857600080fd5b50803590602001351515611bc4565b3480156108e357600080fd5b50610398611cf4565b3480156108f857600080fd5b5061051d611d1c565b60018054604080516020600284861615610100026000190190941693909304601f810184900484028201840190925281815292918301828280156109865780601f1061095b57610100808354040283529160200191610986565b820191906000526020600020905b81548152906001019060200180831161096957829003601f168201915b505050505081565b60008060008061099c6125f9565b6023805460001981019081106109ae57fe5b60009182526020918290206040805160a081019182905293600493840290920192849283019184919082845b81546001600160a01b031681526001909101906020018083116109da575050505050815250509050610a0a612611565b5051805160208201516040830151606090930151919790965091945092509050565b6001600160a01b038116600090815260246020526040902054610100900460ff165b919050565b600a546004546001600160a01b0390911690600090606490049050600060038481548110610a7d57fe5b600091825260208083209091015480835260299091526040822054909250905b81811015610bbf576000838152602860205260408120805483908110610abf57fe5b60009182526020808320909101546001600160a01b0316808352600e90915260408220805460ff191660011790559150838681610af857fe5b049050866001600160a01b0316632ea8e7ae838660055481610b1657fe5b046040518363ffffffff1660e01b815260040180836001600160a01b03166001600160a01b0316815260200182815260200192505050600060405180830381600087803b158015610b6657600080fd5b505af1158015610b7a573d6000803e3d6000fd5b50506040516001600160a01b038516925083156108fc02915083906000818181858888f19350505050158015610bb4573d6000803e3d6000fd5b505050600101610a9d565b505050505050565b600a54602380546001600160a01b03909216918291636e193a5991600090610beb57fe5b6000918252602082206004909102010154604080516001600160e01b031960e085901b1681526001600160a01b03909216600483015251602480830192600092919082900301818387803b158015610c4257600080fd5b505af1158015610c56573d6000803e3d6000fd5b5050505050565b600080546001600160a01b03168152600e602052604090205460ff16610d3757600080546001600160a01b039081168252600e60205260408220805460ff1916600117905590546004549116906108fc90606490049081150290604051600060405180830381858888f19350505050158015610cdd573d6000803e3d6000fd5b50600a54600080546005546040805163175473d760e11b81526001600160a01b03938416600482015260248101929092525191909316928392632ea8e7ae9260448084019382900301818387803b158015610c4257600080fd5b565b60408051600480825260a08201909252606091908290826020820160808038833901905050905060005b82811015610d9e57600f8160048110610d7857fe5b60020201548251839083908110610d8b57fe5b6020908102919091010152600101610d63565b509150505b90565b60045481565b602a5460ff1681565b6000606460045481610dc357fe5b049050600060038381548110610dd557fe5b600091825260208083209091015480835260269091526040822054909250905b81811015610c56576000838152602560205260408120805483908110610e1757fe5b60009182526020808320909101546001600160a01b0316808352600e9091526040909120805460ff191660011790559050806108fc848781610e5557fe5b049081150290604051600060405180830381858888f19350505050158015610e81573d6000803e3d6000fd5b5050600101610df5565b60038181548110610e9857fe5b600091825260209091200154905081565b60055481565b60606008805480602002602001604051908101604052809291908181526020018280548015610f0757602002820191906000526020600020905b81546001600160a01b03168152600190910190602001808311610ee9575b5050505050905090565b60256020528160005260406000208181548110610f2a57fe5b6000918252602090912001546001600160a01b03169150829050565b60065481565b60095481565b60296020526000908152604090205481565b600080808080805b600354811015610fd25760006026600060038481548110610f8957fe5b9060005260206000200154815260200190815260200160002054905084811115610fbc5780945060009250819350610fc9565b84811415610fc957600192505b50600101610f6c565b5093509150509091565b3360009081526024602052604081205460ff1615610ff957600080fd5b6000602a5460ff16600381111561100c57fe5b1461101657600080fd5b34670de0b6b3a7640000811061102b57600080fd5b80600f846004811061103957fe5b60020201541061104857600080fd5b600a546040805163310ad0b760e11b815233600482015290516001600160a01b03909216916000918391636215a16e91602480820192602092909190829003018186803b15801561109857600080fd5b505afa1580156110ac573d6000803e3d6000fd5b505050506040513d60208110156110c257600080fd5b50519050806110d057600080fd5b600f85600481106110dd57fe5b60020201600101546001600160a01b03166108fc600f87600481106110fe57fe5b60020201546040518115909202916000818181858888f1935050505015801561112b573d6000803e3d6000fd5b50670de0b6b3a764000061113d612611565b60005b60048110156111ac578781146111a457600f816004811061115d57fe5b600202015490920391600f816004811061117357fe5b60020201600101546001600160a01b031682826004811061119057fe5b6001600160a01b0390921660209290920201525b600101611140565b50336000908152600d60205260409020805460ff1916600117905584821161132757338188600481106111db57fe5b6001600160a01b0390921660209290920201526111f66125f9565b50604080516020810190915281815260238054600181018083556000929092528251839160049081027fd57b2b5166478fd4318d2acc6cc2c704584312bdd8781b32d5d06abda57f4230019161124e9183919061262f565b506000925050505b60048110156112a6578881141561127c57836017826004811061127557fe5b015561129e565b600f816004811061128957fe5b60020201546017826004811061129b57fe5b01555b600101611256565b50604051339084880380156108fc02916000818181858888f193505050501580156112d5573d6000803e3d6000fd5b506112de611d2b565b60005b6004811015611306576000600f82600481106112f957fe5b60020201556001016112e1565b505060048054670de0b6b3a76400000190555060019450610a4e9350505050565b61132f612687565b506040805180820190915285815233602082015280600f896004811061135157fe5b825160029190910291909101908155602090910151600190910180546001600160a01b0319166001600160a01b0390921691909117905550949695505050505050565b4790565b6002805460408051602060018416156101000260001901909316849004601f810184900484028201840190925281815292918301828280156109865780601f1061095b57610100808354040283529160200191610986565b600881815481106113fd57fe5b6000918252602090912001546001600160a01b0316905081565b60008080805b600354811015610d9e576000602960006003848154811061143a57fe5b9060005260206000200154815260200190815260200160002054905083811115611465578093508192505b5060010161141d565b60606007805480602002602001604051908101604052809291908181526020018280548015610f07576020028201919060005260206000209081546001600160a01b03168152600190910190602001808311610ee9575050505050905090565b600080602a5460ff1660038111156114e257fe5b1415801561150157506003602a5460ff1660038111156114fe57fe5b14155b61150a57600080fd5b600a546001600160a01b03166000805b6023548110156117165760005b6023828154811061153457fe5b50600052600481101561170d5760006001600160a01b03166023838154811061155957fe5b9060005260206000209060040201600001826004811061157557fe5b01546001600160a01b0316146117055782600a0192508681141561166c57836001600160a01b0316636e193a59602384815481106115af57fe5b906000526020600020906004020160000183600481106115cb57fe5b0154604080516001600160e01b031960e085901b1681526001600160a01b03909216600483015251602480830192600092919082900301818387803b15801561161357600080fd5b505af1158015611627573d6000803e3d6000fd5b505050506116676023838154811061163b57fe5b9060005260206000209060040201600001826004811061165757fe5b01546001600160a01b0316611b32565b611705565b836001600160a01b031663cd1e0b6d6023848154811061168857fe5b906000526020600020906004020160000183600481106116a457fe5b0154604080516001600160e01b031960e085901b1681526001600160a01b03909216600483015251602480830192600092919082900301818387803b1580156116ec57600080fd5b505af1158015611700573d6000803e3d6000fd5b505050505b600101611527565b5060010161151a565b50836117535761172585610db5565b6002602a5460ff16600381111561173857fe5b1461174a57611745610c5d565b611753565b61175385610a53565b602a805460ff19166003179055949350505050565b60408051600480825260a08201909252606091908290826020820160808038833901905050905060005b82811015610d9e57601781600481106117a757fe5b015460001b8282815181106117b857fe5b6020908102919091010152600101611792565b600781815481106113fd57fe5b602a805460ff19166002179055610d37611f58565b6000602a5460ff16600381111561180057fe5b141561181457602a805460ff191660011790555b6001602a5460ff16600381111561182757fe5b1461183157600080fd5b33600090815260246020526040902054610100900460ff161561185357600080fd5b3360009081526024602052604090205460ff1661186f57600080fd5b336000818152602460209081526040808320805461010061ff0019909116178155600190810187905586845260258352818420805480830182559085528385200180546001600160a01b03191690951790945585835260269091529020805482019055600a805460ff60b01b19811660ff600160b01b9283900481169094018416820217918290556007549104909116141561195b57604080516020808252600a908201526920b93134ba3930ba37b960b11b8183015290517f21f0146f421195b1872d8b4b0ef2c37e13a25a518f7a902d98ae120c530beebc9181900360600190a161195b81612552565b5050565b60408051600480825260a08201909252606091908290826020820160808038833901905050905060005b82811015610d9e57601f816004811061199e57fe5b015460001b8282815181106119af57fe5b6020908102919091010152600101611989565b60408051600480825260a08201909252606091908290826020820160808038833901905050905060005b82811015610d9e57601b8160048110611a0157fe5b015460001b828281518110611a1257fe5b60209081029190910101526001016119ec565b6001600160a01b0316600090815260276020526040902054610100900460ff1690565b60606003805480602002602001604051908101604052809291908181526020018280548015610f0757602002820191906000526020600020905b815481526020019060010190808311611a82575050505050905090565b60266020526000908152604090205481565b3360009081526024602052604090205460ff1690565b60286020528160005260406000208181548110610f2a57fe5b6027602052600090815260409020805460019091015460ff808316926101009004169083565b600b5490565b6024602052600090815260409020805460019091015460ff808316926101009004169083565b6001600160a01b0381166000908152600e602052604090205460ff16611bc1576001600160a01b0381166000818152600e6020526040808220805460ff1916600117905551670d99a8cec7e200009082818181858883f19350505050158015611b9f573d6000803e3d6000fd5b506001600160a01b0381166000908152600e60205260409020805460ff191690555b50565b6002602a5460ff166003811115611bd757fe5b14611be157600080fd5b33600090815260276020526040902054610100900460ff1615611c0357600080fd5b3360009081526027602052604090205460ff16611c1f57600080fd5b336000818152602760209081526040808320805461ff001916610100178155600190810187905586845260288352818420805480830182559085528385200180546001600160a01b03191690951790945585835260299091529020805482019055600c805460ff818116909301831660ff199091161790819055600b549116141561195b57604080516020808252600490820152634a75727960e01b8183015290517f21f0146f421195b1872d8b4b0ef2c37e13a25a518f7a902d98ae120c530beebc9181900360600190a161195b81612552565b6000602a5460ff166003811115611d0757fe5b1415610d3757602a805460ff19166001179055565b6000546001600160a01b031681565b600a546001600160a01b0316611d3f6125f9565b602380546000198101908110611d5157fe5b60009182526020918290206040805160a081019182905293600493840290920192849283019184919082845b81546001600160a01b03168152600190910190602001808311611d7d57505050505081525050905060008090505b6004811015611f535781516000908260048110611dc457fe5b602002015190506001600160a01b03811615611f4a57611de261269e565b60408051633d59f85b60e01b81526001600160a01b038481166004830152825190881692633d59f85b9260248082019391829003018186803b158015611e2757600080fd5b505afa158015611e3b573d6000803e3d6000fd5b505050506040513d601f19601f820116820180604052506040811015611e6057600080fd5b50604080516001600160a01b03851681529192507f405f4ccba46549b1dbd2e5bfbf7248e032b3b50a1a6d65140c30c83a176d192e9184918491906020820190839080838360005b83811015611ec0578181015183820152602001611ea8565b505050509050019250505060405180910390a160178360048110611ee057fe5b0154815102601b8460048110611ef257fe5b015401601b8460048110611f0257fe5b015560178360048110611f1157fe5b015460010381600160028110611f2357fe5b602002015102601f8460048110611f3657fe5b015401601f8460048110611f4657fe5b0155505b50600101611dab565b505050565b600a546040805163193ca33d60e31b815290516001600160a01b0390921691606091839163c9e519e891600480820192600092909190829003018186803b158015611fa257600080fd5b505afa158015611fb6573d6000803e3d6000fd5b505050506040513d6000823e601f3d908101601f191682016040526020811015611fdf57600080fd5b8101908080516040519392919084640100000000821115611fff57600080fd5b90830190602082018581111561201457600080fd5b825186602082028301116401000000008211171561203157600080fd5b82525081516020918201928201910280838360005b8381101561205e578181015183820152602001612046565b5050505090500160405250505090506005600780549050825103116121fd57600060078054905082510390506060816040519080825280602002602001820160405280156120b6578160200160208202803883390190505b5090506000805b84518110156121db5760008582815181106120d457fe5b6020908102919091018101516001600160a01b0381166000908152602490925260409091205490915060ff168061211857506000546001600160a01b038281169116145b8061213b57506001600160a01b0381166000908152600d602052604090205460ff165b1561214657506121d3565b604080516060810182526001808252600060208084018281528486018381526001600160a01b038816845260279092529490912092518354945115156101000261ff001991151560ff1990961695909517169390931782559151910155835181908590859081106121b357fe5b6001600160a01b0390921660209283029190910190910152506001909101905b6001016120bd565b5081516121ef9060089060208501906126bc565b50600b5550610d3792505050565b60608151600a0260405190808252806020026020018201604052801561222d578160200160208202803883390190505b5090506000805b835181101561239957600084828151811061224b57fe5b6020908102919091018101516001600160a01b0381166000908152602490925260409091205490915060ff168061228f57506000546001600160a01b038281169116145b806122b257506001600160a01b0381166000908152600d602052604090205460ff165b156122bd5750612391565b6000866001600160a01b03166351d0ea37836040518263ffffffff1660e01b815260040180826001600160a01b03166001600160a01b0316815260200191505060606040518083038186803b15801561231557600080fd5b505afa158015612329573d6000803e3d6000fd5b505050506040513d606081101561233f57600080fd5b50602001519050600a60ff82160460005b8160ff1681101561238c578387878151811061236857fe5b6001600160a01b039092166020928302919091019091015260019586019501612350565b505050505b600101612234565b5060408051600580825260c082019092526060916020820160a080388339019050509050600060335b6005821080156123d5575060008160ff16115b1561253357600a5460408051426020808301919091523360601b82840152600160a01b90930460f01b6001600160f01b0319166054820152815180820360360181526056909101909152805191012060009085908161243057fe5b600a8054600161ffff600160a01b808404821692909201160261ffff60a01b199091161790558751919006915060009087908390811061246c57fe5b6020908102919091018101516001600160a01b0381166000908152602790925260409091205490915060ff1661252857604080516060810182526001808252600060208084018281528486018381526001600160a01b038816845260279092529490912092518354945115156101000261ff001991151560ff19909616959095171693909317825591519101558451819086908690811061250957fe5b6001600160a01b03909216602092830291909101909101526001909301925b5050600019016123c2565b82516125469060089060208601906126bc565b5050600b555050505050565b6000602a5460ff16600381111561256557fe5b1415801561258457506003602a5460ff16600381111561258157fe5b14155b61258d57600080fd5b6002602a5460ff1660038111156125a057fe5b14156125c85760006125b0611417565b600981905590506125c181836114ce565b5050611bc1565b6000806125d3610f64565b91509150816125f15760098190556125eb81846114ce565b50611f53565b611f536117d8565b604051806020016040528061260c612611565b905290565b60405180608001604052806004906020820280388339509192915050565b8260048101928215612677579160200282015b8281111561267757825182546001600160a01b0319166001600160a01b03909116178255602090920191600190910190612642565b50612683929150612710565b5090565b604080518082019091526000808252602082015290565b60405180604001604052806002906020820280388339509192915050565b828054828255906000526020600020908101928215612677579160200282018281111561267757825182546001600160a01b0319166001600160a01b03909116178255602090920191600190910190612642565b610da391905b808211156126835780546001600160a01b031916815560010161271656fea265627a7a7231582005bb4a9366dc95a811101017eadc2bcdc36a54470fcab590f2f97bf88c32575964736f6c63430005100032",
  "source": "// SPDX-License-Identifier: MIT\npragma solidity >=0.4.21 <=0.7.0;\nimport \"./PredictionMarket.sol\";\n// import \"github.com/OpenZeppelin/zeppelin-solidity/contracts/math/SafeMath.sol\";\n\ncontract Topic {\n  // Public attirbutes\n  address payable public topicCreator;\n  string public name;\n  string public description;\n  bytes32[] public options;\n  uint public marketCap;\n  uint public creatorBond;\n  uint256 public expiryDate;\n  address payable[] public arbitrators;\n  address payable[] public jury;\n  uint public winningOptionIndex;\n\n  // Private attributes\n  address parentContract;\n  uint16 nonce;\n  uint8 numArbitratorVoted;\n  uint numOfJury;\n  uint8 numJuryVoted;\n  mapping (address => bool) hasBoughtShare;\n\n  // Guard against reentrancy => applicable for all receivers of ether\n  mapping (address => bool) hasReceivedPayout;\n\n  // Pending votes\n  voteStruct[4] pendingVotes;\n  struct voteStruct {\n    uint price; \n    address payable voter;\n  }\n\n  // Last Traded Prices\n  uint[4] lastTradedPrices;\n\n  // weighted votes\n  uint[4] winScores;\n  uint[4] loseScores;\n\n  // Successful trades\n  trade[] confirmedTrades;\n  struct trade {\n    address payable[4] shareOwners;\n  }\n\n  // Arbitrator voting related variables\n  struct SelectedArbitrator {\n        bool isAssigned;\n        bool hasVoted;\n        bytes32 votedOption;\n  }\n\n  mapping (address => SelectedArbitrator) public selectedArbitrators;\n  mapping (bytes32 => address[]) public arbitratorsVotes;\n  mapping (bytes32 => uint) public countofArbVotes;\n\n  // Jury voting related variables\n  struct SelectedJury {\n      bool isAssigned;\n      bool hasVoted;\n      bytes32 votedOption;\n  }\n  mapping (address => SelectedJury) public selectedJurys;\n  mapping (bytes32 => address[]) public jurysVotes;\n  mapping (bytes32 => uint) public countofJuryVotes;\n\n  // State of contract\n  // 0 => Open, 1 => Arbitrator Voting, 2 => Jury Voting, 3 => Resolved / closed\n  enum Phase { Open, Verification, Jury, Resolved }\n  Phase public contractPhase = Phase.Open;\n\n  // NOTE: Ignore linter warning about visibility modifier being ignored. \n  // It is required for successful compilation\n  constructor (\n      address payable _creator, string memory _name, string memory _description, bytes32[] memory _options, \n      uint _bondValue, uint256 _expiryDate, address payable[] memory _arbitrators, address _predictionMarket\n    ) public payable {\n        parentContract = _predictionMarket;\n        topicCreator = _creator;\n        name = _name;\n        description = _description;\n        options = _options;\n        marketCap = 0;\n        creatorBond = _bondValue;\n        expiryDate = _expiryDate;\n        arbitrators = _arbitrators;\n\n        nonce = 23; // NOTE: Random number for the nonce\n        numArbitratorVoted = 0;\n        numJuryVoted = 0;\n        winningOptionIndex = 10; // Assign random value not within [0, 3]\n\n        // init pending votes\n        for (uint i = 0; i < _options.length; i++) {\n          pendingVotes[i] = voteStruct(0, address(0));\n        }\n\n        for (uint j = 0; j < _arbitrators.length; j++) {\n          selectedArbitrators[_arbitrators[j]] = SelectedArbitrator(true, false, bytes32(0));\n        }\n    }\n\n// TODO: TEST CASES\n  function updateWeightedVotes() private {\n    PredictionMarket pm = PredictionMarket(parentContract);\n    trade memory lastTrade = confirmedTrades[confirmedTrades.length - 1];\n    for(uint i=0; i<4; i++){\n      address voterAddress = lastTrade.shareOwners[i]; \n      \n      if(voterAddress != address(0)){\n        // getVotersReputation only accepts a valid voterAddress. \n        uint[2] memory winLose = pm.getVotersReputation(voterAddress);   \n        emit UpdateWeightedVotes(voterAddress, winLose);\n        winScores[i] = winScores[i] + (winLose[0] * lastTradedPrices[i]);\n        loseScores[i] = loseScores[i] + (winLose[1] * (1 - lastTradedPrices[i]));\n      }\n    }\n  }\n     \n  function voteOption(uint option) public payable returns(bool){\n    require(!selectedArbitrators[msg.sender].isAssigned);\n    require(contractPhase == Phase.Open);\n\n    uint amount = msg.value;\n    require(msg.value < 1 ether);\n    // Reject the vote if it is lower than the last available vote\n    require(pendingVotes[option].price <  amount);\n\n    // Check if the voter is valid\n    PredictionMarket pm = PredictionMarket(parentContract);\n    bool validTrader = pm.checkValidTrader(msg.sender);\n    require(validTrader);\n\n    // If the vote is higher than the last available price, send money back to the previous voter\n    pendingVotes[option].voter.transfer(pendingVotes[option].price);\n\n    // Balance to decide if the vote goes through\n    uint balance = 1 ether; \n\n    // Entry to insert into the confirmed trades if vote goes through\n    address payable[4] memory tempTrade;\n\n    for(uint i=0; i< 4; i++){\n      if(i != option){\n        balance = balance - pendingVotes[i].price; \n        tempTrade[i] = pendingVotes[i].voter;\n      }\n    }\n\n    // Update hasBoughtShare\n    hasBoughtShare[msg.sender] = true;\n    \n    // If vote can go through\n    if(balance <= amount){\n      \n      // 1) Confirm the trade by putting it into trade confirmed\n      tempTrade[option] = msg.sender;\n      trade memory tradeConfirmed = trade(tempTrade);\n      confirmedTrades.push(tradeConfirmed);\n      \n      // 2) Update the lastTradedPrices\n      for(uint i=0; i< 4; i++){\n        if(i == option){\n          lastTradedPrices[i] = balance;\n        }\n        else{\n          lastTradedPrices[i]= pendingVotes[i].price;\n        }\n      }\n      \n\n      // 3) Send the remaining money back to the sender\n      msg.sender.transfer(amount - balance);\n\n      // 4) Update the weighted votes according to the last trade\n      updateWeightedVotes();\n\n      // 5) Reset the pending votes instance\n      for(uint i =0; i< 4; i++){\n        pendingVotes[i].price =0; \n      }\n\n      // 6) Add to market cap for future payouts calculations\n      marketCap += 1 ether;\n      return true;\n    }\n\n    // If vote cannot go through\n    else {\n      // Update the pending votes\n      voteStruct memory tempVote = voteStruct(amount, msg.sender); \n      pendingVotes[option] = tempVote;\n    }\n  }\n\n  function openPhaseToVerificationPhase() public {\n    if (contractPhase == Phase.Open) { // TODO: @jee, should we refactor this from addArbitratorVote cos this is needed in unit testing\n      contractPhase = Phase.Verification;\n    }\n  }\n\n  function addArbitratorVote(bytes32 _option, bool forUnitTest) public { // FIXME: Remove unit test options before deploying to testnet!\n    // Shift contract phase\n    if (contractPhase == Phase.Open) { // TODO: Add check for expiry date as well!\n      contractPhase = Phase.Verification;\n    }\n    require(contractPhase == Phase.Verification);\n    require(!selectedArbitrators[msg.sender].hasVoted); //no double voting\n    require(selectedArbitrators[msg.sender].isAssigned);\n    selectedArbitrators[msg.sender].hasVoted = true;\n    selectedArbitrators[msg.sender].votedOption = _option;\n    arbitratorsVotes[_option].push(msg.sender);\n    countofArbVotes[_option]++;\n\n    // Trigger resolve if all selected arbitrators have voted\n    numArbitratorVoted++;\n    if (numArbitratorVoted == arbitrators.length) {\n      emit ResolveCalled(\"Arbitrator\");\n      resolve(forUnitTest);\n    }\n  }\n\n  function addJuryVote(bytes32 _option, bool forUnitTest) public { // FIXME: Remove unit test options before deploying to testnet!\n    require(contractPhase == Phase.Jury); // require it to be in jury phase\n    require(!selectedJurys[msg.sender].hasVoted); //no double voting\n    require(selectedJurys[msg.sender].isAssigned);\n    selectedJurys[msg.sender].hasVoted = true;\n    selectedJurys[msg.sender].votedOption = _option;\n    jurysVotes[_option].push(msg.sender);\n    countofJuryVotes[_option]++;\n\n    // Trigger resolve if all selected jury have voted\n    numJuryVoted++;\n    if (numJuryVoted == numOfJury) {\n      emit ResolveCalled(\"Jury\");\n      resolve(forUnitTest);\n    }\n  }\n\n  // Getter function for test\n  function checkIfSelectedArbitrator() public view returns (bool) {\n    return selectedArbitrators[msg.sender].isAssigned;\n  }\n\n  /*\n  resolve() will be called after all selected arbitrators have voted for the truth\n  TODO: figure out how to make last arbitrator call resolve function and are we going to charge gas fees to last arbitrator? \n  NOTE: Events for testing purpose. Can see if FE requires events as well else remove before deployment on testnet\n  */\n  event ResolveCalled(string source);\n\n  function resolve(bool forUnitTest) internal { // FIXME: Remove unit test options before deploying to testnet!\n    require(contractPhase != Phase.Open && contractPhase != Phase.Resolved);\n    if(contractPhase == Phase.Jury){ \n      uint finalWinIndex = getJuryVerdict();\n      winningOptionIndex = finalWinIndex;\n      resolveWithoutTie(finalWinIndex, forUnitTest);\n      return;\n    }\n    \n    (bool hasTie, uint winIndex) = getArbitratorVerdict();\n    if (!hasTie) {\n      winningOptionIndex = winIndex;\n      resolveWithoutTie(winIndex, forUnitTest);\n    } else {\n      resolveWithTie();\n    }\n  }\n\n  function getJuryVerdict() public view returns (uint) {\n    uint largest = 0;\n    uint winningOption;\n    for (uint i = 0; i < options.length; i++){\n      uint temp = countofJuryVotes[options[i]];\n      if (temp > largest){\n        largest = temp;\n        winningOption = i;\n      }\n    }\n    return winningOption;\n  }\n\n  function getArbitratorVerdict() public view returns (bool,uint){\n    uint largest = 0;\n    uint winningOption;\n    bool hasTie = false;\n    for (uint i =0; i < options.length; i++){\n      uint temp = countofArbVotes[options[i]];\n      if (temp > largest){\n        largest = temp;\n        hasTie = false;\n        winningOption = i;\n      } else if (temp == largest){\n        hasTie = true;\n      }\n    }\n    return (hasTie, winningOption);\n  }\n\n  function testUpdateWinScore() public {\n    PredictionMarket marketInstance = PredictionMarket(parentContract);\n    marketInstance.updateWinScore(address(uint160(confirmedTrades[0].shareOwners[0])));\n  }\n\n  // TODO: Payout to arbitrators, jury/creator\n  function resolveWithoutTie(uint winIndex, bool forUnitTest) public payable returns(uint) { // FIXME: Remove unit test options before deploying to testnet!\n    require(contractPhase != Phase.Open && contractPhase != Phase.Resolved); // Check required as function is public\n    PredictionMarket marketInstance = PredictionMarket(parentContract);\n    uint temp = 0;\n    for(uint i = 0; i<confirmedTrades.length; i++){\n      for(uint j = 0; j<confirmedTrades[i].shareOwners.length; j++){\n        if (confirmedTrades[i].shareOwners[j] != address(uint160(0x0))){\n          temp = temp + 10;\n          if(j == winIndex){\n            marketInstance.updateWinScore(address(uint160(confirmedTrades[i].shareOwners[j])));\n            payoutToWinners(confirmedTrades[i].shareOwners[j]); \n          } else {\n            marketInstance.updateLoseScore(confirmedTrades[i].shareOwners[j]);\n          }\n        }\n      }\n    }\n    if (!forUnitTest) {\n      payoutToArbitrators(winIndex);\n      if (contractPhase != Phase.Jury) {\n        payoutToCreator();\n      } else {\n        payoutToJury(winIndex);\n      }\n    }\n    contractPhase = Phase.Resolved;\n    return temp;\n  }\n\n  function payoutToCreator() public payable {\n    if (!hasReceivedPayout[topicCreator]) {\n      hasReceivedPayout[topicCreator] = true;\n      topicCreator.transfer(uint(marketCap) / uint(100));\n      PredictionMarket marketInstance = PredictionMarket(parentContract);\n      marketInstance.transferCreatorBond(topicCreator, uint(creatorBond));\n    }\n  }\n\n  function payoutToJury(uint winIndex) public payable {\n    PredictionMarket marketInstance = PredictionMarket(parentContract);\n\n    // Creator bond is forfeited to the jury\n    uint juryShare = (uint(marketCap) / uint(100)); // integer division\n    bytes32 winningOption = options[winIndex];\n    uint numWinners = countofJuryVotes[winningOption];\n    for (uint i = 0; i < numWinners; i++) {\n      address payable winningJury = address(uint160(jurysVotes[winningOption][i]));\n      hasReceivedPayout[winningJury] = true;\n      uint transferAmount = uint(juryShare) / uint(numWinners);\n      marketInstance.transferCreatorBond(winningJury, (uint(creatorBond) / numWinners));\n      winningJury.transfer(transferAmount);\n    }\n  }\n\n  function payoutToArbitrators(uint winIndex) public payable {\n    uint arbitratorShare = uint(marketCap) / uint(100); // integer division\n    bytes32 winningOption = options[winIndex];\n    uint numWinners = countofArbVotes[winningOption];\n    for (uint i = 0; i < numWinners; i++) {\n      address payable winningArbitrator = address(uint160(arbitratorsVotes[winningOption][i]));\n      hasReceivedPayout[winningArbitrator] = true;\n      winningArbitrator.transfer(uint(arbitratorShare) / uint(numWinners));\n    }\n  }\n\n  function payoutToWinners(address payable winner) public payable {\n    if (!hasReceivedPayout[winner]) {\n      hasReceivedPayout[winner] = true;\n      winner.transfer(0.98 ether);\n      hasReceivedPayout[winner] = false; // set back to false in case trader bought more than 1 share\n    }\n  }\n \n  // FIXME: Change visibility to internal before deploying on testnet!\n  // Use public for unit tests\n  function resolveWithTie() public {\n    contractPhase = Phase.Jury;\n    selectJury();\n  }\n\n  function selectJury() internal {\n    PredictionMarket marketInstance = PredictionMarket(parentContract);\n    address payable[] memory allArbitrators = marketInstance.getAllArbitrators();\n\n    // If there are less than 5 remaining arbitrators, select all of them as jury\n    // Topic creator is excluded from selection as well\n    if (allArbitrators.length - arbitrators.length <= 5) {\n      uint diff = allArbitrators.length - arbitrators.length;\n      address payable[] memory remainingArbitrators = new address payable[](diff);\n      uint ptr = 0;\n      for (uint k = 0; k < allArbitrators.length; k++) {\n        address payable arb = allArbitrators[k];\n        if (selectedArbitrators[arb].isAssigned || arb == topicCreator || hasBoughtShare[arb]) {\n          continue;\n        }\n        selectedJurys[arb] = SelectedJury(true, false, bytes32(0));\n        remainingArbitrators[ptr] = arb;\n        ptr++;\n      }\n      // If less than diff arbitrators are selected (i.e. one of the remaining is the topic creator)\n      // last address will be address(0)\n      jury = remainingArbitrators;\n      numOfJury = ptr; // Ptr will indicate how many jury were selected in the end\n      return;\n    }\n\n    // Else, create ballot where number of chances is proportional to the arbitrator's trustworthiness\n    address payable[] memory ballot = new address payable[](allArbitrators.length * 10); // Max length is when all arbitrators are at 100 score\n    uint ballotPointer = 0;\n\n    for (uint i = 0; i < allArbitrators.length; i++) {\n      address payable arbitrator = allArbitrators[i];\n      if (selectedArbitrators[arbitrator].isAssigned || arbitrator == topicCreator || hasBoughtShare[arbitrator]) {\n        continue;\n      }\n      (,uint8 trustworthiness,) = marketInstance.arbitrators(arbitrator); // Access trustworthiness score of struct\n      uint8 chance = trustworthiness / uint8(10);\n      for (uint j = 0; j < chance; j++) {\n        ballot[ballotPointer] = arbitrator;\n        ballotPointer++;\n      }\n    }\n\n    // Select random jury from the ballot\n    // Rechoose if address is already selected in the jury\n    address payable[] memory juryMemory = new address payable[](5);\n    uint juryPointer = 0;\n    // Max tries is bounded by 51 => For 1st 4 jury, repeated hit their address again = 4 * 10, \n    // 10 additional tries if creator is arbitrator, hence 51st try is guaranteed to resolve\n    uint8 triesLeft = 51; \n    while (juryPointer < 5 && triesLeft > 0) {\n      uint next = uint(keccak256(abi.encodePacked(block.timestamp, msg.sender, nonce))) % ballotPointer;\n      nonce++;\n      address payable potential = ballot[next];\n      if (!selectedJurys[potential].isAssigned) {\n        selectedJurys[potential] = SelectedJury(true, false, bytes32(0));\n        juryMemory[juryPointer] = potential;\n        juryPointer++;\n      }\n      triesLeft--;\n    }\n    jury = juryMemory;\n    numOfJury = juryPointer; // Jury pointer would indicate number of jury members finally selected. Should be 5 but can be lower in edge cases\n  }\n\n  // ===================================================\n  // Getters\n  // ===================================================\n\n  function getAllPendingVotePrice() view public returns(bytes32[] memory){\n    uint len = pendingVotes.length;\n    bytes32[] memory bytesArray = new bytes32[](len);\n    for (uint i = 0; i < len; i++) {\n      bytesArray[i] = bytes32(pendingVotes[i].price);\n    }\n    return bytesArray;\n  } \n\n  function getLastTradedPrices() view public returns(bytes32[] memory){\n    uint len = lastTradedPrices.length;\n    bytes32[] memory bytesArray = new bytes32[](len);\n    for (uint i = 0; i < len; i++) {\n      bytesArray[i] = bytes32(lastTradedPrices[i]);\n    }\n    return bytesArray;\n  }\n\n// Function will return an array of 8 elements in total: [win0, lose0, win1, lose1...]\n  function getLoseScores() view public returns(bytes32[] memory){\n    uint len = loseScores.length;\n    bytes32[] memory bytesArray = new bytes32[](len);\n    for (uint i = 0; i < len; i++) {\n      bytesArray[i] = bytes32(loseScores[i]);\n    }\n    return bytesArray;\n  }\n\n  // Function will return an array of 8 elements in total: [win0, lose0, win1, lose1...]\n  function getWinScores() view public returns(bytes32[] memory){\n    uint len = loseScores.length;\n    bytes32[] memory bytesArray = new bytes32[](len);\n    for (uint i = 0; i < len; i++) {\n      bytesArray[i] = bytes32(winScores[i]);\n    }\n    return bytesArray;\n  }\n\n  function balanceOf() external view returns(uint) {\n    return address(this).balance;\n  }\n\n  function getOptions() public view returns (bytes32[] memory) {\n    return options;\n  }\n\n  function getArbitrators() public view returns (address payable[] memory) {\n    return arbitrators;\n  }\n\n  function getJury() public view returns (address payable[] memory) {\n    return jury;\n  }\n\n  function hasArbitratorVoted(address arbitratorAddress) public view returns (bool) {\n    return selectedArbitrators[arbitratorAddress].hasVoted;\n  }\n\n  function hasJuryVoted(address juryAddress) public view returns (bool) {\n    return selectedJurys[juryAddress].hasVoted;\n  }\n\n  // ===================================================\n  // For testing purposes\n  // ===================================================\n  event UpdateWeightedVotes(address add, uint[2] beforeUpdate);\n\n  function getNumOfJurySelected() public view returns (uint) {\n    return numOfJury;\n  }\n\n  function getLastConfirmedTradeAddresses() public view returns (address, address, address, address) {\n    trade memory lastConfirmedTrade = confirmedTrades[confirmedTrades.length - 1];\n    address payable[4] memory tradeOwners = lastConfirmedTrade.shareOwners;\n    return (tradeOwners[0], tradeOwners[1], tradeOwners[2], tradeOwners[3]);\n  }\n}\n",
  "sourcePath": "/Users/gwynethang/Documents/Academics/Y4S1/Blockchain/Decentralised_Prediction_Market/contracts/Topic.sol",
  "compiler": {
    "name": "solc",
    "version": "0.5.16+commit.9c3226ce.Emscripten.clang"
  },
  "schemaVersion": "3.3.1",
  "updatedAt": "2020-10-28T07:05:59.107Z",
  "networkType": "ethereum",
  "devdoc": {
    "methods": {}
  },
  "userdoc": {
    "methods": {}
  }
}