{
  "contractName": "Topic",
  "abi": [
    {
      "inputs": [
        {
          "internalType": "address payable",
          "name": "_creator",
          "type": "address"
        },
        {
          "internalType": "string",
          "name": "_name",
          "type": "string"
        },
        {
          "internalType": "string",
          "name": "_description",
          "type": "string"
        },
        {
          "internalType": "bytes32[]",
          "name": "_options",
          "type": "bytes32[]"
        },
        {
          "internalType": "uint256",
          "name": "_bondValue",
          "type": "uint256"
        },
        {
          "internalType": "uint256",
          "name": "_expiryDate",
          "type": "uint256"
        }
      ],
      "payable": true,
      "stateMutability": "payable",
      "type": "constructor"
    },
    {
      "constant": true,
      "inputs": [],
      "name": "creatorBond",
      "outputs": [
        {
          "internalType": "uint256",
          "name": "",
          "type": "uint256"
        }
      ],
      "payable": false,
      "stateMutability": "view",
      "type": "function"
    },
    {
      "constant": true,
      "inputs": [],
      "name": "description",
      "outputs": [
        {
          "internalType": "string",
          "name": "",
          "type": "string"
        }
      ],
      "payable": false,
      "stateMutability": "view",
      "type": "function"
    },
    {
      "constant": true,
      "inputs": [],
      "name": "expiryDate",
      "outputs": [
        {
          "internalType": "uint256",
          "name": "",
          "type": "uint256"
        }
      ],
      "payable": false,
      "stateMutability": "view",
      "type": "function"
    },
    {
      "constant": true,
      "inputs": [],
      "name": "marketCap",
      "outputs": [
        {
          "internalType": "uint256",
          "name": "",
          "type": "uint256"
        }
      ],
      "payable": false,
      "stateMutability": "view",
      "type": "function"
    },
    {
      "constant": true,
      "inputs": [],
      "name": "name",
      "outputs": [
        {
          "internalType": "string",
          "name": "",
          "type": "string"
        }
      ],
      "payable": false,
      "stateMutability": "view",
      "type": "function"
    },
    {
      "constant": true,
      "inputs": [
        {
          "internalType": "uint256",
          "name": "",
          "type": "uint256"
        }
      ],
      "name": "options",
      "outputs": [
        {
          "internalType": "bytes32",
          "name": "",
          "type": "bytes32"
        }
      ],
      "payable": false,
      "stateMutability": "view",
      "type": "function"
    },
    {
      "constant": true,
      "inputs": [],
      "name": "topicCreator",
      "outputs": [
        {
          "internalType": "address payable",
          "name": "",
          "type": "address"
        }
      ],
      "payable": false,
      "stateMutability": "view",
      "type": "function"
    },
    {
      "constant": false,
      "inputs": [
        {
          "internalType": "uint256",
          "name": "amount",
          "type": "uint256"
        },
        {
          "internalType": "uint256",
          "name": "option",
          "type": "uint256"
        }
      ],
      "name": "voteOption",
      "outputs": [
        {
          "internalType": "bool",
          "name": "",
          "type": "bool"
        }
      ],
      "payable": true,
      "stateMutability": "payable",
      "type": "function"
    },
    {
      "constant": true,
      "inputs": [
        {
          "internalType": "uint256",
          "name": "option",
          "type": "uint256"
        }
      ],
      "name": "getPendingVotePrice",
      "outputs": [
        {
          "internalType": "uint256",
          "name": "",
          "type": "uint256"
        }
      ],
      "payable": false,
      "stateMutability": "view",
      "type": "function"
    },
    {
      "constant": true,
      "inputs": [],
      "name": "getAllPendingVotePrice",
      "outputs": [
        {
          "internalType": "bytes32[]",
          "name": "",
          "type": "bytes32[]"
        }
      ],
      "payable": false,
      "stateMutability": "view",
      "type": "function"
    },
    {
      "constant": true,
      "inputs": [],
      "name": "balanceOf",
      "outputs": [
        {
          "internalType": "uint256",
          "name": "",
          "type": "uint256"
        }
      ],
      "payable": false,
      "stateMutability": "view",
      "type": "function"
    },
    {
      "constant": true,
      "inputs": [],
      "name": "getOptions",
      "outputs": [
        {
          "internalType": "bytes32[]",
          "name": "",
          "type": "bytes32[]"
        }
      ],
      "payable": false,
      "stateMutability": "view",
      "type": "function"
    }
  ],
  "bytecode": "0x6080604052604051620010f5380380620010f5833981810160405260c08110156200002957600080fd5b8101908080519060200190929190805160405193929190846401000000008211156200005457600080fd5b838201915060208201858111156200006b57600080fd5b82518660018202830111640100000000821117156200008957600080fd5b8083526020830192505050908051906020019080838360005b83811015620000bf578082015181840152602081019050620000a2565b50505050905090810190601f168015620000ed5780820380516001836020036101000a031916815260200191505b50604052602001805160405193929190846401000000008211156200011157600080fd5b838201915060208201858111156200012857600080fd5b82518660018202830111640100000000821117156200014657600080fd5b8083526020830192505050908051906020019080838360005b838110156200017c5780820151818401526020810190506200015f565b50505050905090810190601f168015620001aa5780820380516001836020036101000a031916815260200191505b5060405260200180516040519392919084640100000000821115620001ce57600080fd5b83820191506020820185811115620001e557600080fd5b82518660208202830111640100000000821117156200020357600080fd5b8083526020830192505050908051906020019060200280838360005b838110156200023c5780820151818401526020810190506200021f565b505050509050016040526020018051906020019092919080519060200190929190505050856000806101000a81548173ffffffffffffffffffffffffffffffffffffffff021916908373ffffffffffffffffffffffffffffffffffffffff1602179055508460019080519060200190620002b8929190620003bf565b508360029080519060200190620002d1929190620003bf565b508260039080519060200190620002ea92919062000446565b506000600481905550816005819055508060068190555060008090505b6004811015620003b257604051806040016040528060008152602001600073ffffffffffffffffffffffffffffffffffffffff16815250600782600481106200034c57fe5b600202016000820151816000015560208201518160010160006101000a81548173ffffffffffffffffffffffffffffffffffffffff021916908373ffffffffffffffffffffffffffffffffffffffff160217905550905050808060010191505062000307565b50505050505050620004e8565b828054600181600116156101000203166002900490600052602060002090601f016020900481019282601f106200040257805160ff191683800117855562000433565b8280016001018555821562000433579182015b828111156200043257825182559160200191906001019062000415565b5b50905062000442919062000498565b5090565b82805482825590600052602060002090810192821562000485579160200282015b828111156200048457825182559160200191906001019062000467565b5b509050620004949190620004c0565b5090565b620004bd91905b80821115620004b95760008160009055506001016200049f565b5090565b90565b620004e591905b80821115620004e1576000816000905550600101620004c7565b5090565b90565b610bfd80620004f86000396000f3fe6080604052600436106100a75760003560e01c8063516dde4311610064578063516dde431461029d578063722713f7146102c85780637284e416146102f3578063b745467014610383578063cc2ee196146103d2578063fbcc1e711461043e576100a7565b806306fdde03146100ac578063288fa8021461013c5780632c135b93146101a8578063409e2205146101d3578063459d6e4f14610222578063509bd3371461024d575b600080fd5b3480156100b857600080fd5b506100c1610495565b6040518080602001828103825283818151815260200191508051906020019080838360005b838110156101015780820151818401526020810190506100e6565b50505050905090810190601f16801561012e5780820380516001836020036101000a031916815260200191505b509250505060405180910390f35b34801561014857600080fd5b50610151610533565b6040518080602001828103825283818151815260200191508051906020019060200280838360005b83811015610194578082015181840152602081019050610179565b505050509050019250505060405180910390f35b3480156101b457600080fd5b506101bd6105c3565b6040518082815260200191505060405180910390f35b3480156101df57600080fd5b5061020c600480360360208110156101f657600080fd5b81019080803590602001909291905050506105c9565b6040518082815260200191505060405180910390f35b34801561022e57600080fd5b506102376105ea565b6040518082815260200191505060405180910390f35b6102836004803603604081101561026357600080fd5b8101908080359060200190929190803590602001909291905050506105f0565b604051808215151515815260200191505060405180910390f35b3480156102a957600080fd5b506102b26108f8565b6040518082815260200191505060405180910390f35b3480156102d457600080fd5b506102dd6108fe565b6040518082815260200191505060405180910390f35b3480156102ff57600080fd5b50610308610906565b6040518080602001828103825283818151815260200191508051906020019080838360005b8381101561034857808201518184015260208101905061032d565b50505050905090810190601f1680156103755780820380516001836020036101000a031916815260200191505b509250505060405180910390f35b34801561038f57600080fd5b506103bc600480360360208110156103a657600080fd5b81019080803590602001909291905050506109a4565b6040518082815260200191505060405180910390f35b3480156103de57600080fd5b506103e76109c2565b6040518080602001828103825283818151815260200191508051906020019060200280838360005b8381101561042a57808201518184015260208101905061040f565b505050509050019250505060405180910390f35b34801561044a57600080fd5b50610453610a56565b604051808273ffffffffffffffffffffffffffffffffffffffff1673ffffffffffffffffffffffffffffffffffffffff16815260200191505060405180910390f35b60018054600181600116156101000203166002900480601f01602080910402602001604051908101604052809291908181526020018280546001816001161561010002031660029004801561052b5780601f106105005761010080835404028352916020019161052b565b820191906000526020600020905b81548152906001019060200180831161050e57829003601f168201915b505050505081565b606060006004905060608160405190808252806020026020018201604052801561056c5781602001602082028038833980820191505090505b50905060008090505b828110156105ba576007816004811061058a57fe5b600202016000015460001b8282815181106105a157fe5b6020026020010181815250508080600101915050610575565b50809250505090565b60045481565b600381815481106105d657fe5b906000526020600020016000915090505481565b60055481565b60006105fa610a7b565b60405180604001604052808581526020013373ffffffffffffffffffffffffffffffffffffffff168152509050836007846004811061063557fe5b60020201600001541061064c5760009150506108f2565b6000670de0b6b3a76400009050610661610aab565b60008090505b600481101561071657858114610709576007816004811061068457fe5b6002020160000154830392506007816004811061069d57fe5b6002020160010160009054906101000a900473ffffffffffffffffffffffffffffffffffffffff168282600481106106d157fe5b602002019073ffffffffffffffffffffffffffffffffffffffff16908173ffffffffffffffffffffffffffffffffffffffff16815250505b8080600101915050610667565b5085821015610852573381866004811061072c57fe5b602002019073ffffffffffffffffffffffffffffffffffffffff16908173ffffffffffffffffffffffffffffffffffffffff168152505061076b610acd565b6040518060200160405280838152509050600f81908060018154018082558091505090600182039060005260206000209060040201600090919290919091506000820151816000019060046107c1929190610ae6565b505050503373ffffffffffffffffffffffffffffffffffffffff166108fc8489039081150290604051600060405180830381858888f1935050505015801561080d573d6000803e3d6000fd5b5060008090505b60048110156108445760006007826004811061082c57fe5b60020201600001819055508080600101915050610814565b5060019450505050506108f2565b61085a610a7b565b60405180604001604052808881526020013373ffffffffffffffffffffffffffffffffffffffff168152509050806007876004811061089557fe5b600202016000820151816000015560208201518160010160006101000a81548173ffffffffffffffffffffffffffffffffffffffff021916908373ffffffffffffffffffffffffffffffffffffffff160217905550905050505050505b92915050565b60065481565b600047905090565b60028054600181600116156101000203166002900480601f01602080910402602001604051908101604052809291908181526020018280546001816001161561010002031660029004801561099c5780601f106109715761010080835404028352916020019161099c565b820191906000526020600020905b81548152906001019060200180831161097f57829003601f168201915b505050505081565b6000600782600481106109b357fe5b60020201600001549050919050565b6060600060038054905090506060816040519080825280602002602001820160405280156109ff5781602001602082028038833980820191505090505b50905060008090505b82811015610a4d5760038181548110610a1d57fe5b9060005260206000200154828281518110610a3457fe5b6020026020010181815250508080600101915050610a08565b50809250505090565b6000809054906101000a900473ffffffffffffffffffffffffffffffffffffffff1681565b604051806040016040528060008152602001600073ffffffffffffffffffffffffffffffffffffffff1681525090565b6040518060800160405280600490602082028038833980820191505090505090565b6040518060200160405280610ae0610b63565b81525090565b8260048101928215610b52579160200282015b82811115610b515782518260006101000a81548173ffffffffffffffffffffffffffffffffffffffff021916908373ffffffffffffffffffffffffffffffffffffffff16021790555091602001919060010190610af9565b5b509050610b5f9190610b85565b5090565b6040518060800160405280600490602082028038833980820191505090505090565b610bc591905b80821115610bc157600081816101000a81549073ffffffffffffffffffffffffffffffffffffffff021916905550600101610b8b565b5090565b9056fea265627a7a72315820931a1b9507968cd2cf27c83360f4300b2f8742a19f3971a17375f4141b6f20df64736f6c63430005100032",
  "source": "// SPDX-License-Identifier: MIT\npragma solidity >=0.4.21 <0.7.0;\n// pragma solidity ^0.7.0;\n\ncontract Topic {\n\n  address payable public topicCreator;\n  string public name;\n  string public description;\n  bytes32[] public options;\n  uint public marketCap;\n  uint public creatorBond;\n  uint256 public expiryDate;\n\n  // Pending votes\n  voteStruct[4] pendingVotes;\n  struct voteStruct {\n    uint price; \n    address voter;\n  }\n\n\n  // Successful trades\n  trade[] confirmedTrades;\n  struct trade {\n    address[4] shareOwners;\n  }\n\n  constructor (\n      address payable _creator, string memory _name, string memory _description, bytes32[] memory _options, uint _bondValue, uint256 _expiryDate\n    ) public payable {\n        topicCreator = _creator;\n        name = _name;\n        description = _description;\n        options = _options;\n        marketCap = 0;\n        creatorBond = _bondValue;\n        expiryDate = _expiryDate;\n\n        // init pending votes\n        for (uint i = 0; i < 4; i++) {\n          pendingVotes[i] = voteStruct(0, address(0));\n        }\n    }\n\n  function voteOption(uint amount, uint option) public payable returns(bool){\n    // 1. Transfer the money in\n    // 2. If can be resolved now, resolve it and transfer any remaining money\n    voteStruct memory vote = voteStruct(amount, msg.sender);\n\n    // Reject the vote if it is lower than the last available vote\n    if(pendingVotes[option].price >=  amount){\n      return false;\n    }\n\n    // Try to resolve the vote\n    uint balance = 1000000000000000000; \n    address[4] memory tempTrade;\n    for(uint i=0; i< 4; i++){\n      if(i != option){\n        balance = balance - pendingVotes[i].price; \n        tempTrade[i] = pendingVotes[i].voter;\n      }\n    }\n    \n    // Vote can go through\n    if(balance < amount){\n      // Confirm the trade\n      tempTrade[option] = msg.sender;\n      trade memory tradeConfirmed = trade(tempTrade);\n      confirmedTrades.push(tradeConfirmed);\n\n      // Send the remaining money back to the sender\n      msg.sender.transfer(amount - balance);\n      // Reset the pending votes instance\n      for(uint i =0; i< 4; i++){\n        pendingVotes[i].price =0; \n      }\n      return true;\n    }\n\n    // if vote cannot go through, update the pending votes and keep the money\n    else {\n      voteStruct memory tempVote = voteStruct(amount, msg.sender); \n      pendingVotes[option] = tempVote;\n    }\n  }\n\n  function getPendingVotePrice(uint option) view public returns(uint){\n    return pendingVotes[option].price;\n  } \n\n\n  function getAllPendingVotePrice() view public returns(bytes32[] memory){\n    uint len = pendingVotes.length;\n    bytes32[] memory bytesArray = new bytes32[](len);\n    for (uint i = 0; i < len; i++) {\n      bytesArray[i] = bytes32(pendingVotes[i].price);\n    }\n    return bytesArray;\n  } \n\n  function balanceOf() external view returns(uint) {\n    return address(this).balance;\n  }\n\n  function getOptions() public view returns (bytes32[] memory) {\n    uint len = options.length;\n    bytes32[] memory bytesArray = new bytes32[](len);\n    for (uint i = 0; i < len; i++) {\n      bytesArray[i] = options[i];\n    }\n    return bytesArray;\n  }\n}\n",
  "sourcePath": "/Users/collinlim/Desktop/Desktop.nosync/School/CZ4153/Project/Decentralised_Prediction_Market/contracts/Topic.sol",
  "compiler": {
    "name": "solc",
    "version": "0.5.16+commit.9c3226ce.Emscripten.clang"
  },
  "schemaVersion": "3.2.5",
  "updatedAt": "2020-10-17T06:24:29.881Z",
  "networkType": "ethereum",
  "devdoc": {
    "methods": {}
  },
  "userdoc": {
    "methods": {}
  }
}