{
  "contractName": "Topic",
  "abi": [
    {
      "inputs": [
        {
          "internalType": "string",
          "name": "_name",
          "type": "string"
        }
      ],
      "payable": true,
      "stateMutability": "payable",
      "type": "constructor"
    },
    {
      "constant": true,
      "inputs": [],
      "name": "name",
      "outputs": [
        {
          "internalType": "string",
          "name": "",
          "type": "string"
        }
      ],
      "payable": false,
      "stateMutability": "view",
      "type": "function"
    },
    {
      "constant": false,
      "inputs": [
        {
          "internalType": "uint256",
          "name": "amount",
          "type": "uint256"
        },
        {
          "internalType": "uint256",
          "name": "option",
          "type": "uint256"
        }
      ],
      "name": "voteOption",
      "outputs": [
        {
          "internalType": "bool",
          "name": "",
          "type": "bool"
        }
      ],
      "payable": true,
      "stateMutability": "payable",
      "type": "function"
    },
    {
      "constant": true,
      "inputs": [
        {
          "internalType": "uint256",
          "name": "option",
          "type": "uint256"
        }
      ],
      "name": "getPendingVotePrice",
      "outputs": [
        {
          "internalType": "uint256",
          "name": "",
          "type": "uint256"
        }
      ],
      "payable": false,
      "stateMutability": "view",
      "type": "function"
    },
    {
      "constant": true,
      "inputs": [],
      "name": "getAllPendingVotePrice",
      "outputs": [
        {
          "internalType": "uint256",
          "name": "",
          "type": "uint256"
        }
      ],
      "payable": false,
      "stateMutability": "view",
      "type": "function"
    },
    {
      "constant": true,
      "inputs": [],
      "name": "getTestName",
      "outputs": [
        {
          "internalType": "uint256",
          "name": "",
          "type": "uint256"
        }
      ],
      "payable": false,
      "stateMutability": "view",
      "type": "function"
    },
    {
      "constant": true,
      "inputs": [],
      "name": "balanceOf",
      "outputs": [
        {
          "internalType": "uint256",
          "name": "",
          "type": "uint256"
        }
      ],
      "payable": false,
      "stateMutability": "view",
      "type": "function"
    }
  ],
  "bytecode": "0x60806040526040516109333803806109338339818101604052602081101561002657600080fd5b810190808051604051939291908464010000000082111561004657600080fd5b8382019150602082018581111561005c57600080fd5b825186600182028301116401000000008211171561007957600080fd5b8083526020830192505050908051906020019080838360005b838110156100ad578082015181840152602081019050610092565b50505050905090810190601f1680156100da5780820380516001836020036101000a031916815260200191505b5060405250505080600190805190602001906100f79291906100fe565b50506101a3565b828054600181600116156101000203166002900490600052602060002090601f016020900481019282601f1061013f57805160ff191683800117855561016d565b8280016001018555821561016d579182015b8281111561016c578251825591602001919060010190610151565b5b50905061017a919061017e565b5090565b6101a091905b8082111561019c576000816000905550600101610184565b5090565b90565b610781806101b26000396000f3fe6080604052600436106100555760003560e01c806306fdde031461005a578063288fa802146100ea578063509bd3371461011557806358bee3db14610165578063722713f714610190578063b7454670146101bb575b600080fd5b34801561006657600080fd5b5061006f61020a565b6040518080602001828103825283818151815260200191508051906020019080838360005b838110156100af578082015181840152602081019050610094565b50505050905090810190601f1680156100dc5780820380516001836020036101000a031916815260200191505b509250505060405180910390f35b3480156100f657600080fd5b506100ff6102a8565b6040518082815260200191505060405180910390f35b61014b6004803603604081101561012b57600080fd5b8101908080359060200190929190803590602001909291905050506102c5565b604051808215151515815260200191505060405180910390f35b34801561017157600080fd5b5061017a6105cd565b6040518082815260200191505060405180910390f35b34801561019c57600080fd5b506101a56105d7565b6040518082815260200191505060405180910390f35b3480156101c757600080fd5b506101f4600480360360208110156101de57600080fd5b81019080803590602001909291905050506105e1565b6040518082815260200191505060405180910390f35b60018054600181600116156101000203166002900480601f0160208091040260200160405190810160405280929190818152602001828054600181600116156101000203166002900480156102a05780601f10610275576101008083540402835291602001916102a0565b820191906000526020600020905b81548152906001019060200180831161028357829003601f168201915b505050505081565b600060066000600481106102b857fe5b6002020160000154905090565b60006102cf6105ff565b60405180604001604052808581526020013373ffffffffffffffffffffffffffffffffffffffff168152509050836006846004811061030a57fe5b6002020160000154106103215760009150506105c7565b6000670de0b6b3a7640000905061033661062f565b60008090505b60048110156103eb578581146103de576006816004811061035957fe5b6002020160000154830392506006816004811061037257fe5b6002020160010160009054906101000a900473ffffffffffffffffffffffffffffffffffffffff168282600481106103a657fe5b602002019073ffffffffffffffffffffffffffffffffffffffff16908173ffffffffffffffffffffffffffffffffffffffff16815250505b808060010191505061033c565b5085821015610527573381866004811061040157fe5b602002019073ffffffffffffffffffffffffffffffffffffffff16908173ffffffffffffffffffffffffffffffffffffffff1681525050610440610651565b6040518060200160405280838152509050600e819080600181540180825580915050906001820390600052602060002090600402016000909192909190915060008201518160000190600461049692919061066a565b505050503373ffffffffffffffffffffffffffffffffffffffff166108fc8489039081150290604051600060405180830381858888f193505050501580156104e2573d6000803e3d6000fd5b5060008090505b60048110156105195760006006826004811061050157fe5b600202016000018190555080806001019150506104e9565b5060019450505050506105c7565b61052f6105ff565b60405180604001604052808881526020013373ffffffffffffffffffffffffffffffffffffffff168152509050806006876004811061056a57fe5b600202016000820151816000015560208201518160010160006101000a81548173ffffffffffffffffffffffffffffffffffffffff021916908373ffffffffffffffffffffffffffffffffffffffff160217905550905050505050505b92915050565b60006104d2905090565b60006104d2905090565b6000600682600481106105f057fe5b60020201600001549050919050565b604051806040016040528060008152602001600073ffffffffffffffffffffffffffffffffffffffff1681525090565b6040518060800160405280600490602082028038833980820191505090505090565b60405180602001604052806106646106e7565b81525090565b82600481019282156106d6579160200282015b828111156106d55782518260006101000a81548173ffffffffffffffffffffffffffffffffffffffff021916908373ffffffffffffffffffffffffffffffffffffffff1602179055509160200191906001019061067d565b5b5090506106e39190610709565b5090565b6040518060800160405280600490602082028038833980820191505090505090565b61074991905b8082111561074557600081816101000a81549073ffffffffffffffffffffffffffffffffffffffff02191690555060010161070f565b5090565b9056fea265627a7a72315820e52f4573a2b3c4b50f1ce425d70f0806e681efc2a43d1f51925ee3fabd81abb264736f6c63430005100032",
  "source": "// SPDX-License-Identifier: MIT\npragma solidity >=0.4.21 <0.7.0;\n// pragma solidity ^0.7.0;\n\ncontract Topic {\n  address topicCreator;\n\n  string public name;\n  string description;\n  string[] options;\n  uint marketCap;\n  uint creatorBond;\n\n  // Pending votes\n  voteStruct[4] pendingVotes;\n  struct voteStruct {\n    uint price; \n    address voter;\n  }\n\n\n  // Successful trades\n  trade[] confirmedTrades;\n  struct trade {\n    address[4] shareOwners;\n  }\n\n  constructor (string memory _name) public payable {\n      name = _name;\n  }\n\n\n  function voteOption(uint amount, uint option) public payable returns(bool){\n    // 1. Transfer the money in\n    // 2. If can be resolved now, resolve it and transfer any remaining money\n    voteStruct memory vote = voteStruct(amount, msg.sender);\n\n    // Reject the vote if it is lower than the last available vote\n    if(pendingVotes[option].price >=  amount){\n      return false;\n    }\n\n    // Try to resolve the vote\n    uint balance = 1000000000000000000; \n    address[4] memory tempTrade;\n    for(uint i=0; i< 4; i++){\n      if(i != option){\n        balance = balance - pendingVotes[i].price; \n        tempTrade[i] = pendingVotes[i].voter;\n      }\n    }\n    \n    // Vote can go through\n    if(balance < amount){\n      // Confirm the trade\n      tempTrade[option] = msg.sender;\n      trade memory tradeConfirmed = trade(tempTrade);\n      confirmedTrades.push(tradeConfirmed);\n\n      // Send the remaining money back to the sender\n      msg.sender.transfer(amount - balance);\n      // Reset the pending votes instance\n      for(uint i =0; i< 4; i++){\n        pendingVotes[i].price =0; \n      }\n      return true;\n    }\n\n    // if vote cannot go through, update the pending votes and keep the money\n    else {\n      voteStruct memory tempVote = voteStruct(amount, msg.sender); \n      pendingVotes[option] = tempVote;\n    }\n  }\n\n  function getPendingVotePrice(uint option) view public returns(uint){\n    return pendingVotes[option].price;\n  } \n\n  function getAllPendingVotePrice() view public returns(uint){\n    // return pendingVotes[0].price,pendingVotes[1].price,pendingVotes[2].price,pendingVotes[3].price;\n    return pendingVotes[0].price;\n  } \n\n  function getTestName() external view returns(uint){\n    return 1234;\n  }\n  //TODO: get All Successful trades, return an array of array of addresses\n  // function getAllSuccessfulTrades()\n\n  function balanceOf() external view returns(uint) {\n        // return address(this).balance;\n        return 1234;\n    }\n\n\n}\n",
  "sourcePath": "/Users/collinlim/Desktop/Desktop.nosync/School/CZ4153/Project/Decentralised_Prediction_Market/contracts/Topic.sol",
  "compiler": {
    "name": "solc",
    "version": "0.5.16+commit.9c3226ce.Emscripten.clang"
  },
  "schemaVersion": "3.2.5",
  "updatedAt": "2020-10-12T09:59:10.669Z",
  "networkType": "ethereum",
  "devdoc": {
    "methods": {}
  },
  "userdoc": {
    "methods": {}
  }
}