{
  "contractName": "Topic",
  "abi": [
    {
      "inputs": [
        {
          "internalType": "address payable",
          "name": "_creator",
          "type": "address"
        },
        {
          "internalType": "string",
          "name": "_name",
          "type": "string"
        },
        {
          "internalType": "string",
          "name": "_description",
          "type": "string"
        },
        {
          "internalType": "bytes32[]",
          "name": "_options",
          "type": "bytes32[]"
        },
        {
          "internalType": "uint256",
          "name": "_bondValue",
          "type": "uint256"
        },
        {
          "internalType": "uint256",
          "name": "_expiryDate",
          "type": "uint256"
        },
        {
          "internalType": "address payable[]",
          "name": "_arbitrators",
          "type": "address[]"
        },
        {
          "internalType": "address",
          "name": "_predictionMarket",
          "type": "address"
        }
      ],
      "payable": true,
      "stateMutability": "payable",
      "type": "constructor"
    },
    {
      "anonymous": false,
      "inputs": [
        {
          "indexed": false,
          "internalType": "string",
          "name": "source",
          "type": "string"
        }
      ],
      "name": "ResolveCalled",
      "type": "event"
    },
    {
      "anonymous": false,
      "inputs": [
        {
          "indexed": false,
          "internalType": "address",
          "name": "add",
          "type": "address"
        },
        {
          "indexed": false,
          "internalType": "uint256[2]",
          "name": "beforeUpdate",
          "type": "uint256[2]"
        }
      ],
      "name": "UpdateWeightedVotes",
      "type": "event"
    },
    {
      "constant": true,
      "inputs": [
        {
          "internalType": "uint256",
          "name": "",
          "type": "uint256"
        }
      ],
      "name": "arbitrators",
      "outputs": [
        {
          "internalType": "address payable",
          "name": "",
          "type": "address"
        }
      ],
      "payable": false,
      "stateMutability": "view",
      "type": "function"
    },
    {
      "constant": true,
      "inputs": [
        {
          "internalType": "bytes32",
          "name": "",
          "type": "bytes32"
        },
        {
          "internalType": "uint256",
          "name": "",
          "type": "uint256"
        }
      ],
      "name": "arbitratorsVotes",
      "outputs": [
        {
          "internalType": "address",
          "name": "",
          "type": "address"
        }
      ],
      "payable": false,
      "stateMutability": "view",
      "type": "function"
    },
    {
      "constant": true,
      "inputs": [],
      "name": "contractPhase",
      "outputs": [
        {
          "internalType": "enum Topic.Phase",
          "name": "",
          "type": "uint8"
        }
      ],
      "payable": false,
      "stateMutability": "view",
      "type": "function"
    },
    {
      "constant": true,
      "inputs": [
        {
          "internalType": "bytes32",
          "name": "",
          "type": "bytes32"
        }
      ],
      "name": "countofArbVotes",
      "outputs": [
        {
          "internalType": "uint256",
          "name": "",
          "type": "uint256"
        }
      ],
      "payable": false,
      "stateMutability": "view",
      "type": "function"
    },
    {
      "constant": true,
      "inputs": [
        {
          "internalType": "bytes32",
          "name": "",
          "type": "bytes32"
        }
      ],
      "name": "countofJuryVotes",
      "outputs": [
        {
          "internalType": "uint256",
          "name": "",
          "type": "uint256"
        }
      ],
      "payable": false,
      "stateMutability": "view",
      "type": "function"
    },
    {
      "constant": true,
      "inputs": [],
      "name": "creatorBond",
      "outputs": [
        {
          "internalType": "uint256",
          "name": "",
          "type": "uint256"
        }
      ],
      "payable": false,
      "stateMutability": "view",
      "type": "function"
    },
    {
      "constant": true,
      "inputs": [],
      "name": "description",
      "outputs": [
        {
          "internalType": "string",
          "name": "",
          "type": "string"
        }
      ],
      "payable": false,
      "stateMutability": "view",
      "type": "function"
    },
    {
      "constant": true,
      "inputs": [],
      "name": "expiryDate",
      "outputs": [
        {
          "internalType": "uint256",
          "name": "",
          "type": "uint256"
        }
      ],
      "payable": false,
      "stateMutability": "view",
      "type": "function"
    },
    {
      "constant": true,
      "inputs": [
        {
          "internalType": "uint256",
          "name": "",
          "type": "uint256"
        }
      ],
      "name": "jury",
      "outputs": [
        {
          "internalType": "address payable",
          "name": "",
          "type": "address"
        }
      ],
      "payable": false,
      "stateMutability": "view",
      "type": "function"
    },
    {
      "constant": true,
      "inputs": [
        {
          "internalType": "bytes32",
          "name": "",
          "type": "bytes32"
        },
        {
          "internalType": "uint256",
          "name": "",
          "type": "uint256"
        }
      ],
      "name": "jurysVotes",
      "outputs": [
        {
          "internalType": "address",
          "name": "",
          "type": "address"
        }
      ],
      "payable": false,
      "stateMutability": "view",
      "type": "function"
    },
    {
      "constant": true,
      "inputs": [],
      "name": "marketCap",
      "outputs": [
        {
          "internalType": "uint256",
          "name": "",
          "type": "uint256"
        }
      ],
      "payable": false,
      "stateMutability": "view",
      "type": "function"
    },
    {
      "constant": true,
      "inputs": [],
      "name": "name",
      "outputs": [
        {
          "internalType": "string",
          "name": "",
          "type": "string"
        }
      ],
      "payable": false,
      "stateMutability": "view",
      "type": "function"
    },
    {
      "constant": true,
      "inputs": [
        {
          "internalType": "uint256",
          "name": "",
          "type": "uint256"
        }
      ],
      "name": "options",
      "outputs": [
        {
          "internalType": "bytes32",
          "name": "",
          "type": "bytes32"
        }
      ],
      "payable": false,
      "stateMutability": "view",
      "type": "function"
    },
    {
      "constant": true,
      "inputs": [
        {
          "internalType": "address",
          "name": "",
          "type": "address"
        }
      ],
      "name": "selectedArbitrators",
      "outputs": [
        {
          "internalType": "bool",
          "name": "isAssigned",
          "type": "bool"
        },
        {
          "internalType": "bool",
          "name": "hasVoted",
          "type": "bool"
        },
        {
          "internalType": "bytes32",
          "name": "votedOption",
          "type": "bytes32"
        }
      ],
      "payable": false,
      "stateMutability": "view",
      "type": "function"
    },
    {
      "constant": true,
      "inputs": [
        {
          "internalType": "address",
          "name": "",
          "type": "address"
        }
      ],
      "name": "selectedJurys",
      "outputs": [
        {
          "internalType": "bool",
          "name": "isAssigned",
          "type": "bool"
        },
        {
          "internalType": "bool",
          "name": "hasVoted",
          "type": "bool"
        },
        {
          "internalType": "bytes32",
          "name": "votedOption",
          "type": "bytes32"
        }
      ],
      "payable": false,
      "stateMutability": "view",
      "type": "function"
    },
    {
      "constant": true,
      "inputs": [],
      "name": "topicCreator",
      "outputs": [
        {
          "internalType": "address payable",
          "name": "",
          "type": "address"
        }
      ],
      "payable": false,
      "stateMutability": "view",
      "type": "function"
    },
    {
      "constant": true,
      "inputs": [],
      "name": "winningOptionIndex",
      "outputs": [
        {
          "internalType": "uint256",
          "name": "",
          "type": "uint256"
        }
      ],
      "payable": false,
      "stateMutability": "view",
      "type": "function"
    },
    {
      "constant": false,
      "inputs": [
        {
          "internalType": "uint256",
          "name": "option",
          "type": "uint256"
        }
      ],
      "name": "voteOption",
      "outputs": [
        {
          "internalType": "bool",
          "name": "",
          "type": "bool"
        }
      ],
      "payable": true,
      "stateMutability": "payable",
      "type": "function"
    },
    {
      "constant": false,
      "inputs": [],
      "name": "openPhaseToVerificationPhase",
      "outputs": [],
      "payable": false,
      "stateMutability": "nonpayable",
      "type": "function"
    },
    {
      "constant": false,
      "inputs": [
        {
          "internalType": "bytes32",
          "name": "_option",
          "type": "bytes32"
        },
        {
          "internalType": "bool",
          "name": "forUnitTest",
          "type": "bool"
        }
      ],
      "name": "addArbitratorVote",
      "outputs": [],
      "payable": false,
      "stateMutability": "nonpayable",
      "type": "function"
    },
    {
      "constant": false,
      "inputs": [
        {
          "internalType": "bytes32",
          "name": "_option",
          "type": "bytes32"
        },
        {
          "internalType": "bool",
          "name": "forUnitTest",
          "type": "bool"
        }
      ],
      "name": "addJuryVote",
      "outputs": [],
      "payable": false,
      "stateMutability": "nonpayable",
      "type": "function"
    },
    {
      "constant": true,
      "inputs": [],
      "name": "checkIfSelectedArbitrator",
      "outputs": [
        {
          "internalType": "bool",
          "name": "",
          "type": "bool"
        }
      ],
      "payable": false,
      "stateMutability": "view",
      "type": "function"
    },
    {
      "constant": true,
      "inputs": [],
      "name": "getArbitratorVerdict",
      "outputs": [
        {
          "internalType": "bool",
          "name": "",
          "type": "bool"
        },
        {
          "internalType": "uint256",
          "name": "",
          "type": "uint256"
        }
      ],
      "payable": false,
      "stateMutability": "view",
      "type": "function"
    },
    {
      "constant": false,
      "inputs": [],
      "name": "testUpdateWinScore",
      "outputs": [],
      "payable": false,
      "stateMutability": "nonpayable",
      "type": "function"
    },
    {
      "constant": false,
      "inputs": [
        {
          "internalType": "uint256",
          "name": "winIndex",
          "type": "uint256"
        },
        {
          "internalType": "bool",
          "name": "forUnitTest",
          "type": "bool"
        }
      ],
      "name": "resolveWithoutTie",
      "outputs": [
        {
          "internalType": "uint256",
          "name": "",
          "type": "uint256"
        }
      ],
      "payable": true,
      "stateMutability": "payable",
      "type": "function"
    },
    {
      "constant": false,
      "inputs": [],
      "name": "resolveWithTie",
      "outputs": [],
      "payable": false,
      "stateMutability": "nonpayable",
      "type": "function"
    },
    {
      "constant": true,
      "inputs": [],
      "name": "getAllPendingVotePrice",
      "outputs": [
        {
          "internalType": "bytes32[]",
          "name": "",
          "type": "bytes32[]"
        }
      ],
      "payable": false,
      "stateMutability": "view",
      "type": "function"
    },
    {
      "constant": true,
      "inputs": [],
      "name": "getLastTradedPrices",
      "outputs": [
        {
          "internalType": "bytes32[]",
          "name": "",
          "type": "bytes32[]"
        }
      ],
      "payable": false,
      "stateMutability": "view",
      "type": "function"
    },
    {
      "constant": true,
      "inputs": [],
      "name": "getLoseScores",
      "outputs": [
        {
          "internalType": "bytes32[]",
          "name": "",
          "type": "bytes32[]"
        }
      ],
      "payable": false,
      "stateMutability": "view",
      "type": "function"
    },
    {
      "constant": true,
      "inputs": [],
      "name": "getWinScores",
      "outputs": [
        {
          "internalType": "bytes32[]",
          "name": "",
          "type": "bytes32[]"
        }
      ],
      "payable": false,
      "stateMutability": "view",
      "type": "function"
    },
    {
      "constant": true,
      "inputs": [
        {
          "internalType": "uint256",
          "name": "option",
          "type": "uint256"
        }
      ],
      "name": "getConfirmedTradeAddresses",
      "outputs": [
        {
          "internalType": "address payable[]",
          "name": "",
          "type": "address[]"
        }
      ],
      "payable": false,
      "stateMutability": "view",
      "type": "function"
    },
    {
      "constant": true,
      "inputs": [
        {
          "internalType": "uint256",
          "name": "option",
          "type": "uint256"
        }
      ],
      "name": "getConfirmedTradePrices",
      "outputs": [
        {
          "internalType": "bytes32[]",
          "name": "",
          "type": "bytes32[]"
        }
      ],
      "payable": false,
      "stateMutability": "view",
      "type": "function"
    },
    {
      "constant": true,
      "inputs": [],
      "name": "balanceOf",
      "outputs": [
        {
          "internalType": "uint256",
          "name": "",
          "type": "uint256"
        }
      ],
      "payable": false,
      "stateMutability": "view",
      "type": "function"
    },
    {
      "constant": true,
      "inputs": [],
      "name": "getOptions",
      "outputs": [
        {
          "internalType": "bytes32[]",
          "name": "",
          "type": "bytes32[]"
        }
      ],
      "payable": false,
      "stateMutability": "view",
      "type": "function"
    },
    {
      "constant": true,
      "inputs": [],
      "name": "getArbitrators",
      "outputs": [
        {
          "internalType": "address payable[]",
          "name": "",
          "type": "address[]"
        }
      ],
      "payable": false,
      "stateMutability": "view",
      "type": "function"
    },
    {
      "constant": true,
      "inputs": [],
      "name": "getJury",
      "outputs": [
        {
          "internalType": "address payable[]",
          "name": "",
          "type": "address[]"
        }
      ],
      "payable": false,
      "stateMutability": "view",
      "type": "function"
    },
    {
      "constant": true,
      "inputs": [
        {
          "internalType": "address",
          "name": "arbitratorAddress",
          "type": "address"
        }
      ],
      "name": "hasArbitratorVoted",
      "outputs": [
        {
          "internalType": "bool",
          "name": "",
          "type": "bool"
        }
      ],
      "payable": false,
      "stateMutability": "view",
      "type": "function"
    },
    {
      "constant": true,
      "inputs": [
        {
          "internalType": "address",
          "name": "juryAddress",
          "type": "address"
        }
      ],
      "name": "hasJuryVoted",
      "outputs": [
        {
          "internalType": "bool",
          "name": "",
          "type": "bool"
        }
      ],
      "payable": false,
      "stateMutability": "view",
      "type": "function"
    },
    {
      "constant": true,
      "inputs": [],
      "name": "getNumOfJurySelected",
      "outputs": [
        {
          "internalType": "uint256",
          "name": "",
          "type": "uint256"
        }
      ],
      "payable": false,
      "stateMutability": "view",
      "type": "function"
    },
    {
      "constant": true,
      "inputs": [],
      "name": "getLastConfirmedTradeAddresses",
      "outputs": [
        {
          "internalType": "address",
          "name": "",
          "type": "address"
        },
        {
          "internalType": "address",
          "name": "",
          "type": "address"
        },
        {
          "internalType": "address",
          "name": "",
          "type": "address"
        },
        {
          "internalType": "address",
          "name": "",
          "type": "address"
        }
      ],
      "payable": false,
      "stateMutability": "view",
      "type": "function"
    }
  ],
  "bytecode": "0x60806040819052602a805460ff1916905562002faa3881900390819083398181016040526101008110156200003357600080fd5b8151602083018051604051929492938301929190846401000000008211156200005b57600080fd5b9083019060208201858111156200007157600080fd5b82516401000000008111828201881017156200008c57600080fd5b82525081516020918201929091019080838360005b83811015620000bb578181015183820152602001620000a1565b50505050905090810190601f168015620000e95780820380516001836020036101000a031916815260200191505b50604052602001805160405193929190846401000000008211156200010d57600080fd5b9083019060208201858111156200012357600080fd5b82516401000000008111828201881017156200013e57600080fd5b82525081516020918201929091019080838360005b838110156200016d57818101518382015260200162000153565b50505050905090810190601f1680156200019b5780820380516001836020036101000a031916815260200191505b5060405260200180516040519392919084640100000000821115620001bf57600080fd5b908301906020820185811115620001d557600080fd5b8251866020820283011164010000000082111715620001f357600080fd5b82525081516020918201928201910280838360005b838110156200022257818101518382015260200162000208565b5050505091909101604081815260208401519084015160609094018051919694959294935090846401000000008211156200025c57600080fd5b9083019060208201858111156200027257600080fd5b82518660208202830111640100000000821117156200029057600080fd5b82525081516020918201928201910280838360005b83811015620002bf578181015183820152602001620002a5565b505050509190910160405250602090810151600a80546001600160a01b038084166001600160a01b03199283161790925560008054928e169290911691909117905589519093506200031892506001918a0190620004af565b5085516200032e906002906020890190620004af565b5084516200034490600390602088019062000534565b5060006004556005849055600683905581516200036990600790602085019062000571565b50600a805461ffff60a01b1916601760a01b1760ff60b01b19168155600c805460ff1916905560095560005b8551811015620003ff576040805180820190915260008082526020820152600f8260048110620003c157fe5b825160029190910291909101908155602090910151600191820180546001600160a01b0319166001600160a01b039092169190911790550162000395565b5060005b8251811015620004a05760405180606001604052806001151581526020016000151581526020016000801b815250602460008584815181106200044257fe5b6020908102919091018101516001600160a01b03168252818101929092526040908101600020835181549385015115156101000261ff001991151560ff19909516949094171692909217825591909101516001918201550162000403565b5050505050505050506200061e565b828054600181600116156101000203166002900490600052602060002090601f016020900481019282601f10620004f257805160ff191683800117855562000522565b8280016001018555821562000522579182015b828111156200052257825182559160200191906001019062000505565b5062000530929150620005d7565b5090565b8280548282559060005260206000209081019282156200052257916020028201828111156200052257825182559160200191906001019062000505565b828054828255906000526020600020908101928215620005c9579160200282015b82811115620005c957825182546001600160a01b0319166001600160a01b0390911617825560209092019160019091019062000592565b5062000530929150620005f7565b620005f491905b80821115620005305760008155600101620005de565b90565b620005f491905b80821115620005305780546001600160a01b0319168155600101620005fe565b61297c806200062e6000396000f3fe60806040526004361061023b5760003560e01c806393fc29cb1161012e578063cc2ee196116100ab578063e8a1e12e1161006f578063e8a1e12e14610813578063f06e3e2e14610828578063f4c6284b1461085b578063f745bd4d1461088d578063fbcc1e71146108a25761023b565b8063cc2ee1961461073c578063cc7e621014610751578063d3901fb51461077b578063e6cd5a1114610790578063e6ff5096146107c05761023b565b8063a8323176116100f2578063a832317614610698578063b1d5362b146106ad578063bc0da8d3146106df578063bfb0b608146106f4578063c617339b146107095761023b565b806393fc29cb146105e05780639570400f1461060a57806395e56a841461062f5780639e6fcc0614610644578063a6430cc01461066e5761023b565b80634852aa6d116101bc5780636f36ec23116101805780636f36ec231461055a578063722713f7146105775780637284e4161461058c578063729ecb07146105a1578063894c3b1f146105cb5761023b565b80634852aa6d1461048a578063516dde43146104d657806357cde0e6146104eb57806366d4bfac146105005780636f0f9f5e1461052a5761023b565b80632c135b93116102035780632c135b93146103d65780632d978163146103fd578063409e220514610436578063459d6e4f14610460578063465be85f146104755761023b565b806306fdde0314610240578063123230df146102ca57806312b8b1a314610313578063153ee2ba1461035a578063288fa80214610371575b600080fd5b34801561024c57600080fd5b506102556108b7565b6040805160208082528351818301528351919283929083019185019080838360005b8381101561028f578181015183820152602001610277565b50505050905090810190601f1680156102bc5780820380516001836020036101000a031916815260200191505b509250505060405180910390f35b3480156102d657600080fd5b506102df610944565b604080516001600160a01b039586168152938516602085015291841683830152909216606082015290519081900360800190f35b34801561031f57600080fd5b506103466004803603602081101561033657600080fd5b50356001600160a01b0316610a18565b604080519115158252519081900360200190f35b34801561036657600080fd5b5061036f610a3f565b005b34801561037d57600080fd5b50610386610ad1565b60408051602080825283518183015283519192839290830191858101910280838360005b838110156103c25781810151838201526020016103aa565b505050509050019250505060405180910390f35b3480156103e257600080fd5b506103eb610b3e565b60408051918252519081900360200190f35b34801561040957600080fd5b50610412610b44565b6040518082600381111561042257fe5b60ff16815260200191505060405180910390f35b34801561044257600080fd5b506103eb6004803603602081101561045957600080fd5b5035610b4d565b34801561046c57600080fd5b506103eb610b6b565b34801561048157600080fd5b50610386610b71565b34801561049657600080fd5b506104ba600480360360408110156104ad57600080fd5b5080359060200135610bd3565b604080516001600160a01b039092168252519081900360200190f35b3480156104e257600080fd5b506103eb610c08565b3480156104f757600080fd5b506103eb610c0e565b34801561050c57600080fd5b506103eb6004803603602081101561052357600080fd5b5035610c14565b34801561053657600080fd5b5061053f610c26565b60408051921515835260208301919091528051918290030190f35b6103466004803603602081101561057057600080fd5b5035610c9e565b34801561058357600080fd5b506103eb6110b0565b34801561059857600080fd5b506102556110b4565b3480156105ad57600080fd5b506104ba600480360360208110156105c457600080fd5b503561110c565b3480156105d757600080fd5b50610386611133565b3480156105ec57600080fd5b506103866004803603602081101561060357600080fd5b5035611193565b6103eb6004803603604081101561062057600080fd5b50803590602001351515611228565b34801561063b57600080fd5b506103866114c2565b34801561065057600080fd5b506103866004803603602081101561066757600080fd5b5035611525565b34801561067a57600080fd5b506104ba6004803603602081101561069157600080fd5b50356115ca565b3480156106a457600080fd5b5061036f6115d7565b3480156106b957600080fd5b5061036f600480360360408110156106d057600080fd5b508035906020013515156115ee565b3480156106eb57600080fd5b50610386611760565b34801561070057600080fd5b506103866117c3565b34801561071557600080fd5b506103466004803603602081101561072c57600080fd5b50356001600160a01b0316611826565b34801561074857600080fd5b50610386611849565b34801561075d57600080fd5b506103eb6004803603602081101561077457600080fd5b50356118a0565b34801561078757600080fd5b506103466118b2565b34801561079c57600080fd5b506104ba600480360360408110156107b357600080fd5b50803590602001356118c8565b3480156107cc57600080fd5b506107f3600480360360208110156107e357600080fd5b50356001600160a01b03166118e1565b604080519315158452911515602084015282820152519081900360600190f35b34801561081f57600080fd5b506103eb611907565b34801561083457600080fd5b506107f36004803603602081101561084b57600080fd5b50356001600160a01b031661190d565b34801561086757600080fd5b5061036f6004803603604081101561087e57600080fd5b50803590602001351515611933565b34801561089957600080fd5b5061036f611a63565b3480156108ae57600080fd5b506104ba611a8b565b60018054604080516020600284861615610100026000190190941693909304601f8101849004840282018401909252818152929183018282801561093c5780601f106109115761010080835404028352916020019161093c565b820191906000526020600020905b81548152906001019060200180831161091f57829003601f168201915b505050505081565b6000806000806109526127ab565b60238054600019810190811061096457fe5b600091825260209091206040805160c081018083529093600802909201918391820190839060049082845b81546001600160a01b0316815260019091019060200180831161098f5750505091835250506040805160808101918290526020909201919060048481019182845b8154815260200190600101908083116109d05750505050508152505090506109f66127d0565b5051805160208201516040830151606090930151919790965091945092509050565b6001600160a01b038116600090815260246020526040902054610100900460ff165b919050565b600a54602380546001600160a01b03909216918291636e193a5991600090610a6357fe5b60009182526020822060089190910201546040805160e085901b6001600160e01b03191681526001600160a01b039092166004830152516024808301939282900301818387803b158015610ab657600080fd5b505af1158015610aca573d6000803e3d6000fd5b5050505050565b60408051600480825260a08201909252606091908290826020820160808038833901905050905060005b82811015610b3657600f8160048110610b1057fe5b60020201548251839083908110610b2357fe5b6020908102919091010152600101610afb565b509150505b90565b60045481565b602a5460ff1681565b60038181548110610b5a57fe5b600091825260209091200154905081565b60055481565b60606008805480602002602001604051908101604052809291908181526020018280548015610bc957602002820191906000526020600020905b81546001600160a01b03168152600190910190602001808311610bab575b5050505050905090565b60256020528160005260406000208181548110610bec57fe5b6000918252602090912001546001600160a01b03169150829050565b60065481565b60095481565b60296020526000908152604090205481565b600080808080805b600354811015610c945760006026600060038481548110610c4b57fe5b9060005260206000200154815260200190815260200160002054905084811115610c7e5780945060009250819350610c8b565b84811415610c8b57600192505b50600101610c2e565b5093509150509091565b3360009081526024602052604081205460ff1615610cbb57600080fd5b6000602a5460ff166003811115610cce57fe5b14610cd857600080fd5b34670de0b6b3a76400008110610ced57600080fd5b80600f8460048110610cfb57fe5b600202015410610d0a57600080fd5b600a546040805163310ad0b760e11b815233600482015290516001600160a01b03909216916000918391636215a16e91602480820192602092909190829003018186803b158015610d5a57600080fd5b505afa158015610d6e573d6000803e3d6000fd5b505050506040513d6020811015610d8457600080fd5b5051905080610d9257600080fd5b600f8560048110610d9f57fe5b60020201600101546001600160a01b03166108fc600f8760048110610dc057fe5b60020201546040518115909202916000818181858888f19350505050158015610ded573d6000803e3d6000fd5b50670de0b6b3a7640000610dff6127d0565b610e076127d0565b60005b6004811015610e9957888114610e9157600f8160048110610e2757fe5b600202015490930392600f8160048110610e3d57fe5b60020201600101546001600160a01b0316838260048110610e5a57fe5b6001600160a01b039092166020929092020152600f8160048110610e7a57fe5b6002020154828260048110610e8b57fe5b60200201525b600101610e0a565b50336000908152600d60205260409020805460ff191660011790558583116110425733828960048110610ec857fe5b6001600160a01b03909216602092909202015282818960048110610ee857fe5b6020020152610ef56127ab565b5060408051808201909152828152602081018290526023805460018101808355600092909252825183916008027fd57b2b5166478fd4318d2acc6cc2c704584312bdd8781b32d5d06abda57f42300190610f5290829060046127ee565b506020820151610f689060048084019190612846565b506000925050505b6004811015610fc05789811415610f96578460178260048110610f8f57fe5b0155610fb8565b600f8160048110610fa357fe5b600202015460178260048110610fb557fe5b01555b600101610f70565b50604051339085890380156108fc02916000818181858888f19350505050158015610fef573d6000803e3d6000fd5b50610ff8611a9a565b60005b6004811015611020576000600f826004811061101357fe5b6002020155600101610ffb565b505060048054670de0b6b3a76400000190555060019550610a3a945050505050565b61104a612880565b506040805180820190915286815233602082015280600f8a6004811061106c57fe5b825160029190910291909101908155602090910151600190910180546001600160a01b0319166001600160a01b039092169190911790555095979650505050505050565b4790565b6002805460408051602060018416156101000260001901909316849004601f8101849004840282018401909252818152929183018282801561093c5780601f106109115761010080835404028352916020019161093c565b6008818154811061111957fe5b6000918252602090912001546001600160a01b0316905081565b60606007805480602002602001604051908101604052809291908181526020018280548015610bc9576020028201919060005260206000209081546001600160a01b03168152600190910190602001808311610bab575050505050905090565b6023546040805182815260208084028201019091526060919082908280156111c5578160200160208202803883390190505b50905060005b8281101561122057602381815481106111e057fe5b906000526020600020906008020160040185600481106111fc57fe5b015460001b82828151811061120d57fe5b60209081029190910101526001016111cb565b509392505050565b600080602a5460ff16600381111561123c57fe5b1415801561125b57506003602a5460ff16600381111561125857fe5b14155b61126457600080fd5b600a546001600160a01b03166000805b6023548110156114705760005b6023828154811061128e57fe5b5060005260048110156114675760006001600160a01b0316602383815481106112b357fe5b906000526020600020906008020160000182600481106112cf57fe5b01546001600160a01b03161461145f5782600a019250868114156113c657836001600160a01b0316636e193a596023848154811061130957fe5b9060005260206000209060080201600001836004811061132557fe5b0154604080516001600160e01b031960e085901b1681526001600160a01b03909216600483015251602480830192600092919082900301818387803b15801561136d57600080fd5b505af1158015611381573d6000803e3d6000fd5b505050506113c16023838154811061139557fe5b906000526020600020906008020160000182600481106113b157fe5b01546001600160a01b0316611cfd565b61145f565b836001600160a01b031663cd1e0b6d602384815481106113e257fe5b906000526020600020906008020160000183600481106113fe57fe5b0154604080516001600160e01b031960e085901b1681526001600160a01b03909216600483015251602480830192600092919082900301818387803b15801561144657600080fd5b505af115801561145a573d6000803e3d6000fd5b505050505b600101611281565b50600101611274565b50836114ad5761147f85611d8f565b6002602a5460ff16600381111561149257fe5b146114a45761149f611e65565b6114ad565b6114ad85611f3f565b602a805460ff19166003179055949350505050565b60408051600480825260a08201909252606091908290826020820160808038833901905050905060005b82811015610b36576017816004811061150157fe5b015460001b82828151811061151257fe5b60209081029190910101526001016114ec565b602354604080518281526020808402820101909152606091908290828015611557578160200160208202803883390190505b50905060005b82811015611220576023818154811061157257fe5b9060005260206000209060080201600001856004811061158e57fe5b015482516001600160a01b03909116908390839081106115aa57fe5b6001600160a01b039092166020928302919091019091015260010161155d565b6007818154811061111957fe5b602a805460ff191660021790556115ec6120b3565b565b6000602a5460ff16600381111561160157fe5b141561161557602a805460ff191660011790555b6001602a5460ff16600381111561162857fe5b1461163257600080fd5b33600090815260246020526040902054610100900460ff161561165457600080fd5b3360009081526024602052604090205460ff1661167057600080fd5b336000818152602460209081526040808320805461010061ff0019909116178155600190810187905586845260258352818420805480830182559085528385200180546001600160a01b03191690951790945585835260269091529020805482019055600a805460ff60b01b19811660ff600160b01b9283900481169094018416820217918290556007549104909116141561175c57604080516020808252600a908201526920b93134ba3930ba37b960b11b8183015290517f21f0146f421195b1872d8b4b0ef2c37e13a25a518f7a902d98ae120c530beebc9181900360600190a161175c816126ad565b5050565b60408051600480825260a08201909252606091908290826020820160808038833901905050905060005b82811015610b3657601f816004811061179f57fe5b015460001b8282815181106117b057fe5b602090810291909101015260010161178a565b60408051600480825260a08201909252606091908290826020820160808038833901905050905060005b82811015610b3657601b816004811061180257fe5b015460001b82828151811061181357fe5b60209081029190910101526001016117ed565b6001600160a01b0316600090815260276020526040902054610100900460ff1690565b60606003805480602002602001604051908101604052809291908181526020018280548015610bc957602002820191906000526020600020905b815481526020019060010190808311611883575050505050905090565b60266020526000908152604090205481565b3360009081526024602052604090205460ff1690565b60286020528160005260406000208181548110610bec57fe5b6027602052600090815260409020805460019091015460ff808316926101009004169083565b600b5490565b6024602052600090815260409020805460019091015460ff808316926101009004169083565b6002602a5460ff16600381111561194657fe5b1461195057600080fd5b33600090815260276020526040902054610100900460ff161561197257600080fd5b3360009081526027602052604090205460ff1661198e57600080fd5b336000818152602760209081526040808320805461ff001916610100178155600190810187905586845260288352818420805480830182559085528385200180546001600160a01b03191690951790945585835260299091529020805482019055600c805460ff818116909301831660ff199091161790819055600b549116141561175c57604080516020808252600490820152634a75727960e01b8183015290517f21f0146f421195b1872d8b4b0ef2c37e13a25a518f7a902d98ae120c530beebc9181900360600190a161175c816126ad565b6000602a5460ff166003811115611a7657fe5b14156115ec57602a805460ff19166001179055565b6000546001600160a01b031681565b600a546001600160a01b0316611aae6127ab565b602380546000198101908110611ac057fe5b600091825260209091206040805160c081018083529093600802909201918391820190839060049082845b81546001600160a01b03168152600190910190602001808311611aeb5750505091835250506040805160808101918290526020909201919060048481019182845b815481526020019060010190808311611b2c57505050505081525050905060008090505b6004811015611cf85781516000908260048110611b6957fe5b602002015190506001600160a01b03811615611cef57611b87612897565b60408051633d59f85b60e01b81526001600160a01b038481166004830152825190881692633d59f85b9260248082019391829003018186803b158015611bcc57600080fd5b505afa158015611be0573d6000803e3d6000fd5b505050506040513d601f19601f820116820180604052506040811015611c0557600080fd5b50604080516001600160a01b03851681529192507f405f4ccba46549b1dbd2e5bfbf7248e032b3b50a1a6d65140c30c83a176d192e9184918491906020820190839080838360005b83811015611c65578181015183820152602001611c4d565b505050509050019250505060405180910390a160178360048110611c8557fe5b0154815102601b8460048110611c9757fe5b015401601b8460048110611ca757fe5b015560178360048110611cb657fe5b015460010381600160028110611cc857fe5b602002015102601f8460048110611cdb57fe5b015401601f8460048110611ceb57fe5b0155505b50600101611b50565b505050565b6001600160a01b0381166000908152600e602052604090205460ff16611d8c576001600160a01b0381166000818152600e6020526040808220805460ff1916600117905551670d99a8cec7e200009082818181858883f19350505050158015611d6a573d6000803e3d6000fd5b506001600160a01b0381166000908152600e60205260409020805460ff191690555b50565b6000606460045481611d9d57fe5b049050600060038381548110611daf57fe5b600091825260208083209091015480835260269091526040822054909250905b81811015610aca576000838152602560205260408120805483908110611df157fe5b60009182526020808320909101546001600160a01b0316808352600e9091526040909120805460ff191660011790559050806108fc848781611e2f57fe5b049081150290604051600060405180830381858888f19350505050158015611e5b573d6000803e3d6000fd5b5050600101611dcf565b600080546001600160a01b03168152600e602052604090205460ff166115ec57600080546001600160a01b039081168252600e60205260408220805460ff1916600117905590546004549116906108fc90606490049081150290604051600060405180830381858888f19350505050158015611ee5573d6000803e3d6000fd5b50600a54600080546005546040805163175473d760e11b81526001600160a01b03938416600482015260248101929092525191909316928392632ea8e7ae9260448084019382900301818387803b158015610ab657600080fd5b600a546004546001600160a01b0390911690600090606490049050600060038481548110611f6957fe5b600091825260208083209091015480835260299091526040822054909250905b818110156120ab576000838152602860205260408120805483908110611fab57fe5b60009182526020808320909101546001600160a01b0316808352600e90915260408220805460ff191660011790559150838681611fe457fe5b049050866001600160a01b0316632ea8e7ae83866005548161200257fe5b046040518363ffffffff1660e01b815260040180836001600160a01b03166001600160a01b0316815260200182815260200192505050600060405180830381600087803b15801561205257600080fd5b505af1158015612066573d6000803e3d6000fd5b50506040516001600160a01b038516925083156108fc02915083906000818181858888f193505050501580156120a0573d6000803e3d6000fd5b505050600101611f89565b505050505050565b600a546040805163193ca33d60e31b815290516001600160a01b0390921691606091839163c9e519e891600480820192600092909190829003018186803b1580156120fd57600080fd5b505afa158015612111573d6000803e3d6000fd5b505050506040513d6000823e601f3d908101601f19168201604052602081101561213a57600080fd5b810190808051604051939291908464010000000082111561215a57600080fd5b90830190602082018581111561216f57600080fd5b825186602082028301116401000000008211171561218c57600080fd5b82525081516020918201928201910280838360005b838110156121b95781810151838201526020016121a1565b5050505090500160405250505090506005600780549050825103116123585760006007805490508251039050606081604051908082528060200260200182016040528015612211578160200160208202803883390190505b5090506000805b845181101561233657600085828151811061222f57fe5b6020908102919091018101516001600160a01b0381166000908152602490925260409091205490915060ff168061227357506000546001600160a01b038281169116145b8061229657506001600160a01b0381166000908152600d602052604090205460ff165b156122a1575061232e565b604080516060810182526001808252600060208084018281528486018381526001600160a01b038816845260279092529490912092518354945115156101000261ff001991151560ff19909616959095171693909317825591519101558351819085908590811061230e57fe5b6001600160a01b0390921660209283029190910190910152506001909101905b600101612218565b50815161234a9060089060208501906128b5565b50600b55506115ec92505050565b60608151600a02604051908082528060200260200182016040528015612388578160200160208202803883390190505b5090506000805b83518110156124f45760008482815181106123a657fe5b6020908102919091018101516001600160a01b0381166000908152602490925260409091205490915060ff16806123ea57506000546001600160a01b038281169116145b8061240d57506001600160a01b0381166000908152600d602052604090205460ff165b1561241857506124ec565b6000866001600160a01b03166351d0ea37836040518263ffffffff1660e01b815260040180826001600160a01b03166001600160a01b0316815260200191505060606040518083038186803b15801561247057600080fd5b505afa158015612484573d6000803e3d6000fd5b505050506040513d606081101561249a57600080fd5b50602001519050600a60ff82160460005b8160ff168110156124e757838787815181106124c357fe5b6001600160a01b0390921660209283029190910190910152600195860195016124ab565b505050505b60010161238f565b5060408051600580825260c082019092526060916020820160a080388339019050509050600060335b600582108015612530575060008160ff16115b1561268e57600a5460408051426020808301919091523360601b82840152600160a01b90930460f01b6001600160f01b0319166054820152815180820360360181526056909101909152805191012060009085908161258b57fe5b600a8054600161ffff600160a01b808404821692909201160261ffff60a01b19909116179055875191900691506000908790839081106125c757fe5b6020908102919091018101516001600160a01b0381166000908152602790925260409091205490915060ff1661268357604080516060810182526001808252600060208084018281528486018381526001600160a01b038816845260279092529490912092518354945115156101000261ff001991151560ff19909616959095171693909317825591519101558451819086908690811061266457fe5b6001600160a01b03909216602092830291909101909101526001909301925b50506000190161251d565b82516126a19060089060208601906128b5565b5050600b555050505050565b6000602a5460ff1660038111156126c057fe5b141580156126df57506003602a5460ff1660038111156126dc57fe5b14155b6126e857600080fd5b6002602a5460ff1660038111156126fb57fe5b141561272357600061270b612754565b6009819055905061271c8183611228565b5050611d8c565b60008061272e610c26565b915091508161274c5760098190556127468184611228565b50611cf8565b611cf86115d7565b60008080805b600354811015610b36576000602960006003848154811061277757fe5b90600052602060002001548152602001908152602001600020549050838111156127a2578093508192505b5060010161275a565b60405180604001604052806127be6127d0565b81526020016127cb6127d0565b905290565b60405180608001604052806004906020820280388339509192915050565b8260048101928215612836579160200282015b8281111561283657825182546001600160a01b0319166001600160a01b03909116178255602090920191600190910190612801565b50612842929150612909565b5090565b8260048101928215612874579160200282015b82811115612874578251825591602001919060010190612859565b5061284292915061292d565b604080518082019091526000808252602082015290565b60405180604001604052806002906020820280388339509192915050565b828054828255906000526020600020908101928215612836579160200282018281111561283657825182546001600160a01b0319166001600160a01b03909116178255602090920191600190910190612801565b610b3b91905b808211156128425780546001600160a01b031916815560010161290f565b610b3b91905b80821115612842576000815560010161293356fea265627a7a723158205ae60902965c170f4c102fb54f880923663312bc478638ff79b3f3c2299a4ffc64736f6c63430005100032",
  "source": "// SPDX-License-Identifier: MIT\npragma solidity >=0.4.21 <=0.7.0;\nimport \"./PredictionMarket.sol\";\n// import \"github.com/OpenZeppelin/zeppelin-solidity/contracts/math/SafeMath.sol\";\n\ncontract Topic {\n  // Public attirbutes\n  address payable public topicCreator;\n  string public name;\n  string public description;\n  bytes32[] public options;\n  uint public marketCap;\n  uint public creatorBond;\n  uint256 public expiryDate;\n  address payable[] public arbitrators;\n  address payable[] public jury;\n  uint public winningOptionIndex;\n\n  // Private attributes\n  address parentContract;\n  uint16 nonce;\n  uint8 numArbitratorVoted;\n  uint numOfJury;\n  uint8 numJuryVoted;\n  mapping (address => bool) hasBoughtShare;\n\n  // Guard against reentrancy => applicable for all receivers of ether\n  mapping (address => bool) hasReceivedPayout;\n\n  // Pending votes\n  voteStruct[4] pendingVotes;\n  struct voteStruct {\n    uint price; \n    address payable voter;\n  }\n\n  // Last Traded Prices\n  uint[4] lastTradedPrices;\n\n  // weighted votes\n  uint[4] winScores;\n  uint[4] loseScores;\n\n  // Successful trades\n  trade[] confirmedTrades;\n  struct trade {\n    address payable[4] shareOwners;\n    uint[4] price;\n  }\n\n  // Arbitrator voting related variables\n  struct SelectedArbitrator {\n        bool isAssigned;\n        bool hasVoted;\n        bytes32 votedOption;\n  }\n\n  mapping (address => SelectedArbitrator) public selectedArbitrators;\n  mapping (bytes32 => address[]) public arbitratorsVotes;\n  mapping (bytes32 => uint) public countofArbVotes;\n\n  // Jury voting related variables\n  struct SelectedJury {\n      bool isAssigned;\n      bool hasVoted;\n      bytes32 votedOption;\n  }\n  mapping (address => SelectedJury) public selectedJurys;\n  mapping (bytes32 => address[]) public jurysVotes;\n  mapping (bytes32 => uint) public countofJuryVotes;\n\n  // State of contract\n  // 0 => Open, 1 => Arbitrator Voting, 2 => Jury Voting, 3 => Resolved / closed\n  enum Phase { Open, Verification, Jury, Resolved }\n  Phase public contractPhase = Phase.Open;\n\n  // NOTE: Ignore linter warning about visibility modifier being ignored. \n  // It is required for successful compilation\n  constructor (\n      address payable _creator, string memory _name, string memory _description, bytes32[] memory _options, \n      uint _bondValue, uint256 _expiryDate, address payable[] memory _arbitrators, address _predictionMarket\n    ) public payable {\n        parentContract = _predictionMarket;\n        topicCreator = _creator;\n        name = _name;\n        description = _description;\n        options = _options;\n        marketCap = 0;\n        creatorBond = _bondValue;\n        expiryDate = _expiryDate;\n        arbitrators = _arbitrators;\n\n        nonce = 23; // NOTE: Random number for the nonce\n        numArbitratorVoted = 0;\n        numJuryVoted = 0;\n        winningOptionIndex = 10; // Assign random value not within [0, 3]\n\n        // init pending votes\n        for (uint i = 0; i < _options.length; i++) {\n          pendingVotes[i] = voteStruct(0, address(0));\n        }\n\n        for (uint j = 0; j < _arbitrators.length; j++) {\n          selectedArbitrators[_arbitrators[j]] = SelectedArbitrator(true, false, bytes32(0));\n        }\n    }\n\n// TODO: TEST CASES\n  function updateWeightedVotes() private {\n    PredictionMarket pm = PredictionMarket(parentContract);\n    trade memory lastTrade = confirmedTrades[confirmedTrades.length - 1];\n    for(uint i=0; i<4; i++){\n      address voterAddress = lastTrade.shareOwners[i]; \n      \n      if(voterAddress != address(0)){\n        // getVotersReputation only accepts a valid voterAddress. \n        uint[2] memory winLose = pm.getVotersReputation(voterAddress);   \n        emit UpdateWeightedVotes(voterAddress, winLose);\n        winScores[i] = winScores[i] + (winLose[0] * lastTradedPrices[i]);\n        loseScores[i] = loseScores[i] + (winLose[1] * (1 - lastTradedPrices[i]));\n      }\n    }\n  }\n     \n  function voteOption(uint option) public payable returns(bool){\n    require(!selectedArbitrators[msg.sender].isAssigned);\n    require(contractPhase == Phase.Open);\n\n    uint amount = msg.value;\n    require(msg.value < 1 ether);\n    // Reject the vote if it is lower than the last available vote\n    require(pendingVotes[option].price <  amount);\n\n    // Check if the voter is valid\n    PredictionMarket pm = PredictionMarket(parentContract);\n    bool validTrader = pm.checkValidTrader(msg.sender);\n    require(validTrader);\n\n    // If the vote is higher than the last available price, send money back to the previous voter\n    pendingVotes[option].voter.transfer(pendingVotes[option].price);\n\n    // Balance to decide if the vote goes through\n    uint balance = 1 ether; \n\n    // Entry to insert into the confirmed trades if vote goes through\n    address payable[4] memory tempTrade;\n    uint[4] memory tempPrice;\n\n    for(uint i=0; i< 4; i++){\n      if(i != option){\n        balance = balance - pendingVotes[i].price; \n        tempTrade[i] = pendingVotes[i].voter;\n        tempPrice[i] = pendingVotes[i].price;\n      }\n    }\n\n    // Update hasBoughtShare\n    hasBoughtShare[msg.sender] = true;\n    \n    // If vote can go through\n    if(balance <= amount){\n      \n      // 1) Confirm the trade by putting it into trade confirmed\n      tempTrade[option] = msg.sender;\n      tempPrice[option] = balance;\n      trade memory tradeConfirmed = trade(tempTrade, tempPrice);\n      confirmedTrades.push(tradeConfirmed);\n      \n      // 2) Update the lastTradedPrices\n      for(uint i=0; i< 4; i++){\n        if(i == option){\n          lastTradedPrices[i] = balance;\n        }\n        else{\n          lastTradedPrices[i]= pendingVotes[i].price;\n        }\n      }\n      \n\n      // 3) Send the remaining money back to the sender\n      msg.sender.transfer(amount - balance);\n\n      // 4) Update the weighted votes according to the last trade\n      updateWeightedVotes();\n\n      // 5) Reset the pending votes instance\n      for(uint i =0; i< 4; i++){\n        pendingVotes[i].price =0; \n      }\n\n      // 6) Add to market cap for future payouts calculations\n      marketCap += 1 ether;\n      return true;\n    }\n\n    // If vote cannot go through\n    else {\n      // Update the pending votes\n      voteStruct memory tempVote = voteStruct(amount, msg.sender); \n      pendingVotes[option] = tempVote;\n    }\n  }\n\n  function openPhaseToVerificationPhase() public {\n    if (contractPhase == Phase.Open) { // TODO: @jee, should we refactor this from addArbitratorVote cos this is needed in unit testing\n      contractPhase = Phase.Verification;\n    }\n  }\n\n  function addArbitratorVote(bytes32 _option, bool forUnitTest) public { // FIXME: Remove unit test options before deploying to testnet!\n    // Shift contract phase\n    if (contractPhase == Phase.Open) { // TODO: Add check for expiry date as well!\n      contractPhase = Phase.Verification;\n      // refundPendingVotes();\n    }\n    require(contractPhase == Phase.Verification);\n    require(!selectedArbitrators[msg.sender].hasVoted); //no double voting\n    require(selectedArbitrators[msg.sender].isAssigned);\n    selectedArbitrators[msg.sender].hasVoted = true;\n    selectedArbitrators[msg.sender].votedOption = _option;\n    arbitratorsVotes[_option].push(msg.sender);\n    countofArbVotes[_option]++;\n\n    // Trigger resolve if all selected arbitrators have voted\n    numArbitratorVoted++;\n    if (numArbitratorVoted == arbitrators.length) {\n      emit ResolveCalled(\"Arbitrator\");\n      resolve(forUnitTest);\n    }\n  }\n\n  function addJuryVote(bytes32 _option, bool forUnitTest) public { // FIXME: Remove unit test options before deploying to testnet!\n    require(contractPhase == Phase.Jury); // require it to be in jury phase\n    require(!selectedJurys[msg.sender].hasVoted); //no double voting\n    require(selectedJurys[msg.sender].isAssigned);\n    selectedJurys[msg.sender].hasVoted = true;\n    selectedJurys[msg.sender].votedOption = _option;\n    jurysVotes[_option].push(msg.sender);\n    countofJuryVotes[_option]++;\n\n    // Trigger resolve if all selected jury have voted\n    numJuryVoted++;\n    if (numJuryVoted == numOfJury) {\n      emit ResolveCalled(\"Jury\");\n      resolve(forUnitTest);\n    }\n  }\n\n  // Getter function for test\n  function checkIfSelectedArbitrator() public view returns (bool) {\n    return selectedArbitrators[msg.sender].isAssigned;\n  }\n\n  /*\n  resolve() will be called after all selected arbitrators have voted for the truth\n  TODO: figure out how to make last arbitrator call resolve function and are we going to charge gas fees to last arbitrator? \n  NOTE: Events for testing purpose. Can see if FE requires events as well else remove before deployment on testnet\n  */\n  event ResolveCalled(string source);\n\n  function resolve(bool forUnitTest) internal { // FIXME: Remove unit test options before deploying to testnet!\n    require(contractPhase != Phase.Open && contractPhase != Phase.Resolved);\n    if(contractPhase == Phase.Jury){ \n      uint finalWinIndex = getJuryVerdict();\n      winningOptionIndex = finalWinIndex;\n      resolveWithoutTie(finalWinIndex, forUnitTest);\n      return;\n    }\n    \n    (bool hasTie, uint winIndex) = getArbitratorVerdict();\n    if (!hasTie) {\n      winningOptionIndex = winIndex;\n      resolveWithoutTie(winIndex, forUnitTest);\n    } else {\n      resolveWithTie();\n    }\n  }\n\n  function getJuryVerdict() internal view returns (uint) {\n    uint largest = 0;\n    uint winningOption;\n    for (uint i = 0; i < options.length; i++){\n      uint temp = countofJuryVotes[options[i]];\n      if (temp > largest){\n        largest = temp;\n        winningOption = i;\n      }\n    }\n    return winningOption;\n  }\n\n  function getArbitratorVerdict() public view returns (bool,uint){\n    uint largest = 0;\n    uint winningOption;\n    bool hasTie = false;\n    for (uint i =0; i < options.length; i++){\n      uint temp = countofArbVotes[options[i]];\n      if (temp > largest){\n        largest = temp;\n        hasTie = false;\n        winningOption = i;\n      } else if (temp == largest){\n        hasTie = true;\n      }\n    }\n    return (hasTie, winningOption);\n  }\n\n  function testUpdateWinScore() public {\n    PredictionMarket marketInstance = PredictionMarket(parentContract);\n    marketInstance.updateWinScore(address(uint160(confirmedTrades[0].shareOwners[0])));\n  }\n\n  // TODO: Payout to arbitrators, jury/creator\n  function resolveWithoutTie(uint winIndex, bool forUnitTest) public payable returns(uint) { // FIXME: Remove unit test options before deploying to testnet!\n    require(contractPhase != Phase.Open && contractPhase != Phase.Resolved); // Check required as function is public\n    PredictionMarket marketInstance = PredictionMarket(parentContract);\n    uint temp = 0;\n    for(uint i = 0; i<confirmedTrades.length; i++){\n      for(uint j = 0; j<confirmedTrades[i].shareOwners.length; j++){\n        if (confirmedTrades[i].shareOwners[j] != address(uint160(0x0))){\n          temp = temp + 10;\n          if(j == winIndex){\n            marketInstance.updateWinScore(address(uint160(confirmedTrades[i].shareOwners[j])));\n            payoutToWinners(confirmedTrades[i].shareOwners[j]); \n          } else {\n            marketInstance.updateLoseScore(confirmedTrades[i].shareOwners[j]);\n          }\n        }\n      }\n    }\n    if (!forUnitTest) {\n      payoutToArbitrators(winIndex);\n      if (contractPhase != Phase.Jury) {\n        payoutToCreator();\n      } else {\n        payoutToJury(winIndex);\n      }\n    }\n    contractPhase = Phase.Resolved;\n    return temp;\n  }\n\n  function payoutToCreator() internal {\n    if (!hasReceivedPayout[topicCreator]) {\n      hasReceivedPayout[topicCreator] = true;\n      topicCreator.transfer(uint(marketCap) / uint(100));\n      PredictionMarket marketInstance = PredictionMarket(parentContract);\n      marketInstance.transferCreatorBond(topicCreator, uint(creatorBond));\n    }\n  }\n\n  function payoutToJury(uint winIndex) internal {\n    PredictionMarket marketInstance = PredictionMarket(parentContract);\n\n    // Creator bond is forfeited to the jury\n    uint juryShare = (uint(marketCap) / uint(100)); // integer division\n    bytes32 winningOption = options[winIndex];\n    uint numWinners = countofJuryVotes[winningOption];\n    for (uint i = 0; i < numWinners; i++) {\n      address payable winningJury = address(uint160(jurysVotes[winningOption][i]));\n      hasReceivedPayout[winningJury] = true;\n      uint transferAmount = uint(juryShare) / uint(numWinners);\n      marketInstance.transferCreatorBond(winningJury, (uint(creatorBond) / numWinners));\n      winningJury.transfer(transferAmount);\n    }\n  }\n\n  function payoutToArbitrators(uint winIndex) internal {\n    uint arbitratorShare = uint(marketCap) / uint(100); // integer division\n    bytes32 winningOption = options[winIndex];\n    uint numWinners = countofArbVotes[winningOption];\n    for (uint i = 0; i < numWinners; i++) {\n      address payable winningArbitrator = address(uint160(arbitratorsVotes[winningOption][i]));\n      hasReceivedPayout[winningArbitrator] = true;\n      winningArbitrator.transfer(uint(arbitratorShare) / uint(numWinners));\n    }\n  }\n\n  function payoutToWinners(address payable winner) internal {\n    if (!hasReceivedPayout[winner]) {\n      hasReceivedPayout[winner] = true;\n      winner.transfer(0.98 ether);\n      hasReceivedPayout[winner] = false; // set back to false in case trader bought more than 1 share\n    }\n  }\n \n  // FIXME: Change visibility to internal before deploying on testnet!\n  // Use public for unit tests\n  function resolveWithTie() public {\n    contractPhase = Phase.Jury;\n    selectJury();\n  }\n\n  function selectJury() internal {\n    PredictionMarket marketInstance = PredictionMarket(parentContract);\n    address payable[] memory allArbitrators = marketInstance.getAllArbitrators();\n\n    // If there are less than 5 remaining arbitrators, select all of them as jury\n    // Topic creator is excluded from selection as well\n    if (allArbitrators.length - arbitrators.length <= 5) {\n      uint diff = allArbitrators.length - arbitrators.length;\n      address payable[] memory remainingArbitrators = new address payable[](diff);\n      uint ptr = 0;\n      for (uint k = 0; k < allArbitrators.length; k++) {\n        address payable arb = allArbitrators[k];\n        if (selectedArbitrators[arb].isAssigned || arb == topicCreator || hasBoughtShare[arb]) {\n          continue;\n        }\n        selectedJurys[arb] = SelectedJury(true, false, bytes32(0));\n        remainingArbitrators[ptr] = arb;\n        ptr++;\n      }\n      // If less than diff arbitrators are selected (i.e. one of the remaining is the topic creator)\n      // last address will be address(0)\n      jury = remainingArbitrators;\n      numOfJury = ptr; // Ptr will indicate how many jury were selected in the end\n      return;\n    }\n\n    // Else, create ballot where number of chances is proportional to the arbitrator's trustworthiness\n    address payable[] memory ballot = new address payable[](allArbitrators.length * 10); // Max length is when all arbitrators are at 100 score\n    uint ballotPointer = 0;\n\n    for (uint i = 0; i < allArbitrators.length; i++) {\n      address payable arbitrator = allArbitrators[i];\n      if (selectedArbitrators[arbitrator].isAssigned || arbitrator == topicCreator || hasBoughtShare[arbitrator]) {\n        continue;\n      }\n      (,uint8 trustworthiness,) = marketInstance.arbitrators(arbitrator); // Access trustworthiness score of struct\n      uint8 chance = trustworthiness / uint8(10);\n      for (uint j = 0; j < chance; j++) {\n        ballot[ballotPointer] = arbitrator;\n        ballotPointer++;\n      }\n    }\n\n    // Select random jury from the ballot\n    // Rechoose if address is already selected in the jury\n    address payable[] memory juryMemory = new address payable[](5);\n    uint juryPointer = 0;\n    // Max tries is bounded by 51 => For 1st 4 jury, repeated hit their address again = 4 * 10, \n    // 10 additional tries if creator is arbitrator, hence 51st try is guaranteed to resolve\n    uint8 triesLeft = 51; \n    while (juryPointer < 5 && triesLeft > 0) {\n      uint next = uint(keccak256(abi.encodePacked(block.timestamp, msg.sender, nonce))) % ballotPointer;\n      nonce++;\n      address payable potential = ballot[next];\n      if (!selectedJurys[potential].isAssigned) {\n        selectedJurys[potential] = SelectedJury(true, false, bytes32(0));\n        juryMemory[juryPointer] = potential;\n        juryPointer++;\n      }\n      triesLeft--;\n    }\n    jury = juryMemory;\n    numOfJury = juryPointer; // Jury pointer would indicate number of jury members finally selected. Should be 5 but can be lower in edge cases\n  }\n\n  // ===================================================\n  // Getters\n  // ===================================================\n\n  function getAllPendingVotePrice() view public returns(bytes32[] memory){\n    uint len = pendingVotes.length;\n    bytes32[] memory bytesArray = new bytes32[](len);\n    for (uint i = 0; i < len; i++) {\n      bytesArray[i] = bytes32(pendingVotes[i].price);\n    }\n    return bytesArray;\n  } \n\n  function getLastTradedPrices() view public returns(bytes32[] memory){\n    uint len = lastTradedPrices.length;\n    bytes32[] memory bytesArray = new bytes32[](len);\n    for (uint i = 0; i < len; i++) {\n      bytesArray[i] = bytes32(lastTradedPrices[i]);\n    }\n    return bytesArray;\n  }\n\n// Function will return an array of 8 elements in total: [win0, lose0, win1, lose1...]\n  function getLoseScores() view public returns(bytes32[] memory){\n    uint len = loseScores.length;\n    bytes32[] memory bytesArray = new bytes32[](len);\n    for (uint i = 0; i < len; i++) {\n      bytesArray[i] = bytes32(loseScores[i]);\n    }\n    return bytesArray;\n  }\n\n  // Function will return an array of 8 elements in total: [win0, lose0, win1, lose1...]\n  function getWinScores() view public returns(bytes32[] memory){\n    uint len = loseScores.length;\n    bytes32[] memory bytesArray = new bytes32[](len);\n    for (uint i = 0; i < len; i++) {\n      bytesArray[i] = bytes32(winScores[i]);\n    }\n    return bytesArray;\n  }\n\n  // Gets all the addresses for the people who voted for that option\n  function getConfirmedTradeAddresses(uint option) public view returns (address payable[] memory){\n    uint len = confirmedTrades.length;\n    address payable[] memory addArray = new address payable[](len);\n    for (uint i = 0; i < len; i++) {\n      addArray[i] = confirmedTrades[i].shareOwners[option];\n    }\n    return addArray;\n  }\n\n  // Gets all the addresses for the people who voted for that option\n  function getConfirmedTradePrices(uint option) public view returns (bytes32[] memory){\n    uint len = confirmedTrades.length;\n    bytes32[] memory bytesArray = new bytes32[](len);\n    for (uint i = 0; i < len; i++) {\n      bytesArray[i] = bytes32(confirmedTrades[i].price[option]);\n    }\n    return bytesArray;\n  }\n\n  function balanceOf() external view returns(uint) {\n    return address(this).balance;\n  }\n\n  function getOptions() public view returns (bytes32[] memory) {\n    return options;\n  }\n\n  function getArbitrators() public view returns (address payable[] memory) {\n    return arbitrators;\n  }\n\n  function getJury() public view returns (address payable[] memory) {\n    return jury;\n  }\n\n  function hasArbitratorVoted(address arbitratorAddress) public view returns (bool) {\n    return selectedArbitrators[arbitratorAddress].hasVoted;\n  }\n\n  function hasJuryVoted(address juryAddress) public view returns (bool) {\n    return selectedJurys[juryAddress].hasVoted;\n  }\n\n\n\n  // ===================================================\n  // For testing purposes\n  // ===================================================\n  event UpdateWeightedVotes(address add, uint[2] beforeUpdate);\n\n  function getNumOfJurySelected() public view returns (uint) {\n    return numOfJury;\n  }\n\n  function getLastConfirmedTradeAddresses() public view returns (address, address, address, address) {\n    trade memory lastConfirmedTrade = confirmedTrades[confirmedTrades.length - 1];\n    address payable[4] memory tradeOwners = lastConfirmedTrade.shareOwners;\n    return (tradeOwners[0], tradeOwners[1], tradeOwners[2], tradeOwners[3]);\n  }\n}\n",
  "sourcePath": "/Users/collinlim/Desktop/Desktop.nosync/School/CZ4153/Project/Decentralised_Prediction_Market/contracts/Topic.sol",
  "compiler": {
    "name": "solc",
    "version": "0.5.16+commit.9c3226ce.Emscripten.clang"
  },
  "schemaVersion": "3.2.5",
  "updatedAt": "2020-10-28T13:37:55.858Z",
  "networkType": "ethereum",
  "devdoc": {
    "methods": {}
  },
  "userdoc": {
    "methods": {}
  }
}