{
  "contractName": "Topic",
  "abi": [
    {
      "inputs": [
        {
          "internalType": "address payable",
          "name": "_creator",
          "type": "address"
        },
        {
          "internalType": "string",
          "name": "_name",
          "type": "string"
        },
        {
          "internalType": "string",
          "name": "_description",
          "type": "string"
        },
        {
          "internalType": "bytes32[]",
          "name": "_options",
          "type": "bytes32[]"
        },
        {
          "internalType": "uint256",
          "name": "_bondValue",
          "type": "uint256"
        },
        {
          "internalType": "uint256",
          "name": "_expiryDate",
          "type": "uint256"
        },
        {
          "internalType": "address payable[]",
          "name": "_arbitrators",
          "type": "address[]"
        },
        {
          "internalType": "address",
          "name": "_predictionMarket",
          "type": "address"
        }
      ],
      "payable": true,
      "stateMutability": "payable",
      "type": "constructor"
    },
    {
      "anonymous": false,
      "inputs": [
        {
          "indexed": false,
          "internalType": "string",
          "name": "source",
          "type": "string"
        }
      ],
      "name": "ResolveCalled",
      "type": "event"
    },
    {
      "anonymous": false,
      "inputs": [
        {
          "indexed": false,
          "internalType": "address",
          "name": "add",
          "type": "address"
        },
        {
          "indexed": false,
          "internalType": "uint256[2]",
          "name": "beforeUpdate",
          "type": "uint256[2]"
        }
      ],
      "name": "UpdateWeightedVotes",
      "type": "event"
    },
    {
      "anonymous": false,
      "inputs": [
        {
          "indexed": false,
          "internalType": "bytes32",
          "name": "option",
          "type": "bytes32"
        }
      ],
      "name": "WinningOption",
      "type": "event"
    },
    {
      "constant": true,
      "inputs": [
        {
          "internalType": "uint256",
          "name": "",
          "type": "uint256"
        }
      ],
      "name": "arbitrators",
      "outputs": [
        {
          "internalType": "address payable",
          "name": "",
          "type": "address"
        }
      ],
      "payable": false,
      "stateMutability": "view",
      "type": "function"
    },
    {
      "constant": true,
      "inputs": [
        {
          "internalType": "bytes32",
          "name": "",
          "type": "bytes32"
        },
        {
          "internalType": "uint256",
          "name": "",
          "type": "uint256"
        }
      ],
      "name": "arbitratorsVotes",
      "outputs": [
        {
          "internalType": "address",
          "name": "",
          "type": "address"
        }
      ],
      "payable": false,
      "stateMutability": "view",
      "type": "function"
    },
    {
      "constant": true,
      "inputs": [],
      "name": "contractPhase",
      "outputs": [
        {
          "internalType": "enum Topic.Phase",
          "name": "",
          "type": "uint8"
        }
      ],
      "payable": false,
      "stateMutability": "view",
      "type": "function"
    },
    {
      "constant": true,
      "inputs": [
        {
          "internalType": "bytes32",
          "name": "",
          "type": "bytes32"
        }
      ],
      "name": "countofArbVotes",
      "outputs": [
        {
          "internalType": "uint256",
          "name": "",
          "type": "uint256"
        }
      ],
      "payable": false,
      "stateMutability": "view",
      "type": "function"
    },
    {
      "constant": true,
      "inputs": [
        {
          "internalType": "bytes32",
          "name": "",
          "type": "bytes32"
        }
      ],
      "name": "countofJuryVotes",
      "outputs": [
        {
          "internalType": "uint256",
          "name": "",
          "type": "uint256"
        }
      ],
      "payable": false,
      "stateMutability": "view",
      "type": "function"
    },
    {
      "constant": true,
      "inputs": [],
      "name": "creatorBond",
      "outputs": [
        {
          "internalType": "uint256",
          "name": "",
          "type": "uint256"
        }
      ],
      "payable": false,
      "stateMutability": "view",
      "type": "function"
    },
    {
      "constant": true,
      "inputs": [],
      "name": "description",
      "outputs": [
        {
          "internalType": "string",
          "name": "",
          "type": "string"
        }
      ],
      "payable": false,
      "stateMutability": "view",
      "type": "function"
    },
    {
      "constant": true,
      "inputs": [],
      "name": "expiryDate",
      "outputs": [
        {
          "internalType": "uint256",
          "name": "",
          "type": "uint256"
        }
      ],
      "payable": false,
      "stateMutability": "view",
      "type": "function"
    },
    {
      "constant": true,
      "inputs": [
        {
          "internalType": "uint256",
          "name": "",
          "type": "uint256"
        }
      ],
      "name": "jury",
      "outputs": [
        {
          "internalType": "address payable",
          "name": "",
          "type": "address"
        }
      ],
      "payable": false,
      "stateMutability": "view",
      "type": "function"
    },
    {
      "constant": true,
      "inputs": [
        {
          "internalType": "bytes32",
          "name": "",
          "type": "bytes32"
        },
        {
          "internalType": "uint256",
          "name": "",
          "type": "uint256"
        }
      ],
      "name": "jurysVotes",
      "outputs": [
        {
          "internalType": "address",
          "name": "",
          "type": "address"
        }
      ],
      "payable": false,
      "stateMutability": "view",
      "type": "function"
    },
    {
      "constant": true,
      "inputs": [],
      "name": "marketCap",
      "outputs": [
        {
          "internalType": "uint256",
          "name": "",
          "type": "uint256"
        }
      ],
      "payable": false,
      "stateMutability": "view",
      "type": "function"
    },
    {
      "constant": true,
      "inputs": [],
      "name": "name",
      "outputs": [
        {
          "internalType": "string",
          "name": "",
          "type": "string"
        }
      ],
      "payable": false,
      "stateMutability": "view",
      "type": "function"
    },
    {
      "constant": true,
      "inputs": [
        {
          "internalType": "uint256",
          "name": "",
          "type": "uint256"
        }
      ],
      "name": "options",
      "outputs": [
        {
          "internalType": "bytes32",
          "name": "",
          "type": "bytes32"
        }
      ],
      "payable": false,
      "stateMutability": "view",
      "type": "function"
    },
    {
      "constant": true,
      "inputs": [
        {
          "internalType": "address",
          "name": "",
          "type": "address"
        }
      ],
      "name": "selectedArbitrators",
      "outputs": [
        {
          "internalType": "bool",
          "name": "isAssigned",
          "type": "bool"
        },
        {
          "internalType": "bool",
          "name": "hasVoted",
          "type": "bool"
        },
        {
          "internalType": "bytes32",
          "name": "votedOption",
          "type": "bytes32"
        }
      ],
      "payable": false,
      "stateMutability": "view",
      "type": "function"
    },
    {
      "constant": true,
      "inputs": [
        {
          "internalType": "address",
          "name": "",
          "type": "address"
        }
      ],
      "name": "selectedJurys",
      "outputs": [
        {
          "internalType": "bool",
          "name": "isAssigned",
          "type": "bool"
        },
        {
          "internalType": "bool",
          "name": "hasVoted",
          "type": "bool"
        },
        {
          "internalType": "bytes32",
          "name": "votedOption",
          "type": "bytes32"
        }
      ],
      "payable": false,
      "stateMutability": "view",
      "type": "function"
    },
    {
      "constant": true,
      "inputs": [],
      "name": "topicCreator",
      "outputs": [
        {
          "internalType": "address payable",
          "name": "",
          "type": "address"
        }
      ],
      "payable": false,
      "stateMutability": "view",
      "type": "function"
    },
    {
      "constant": false,
      "inputs": [
        {
          "internalType": "uint256",
          "name": "option",
          "type": "uint256"
        }
      ],
      "name": "voteOption",
      "outputs": [
        {
          "internalType": "bool",
          "name": "",
          "type": "bool"
        }
      ],
      "payable": true,
      "stateMutability": "payable",
      "type": "function"
    },
    {
      "constant": false,
      "inputs": [
        {
          "internalType": "bytes32",
          "name": "_option",
          "type": "bytes32"
        },
        {
          "internalType": "bool",
          "name": "forUnitTest",
          "type": "bool"
        }
      ],
      "name": "addArbitratorVote",
      "outputs": [],
      "payable": false,
      "stateMutability": "nonpayable",
      "type": "function"
    },
    {
      "constant": false,
      "inputs": [
        {
          "internalType": "bytes32",
          "name": "_option",
          "type": "bytes32"
        },
        {
          "internalType": "bool",
          "name": "forUnitTest",
          "type": "bool"
        }
      ],
      "name": "addJuryVote",
      "outputs": [],
      "payable": false,
      "stateMutability": "nonpayable",
      "type": "function"
    },
    {
      "constant": true,
      "inputs": [],
      "name": "checkIfSelectedArbitrator",
      "outputs": [
        {
          "internalType": "bool",
          "name": "",
          "type": "bool"
        }
      ],
      "payable": false,
      "stateMutability": "view",
      "type": "function"
    },
    {
      "constant": true,
      "inputs": [],
      "name": "getJuryVerdict",
      "outputs": [
        {
          "internalType": "uint256",
          "name": "",
          "type": "uint256"
        }
      ],
      "payable": false,
      "stateMutability": "view",
      "type": "function"
    },
    {
      "constant": true,
      "inputs": [],
      "name": "getArbitratorVerdict",
      "outputs": [
        {
          "internalType": "bool",
          "name": "",
          "type": "bool"
        },
        {
          "internalType": "uint256",
          "name": "",
          "type": "uint256"
        }
      ],
      "payable": false,
      "stateMutability": "view",
      "type": "function"
    },
    {
      "constant": false,
      "inputs": [
        {
          "internalType": "uint256",
          "name": "winIndex",
          "type": "uint256"
        },
        {
          "internalType": "bool",
          "name": "forUnitTest",
          "type": "bool"
        }
      ],
      "name": "resolveWithoutTie",
      "outputs": [
        {
          "internalType": "uint256",
          "name": "",
          "type": "uint256"
        }
      ],
      "payable": true,
      "stateMutability": "payable",
      "type": "function"
    },
    {
      "constant": false,
      "inputs": [],
      "name": "payoutToCreator",
      "outputs": [],
      "payable": true,
      "stateMutability": "payable",
      "type": "function"
    },
    {
      "constant": false,
      "inputs": [
        {
          "internalType": "uint256",
          "name": "winIndex",
          "type": "uint256"
        }
      ],
      "name": "payoutToJury",
      "outputs": [],
      "payable": true,
      "stateMutability": "payable",
      "type": "function"
    },
    {
      "constant": false,
      "inputs": [
        {
          "internalType": "uint256",
          "name": "winIndex",
          "type": "uint256"
        }
      ],
      "name": "payoutToArbitrators",
      "outputs": [],
      "payable": true,
      "stateMutability": "payable",
      "type": "function"
    },
    {
      "constant": false,
      "inputs": [
        {
          "internalType": "address payable",
          "name": "winner",
          "type": "address"
        }
      ],
      "name": "payoutToWinners",
      "outputs": [],
      "payable": true,
      "stateMutability": "payable",
      "type": "function"
    },
    {
      "constant": false,
      "inputs": [],
      "name": "resolveWithTie",
      "outputs": [],
      "payable": false,
      "stateMutability": "nonpayable",
      "type": "function"
    },
    {
      "constant": false,
      "inputs": [],
      "name": "selectJury",
      "outputs": [],
      "payable": false,
      "stateMutability": "nonpayable",
      "type": "function"
    },
    {
      "constant": true,
      "inputs": [],
      "name": "getAllPendingVotePrice",
      "outputs": [
        {
          "internalType": "bytes32[]",
          "name": "",
          "type": "bytes32[]"
        }
      ],
      "payable": false,
      "stateMutability": "view",
      "type": "function"
    },
    {
      "constant": true,
      "inputs": [],
      "name": "getLastTradedPrices",
      "outputs": [
        {
          "internalType": "bytes32[]",
          "name": "",
          "type": "bytes32[]"
        }
      ],
      "payable": false,
      "stateMutability": "view",
      "type": "function"
    },
    {
      "constant": true,
      "inputs": [],
      "name": "getLoseScores",
      "outputs": [
        {
          "internalType": "bytes32[]",
          "name": "",
          "type": "bytes32[]"
        }
      ],
      "payable": false,
      "stateMutability": "view",
      "type": "function"
    },
    {
      "constant": true,
      "inputs": [],
      "name": "getWinScores",
      "outputs": [
        {
          "internalType": "bytes32[]",
          "name": "",
          "type": "bytes32[]"
        }
      ],
      "payable": false,
      "stateMutability": "view",
      "type": "function"
    },
    {
      "constant": true,
      "inputs": [],
      "name": "balanceOf",
      "outputs": [
        {
          "internalType": "uint256",
          "name": "",
          "type": "uint256"
        }
      ],
      "payable": false,
      "stateMutability": "view",
      "type": "function"
    },
    {
      "constant": true,
      "inputs": [],
      "name": "getOptions",
      "outputs": [
        {
          "internalType": "bytes32[]",
          "name": "",
          "type": "bytes32[]"
        }
      ],
      "payable": false,
      "stateMutability": "view",
      "type": "function"
    },
    {
      "constant": true,
      "inputs": [],
      "name": "getArbitrators",
      "outputs": [
        {
          "internalType": "address payable[]",
          "name": "",
          "type": "address[]"
        }
      ],
      "payable": false,
      "stateMutability": "view",
      "type": "function"
    },
    {
      "constant": true,
      "inputs": [],
      "name": "getJury",
      "outputs": [
        {
          "internalType": "address payable[]",
          "name": "",
          "type": "address[]"
        }
      ],
      "payable": false,
      "stateMutability": "view",
      "type": "function"
    },
    {
      "constant": true,
      "inputs": [
        {
          "internalType": "address",
          "name": "arbitratorAddress",
          "type": "address"
        }
      ],
      "name": "hasArbitratorVoted",
      "outputs": [
        {
          "internalType": "bool",
          "name": "",
          "type": "bool"
        }
      ],
      "payable": false,
      "stateMutability": "view",
      "type": "function"
    },
    {
      "constant": true,
      "inputs": [
        {
          "internalType": "address",
          "name": "juryAddress",
          "type": "address"
        }
      ],
      "name": "hasJuryVoted",
      "outputs": [
        {
          "internalType": "bool",
          "name": "",
          "type": "bool"
        }
      ],
      "payable": false,
      "stateMutability": "view",
      "type": "function"
    },
    {
      "constant": true,
      "inputs": [],
      "name": "getNumOfJurySelected",
      "outputs": [
        {
          "internalType": "uint256",
          "name": "",
          "type": "uint256"
        }
      ],
      "payable": false,
      "stateMutability": "view",
      "type": "function"
    }
  ],
  "bytecode": "0x608060408190526028805460ff1916905562002a653881900390819083398181016040526101008110156200003357600080fd5b8151602083018051604051929492938301929190846401000000008211156200005b57600080fd5b9083019060208201858111156200007157600080fd5b82516401000000008111828201881017156200008c57600080fd5b82525081516020918201929091019080838360005b83811015620000bb578181015183820152602001620000a1565b50505050905090810190601f168015620000e95780820380516001836020036101000a031916815260200191505b50604052602001805160405193929190846401000000008211156200010d57600080fd5b9083019060208201858111156200012357600080fd5b82516401000000008111828201881017156200013e57600080fd5b82525081516020918201929091019080838360005b838110156200016d57818101518382015260200162000153565b50505050905090810190601f1680156200019b5780820380516001836020036101000a031916815260200191505b5060405260200180516040519392919084640100000000821115620001bf57600080fd5b908301906020820185811115620001d557600080fd5b8251866020820283011164010000000082111715620001f357600080fd5b82525081516020918201928201910280838360005b838110156200022257818101518382015260200162000208565b5050505091909101604081815260208401519084015160609094018051919694959294935090846401000000008211156200025c57600080fd5b9083019060208201858111156200027257600080fd5b82518660208202830111640100000000821117156200029057600080fd5b82525081516020918201928201910280838360005b83811015620002bf578181015183820152602001620002a5565b505050509190910160405250602090810151600980546001600160a01b038084166001600160a01b03199283161790925560008054928e169290911691909117905589519093506200031892506001918a0190620004ac565b5085516200032e906002906020890190620004ac565b5084516200034490600390602088019062000531565b506000600455600584905560068390558151620003699060079060208501906200056e565b506009805461ffff60a01b1916601760a01b1760ff60b01b19169055600b805460ff1916905560005b8551811015620003fc576040805180820190915260008082526020820152600d8260048110620003be57fe5b825160029190910291909101908155602090910151600191820180546001600160a01b0319166001600160a01b039092169190911790550162000392565b5060005b82518110156200049d5760405180606001604052806001151581526020016000151581526020016000801b815250602260008584815181106200043f57fe5b6020908102919091018101516001600160a01b03168252818101929092526040908101600020835181549385015115156101000261ff001991151560ff19909516949094171692909217825591909101516001918201550162000400565b5050505050505050506200061b565b828054600181600116156101000203166002900490600052602060002090601f016020900481019282601f10620004ef57805160ff19168380011785556200051f565b828001600101855582156200051f579182015b828111156200051f57825182559160200191906001019062000502565b506200052d929150620005d4565b5090565b8280548282559060005260206000209081019282156200051f57916020028201828111156200051f57825182559160200191906001019062000502565b828054828255906000526020600020908101928215620005c6579160200282015b82811115620005c657825182546001600160a01b0319166001600160a01b039091161782556020909201916001909101906200058f565b506200052d929150620005f4565b620005f191905b808211156200052d5760008155600101620005db565b90565b620005f191905b808211156200052d5780546001600160a01b0319168155600101620005fb565b61243a806200062b6000396000f3fe60806040526004361061023b5760003560e01c806388814f431161012e578063cc2ee196116100ab578063e8a1e12e1161006f578063e8a1e12e146107b8578063f06e3e2e146107cd578063f462f8af14610800578063f4c6284b14610826578063fbcc1e71146108585761023b565b8063cc2ee196146106e1578063cc7e6210146106f6578063d3901fb514610720578063e6cd5a1114610735578063e6ff5096146107655761023b565b8063a8323176116100f2578063a83231761461063d578063b1d5362b14610652578063bc0da8d314610684578063bfb0b60814610699578063c617339b146106ae5761023b565b806388814f43146105af578063894c3b1f146105c45780639570400f146105d957806395e56a84146105fe578063a6430cc0146106135761023b565b8063465be85f116101bc5780636f36ec23116101805780636f36ec2314610529578063722713f7146105465780637284e4161461055b578063729ecb071461057057806376bb984b1461059a5761023b565b8063465be85f146104595780634852aa6d1461046e578063516dde43146104ba57806366d4bfac146104cf5780636f0f9f5e146104f95761023b565b80632c135b93116102035780632c135b931461039d5780632d978163146103c45780633b2c0cc3146103fd578063409e22051461041a578063459d6e4f146104445761023b565b806306fdde031461024057806312b8b1a3146102ca57806313e86a8f1461031157806322cedead14610330578063288fa80214610338575b600080fd5b34801561024c57600080fd5b5061025561086d565b6040805160208082528351818301528351919283929083019185019080838360005b8381101561028f578181015183820152602001610277565b50505050905090810190601f1680156102bc5780820380516001836020036101000a031916815260200191505b509250505060405180910390f35b3480156102d657600080fd5b506102fd600480360360208110156102ed57600080fd5b50356001600160a01b03166108fa565b604080519115158252519081900360200190f35b61032e6004803603602081101561032757600080fd5b5035610921565b005b61032e610a72565b34801561034457600080fd5b5061034d610b68565b60408051602080825283518183015283519192839290830191858101910280838360005b83811015610389578181015183820152602001610371565b505050509050019250505060405180910390f35b3480156103a957600080fd5b506103b2610bd5565b60408051918252519081900360200190f35b3480156103d057600080fd5b506103d9610bdb565b604051808260038111156103e957fe5b60ff16815260200191505060405180910390f35b61032e6004803603602081101561041357600080fd5b5035610be4565b34801561042657600080fd5b506103b26004803603602081101561043d57600080fd5b5035610cba565b34801561045057600080fd5b506103b2610cd8565b34801561046557600080fd5b5061034d610cde565b34801561047a57600080fd5b5061049e6004803603604081101561049157600080fd5b5080359060200135610d40565b604080516001600160a01b039092168252519081900360200190f35b3480156104c657600080fd5b506103b2610d75565b3480156104db57600080fd5b506103b2600480360360208110156104f257600080fd5b5035610d7b565b34801561050557600080fd5b5061050e610d8d565b60408051921515835260208301919091528051918290030190f35b6102fd6004803603602081101561053f57600080fd5b5035610e05565b34801561055257600080fd5b506103b2611186565b34801561056757600080fd5b5061025561118a565b34801561057c57600080fd5b5061049e6004803603602081101561059357600080fd5b50356111e2565b3480156105a657600080fd5b5061032e611209565b3480156105bb57600080fd5b506103b26117c0565b3480156105d057600080fd5b5061034d611817565b6103b2600480360360408110156105ef57600080fd5b50803590602001351515611877565b34801561060a57600080fd5b5061034d6119e7565b34801561061f57600080fd5b5061049e6004803603602081101561063657600080fd5b5035611a4a565b34801561064957600080fd5b5061032e611a57565b34801561065e57600080fd5b5061032e6004803603604081101561067557600080fd5b50803590602001351515611a6c565b34801561069057600080fd5b5061034d611bc0565b3480156106a557600080fd5b5061034d611c23565b3480156106ba57600080fd5b506102fd600480360360208110156106d157600080fd5b50356001600160a01b0316611c86565b3480156106ed57600080fd5b5061034d611ca9565b34801561070257600080fd5b506103b26004803603602081101561071957600080fd5b5035611d00565b34801561072c57600080fd5b506102fd611d12565b34801561074157600080fd5b5061049e6004803603604081101561075857600080fd5b5080359060200135611d28565b34801561077157600080fd5b506107986004803603602081101561078857600080fd5b50356001600160a01b0316611d41565b604080519315158452911515602084015282820152519081900360600190f35b3480156107c457600080fd5b506103b2611d67565b3480156107d957600080fd5b50610798600480360360208110156107f057600080fd5b50356001600160a01b0316611d6d565b61032e6004803603602081101561081657600080fd5b50356001600160a01b0316611d93565b34801561083257600080fd5b5061032e6004803603604081101561084957600080fd5b50803590602001351515611e25565b34801561086457600080fd5b5061049e611f55565b60018054604080516020600284861615610100026000190190941693909304601f810184900484028201840190925281815292918301828280156108f25780601f106108c7576101008083540402835291602001916108f2565b820191906000526020600020905b8154815290600101906020018083116108d557829003601f168201915b505050505081565b6001600160a01b038116600090815260226020526040902054610100900460ff165b919050565b6009546005546040805163175473d760e11b81523060048201526024810192909252516001600160a01b03909216918291632ea8e7ae91604480830192600092919082900301818387803b15801561097857600080fd5b505af115801561098c573d6000803e3d6000fd5b50505050600060646004548161099e57fe5b046005540190506000600384815481106109b457fe5b600091825260208083209091015480835260279091526040822054909250905b81811015610a6a5760008381526026602052604081208054839081106109f657fe5b60009182526020808320909101546001600160a01b0316808352600c9091526040909120805460ff191660011790559050806108fc848781610a3457fe5b049081150290604051600060405180830381858888f19350505050158015610a60573d6000803e3d6000fd5b50506001016109d4565b505050505050565b600080546001600160a01b03168152600c602052604090205460ff16610b6657600080546001600160a01b039081168252600c60205260408220805460ff1916600117905590546004549116906108fc90606490049081150290604051600060405180830381858888f19350505050158015610af2573d6000803e3d6000fd5b50600954600080546005546040805163175473d760e11b81526001600160a01b03938416600482015260248101929092525191909316928392632ea8e7ae9260448084019382900301818387803b158015610b4c57600080fd5b505af1158015610b60573d6000803e3d6000fd5b50505050505b565b60408051600480825260a08201909252606091908290826020820160808038833901905050905060005b82811015610bcd57600d8160048110610ba757fe5b60020201548251839083908110610bba57fe5b6020908102919091010152600101610b92565b509150505b90565b60045481565b60285460ff1681565b6000606460045481610bf257fe5b049050600060038381548110610c0457fe5b600091825260208083209091015480835260249091526040822054909250905b81811015610b60576000838152602360205260408120805483908110610c4657fe5b60009182526020808320909101546001600160a01b0316808352600c9091526040909120805460ff191660011790559050806108fc848781610c8457fe5b049081150290604051600060405180830381858888f19350505050158015610cb0573d6000803e3d6000fd5b5050600101610c24565b60038181548110610cc757fe5b600091825260209091200154905081565b60055481565b60606008805480602002602001604051908101604052809291908181526020018280548015610d3657602002820191906000526020600020905b81546001600160a01b03168152600190910190602001808311610d18575b5050505050905090565b60236020528160005260406000208181548110610d5957fe5b6000918252602090912001546001600160a01b03169150829050565b60065481565b60276020526000908152604090205481565b600080808080805b600354811015610dfb5760006024600060038481548110610db257fe5b9060005260206000200154815260200190815260200160002054905084811115610de55780945060009250819350610df2565b84811415610df257600192505b50600101610d95565b5093509150509091565b3360009081526022602052604081205460ff1615610e2257600080fd5b34670de0b6b3a76400008110610e3757600080fd5b80600d8460048110610e4557fe5b600202015410610e5457600080fd5b6009546040805163310ad0b760e11b815233600482015290516001600160a01b03909216916000918391636215a16e91602480820192602092909190829003018186803b158015610ea457600080fd5b505afa158015610eb8573d6000803e3d6000fd5b505050506040513d6020811015610ece57600080fd5b5051905080610edc57600080fd5b600d8560048110610ee957fe5b60020201600101546001600160a01b03166108fc600d8760048110610f0a57fe5b60020201546040518115909202916000818181858888f19350505050158015610f37573d6000803e3d6000fd5b50670de0b6b3a7640000610f496122ca565b60005b6004811015610fb857878114610fb057600d8160048110610f6957fe5b600202015490920391600d8160048110610f7f57fe5b60020201600101546001600160a01b0316828260048110610f9c57fe5b6001600160a01b0390921660209290920201525b600101610f4c565b508482116111195733818860048110610fcd57fe5b6001600160a01b039092166020929092020152610fe86122e8565b50604080516020810190915281815260218054600181018083556000929092528251839160049081027f3a6357012c1a3ae0a17d304c9920310382d968ebcc4b1771f41c6b304205b570019161104091839190612300565b506000925050505b6004811015611098578881141561106e57836015826004811061106757fe5b0155611090565b600d816004811061107b57fe5b60020201546015826004811061108d57fe5b01555b600101611048565b50604051339084880380156108fc02916000818181858888f193505050501580156110c7573d6000803e3d6000fd5b506110d0611f64565b60005b60048110156110f8576000600d82600481106110eb57fe5b60020201556001016110d3565b505060048054670de0b6b3a7640000019055506001945061091c9350505050565b611121612358565b506040805180820190915285815233602082015280600d896004811061114357fe5b825160029190910291909101908155602090910151600190910180546001600160a01b0319166001600160a01b0390921691909117905550949695505050505050565b4790565b6002805460408051602060018416156101000260001901909316849004601f810184900484028201840190925281815292918301828280156108f25780601f106108c7576101008083540402835291602001916108f2565b600881815481106111ef57fe5b6000918252602090912001546001600160a01b0316905081565b6009546040805163193ca33d60e31b815290516001600160a01b0390921691606091839163c9e519e891600480820192600092909190829003018186803b15801561125357600080fd5b505afa158015611267573d6000803e3d6000fd5b505050506040513d6000823e601f3d908101601f19168201604052602081101561129057600080fd5b81019080805160405193929190846401000000008211156112b057600080fd5b9083019060208201858111156112c557600080fd5b82518660208202830111640100000000821117156112e257600080fd5b82525081516020918201928201910280838360005b8381101561130f5781810151838201526020016112f7565b50505050905001604052505050905060056007805490508251031161148b5760006007805490508251039050606081604051908082528060200260200182016040528015611367578160200160208202803883390190505b5090506000805b845181101561146957600085828151811061138557fe5b6020908102919091018101516001600160a01b0381166000908152602290925260409091205490915060ff16806113c957506000546001600160a01b038281169116145b156113d45750611461565b604080516060810182526001808252600060208084018281528486018381526001600160a01b038816845260259092529490912092518354945115156101000261ff001991151560ff19909616959095171693909317825591519101558351819085908590811061144157fe5b6001600160a01b0390921660209283029190910190910152506001909101905b60010161136e565b50815161147d90600890602085019061236f565b50600a5550610b6692505050565b60608151600a026040519080825280602002602001820160405280156114bb578160200160208202803883390190505b5090506000805b83518110156116045760008482815181106114d957fe5b6020908102919091018101516001600160a01b0381166000908152602290925260409091205490915060ff168061151d57506000546001600160a01b038281169116145b1561152857506115fc565b6000866001600160a01b03166351d0ea37836040518263ffffffff1660e01b815260040180826001600160a01b03166001600160a01b0316815260200191505060606040518083038186803b15801561158057600080fd5b505afa158015611594573d6000803e3d6000fd5b505050506040513d60608110156115aa57600080fd5b50602001519050600a60ff82160460005b8160ff168110156115f757838787815181106115d357fe5b6001600160a01b0390921660209283029190910190910152600195860195016115bb565b505050505b6001016114c2565b5060408051600580825260c082019092526060916020820160a080388339019050509050600060335b600582108015611640575060008160ff16115b1561179e5760095460408051426020808301919091523360601b82840152600160a01b90930460f01b6001600160f01b0319166054820152815180820360360181526056909101909152805191012060009085908161169b57fe5b60098054600161ffff600160a01b808404821692909201160261ffff60a01b19909116179055875191900691506000908790839081106116d757fe5b6020908102919091018101516001600160a01b0381166000908152602590925260409091205490915060ff1661179357604080516060810182526001808252600060208084018281528486018381526001600160a01b038816845260259092529490912092518354945115156101000261ff001991151560ff19909616959095171693909317825591519101558451819086908690811061177457fe5b6001600160a01b03909216602092830291909101909101526001909301925b50506000190161162d565b82516117b190600890602086019061236f565b50506005600a55505050505050565b60008080805b600354811015610bcd57600060276000600384815481106117e357fe5b906000526020600020015481526020019081526020016000205490508381111561180e578093508192505b506001016117c6565b60606007805480602002602001604051908101604052809291908181526020018280548015610d36576020028201919060005260206000209081546001600160a01b03168152600190910190602001808311610d18575050505050905090565b60008060285460ff16600381111561188b57fe5b141580156118aa5750600360285460ff1660038111156118a757fe5b14155b6118b357600080fd5b6009546028805460ff191660031790556001600160a01b03166000805b6021548110156119965760005b602182815481106118ea57fe5b50600052600481101561198d5760006001600160a01b03166021838154811061190f57fe5b9060005260206000209060040201600001826004811061192b57fe5b01546001600160a01b0316146119855782600a01925086811415611985576119856021838154811061195957fe5b9060005260206000209060040201600001826004811061197557fe5b01546001600160a01b0316611d93565b6001016118dd565b506001016118d0565b5083156119a65791506119e19050565b6119af85610be4565b600260285460ff1660038111156119c257fe5b146119d4576119cf610a72565b6119dd565b6119dd85610921565b9150505b92915050565b60408051600480825260a08201909252606091908290826020820160808038833901905050905060005b82811015610bcd5760158160048110611a2657fe5b015460001b828281518110611a3757fe5b6020908102919091010152600101611a11565b600781815481106111ef57fe5b6028805460ff19166002179055610b66611209565b600160285460ff166003811115611a7f57fe5b14611a92576028805460ff191660011790555b33600090815260226020526040902054610100900460ff1615611ab457600080fd5b3360009081526022602052604090205460ff16611ad057600080fd5b336000818152602260209081526040808320805461010061ff0019909116178155600190810187905586845260238352818420805480830182559085528385200180546001600160a01b031916909517909455858352602490915290208054820190556009805460ff60b01b19811660ff600160b01b92839004811690940184168202179182905560075491049091161415611bbc57604080516020808252600a908201526920b93134ba3930ba37b960b11b8183015290517f21f0146f421195b1872d8b4b0ef2c37e13a25a518f7a902d98ae120c530beebc9181900360600190a1611bbc81612191565b5050565b60408051600480825260a08201909252606091908290826020820160808038833901905050905060005b82811015610bcd57601d8160048110611bff57fe5b015460001b828281518110611c1057fe5b6020908102919091010152600101611bea565b60408051600480825260a08201909252606091908290826020820160808038833901905050905060005b82811015610bcd5760198160048110611c6257fe5b015460001b828281518110611c7357fe5b6020908102919091010152600101611c4d565b6001600160a01b0316600090815260256020526040902054610100900460ff1690565b60606003805480602002602001604051908101604052809291908181526020018280548015610d3657602002820191906000526020600020905b815481526020019060010190808311611ce3575050505050905090565b60246020526000908152604090205481565b3360009081526022602052604090205460ff1690565b60266020528160005260406000208181548110610d5957fe5b6025602052600090815260409020805460019091015460ff808316926101009004169083565b600a5490565b6022602052600090815260409020805460019091015460ff808316926101009004169083565b6001600160a01b0381166000908152600c602052604090205460ff16611e22576001600160a01b0381166000818152600c6020526040808220805460ff1916600117905551670d99a8cec7e200009082818181858883f19350505050158015611e00573d6000803e3d6000fd5b506001600160a01b0381166000908152600c60205260409020805460ff191690555b50565b600260285460ff166003811115611e3857fe5b14611e4257600080fd5b33600090815260256020526040902054610100900460ff1615611e6457600080fd5b3360009081526025602052604090205460ff16611e8057600080fd5b336000818152602560209081526040808320805461ff001916610100178155600190810187905586845260268352818420805480830182559085528385200180546001600160a01b03191690951790945585835260279091529020805482019055600b805460ff818116909301831660ff199091161790819055600a5491161415611bbc57604080516020808252600490820152634a75727960e01b8183015290517f21f0146f421195b1872d8b4b0ef2c37e13a25a518f7a902d98ae120c530beebc9181900360600190a1611bbc81612191565b6000546001600160a01b031681565b6009546001600160a01b0316611f786122e8565b602180546000198101908110611f8a57fe5b60009182526020918290206040805160a081019182905293600493840290920192849283019184919082845b81546001600160a01b03168152600190910190602001808311611fb657505050505081525050905060008090505b600481101561218c5781516000908260048110611ffd57fe5b602002015190506001600160a01b038116156121835761201b6123c3565b60408051633d59f85b60e01b81526001600160a01b038481166004830152825190881692633d59f85b9260248082019391829003018186803b15801561206057600080fd5b505afa158015612074573d6000803e3d6000fd5b505050506040513d601f19601f82011682018060405250604081101561209957600080fd5b50604080516001600160a01b03851681529192507f405f4ccba46549b1dbd2e5bfbf7248e032b3b50a1a6d65140c30c83a176d192e9184918491906020820190839080838360005b838110156120f95781810151838201526020016120e1565b505050509050019250505060405180910390a16015836004811061211957fe5b01548151026019846004811061212b57fe5b0154016019846004811061213b57fe5b01556015836004811061214a57fe5b01546001038160016002811061215c57fe5b602002015102601d846004811061216f57fe5b015401601d846004811061217f57fe5b0155505b50600101611fe4565b505050565b600060285460ff1660038111156121a457fe5b141580156121c35750600360285460ff1660038111156121c057fe5b14155b6121cc57600080fd5b600260285460ff1660038111156121df57fe5b14156122505760006121ef6117c0565b90507f66b3df4a88fe35c4317e0f383c3a982564d17f7c0396b0e2fc77dc8f93ee2d266003828154811061221f57fe5b90600052602060002001546040518082815260200191505060405180910390a16122498183611877565b5050611e22565b60008061225b610d8d565b91509150816122c2577f66b3df4a88fe35c4317e0f383c3a982564d17f7c0396b0e2fc77dc8f93ee2d266003828154811061229257fe5b90600052602060002001546040518082815260200191505060405180910390a16122bc8184611877565b5061218c565b61218c611a57565b60405180608001604052806004906020820280388339509192915050565b60405180602001604052806122fb6122ca565b905290565b8260048101928215612348579160200282015b8281111561234857825182546001600160a01b0319166001600160a01b03909116178255602090920191600190910190612313565b506123549291506123e1565b5090565b604080518082019091526000808252602082015290565b828054828255906000526020600020908101928215612348579160200282018281111561234857825182546001600160a01b0319166001600160a01b03909116178255602090920191600190910190612313565b60405180604001604052806002906020820280388339509192915050565b610bd291905b808211156123545780546001600160a01b03191681556001016123e756fea265627a7a72315820374d6315c695734bcc52d29fbdd9109a43e4995e32e8d699d4584f080021ec6164736f6c63430005100032",
  "source": "// SPDX-License-Identifier: MIT\npragma solidity >=0.4.21 <=0.7.0;\nimport \"./PredictionMarket.sol\";\n// import \"github.com/OpenZeppelin/zeppelin-solidity/contracts/math/SafeMath.sol\";\n\ncontract Topic {\n  // Public attirbutes\n  address payable public topicCreator;\n  string public name;\n  string public description;\n  bytes32[] public options;\n  uint public marketCap;\n  uint public creatorBond;\n  uint256 public expiryDate;\n  address payable[] public arbitrators;\n  address payable[] public jury;\n\n  // Private attributes\n  address parentContract;\n  uint16 nonce;\n  uint8 numArbitratorVoted;\n  uint numOfJury;\n  uint8 numJuryVoted;\n\n  // Guard against reentrancy => applicable for all receivers of ether\n  mapping (address => bool) hasReceivedPayout;\n\n  // Pending votes\n  voteStruct[4] pendingVotes;\n  struct voteStruct {\n    uint price; \n    address payable voter;\n  }\n\n  // Last Traded Prices\n  uint[4] lastTradedPrices;\n\n  // weighted votes\n  uint[4] winScores;\n  uint[4] loseScores;\n\n  // Successful trades\n  trade[] confirmedTrades;\n  struct trade {\n    address payable[4] shareOwners;\n  }\n\n  // Arbitrator voting related variables\n  struct SelectedArbitrator {\n        bool isAssigned;\n        bool hasVoted;\n        bytes32 votedOption;\n  }\n\n  mapping (address => SelectedArbitrator) public selectedArbitrators;\n  mapping (bytes32 => address[]) public arbitratorsVotes;\n  mapping (bytes32 => uint) public countofArbVotes;\n\n  // Jury voting related variables\n  struct SelectedJury {\n      bool isAssigned;\n      bool hasVoted;\n      bytes32 votedOption;\n  }\n  mapping (address => SelectedJury) public selectedJurys;\n  mapping (bytes32 => address[]) public jurysVotes;\n  mapping (bytes32 => uint) public countofJuryVotes;\n\n  // State of contract\n  // 0 => Open, 1 => Arbitrator Voting, 2 => Jury Voting, 3 => Resolved / closed\n  enum Phase { Open, Verification, Jury, Resolved }\n  Phase public contractPhase = Phase.Open;\n\n  // NOTE: Ignore linter warning about visibility modifier being ignored. \n  // It is required for successful compilation\n  constructor (\n      address payable _creator, string memory _name, string memory _description, bytes32[] memory _options, \n      uint _bondValue, uint256 _expiryDate, address payable[] memory _arbitrators, address _predictionMarket\n    ) public payable {\n        parentContract = _predictionMarket;\n        topicCreator = _creator;\n        name = _name;\n        description = _description;\n        options = _options;\n        marketCap = 0;\n        creatorBond = _bondValue;\n        expiryDate = _expiryDate;\n        arbitrators = _arbitrators;\n\n        nonce = 23; // NOTE: Random number for the nonce\n        numArbitratorVoted = 0;\n        numJuryVoted = 0;\n\n        // init pending votes\n        for (uint i = 0; i < _options.length; i++) {\n          pendingVotes[i] = voteStruct(0, address(0));\n        }\n\n        for (uint j = 0; j < _arbitrators.length; j++) {\n          selectedArbitrators[_arbitrators[j]] = SelectedArbitrator(true, false, bytes32(0));\n        }\n    }\n\n// TODO: TEST CASES\n  function updateWeightedVotes() private {\n    PredictionMarket pm = PredictionMarket(parentContract);\n    trade memory lastTrade = confirmedTrades[confirmedTrades.length - 1];\n    for(uint i=0; i<4; i++){\n      address voterAddress = lastTrade.shareOwners[i]; \n      \n      if(voterAddress != address(0)){\n        // getVotersReputation only accepts a valid voterAddress. \n        uint[2] memory winLose = pm.getVotersReputation(voterAddress);   \n        emit UpdateWeightedVotes(voterAddress, winLose);\n        winScores[i] = winScores[i] + (winLose[0] * lastTradedPrices[i]);\n        loseScores[i] = loseScores[i] + (winLose[1] * (1 - lastTradedPrices[i]));\n      }\n    }\n  }\n     \n  function voteOption(uint option) public payable returns(bool){\n    require(!selectedArbitrators[msg.sender].isAssigned);\n\n    uint amount = msg.value;\n    require(msg.value < 1 ether);\n    // Reject the vote if it is lower than the last available vote\n    require(pendingVotes[option].price <  amount);\n\n    // Check if the voter is valid\n    PredictionMarket pm = PredictionMarket(parentContract);\n    bool validTrader = pm.checkValidTrader(msg.sender);\n    require(validTrader);\n\n    // If the vote is higher than the last available price, send money back to the previous voter\n    pendingVotes[option].voter.transfer(pendingVotes[option].price);\n\n    // Balance to decide if the vote goes through\n    uint balance = 1 ether; \n\n    // Entry to insert into the confirmed trades if vote goes through\n    address payable[4] memory tempTrade;\n\n    for(uint i=0; i< 4; i++){\n      if(i != option){\n        balance = balance - pendingVotes[i].price; \n        tempTrade[i] = pendingVotes[i].voter;\n      }\n    }\n    \n    // If vote can go through\n    if(balance <= amount){\n      \n      // 1) Confirm the trade by putting it into trade confirmed\n      tempTrade[option] = msg.sender;\n      trade memory tradeConfirmed = trade(tempTrade);\n      confirmedTrades.push(tradeConfirmed);\n      \n      // 2) Update the lastTradedPrices\n      for(uint i=0; i< 4; i++){\n        if(i == option){\n          lastTradedPrices[i] = balance;\n        }\n        else{\n          lastTradedPrices[i]= pendingVotes[i].price;\n        }\n      }\n      \n\n      // 3) Send the remaining money back to the sender\n      msg.sender.transfer(amount - balance);\n\n      // 4) Update the weighted votes according to the last trade\n      updateWeightedVotes();\n\n      // 5) Reset the pending votes instance\n      for(uint i =0; i< 4; i++){\n        pendingVotes[i].price =0; \n      }\n\n      // 6) Add to market cap for future payouts calculations\n      marketCap += 1 ether;\n      return true;\n    }\n\n    // If vote cannot go through\n    else {\n      // Update the pending votes\n      voteStruct memory tempVote = voteStruct(amount, msg.sender); \n      pendingVotes[option] = tempVote;\n    }\n  }\n\n  function addArbitratorVote(bytes32 _option, bool forUnitTest) public { // FIXME: Remove unit test options before deploying to testnet!\n    // Shift contract phase\n    if (contractPhase != Phase.Verification) { // TODO: Add check for expiry date as well!\n      contractPhase = Phase.Verification;\n    }\n    require(!selectedArbitrators[msg.sender].hasVoted); //no double voting\n    require(selectedArbitrators[msg.sender].isAssigned);\n    selectedArbitrators[msg.sender].hasVoted = true;\n    selectedArbitrators[msg.sender].votedOption = _option;\n    arbitratorsVotes[_option].push(msg.sender);\n    countofArbVotes[_option]++;\n\n    // Trigger resolve if all selected arbitrators have voted\n    numArbitratorVoted++;\n    if (numArbitratorVoted == arbitrators.length) {\n      emit ResolveCalled(\"Arbitrator\");\n      resolve(forUnitTest);\n    }\n  }\n\n  function addJuryVote(bytes32 _option, bool forUnitTest) public { // FIXME: Remove unit test options before deploying to testnet!\n    require(contractPhase == Phase.Jury); // require it to be in jury phase\n    require(!selectedJurys[msg.sender].hasVoted); //no double voting\n    require(selectedJurys[msg.sender].isAssigned);\n    selectedJurys[msg.sender].hasVoted = true;\n    selectedJurys[msg.sender].votedOption = _option;\n    jurysVotes[_option].push(msg.sender);\n    countofJuryVotes[_option]++;\n\n    // Trigger resolve if all selected jury have voted\n    numJuryVoted++;\n    if (numJuryVoted == numOfJury) {\n      emit ResolveCalled(\"Jury\");\n      resolve(forUnitTest);\n    }\n  }\n\n  // Getter function for test\n  function checkIfSelectedArbitrator() public view returns (bool) {\n    return selectedArbitrators[msg.sender].isAssigned;\n  }\n\n  /*\n  resolve() will be called after all selected arbitrators have voted for the truth\n  TODO: figure out how to make last arbitrator call resolve function and are we going to charge gas fees to last arbitrator? \n  NOTE: Events for testing purpose. Can see if FE requires events as well else remove before deployment on testnet\n  */\n  event ResolveCalled(string source);\n  event WinningOption(bytes32 option);\n\n  function resolve(bool forUnitTest) internal { // FIXME: Remove unit test options before deploying to testnet!\n    require(contractPhase != Phase.Open && contractPhase != Phase.Resolved);\n    if(contractPhase == Phase.Jury){ \n      uint finalWinIndex = getJuryVerdict();\n      emit WinningOption(options[finalWinIndex]);\n      resolveWithoutTie(finalWinIndex, forUnitTest);\n      return;\n    }\n    \n    (bool hasTie, uint winIndex) = getArbitratorVerdict();\n    if (!hasTie) {\n      emit WinningOption(options[winIndex]);\n      resolveWithoutTie(winIndex, forUnitTest);\n    } else {\n      resolveWithTie();\n    }\n  }\n\n  function getJuryVerdict() public view returns (uint) {\n    uint largest = 0;\n    uint winningOption;\n    for (uint i = 0; i < options.length; i++){\n      uint temp = countofJuryVotes[options[i]];\n      if (temp > largest){\n        largest = temp;\n        winningOption = i;\n      }\n    }\n    return winningOption;\n  }\n\n  function getArbitratorVerdict() public view returns (bool,uint){\n    uint largest = 0;\n    uint winningOption;\n    bool hasTie = false;\n    for (uint i =0; i < options.length; i++){\n      uint temp = countofArbVotes[options[i]];\n      if (temp > largest){\n        largest = temp;\n        hasTie = false;\n        winningOption = i;\n      } else if (temp == largest){\n        hasTie = true;\n      }\n    }\n    return (hasTie, winningOption);\n  }\n\n  // TODO: Payout to arbitrators, jury/creator\n  function resolveWithoutTie(uint winIndex, bool forUnitTest) public payable returns(uint) { // FIXME: Remove unit test options before deploying to testnet!\n    require(contractPhase != Phase.Open && contractPhase != Phase.Resolved); // Check required as function is public\n    PredictionMarket marketInstance = PredictionMarket(parentContract);\n    contractPhase = Phase.Resolved;\n    uint temp = 0;\n    for(uint i = 0; i<confirmedTrades.length; i++){\n      for(uint j = 0; j<confirmedTrades[i].shareOwners.length; j++){\n        if (confirmedTrades[i].shareOwners[j] != address(uint160(0x0))){\n          temp = temp + 10;\n          if(j == winIndex){\n            // marketInstance.updateWinScore(address(uint160(confirmedTrades[i].shareOwners[j])));\n            payoutToWinners(confirmedTrades[i].shareOwners[j]); \n          } else {\n            // marketInstance.updateLoseScore(confirmedTrades[i].shareOwners[j]);\n          }\n        }\n      }\n    }\n    if (forUnitTest) {\n      return temp;\n    }\n    payoutToArbitrators(winIndex);\n    if (contractPhase != Phase.Jury) {\n      payoutToCreator();\n    } else {\n      payoutToJury(winIndex);\n    }\n    return temp;\n  }\n\n  function payoutToCreator() public payable {\n    if (!hasReceivedPayout[topicCreator]) {\n      hasReceivedPayout[topicCreator] = true;\n      topicCreator.transfer(uint(marketCap) / uint(100));\n      PredictionMarket marketInstance = PredictionMarket(parentContract);\n      marketInstance.transferCreatorBond(topicCreator, uint(creatorBond));\n    }\n  }\n\n  function payoutToJury(uint winIndex) public payable {\n    PredictionMarket marketInstance = PredictionMarket(parentContract);\n\n    // Creator bond is forfeited to the jury\n    marketInstance.transferCreatorBond(address(uint160(address(this))), uint(creatorBond));\n    uint juryShare = creatorBond + (uint(marketCap) / uint(100)); // integer division\n    bytes32 winningOption = options[winIndex];\n    uint numWinners = countofJuryVotes[winningOption];\n    for (uint i = 0; i < numWinners; i++) {\n      address payable winningJury = address(uint160(jurysVotes[winningOption][i]));\n      hasReceivedPayout[winningJury] = true;\n      winningJury.transfer(uint(juryShare) / uint(numWinners));\n    }\n  }\n\n  function payoutToArbitrators(uint winIndex) public payable {\n    uint arbitratorShare = uint(marketCap) / uint(100); // integer division\n    bytes32 winningOption = options[winIndex];\n    uint numWinners = countofArbVotes[winningOption];\n    for (uint i = 0; i < numWinners; i++) {\n      address payable winningArbitrator = address(uint160(arbitratorsVotes[winningOption][i]));\n      hasReceivedPayout[winningArbitrator] = true;\n      winningArbitrator.transfer(uint(arbitratorShare) / uint(numWinners));\n    }\n  }\n\n  function payoutToWinners(address payable winner) public payable {\n    if (!hasReceivedPayout[winner]) {\n      hasReceivedPayout[winner] = true;\n      winner.transfer(0.98 ether);\n      hasReceivedPayout[winner] = false; // set back to false in case trader bought more than 1 share\n    }\n  }\n \n  // FIXME: Change visibility to internal before deploying on testnet!\n  // Use public for unit tests\n  function resolveWithTie() public {\n    contractPhase = Phase.Jury;\n    selectJury();\n  }\n\n  function selectJury() public {\n    PredictionMarket marketInstance = PredictionMarket(parentContract);\n    address payable[] memory allArbitrators = marketInstance.getAllArbitrators();\n\n    // If there are less than 5 remaining arbitrators, select all of them as jury\n    // Topic creator is excluded from selection as well\n    if (allArbitrators.length - arbitrators.length <= 5) {\n      uint diff = allArbitrators.length - arbitrators.length;\n      address payable[] memory remainingArbitrators = new address payable[](diff);\n      uint ptr = 0;\n      for (uint k = 0; k < allArbitrators.length; k++) {\n        address payable arb = allArbitrators[k];\n        if (selectedArbitrators[arb].isAssigned || arb == topicCreator) {\n          continue;\n        }\n        selectedJurys[arb] = SelectedJury(true, false, bytes32(0));\n        remainingArbitrators[ptr] = arb;\n        ptr++;\n      }\n      // If less than diff arbitrators are selected (i.e. one of the remaining is the topic creator)\n      // last address will be address(0)\n      jury = remainingArbitrators;\n      numOfJury = ptr; // Ptr will indicate how many jury were selected in the end\n      return;\n    }\n\n    // Else, create ballot where number of chances is proportional to the arbitrator's trustworthiness\n    address payable[] memory ballot = new address payable[](allArbitrators.length * 10); // Max length is when all arbitrators are at 100 score\n    uint ballotPointer = 0;\n\n    for (uint i = 0; i < allArbitrators.length; i++) {\n      address payable arbitrator = allArbitrators[i];\n      if (selectedArbitrators[arbitrator].isAssigned || arbitrator == topicCreator) {\n        continue;\n      }\n      (,uint8 trustworthiness,) = marketInstance.arbitrators(arbitrator); // Access trustworthiness score of struct\n      uint8 chance = trustworthiness / uint8(10);\n      for (uint j = 0; j < chance; j++) {\n        ballot[ballotPointer] = arbitrator;\n        ballotPointer++;\n      }\n    }\n\n    // Select random jury from the ballot\n    // Rechoose if address is already selected in the jury\n    address payable[] memory juryMemory = new address payable[](5);\n    uint juryPointer = 0;\n    // Max tries is bounded by 51 => For 1st 4 jury, repeated hit their address again = 4 * 10, \n    // 10 additional tries if creator is arbitrator, hence 51st try is guaranteed to resolve\n    uint8 triesLeft = 51; \n    while (juryPointer < 5 && triesLeft > 0) {\n      uint next = uint(keccak256(abi.encodePacked(block.timestamp, msg.sender, nonce))) % ballotPointer;\n      nonce++;\n      address payable potential = ballot[next];\n      if (!selectedJurys[potential].isAssigned) {\n        selectedJurys[potential] = SelectedJury(true, false, bytes32(0));\n        juryMemory[juryPointer] = potential;\n        juryPointer++;\n      }\n      triesLeft--;\n    }\n    jury = juryMemory;\n    numOfJury = 5;\n  }\n\n  // ===================================================\n  // Getters\n  // ===================================================\n\n  function getAllPendingVotePrice() view public returns(bytes32[] memory){\n    uint len = pendingVotes.length;\n    bytes32[] memory bytesArray = new bytes32[](len);\n    for (uint i = 0; i < len; i++) {\n      bytesArray[i] = bytes32(pendingVotes[i].price);\n    }\n    return bytesArray;\n  } \n\n  function getLastTradedPrices() view public returns(bytes32[] memory){\n    uint len = lastTradedPrices.length;\n    bytes32[] memory bytesArray = new bytes32[](len);\n    for (uint i = 0; i < len; i++) {\n      bytesArray[i] = bytes32(lastTradedPrices[i]);\n    }\n    return bytesArray;\n  }\n\n// Function will return an array of 8 elements in total: [win0, lose0, win1, lose1...]\n  function getLoseScores() view public returns(bytes32[] memory){\n    uint len = loseScores.length;\n    bytes32[] memory bytesArray = new bytes32[](len);\n    for (uint i = 0; i < len; i++) {\n      bytesArray[i] = bytes32(loseScores[i]);\n    }\n    return bytesArray;\n  }\n\n  // Function will return an array of 8 elements in total: [win0, lose0, win1, lose1...]\n  function getWinScores() view public returns(bytes32[] memory){\n    uint len = loseScores.length;\n    bytes32[] memory bytesArray = new bytes32[](len);\n    for (uint i = 0; i < len; i++) {\n      bytesArray[i] = bytes32(winScores[i]);\n    }\n    return bytesArray;\n  }\n\n  function balanceOf() external view returns(uint) {\n    return address(this).balance;\n  }\n\n  function getOptions() public view returns (bytes32[] memory) {\n    return options;\n  }\n\n  function getArbitrators() public view returns (address payable[] memory) {\n    return arbitrators;\n  }\n\n  function getJury() public view returns (address payable[] memory) {\n    return jury;\n  }\n\n  function hasArbitratorVoted(address arbitratorAddress) public view returns (bool) {\n    return selectedArbitrators[arbitratorAddress].hasVoted;\n  }\n\n  function hasJuryVoted(address juryAddress) public view returns (bool) {\n    return selectedJurys[juryAddress].hasVoted;\n  }\n\n  // ===================================================\n  // For testing purposes\n  // ===================================================\n  event UpdateWeightedVotes(address add, uint[2] beforeUpdate);\n\n  function getNumOfJurySelected() public view returns (uint) {\n    return numOfJury;\n  }\n}\n",
  "sourcePath": "/Users/collinlim/Desktop/Desktop.nosync/School/CZ4153/Project/Decentralised_Prediction_Market/contracts/Topic.sol",
  "compiler": {
    "name": "solc",
    "version": "0.5.16+commit.9c3226ce.Emscripten.clang"
  },
  "schemaVersion": "3.2.5",
  "updatedAt": "2020-10-27T09:52:22.724Z",
  "networkType": "ethereum",
  "devdoc": {
    "methods": {}
  },
  "userdoc": {
    "methods": {}
  }
}