{
  "contractName": "Topic",
  "abi": [
    {
      "inputs": [
        {
          "internalType": "address payable",
          "name": "_creator",
          "type": "address"
        },
        {
          "internalType": "string",
          "name": "_name",
          "type": "string"
        },
        {
          "internalType": "string",
          "name": "_description",
          "type": "string"
        },
        {
          "internalType": "bytes32[]",
          "name": "_options",
          "type": "bytes32[]"
        },
        {
          "internalType": "uint256",
          "name": "_bondValue",
          "type": "uint256"
        },
        {
          "internalType": "uint256",
          "name": "_expiryDate",
          "type": "uint256"
        },
        {
          "internalType": "address payable[]",
          "name": "_arbitrators",
          "type": "address[]"
        },
        {
          "internalType": "address",
          "name": "_predictionMarket",
          "type": "address"
        }
      ],
      "payable": true,
      "stateMutability": "payable",
      "type": "constructor"
    },
    {
      "anonymous": false,
      "inputs": [
        {
          "indexed": false,
          "internalType": "address",
          "name": "add",
          "type": "address"
        },
        {
          "indexed": false,
          "internalType": "uint256[2]",
          "name": "beforeUpdate",
          "type": "uint256[2]"
        }
      ],
      "name": "UpdateWeightedVotes",
      "type": "event"
    },
    {
      "constant": true,
      "inputs": [
        {
          "internalType": "address",
          "name": "",
          "type": "address"
        }
      ],
      "name": "arbVotes",
      "outputs": [
        {
          "internalType": "bool",
          "name": "hasVoted",
          "type": "bool"
        },
        {
          "internalType": "bytes32",
          "name": "votedOption",
          "type": "bytes32"
        }
      ],
      "payable": false,
      "stateMutability": "view",
      "type": "function"
    },
    {
      "constant": true,
      "inputs": [
        {
          "internalType": "uint256",
          "name": "",
          "type": "uint256"
        }
      ],
      "name": "arbitrators",
      "outputs": [
        {
          "internalType": "address payable",
          "name": "",
          "type": "address"
        }
      ],
      "payable": false,
      "stateMutability": "view",
      "type": "function"
    },
    {
      "constant": true,
      "inputs": [
        {
          "internalType": "bytes32",
          "name": "",
          "type": "bytes32"
        },
        {
          "internalType": "uint256",
          "name": "",
          "type": "uint256"
        }
      ],
      "name": "arbitratorsVotes",
      "outputs": [
        {
          "internalType": "address",
          "name": "",
          "type": "address"
        }
      ],
      "payable": false,
      "stateMutability": "view",
      "type": "function"
    },
    {
      "constant": true,
      "inputs": [],
      "name": "contractPhase",
      "outputs": [
        {
          "internalType": "enum Topic.Phase",
          "name": "",
          "type": "uint8"
        }
      ],
      "payable": false,
      "stateMutability": "view",
      "type": "function"
    },
    {
      "constant": true,
      "inputs": [
        {
          "internalType": "bytes32",
          "name": "",
          "type": "bytes32"
        }
      ],
      "name": "countofArbVotes",
      "outputs": [
        {
          "internalType": "uint256",
          "name": "",
          "type": "uint256"
        }
      ],
      "payable": false,
      "stateMutability": "view",
      "type": "function"
    },
    {
      "constant": true,
      "inputs": [],
      "name": "creatorBond",
      "outputs": [
        {
          "internalType": "uint256",
          "name": "",
          "type": "uint256"
        }
      ],
      "payable": false,
      "stateMutability": "view",
      "type": "function"
    },
    {
      "constant": true,
      "inputs": [],
      "name": "description",
      "outputs": [
        {
          "internalType": "string",
          "name": "",
          "type": "string"
        }
      ],
      "payable": false,
      "stateMutability": "view",
      "type": "function"
    },
    {
      "constant": true,
      "inputs": [],
      "name": "expiryDate",
      "outputs": [
        {
          "internalType": "uint256",
          "name": "",
          "type": "uint256"
        }
      ],
      "payable": false,
      "stateMutability": "view",
      "type": "function"
    },
    {
      "constant": true,
      "inputs": [
        {
          "internalType": "uint256",
          "name": "",
          "type": "uint256"
        }
      ],
      "name": "jury",
      "outputs": [
        {
          "internalType": "address payable",
          "name": "",
          "type": "address"
        }
      ],
      "payable": false,
      "stateMutability": "view",
      "type": "function"
    },
    {
      "constant": true,
      "inputs": [],
      "name": "marketCap",
      "outputs": [
        {
          "internalType": "uint256",
          "name": "",
          "type": "uint256"
        }
      ],
      "payable": false,
      "stateMutability": "view",
      "type": "function"
    },
    {
      "constant": true,
      "inputs": [],
      "name": "name",
      "outputs": [
        {
          "internalType": "string",
          "name": "",
          "type": "string"
        }
      ],
      "payable": false,
      "stateMutability": "view",
      "type": "function"
    },
    {
      "constant": true,
      "inputs": [
        {
          "internalType": "uint256",
          "name": "",
          "type": "uint256"
        }
      ],
      "name": "options",
      "outputs": [
        {
          "internalType": "bytes32",
          "name": "",
          "type": "bytes32"
        }
      ],
      "payable": false,
      "stateMutability": "view",
      "type": "function"
    },
    {
      "constant": true,
      "inputs": [],
      "name": "topicCreator",
      "outputs": [
        {
          "internalType": "address payable",
          "name": "",
          "type": "address"
        }
      ],
      "payable": false,
      "stateMutability": "view",
      "type": "function"
    },
    {
      "constant": false,
      "inputs": [
        {
          "internalType": "uint256",
          "name": "option",
          "type": "uint256"
        }
      ],
      "name": "voteOption",
      "outputs": [
        {
          "internalType": "bool",
          "name": "",
          "type": "bool"
        }
      ],
      "payable": true,
      "stateMutability": "payable",
      "type": "function"
    },
    {
      "constant": false,
      "inputs": [
        {
          "internalType": "bytes32",
          "name": "_option",
          "type": "bytes32"
        }
      ],
      "name": "addArbitratorVote",
      "outputs": [],
      "payable": false,
      "stateMutability": "nonpayable",
      "type": "function"
    },
    {
      "constant": true,
      "inputs": [],
      "name": "checkIfSelectedArbitrator",
      "outputs": [
        {
          "internalType": "bool",
          "name": "",
          "type": "bool"
        }
      ],
      "payable": false,
      "stateMutability": "view",
      "type": "function"
    },
    {
      "constant": false,
      "inputs": [],
      "name": "resolve",
      "outputs": [],
      "payable": false,
      "stateMutability": "nonpayable",
      "type": "function"
    },
    {
      "constant": true,
      "inputs": [],
      "name": "getArbitratorVerdict",
      "outputs": [
        {
          "internalType": "bool",
          "name": "",
          "type": "bool"
        },
        {
          "internalType": "uint256",
          "name": "",
          "type": "uint256"
        }
      ],
      "payable": false,
      "stateMutability": "view",
      "type": "function"
    },
    {
      "constant": false,
      "inputs": [
        {
          "internalType": "uint256",
          "name": "winIndex",
          "type": "uint256"
        }
      ],
      "name": "resolveWithoutTie",
      "outputs": [
        {
          "internalType": "uint256",
          "name": "",
          "type": "uint256"
        }
      ],
      "payable": true,
      "stateMutability": "payable",
      "type": "function"
    },
    {
      "constant": false,
      "inputs": [
        {
          "internalType": "address payable",
          "name": "winner",
          "type": "address"
        }
      ],
      "name": "payoutToWinners",
      "outputs": [],
      "payable": true,
      "stateMutability": "payable",
      "type": "function"
    },
    {
      "constant": false,
      "inputs": [],
      "name": "resolveWithTie",
      "outputs": [],
      "payable": false,
      "stateMutability": "nonpayable",
      "type": "function"
    },
    {
      "constant": false,
      "inputs": [],
      "name": "selectJury",
      "outputs": [],
      "payable": false,
      "stateMutability": "nonpayable",
      "type": "function"
    },
    {
      "constant": true,
      "inputs": [],
      "name": "getAllPendingVotePrice",
      "outputs": [
        {
          "internalType": "bytes32[]",
          "name": "",
          "type": "bytes32[]"
        }
      ],
      "payable": false,
      "stateMutability": "view",
      "type": "function"
    },
    {
      "constant": true,
      "inputs": [],
      "name": "getLastTradedPrices",
      "outputs": [
        {
          "internalType": "bytes32[]",
          "name": "",
          "type": "bytes32[]"
        }
      ],
      "payable": false,
      "stateMutability": "view",
      "type": "function"
    },
    {
      "constant": true,
      "inputs": [],
      "name": "getLoseScores",
      "outputs": [
        {
          "internalType": "bytes32[]",
          "name": "",
          "type": "bytes32[]"
        }
      ],
      "payable": false,
      "stateMutability": "view",
      "type": "function"
    },
    {
      "constant": true,
      "inputs": [],
      "name": "getWinScores",
      "outputs": [
        {
          "internalType": "bytes32[]",
          "name": "",
          "type": "bytes32[]"
        }
      ],
      "payable": false,
      "stateMutability": "view",
      "type": "function"
    },
    {
      "constant": true,
      "inputs": [],
      "name": "balanceOf",
      "outputs": [
        {
          "internalType": "uint256",
          "name": "",
          "type": "uint256"
        }
      ],
      "payable": false,
      "stateMutability": "view",
      "type": "function"
    },
    {
      "constant": true,
      "inputs": [],
      "name": "getOptions",
      "outputs": [
        {
          "internalType": "bytes32[]",
          "name": "",
          "type": "bytes32[]"
        }
      ],
      "payable": false,
      "stateMutability": "view",
      "type": "function"
    },
    {
      "constant": true,
      "inputs": [],
      "name": "getArbitrators",
      "outputs": [
        {
          "internalType": "address payable[]",
          "name": "",
          "type": "address[]"
        }
      ],
      "payable": false,
      "stateMutability": "view",
      "type": "function"
    },
    {
      "constant": true,
      "inputs": [],
      "name": "getJury",
      "outputs": [
        {
          "internalType": "address payable[]",
          "name": "",
          "type": "address[]"
        }
      ],
      "payable": false,
      "stateMutability": "view",
      "type": "function"
    }
  ],
  "bytecode": "0x60806040526000602460006101000a81548160ff021916908360038111156200002457fe5b0217905550604051620030c0380380620030c083398181016040526101008110156200004f57600080fd5b8101908080519060200190929190805160405193929190846401000000008211156200007a57600080fd5b838201915060208201858111156200009157600080fd5b8251866001820283011164010000000082111715620000af57600080fd5b8083526020830192505050908051906020019080838360005b83811015620000e5578082015181840152602081019050620000c8565b50505050905090810190601f168015620001135780820380516001836020036101000a031916815260200191505b50604052602001805160405193929190846401000000008211156200013757600080fd5b838201915060208201858111156200014e57600080fd5b82518660018202830111640100000000821117156200016c57600080fd5b8083526020830192505050908051906020019080838360005b83811015620001a257808201518184015260208101905062000185565b50505050905090810190601f168015620001d05780820380516001836020036101000a031916815260200191505b5060405260200180516040519392919084640100000000821115620001f457600080fd5b838201915060208201858111156200020b57600080fd5b82518660208202830111640100000000821117156200022957600080fd5b8083526020830192505050908051906020019060200280838360005b838110156200026257808201518184015260208101905062000245565b50505050905001604052602001805190602001909291908051906020019092919080516040519392919084640100000000821115620002a057600080fd5b83820191506020820185811115620002b757600080fd5b8251866020820283011164010000000082111715620002d557600080fd5b8083526020830192505050908051906020019060200280838360005b838110156200030e578082015181840152602081019050620002f1565b505050509050016040526020018051906020019092919050505080600960006101000a81548173ffffffffffffffffffffffffffffffffffffffff021916908373ffffffffffffffffffffffffffffffffffffffff160217905550876000806101000a81548173ffffffffffffffffffffffffffffffffffffffff021916908373ffffffffffffffffffffffffffffffffffffffff1602179055508660019080519060200190620003c19291906200058c565b508560029080519060200190620003da9291906200058c565b508460039080519060200190620003f392919062000613565b506000600481905550836005819055508260068190555081600790805190602001906200042292919062000665565b506017600960146101000a81548161ffff021916908361ffff16021790555060008090505b8551811015620004f257604051806040016040528060008152602001600073ffffffffffffffffffffffffffffffffffffffff16815250600c82600481106200048c57fe5b600202016000820151816000015560208201518160010160006101000a81548173ffffffffffffffffffffffffffffffffffffffff021916908373ffffffffffffffffffffffffffffffffffffffff160217905550905050808060010191505062000447565b5060008090505b82518110156200057d576001600a60008584815181106200051657fe5b602002602001015173ffffffffffffffffffffffffffffffffffffffff1673ffffffffffffffffffffffffffffffffffffffff16815260200190815260200160002060006101000a81548160ff0219169083151502179055508080600101915050620004f9565b5050505050505050506200078a565b828054600181600116156101000203166002900490600052602060002090601f016020900481019282601f10620005cf57805160ff191683800117855562000600565b8280016001018555821562000600579182015b82811115620005ff578251825591602001919060010190620005e2565b5b5090506200060f9190620006f4565b5090565b82805482825590600052602060002090810192821562000652579160200282015b828111156200065157825182559160200191906001019062000634565b5b5090506200066191906200071c565b5090565b828054828255906000526020600020908101928215620006e1579160200282015b82811115620006e05782518260006101000a81548173ffffffffffffffffffffffffffffffffffffffff021916908373ffffffffffffffffffffffffffffffffffffffff1602179055509160200191906001019062000686565b5b509050620006f0919062000744565b5090565b6200071991905b8082111562000715576000816000905550600101620006fb565b5090565b90565b6200074191905b808211156200073d57600081600090555060010162000723565b5090565b90565b6200078791905b808211156200078357600081816101000a81549073ffffffffffffffffffffffffffffffffffffffff0219169055506001016200074b565b5090565b90565b612926806200079a6000396000f3fe6080604052600436106101cd5760003560e01c8063722713f7116100f7578063a832317611610095578063cc7e621011610064578063cc7e621014610a43578063d3901fb514610a92578063f462f8af14610ac1578063fbcc1e7114610b05576101cd565b8063a8323176146108e8578063bc0da8d3146108ff578063bfb0b6081461096b578063cc2ee196146109d7576101cd565b806376bb984b116100d157806376bb984b1461077e578063894c3b1f1461079557806395e56a8414610801578063a6430cc01461086d576101cd565b8063722713f7146106485780637284e41614610673578063729ecb0714610703576101cd565b8063409e22051161016f5780634bc263b91161013e5780634bc263b914610531578063516dde43146105a15780636f0f9f5e146105cc5780636f36ec2314610602576101cd565b8063409e2205146103c6578063459d6e4f14610415578063465be85f146104405780634852aa6d146104ac576101cd565b8063288fa802116101ab578063288fa802146102b45780632c135b93146103205780632d9781631461034b57806338a481de14610384576101cd565b806306fdde03146101d2578063217a01c9146102625780632810e1d61461029d575b600080fd5b3480156101de57600080fd5b506101e7610b5c565b6040518080602001828103825283818151815260200191508051906020019080838360005b8381101561022757808201518184015260208101905061020c565b50505050905090810190601f1680156102545780820380516001836020036101000a031916815260200191505b509250505060405180910390f35b34801561026e57600080fd5b5061029b6004803603602081101561028557600080fd5b8101908080359060200190929190505050610bfa565b005b3480156102a957600080fd5b506102b2610d8c565b005b3480156102c057600080fd5b506102c9610db4565b6040518080602001828103825283818151815260200191508051906020019060200280838360005b8381101561030c5780820151818401526020810190506102f1565b505050509050019250505060405180910390f35b34801561032c57600080fd5b50610335610e44565b6040518082815260200191505060405180910390f35b34801561035757600080fd5b50610360610e4a565b6040518082600381111561037057fe5b60ff16815260200191505060405180910390f35b6103b06004803603602081101561039a57600080fd5b8101908080359060200190929190505050610e5d565b6040518082815260200191505060405180910390f35b3480156103d257600080fd5b506103ff600480360360208110156103e957600080fd5b8101908080359060200190929190505050610fd1565b6040518082815260200191505060405180910390f35b34801561042157600080fd5b5061042a610ff2565b6040518082815260200191505060405180910390f35b34801561044c57600080fd5b50610455610ff8565b6040518080602001828103825283818151815260200191508051906020019060200280838360005b8381101561049857808201518184015260208101905061047d565b505050509050019250505060405180910390f35b3480156104b857600080fd5b506104ef600480360360408110156104cf57600080fd5b810190808035906020019092919080359060200190929190505050611086565b604051808273ffffffffffffffffffffffffffffffffffffffff1673ffffffffffffffffffffffffffffffffffffffff16815260200191505060405180910390f35b34801561053d57600080fd5b506105806004803603602081101561055457600080fd5b81019080803573ffffffffffffffffffffffffffffffffffffffff1690602001909291905050506110d1565b60405180831515151581526020018281526020019250505060405180910390f35b3480156105ad57600080fd5b506105b6611102565b6040518082815260200191505060405180910390f35b3480156105d857600080fd5b506105e1611108565b60405180831515151581526020018281526020019250505060405180910390f35b61062e6004803603602081101561061857600080fd5b810190808035906020019092919050505061119a565b604051808215151515815260200191505060405180910390f35b34801561065457600080fd5b5061065d6116c3565b6040518082815260200191505060405180910390f35b34801561067f57600080fd5b506106886116cb565b6040518080602001828103825283818151815260200191508051906020019080838360005b838110156106c85780820151818401526020810190506106ad565b50505050905090810190601f1680156106f55780820380516001836020036101000a031916815260200191505b509250505060405180910390f35b34801561070f57600080fd5b5061073c6004803603602081101561072657600080fd5b8101908080359060200190929190505050611769565b604051808273ffffffffffffffffffffffffffffffffffffffff1673ffffffffffffffffffffffffffffffffffffffff16815260200191505060405180910390f35b34801561078a57600080fd5b506107936117a5565b005b3480156107a157600080fd5b506107aa611fab565b6040518080602001828103825283818151815260200191508051906020019060200280838360005b838110156107ed5780820151818401526020810190506107d2565b505050509050019250505060405180910390f35b34801561080d57600080fd5b50610816612039565b6040518080602001828103825283818151815260200191508051906020019060200280838360005b8381101561085957808201518184015260208101905061083e565b505050509050019250505060405180910390f35b34801561087957600080fd5b506108a66004803603602081101561089057600080fd5b81019080803590602001909291905050506120c3565b604051808273ffffffffffffffffffffffffffffffffffffffff1673ffffffffffffffffffffffffffffffffffffffff16815260200191505060405180910390f35b3480156108f457600080fd5b506108fd6120ff565b005b34801561090b57600080fd5b5061091461212d565b6040518080602001828103825283818151815260200191508051906020019060200280838360005b8381101561095757808201518184015260208101905061093c565b505050509050019250505060405180910390f35b34801561097757600080fd5b506109806121b7565b6040518080602001828103825283818151815260200191508051906020019060200280838360005b838110156109c35780820151818401526020810190506109a8565b505050509050019250505060405180910390f35b3480156109e357600080fd5b506109ec612241565b6040518080602001828103825283818151815260200191508051906020019060200280838360005b83811015610a2f578082015181840152602081019050610a14565b505050509050019250505060405180910390f35b348015610a4f57600080fd5b50610a7c60048036036020811015610a6657600080fd5b8101908080359060200190929190505050612299565b6040518082815260200191505060405180910390f35b348015610a9e57600080fd5b50610aa76122b1565b604051808215151515815260200191505060405180910390f35b610b0360048036036020811015610ad757600080fd5b81019080803573ffffffffffffffffffffffffffffffffffffffff169060200190929190505050612351565b005b348015610b1157600080fd5b50610b1a6123a3565b604051808273ffffffffffffffffffffffffffffffffffffffff1673ffffffffffffffffffffffffffffffffffffffff16815260200191505060405180910390f35b60018054600181600116156101000203166002900480601f016020809104026020016040519081016040528092919081815260200182805460018160011615610100020316600290048015610bf25780601f10610bc757610100808354040283529160200191610bf2565b820191906000526020600020905b815481529060010190602001808311610bd557829003601f168201915b505050505081565b60001515602160003373ffffffffffffffffffffffffffffffffffffffff1673ffffffffffffffffffffffffffffffffffffffff16815260200190815260200160002060000160009054906101000a900460ff16151514610c5a57600080fd5b610c626122b1565b610c6b57600080fd5b604051806040016040528060011515815260200182815250602160003373ffffffffffffffffffffffffffffffffffffffff1673ffffffffffffffffffffffffffffffffffffffff16815260200190815260200160002060008201518160000160006101000a81548160ff02191690831515021790555060208201518160010155905050602260008281526020019081526020016000203390806001815401808255809150509060018203906000526020600020016000909192909190916101000a81548173ffffffffffffffffffffffffffffffffffffffff021916908373ffffffffffffffffffffffffffffffffffffffff16021790555050602360008281526020019081526020016000206000815480929190600101919050555050565b600080610d97611108565b9150915081610daf57610da981610e5d565b50610db0565b5b5050565b6060600060049050606081604051908082528060200260200182016040528015610ded5781602001602082028038833980820191505090505b50905060008090505b82811015610e3b57600c8160048110610e0b57fe5b600202016000015460001b828281518110610e2257fe5b6020026020010181815250508080600101915050610df6565b50809250505090565b60045481565b602460009054906101000a900460ff1681565b600080600960009054906101000a900473ffffffffffffffffffffffffffffffffffffffff169050600080905060008090505b602080549050811015610fc65760008090505b60208281548110610eb057fe5b9060005260206000209050506004811015610fb857600073ffffffffffffffffffffffffffffffffffffffff1660208381548110610eea57fe5b90600052602060002090600402016000018260048110610f0657fe5b0160009054906101000a900473ffffffffffffffffffffffffffffffffffffffff1673ffffffffffffffffffffffffffffffffffffffff1614610fab57600a8301925085811415610fa957610fa460208381548110610f6157fe5b90600052602060002090600402016000018260048110610f7d57fe5b0160009054906101000a900473ffffffffffffffffffffffffffffffffffffffff16612351565b610faa565b5b5b8080600101915050610ea3565b508080600101915050610e90565b508092505050919050565b60038181548110610fde57fe5b906000526020600020016000915090505481565b60055481565b6060600880548060200260200160405190810160405280929190818152602001828054801561107c57602002820191906000526020600020905b8160009054906101000a900473ffffffffffffffffffffffffffffffffffffffff1673ffffffffffffffffffffffffffffffffffffffff1681526020019060010190808311611032575b5050505050905090565b6022602052816000526040600020818154811061109f57fe5b906000526020600020016000915091509054906101000a900473ffffffffffffffffffffffffffffffffffffffff1681565b60216020528060005260406000206000915090508060000160009054906101000a900460ff16908060010154905082565b60065481565b60008060008090506000806000905060008090505b60038054905081101561118c576000602360006003848154811061113d57fe5b9060005260206000200154815260200190815260200160002054905084811115611170578094506000925081935061117e565b8481141561117d57600192505b5b50808060010191505061111d565b508082945094505050509091565b6000600a60003373ffffffffffffffffffffffffffffffffffffffff1673ffffffffffffffffffffffffffffffffffffffff16815260200190815260200160002060009054906101000a900460ff16156111f357600080fd5b6000349050670de0b6b3a7640000341061120c57600080fd5b80600c846004811061121a57fe5b60020201600001541061122c57600080fd5b6000600960009054906101000a900473ffffffffffffffffffffffffffffffffffffffff16905060008173ffffffffffffffffffffffffffffffffffffffff16636215a16e336040518263ffffffff1660e01b8152600401808273ffffffffffffffffffffffffffffffffffffffff1673ffffffffffffffffffffffffffffffffffffffff16815260200191505060206040518083038186803b1580156112d257600080fd5b505afa1580156112e6573d6000803e3d6000fd5b505050506040513d60208110156112fc57600080fd5b810190808051906020019092919050505090508061131957600080fd5b600c856004811061132657fe5b6002020160010160009054906101000a900473ffffffffffffffffffffffffffffffffffffffff1673ffffffffffffffffffffffffffffffffffffffff166108fc600c876004811061137457fe5b60020201600001549081150290604051600060405180830381858888f193505050501580156113a7573d6000803e3d6000fd5b506000670de0b6b3a764000090506113bd6126f8565b60008090505b60048110156114725787811461146557600c81600481106113e057fe5b600202016000015483039250600c81600481106113f957fe5b6002020160010160009054906101000a900473ffffffffffffffffffffffffffffffffffffffff1682826004811061142d57fe5b602002019073ffffffffffffffffffffffffffffffffffffffff16908173ffffffffffffffffffffffffffffffffffffffff16815250505b80806001019150506113c3565b5084821161161c573381886004811061148757fe5b602002019073ffffffffffffffffffffffffffffffffffffffff16908173ffffffffffffffffffffffffffffffffffffffff16815250506114c661271a565b60405180602001604052808381525090506020819080600181540180825580915050906001820390600052602060002090600402016000909192909190915060008201518160000190600461151c929190612733565b5050505060008090505b6004811015611584578881141561154f57836014826004811061154557fe5b0181905550611577565b600c816004811061155c57fe5b60020201600001546014826004811061157157fe5b01819055505b8080600101915050611526565b503373ffffffffffffffffffffffffffffffffffffffff166108fc8488039081150290604051600060405180830381858888f193505050501580156115cd573d6000803e3d6000fd5b506115d66123c8565b60008090505b600481101561160c576000600c82600481106115f457fe5b600202016000018190555080806001019150506115dc565b50600196505050505050506116be565b6116246127b0565b60405180604001604052808781526020013373ffffffffffffffffffffffffffffffffffffffff16815250905080600c896004811061165f57fe5b600202016000820151816000015560208201518160010160006101000a81548173ffffffffffffffffffffffffffffffffffffffff021916908373ffffffffffffffffffffffffffffffffffffffff1602179055509050505050505050505b919050565b600047905090565b60028054600181600116156101000203166002900480601f0160208091040260200160405190810160405280929190818152602001828054600181600116156101000203166002900480156117615780601f1061173657610100808354040283529160200191611761565b820191906000526020600020905b81548152906001019060200180831161174457829003601f168201915b505050505081565b6008818154811061177657fe5b906000526020600020016000915054906101000a900473ffffffffffffffffffffffffffffffffffffffff1681565b6000600960009054906101000a900473ffffffffffffffffffffffffffffffffffffffff16905060608173ffffffffffffffffffffffffffffffffffffffff1663c9e519e86040518163ffffffff1660e01b815260040160006040518083038186803b15801561181457600080fd5b505afa158015611828573d6000803e3d6000fd5b505050506040513d6000823e3d601f19601f82011682018060405250602081101561185257600080fd5b810190808051604051939291908464010000000082111561187257600080fd5b8382019150602082018581111561188857600080fd5b82518660208202830111640100000000821117156118a557600080fd5b8083526020830192505050908051906020019060200280838360005b838110156118dc5780820151818401526020810190506118c1565b505050509050016040525050509050600560078054905082510311611aef57600060078054905082510390506060816040519080825280602002602001820160405280156119395781602001602082028038833980820191505090505b509050600080905060008090505b8451811015611acd57600085828151811061195e57fe5b60200260200101519050600a60008273ffffffffffffffffffffffffffffffffffffffff1673ffffffffffffffffffffffffffffffffffffffff16815260200190815260200160002060009054906101000a900460ff1680611a0c57506000809054906101000a900473ffffffffffffffffffffffffffffffffffffffff1673ffffffffffffffffffffffffffffffffffffffff168173ffffffffffffffffffffffffffffffffffffffff16145b15611a175750611ac0565b6001600b60008373ffffffffffffffffffffffffffffffffffffffff1673ffffffffffffffffffffffffffffffffffffffff16815260200190815260200160002060006101000a81548160ff02191690831515021790555080848481518110611a7c57fe5b602002602001019073ffffffffffffffffffffffffffffffffffffffff16908173ffffffffffffffffffffffffffffffffffffffff16815250508280600101935050505b8080600101915050611947565b508160089080519060200190611ae49291906127e0565b505050505050611fa9565b6060600a825102604051908082528060200260200182016040528015611b245781602001602082028038833980820191505090505b509050600080905060008090505b8351811015611d68576000848281518110611b4957fe5b60200260200101519050600a60008273ffffffffffffffffffffffffffffffffffffffff1673ffffffffffffffffffffffffffffffffffffffff16815260200190815260200160002060009054906101000a900460ff1680611bf757506000809054906101000a900473ffffffffffffffffffffffffffffffffffffffff1673ffffffffffffffffffffffffffffffffffffffff168173ffffffffffffffffffffffffffffffffffffffff16145b15611c025750611d5b565b60008673ffffffffffffffffffffffffffffffffffffffff166351d0ea37836040518263ffffffff1660e01b8152600401808273ffffffffffffffffffffffffffffffffffffffff1673ffffffffffffffffffffffffffffffffffffffff16815260200191505060606040518083038186803b158015611c8157600080fd5b505afa158015611c95573d6000803e3d6000fd5b505050506040513d6060811015611cab57600080fd5b81019080805190602001909291908051906020019092919080519060200190929190505050509150506000600a60ff168260ff1681611ce657fe5b04905060008090505b8160ff16811015611d565783878781518110611d0757fe5b602002602001019073ffffffffffffffffffffffffffffffffffffffff16908173ffffffffffffffffffffffffffffffffffffffff168152505085806001019650508080600101915050611cef565b505050505b8080600101915050611b32565b5060606005604051908082528060200260200182016040528015611d9b5781602001602082028038833980820191505090505b50905060008090505b6005811015611f8b576000834233600960149054906101000a900461ffff16604051602001808481526020018373ffffffffffffffffffffffffffffffffffffffff1673ffffffffffffffffffffffffffffffffffffffff1660601b81526014018261ffff1661ffff1660f01b815260020193505050506040516020818303038152906040528051906020012060001c81611e3b57fe5b0690506009601481819054906101000a900461ffff168092919060010191906101000a81548161ffff021916908361ffff160217905550506000858281518110611e8157fe5b60200260200101519050600b60008273ffffffffffffffffffffffffffffffffffffffff1673ffffffffffffffffffffffffffffffffffffffff16815260200190815260200160002060009054906101000a900460ff16611f84576001600b60008373ffffffffffffffffffffffffffffffffffffffff1673ffffffffffffffffffffffffffffffffffffffff16815260200190815260200160002060006101000a81548160ff02191690831515021790555080848481518110611f4157fe5b602002602001019073ffffffffffffffffffffffffffffffffffffffff16908173ffffffffffffffffffffffffffffffffffffffff168152505082806001019350505b5050611da4565b8160089080519060200190611fa19291906127e0565b505050505050505b565b6060600780548060200260200160405190810160405280929190818152602001828054801561202f57602002820191906000526020600020905b8160009054906101000a900473ffffffffffffffffffffffffffffffffffffffff1673ffffffffffffffffffffffffffffffffffffffff1681526020019060010190808311611fe5575b5050505050905090565b60606000600490506060816040519080825280602002602001820160405280156120725781602001602082028038833980820191505090505b50905060008090505b828110156120ba576014816004811061209057fe5b015460001b8282815181106120a157fe5b602002602001018181525050808060010191505061207b565b50809250505090565b600781815481106120d057fe5b906000526020600020016000915054906101000a900473ffffffffffffffffffffffffffffffffffffffff1681565b6002602460006101000a81548160ff0219169083600381111561211e57fe5b021790555061212b6117a5565b565b60606000600490506060816040519080825280602002602001820160405280156121665781602001602082028038833980820191505090505b50905060008090505b828110156121ae57601c816004811061218457fe5b015460001b82828151811061219557fe5b602002602001018181525050808060010191505061216f565b50809250505090565b60606000600490506060816040519080825280602002602001820160405280156121f05781602001602082028038833980820191505090505b50905060008090505b82811015612238576018816004811061220e57fe5b015460001b82828151811061221f57fe5b60200260200101818152505080806001019150506121f9565b50809250505090565b6060600380548060200260200160405190810160405280929190818152602001828054801561228f57602002820191906000526020600020905b81548152602001906001019080831161227b575b5050505050905090565b60236020528060005260406000206000915090505481565b600080600090505b600780549050811015612348573373ffffffffffffffffffffffffffffffffffffffff16600782815481106122ea57fe5b9060005260206000200160009054906101000a900473ffffffffffffffffffffffffffffffffffffffff1673ffffffffffffffffffffffffffffffffffffffff16141561233b57600191505061234e565b80806001019150506122b9565b50600090505b90565b8073ffffffffffffffffffffffffffffffffffffffff166108fc670d99a8cec7e200009081150290604051600060405180830381858888f1935050505015801561239f573d6000803e3d6000fd5b5050565b6000809054906101000a900473ffffffffffffffffffffffffffffffffffffffff1681565b6000600960009054906101000a900473ffffffffffffffffffffffffffffffffffffffff1690506123f761271a565b60206001602080549050038154811061240c57fe5b906000526020600020906004020160405180602001604052908160008201600480602002604051908101604052809291908260048015612497576020028201915b8160009054906101000a900473ffffffffffffffffffffffffffffffffffffffff1673ffffffffffffffffffffffffffffffffffffffff168152602001906001019080831161244d575b505050505081525050905060008090505b60048110156126f3576000826000015182600481106124c357fe5b60200201519050600073ffffffffffffffffffffffffffffffffffffffff168173ffffffffffffffffffffffffffffffffffffffff16146126e55761250661286a565b8473ffffffffffffffffffffffffffffffffffffffff16633d59f85b836040518263ffffffff1660e01b8152600401808273ffffffffffffffffffffffffffffffffffffffff1673ffffffffffffffffffffffffffffffffffffffff168152602001915050604080518083038186803b15801561258257600080fd5b505afa158015612596573d6000803e3d6000fd5b505050506040513d601f19601f8201168201806040525060408110156125bb57600080fd5b810190809190505090507f405f4ccba46549b1dbd2e5bfbf7248e032b3b50a1a6d65140c30c83a176d192e8282604051808373ffffffffffffffffffffffffffffffffffffffff1673ffffffffffffffffffffffffffffffffffffffff16815260200182600260200280838360005b8381101561264557808201518184015260208101905061262a565b505050509050019250505060405180910390a16014836004811061266557fe5b01548160006002811061267457fe5b6020020151026018846004811061268757fe5b0154016018846004811061269757fe5b0181905550601483600481106126a957fe5b0154600103816001600281106126bb57fe5b602002015102601c84600481106126ce57fe5b015401601c84600481106126de57fe5b0181905550505b5080806001019150506124a8565b505050565b6040518060800160405280600490602082028038833980820191505090505090565b604051806020016040528061272d61288c565b81525090565b826004810192821561279f579160200282015b8281111561279e5782518260006101000a81548173ffffffffffffffffffffffffffffffffffffffff021916908373ffffffffffffffffffffffffffffffffffffffff16021790555091602001919060010190612746565b5b5090506127ac91906128ae565b5090565b604051806040016040528060008152602001600073ffffffffffffffffffffffffffffffffffffffff1681525090565b828054828255906000526020600020908101928215612859579160200282015b828111156128585782518260006101000a81548173ffffffffffffffffffffffffffffffffffffffff021916908373ffffffffffffffffffffffffffffffffffffffff16021790555091602001919060010190612800565b5b50905061286691906128ae565b5090565b6040518060400160405280600290602082028038833980820191505090505090565b6040518060800160405280600490602082028038833980820191505090505090565b6128ee91905b808211156128ea57600081816101000a81549073ffffffffffffffffffffffffffffffffffffffff0219169055506001016128b4565b5090565b9056fea265627a7a7231582067640057c90ae6c4616057181bf30da2cb452a94ead4b4c58a661f1aa9e89fec64736f6c63430005100032",
  "source": "// SPDX-License-Identifier: MIT\npragma solidity >=0.4.21 <=0.7.0;\nimport \"./PredictionMarket.sol\";\n// import \"github.com/OpenZeppelin/zeppelin-solidity/contracts/math/SafeMath.sol\";\n\ncontract Topic {\n  // Public attirbutes\n  address payable public topicCreator;\n  string public name;\n  string public description;\n  bytes32[] public options;\n  uint public marketCap;\n  uint public creatorBond;\n  uint256 public expiryDate;\n  address payable[] public arbitrators;\n  address payable[] public jury;\n\n  // Private attributes\n  address parentContract;\n  uint16 nonce;\n\n  // Mapping for easier checking of address having been assigned a role\n  mapping(address => bool) arbitratorAssigned;\n  mapping(address => bool) juryAssigned;\n\n  // Pending votes\n  voteStruct[4] pendingVotes;\n  struct voteStruct {\n    uint price; \n    address payable voter;\n  }\n\n  // Last Traded Prices\n  uint[4] lastTradedPrices;\n\n  // weighted votes\n  uint[4] winScores;\n  uint[4] loseScores;\n\n  // Successful trades\n  trade[] confirmedTrades;\n  struct trade {\n    address payable[4] shareOwners;\n  }\n\n  struct ArbitratorVote {\n        bool hasVoted;\n        bytes32 votedOption;\n  }\n\n  mapping (address => ArbitratorVote) public arbVotes;\n  mapping (bytes32 => address[]) public arbitratorsVotes;\n  mapping (bytes32 => uint) public countofArbVotes;\n\n  // State of contract\n  // 0 => Open, 1 => Arbitrator Voting, 2 => Jury Voting, 3 => Resolved / closed\n  enum Phase { Open, Verification, Jury, Resolved }\n  Phase public contractPhase = Phase.Open;\n\n  // FIXME: Ignore linter warning about visibility modifier being ignored. \n  // It is required for successful compilation\n  constructor (\n      address payable _creator, string memory _name, string memory _description, bytes32[] memory _options, \n      uint _bondValue, uint256 _expiryDate, address payable[] memory _arbitrators, address _predictionMarket\n    ) public payable {\n        parentContract = _predictionMarket;\n        topicCreator = _creator;\n        name = _name;\n        description = _description;\n        options = _options;\n        marketCap = 0;\n        creatorBond = _bondValue;\n        expiryDate = _expiryDate;\n        arbitrators = _arbitrators;\n\n        nonce = 23; // FIXME: Random number for the nonce\n\n        // init pending votes\n        for (uint i = 0; i < _options.length; i++) {\n          pendingVotes[i] = voteStruct(0, address(0));\n        }\n\n        for (uint j = 0; j < _arbitrators.length; j++) {\n          arbitratorAssigned[_arbitrators[j]] = true;\n        }\n    }\n\n// TODO: TEST CASES\n  function updateWeightedVotes() private {\n    PredictionMarket pm = PredictionMarket(parentContract);\n    trade memory lastTrade = confirmedTrades[confirmedTrades.length - 1];\n    for(uint i=0; i<4; i++){\n      address voterAddress = lastTrade.shareOwners[i]; \n      \n      if(voterAddress != address(0x0000000000000000000000000000000000000000)){\n        // getVotersReputation only accepts a valid voterAddress. \n        uint[2] memory winLose = pm.getVotersReputation(voterAddress);   \n        emit UpdateWeightedVotes(voterAddress, winLose);\n        winScores[i] = winScores[i] + (winLose[0] * lastTradedPrices[i]);\n        loseScores[i] = loseScores[i] + (winLose[1] * (1 - lastTradedPrices[i]));\n      }\n    }\n  }\n     \n  function voteOption(uint option) public payable returns(bool){\n    require(!arbitratorAssigned[msg.sender]);\n\n    uint amount = msg.value;\n    require(msg.value < 1 ether);\n    // Reject the vote if it is lower than the last available vote\n    require(pendingVotes[option].price <  amount);\n\n    // Check if the voter is valid\n    PredictionMarket pm = PredictionMarket(parentContract);\n    bool validTrader = pm.checkValidTrader(msg.sender);\n    require(validTrader);\n\n    // If the vote is higher than the last available price, send money back to the previous voter\n    pendingVotes[option].voter.transfer(pendingVotes[option].price);\n\n    // Balance to decide if the vote goes through\n    uint balance = 1 ether; \n\n    // Entry to insert into the confirmed trades if vote goes through\n    address payable[4] memory tempTrade;\n\n    for(uint i=0; i< 4; i++){\n      if(i != option){\n        balance = balance - pendingVotes[i].price; \n        tempTrade[i] = pendingVotes[i].voter;\n      }\n    }\n    \n    // If vote can go through\n    if(balance <= amount){\n      \n      // 1) Confirm the trade by putting it into trade confirmed\n      tempTrade[option] = msg.sender;\n      trade memory tradeConfirmed = trade(tempTrade);\n      confirmedTrades.push(tradeConfirmed);\n      \n      // 2) Update the lastTradedPrices\n      for(uint i=0; i< 4; i++){\n        if(i == option){\n          lastTradedPrices[i] = balance;\n        }\n        else{\n          lastTradedPrices[i]= pendingVotes[i].price;\n        }\n      }\n      \n\n      // 3) Send the remaining money back to the sender\n      msg.sender.transfer(amount - balance);\n\n      // 4) Update the weighted votes according to the last trade\n      updateWeightedVotes();\n\n      // 5) Reset the pending votes instance\n      for(uint i =0; i< 4; i++){\n        pendingVotes[i].price =0; \n      }\n      return true;\n    }\n\n    // If vote cannot go through\n    else {\n      // Update the pending votes\n      voteStruct memory tempVote = voteStruct(amount, msg.sender); \n      pendingVotes[option] = tempVote;\n    }\n  }\n\n  function addArbitratorVote(bytes32 _option) public {\n    require(arbVotes[msg.sender].hasVoted == false); //no double voting\n    require(checkIfSelectedArbitrator());\n    arbVotes[msg.sender] = ArbitratorVote(true, _option);\n    arbitratorsVotes[_option].push(msg.sender);\n    countofArbVotes[_option]++;\n  }\n\n  function checkIfSelectedArbitrator() public view returns (bool) {\n    for (uint i = 0; i < arbitrators.length; i++){\n      if(arbitrators[i] == msg.sender) return true;\n    }\n    return false;\n  }\n\n  /*\n  resolve() will be called after all selected arbitrators have voted for the truth\n  TODO: figure out how to make last arbitrator call resolve function and are we going to charge gas fees to last arbitrator? \n  */\n  function resolve() public {\n    // if(contractPhase == Phase.Jury){ \n    //   resolveWithTie();\n    // }\n    \n    (bool hasTie, uint winIndex) = getArbitratorVerdict();\n    if (!hasTie) {\n      resolveWithoutTie(winIndex);\n    } else {\n      //resolveWithTie();\n      //get jury verdict, ie. count their votes --> TODO: write function for this, similar to getArbitratorVerdict()\n      //resolveWithoutTie(); \n    }\n  }\n\n  function getArbitratorVerdict() public view returns (bool,uint){\n    uint largest = 0;\n    uint winningOption;\n    bool hasTie = false;\n    for (uint i =0; i < options.length; i++){\n      uint temp = countofArbVotes[options[i]];\n      if (temp > largest){\n        largest = temp;\n        hasTie = false;\n        winningOption = i;\n      } else if (temp == largest){\n        hasTie = true;\n      }\n    }\n    return (hasTie, winningOption);\n  }\n\n  function resolveWithoutTie(uint winIndex) public payable returns(uint) {\n    PredictionMarket marketInstance = PredictionMarket(parentContract);\n    uint temp = 0;\n    for(uint i = 0; i<confirmedTrades.length; i++){\n      for(uint j = 0; j<confirmedTrades[i].shareOwners.length; j++){\n        if (confirmedTrades[i].shareOwners[j] != address(uint160(0x0))){\n          temp = temp + 10;\n          if(j == winIndex){\n            // marketInstance.updateWinScore(address(uint160(confirmedTrades[i].shareOwners[j])));\n          payoutToWinners(confirmedTrades[i].shareOwners[j]); \n          } else {\n            // marketInstance.updateLoseScore(confirmedTrades[i].shareOwners[j]);\n          }\n        }\n      }\n    }\n    return temp;\n  }\n\n  function payoutToWinners(address payable winner) public payable {\n    winner.transfer(0.98 ether);\n  }\n \n  function resolveWithTie() public {\n    contractPhase = Phase.Jury;\n    selectJury();\n  }\n\n  function selectJury() public {\n    PredictionMarket marketInstance = PredictionMarket(parentContract);\n    address payable[] memory allArbitrators = marketInstance.getAllArbitrators();\n\n    // If there are less than 5 remaining arbitrators, select all of them as jury\n    // Topic creator is excluded from selection as well\n    if (allArbitrators.length - arbitrators.length <= 5) {\n      uint diff = allArbitrators.length - arbitrators.length;\n      address payable[] memory remainingArbitrators = new address payable[](diff);\n      uint ptr = 0;\n      for (uint k = 0; k < allArbitrators.length; k++) {\n        address payable arb = allArbitrators[k];\n        if (arbitratorAssigned[arb] || arb == topicCreator) {\n          continue;\n        }\n        juryAssigned[arb] = true;\n        remainingArbitrators[ptr] = arb;\n        ptr++;\n      }\n      // If less than diff arbitrators are selected (i.e. one of the remaining is the topic creator)\n      // last address will be address(0)\n      jury = remainingArbitrators;\n      return;\n    }\n\n    // Else, create ballot where number of chances is proportional to the arbitrator's trustworthiness\n    address payable[] memory ballot = new address payable[](allArbitrators.length * 10); // Max length is when all arbitrators are at 100 score\n    uint ballotPointer = 0;\n\n    for (uint i = 0; i < allArbitrators.length; i++) {\n      address payable arbitrator = allArbitrators[i];\n      if (arbitratorAssigned[arbitrator] || arbitrator == topicCreator) {\n        continue;\n      }\n      (,uint8 trustworthiness,) = marketInstance.arbitrators(arbitrator); // Access trustworthiness score of struct\n      uint8 chance = trustworthiness / uint8(10);\n      for (uint j = 0; j < chance; j++) {\n        ballot[ballotPointer] = arbitrator;\n        ballotPointer++;\n      }\n    }\n\n    // Select random jury from the ballot\n    // Rechoose if address is already selected in the jury\n    address payable[] memory juryMemory = new address payable[](5);\n    uint juryPointer = 0;\n    while (juryPointer < 5) {\n      uint next = uint(keccak256(abi.encodePacked(block.timestamp, msg.sender, nonce))) % ballotPointer;\n      nonce++;\n      address payable potential = ballot[next];\n      if (!juryAssigned[potential]) {\n        juryAssigned[potential] = true;\n        juryMemory[juryPointer] = potential;\n        juryPointer++;\n      }\n    }\n    jury = juryMemory;\n  }\n\n  // ===================================================\n  // Getters\n  // ===================================================\n\n  function getAllPendingVotePrice() view public returns(bytes32[] memory){\n    uint len = pendingVotes.length;\n    bytes32[] memory bytesArray = new bytes32[](len);\n    for (uint i = 0; i < len; i++) {\n      bytesArray[i] = bytes32(pendingVotes[i].price);\n    }\n    return bytesArray;\n  } \n\n  function getLastTradedPrices() view public returns(bytes32[] memory){\n    uint len = lastTradedPrices.length;\n    bytes32[] memory bytesArray = new bytes32[](len);\n    for (uint i = 0; i < len; i++) {\n      bytesArray[i] = bytes32(lastTradedPrices[i]);\n    }\n    return bytesArray;\n  }\n\n// Function will return an array of 8 elements in total: [win0, lose0, win1, lose1...]\n  function getLoseScores() view public returns(bytes32[] memory){\n    uint len = loseScores.length;\n    bytes32[] memory bytesArray = new bytes32[](len);\n    for (uint i = 0; i < len; i++) {\n      bytesArray[i] = bytes32(loseScores[i]);\n    }\n    return bytesArray;\n  }\n\n  // Function will return an array of 8 elements in total: [win0, lose0, win1, lose1...]\n  function getWinScores() view public returns(bytes32[] memory){\n    uint len = loseScores.length;\n    bytes32[] memory bytesArray = new bytes32[](len);\n    for (uint i = 0; i < len; i++) {\n      bytesArray[i] = bytes32(winScores[i]);\n    }\n    return bytesArray;\n  }\n\n  function balanceOf() external view returns(uint) {\n    return address(this).balance;\n  }\n\n  function getOptions() public view returns (bytes32[] memory) {\n    return options;\n  }\n\n  function getArbitrators() public view returns (address payable[] memory) {\n    return arbitrators;\n  }\n\n  function getJury() public view returns (address payable[] memory) {\n    return jury;\n  }\n\n  // ===================================================\n  // For testing purposes\n  // ===================================================\n  event UpdateWeightedVotes(address add, uint[2] beforeUpdate);\n}\n",
  "sourcePath": "/Users/collinlim/Desktop/Desktop.nosync/School/CZ4153/Project/Decentralised_Prediction_Market/contracts/Topic.sol",
  "compiler": {
    "name": "solc",
    "version": "0.5.16+commit.9c3226ce.Emscripten.clang"
  },
  "schemaVersion": "3.2.5",
  "updatedAt": "2020-10-25T04:51:58.498Z",
  "networkType": "ethereum",
  "devdoc": {
    "methods": {}
  },
  "userdoc": {
    "methods": {}
  }
}