{
  "contractName": "Topic",
  "abi": [
    {
      "inputs": [
        {
          "internalType": "address payable",
          "name": "_creator",
          "type": "address"
        },
        {
          "internalType": "string",
          "name": "_name",
          "type": "string"
        },
        {
          "internalType": "string",
          "name": "_description",
          "type": "string"
        },
        {
          "internalType": "bytes32[]",
          "name": "_options",
          "type": "bytes32[]"
        },
        {
          "internalType": "uint256",
          "name": "_bondValue",
          "type": "uint256"
        },
        {
          "internalType": "uint256",
          "name": "_expiryDate",
          "type": "uint256"
        },
        {
          "internalType": "address payable[]",
          "name": "_arbitrators",
          "type": "address[]"
        },
        {
          "internalType": "address",
          "name": "_predictionMarket",
          "type": "address"
        }
      ],
      "payable": true,
      "stateMutability": "payable",
      "type": "constructor"
    },
    {
      "anonymous": false,
      "inputs": [
        {
          "indexed": false,
          "internalType": "string",
          "name": "source",
          "type": "string"
        }
      ],
      "name": "ResolveCalled",
      "type": "event"
    },
    {
      "anonymous": false,
      "inputs": [
        {
          "indexed": false,
          "internalType": "address",
          "name": "add",
          "type": "address"
        },
        {
          "indexed": false,
          "internalType": "uint256[2]",
          "name": "beforeUpdate",
          "type": "uint256[2]"
        }
      ],
      "name": "UpdateWeightedVotes",
      "type": "event"
    },
    {
      "constant": true,
      "inputs": [
        {
          "internalType": "uint256",
          "name": "",
          "type": "uint256"
        }
      ],
      "name": "arbitrators",
      "outputs": [
        {
          "internalType": "address payable",
          "name": "",
          "type": "address"
        }
      ],
      "payable": false,
      "stateMutability": "view",
      "type": "function"
    },
    {
      "constant": true,
      "inputs": [
        {
          "internalType": "bytes32",
          "name": "",
          "type": "bytes32"
        },
        {
          "internalType": "uint256",
          "name": "",
          "type": "uint256"
        }
      ],
      "name": "arbitratorsVotes",
      "outputs": [
        {
          "internalType": "address",
          "name": "",
          "type": "address"
        }
      ],
      "payable": false,
      "stateMutability": "view",
      "type": "function"
    },
    {
      "constant": true,
      "inputs": [],
      "name": "contractPhase",
      "outputs": [
        {
          "internalType": "enum Topic.Phase",
          "name": "",
          "type": "uint8"
        }
      ],
      "payable": false,
      "stateMutability": "view",
      "type": "function"
    },
    {
      "constant": true,
      "inputs": [
        {
          "internalType": "bytes32",
          "name": "",
          "type": "bytes32"
        }
      ],
      "name": "countofArbVotes",
      "outputs": [
        {
          "internalType": "uint256",
          "name": "",
          "type": "uint256"
        }
      ],
      "payable": false,
      "stateMutability": "view",
      "type": "function"
    },
    {
      "constant": true,
      "inputs": [
        {
          "internalType": "bytes32",
          "name": "",
          "type": "bytes32"
        }
      ],
      "name": "countofJuryVotes",
      "outputs": [
        {
          "internalType": "uint256",
          "name": "",
          "type": "uint256"
        }
      ],
      "payable": false,
      "stateMutability": "view",
      "type": "function"
    },
    {
      "constant": true,
      "inputs": [],
      "name": "creatorBond",
      "outputs": [
        {
          "internalType": "uint256",
          "name": "",
          "type": "uint256"
        }
      ],
      "payable": false,
      "stateMutability": "view",
      "type": "function"
    },
    {
      "constant": true,
      "inputs": [],
      "name": "description",
      "outputs": [
        {
          "internalType": "string",
          "name": "",
          "type": "string"
        }
      ],
      "payable": false,
      "stateMutability": "view",
      "type": "function"
    },
    {
      "constant": true,
      "inputs": [],
      "name": "expiryDate",
      "outputs": [
        {
          "internalType": "uint256",
          "name": "",
          "type": "uint256"
        }
      ],
      "payable": false,
      "stateMutability": "view",
      "type": "function"
    },
    {
      "constant": true,
      "inputs": [
        {
          "internalType": "uint256",
          "name": "",
          "type": "uint256"
        }
      ],
      "name": "jury",
      "outputs": [
        {
          "internalType": "address payable",
          "name": "",
          "type": "address"
        }
      ],
      "payable": false,
      "stateMutability": "view",
      "type": "function"
    },
    {
      "constant": true,
      "inputs": [
        {
          "internalType": "bytes32",
          "name": "",
          "type": "bytes32"
        },
        {
          "internalType": "uint256",
          "name": "",
          "type": "uint256"
        }
      ],
      "name": "jurysVotes",
      "outputs": [
        {
          "internalType": "address",
          "name": "",
          "type": "address"
        }
      ],
      "payable": false,
      "stateMutability": "view",
      "type": "function"
    },
    {
      "constant": true,
      "inputs": [],
      "name": "marketCap",
      "outputs": [
        {
          "internalType": "uint256",
          "name": "",
          "type": "uint256"
        }
      ],
      "payable": false,
      "stateMutability": "view",
      "type": "function"
    },
    {
      "constant": true,
      "inputs": [],
      "name": "name",
      "outputs": [
        {
          "internalType": "string",
          "name": "",
          "type": "string"
        }
      ],
      "payable": false,
      "stateMutability": "view",
      "type": "function"
    },
    {
      "constant": true,
      "inputs": [
        {
          "internalType": "uint256",
          "name": "",
          "type": "uint256"
        }
      ],
      "name": "options",
      "outputs": [
        {
          "internalType": "bytes32",
          "name": "",
          "type": "bytes32"
        }
      ],
      "payable": false,
      "stateMutability": "view",
      "type": "function"
    },
    {
      "constant": true,
      "inputs": [
        {
          "internalType": "address",
          "name": "",
          "type": "address"
        }
      ],
      "name": "selectedArbitrators",
      "outputs": [
        {
          "internalType": "bool",
          "name": "isAssigned",
          "type": "bool"
        },
        {
          "internalType": "bool",
          "name": "hasVoted",
          "type": "bool"
        },
        {
          "internalType": "bytes32",
          "name": "votedOption",
          "type": "bytes32"
        }
      ],
      "payable": false,
      "stateMutability": "view",
      "type": "function"
    },
    {
      "constant": true,
      "inputs": [
        {
          "internalType": "address",
          "name": "",
          "type": "address"
        }
      ],
      "name": "selectedJurys",
      "outputs": [
        {
          "internalType": "bool",
          "name": "isAssigned",
          "type": "bool"
        },
        {
          "internalType": "bool",
          "name": "hasVoted",
          "type": "bool"
        },
        {
          "internalType": "bytes32",
          "name": "votedOption",
          "type": "bytes32"
        }
      ],
      "payable": false,
      "stateMutability": "view",
      "type": "function"
    },
    {
      "constant": true,
      "inputs": [],
      "name": "topicCreator",
      "outputs": [
        {
          "internalType": "address payable",
          "name": "",
          "type": "address"
        }
      ],
      "payable": false,
      "stateMutability": "view",
      "type": "function"
    },
    {
      "constant": true,
      "inputs": [],
      "name": "winningOptionIndex",
      "outputs": [
        {
          "internalType": "uint256",
          "name": "",
          "type": "uint256"
        }
      ],
      "payable": false,
      "stateMutability": "view",
      "type": "function"
    },
    {
      "constant": false,
      "inputs": [
        {
          "internalType": "uint256",
          "name": "option",
          "type": "uint256"
        },
        {
          "internalType": "uint256",
          "name": "timeStamp",
          "type": "uint256"
        }
      ],
      "name": "voteOption",
      "outputs": [
        {
          "internalType": "bool",
          "name": "",
          "type": "bool"
        }
      ],
      "payable": true,
      "stateMutability": "payable",
      "type": "function"
    },
    {
      "constant": false,
      "inputs": [],
      "name": "openPhaseToVerificationPhase",
      "outputs": [],
      "payable": false,
      "stateMutability": "nonpayable",
      "type": "function"
    },
    {
      "constant": false,
      "inputs": [
        {
          "internalType": "bytes32",
          "name": "_option",
          "type": "bytes32"
        },
        {
          "internalType": "uint256",
          "name": "timeStamp",
          "type": "uint256"
        },
        {
          "internalType": "bool",
          "name": "forUnitTest",
          "type": "bool"
        }
      ],
      "name": "addArbitratorVote",
      "outputs": [],
      "payable": false,
      "stateMutability": "nonpayable",
      "type": "function"
    },
    {
      "constant": false,
      "inputs": [
        {
          "internalType": "bytes32",
          "name": "_option",
          "type": "bytes32"
        },
        {
          "internalType": "bool",
          "name": "forUnitTest",
          "type": "bool"
        }
      ],
      "name": "addJuryVote",
      "outputs": [],
      "payable": false,
      "stateMutability": "nonpayable",
      "type": "function"
    },
    {
      "constant": true,
      "inputs": [],
      "name": "checkIfSelectedArbitrator",
      "outputs": [
        {
          "internalType": "bool",
          "name": "",
          "type": "bool"
        }
      ],
      "payable": false,
      "stateMutability": "view",
      "type": "function"
    },
    {
      "constant": true,
      "inputs": [],
      "name": "getArbitratorVerdict",
      "outputs": [
        {
          "internalType": "bool",
          "name": "",
          "type": "bool"
        },
        {
          "internalType": "uint256",
          "name": "",
          "type": "uint256"
        }
      ],
      "payable": false,
      "stateMutability": "view",
      "type": "function"
    },
    {
      "constant": false,
      "inputs": [
        {
          "internalType": "uint256",
          "name": "winIndex",
          "type": "uint256"
        }
      ],
      "name": "updateArbitratorsTrustworthiness",
      "outputs": [],
      "payable": false,
      "stateMutability": "nonpayable",
      "type": "function"
    },
    {
      "constant": false,
      "inputs": [
        {
          "internalType": "uint256",
          "name": "winIndex",
          "type": "uint256"
        },
        {
          "internalType": "bool",
          "name": "forUnitTest",
          "type": "bool"
        }
      ],
      "name": "resolveWithoutTie",
      "outputs": [
        {
          "internalType": "uint256",
          "name": "",
          "type": "uint256"
        }
      ],
      "payable": true,
      "stateMutability": "payable",
      "type": "function"
    },
    {
      "constant": false,
      "inputs": [
        {
          "internalType": "address payable",
          "name": "winner",
          "type": "address"
        }
      ],
      "name": "payoutToWinners",
      "outputs": [],
      "payable": false,
      "stateMutability": "nonpayable",
      "type": "function"
    },
    {
      "constant": false,
      "inputs": [],
      "name": "resolveWithTie",
      "outputs": [],
      "payable": false,
      "stateMutability": "nonpayable",
      "type": "function"
    },
    {
      "constant": true,
      "inputs": [],
      "name": "getAllPendingVotePrice",
      "outputs": [
        {
          "internalType": "bytes32[]",
          "name": "",
          "type": "bytes32[]"
        }
      ],
      "payable": false,
      "stateMutability": "view",
      "type": "function"
    },
    {
      "constant": true,
      "inputs": [],
      "name": "getLastTradedPrices",
      "outputs": [
        {
          "internalType": "bytes32[]",
          "name": "",
          "type": "bytes32[]"
        }
      ],
      "payable": false,
      "stateMutability": "view",
      "type": "function"
    },
    {
      "constant": true,
      "inputs": [],
      "name": "getLoseScores",
      "outputs": [
        {
          "internalType": "bytes32[]",
          "name": "",
          "type": "bytes32[]"
        }
      ],
      "payable": false,
      "stateMutability": "view",
      "type": "function"
    },
    {
      "constant": true,
      "inputs": [],
      "name": "getWinScores",
      "outputs": [
        {
          "internalType": "bytes32[]",
          "name": "",
          "type": "bytes32[]"
        }
      ],
      "payable": false,
      "stateMutability": "view",
      "type": "function"
    },
    {
      "constant": true,
      "inputs": [
        {
          "internalType": "uint256",
          "name": "option",
          "type": "uint256"
        }
      ],
      "name": "getConfirmedTradeAddresses",
      "outputs": [
        {
          "internalType": "address payable[]",
          "name": "",
          "type": "address[]"
        }
      ],
      "payable": false,
      "stateMutability": "view",
      "type": "function"
    },
    {
      "constant": true,
      "inputs": [
        {
          "internalType": "uint256",
          "name": "option",
          "type": "uint256"
        }
      ],
      "name": "getConfirmedTradePrices",
      "outputs": [
        {
          "internalType": "bytes32[]",
          "name": "",
          "type": "bytes32[]"
        }
      ],
      "payable": false,
      "stateMutability": "view",
      "type": "function"
    },
    {
      "constant": true,
      "inputs": [],
      "name": "balanceOf",
      "outputs": [
        {
          "internalType": "uint256",
          "name": "",
          "type": "uint256"
        }
      ],
      "payable": false,
      "stateMutability": "view",
      "type": "function"
    },
    {
      "constant": true,
      "inputs": [],
      "name": "getOptions",
      "outputs": [
        {
          "internalType": "bytes32[]",
          "name": "",
          "type": "bytes32[]"
        }
      ],
      "payable": false,
      "stateMutability": "view",
      "type": "function"
    },
    {
      "constant": true,
      "inputs": [],
      "name": "getArbitrators",
      "outputs": [
        {
          "internalType": "address payable[]",
          "name": "",
          "type": "address[]"
        }
      ],
      "payable": false,
      "stateMutability": "view",
      "type": "function"
    },
    {
      "constant": true,
      "inputs": [],
      "name": "getJury",
      "outputs": [
        {
          "internalType": "address payable[]",
          "name": "",
          "type": "address[]"
        }
      ],
      "payable": false,
      "stateMutability": "view",
      "type": "function"
    },
    {
      "constant": true,
      "inputs": [
        {
          "internalType": "address",
          "name": "arbitratorAddress",
          "type": "address"
        }
      ],
      "name": "hasArbitratorVoted",
      "outputs": [
        {
          "internalType": "bool",
          "name": "",
          "type": "bool"
        }
      ],
      "payable": false,
      "stateMutability": "view",
      "type": "function"
    },
    {
      "constant": true,
      "inputs": [
        {
          "internalType": "address",
          "name": "juryAddress",
          "type": "address"
        }
      ],
      "name": "hasJuryVoted",
      "outputs": [
        {
          "internalType": "bool",
          "name": "",
          "type": "bool"
        }
      ],
      "payable": false,
      "stateMutability": "view",
      "type": "function"
    },
    {
      "constant": true,
      "inputs": [],
      "name": "getNumOfJurySelected",
      "outputs": [
        {
          "internalType": "uint256",
          "name": "",
          "type": "uint256"
        }
      ],
      "payable": false,
      "stateMutability": "view",
      "type": "function"
    },
    {
      "constant": true,
      "inputs": [],
      "name": "getLastConfirmedTradeAddresses",
      "outputs": [
        {
          "internalType": "address",
          "name": "",
          "type": "address"
        },
        {
          "internalType": "address",
          "name": "",
          "type": "address"
        },
        {
          "internalType": "address",
          "name": "",
          "type": "address"
        },
        {
          "internalType": "address",
          "name": "",
          "type": "address"
        }
      ],
      "payable": false,
      "stateMutability": "view",
      "type": "function"
    }
  ],
  "bytecode": "0x6080604052604051620033d0380380620033d083398181016040526101008110156200002a57600080fd5b8151602083018051604051929492938301929190846401000000008211156200005257600080fd5b9083019060208201858111156200006857600080fd5b82516401000000008111828201881017156200008357600080fd5b82525081516020918201929091019080838360005b83811015620000b257818101518382015260200162000098565b50505050905090810190601f168015620000e05780820380516001836020036101000a031916815260200191505b50604052602001805160405193929190846401000000008211156200010457600080fd5b9083019060208201858111156200011a57600080fd5b82516401000000008111828201881017156200013557600080fd5b82525081516020918201929091019080838360005b83811015620001645781810151838201526020016200014a565b50505050905090810190601f168015620001925780820380516001836020036101000a031916815260200191505b5060405260200180516040519392919084640100000000821115620001b657600080fd5b908301906020820185811115620001cc57600080fd5b8251866020820283011164010000000082111715620001ea57600080fd5b82525081516020918201928201910280838360005b8381101562000219578181015183820152602001620001ff565b5050505091909101604081815260208401519084015160609094018051919694959294935090846401000000008211156200025357600080fd5b9083019060208201858111156200026957600080fd5b82518660208202830111640100000000821117156200028757600080fd5b82525081516020918201928201910280838360005b83811015620002b65781810151838201526020016200029c565b505050509190910160405250602090810151600a80546001600160a01b038084166001600160a01b03199283161790925560008054928e169290911691909117905589519093506200030f92506001918a0190620004ba565b50855162000325906002906020890190620004ba565b5084516200033b9060039060208801906200053f565b506000600455600584905560068390558151620003609060079060208501906200057c565b50602a80546000919060ff19166001830217905550600a805461ffff60a01b1916601760a01b1760ff60b01b19168155600c805460ff1916905560095560005b85518110156200040a576040805180820190915260008082526020820152600f8260048110620003cc57fe5b825160029190910291909101908155602090910151600191820180546001600160a01b0319166001600160a01b0390921691909117905501620003a0565b5060005b8251811015620004ab5760405180606001604052806001151581526020016000151581526020016000801b815250602460008584815181106200044d57fe5b6020908102919091018101516001600160a01b03168252818101929092526040908101600020835181549385015115156101000261ff001991151560ff1990951694909417169290921782559190910151600191820155016200040e565b50505050505050505062000629565b828054600181600116156101000203166002900490600052602060002090601f016020900481019282601f10620004fd57805160ff19168380011785556200052d565b828001600101855582156200052d579182015b828111156200052d57825182559160200191906001019062000510565b506200053b929150620005e2565b5090565b8280548282559060005260206000209081019282156200052d57916020028201828111156200052d57825182559160200191906001019062000510565b828054828255906000526020600020908101928215620005d4579160200282015b82811115620005d457825182546001600160a01b0319166001600160a01b039091161782556020909201916001909101906200059d565b506200053b92915062000602565b620005ff91905b808211156200053b5760008155600101620005e9565b90565b620005ff91905b808211156200053b5780546001600160a01b031916815560010162000609565b612d9780620006396000396000f3fe6080604052600436106102465760003560e01c80639570400f11610139578063cc2ee196116100b6578063e8a1e12e1161007a578063e8a1e12e1461083f578063f06e3e2e14610854578063f462f8af14610887578063f4c6284b146108ba578063f745bd4d146108ec578063fbcc1e711461090157610246565b8063cc2ee19614610768578063cc7e62101461077d578063d3901fb5146107a7578063e6cd5a11146107bc578063e6ff5096146107ec57610246565b8063a8323176116100fd578063a8323176146106cc578063b55eb88b146106e1578063bc0da8d31461070b578063bfb0b60814610720578063c617339b1461073557610246565b80639570400f1461060457806395e56a84146106295780639d7740461461063e5780639e6fcc0614610678578063a6430cc0146106a257610246565b8063509bd337116101c7578063722713f71161018b578063722713f7146105715780637284e41614610586578063729ecb071461059b578063894c3b1f146105c557806393fc29cb146105da57610246565b8063509bd337146104ca578063516dde43146104ed57806357cde0e61461050257806366d4bfac146105175780636f0f9f5e1461054157610246565b80632d9781631161020e5780632d978163146103f1578063409e22051461042a578063459d6e4f14610454578063465be85f146104695780634852aa6d1461047e57610246565b806306fdde031461024b578063123230df146102d557806312b8b1a31461031e578063288fa802146103655780632c135b93146103ca575b600080fd5b34801561025757600080fd5b50610260610916565b6040805160208082528351818301528351919283929083019185019080838360005b8381101561029a578181015183820152602001610282565b50505050905090810190601f1680156102c75780820380516001836020036101000a031916815260200191505b509250505060405180910390f35b3480156102e157600080fd5b506102ea6109a3565b604080516001600160a01b039586168152938516602085015291841683830152909216606082015290519081900360800190f35b34801561032a57600080fd5b506103516004803603602081101561034157600080fd5b50356001600160a01b0316610a77565b604080519115158252519081900360200190f35b34801561037157600080fd5b5061037a610a9a565b60408051602080825283518183015283519192839290830191858101910280838360005b838110156103b657818101518382015260200161039e565b505050509050019250505060405180910390f35b3480156103d657600080fd5b506103df610b07565b60408051918252519081900360200190f35b3480156103fd57600080fd5b50610406610b0d565b6040518082600381111561041657fe5b60ff16815260200191505060405180910390f35b34801561043657600080fd5b506103df6004803603602081101561044d57600080fd5b5035610b16565b34801561046057600080fd5b506103df610b34565b34801561047557600080fd5b5061037a610b3a565b34801561048a57600080fd5b506104ae600480360360408110156104a157600080fd5b5080359060200135610b9c565b604080516001600160a01b039092168252519081900360200190f35b610351600480360360408110156104e057600080fd5b5080359060200135610bd1565b3480156104f957600080fd5b506103df61103f565b34801561050e57600080fd5b506103df611045565b34801561052357600080fd5b506103df6004803603602081101561053a57600080fd5b503561104b565b34801561054d57600080fd5b5061055661105d565b60408051921515835260208301919091528051918290030190f35b34801561057d57600080fd5b506103df6110d5565b34801561059257600080fd5b506102606110d9565b3480156105a757600080fd5b506104ae600480360360208110156105be57600080fd5b5035611131565b3480156105d157600080fd5b5061037a611158565b3480156105e657600080fd5b5061037a600480360360208110156105fd57600080fd5b50356111b8565b6103df6004803603604081101561061a57600080fd5b5080359060200135151561124d565b34801561063557600080fd5b5061037a6115a1565b34801561064a57600080fd5b506106766004803603606081101561066157600080fd5b50803590602081013590604001351515611604565b005b34801561068457600080fd5b5061037a6004803603602081101561069b57600080fd5b503561177f565b3480156106ae57600080fd5b506104ae600480360360208110156106c557600080fd5b5035611824565b3480156106d857600080fd5b50610676611831565b3480156106ed57600080fd5b506106766004803603602081101561070457600080fd5b5035611848565b34801561071757600080fd5b5061037a611a0a565b34801561072c57600080fd5b5061037a611a6d565b34801561074157600080fd5b506103516004803603602081101561075857600080fd5b50356001600160a01b0316611ad0565b34801561077457600080fd5b5061037a611af3565b34801561078957600080fd5b506103df600480360360208110156107a057600080fd5b5035611b4a565b3480156107b357600080fd5b50610351611b5c565b3480156107c857600080fd5b506104ae600480360360408110156107df57600080fd5b5080359060200135611b72565b3480156107f857600080fd5b5061081f6004803603602081101561080f57600080fd5b50356001600160a01b0316611b8b565b604080519315158452911515602084015282820152519081900360600190f35b34801561084b57600080fd5b506103df611bb1565b34801561086057600080fd5b5061081f6004803603602081101561087757600080fd5b50356001600160a01b0316611bb7565b34801561089357600080fd5b50610676600480360360208110156108aa57600080fd5b50356001600160a01b0316611bdd565b3480156108c657600080fd5b50610676600480360360408110156108dd57600080fd5b50803590602001351515611c6f565b3480156108f857600080fd5b50610676611da3565b34801561090d57600080fd5b506104ae611dd2565b60018054604080516020600284861615610100026000190190941693909304601f8101849004840282018401909252818152929183018282801561099b5780601f106109705761010080835404028352916020019161099b565b820191906000526020600020905b81548152906001019060200180831161097e57829003601f168201915b505050505081565b6000806000806109b1612bc6565b6023805460001981019081106109c357fe5b600091825260209091206040805160c081018083529093600802909201918391820190839060049082845b81546001600160a01b031681526001909101906020018083116109ee5750505091835250506040805160808101918290526020909201919060048481019182845b815481526020019060010190808311610a2f575050505050815250509050610a55612beb565b5051805160208201516040830151606090930151919790965091945092509050565b6001600160a01b0316600090815260246020526040902054610100900460ff1690565b60408051600480825260a08201909252606091908290826020820160808038833901905050905060005b82811015610aff57600f8160048110610ad957fe5b60020201548251839083908110610aec57fe5b6020908102919091010152600101610ac4565b509150505b90565b60045481565b602a5460ff1681565b60038181548110610b2357fe5b600091825260209091200154905081565b60055481565b60606008805480602002602001604051908101604052809291908181526020018280548015610b9257602002820191906000526020600020905b81546001600160a01b03168152600190910190602001808311610b74575b5050505050905090565b60256020528160005260406000208181548110610bb557fe5b6000918252602090912001546001600160a01b03169150829050565b6000600654821115610bed57610be5611da3565b506000611039565b3360009081526024602052604090205460ff1615610c0a57600080fd5b6000602a5460ff166003811115610c1d57fe5b14610c2757600080fd5b34670de0b6b3a76400008110610c3c57600080fd5b80600f8560048110610c4a57fe5b600202015410610c5957600080fd5b600a546040805163310ad0b760e11b815233600482015290516001600160a01b03909216916000918391636215a16e91602480820192602092909190829003018186803b158015610ca957600080fd5b505afa158015610cbd573d6000803e3d6000fd5b505050506040513d6020811015610cd357600080fd5b5051905080610ce157600080fd5b600f8660048110610cee57fe5b60020201600101546001600160a01b03166108fc600f8860048110610d0f57fe5b60020201546040518115909202916000818181858888f19350505050158015610d3c573d6000803e3d6000fd5b50670de0b6b3a7640000610d4e612beb565b610d56612beb565b60005b6004811015610de857898114610de057600f8160048110610d7657fe5b600202015490930392600f8160048110610d8c57fe5b60020201600101546001600160a01b0316838260048110610da957fe5b6001600160a01b039092166020929092020152600f8160048110610dc957fe5b6002020154828260048110610dda57fe5b60200201525b600101610d59565b50336000908152600d60205260409020805460ff19166001179055858311610fd05733828a60048110610e1757fe5b6001600160a01b03909216602092909202015282818a60048110610e3757fe5b6020020152610e44612bc6565b5060408051808201909152828152602081018290526023805460018101808355600092909252825183916008027fd57b2b5166478fd4318d2acc6cc2c704584312bdd8781b32d5d06abda57f42300190610ea19082906004612c09565b506020820151610eb79060048084019190612c61565b506000925050505b6004811015610f0f578a811415610ee5578460178260048110610ede57fe5b0155610f07565b600f8160048110610ef257fe5b600202015460178260048110610f0457fe5b01555b600101610ebf565b50604051339085890380156108fc02916000818181858888f19350505050158015610f3e573d6000803e3d6000fd5b50610f47611de1565b60005b6004811015610fae576000600f8260048110610f6257fe5b60020201556000600f8260048110610f7657fe5b6002020160010160006101000a8154816001600160a01b0302191690836001600160a01b031602179055508080600101915050610f4a565b505060048054670de0b6b3a76400000190555060019550611039945050505050565b610fd8612c9b565b506040805180820190915286815233602082015280600f8b60048110610ffa57fe5b825160029190910291909101908155602090910151600190910180546001600160a01b0319166001600160a01b03909216919091179055505050505050505b92915050565b60065481565b60095481565b60296020526000908152604090205481565b600080808080805b6003548110156110cb576000602660006003848154811061108257fe5b90600052602060002001548152602001908152602001600020549050848111156110b557809450600092508193506110c2565b848114156110c257600192505b50600101611065565b5093509150509091565b4790565b6002805460408051602060018416156101000260001901909316849004601f8101849004840282018401909252818152929183018282801561099b5780601f106109705761010080835404028352916020019161099b565b6008818154811061113e57fe5b6000918252602090912001546001600160a01b0316905081565b60606007805480602002602001604051908101604052809291908181526020018280548015610b92576020028201919060005260206000209081546001600160a01b03168152600190910190602001808311610b74575050505050905090565b6023546040805182815260208084028201019091526060919082908280156111ea578160200160208202803883390190505b50905060005b82811015611245576023818154811061120557fe5b9060005260206000209060080201600401856004811061122157fe5b015460001b82828151811061123257fe5b60209081029190910101526001016111f0565b509392505050565b600080602a5460ff16600381111561126157fe5b1415801561128057506003602a5460ff16600381111561127d57fe5b14155b61128957600080fd5b600a546001600160a01b03166000805b6023548110156115465760005b602382815481106112b357fe5b50600052600481101561153d5760006001600160a01b0316602383815481106112d857fe5b906000526020600020906008020160000182600481106112f457fe5b01546001600160a01b0316146115355782600a0192508681141561144557836001600160a01b031663c51795d16023848154811061132e57fe5b9060005260206000209060080201600001836004811061134a57fe5b0154602380546001600160a01b0390921691670de0b6b3a764000091908790811061137157fe5b9060005260206000209060080201600401856004811061138d57fe5b01546064028161139957fe5b046064036040518363ffffffff1660e01b815260040180836001600160a01b03166001600160a01b0316815260200182815260200192505050600060405180830381600087803b1580156113ec57600080fd5b505af1158015611400573d6000803e3d6000fd5b505050506114406023838154811061141457fe5b9060005260206000209060080201600001826004811061143057fe5b01546001600160a01b0316611bdd565b611535565b836001600160a01b031663d3893d456023848154811061146157fe5b9060005260206000209060080201600001836004811061147d57fe5b0154602380546001600160a01b0390921691670de0b6b3a76400009190879081106114a457fe5b906000526020600020906008020160040185600481106114c057fe5b0154606402816114cc57fe5b046040518363ffffffff1660e01b815260040180836001600160a01b03166001600160a01b0316815260200182815260200192505050600060405180830381600087803b15801561151c57600080fd5b505af1158015611530573d6000803e3d6000fd5b505050505b6001016112a6565b50600101611299565b5061155085611848565b8361158c5761155e8561203f565b6002602a5460ff16600381111561157157fe5b146115835761157e61211c565b61158c565b61158c8561220a565b602a805460ff19166003179055949350505050565b60408051600480825260a08201909252606091908290826020820160808038833901905050905060005b82811015610aff57601781600481106115e057fe5b015460001b8282815181106115f157fe5b60209081029190910101526001016115cb565b600654821161161257600080fd5b6000602a5460ff16600381111561162557fe5b141561163357611633611da3565b6001602a5460ff16600381111561164657fe5b1461165057600080fd5b33600090815260246020526040902054610100900460ff161561167257600080fd5b3360009081526024602052604090205460ff1661168e57600080fd5b336000818152602460209081526040808320805461010061ff0019909116178155600190810188905587845260258352818420805480830182559085528385200180546001600160a01b03191690951790945586835260269091529020805482019055600a805460ff60b01b19811660ff600160b01b9283900481169094018416820217918290556007549104909116141561177a57604080516020808252600a908201526920b93134ba3930ba37b960b11b8183015290517f21f0146f421195b1872d8b4b0ef2c37e13a25a518f7a902d98ae120c530beebc9181900360600190a161177a8161237e565b505050565b6023546040805182815260208084028201019091526060919082908280156117b1578160200160208202803883390190505b50905060005b8281101561124557602381815481106117cc57fe5b906000526020600020906008020160000185600481106117e857fe5b015482516001600160a01b039091169083908390811061180457fe5b6001600160a01b03909216602092830291909101909101526001016117b7565b6007818154811061113e57fe5b602a805460ff19166002179055611846612425565b565b600a546001600160a01b031660005b60035481101561177a5760005b602560006003848154811061187557fe5b9060005260206000200154815260200190815260200160002080549050811015611a01578382141561194f57826001600160a01b031663457dac0260256000600386815481106118c157fe5b9060005260206000200154815260200190815260200160002083815481106118e557fe5b6000918252602082200154604080516001600160e01b031960e086901b1681526001600160a01b039092166004830152516024808301939282900301818387803b15801561193257600080fd5b505af1158015611946573d6000803e3d6000fd5b505050506119f9565b826001600160a01b03166399667bdc602560006003868154811061196f57fe5b90600052602060002001548152602001908152602001600020838154811061199357fe5b6000918252602082200154604080516001600160e01b031960e086901b1681526001600160a01b039092166004830152516024808301939282900301818387803b1580156119e057600080fd5b505af11580156119f4573d6000803e3d6000fd5b505050505b600101611864565b50600101611857565b60408051600480825260a08201909252606091908290826020820160808038833901905050905060005b82811015610aff57601f8160048110611a4957fe5b015460001b828281518110611a5a57fe5b6020908102919091010152600101611a34565b60408051600480825260a08201909252606091908290826020820160808038833901905050905060005b82811015610aff57601b8160048110611aac57fe5b015460001b828281518110611abd57fe5b6020908102919091010152600101611a97565b6001600160a01b0316600090815260276020526040902054610100900460ff1690565b60606003805480602002602001604051908101604052809291908181526020018280548015610b9257602002820191906000526020600020905b815481526020019060010190808311611b2d575050505050905090565b60266020526000908152604090205481565b3360009081526024602052604090205460ff1690565b60286020528160005260406000208181548110610bb557fe5b6027602052600090815260409020805460019091015460ff808316926101009004169083565b600b5490565b6024602052600090815260409020805460019091015460ff808316926101009004169083565b6001600160a01b0381166000908152600e602052604090205460ff16611c6c576001600160a01b0381166000818152600e6020526040808220805460ff1916600117905551670d99a8cec7e200009082818181858883f19350505050158015611c4a573d6000803e3d6000fd5b506001600160a01b0381166000908152600e60205260409020805460ff191690555b50565b6002602a5460ff166003811115611c8257fe5b14611c8c57600080fd5b33600090815260276020526040902054610100900460ff1615611cae57600080fd5b3360009081526027602052604090205460ff16611cca57600080fd5b336000818152602760209081526040808320805461ff001916610100178155600190810187905586845260288352818420805480830182559085528385200180546001600160a01b03191690951790945585835260299091529020805482019055600c805460ff818116909301831660ff199091161790819055600b5491161415611d9f57604080516020808252600490820152634a75727960e01b8183015290517f21f0146f421195b1872d8b4b0ef2c37e13a25a518f7a902d98ae120c530beebc9181900360600190a1611d9f8161237e565b5050565b6000602a5460ff166003811115611db657fe5b1415611dca57602a805460ff191660011790555b611846612a1f565b6000546001600160a01b031681565b600a546001600160a01b0316611df5612bc6565b602380546000198101908110611e0757fe5b600091825260209091206040805160c081018083529093600802909201918391820190839060049082845b81546001600160a01b03168152600190910190602001808311611e325750505091835250506040805160808101918290526020909201919060048481019182845b815481526020019060010190808311611e7357505050505081525050905060008090505b600481101561177a5781516000908260048110611eb057fe5b602002015190506001600160a01b0381161561203657611ece612cb2565b60408051633d59f85b60e01b81526001600160a01b038481166004830152825190881692633d59f85b9260248082019391829003018186803b158015611f1357600080fd5b505afa158015611f27573d6000803e3d6000fd5b505050506040513d601f19601f820116820180604052506040811015611f4c57600080fd5b50604080516001600160a01b03851681529192507f405f4ccba46549b1dbd2e5bfbf7248e032b3b50a1a6d65140c30c83a176d192e9184918491906020820190839080838360005b83811015611fac578181015183820152602001611f94565b505050509050019250505060405180910390a160178360048110611fcc57fe5b0154815102601b8460048110611fde57fe5b015401601b8460048110611fee57fe5b015560178360048110611ffd57fe5b01546001038160016002811061200f57fe5b602002015102601f846004811061202257fe5b015401601f846004811061203257fe5b0155505b50600101611e97565b600060646004548161204d57fe5b04905060006003838154811061205f57fe5b600091825260208083209091015480835260269091526040822054909250905b818110156121155760008381526025602052604081208054839081106120a157fe5b60009182526020808320909101546001600160a01b0316808352600e9091526040909120805460ff191660011790559050806108fc8487816120df57fe5b049081150290604051600060405180830381858888f1935050505015801561210b573d6000803e3d6000fd5b505060010161207f565b5050505050565b600080546001600160a01b03168152600e602052604090205460ff1661184657600080546001600160a01b039081168252600e60205260408220805460ff1916600117905590546004549116906108fc90606490049081150290604051600060405180830381858888f1935050505015801561219c573d6000803e3d6000fd5b50600a54600080546005546040805163175473d760e11b81526001600160a01b03938416600482015260248101929092525191909316928392632ea8e7ae9260448084019382900301818387803b1580156121f657600080fd5b505af1158015612115573d6000803e3d6000fd5b600a546004546001600160a01b039091169060009060649004905060006003848154811061223457fe5b600091825260208083209091015480835260299091526040822054909250905b8181101561237657600083815260286020526040812080548390811061227657fe5b60009182526020808320909101546001600160a01b0316808352600e90915260408220805460ff1916600117905591508386816122af57fe5b049050866001600160a01b0316632ea8e7ae8386600554816122cd57fe5b046040518363ffffffff1660e01b815260040180836001600160a01b03166001600160a01b0316815260200182815260200192505050600060405180830381600087803b15801561231d57600080fd5b505af1158015612331573d6000803e3d6000fd5b50506040516001600160a01b038516925083156108fc02915083906000818181858888f1935050505015801561236b573d6000803e3d6000fd5b505050600101612254565b505050505050565b6000602a5460ff16600381111561239157fe5b141580156123b057506003602a5460ff1660038111156123ad57fe5b14155b6123b957600080fd5b6002602a5460ff1660038111156123cc57fe5b14156123f45760006123dc612b6f565b600981905590506123ed818361124d565b5050611c6c565b6000806123ff61105d565b915091508161241d576009819055612417818461124d565b5061177a565b61177a611831565b600a546040805163193ca33d60e31b815290516001600160a01b0390921691606091839163c9e519e891600480820192600092909190829003018186803b15801561246f57600080fd5b505afa158015612483573d6000803e3d6000fd5b505050506040513d6000823e601f3d908101601f1916820160405260208110156124ac57600080fd5b81019080805160405193929190846401000000008211156124cc57600080fd5b9083019060208201858111156124e157600080fd5b82518660208202830111640100000000821117156124fe57600080fd5b82525081516020918201928201910280838360005b8381101561252b578181015183820152602001612513565b5050505090500160405250505090506005600780549050825103116126ca5760006007805490508251039050606081604051908082528060200260200182016040528015612583578160200160208202803883390190505b5090506000805b84518110156126a85760008582815181106125a157fe5b6020908102919091018101516001600160a01b0381166000908152602490925260409091205490915060ff16806125e557506000546001600160a01b038281169116145b8061260857506001600160a01b0381166000908152600d602052604090205460ff165b1561261357506126a0565b604080516060810182526001808252600060208084018281528486018381526001600160a01b038816845260279092529490912092518354945115156101000261ff001991151560ff19909616959095171693909317825591519101558351819085908590811061268057fe5b6001600160a01b0390921660209283029190910190910152506001909101905b60010161258a565b5081516126bc906008906020850190612cd0565b50600b555061184692505050565b60608151600a026040519080825280602002602001820160405280156126fa578160200160208202803883390190505b5090506000805b835181101561286657600084828151811061271857fe5b6020908102919091018101516001600160a01b0381166000908152602490925260409091205490915060ff168061275c57506000546001600160a01b038281169116145b8061277f57506001600160a01b0381166000908152600d602052604090205460ff165b1561278a575061285e565b6000866001600160a01b03166351d0ea37836040518263ffffffff1660e01b815260040180826001600160a01b03166001600160a01b0316815260200191505060606040518083038186803b1580156127e257600080fd5b505afa1580156127f6573d6000803e3d6000fd5b505050506040513d606081101561280c57600080fd5b50602001519050600a60ff82160460005b8160ff16811015612859578387878151811061283557fe5b6001600160a01b03909216602092830291909101909101526001958601950161281d565b505050505b600101612701565b5060408051600580825260c082019092526060916020820160a080388339019050509050600060335b6005821080156128a2575060008160ff16115b15612a0057600a5460408051426020808301919091523360601b82840152600160a01b90930460f01b6001600160f01b031916605482015281518082036036018152605690910190915280519101206000908590816128fd57fe5b600a8054600161ffff600160a01b808404821692909201160261ffff60a01b199091161790558751919006915060009087908390811061293957fe5b6020908102919091018101516001600160a01b0381166000908152602790925260409091205490915060ff166129f557604080516060810182526001808252600060208084018281528486018381526001600160a01b038816845260279092529490912092518354945115156101000261ff001991151560ff1990961695909517169390931782559151910155845181908690869081106129d657fe5b6001600160a01b03909216602092830291909101909101526001909301925b50506000190161288f565b8251612a13906008906020860190612cd0565b5050600b555050505050565b60005b6004811015611c6c576000600f8260048110612a3a57fe5b60020201600101546001600160a01b03161415612a5657612b67565b6000600f8260048110612a6557fe5b60020201600101546001600160a01b031690506000600f8360048110612a8757fe5b60020201546001600160a01b0383166000908152600e602052604090205490915060ff1615612ab7575050612b67565b6000600f8460048110612ac657fe5b60020201556000600f8460048110612ada57fe5b60020201600190810180546001600160a01b0319166001600160a01b039384161790559083166000818152600e6020526040808220805460ff1916909417909355915190916108fc841502918491818181858888f19350505050158015612b45573d6000803e3d6000fd5b50506001600160a01b03166000908152600e60205260409020805460ff191690555b600101612a22565b60008080805b600354811015610aff5760006029600060038481548110612b9257fe5b9060005260206000200154815260200190815260200160002054905083811115612bbd578093508192505b50600101612b75565b6040518060400160405280612bd9612beb565b8152602001612be6612beb565b905290565b60405180608001604052806004906020820280388339509192915050565b8260048101928215612c51579160200282015b82811115612c5157825182546001600160a01b0319166001600160a01b03909116178255602090920191600190910190612c1c565b50612c5d929150612d24565b5090565b8260048101928215612c8f579160200282015b82811115612c8f578251825591602001919060010190612c74565b50612c5d929150612d48565b604080518082019091526000808252602082015290565b60405180604001604052806002906020820280388339509192915050565b828054828255906000526020600020908101928215612c515791602002820182811115612c5157825182546001600160a01b0319166001600160a01b03909116178255602090920191600190910190612c1c565b610b0491905b80821115612c5d5780546001600160a01b0319168155600101612d2a565b610b0491905b80821115612c5d5760008155600101612d4e56fea265627a7a72315820efd2e557f10a20eb793e32cacacead4e8dddb63edadcaae9a1203b81b5f7d08964736f6c63430005100032",
  "source": "// SPDX-License-Identifier: MIT\npragma solidity >=0.4.21 <=0.7.0;\nimport \"./PredictionMarket.sol\";\n// import \"github.com/OpenZeppelin/zeppelin-solidity/contracts/math/SafeMath.sol\";\n\ncontract Topic {\n  // Public attirbutes\n  address payable public topicCreator;\n  string public name;\n  string public description;\n  bytes32[] public options;\n  uint public marketCap;\n  uint public creatorBond;\n  uint256 public expiryDate;\n  address payable[] public arbitrators;\n  address payable[] public jury;\n  uint public winningOptionIndex;\n\n  // Private attributes\n  address parentContract;\n  uint16 nonce;\n  uint8 numArbitratorVoted;\n  uint numOfJury;\n  uint8 numJuryVoted;\n  mapping (address => bool) hasBoughtShare;\n\n  // Guard against reentrancy => applicable for all receivers of ether\n  mapping (address => bool) hasReceivedPayout;\n\n  // Pending votes\n  voteStruct[4] pendingVotes;\n  struct voteStruct {\n    uint price; \n    address payable voter;\n  }\n\n  // Last Traded Prices\n  uint[4] lastTradedPrices;\n\n  // weighted votes\n  uint[4] winScores;\n  uint[4] loseScores;\n\n  // Successful trades\n  trade[] confirmedTrades;\n  struct trade {\n    address payable[4] shareOwners;\n    uint[4] price;\n  }\n\n  // Arbitrator voting related variables\n  struct SelectedArbitrator {\n        bool isAssigned;\n        bool hasVoted;\n        bytes32 votedOption;\n  }\n\n  mapping (address => SelectedArbitrator) public selectedArbitrators;\n  mapping (bytes32 => address[]) public arbitratorsVotes;\n  mapping (bytes32 => uint) public countofArbVotes;\n\n  // Jury voting related variables\n  struct SelectedJury {\n      bool isAssigned;\n      bool hasVoted;\n      bytes32 votedOption;\n  }\n  mapping (address => SelectedJury) public selectedJurys;\n  mapping (bytes32 => address[]) public jurysVotes;\n  mapping (bytes32 => uint) public countofJuryVotes;\n\n  // State of contract\n  // 0 => Open, 1 => Arbitrator Voting, 2 => Jury Voting, 3 => Resolved / closed\n  enum Phase { Open, Verification, Jury, Resolved }\n  Phase public contractPhase;\n\n  // NOTE: Ignore linter warning about visibility modifier being ignored. \n  // It is required for successful compilation\n  constructor (\n      address payable _creator, string memory _name, string memory _description, bytes32[] memory _options, \n      uint _bondValue, uint256 _expiryDate, address payable[] memory _arbitrators, address _predictionMarket\n    ) public payable {\n        parentContract = _predictionMarket;\n        topicCreator = _creator;\n        name = _name;\n        description = _description;\n        options = _options;\n        marketCap = 0;\n        creatorBond = _bondValue;\n        expiryDate = _expiryDate;\n        arbitrators = _arbitrators;\n        contractPhase = Phase.Open;\n\n        nonce = 23; // NOTE: Random number for the nonce\n        numArbitratorVoted = 0;\n        numJuryVoted = 0;\n        winningOptionIndex = 10; // Assign random value not within [0, 3]\n\n        // init pending votes\n        for (uint i = 0; i < _options.length; i++) {\n          pendingVotes[i] = voteStruct(0, address(0));\n        }\n\n        for (uint j = 0; j < _arbitrators.length; j++) {\n          selectedArbitrators[_arbitrators[j]] = SelectedArbitrator(true, false, bytes32(0));\n        }\n    }\n\n// TODO: TEST CASES\n  function updateWeightedVotes() private {\n    PredictionMarket pm = PredictionMarket(parentContract);\n    trade memory lastTrade = confirmedTrades[confirmedTrades.length - 1];\n    for(uint i=0; i<4; i++){\n      address voterAddress = lastTrade.shareOwners[i]; \n      \n      if(voterAddress != address(0)){\n        // getVotersReputation only accepts a valid voterAddress. \n        uint[2] memory winLose = pm.getVotersReputation(voterAddress);   \n        emit UpdateWeightedVotes(voterAddress, winLose);\n        winScores[i] = winScores[i] + (winLose[0] * lastTradedPrices[i]);\n        loseScores[i] = loseScores[i] + (winLose[1] * (1 - lastTradedPrices[i]));\n      }\n    }\n  }\n     \n  function voteOption(uint option, uint256 timeStamp) public payable returns (bool) {\n    if (timeStamp > expiryDate) {\n      openPhaseToVerificationPhase();\n      return false;\n    }\n    require(!selectedArbitrators[msg.sender].isAssigned);\n    require(contractPhase == Phase.Open);\n\n    uint amount = msg.value;\n    require(msg.value < 1 ether);\n    // Reject the vote if it is lower than the last available vote\n    require(pendingVotes[option].price <  amount);\n\n    // Check if the voter is valid\n    PredictionMarket pm = PredictionMarket(parentContract);\n    bool validTrader = pm.checkValidTrader(msg.sender);\n    require(validTrader);\n\n    // If the vote is higher than the last available price, send money back to the previous voter\n    pendingVotes[option].voter.transfer(pendingVotes[option].price);\n\n    // Balance to decide if the vote goes through\n    uint balance = 1 ether; \n\n    // Entry to insert into the confirmed trades if vote goes through\n    address payable[4] memory tempTrade;\n    uint[4] memory tempPrice;\n\n    for(uint i=0; i< 4; i++){\n      if(i != option){\n        balance = balance - pendingVotes[i].price; \n        tempTrade[i] = pendingVotes[i].voter;\n        tempPrice[i] = pendingVotes[i].price;\n      }\n    }\n\n    // Update hasBoughtShare\n    hasBoughtShare[msg.sender] = true;\n    \n    // If vote can go through\n    if(balance <= amount){\n      \n      // 1) Confirm the trade by putting it into trade confirmed\n      tempTrade[option] = msg.sender;\n      tempPrice[option] = balance;\n      trade memory tradeConfirmed = trade(tempTrade, tempPrice);\n      confirmedTrades.push(tradeConfirmed);\n      \n      // 2) Update the lastTradedPrices\n      for(uint i=0; i< 4; i++){\n        if(i == option){\n          lastTradedPrices[i] = balance;\n        }\n        else{\n          lastTradedPrices[i]= pendingVotes[i].price;\n        }\n      }\n      \n\n      // 3) Send the remaining money back to the sender\n      msg.sender.transfer(amount - balance);\n\n      // 4) Update the weighted votes according to the last trade\n      updateWeightedVotes();\n\n      // 5) Reset the pending votes instance\n      for(uint i =0; i< 4; i++){\n        pendingVotes[i].price = 0;\n        pendingVotes[i].voter = address(0);\n      }\n\n      // 6) Add to market cap for future payouts calculations\n      marketCap += 1 ether;\n      return true;\n    }\n\n    // If vote cannot go through\n    else {\n      // Update the pending votes\n      voteStruct memory tempVote = voteStruct(amount, msg.sender); \n      pendingVotes[option] = tempVote;\n    }\n  }\n\n  function openPhaseToVerificationPhase() public { // FIXME: Change visibility to internal before deploying on testnet!\n    if (contractPhase == Phase.Open) { \n      contractPhase = Phase.Verification;\n    }\n    refundPendingVotes();\n  }\n\n  function refundPendingVotes() internal {\n    for(uint i = 0; i< 4; i++) {\n      if (pendingVotes[i].voter == address(0)) {\n        continue;\n      }\n      address payable refundAddress = pendingVotes[i].voter;\n      uint amount = pendingVotes[i].price;\n      if (hasReceivedPayout[refundAddress]) {\n        continue;\n      }\n      pendingVotes[i].price = 0;\n      pendingVotes[i].voter = address(0);\n      hasReceivedPayout[refundAddress] = true;\n      refundAddress.transfer(amount);\n      hasReceivedPayout[refundAddress] = false;\n    }\n  }\n\n  function addArbitratorVote(bytes32 _option, uint256 timeStamp, bool forUnitTest) public { // FIXME: Remove unit test options before deploying to testnet!\n    // Shift contract phase\n    require(timeStamp > expiryDate);\n    if (contractPhase == Phase.Open) {\n      openPhaseToVerificationPhase();\n    }\n    require(contractPhase == Phase.Verification);\n    require(!selectedArbitrators[msg.sender].hasVoted); //no double voting\n    require(selectedArbitrators[msg.sender].isAssigned);\n    selectedArbitrators[msg.sender].hasVoted = true;\n    selectedArbitrators[msg.sender].votedOption = _option;\n    arbitratorsVotes[_option].push(msg.sender);\n    countofArbVotes[_option]++;\n\n    // Trigger resolve if all selected arbitrators have voted\n    numArbitratorVoted++;\n    if (numArbitratorVoted == arbitrators.length) {\n      emit ResolveCalled(\"Arbitrator\");\n      resolve(forUnitTest);\n    }\n  }\n\n  function addJuryVote(bytes32 _option, bool forUnitTest) public { // FIXME: Remove unit test options before deploying to testnet!\n    require(contractPhase == Phase.Jury); // require it to be in jury phase\n    require(!selectedJurys[msg.sender].hasVoted); //no double voting\n    require(selectedJurys[msg.sender].isAssigned);\n    selectedJurys[msg.sender].hasVoted = true;\n    selectedJurys[msg.sender].votedOption = _option;\n    jurysVotes[_option].push(msg.sender);\n    countofJuryVotes[_option]++;\n\n    // Trigger resolve if all selected jury have voted\n    numJuryVoted++;\n    if (numJuryVoted == numOfJury) {\n      emit ResolveCalled(\"Jury\");\n      resolve(forUnitTest);\n    }\n  }\n\n  // Getter function for test\n  function checkIfSelectedArbitrator() public view returns (bool) {\n    return selectedArbitrators[msg.sender].isAssigned;\n  }\n\n  /*\n  resolve() will be called after all selected arbitrators have voted for the truth\n  TODO: figure out how to make last arbitrator call resolve function and are we going to charge gas fees to last arbitrator? \n  NOTE: Events for testing purpose. Can see if FE requires events as well else remove before deployment on testnet\n  */\n  event ResolveCalled(string source);\n\n  function resolve(bool forUnitTest) internal { // FIXME: Remove unit test options before deploying to testnet!\n    require(contractPhase != Phase.Open && contractPhase != Phase.Resolved);\n    if(contractPhase == Phase.Jury){ \n      uint finalWinIndex = getJuryVerdict();\n      winningOptionIndex = finalWinIndex;\n      resolveWithoutTie(finalWinIndex, forUnitTest);\n      return;\n    }\n    \n    (bool hasTie, uint winIndex) = getArbitratorVerdict();\n    if (!hasTie) {\n      winningOptionIndex = winIndex;\n      resolveWithoutTie(winIndex, forUnitTest);\n    } else {\n      resolveWithTie();\n    }\n  }\n\n  function getJuryVerdict() internal view returns (uint) {\n    uint largest = 0;\n    uint winningOption;\n    for (uint i = 0; i < options.length; i++){\n      uint temp = countofJuryVotes[options[i]];\n      if (temp > largest){\n        largest = temp;\n        winningOption = i;\n      }\n    }\n    return winningOption;\n  }\n\n  function getArbitratorVerdict() public view returns (bool,uint){\n    uint largest = 0;\n    uint winningOption;\n    bool hasTie = false;\n    for (uint i =0; i < options.length; i++){\n      uint temp = countofArbVotes[options[i]];\n      if (temp > largest){\n        largest = temp;\n        hasTie = false;\n        winningOption = i;\n      } else if (temp == largest){\n        hasTie = true;\n      }\n    }\n    return (hasTie, winningOption);\n  }\n\n  function updateArbitratorsTrustworthiness(uint winIndex) public {\n    PredictionMarket marketInstance = PredictionMarket(parentContract);\n    for (uint o=0; o < options.length; o++){\n        for (uint i=0; i<arbitratorsVotes[options[o]].length; i++){\n          if (o == winIndex){\n            marketInstance.updateHonestTrustworthiness(arbitratorsVotes[options[o]][i]);\n          } else {\n            marketInstance.updateDishonestTrustworthiness(arbitratorsVotes[options[o]][i]);\n          }\n        }\n      }\n  }\n\n  // TODO: Payout to arbitrators, jury/creator\n  function resolveWithoutTie(uint winIndex, bool forUnitTest) public payable returns(uint) { // FIXME: Remove unit test options before deploying to testnet!\n    require(contractPhase != Phase.Open && contractPhase != Phase.Resolved); // Check required as function is public\n    PredictionMarket marketInstance = PredictionMarket(parentContract);\n    uint temp = 0;\n    \n    for(uint i = 0; i<confirmedTrades.length; i++){\n      for(uint j = 0; j<confirmedTrades[i].shareOwners.length; j++){\n        if (confirmedTrades[i].shareOwners[j] != address(uint160(0x0))){\n          temp = temp + 10;\n          if(j == winIndex){\n            marketInstance.updateWinScore(confirmedTrades[i].shareOwners[j], 100-(100*confirmedTrades[i].price[j]/1000000000000000000));\n            payoutToWinners(confirmedTrades[i].shareOwners[j]);\n          } else {\n            marketInstance.updateLoseScore(confirmedTrades[i].shareOwners[j], 100*confirmedTrades[i].price[j]/1000000000000000000);\n          }\n        }\n      }\n    }\n\n    updateArbitratorsTrustworthiness(winIndex);\n\n    if (!forUnitTest) {\n      payoutToArbitrators(winIndex);\n      if (contractPhase != Phase.Jury) {\n        payoutToCreator();\n      } else {\n        payoutToJury(winIndex);\n      }\n    }\n    contractPhase = Phase.Resolved;\n    return temp;\n  }\n\n  function payoutToCreator() internal {\n    if (!hasReceivedPayout[topicCreator]) {\n      hasReceivedPayout[topicCreator] = true;\n      topicCreator.transfer(uint(marketCap) / uint(100));\n      PredictionMarket marketInstance = PredictionMarket(parentContract);\n      marketInstance.transferCreatorBond(topicCreator, uint(creatorBond));\n    }\n  }\n\n  function payoutToJury(uint winIndex) internal {\n    PredictionMarket marketInstance = PredictionMarket(parentContract);\n\n    // Creator bond is forfeited to the jury\n    uint juryShare = (uint(marketCap) / uint(100)); // integer division\n    bytes32 winningOption = options[winIndex];\n    uint numWinners = countofJuryVotes[winningOption];\n    for (uint i = 0; i < numWinners; i++) {\n      address payable winningJury = address(uint160(jurysVotes[winningOption][i]));\n      hasReceivedPayout[winningJury] = true;\n      uint transferAmount = uint(juryShare) / uint(numWinners);\n      marketInstance.transferCreatorBond(winningJury, (uint(creatorBond) / numWinners));\n      winningJury.transfer(transferAmount);\n    }\n  }\n\n  function payoutToArbitrators(uint winIndex) internal {\n    uint arbitratorShare = uint(marketCap) / uint(100); // integer division\n    bytes32 winningOption = options[winIndex];\n    uint numWinners = countofArbVotes[winningOption];\n    for (uint i = 0; i < numWinners; i++) {\n      address payable winningArbitrator = address(uint160(arbitratorsVotes[winningOption][i]));\n      hasReceivedPayout[winningArbitrator] = true;\n      winningArbitrator.transfer(uint(arbitratorShare) / uint(numWinners));\n    }\n  }\n\n  function payoutToWinners(address payable winner) public {\n    if (!hasReceivedPayout[winner]) {\n      hasReceivedPayout[winner] = true;\n      winner.transfer(0.98 ether);\n      hasReceivedPayout[winner] = false; // set back to false in case trader bought more than 1 share\n    }\n  }\n \n  // FIXME: Change visibility to internal before deploying on testnet!\n  // Use public for unit tests\n  function resolveWithTie() public {\n    contractPhase = Phase.Jury;\n    selectJury();\n  }\n\n  function selectJury() internal {\n    PredictionMarket marketInstance = PredictionMarket(parentContract);\n    address payable[] memory allArbitrators = marketInstance.getAllArbitrators();\n\n    // If there are less than 5 remaining arbitrators, select all of them as jury\n    // Topic creator is excluded from selection as well\n    if (allArbitrators.length - arbitrators.length <= 5) {\n      uint diff = allArbitrators.length - arbitrators.length;\n      address payable[] memory remainingArbitrators = new address payable[](diff);\n      uint ptr = 0;\n      for (uint k = 0; k < allArbitrators.length; k++) {\n        address payable arb = allArbitrators[k];\n        if (selectedArbitrators[arb].isAssigned || arb == topicCreator || hasBoughtShare[arb]) {\n          continue;\n        }\n        selectedJurys[arb] = SelectedJury(true, false, bytes32(0));\n        remainingArbitrators[ptr] = arb;\n        ptr++;\n      }\n      // If less than diff arbitrators are selected (i.e. one of the remaining is the topic creator)\n      // last address will be address(0)\n      jury = remainingArbitrators;\n      numOfJury = ptr; // Ptr will indicate how many jury were selected in the end\n      return;\n    }\n\n    // Else, create ballot where number of chances is proportional to the arbitrator's trustworthiness\n    address payable[] memory ballot = new address payable[](allArbitrators.length * 10); // Max length is when all arbitrators are at 100 score\n    uint ballotPointer = 0;\n\n    for (uint i = 0; i < allArbitrators.length; i++) {\n      address payable arbitrator = allArbitrators[i];\n      if (selectedArbitrators[arbitrator].isAssigned || arbitrator == topicCreator || hasBoughtShare[arbitrator]) {\n        continue;\n      }\n      (,uint8 trustworthiness,) = marketInstance.arbitrators(arbitrator); // Access trustworthiness score of struct\n      uint8 chance = trustworthiness / uint8(10);\n      for (uint j = 0; j < chance; j++) {\n        ballot[ballotPointer] = arbitrator;\n        ballotPointer++;\n      }\n    }\n\n    // Select random jury from the ballot\n    // Rechoose if address is already selected in the jury\n    address payable[] memory juryMemory = new address payable[](5);\n    uint juryPointer = 0;\n    // Max tries is bounded by 51 => For 1st 4 jury, repeated hit their address again = 4 * 10, \n    // 10 additional tries if creator is arbitrator, hence 51st try is guaranteed to resolve\n    uint8 triesLeft = 51; \n    while (juryPointer < 5 && triesLeft > 0) {\n      uint next = uint(keccak256(abi.encodePacked(block.timestamp, msg.sender, nonce))) % ballotPointer;\n      nonce++;\n      address payable potential = ballot[next];\n      if (!selectedJurys[potential].isAssigned) {\n        selectedJurys[potential] = SelectedJury(true, false, bytes32(0));\n        juryMemory[juryPointer] = potential;\n        juryPointer++;\n      }\n      triesLeft--;\n    }\n    jury = juryMemory;\n    numOfJury = juryPointer; // Jury pointer would indicate number of jury members finally selected. Should be 5 but can be lower in edge cases\n  }\n\n  // ===================================================\n  // Getters\n  // ===================================================\n\n  function getAllPendingVotePrice() view public returns(bytes32[] memory){\n    uint len = pendingVotes.length;\n    bytes32[] memory bytesArray = new bytes32[](len);\n    for (uint i = 0; i < len; i++) {\n      bytesArray[i] = bytes32(pendingVotes[i].price);\n    }\n    return bytesArray;\n  } \n\n  function getLastTradedPrices() view public returns(bytes32[] memory){\n    uint len = lastTradedPrices.length;\n    bytes32[] memory bytesArray = new bytes32[](len);\n    for (uint i = 0; i < len; i++) {\n      bytesArray[i] = bytes32(lastTradedPrices[i]);\n    }\n    return bytesArray;\n  }\n\n// Function will return an array of 8 elements in total: [win0, lose0, win1, lose1...]\n  function getLoseScores() view public returns(bytes32[] memory){\n    uint len = loseScores.length;\n    bytes32[] memory bytesArray = new bytes32[](len);\n    for (uint i = 0; i < len; i++) {\n      bytesArray[i] = bytes32(loseScores[i]);\n    }\n    return bytesArray;\n  }\n\n  // Function will return an array of 8 elements in total: [win0, lose0, win1, lose1...]\n  function getWinScores() view public returns(bytes32[] memory){\n    uint len = loseScores.length;\n    bytes32[] memory bytesArray = new bytes32[](len);\n    for (uint i = 0; i < len; i++) {\n      bytesArray[i] = bytes32(winScores[i]);\n    }\n    return bytesArray;\n  }\n\n  // Gets all the addresses for the people who voted for that option\n  function getConfirmedTradeAddresses(uint option) public view returns (address payable[] memory){\n    uint len = confirmedTrades.length;\n    address payable[] memory addArray = new address payable[](len);\n    for (uint i = 0; i < len; i++) {\n      addArray[i] = confirmedTrades[i].shareOwners[option];\n    }\n    return addArray;\n  }\n\n  // Gets all the addresses for the people who voted for that option\n  function getConfirmedTradePrices(uint option) public view returns (bytes32[] memory){\n    uint len = confirmedTrades.length;\n    bytes32[] memory bytesArray = new bytes32[](len);\n    for (uint i = 0; i < len; i++) {\n      bytesArray[i] = bytes32(confirmedTrades[i].price[option]);\n    }\n    return bytesArray;\n  }\n\n  function balanceOf() external view returns(uint) {\n    return address(this).balance;\n  }\n\n  function getOptions() public view returns (bytes32[] memory) {\n    return options;\n  }\n\n  function getArbitrators() public view returns (address payable[] memory) {\n    return arbitrators;\n  }\n\n  function getJury() public view returns (address payable[] memory) {\n    return jury;\n  }\n\n  function hasArbitratorVoted(address arbitratorAddress) public view returns (bool) {\n    return selectedArbitrators[arbitratorAddress].hasVoted;\n  }\n\n  function hasJuryVoted(address juryAddress) public view returns (bool) {\n    return selectedJurys[juryAddress].hasVoted;\n  }\n\n\n\n  // ===================================================\n  // For testing purposes\n  // ===================================================\n  event UpdateWeightedVotes(address add, uint[2] beforeUpdate);\n\n  function getNumOfJurySelected() public view returns (uint) {\n    return numOfJury;\n  }\n\n  function getLastConfirmedTradeAddresses() public view returns (address, address, address, address) {\n    trade memory lastConfirmedTrade = confirmedTrades[confirmedTrades.length - 1];\n    address payable[4] memory tradeOwners = lastConfirmedTrade.shareOwners;\n    return (tradeOwners[0], tradeOwners[1], tradeOwners[2], tradeOwners[3]);\n  }\n}\n",
  "sourcePath": "/Users/gwynethang/Documents/Academics/Y4S1/Blockchain/Decentralised_Prediction_Market/contracts/Topic.sol",
  "compiler": {
    "name": "solc",
    "version": "0.5.16+commit.9c3226ce.Emscripten.clang"
  },
  "schemaVersion": "3.3.1",
  "updatedAt": "2020-10-30T08:27:32.318Z",
  "networkType": "ethereum",
  "devdoc": {
    "methods": {}
  },
  "userdoc": {
    "methods": {}
  }
}