{
  "contractName": "Topic",
  "abi": [
    {
      "inputs": [
        {
          "internalType": "string",
          "name": "_name",
          "type": "string"
        }
      ],
      "payable": true,
      "stateMutability": "payable",
      "type": "constructor"
    },
    {
      "constant": false,
      "inputs": [],
      "name": "transferFunds",
      "outputs": [],
      "payable": true,
      "stateMutability": "payable",
      "type": "function"
    },
    {
      "constant": true,
      "inputs": [],
      "name": "balanceOf",
      "outputs": [
        {
          "internalType": "uint256",
          "name": "",
          "type": "uint256"
        }
      ],
      "payable": false,
      "stateMutability": "view",
      "type": "function"
    }
  ],
  "bytecode": "0x608060405260405161024b38038061024b8339818101604052602081101561002657600080fd5b810190808051604051939291908464010000000082111561004657600080fd5b8382019150602082018581111561005c57600080fd5b825186600182028301116401000000008211171561007957600080fd5b8083526020830192505050908051906020019080838360005b838110156100ad578082015181840152602081019050610092565b50505050905090810190601f1680156100da5780820380516001836020036101000a031916815260200191505b5060405250505080600190805190602001906100f79291906100fe565b50506101a3565b828054600181600116156101000203166002900490600052602060002090601f016020900481019282601f1061013f57805160ff191683800117855561016d565b8280016001018555821561016d579182015b8281111561016c578251825591602001919060010190610151565b5b50905061017a919061017e565b5090565b6101a091905b8082111561019c576000816000905550600101610184565b5090565b90565b609a806101b16000396000f3fe60806040526004361060265760003560e01c80633c68eb8114602b578063722713f7146033575b600080fd5b6031605b565b005b348015603e57600080fd5b506045605d565b6040518082815260200191505060405180910390f35b565b60004790509056fea265627a7a723158205e135647c135355179c049b3e8cb0764fff3807055b1ab14733091bad56ba34e64736f6c63430005100032",
  "source": "// SPDX-License-Identifier: MIT\npragma solidity >=0.4.21 <0.7.0;\n\ncontract Topic {\n  address topicCreator;\n\n  string name;\n  string description;\n  string options;\n  uint marketCap;\n  uint creatorBond;\n\n  constructor (string memory _name) public payable {\n      // topicCreator = msg.sender;\n      name = _name;\n  }\n\n  function transferFunds() public payable{\n        \n    }\n\n  function balanceOf() external view returns(uint) {\n        return address(this).balance;\n    }\n\n\n}\n",
  "sourcePath": "/Users/collinlim/Desktop/Desktop.nosync/School/CZ4153/Project/Decentralised_Prediction_Market/contracts/Topic.sol",
  "compiler": {
    "name": "solc",
    "version": "0.5.16+commit.9c3226ce.Emscripten.clang"
  },
  "schemaVersion": "3.2.5",
  "updatedAt": "2020-10-09T10:17:40.907Z",
  "devdoc": {
    "methods": {}
  },
  "userdoc": {
    "methods": {}
  }
}