{
  "contractName": "Topic",
  "abi": [
    {
      "inputs": [
        {
          "internalType": "address payable",
          "name": "_creator",
          "type": "address"
        },
        {
          "internalType": "string",
          "name": "_name",
          "type": "string"
        },
        {
          "internalType": "string",
          "name": "_description",
          "type": "string"
        },
        {
          "internalType": "bytes32[]",
          "name": "_options",
          "type": "bytes32[]"
        },
        {
          "internalType": "uint256",
          "name": "_bondValue",
          "type": "uint256"
        },
        {
          "internalType": "uint256",
          "name": "_expiryDate",
          "type": "uint256"
        },
        {
          "internalType": "address payable[]",
          "name": "_arbitrators",
          "type": "address[]"
        },
        {
          "internalType": "address",
          "name": "_predictionMarket",
          "type": "address"
        }
      ],
      "payable": true,
      "stateMutability": "payable",
      "type": "constructor"
    },
    {
      "anonymous": false,
      "inputs": [
        {
          "indexed": false,
          "internalType": "address",
          "name": "add",
          "type": "address"
        },
        {
          "indexed": false,
          "internalType": "uint256[2]",
          "name": "beforeUpdate",
          "type": "uint256[2]"
        }
      ],
      "name": "UpdateWeightedVotes",
      "type": "event"
    },
    {
      "constant": true,
      "inputs": [
        {
          "internalType": "uint256",
          "name": "",
          "type": "uint256"
        }
      ],
      "name": "arbitrators",
      "outputs": [
        {
          "internalType": "address payable",
          "name": "",
          "type": "address"
        }
      ],
      "payable": false,
      "stateMutability": "view",
      "type": "function"
    },
    {
      "constant": true,
      "inputs": [
        {
          "internalType": "bytes32",
          "name": "",
          "type": "bytes32"
        },
        {
          "internalType": "uint256",
          "name": "",
          "type": "uint256"
        }
      ],
      "name": "arbitratorsVotes",
      "outputs": [
        {
          "internalType": "address",
          "name": "",
          "type": "address"
        }
      ],
      "payable": false,
      "stateMutability": "view",
      "type": "function"
    },
    {
      "constant": true,
      "inputs": [],
      "name": "contractPhase",
      "outputs": [
        {
          "internalType": "enum Topic.Phase",
          "name": "",
          "type": "uint8"
        }
      ],
      "payable": false,
      "stateMutability": "view",
      "type": "function"
    },
    {
      "constant": true,
      "inputs": [
        {
          "internalType": "bytes32",
          "name": "",
          "type": "bytes32"
        }
      ],
      "name": "countofArbVotes",
      "outputs": [
        {
          "internalType": "uint256",
          "name": "",
          "type": "uint256"
        }
      ],
      "payable": false,
      "stateMutability": "view",
      "type": "function"
    },
    {
      "constant": true,
      "inputs": [
        {
          "internalType": "bytes32",
          "name": "",
          "type": "bytes32"
        }
      ],
      "name": "countofJuryVotes",
      "outputs": [
        {
          "internalType": "uint256",
          "name": "",
          "type": "uint256"
        }
      ],
      "payable": false,
      "stateMutability": "view",
      "type": "function"
    },
    {
      "constant": true,
      "inputs": [],
      "name": "creatorBond",
      "outputs": [
        {
          "internalType": "uint256",
          "name": "",
          "type": "uint256"
        }
      ],
      "payable": false,
      "stateMutability": "view",
      "type": "function"
    },
    {
      "constant": true,
      "inputs": [],
      "name": "description",
      "outputs": [
        {
          "internalType": "string",
          "name": "",
          "type": "string"
        }
      ],
      "payable": false,
      "stateMutability": "view",
      "type": "function"
    },
    {
      "constant": true,
      "inputs": [],
      "name": "expiryDate",
      "outputs": [
        {
          "internalType": "uint256",
          "name": "",
          "type": "uint256"
        }
      ],
      "payable": false,
      "stateMutability": "view",
      "type": "function"
    },
    {
      "constant": true,
      "inputs": [
        {
          "internalType": "uint256",
          "name": "",
          "type": "uint256"
        }
      ],
      "name": "jury",
      "outputs": [
        {
          "internalType": "address payable",
          "name": "",
          "type": "address"
        }
      ],
      "payable": false,
      "stateMutability": "view",
      "type": "function"
    },
    {
      "constant": true,
      "inputs": [
        {
          "internalType": "bytes32",
          "name": "",
          "type": "bytes32"
        },
        {
          "internalType": "uint256",
          "name": "",
          "type": "uint256"
        }
      ],
      "name": "jurysVotes",
      "outputs": [
        {
          "internalType": "address",
          "name": "",
          "type": "address"
        }
      ],
      "payable": false,
      "stateMutability": "view",
      "type": "function"
    },
    {
      "constant": true,
      "inputs": [],
      "name": "marketCap",
      "outputs": [
        {
          "internalType": "uint256",
          "name": "",
          "type": "uint256"
        }
      ],
      "payable": false,
      "stateMutability": "view",
      "type": "function"
    },
    {
      "constant": true,
      "inputs": [],
      "name": "name",
      "outputs": [
        {
          "internalType": "string",
          "name": "",
          "type": "string"
        }
      ],
      "payable": false,
      "stateMutability": "view",
      "type": "function"
    },
    {
      "constant": true,
      "inputs": [
        {
          "internalType": "uint256",
          "name": "",
          "type": "uint256"
        }
      ],
      "name": "options",
      "outputs": [
        {
          "internalType": "bytes32",
          "name": "",
          "type": "bytes32"
        }
      ],
      "payable": false,
      "stateMutability": "view",
      "type": "function"
    },
    {
      "constant": true,
      "inputs": [
        {
          "internalType": "address",
          "name": "",
          "type": "address"
        }
      ],
      "name": "selectedArbitrators",
      "outputs": [
        {
          "internalType": "bool",
          "name": "isAssigned",
          "type": "bool"
        },
        {
          "internalType": "bool",
          "name": "hasVoted",
          "type": "bool"
        },
        {
          "internalType": "bytes32",
          "name": "votedOption",
          "type": "bytes32"
        }
      ],
      "payable": false,
      "stateMutability": "view",
      "type": "function"
    },
    {
      "constant": true,
      "inputs": [
        {
          "internalType": "address",
          "name": "",
          "type": "address"
        }
      ],
      "name": "selectedJurys",
      "outputs": [
        {
          "internalType": "bool",
          "name": "isAssigned",
          "type": "bool"
        },
        {
          "internalType": "bool",
          "name": "hasVoted",
          "type": "bool"
        },
        {
          "internalType": "bytes32",
          "name": "votedOption",
          "type": "bytes32"
        }
      ],
      "payable": false,
      "stateMutability": "view",
      "type": "function"
    },
    {
      "constant": true,
      "inputs": [],
      "name": "topicCreator",
      "outputs": [
        {
          "internalType": "address payable",
          "name": "",
          "type": "address"
        }
      ],
      "payable": false,
      "stateMutability": "view",
      "type": "function"
    },
    {
      "constant": true,
      "inputs": [],
      "name": "winningOptionIndex",
      "outputs": [
        {
          "internalType": "uint256",
          "name": "",
          "type": "uint256"
        }
      ],
      "payable": false,
      "stateMutability": "view",
      "type": "function"
    },
    {
      "constant": false,
      "inputs": [
        {
          "internalType": "uint256",
          "name": "option",
          "type": "uint256"
        },
        {
          "internalType": "uint256",
          "name": "timeStamp",
          "type": "uint256"
        }
      ],
      "name": "voteOption",
      "outputs": [
        {
          "internalType": "bool",
          "name": "",
          "type": "bool"
        }
      ],
      "payable": true,
      "stateMutability": "payable",
      "type": "function"
    },
    {
      "constant": false,
      "inputs": [
        {
          "internalType": "bytes32",
          "name": "_option",
          "type": "bytes32"
        },
        {
          "internalType": "uint256",
          "name": "timeStamp",
          "type": "uint256"
        }
      ],
      "name": "addArbitratorVote",
      "outputs": [],
      "payable": false,
      "stateMutability": "nonpayable",
      "type": "function"
    },
    {
      "constant": false,
      "inputs": [
        {
          "internalType": "bytes32",
          "name": "_option",
          "type": "bytes32"
        }
      ],
      "name": "addJuryVote",
      "outputs": [],
      "payable": false,
      "stateMutability": "nonpayable",
      "type": "function"
    },
    {
      "constant": true,
      "inputs": [],
      "name": "checkIfSelectedArbitrator",
      "outputs": [
        {
          "internalType": "bool",
          "name": "",
          "type": "bool"
        }
      ],
      "payable": false,
      "stateMutability": "view",
      "type": "function"
    },
    {
      "constant": true,
      "inputs": [],
      "name": "getArbitratorVerdict",
      "outputs": [
        {
          "internalType": "bool",
          "name": "",
          "type": "bool"
        },
        {
          "internalType": "uint256",
          "name": "",
          "type": "uint256"
        }
      ],
      "payable": false,
      "stateMutability": "view",
      "type": "function"
    },
    {
      "constant": false,
      "inputs": [
        {
          "internalType": "uint256",
          "name": "winIndex",
          "type": "uint256"
        }
      ],
      "name": "updateArbitratorsTrustworthiness",
      "outputs": [],
      "payable": false,
      "stateMutability": "nonpayable",
      "type": "function"
    },
    {
      "constant": true,
      "inputs": [],
      "name": "getAllPendingVotePrice",
      "outputs": [
        {
          "internalType": "bytes32[]",
          "name": "",
          "type": "bytes32[]"
        }
      ],
      "payable": false,
      "stateMutability": "view",
      "type": "function"
    },
    {
      "constant": true,
      "inputs": [],
      "name": "getLastTradedPrices",
      "outputs": [
        {
          "internalType": "bytes32[]",
          "name": "",
          "type": "bytes32[]"
        }
      ],
      "payable": false,
      "stateMutability": "view",
      "type": "function"
    },
    {
      "constant": true,
      "inputs": [],
      "name": "getLoseScores",
      "outputs": [
        {
          "internalType": "bytes32[]",
          "name": "",
          "type": "bytes32[]"
        }
      ],
      "payable": false,
      "stateMutability": "view",
      "type": "function"
    },
    {
      "constant": true,
      "inputs": [],
      "name": "getWinScores",
      "outputs": [
        {
          "internalType": "bytes32[]",
          "name": "",
          "type": "bytes32[]"
        }
      ],
      "payable": false,
      "stateMutability": "view",
      "type": "function"
    },
    {
      "constant": true,
      "inputs": [
        {
          "internalType": "uint256",
          "name": "option",
          "type": "uint256"
        }
      ],
      "name": "getConfirmedTradeAddresses",
      "outputs": [
        {
          "internalType": "address payable[]",
          "name": "",
          "type": "address[]"
        }
      ],
      "payable": false,
      "stateMutability": "view",
      "type": "function"
    },
    {
      "constant": true,
      "inputs": [
        {
          "internalType": "uint256",
          "name": "option",
          "type": "uint256"
        }
      ],
      "name": "getConfirmedTradePrices",
      "outputs": [
        {
          "internalType": "bytes32[]",
          "name": "",
          "type": "bytes32[]"
        }
      ],
      "payable": false,
      "stateMutability": "view",
      "type": "function"
    },
    {
      "constant": true,
      "inputs": [],
      "name": "balanceOf",
      "outputs": [
        {
          "internalType": "uint256",
          "name": "",
          "type": "uint256"
        }
      ],
      "payable": false,
      "stateMutability": "view",
      "type": "function"
    },
    {
      "constant": true,
      "inputs": [],
      "name": "getOptions",
      "outputs": [
        {
          "internalType": "bytes32[]",
          "name": "",
          "type": "bytes32[]"
        }
      ],
      "payable": false,
      "stateMutability": "view",
      "type": "function"
    },
    {
      "constant": true,
      "inputs": [],
      "name": "getArbitrators",
      "outputs": [
        {
          "internalType": "address payable[]",
          "name": "",
          "type": "address[]"
        }
      ],
      "payable": false,
      "stateMutability": "view",
      "type": "function"
    },
    {
      "constant": true,
      "inputs": [],
      "name": "getJury",
      "outputs": [
        {
          "internalType": "address payable[]",
          "name": "",
          "type": "address[]"
        }
      ],
      "payable": false,
      "stateMutability": "view",
      "type": "function"
    },
    {
      "constant": true,
      "inputs": [
        {
          "internalType": "address",
          "name": "arbitratorAddress",
          "type": "address"
        }
      ],
      "name": "hasArbitratorVoted",
      "outputs": [
        {
          "internalType": "bool",
          "name": "",
          "type": "bool"
        }
      ],
      "payable": false,
      "stateMutability": "view",
      "type": "function"
    },
    {
      "constant": true,
      "inputs": [
        {
          "internalType": "address",
          "name": "juryAddress",
          "type": "address"
        }
      ],
      "name": "hasJuryVoted",
      "outputs": [
        {
          "internalType": "bool",
          "name": "",
          "type": "bool"
        }
      ],
      "payable": false,
      "stateMutability": "view",
      "type": "function"
    },
    {
      "constant": true,
      "inputs": [],
      "name": "getNumOfJurySelected",
      "outputs": [
        {
          "internalType": "uint256",
          "name": "",
          "type": "uint256"
        }
      ],
      "payable": false,
      "stateMutability": "view",
      "type": "function"
    },
    {
      "constant": true,
      "inputs": [],
      "name": "getLastConfirmedTradeAddresses",
      "outputs": [
        {
          "internalType": "address",
          "name": "",
          "type": "address"
        },
        {
          "internalType": "address",
          "name": "",
          "type": "address"
        },
        {
          "internalType": "address",
          "name": "",
          "type": "address"
        },
        {
          "internalType": "address",
          "name": "",
          "type": "address"
        }
      ],
      "payable": false,
      "stateMutability": "view",
      "type": "function"
    }
  ],
  "bytecode": "0x6080604052604051620032743803806200327483398181016040526101008110156200002a57600080fd5b8151602083018051604051929492938301929190846401000000008211156200005257600080fd5b9083019060208201858111156200006857600080fd5b82516401000000008111828201881017156200008357600080fd5b82525081516020918201929091019080838360005b83811015620000b257818101518382015260200162000098565b50505050905090810190601f168015620000e05780820380516001836020036101000a031916815260200191505b50604052602001805160405193929190846401000000008211156200010457600080fd5b9083019060208201858111156200011a57600080fd5b82516401000000008111828201881017156200013557600080fd5b82525081516020918201929091019080838360005b83811015620001645781810151838201526020016200014a565b50505050905090810190601f168015620001925780820380516001836020036101000a031916815260200191505b5060405260200180516040519392919084640100000000821115620001b657600080fd5b908301906020820185811115620001cc57600080fd5b8251866020820283011164010000000082111715620001ea57600080fd5b82525081516020918201928201910280838360005b8381101562000219578181015183820152602001620001ff565b5050505091909101604081815260208401519084015160609094018051919694959294935090846401000000008211156200025357600080fd5b9083019060208201858111156200026957600080fd5b82518660208202830111640100000000821117156200028757600080fd5b82525081516020918201928201910280838360005b83811015620002b65781810151838201526020016200029c565b505050509190910160405250602090810151600a80546001600160a01b038084166001600160a01b03199283161790925560008054928e169290911691909117905589519093506200030f92506001918a0190620004ba565b50855162000325906002906020890190620004ba565b5084516200033b9060039060208801906200053f565b506000600455600584905560068390558151620003609060079060208501906200057c565b50602a80546000919060ff19166001830217905550600a805461ffff60a01b1916601760a01b1760ff60b01b19168155600c805460ff1916905560095560005b85518110156200040a576040805180820190915260008082526020820152600f8260048110620003cc57fe5b825160029190910291909101908155602090910151600191820180546001600160a01b0319166001600160a01b0390921691909117905501620003a0565b5060005b8251811015620004ab5760405180606001604052806001151581526020016000151581526020016000801b815250602460008584815181106200044d57fe5b6020908102919091018101516001600160a01b03168252818101929092526040908101600020835181549385015115156101000261ff001991151560ff1990951694909417169290921782559190910151600191820155016200040e565b50505050505050505062000629565b828054600181600116156101000203166002900490600052602060002090601f016020900481019282601f10620004fd57805160ff19168380011785556200052d565b828001600101855582156200052d579182015b828111156200052d57825182559160200191906001019062000510565b506200053b929150620005e2565b5090565b8280548282559060005260206000209081019282156200052d57916020028201828111156200052d57825182559160200191906001019062000510565b828054828255906000526020600020908101928215620005d4579160200282015b82811115620005d457825182546001600160a01b0319166001600160a01b039091161782556020909201916001909101906200059d565b506200053b92915062000602565b620005ff91905b808211156200053b5760008155600101620005e9565b90565b620005ff91905b808211156200053b5780546001600160a01b031916815560010162000609565b612c3b80620006396000396000f3fe60806040526004361061021a5760003560e01c806382f8943811610123578063bfb0b608116100ab578063e6cd5a111161006f578063e6cd5a1114610778578063e6ff5096146107a8578063e8a1e12e146107fb578063f06e3e2e14610810578063fbcc1e71146108435761021a565b8063bfb0b608146106dc578063c617339b146106f1578063cc2ee19614610724578063cc7e621014610739578063d3901fb5146107635761021a565b80639e6fcc06116100f25780639e6fcc0614610619578063a6430cc014610643578063b4164e8b1461066d578063b55eb88b1461069d578063bc0da8d3146106c75761021a565b806382f8943814610599578063894c3b1f146105c557806393fc29cb146105da57806395e56a84146106045761021a565b80634852aa6d116101a657806366d4bfac1161017557806366d4bfac146104eb5780636f0f9f5e14610515578063722713f7146105455780637284e4161461055a578063729ecb071461056f5761021a565b80634852aa6d14610452578063509bd3371461049e578063516dde43146104c157806357cde0e6146104d65761021a565b80632c135b93116101ed5780632c135b931461039e5780632d978163146103c5578063409e2205146103fe578063459d6e4f14610428578063465be85f1461043d5761021a565b806306fdde031461021f578063123230df146102a957806312b8b1a3146102f2578063288fa80214610339575b600080fd5b34801561022b57600080fd5b50610234610858565b6040805160208082528351818301528351919283929083019185019080838360005b8381101561026e578181015183820152602001610256565b50505050905090810190601f16801561029b5780820380516001836020036101000a031916815260200191505b509250505060405180910390f35b3480156102b557600080fd5b506102be6108e5565b604080516001600160a01b039586168152938516602085015291841683830152909216606082015290519081900360800190f35b3480156102fe57600080fd5b506103256004803603602081101561031557600080fd5b50356001600160a01b03166109b9565b604080519115158252519081900360200190f35b34801561034557600080fd5b5061034e6109dc565b60408051602080825283518183015283519192839290830191858101910280838360005b8381101561038a578181015183820152602001610372565b505050509050019250505060405180910390f35b3480156103aa57600080fd5b506103b3610a49565b60408051918252519081900360200190f35b3480156103d157600080fd5b506103da610a4f565b604051808260038111156103ea57fe5b60ff16815260200191505060405180910390f35b34801561040a57600080fd5b506103b36004803603602081101561042157600080fd5b5035610a58565b34801561043457600080fd5b506103b3610a76565b34801561044957600080fd5b5061034e610a7c565b34801561045e57600080fd5b506104826004803603604081101561047557600080fd5b5080359060200135610ade565b604080516001600160a01b039092168252519081900360200190f35b610325600480360360408110156104b457600080fd5b5080359060200135610b13565b3480156104cd57600080fd5b506103b3610f81565b3480156104e257600080fd5b506103b3610f87565b3480156104f757600080fd5b506103b36004803603602081101561050e57600080fd5b5035610f8d565b34801561052157600080fd5b5061052a610f9f565b60408051921515835260208301919091528051918290030190f35b34801561055157600080fd5b506103b3611017565b34801561056657600080fd5b5061023461101b565b34801561057b57600080fd5b506104826004803603602081101561059257600080fd5b5035611073565b3480156105a557600080fd5b506105c3600480360360208110156105bc57600080fd5b503561109a565b005b3480156105d157600080fd5b5061034e611185565b3480156105e657600080fd5b5061034e600480360360208110156105fd57600080fd5b50356111e5565b34801561061057600080fd5b5061034e61127a565b34801561062557600080fd5b5061034e6004803603602081101561063c57600080fd5b50356112dd565b34801561064f57600080fd5b506104826004803603602081101561066657600080fd5b5035611382565b34801561067957600080fd5b506105c36004803603604081101561069057600080fd5b508035906020013561138f565b3480156106a957600080fd5b506105c3600480360360208110156106c057600080fd5b50356114bb565b3480156106d357600080fd5b5061034e611682565b3480156106e857600080fd5b5061034e6116e5565b3480156106fd57600080fd5b506103256004803603602081101561071457600080fd5b50356001600160a01b0316611748565b34801561073057600080fd5b5061034e61176b565b34801561074557600080fd5b506103b36004803603602081101561075c57600080fd5b50356117c2565b34801561076f57600080fd5b506103256117d4565b34801561078457600080fd5b506104826004803603604081101561079b57600080fd5b50803590602001356117ea565b3480156107b457600080fd5b506107db600480360360208110156107cb57600080fd5b50356001600160a01b0316611803565b604080519315158452911515602084015282820152519081900360600190f35b34801561080757600080fd5b506103b3611829565b34801561081c57600080fd5b506107db6004803603602081101561083357600080fd5b50356001600160a01b031661182f565b34801561084f57600080fd5b50610482611855565b60018054604080516020600284861615610100026000190190941693909304601f810184900484028201840190925281815292918301828280156108dd5780601f106108b2576101008083540402835291602001916108dd565b820191906000526020600020905b8154815290600101906020018083116108c057829003601f168201915b505050505081565b6000806000806108f3612a6a565b60238054600019810190811061090557fe5b600091825260209091206040805160c081018083529093600802909201918391820190839060049082845b81546001600160a01b031681526001909101906020018083116109305750505091835250506040805160808101918290526020909201919060048481019182845b815481526020019060010190808311610971575050505050815250509050610997612a8f565b5051805160208201516040830151606090930151919790965091945092509050565b6001600160a01b0316600090815260246020526040902054610100900460ff1690565b60408051600480825260a08201909252606091908290826020820160808038833901905050905060005b82811015610a4157600f8160048110610a1b57fe5b60020201548251839083908110610a2e57fe5b6020908102919091010152600101610a06565b509150505b90565b60045481565b602a5460ff1681565b60038181548110610a6557fe5b600091825260209091200154905081565b60055481565b60606008805480602002602001604051908101604052809291908181526020018280548015610ad457602002820191906000526020600020905b81546001600160a01b03168152600190910190602001808311610ab6575b5050505050905090565b60256020528160005260406000208181548110610af757fe5b6000918252602090912001546001600160a01b03169150829050565b6000600654821115610b2f57610b27611864565b506000610f7b565b3360009081526024602052604090205460ff1615610b4c57600080fd5b6000602a5460ff166003811115610b5f57fe5b14610b6957600080fd5b34670de0b6b3a76400008110610b7e57600080fd5b80600f8560048110610b8c57fe5b600202015410610b9b57600080fd5b600a546040805163310ad0b760e11b815233600482015290516001600160a01b03909216916000918391636215a16e91602480820192602092909190829003018186803b158015610beb57600080fd5b505afa158015610bff573d6000803e3d6000fd5b505050506040513d6020811015610c1557600080fd5b5051905080610c2357600080fd5b600f8660048110610c3057fe5b60020201600101546001600160a01b03166108fc600f8860048110610c5157fe5b60020201546040518115909202916000818181858888f19350505050158015610c7e573d6000803e3d6000fd5b50670de0b6b3a7640000610c90612a8f565b610c98612a8f565b60005b6004811015610d2a57898114610d2257600f8160048110610cb857fe5b600202015490930392600f8160048110610cce57fe5b60020201600101546001600160a01b0316838260048110610ceb57fe5b6001600160a01b039092166020929092020152600f8160048110610d0b57fe5b6002020154828260048110610d1c57fe5b60200201525b600101610c9b565b50336000908152600d60205260409020805460ff19166001179055858311610f125733828a60048110610d5957fe5b6001600160a01b03909216602092909202015282818a60048110610d7957fe5b6020020152610d86612a6a565b5060408051808201909152828152602081018290526023805460018101808355600092909252825183916008027fd57b2b5166478fd4318d2acc6cc2c704584312bdd8781b32d5d06abda57f42300190610de39082906004612aad565b506020820151610df99060048084019190612b05565b506000925050505b6004811015610e51578a811415610e27578460178260048110610e2057fe5b0155610e49565b600f8160048110610e3457fe5b600202015460178260048110610e4657fe5b01555b600101610e01565b50604051339085890380156108fc02916000818181858888f19350505050158015610e80573d6000803e3d6000fd5b50610e89611895565b60005b6004811015610ef0576000600f8260048110610ea457fe5b60020201556000600f8260048110610eb857fe5b6002020160010160006101000a8154816001600160a01b0302191690836001600160a01b031602179055508080600101915050610e8c565b505060048054670de0b6b3a76400000190555060019550610f7b945050505050565b610f1a612b3f565b506040805180820190915286815233602082015280600f8b60048110610f3c57fe5b825160029190910291909101908155602090910151600190910180546001600160a01b0319166001600160a01b03909216919091179055505050505050505b92915050565b60065481565b60095481565b60296020526000908152604090205481565b600080808080805b60035481101561100d5760006026600060038481548110610fc457fe5b9060005260206000200154815260200190815260200160002054905084811115610ff75780945060009250819350611004565b8481141561100457600192505b50600101610fa7565b5093509150509091565b4790565b6002805460408051602060018416156101000260001901909316849004601f810184900484028201840190925281815292918301828280156108dd5780601f106108b2576101008083540402835291602001916108dd565b6008818154811061108057fe5b6000918252602090912001546001600160a01b0316905081565b6002602a5460ff1660038111156110ad57fe5b146110b757600080fd5b33600090815260276020526040902054610100900460ff16156110d957600080fd5b3360009081526027602052604090205460ff166110f557600080fd5b336000818152602760209081526040808320805461ff001916610100178155600190810186905585845260288352818420805480830182559085528385200180546001600160a01b03191690951790945584835260299091529020805482019055600c805460ff818116909301831660ff199091161790819055600b549116141561118257611182611af3565b50565b60606007805480602002602001604051908101604052809291908181526020018280548015610ad4576020028201919060005260206000209081546001600160a01b03168152600190910190602001808311610ab6575050505050905090565b602354604080518281526020808402820101909152606091908290828015611217578160200160208202803883390190505b50905060005b82811015611272576023818154811061123257fe5b9060005260206000209060080201600401856004811061124e57fe5b015460001b82828151811061125f57fe5b602090810291909101015260010161121d565b509392505050565b60408051600480825260a08201909252606091908290826020820160808038833901905050905060005b82811015610a4157601781600481106112b957fe5b015460001b8282815181106112ca57fe5b60209081029190910101526001016112a4565b60235460408051828152602080840282010190915260609190829082801561130f578160200160208202803883390190505b50905060005b82811015611272576023818154811061132a57fe5b9060005260206000209060080201600001856004811061134657fe5b015482516001600160a01b039091169083908390811061136257fe5b6001600160a01b0390921660209283029190910190910152600101611315565b6007818154811061108057fe5b600654811161139d57600080fd5b6000602a5460ff1660038111156113b057fe5b14156113be576113be611864565b6001602a5460ff1660038111156113d157fe5b146113db57600080fd5b33600090815260246020526040902054610100900460ff16156113fd57600080fd5b3360009081526024602052604090205460ff1661141957600080fd5b336000818152602460209081526040808320805461010061ff0019909116178155600190810187905586845260258352818420805480830182559085528385200180546001600160a01b03191690951790945585835260269091529020805482019055600a805460ff60b01b19811660ff600160b01b928390048116909401841682021791829055600754910490911614156114b7576114b7611af3565b5050565b600a546001600160a01b031660005b60035481101561167d5760005b60256000600384815481106114e857fe5b906000526020600020015481526020019081526020016000208054905081101561167457838214156115c257826001600160a01b031663457dac02602560006003868154811061153457fe5b90600052602060002001548152602001908152602001600020838154811061155857fe5b6000918252602082200154604080516001600160e01b031960e086901b1681526001600160a01b039092166004830152516024808301939282900301818387803b1580156115a557600080fd5b505af11580156115b9573d6000803e3d6000fd5b5050505061166c565b826001600160a01b03166399667bdc60256000600386815481106115e257fe5b90600052602060002001548152602001908152602001600020838154811061160657fe5b6000918252602082200154604080516001600160e01b031960e086901b1681526001600160a01b039092166004830152516024808301939282900301818387803b15801561165357600080fd5b505af1158015611667573d6000803e3d6000fd5b505050505b6001016114d7565b506001016114ca565b505050565b60408051600480825260a08201909252606091908290826020820160808038833901905050905060005b82811015610a4157601f81600481106116c157fe5b015460001b8282815181106116d257fe5b60209081029190910101526001016116ac565b60408051600480825260a08201909252606091908290826020820160808038833901905050905060005b82811015610a4157601b816004811061172457fe5b015460001b82828151811061173557fe5b602090810291909101015260010161170f565b6001600160a01b0316600090815260276020526040902054610100900460ff1690565b60606003805480602002602001604051908101604052809291908181526020018280548015610ad457602002820191906000526020600020905b8154815260200190600101908083116117a5575050505050905090565b60266020526000908152604090205481565b3360009081526024602052604090205460ff1690565b60286020528160005260406000208181548110610af757fe5b6027602052600090815260409020805460019091015460ff808316926101009004169083565b600b5490565b6024602052600090815260409020805460019091015460ff808316926101009004169083565b6000546001600160a01b031681565b6000602a5460ff16600381111561187757fe5b141561188b57602a805460ff191660011790555b611893611b98565b565b600a546001600160a01b03166118a9612a6a565b6023805460001981019081106118bb57fe5b600091825260209091206040805160c081018083529093600802909201918391820190839060049082845b81546001600160a01b031681526001909101906020018083116118e65750505091835250506040805160808101918290526020909201919060048481019182845b81548152602001906001019080831161192757505050505081525050905060008090505b600481101561167d578151600090826004811061196457fe5b602002015190506001600160a01b03811615611aea57611982612b56565b60408051633d59f85b60e01b81526001600160a01b038481166004830152825190881692633d59f85b9260248082019391829003018186803b1580156119c757600080fd5b505afa1580156119db573d6000803e3d6000fd5b505050506040513d601f19601f820116820180604052506040811015611a0057600080fd5b50604080516001600160a01b03851681529192507f405f4ccba46549b1dbd2e5bfbf7248e032b3b50a1a6d65140c30c83a176d192e9184918491906020820190839080838360005b83811015611a60578181015183820152602001611a48565b505050509050019250505060405180910390a160178360048110611a8057fe5b0154815102601b8460048110611a9257fe5b015401601b8460048110611aa257fe5b015560178360048110611ab157fe5b015460010381600160028110611ac357fe5b602002015102601f8460048110611ad657fe5b015401601f8460048110611ae657fe5b0155505b5060010161194b565b6000602a5460ff166003811115611b0657fe5b14158015611b2557506003602a5460ff166003811115611b2257fe5b14155b611b2e57600080fd5b6002602a5460ff166003811115611b4157fe5b1415611b68576000611b51611ce8565b60098190559050611b6181611d3f565b5050611893565b600080611b73610f9f565b9150915081611b90576009819055611b8a81611d3f565b506114b7565b6114b761208d565b60005b6004811015611182576000600f8260048110611bb357fe5b60020201600101546001600160a01b03161415611bcf57611ce0565b6000600f8260048110611bde57fe5b60020201600101546001600160a01b031690506000600f8360048110611c0057fe5b60020201546001600160a01b0383166000908152600e602052604090205490915060ff1615611c30575050611ce0565b6000600f8460048110611c3f57fe5b60020201556000600f8460048110611c5357fe5b60020201600190810180546001600160a01b0319166001600160a01b039384161790559083166000818152600e6020526040808220805460ff1916909417909355915190916108fc841502918491818181858888f19350505050158015611cbe573d6000803e3d6000fd5b50506001600160a01b03166000908152600e60205260409020805460ff191690555b600101611b9b565b60008080805b600354811015610a415760006029600060038481548110611d0b57fe5b9060005260206000200154815260200190815260200160002054905083811115611d36578093508192505b50600101611cee565b600080602a5460ff166003811115611d5357fe5b14158015611d7257506003602a5460ff166003811115611d6f57fe5b14155b611d7b57600080fd5b600a546001600160a01b03166000805b6023548110156120385760005b60238281548110611da557fe5b50600052600481101561202f5760006001600160a01b031660238381548110611dca57fe5b90600052602060002090600802016000018260048110611de657fe5b01546001600160a01b0316146120275782600a01925085811415611f3757836001600160a01b031663c51795d160238481548110611e2057fe5b90600052602060002090600802016000018360048110611e3c57fe5b0154602380546001600160a01b0390921691670de0b6b3a7640000919087908110611e6357fe5b90600052602060002090600802016004018560048110611e7f57fe5b015460640281611e8b57fe5b046064036040518363ffffffff1660e01b815260040180836001600160a01b03166001600160a01b0316815260200182815260200192505050600060405180830381600087803b158015611ede57600080fd5b505af1158015611ef2573d6000803e3d6000fd5b50505050611f3260238381548110611f0657fe5b90600052602060002090600802016000018260048110611f2257fe5b01546001600160a01b03166120a2565b612027565b836001600160a01b031663d3893d4560238481548110611f5357fe5b90600052602060002090600802016000018360048110611f6f57fe5b0154602380546001600160a01b0390921691670de0b6b3a7640000919087908110611f9657fe5b90600052602060002090600802016004018560048110611fb257fe5b015460640281611fbe57fe5b046040518363ffffffff1660e01b815260040180836001600160a01b03166001600160a01b0316815260200182815260200192505050600060405180830381600087803b15801561200e57600080fd5b505af1158015612022573d6000803e3d6000fd5b505050505b600101611d98565b50600101611d8b565b50612042846114bb565b61204b84612131565b6002602a5460ff16600381111561205e57fe5b146120705761206b61220e565b612079565b612079846122fc565b602a805460ff191660031790559392505050565b602a805460ff19166002179055611893612470565b6001600160a01b0381166000908152600e602052604090205460ff16611182576001600160a01b0381166000818152600e6020526040808220805460ff1916600117905551670d99a8cec7e200009082818181858883f1935050505015801561210f573d6000803e3d6000fd5b506001600160a01b03166000908152600e60205260409020805460ff19169055565b600060646004548161213f57fe5b04905060006003838154811061215157fe5b600091825260208083209091015480835260269091526040822054909250905b8181101561220757600083815260256020526040812080548390811061219357fe5b60009182526020808320909101546001600160a01b0316808352600e9091526040909120805460ff191660011790559050806108fc8487816121d157fe5b049081150290604051600060405180830381858888f193505050501580156121fd573d6000803e3d6000fd5b5050600101612171565b5050505050565b600080546001600160a01b03168152600e602052604090205460ff1661189357600080546001600160a01b039081168252600e60205260408220805460ff1916600117905590546004549116906108fc90606490049081150290604051600060405180830381858888f1935050505015801561228e573d6000803e3d6000fd5b50600a54600080546005546040805163175473d760e11b81526001600160a01b03938416600482015260248101929092525191909316928392632ea8e7ae9260448084019382900301818387803b1580156122e857600080fd5b505af1158015612207573d6000803e3d6000fd5b600a546004546001600160a01b039091169060009060649004905060006003848154811061232657fe5b600091825260208083209091015480835260299091526040822054909250905b8181101561246857600083815260286020526040812080548390811061236857fe5b60009182526020808320909101546001600160a01b0316808352600e90915260408220805460ff1916600117905591508386816123a157fe5b049050866001600160a01b0316632ea8e7ae8386600554816123bf57fe5b046040518363ffffffff1660e01b815260040180836001600160a01b03166001600160a01b0316815260200182815260200192505050600060405180830381600087803b15801561240f57600080fd5b505af1158015612423573d6000803e3d6000fd5b50506040516001600160a01b038516925083156108fc02915083906000818181858888f1935050505015801561245d573d6000803e3d6000fd5b505050600101612346565b505050505050565b600a546040805163193ca33d60e31b815290516001600160a01b0390921691606091839163c9e519e891600480820192600092909190829003018186803b1580156124ba57600080fd5b505afa1580156124ce573d6000803e3d6000fd5b505050506040513d6000823e601f3d908101601f1916820160405260208110156124f757600080fd5b810190808051604051939291908464010000000082111561251757600080fd5b90830190602082018581111561252c57600080fd5b825186602082028301116401000000008211171561254957600080fd5b82525081516020918201928201910280838360005b8381101561257657818101518382015260200161255e565b50505050905001604052505050905060056007805490508251031161271557600060078054905082510390506060816040519080825280602002602001820160405280156125ce578160200160208202803883390190505b5090506000805b84518110156126f35760008582815181106125ec57fe5b6020908102919091018101516001600160a01b0381166000908152602490925260409091205490915060ff168061263057506000546001600160a01b038281169116145b8061265357506001600160a01b0381166000908152600d602052604090205460ff165b1561265e57506126eb565b604080516060810182526001808252600060208084018281528486018381526001600160a01b038816845260279092529490912092518354945115156101000261ff001991151560ff1990961695909517169390931782559151910155835181908590859081106126cb57fe5b6001600160a01b0390921660209283029190910190910152506001909101905b6001016125d5565b508151612707906008906020850190612b74565b50600b555061189392505050565b60608151600a02604051908082528060200260200182016040528015612745578160200160208202803883390190505b5090506000805b83518110156128b157600084828151811061276357fe5b6020908102919091018101516001600160a01b0381166000908152602490925260409091205490915060ff16806127a757506000546001600160a01b038281169116145b806127ca57506001600160a01b0381166000908152600d602052604090205460ff165b156127d557506128a9565b6000866001600160a01b03166351d0ea37836040518263ffffffff1660e01b815260040180826001600160a01b03166001600160a01b0316815260200191505060606040518083038186803b15801561282d57600080fd5b505afa158015612841573d6000803e3d6000fd5b505050506040513d606081101561285757600080fd5b50602001519050600a60ff82160460005b8160ff168110156128a4578387878151811061288057fe5b6001600160a01b039092166020928302919091019091015260019586019501612868565b505050505b60010161274c565b5060408051600580825260c082019092526060916020820160a080388339019050509050600060335b6005821080156128ed575060008160ff16115b15612a4b57600a5460408051426020808301919091523360601b82840152600160a01b90930460f01b6001600160f01b0319166054820152815180820360360181526056909101909152805191012060009085908161294857fe5b600a8054600161ffff600160a01b808404821692909201160261ffff60a01b199091161790558751919006915060009087908390811061298457fe5b6020908102919091018101516001600160a01b0381166000908152602790925260409091205490915060ff16612a4057604080516060810182526001808252600060208084018281528486018381526001600160a01b038816845260279092529490912092518354945115156101000261ff001991151560ff199096169590951716939093178255915191015584518190869086908110612a2157fe5b6001600160a01b03909216602092830291909101909101526001909301925b5050600019016128da565b8251612a5e906008906020860190612b74565b5050600b555050505050565b6040518060400160405280612a7d612a8f565b8152602001612a8a612a8f565b905290565b60405180608001604052806004906020820280388339509192915050565b8260048101928215612af5579160200282015b82811115612af557825182546001600160a01b0319166001600160a01b03909116178255602090920191600190910190612ac0565b50612b01929150612bc8565b5090565b8260048101928215612b33579160200282015b82811115612b33578251825591602001919060010190612b18565b50612b01929150612bec565b604080518082019091526000808252602082015290565b60405180604001604052806002906020820280388339509192915050565b828054828255906000526020600020908101928215612af55791602002820182811115612af557825182546001600160a01b0319166001600160a01b03909116178255602090920191600190910190612ac0565b610a4691905b80821115612b015780546001600160a01b0319168155600101612bce565b610a4691905b80821115612b015760008155600101612bf256fea265627a7a72315820a6d2600509d5872b1725f9a5b9a324962ec8f6aeb51d76b733edaa21d497795664736f6c63430005100032",
  "source": "// SPDX-License-Identifier: MIT\npragma solidity >=0.4.21 <=0.7.0;\nimport \"./PredictionMarket.sol\";\n\ncontract Topic {\n  // Public attirbutes\n  address payable public topicCreator;\n  string public name;\n  string public description;\n  bytes32[] public options;\n  uint public marketCap;\n  uint public creatorBond;\n  uint256 public expiryDate;\n  address payable[] public arbitrators;\n  address payable[] public jury;\n  uint public winningOptionIndex;\n\n  // Private attributes\n  address parentContract;\n  uint16 nonce;\n  uint8 numArbitratorVoted;\n  uint numOfJury;\n  uint8 numJuryVoted;\n  mapping (address => bool) hasBoughtShare;\n\n  // Guard against reentrancy => applicable for all receivers of ether\n  mapping (address => bool) hasReceivedPayout;\n\n  // Pending votes\n  voteStruct[4] pendingVotes;\n  struct voteStruct {\n    uint price; \n    address payable voter;\n  }\n\n  // Last Traded Prices\n  uint[4] lastTradedPrices;\n\n  // weighted votes\n  uint[4] winScores;\n  uint[4] loseScores;\n\n  // Successful trades\n  trade[] confirmedTrades;\n  struct trade {\n    address payable[4] shareOwners;\n    uint[4] price;\n  }\n\n  // Arbitrator voting related variables\n  struct SelectedArbitrator {\n        bool isAssigned;\n        bool hasVoted;\n        bytes32 votedOption;\n  }\n\n  mapping (address => SelectedArbitrator) public selectedArbitrators;\n  mapping (bytes32 => address[]) public arbitratorsVotes;\n  mapping (bytes32 => uint) public countofArbVotes;\n\n  // Jury voting related variables\n  struct SelectedJury {\n      bool isAssigned;\n      bool hasVoted;\n      bytes32 votedOption;\n  }\n  mapping (address => SelectedJury) public selectedJurys;\n  mapping (bytes32 => address[]) public jurysVotes;\n  mapping (bytes32 => uint) public countofJuryVotes;\n\n  // State of contract\n  // 0 => Open, 1 => Arbitrator Voting, 2 => Jury Voting, 3 => Resolved / closed\n  enum Phase { Open, Verification, Jury, Resolved }\n  Phase public contractPhase;\n\n  // NOTE: Ignore linter warning about visibility modifier being ignored. \n  // It is required for successful compilation\n  constructor (\n      address payable _creator, string memory _name, string memory _description, bytes32[] memory _options, \n      uint _bondValue, uint256 _expiryDate, address payable[] memory _arbitrators, address _predictionMarket\n    ) public payable {\n        parentContract = _predictionMarket;\n        topicCreator = _creator;\n        name = _name;\n        description = _description;\n        options = _options;\n        marketCap = 0;\n        creatorBond = _bondValue;\n        expiryDate = _expiryDate;\n        arbitrators = _arbitrators;\n        contractPhase = Phase.Open;\n\n        nonce = 23; // NOTE: Random number for the nonce\n        numArbitratorVoted = 0;\n        numJuryVoted = 0;\n        winningOptionIndex = 10; // Assign random value not within [0, 3]\n\n        // init pending votes\n        for (uint i = 0; i < _options.length; i++) {\n          pendingVotes[i] = voteStruct(0, address(0));\n        }\n\n        for (uint j = 0; j < _arbitrators.length; j++) {\n          selectedArbitrators[_arbitrators[j]] = SelectedArbitrator(true, false, bytes32(0));\n        }\n    }\n\n  function updateWeightedVotes() private {\n    PredictionMarket pm = PredictionMarket(parentContract);\n    trade memory lastTrade = confirmedTrades[confirmedTrades.length - 1];\n    for(uint i=0; i<4; i++){\n      address voterAddress = lastTrade.shareOwners[i]; \n      \n      if(voterAddress != address(0)){\n        // getVotersReputation only accepts a valid voterAddress. \n        uint[2] memory winLose = pm.getVotersReputation(voterAddress);   \n        emit UpdateWeightedVotes(voterAddress, winLose);\n        winScores[i] = winScores[i] + (winLose[0] * lastTradedPrices[i]);\n        loseScores[i] = loseScores[i] + (winLose[1] * (1 - lastTradedPrices[i]));\n      }\n    }\n  }\n     \n  function voteOption(uint option, uint256 timeStamp) public payable returns (bool) {\n    if (timeStamp > expiryDate) {\n      openPhaseToVerificationPhase();\n      return false;\n    }\n    require(!selectedArbitrators[msg.sender].isAssigned);\n    require(contractPhase == Phase.Open);\n\n    uint amount = msg.value;\n    require(msg.value < 1 ether);\n    // Reject the vote if it is lower than the last available vote\n    require(pendingVotes[option].price <  amount);\n\n    // Check if the voter is valid\n    PredictionMarket pm = PredictionMarket(parentContract);\n    bool validTrader = pm.checkValidTrader(msg.sender);\n    require(validTrader);\n\n    // If the vote is higher than the last available price, send money back to the previous voter\n    pendingVotes[option].voter.transfer(pendingVotes[option].price);\n\n    // Balance to decide if the vote goes through\n    uint balance = 1 ether; \n\n    // Entry to insert into the confirmed trades if vote goes through\n    address payable[4] memory tempTrade;\n    uint[4] memory tempPrice;\n\n    for(uint i=0; i< 4; i++){\n      if(i != option){\n        balance = balance - pendingVotes[i].price; \n        tempTrade[i] = pendingVotes[i].voter;\n        tempPrice[i] = pendingVotes[i].price;\n      }\n    }\n\n    // Update hasBoughtShare\n    hasBoughtShare[msg.sender] = true;\n    \n    // If vote can go through\n    if(balance <= amount){\n      \n      // 1) Confirm the trade by putting it into trade confirmed\n      tempTrade[option] = msg.sender;\n      tempPrice[option] = balance;\n      trade memory tradeConfirmed = trade(tempTrade, tempPrice);\n      confirmedTrades.push(tradeConfirmed);\n      \n      // 2) Update the lastTradedPrices\n      for(uint i=0; i< 4; i++){\n        if(i == option){\n          lastTradedPrices[i] = balance;\n        }\n        else{\n          lastTradedPrices[i]= pendingVotes[i].price;\n        }\n      }\n      \n\n      // 3) Send the remaining money back to the sender\n      msg.sender.transfer(amount - balance);\n\n      // 4) Update the weighted votes according to the last trade\n      updateWeightedVotes();\n\n      // 5) Reset the pending votes instance\n      for(uint i =0; i< 4; i++){\n        pendingVotes[i].price = 0;\n        pendingVotes[i].voter = address(0);\n      }\n\n      // 6) Add to market cap for future payouts calculations\n      marketCap += 1 ether;\n      return true;\n    }\n\n    // If vote cannot go through\n    else {\n      // Update the pending votes\n      voteStruct memory tempVote = voteStruct(amount, msg.sender); \n      pendingVotes[option] = tempVote;\n    }\n  }\n\n  function openPhaseToVerificationPhase() internal { \n    if (contractPhase == Phase.Open) { \n      contractPhase = Phase.Verification;\n    }\n    refundPendingVotes();\n  }\n\n  function refundPendingVotes() internal {\n    for(uint i = 0; i< 4; i++) {\n      if (pendingVotes[i].voter == address(0)) {\n        continue;\n      }\n      address payable refundAddress = pendingVotes[i].voter;\n      uint amount = pendingVotes[i].price;\n      if (hasReceivedPayout[refundAddress]) {\n        continue;\n      }\n      pendingVotes[i].price = 0;\n      pendingVotes[i].voter = address(0);\n      hasReceivedPayout[refundAddress] = true;\n      refundAddress.transfer(amount);\n      hasReceivedPayout[refundAddress] = false;\n    }\n  }\n\n  function addArbitratorVote(bytes32 _option, uint256 timeStamp) public { \n    // Shift contract phase\n    require(timeStamp > expiryDate);\n    if (contractPhase == Phase.Open) {\n      openPhaseToVerificationPhase();\n    }\n    require(contractPhase == Phase.Verification);\n    require(!selectedArbitrators[msg.sender].hasVoted); //no double voting\n    require(selectedArbitrators[msg.sender].isAssigned);\n    selectedArbitrators[msg.sender].hasVoted = true;\n    selectedArbitrators[msg.sender].votedOption = _option;\n    arbitratorsVotes[_option].push(msg.sender);\n    countofArbVotes[_option]++;\n\n    // Trigger resolve if all selected arbitrators have voted\n    numArbitratorVoted++;\n    if (numArbitratorVoted == arbitrators.length) {\n      resolve();\n    }\n  }\n\n  function addJuryVote(bytes32 _option) public { \n    require(contractPhase == Phase.Jury); // require it to be in jury phase\n    require(!selectedJurys[msg.sender].hasVoted); //no double voting\n    require(selectedJurys[msg.sender].isAssigned);\n    selectedJurys[msg.sender].hasVoted = true;\n    selectedJurys[msg.sender].votedOption = _option;\n    jurysVotes[_option].push(msg.sender);\n    countofJuryVotes[_option]++;\n\n    // Trigger resolve if all selected jury have voted\n    numJuryVoted++;\n    if (numJuryVoted == numOfJury) {\n      resolve();\n    }\n  }\n\n  // Getter function for test\n  function checkIfSelectedArbitrator() public view returns (bool) {\n    return selectedArbitrators[msg.sender].isAssigned;\n  }\n\n  /*\n  resolve() will be called after all selected arbitrators have voted for the truth\n  */\n\n  function resolve() internal { \n    require(contractPhase != Phase.Open && contractPhase != Phase.Resolved);\n    if(contractPhase == Phase.Jury){ \n      uint finalWinIndex = getJuryVerdict();\n      winningOptionIndex = finalWinIndex;\n      resolveWithoutTie(finalWinIndex);\n      return;\n    }\n    \n    (bool hasTie, uint winIndex) = getArbitratorVerdict();\n    if (!hasTie) {\n      winningOptionIndex = winIndex;\n      resolveWithoutTie(winIndex);\n    } else {\n      resolveWithTie();\n    }\n  }\n\n  function getJuryVerdict() internal view returns (uint) {\n    uint largest = 0;\n    uint winningOption;\n    for (uint i = 0; i < options.length; i++){\n      uint temp = countofJuryVotes[options[i]];\n      if (temp > largest){\n        largest = temp;\n        winningOption = i;\n      }\n    }\n    return winningOption;\n  }\n\n  function getArbitratorVerdict() public view returns (bool,uint){\n    uint largest = 0;\n    uint winningOption;\n    bool hasTie = false;\n    for (uint i =0; i < options.length; i++){\n      uint temp = countofArbVotes[options[i]];\n      if (temp > largest){\n        largest = temp;\n        hasTie = false;\n        winningOption = i;\n      } else if (temp == largest){\n        hasTie = true;\n      }\n    }\n    return (hasTie, winningOption);\n  }\n\n  function updateArbitratorsTrustworthiness(uint winIndex) public {\n    PredictionMarket marketInstance = PredictionMarket(parentContract);\n    for (uint o=0; o < options.length; o++){\n        for (uint i=0; i<arbitratorsVotes[options[o]].length; i++){\n          if (o == winIndex){\n            marketInstance.updateHonestTrustworthiness(arbitratorsVotes[options[o]][i]);\n          } else {\n            marketInstance.updateDishonestTrustworthiness(arbitratorsVotes[options[o]][i]);\n          }\n        }\n      }\n  }\n\n  function resolveWithoutTie(uint winIndex) internal returns(uint) { \n    require(contractPhase != Phase.Open && contractPhase != Phase.Resolved); // Check required as function is public\n    PredictionMarket marketInstance = PredictionMarket(parentContract);\n    uint temp = 0;\n    \n    for(uint i = 0; i<confirmedTrades.length; i++){\n      for(uint j = 0; j<confirmedTrades[i].shareOwners.length; j++){\n        if (confirmedTrades[i].shareOwners[j] != address(uint160(0x0))){\n          temp = temp + 10;\n          if(j == winIndex){\n            marketInstance.updateWinScore(confirmedTrades[i].shareOwners[j], 100-(100*confirmedTrades[i].price[j]/1000000000000000000));\n            payoutToWinners(confirmedTrades[i].shareOwners[j]);\n          } else {\n            marketInstance.updateLoseScore(confirmedTrades[i].shareOwners[j], 100*confirmedTrades[i].price[j]/1000000000000000000);\n          }\n        }\n      }\n    }\n\n    updateArbitratorsTrustworthiness(winIndex);\n\n    payoutToArbitrators(winIndex);\n    if (contractPhase != Phase.Jury) {\n      payoutToCreator();\n    } else {\n      payoutToJury(winIndex);\n    }\n    contractPhase = Phase.Resolved;\n    return temp;\n  }\n\n  function payoutToCreator() internal {\n    if (!hasReceivedPayout[topicCreator]) {\n      hasReceivedPayout[topicCreator] = true;\n      topicCreator.transfer(uint(marketCap) / uint(100));\n      PredictionMarket marketInstance = PredictionMarket(parentContract);\n      marketInstance.transferCreatorBond(topicCreator, uint(creatorBond));\n    }\n  }\n\n  function payoutToJury(uint winIndex) internal {\n    PredictionMarket marketInstance = PredictionMarket(parentContract);\n\n    // Creator bond is forfeited to the jury\n    uint juryShare = (uint(marketCap) / uint(100)); // integer division\n    bytes32 winningOption = options[winIndex];\n    uint numWinners = countofJuryVotes[winningOption];\n    for (uint i = 0; i < numWinners; i++) {\n      address payable winningJury = address(uint160(jurysVotes[winningOption][i]));\n      hasReceivedPayout[winningJury] = true;\n      uint transferAmount = uint(juryShare) / uint(numWinners);\n      marketInstance.transferCreatorBond(winningJury, (uint(creatorBond) / numWinners));\n      winningJury.transfer(transferAmount);\n    }\n  }\n\n  function payoutToArbitrators(uint winIndex) internal {\n    uint arbitratorShare = uint(marketCap) / uint(100); // integer division\n    bytes32 winningOption = options[winIndex];\n    uint numWinners = countofArbVotes[winningOption];\n    for (uint i = 0; i < numWinners; i++) {\n      address payable winningArbitrator = address(uint160(arbitratorsVotes[winningOption][i]));\n      hasReceivedPayout[winningArbitrator] = true;\n      winningArbitrator.transfer(uint(arbitratorShare) / uint(numWinners));\n    }\n  }\n\n  function payoutToWinners(address payable winner) internal {\n    if (!hasReceivedPayout[winner]) {\n      hasReceivedPayout[winner] = true;\n      winner.transfer(0.98 ether);\n      hasReceivedPayout[winner] = false; // set back to false in case trader bought more than 1 share\n    }\n  }\n \n  function resolveWithTie() internal {\n    contractPhase = Phase.Jury;\n    selectJury();\n  }\n\n  function selectJury() internal {\n    PredictionMarket marketInstance = PredictionMarket(parentContract);\n    address payable[] memory allArbitrators = marketInstance.getAllArbitrators();\n\n    // If there are less than 5 remaining arbitrators, select all of them as jury\n    // Topic creator is excluded from selection as well\n    if (allArbitrators.length - arbitrators.length <= 5) {\n      uint diff = allArbitrators.length - arbitrators.length;\n      address payable[] memory remainingArbitrators = new address payable[](diff);\n      uint ptr = 0;\n      for (uint k = 0; k < allArbitrators.length; k++) {\n        address payable arb = allArbitrators[k];\n        if (selectedArbitrators[arb].isAssigned || arb == topicCreator || hasBoughtShare[arb]) {\n          continue;\n        }\n        selectedJurys[arb] = SelectedJury(true, false, bytes32(0));\n        remainingArbitrators[ptr] = arb;\n        ptr++;\n      }\n      // If less than diff arbitrators are selected (i.e. one of the remaining is the topic creator)\n      // last address will be address(0)\n      jury = remainingArbitrators;\n      numOfJury = ptr; // Ptr will indicate how many jury were selected in the end\n      return;\n    }\n\n    // Else, create ballot where number of chances is proportional to the arbitrator's trustworthiness\n    address payable[] memory ballot = new address payable[](allArbitrators.length * 10); // Max length is when all arbitrators are at 100 score\n    uint ballotPointer = 0;\n\n    for (uint i = 0; i < allArbitrators.length; i++) {\n      address payable arbitrator = allArbitrators[i];\n      if (selectedArbitrators[arbitrator].isAssigned || arbitrator == topicCreator || hasBoughtShare[arbitrator]) {\n        continue;\n      }\n      (,uint8 trustworthiness,) = marketInstance.arbitrators(arbitrator); // Access trustworthiness score of struct\n      uint8 chance = trustworthiness / uint8(10);\n      for (uint j = 0; j < chance; j++) {\n        ballot[ballotPointer] = arbitrator;\n        ballotPointer++;\n      }\n    }\n\n    // Select random jury from the ballot\n    // Rechoose if address is already selected in the jury\n    address payable[] memory juryMemory = new address payable[](5);\n    uint juryPointer = 0;\n    // Max tries is bounded by 51 => For 1st 4 jury, repeated hit their address again = 4 * 10, \n    // 10 additional tries if creator is arbitrator, hence 51st try is guaranteed to resolve\n    uint8 triesLeft = 51; \n    while (juryPointer < 5 && triesLeft > 0) {\n      uint next = uint(keccak256(abi.encodePacked(block.timestamp, msg.sender, nonce))) % ballotPointer;\n      nonce++;\n      address payable potential = ballot[next];\n      if (!selectedJurys[potential].isAssigned) {\n        selectedJurys[potential] = SelectedJury(true, false, bytes32(0));\n        juryMemory[juryPointer] = potential;\n        juryPointer++;\n      }\n      triesLeft--;\n    }\n    jury = juryMemory;\n    numOfJury = juryPointer; // Jury pointer would indicate number of jury members finally selected. Should be 5 but can be lower in edge cases\n  }\n\n  // ===================================================\n  // Getters\n  // ===================================================\n\n  function getAllPendingVotePrice() view public returns(bytes32[] memory){\n    uint len = pendingVotes.length;\n    bytes32[] memory bytesArray = new bytes32[](len);\n    for (uint i = 0; i < len; i++) {\n      bytesArray[i] = bytes32(pendingVotes[i].price);\n    }\n    return bytesArray;\n  } \n\n  function getLastTradedPrices() view public returns(bytes32[] memory){\n    uint len = lastTradedPrices.length;\n    bytes32[] memory bytesArray = new bytes32[](len);\n    for (uint i = 0; i < len; i++) {\n      bytesArray[i] = bytes32(lastTradedPrices[i]);\n    }\n    return bytesArray;\n  }\n\n// Function will return an array of 8 elements in total: [win0, lose0, win1, lose1...]\n  function getLoseScores() view public returns(bytes32[] memory){\n    uint len = loseScores.length;\n    bytes32[] memory bytesArray = new bytes32[](len);\n    for (uint i = 0; i < len; i++) {\n      bytesArray[i] = bytes32(loseScores[i]);\n    }\n    return bytesArray;\n  }\n\n  // Function will return an array of 8 elements in total: [win0, lose0, win1, lose1...]\n  function getWinScores() view public returns(bytes32[] memory){\n    uint len = loseScores.length;\n    bytes32[] memory bytesArray = new bytes32[](len);\n    for (uint i = 0; i < len; i++) {\n      bytesArray[i] = bytes32(winScores[i]);\n    }\n    return bytesArray;\n  }\n\n  // Gets all the addresses for the people who voted for that option\n  function getConfirmedTradeAddresses(uint option) public view returns (address payable[] memory){\n    uint len = confirmedTrades.length;\n    address payable[] memory addArray = new address payable[](len);\n    for (uint i = 0; i < len; i++) {\n      addArray[i] = confirmedTrades[i].shareOwners[option];\n    }\n    return addArray;\n  }\n\n  // Gets all the addresses for the people who voted for that option\n  function getConfirmedTradePrices(uint option) public view returns (bytes32[] memory){\n    uint len = confirmedTrades.length;\n    bytes32[] memory bytesArray = new bytes32[](len);\n    for (uint i = 0; i < len; i++) {\n      bytesArray[i] = bytes32(confirmedTrades[i].price[option]);\n    }\n    return bytesArray;\n  }\n\n  function balanceOf() external view returns(uint) {\n    return address(this).balance;\n  }\n\n  function getOptions() public view returns (bytes32[] memory) {\n    return options;\n  }\n\n  function getArbitrators() public view returns (address payable[] memory) {\n    return arbitrators;\n  }\n\n  function getJury() public view returns (address payable[] memory) {\n    return jury;\n  }\n\n  function hasArbitratorVoted(address arbitratorAddress) public view returns (bool) {\n    return selectedArbitrators[arbitratorAddress].hasVoted;\n  }\n\n  function hasJuryVoted(address juryAddress) public view returns (bool) {\n    return selectedJurys[juryAddress].hasVoted;\n  }\n\n\n\n  // ===================================================\n  // For testing purposes\n  // ===================================================\n  event UpdateWeightedVotes(address add, uint[2] beforeUpdate);\n\n  function getNumOfJurySelected() public view returns (uint) {\n    return numOfJury;\n  }\n\n  function getLastConfirmedTradeAddresses() public view returns (address, address, address, address) {\n    trade memory lastConfirmedTrade = confirmedTrades[confirmedTrades.length - 1];\n    address payable[4] memory tradeOwners = lastConfirmedTrade.shareOwners;\n    return (tradeOwners[0], tradeOwners[1], tradeOwners[2], tradeOwners[3]);\n  }\n}\n",
  "sourcePath": "/Users/gwynethang/Documents/Academics/Y4S1/Blockchain/Decentralised_Prediction_Market/contracts/Topic.sol",
  "compiler": {
    "name": "solc",
    "version": "0.5.16+commit.9c3226ce.Emscripten.clang"
  },
  "schemaVersion": "3.3.1",
  "updatedAt": "2020-11-01T03:11:28.973Z",
  "networkType": "ethereum",
  "devdoc": {
    "methods": {}
  },
  "userdoc": {
    "methods": {}
  }
}