{
  "contractName": "Topic",
  "abi": [
    {
      "inputs": [
        {
          "internalType": "address payable",
          "name": "_creator",
          "type": "address"
        },
        {
          "internalType": "string",
          "name": "_name",
          "type": "string"
        },
        {
          "internalType": "string",
          "name": "_description",
          "type": "string"
        },
        {
          "internalType": "bytes32[]",
          "name": "_options",
          "type": "bytes32[]"
        },
        {
          "internalType": "uint256",
          "name": "_bondValue",
          "type": "uint256"
        },
        {
          "internalType": "uint256",
          "name": "_expiryDate",
          "type": "uint256"
        },
        {
          "internalType": "address payable[]",
          "name": "_arbitrators",
          "type": "address[]"
        }
      ],
      "payable": true,
      "stateMutability": "payable",
      "type": "constructor"
    },
    {
      "constant": true,
      "inputs": [
        {
          "internalType": "uint256",
          "name": "",
          "type": "uint256"
        }
      ],
      "name": "arbitrators",
      "outputs": [
        {
          "internalType": "address payable",
          "name": "",
          "type": "address"
        }
      ],
      "payable": false,
      "stateMutability": "view",
      "type": "function"
    },
    {
      "constant": true,
      "inputs": [],
      "name": "creatorBond",
      "outputs": [
        {
          "internalType": "uint256",
          "name": "",
          "type": "uint256"
        }
      ],
      "payable": false,
      "stateMutability": "view",
      "type": "function"
    },
    {
      "constant": true,
      "inputs": [],
      "name": "description",
      "outputs": [
        {
          "internalType": "string",
          "name": "",
          "type": "string"
        }
      ],
      "payable": false,
      "stateMutability": "view",
      "type": "function"
    },
    {
      "constant": true,
      "inputs": [],
      "name": "expiryDate",
      "outputs": [
        {
          "internalType": "uint256",
          "name": "",
          "type": "uint256"
        }
      ],
      "payable": false,
      "stateMutability": "view",
      "type": "function"
    },
    {
      "constant": true,
      "inputs": [],
      "name": "marketCap",
      "outputs": [
        {
          "internalType": "uint256",
          "name": "",
          "type": "uint256"
        }
      ],
      "payable": false,
      "stateMutability": "view",
      "type": "function"
    },
    {
      "constant": true,
      "inputs": [],
      "name": "name",
      "outputs": [
        {
          "internalType": "string",
          "name": "",
          "type": "string"
        }
      ],
      "payable": false,
      "stateMutability": "view",
      "type": "function"
    },
    {
      "constant": true,
      "inputs": [
        {
          "internalType": "uint256",
          "name": "",
          "type": "uint256"
        }
      ],
      "name": "options",
      "outputs": [
        {
          "internalType": "bytes32",
          "name": "",
          "type": "bytes32"
        }
      ],
      "payable": false,
      "stateMutability": "view",
      "type": "function"
    },
    {
      "constant": true,
      "inputs": [],
      "name": "topicCreator",
      "outputs": [
        {
          "internalType": "address payable",
          "name": "",
          "type": "address"
        }
      ],
      "payable": false,
      "stateMutability": "view",
      "type": "function"
    },
    {
      "constant": false,
      "inputs": [
        {
          "internalType": "uint256",
          "name": "amount",
          "type": "uint256"
        },
        {
          "internalType": "uint256",
          "name": "option",
          "type": "uint256"
        }
      ],
      "name": "voteOption",
      "outputs": [
        {
          "internalType": "bool",
          "name": "",
          "type": "bool"
        }
      ],
      "payable": true,
      "stateMutability": "payable",
      "type": "function"
    },
    {
      "constant": true,
      "inputs": [
        {
          "internalType": "uint256",
          "name": "option",
          "type": "uint256"
        }
      ],
      "name": "getPendingVotePrice",
      "outputs": [
        {
          "internalType": "uint256",
          "name": "",
          "type": "uint256"
        }
      ],
      "payable": false,
      "stateMutability": "view",
      "type": "function"
    },
    {
      "constant": true,
      "inputs": [],
      "name": "getAllPendingVotePrice",
      "outputs": [
        {
          "internalType": "bytes32[]",
          "name": "",
          "type": "bytes32[]"
        }
      ],
      "payable": false,
      "stateMutability": "view",
      "type": "function"
    },
    {
      "constant": true,
      "inputs": [],
      "name": "balanceOf",
      "outputs": [
        {
          "internalType": "uint256",
          "name": "",
          "type": "uint256"
        }
      ],
      "payable": false,
      "stateMutability": "view",
      "type": "function"
    },
    {
      "constant": true,
      "inputs": [],
      "name": "getOptions",
      "outputs": [
        {
          "internalType": "bytes32[]",
          "name": "",
          "type": "bytes32[]"
        }
      ],
      "payable": false,
      "stateMutability": "view",
      "type": "function"
    },
    {
      "constant": true,
      "inputs": [],
      "name": "getArbitrators",
      "outputs": [
        {
          "internalType": "address payable[]",
          "name": "",
          "type": "address[]"
        }
      ],
      "payable": false,
      "stateMutability": "view",
      "type": "function"
    }
  ],
  "bytecode": "0x60806040526040516200142338038062001423833981810160405260e08110156200002957600080fd5b8101908080519060200190929190805160405193929190846401000000008211156200005457600080fd5b838201915060208201858111156200006b57600080fd5b82518660018202830111640100000000821117156200008957600080fd5b8083526020830192505050908051906020019080838360005b83811015620000bf578082015181840152602081019050620000a2565b50505050905090810190601f168015620000ed5780820380516001836020036101000a031916815260200191505b50604052602001805160405193929190846401000000008211156200011157600080fd5b838201915060208201858111156200012857600080fd5b82518660018202830111640100000000821117156200014657600080fd5b8083526020830192505050908051906020019080838360005b838110156200017c5780820151818401526020810190506200015f565b50505050905090810190601f168015620001aa5780820380516001836020036101000a031916815260200191505b5060405260200180516040519392919084640100000000821115620001ce57600080fd5b83820191506020820185811115620001e557600080fd5b82518660208202830111640100000000821117156200020357600080fd5b8083526020830192505050908051906020019060200280838360005b838110156200023c5780820151818401526020810190506200021f565b505050509050016040526020018051906020019092919080519060200190929190805160405193929190846401000000008211156200027a57600080fd5b838201915060208201858111156200029157600080fd5b8251866020820283011164010000000082111715620002af57600080fd5b8083526020830192505050908051906020019060200280838360005b83811015620002e8578082015181840152602081019050620002cb565b50505050905001604052505050866000806101000a81548173ffffffffffffffffffffffffffffffffffffffff021916908373ffffffffffffffffffffffffffffffffffffffff16021790555085600190805190602001906200034d9291906200046e565b508460029080519060200190620003669291906200046e565b5083600390805190602001906200037f929190620004f5565b50600060048190555082600581905550816006819055508060079080519060200190620003ae92919062000547565b5060008090505b84518110156200046057604051806040016040528060008152602001600073ffffffffffffffffffffffffffffffffffffffff1681525060088260048110620003fa57fe5b600202016000820151816000015560208201518160010160006101000a81548173ffffffffffffffffffffffffffffffffffffffff021916908373ffffffffffffffffffffffffffffffffffffffff1602179055509050508080600101915050620003b5565b50505050505050506200066c565b828054600181600116156101000203166002900490600052602060002090601f016020900481019282601f10620004b157805160ff1916838001178555620004e2565b82800160010185558215620004e2579182015b82811115620004e1578251825591602001919060010190620004c4565b5b509050620004f19190620005d6565b5090565b82805482825590600052602060002090810192821562000534579160200282015b828111156200053357825182559160200191906001019062000516565b5b509050620005439190620005fe565b5090565b828054828255906000526020600020908101928215620005c3579160200282015b82811115620005c25782518260006101000a81548173ffffffffffffffffffffffffffffffffffffffff021916908373ffffffffffffffffffffffffffffffffffffffff1602179055509160200191906001019062000568565b5b509050620005d2919062000626565b5090565b620005fb91905b80821115620005f7576000816000905550600101620005dd565b5090565b90565b6200062391905b808211156200061f57600081600090555060010162000605565b5090565b90565b6200066991905b808211156200066557600081816101000a81549073ffffffffffffffffffffffffffffffffffffffff0219169055506001016200062d565b5090565b90565b610da7806200067c6000396000f3fe6080604052600436106100dd5760003560e01c8063722713f71161007f578063a6430cc011610059578063a6430cc014610425578063b7454670146104a0578063cc2ee196146104ef578063fbcc1e711461055b576100dd565b8063722713f7146102fe5780637284e41614610329578063894c3b1f146103b9576100dd565b8063409e2205116100bb578063409e220514610209578063459d6e4f14610258578063509bd33714610283578063516dde43146102d3576100dd565b806306fdde03146100e2578063288fa802146101725780632c135b93146101de575b600080fd5b3480156100ee57600080fd5b506100f76105b2565b6040518080602001828103825283818151815260200191508051906020019080838360005b8381101561013757808201518184015260208101905061011c565b50505050905090810190601f1680156101645780820380516001836020036101000a031916815260200191505b509250505060405180910390f35b34801561017e57600080fd5b50610187610650565b6040518080602001828103825283818151815260200191508051906020019060200280838360005b838110156101ca5780820151818401526020810190506101af565b505050509050019250505060405180910390f35b3480156101ea57600080fd5b506101f36106e0565b6040518082815260200191505060405180910390f35b34801561021557600080fd5b506102426004803603602081101561022c57600080fd5b81019080803590602001909291905050506106e6565b6040518082815260200191505060405180910390f35b34801561026457600080fd5b5061026d610707565b6040518082815260200191505060405180910390f35b6102b96004803603604081101561029957600080fd5b81019080803590602001909291908035906020019092919050505061070d565b604051808215151515815260200191505060405180910390f35b3480156102df57600080fd5b506102e8610a14565b6040518082815260200191505060405180910390f35b34801561030a57600080fd5b50610313610a1a565b6040518082815260200191505060405180910390f35b34801561033557600080fd5b5061033e610a22565b6040518080602001828103825283818151815260200191508051906020019080838360005b8381101561037e578082015181840152602081019050610363565b50505050905090810190601f1680156103ab5780820380516001836020036101000a031916815260200191505b509250505060405180910390f35b3480156103c557600080fd5b506103ce610ac0565b6040518080602001828103825283818151815260200191508051906020019060200280838360005b838110156104115780820151818401526020810190506103f6565b505050509050019250505060405180910390f35b34801561043157600080fd5b5061045e6004803603602081101561044857600080fd5b8101908080359060200190929190505050610b4e565b604051808273ffffffffffffffffffffffffffffffffffffffff1673ffffffffffffffffffffffffffffffffffffffff16815260200191505060405180910390f35b3480156104ac57600080fd5b506104d9600480360360208110156104c357600080fd5b8101908080359060200190929190505050610b8a565b6040518082815260200191505060405180910390f35b3480156104fb57600080fd5b50610504610ba8565b6040518080602001828103825283818151815260200191508051906020019060200280838360005b8381101561054757808201518184015260208101905061052c565b505050509050019250505060405180910390f35b34801561056757600080fd5b50610570610c00565b604051808273ffffffffffffffffffffffffffffffffffffffff1673ffffffffffffffffffffffffffffffffffffffff16815260200191505060405180910390f35b60018054600181600116156101000203166002900480601f0160208091040260200160405190810160405280929190818152602001828054600181600116156101000203166002900480156106485780601f1061061d57610100808354040283529160200191610648565b820191906000526020600020905b81548152906001019060200180831161062b57829003601f168201915b505050505081565b60606000600490506060816040519080825280602002602001820160405280156106895781602001602082028038833980820191505090505b50905060008090505b828110156106d757600881600481106106a757fe5b600202016000015460001b8282815181106106be57fe5b6020026020010181815250508080600101915050610692565b50809250505090565b60045481565b600381815481106106f357fe5b906000526020600020016000915090505481565b60055481565b6000610717610c25565b60405180604001604052808581526020013373ffffffffffffffffffffffffffffffffffffffff168152509050836008846004811061075257fe5b600202016000015410610769576000915050610a0e565b6000670de0b6b3a7640000905061077e610c55565b60008090505b60048110156108335785811461082657600881600481106107a157fe5b600202016000015483039250600881600481106107ba57fe5b6002020160010160009054906101000a900473ffffffffffffffffffffffffffffffffffffffff168282600481106107ee57fe5b602002019073ffffffffffffffffffffffffffffffffffffffff16908173ffffffffffffffffffffffffffffffffffffffff16815250505b8080600101915050610784565b5085821161096e573381866004811061084857fe5b602002019073ffffffffffffffffffffffffffffffffffffffff16908173ffffffffffffffffffffffffffffffffffffffff1681525050610887610c77565b6040518060200160405280838152509050601081908060018154018082558091505090600182039060005260206000209060040201600090919290919091506000820151816000019060046108dd929190610c90565b505050503373ffffffffffffffffffffffffffffffffffffffff166108fc8489039081150290604051600060405180830381858888f19350505050158015610929573d6000803e3d6000fd5b5060008090505b60048110156109605760006008826004811061094857fe5b60020201600001819055508080600101915050610930565b506001945050505050610a0e565b610976610c25565b60405180604001604052808881526020013373ffffffffffffffffffffffffffffffffffffffff16815250905080600887600481106109b157fe5b600202016000820151816000015560208201518160010160006101000a81548173ffffffffffffffffffffffffffffffffffffffff021916908373ffffffffffffffffffffffffffffffffffffffff160217905550905050505050505b92915050565b60065481565b600047905090565b60028054600181600116156101000203166002900480601f016020809104026020016040519081016040528092919081815260200182805460018160011615610100020316600290048015610ab85780601f10610a8d57610100808354040283529160200191610ab8565b820191906000526020600020905b815481529060010190602001808311610a9b57829003601f168201915b505050505081565b60606007805480602002602001604051908101604052809291908181526020018280548015610b4457602002820191906000526020600020905b8160009054906101000a900473ffffffffffffffffffffffffffffffffffffffff1673ffffffffffffffffffffffffffffffffffffffff1681526020019060010190808311610afa575b5050505050905090565b60078181548110610b5b57fe5b906000526020600020016000915054906101000a900473ffffffffffffffffffffffffffffffffffffffff1681565b600060088260048110610b9957fe5b60020201600001549050919050565b60606003805480602002602001604051908101604052809291908181526020018280548015610bf657602002820191906000526020600020905b815481526020019060010190808311610be2575b5050505050905090565b6000809054906101000a900473ffffffffffffffffffffffffffffffffffffffff1681565b604051806040016040528060008152602001600073ffffffffffffffffffffffffffffffffffffffff1681525090565b6040518060800160405280600490602082028038833980820191505090505090565b6040518060200160405280610c8a610d0d565b81525090565b8260048101928215610cfc579160200282015b82811115610cfb5782518260006101000a81548173ffffffffffffffffffffffffffffffffffffffff021916908373ffffffffffffffffffffffffffffffffffffffff16021790555091602001919060010190610ca3565b5b509050610d099190610d2f565b5090565b6040518060800160405280600490602082028038833980820191505090505090565b610d6f91905b80821115610d6b57600081816101000a81549073ffffffffffffffffffffffffffffffffffffffff021916905550600101610d35565b5090565b9056fea265627a7a723158204c6965c04051171525d2b34cf5bce73a97429cda361a08059aea3c502343b45964736f6c63430005100032",
  "source": "// SPDX-License-Identifier: MIT\npragma solidity >=0.4.21 <=0.7.0;\n// pragma solidity ^0.7.0;\n\ncontract Topic {\n\n  address payable public topicCreator;\n  string public name;\n  string public description;\n  bytes32[] public options;\n  uint public marketCap;\n  uint public creatorBond;\n  uint256 public expiryDate;\n  address payable[] public arbitrators;\n\n  // Pending votes\n  voteStruct[4] pendingVotes;\n  struct voteStruct {\n    uint price; \n    address payable voter;\n  }\n\n\n  // Successful trades\n  trade[] confirmedTrades;\n  struct trade {\n    address payable[4] shareOwners;\n  }\n\n  constructor (\n      address payable _creator, string memory _name, string memory _description, bytes32[] memory _options, \n      uint _bondValue, uint256 _expiryDate, address payable[] memory _arbitrators\n    ) public payable {\n        topicCreator = _creator;\n        name = _name;\n        description = _description;\n        options = _options;\n        marketCap = 0;\n        creatorBond = _bondValue;\n        expiryDate = _expiryDate;\n        arbitrators = _arbitrators;\n\n        // init pending votes\n        for (uint i = 0; i < _options.length; i++) {\n          pendingVotes[i] = voteStruct(0, address(0));\n        }\n    }\n\n     \n\n\n  function voteOption(uint amount, uint option) public payable returns(bool){\n    // 1. Transfer the money in\n    // 2. If can be resolved now, resolve it and transfer any remaining money\n    voteStruct memory vote = voteStruct(amount, msg.sender);\n\n    // Reject the vote if it is lower than the last available vote\n    if(pendingVotes[option].price >=  amount){ //TODO: change this to require, so that dont need to give back money to trader\n      return false;\n    }\n\n    // Try to resolve the vote\n    uint balance = 1000000000000000000; // in Wei (can try initializing with '1 ether')\n    address payable[4] memory tempTrade;\n    for(uint i=0; i< 4; i++){\n      if(i != option){\n        balance = balance - pendingVotes[i].price; \n        tempTrade[i] = pendingVotes[i].voter;\n      }\n    }\n    \n    // Vote can go through\n    if(balance <= amount){\n      // Confirm the trade\n      tempTrade[option] = msg.sender;\n      trade memory tradeConfirmed = trade(tempTrade);\n      confirmedTrades.push(tradeConfirmed);\n\n      // Send the remaining money back to the sender\n      msg.sender.transfer(amount - balance);\n      // Reset the pending votes instance\n      for(uint i =0; i< 4; i++){\n        pendingVotes[i].price =0; \n      }\n      return true;\n    }\n\n    // if vote cannot go through, update the pending votes and keep the money\n    else {\n      voteStruct memory tempVote = voteStruct(amount, msg.sender); \n      pendingVotes[option] = tempVote;\n    }\n  }\n\n  function getPendingVotePrice(uint option) view public returns(uint){\n    return pendingVotes[option].price;\n  } \n\n\n  function getAllPendingVotePrice() view public returns(bytes32[] memory){\n    uint len = pendingVotes.length;\n    bytes32[] memory bytesArray = new bytes32[](len);\n    for (uint i = 0; i < len; i++) {\n      bytesArray[i] = bytes32(pendingVotes[i].price);\n    }\n    return bytesArray;\n  } \n\n  function balanceOf() external view returns(uint) {\n    return address(this).balance;\n  }\n\n  function getOptions() public view returns (bytes32[] memory) {\n    return options;\n  }\n\n  function getArbitrators() public view returns (address payable[] memory) {\n    return arbitrators;\n  }\n}\n",
  "sourcePath": "/Users/gwynethang/Documents/Academics/Y4S1/Blockchain/Decentralised_Prediction_Market/contracts/Topic.sol",
  "compiler": {
    "name": "solc",
    "version": "0.5.16+commit.9c3226ce.Emscripten.clang"
  },
  "schemaVersion": "3.3.1",
  "updatedAt": "2020-10-18T05:09:40.256Z",
  "networkType": "ethereum",
  "devdoc": {
    "methods": {}
  },
  "userdoc": {
    "methods": {}
  }
}